:100000000C943C010C9459010C9459010C94590125
:100010000C9459010C9459010C9459010C945901F8
:100020000C9459010C9459010C942E030C94540314
:100030000C9459010C9459010C9459010C945901D8
:100040000C9459010C9459010C9459010C945901C8
:100050000C9459010C9459010C9459010C945901B8
:100060000C9459010C9459010C9459010C945901A8
:100070000C9459010C9459010C9459010C94590198
:100080000C9459010C9459010C9459010C94590188
:100090000C9459010C9459010C9459010C94590178
:1000A0000C9459010C9459010C9459010001000061
:1000B000560212000200006C015B002200003A02AE
:1000C0001C002100007E010900220100FA0140000D
:1000D0002101009E010900220200C7013300210214
:1000E00000B7010900030000680104010309045678
:1000F0000110020309042401300303090400012252
:100100002203370034004600330041004300320030
:1001100045004600440033003100340041004100F6
:100120004300000030036B00650072006D00690041
:10013000740065005F0063006F00720065005F007F
:10014000610074006D0065006700610033003200DB
:1001500075003400000010036B00650072006D0034
:1001600069007400650000000403090409025B00D3
:10017000030100C03209040000020300000009214D
:1001800011010001221C0007058103400002070540
:1001900002034000080904010001030101000921D4
:1001A0001101000122400007058303080001090432
:1001B00002000103010200092111010001223300A4
:1001C0000705840308000105010902A101050919B9
:1001D000012903150025019503750181029501751B
:1001E0000581030501093009311581257F750895C1
:1001F000028106093895018106C005010906A101A1
:1002000075019508050719E029E715002501810208
:1002100095017508810395057501050819012905E2
:10022000910295017503910395067508150026FF47
:10023000000507190029FF8100C006ABFF0A000274
:10024000A1017508150026FF00954009018102955E
:100250004009029102C0120100020000002055F086
:1002600077A500010102030100010203040506074E
:1002700008090A0B0C0D0E0011241FBECFEFDAE0A7
:10028000DEBFCDBF12E0A0E0B1E0EAE6F9E202C0D5
:1002900005900D92A03CB107D9F725E0A0ECB2E0A3
:1002A00001C01D92AE30B207E1F70E941E110C94FE
:1002B000B3140C940000E82FE695E695E69593E0DC
:1002C000E99FF001112435A1282F277081E090E0EB
:1002D00001C0880F2A95EAF7832B85A30895E82F9C
:1002E000E695E695E69593E0E99FF001112434A1A7
:1002F000282F277081E090E001C0880F2A95EAF747
:10030000832B84A30895E82FE695E695E69593E080
:10031000E99FF001112434A1282F277081E090E09B
:1003200001C0880F2A95EAF78095832384A3089556
:10033000E82FE695E695E69593E0E99FF001112414
:1003400034A1282F277081E090E001C0880F2A9502
:10035000EAF7982F9095932394A395A1892B85A3D1
:10036000089561110C945B01E82FE695E695E695FA
:1003700093E0E99FF001112435A1282F277081E037
:1003800090E001C0880F2A95EAF78095832385A322
:100390000895282F26952695269530E02F5F3F4F0C
:1003A000A901440F551FFA01E20FF31F90A18770B6
:1003B00021E030E002C0220F331F8A95E2F7892F37
:1003C00090E02823392381E0121613060CF080E018
:1003D0000895E82FE695E695E69593E0E99FF0010C
:1003E000112435A1282F277081E090E001C0880FEB
:1003F0002A95EAF7832785A308958695869586959D
:1004000023E0829FC00111248596089586958695E4
:10041000869590E001969C01220F331F820F931F57
:1004200080960895877008950C945B0160E00C94A9
:10043000B101E82FE695E695E695F0E031969F014B
:10044000220F331FE20FF31F30A1282F277081E006
:1004500090E001C0880F2A95EAF7832B80A30895C6
:10046000CF939091C002992361F0C82F8A3019F47C
:100470008DE00E9430028091C80085FFFCCFC093C0
:10048000CE00CF9108959B01AC0160E472E48FE04F
:1004900090E00E944111215031093093CD0020930A
:1004A000CC00EAECF0E08081817F866080838081EF
:1004B0008F7C80838081877F8083E9ECF0E080817E
:1004C0008860808380E091E090930B0580930A051B
:1004D00081E08093C0020895E9ECF0E08081877F9D
:1004E000808380E091E090930B0580930A05109241
:1004F000C0020895EF92FF920F931F93CF938093C2
:10050000C9026093C8025093C7024093C602309359
:10051000C5022093C402C0E08091C902C817B8F494
:10052000EC2EF12CE091C602F091C702EE0DFF1DFA
:1005300080810E946F018091C6029091C702FC01E8
:10054000EE0DFF1D80810E941402CF5FE5CFC0E059
:100550008091C802C81758F4E091C402F091C50216
:10056000EC0FF11D80810E949801CF5FF1CF1093B5
:10057000C3020093C20281E08093C102CF911F9118
:100580000F91FF90EF900895CF92DF92EF92FF923C
:100590000F931F93CF93DF938091C102882309F4B7
:1005A00053C0E12CD12C01E010E08091C902E81683
:1005B00008F04AC0CE2DD0E0E091C602F091C7020B
:1005C000EC0FFD1F80810E941602FD2C8F2D8D19CE
:1005D0009091C802891760F59F2D9770C92EE09100
:1005E000C402F091C502E80FF11D80810E94C9018B
:1005F0002F2D26952695269530E0E091C202F091A8
:10060000C302E20FF31F811108C0C80101C0880FA7
:10061000CA94EAF79081892B08C0C80101C0880FED
:10062000CA94EAF78095908189238083F394CECF92
:100630008091C6029091C702C80FD91F88810E947D
:100640001402E394DF2CB1CFDF91CF911F910F9172
:10065000FF90EF90DF90CF90089508951F920F9232
:100660000FB60F9211248F939F938091E100109207
:10067000E10083FF0FC01092E90091E09093EB003E
:100680001092EC0092E29093ED0098E09093F000CD
:100690001092CB0282FD8091CB029F918F910F909F
:1006A0000FBE0F901F9018951F920F920FB60F92CA
:1006B00011242F933F934F935F936F937F938F9367
:1006C0009F93AF93BF93EF93FF931092E9008091B4
:1006D000E80083FFCEC09091F1008091F10020915D
:1006E000F1004091F10030E0342B4091F100609135
:1006F000F10050E0562B6091F1007091F100E2EFB3
:10070000E093E800863009F049C08CEA90E0FC01F3
:10071000A591B4912A173B07E1F4FC013296A5910B
:10072000B4914A175B07A9F4FC01349645915491A2
:10073000FC0136968491262F30E0372B2F3F310570
:1007400019F010F02FEF30E0281708F4822F3EEF59
:100750000DC00796E1E080309E07C9F68AC0490FB8
:10076000511D891B3093E8008823A9F09091E8007F
:10077000292F2570D9F392FD7FC0982F813208F080
:1007800090E2FA01292F222351F364916093F10042
:1007900021503196F8CF903249F36EC0853059F42C
:1007A0008EEF8093E8008091E80080FFFCCF206806
:1007B0002093E30061C08930C9F5911137C02093BF
:1007C000CB028EEF8093E80081E08093E900809374
:1007D000EB0091EC9093EC0026E32093ED0032E0E7
:1007E0003093E9008093EB0030EC3093EC002093E1
:1007F000ED0023E02093E9008093EB009093EC0060
:1008000026E02093ED0034E03093E9008093EB0084
:100810009093EC002093ED0081E391E00E94801121
:100820008EE18093EA001092EA0026C0411551053E
:10083000C1F04130510591F49132D9F4893099F4E5
:100840008091E80082FFFCCF8091F1008093CA0282
:100850008091CA028BEF8093E80007C042305105B7
:1008600041F4913231F48A3021F48EEF8093E80024
:1008700003C081E28093EB00FF91EF91BF91AF91B4
:100880009F918F917F916F915F914F913F912F91A8
:100890000F900FBE0F901F90189580E88093610015
:1008A0001092610081E08093D70080EA8093D800A5
:1008B00082E189BD09B400FEFDCF80E98093D800B4
:1008C0001092E0001092CB028CE08093E200089539
:1008D0009091CB02911102C080E0089593E0909333
:1008E000E9009091E80095FFF7CFF8948093F1002C
:1008F0001092F100FB01CB01069621912093F100AB
:10090000E817F907D1F78AE38093E800789481E04B
:1009100008952091CB02211102C080E0089523E0C8
:100920002093E9002091E80025FFF7CFF894FC011F
:10093000089621912093F100E817F907D1F78AE38F
:100940008093E800789481E008952091CB022111F2
:1009500002C080E0089521E02093E9002091E800A2
:1009600025FFF7CFF894FC01805C9F4F21912093E5
:10097000F100E817F907D1F78AE38093E80078944B
:1009800081E008952091CB02211102C080E00895FA
:1009900022E02093E9002091E80025FFF7CFF894AA
:1009A000FC01805C9F4F2091F1002193E817F9072B
:1009B000D1F78BE68093E800789481E008959091D8
:1009C000CB0281E0911101C080E00895E0914E03D7
:1009D000F0914F03309709F009940895E0914C038A
:1009E000F0914D03309709F0099408958CE093E05D
:1009F0000E94A504811104C087E491E00C94801149
:100A00000895CF93DF9390934F0380934E03709399
:100A10004D0360934C0381E190E00E94CC06882353
:100A200071F0C2E1D0E0CE010E94CC06682F8C2F7D
:100A300082510E94EE042196CC31D105A1F7DF91BD
:100A4000CF910895CF92DF92EF92FF920F931F9371
:100A5000CF93DF938CEC92E00E94C204882309F4C8
:100A600074C19091CC02903B09F011C12091CD024C
:100A70008091CE02213009F096C0803131F48AE6AF
:100A800091E00E94801181E084C0803271F5C091B4
:100A9000CF02D091D002DC27CD27DC276C960091C5
:100AA000D10292EDE92E92E0F92E6E0110E00117CD
:100AB00059F0F70161917F01C6010E94D0061F5FC6
:100AC000FFEFCF1ADF0AF3CFDF93CF931F920F937D
:100AD00089E891E09F938F930E9463110F900F908C
:100AE0000F900F900F900F9030C1813209F049C0E4
:100AF000C091CF02D091D002DC27CD27DC27009116
:100B0000D1021091D2021027012710271F930F93B3
:100B10006C96DF93CF9381EA91E09F938F930E942D
:100B200063110F900F900F900F900F900F90C12CAA
:100B3000D12CF12CC016D10651F0CE018C0D9D1D8B
:100B40000E94CC06F826EFEFCE1ADE0AF3CF1F92F2
:100B5000FF9289EB91E09F938F930E94631180EB4A
:100B600080930C0381E080930D0382E280930E0357
:100B7000F0920F03109210030F900F900F900F90B0
:100B8000BEC0813109F0E1C081EC91E00E9480118A
:100B900082E0DF91CF911F910F91FF90EF90DF9056
:100BA000CF900C94E604223009F05CC08038E1F468
:100BB00090930C0320930D0381E880930E0381E151
:100BC00090E00E94CC0680930F0300E113E0C2E1A5
:100BD000D0E0CE010E94CC06F80181938F012196CE
:100BE000CC31D105B1F78BC0803919F58FECC82E07
:100BF00082E0D82EC2E1D0E0F60111916F01612FA1
:100C0000CE010E94D006612F8C2F82510E94EE04EB
:100C10002196CC31D10581F761E081E190E0DF914F
:100C2000CF911F910F91FF90EF90DF90CF900C9498
:100C3000D006803A09F089C0C091CF02D091D0028D
:100C40008C2F90E06D2F42960E94D0066D2F8C2F36
:100C5000DF91CF911F910F91FF90EF90DF90CF9098
:100C60000C94EE04233009F070C0803909F06DC097
:100C70000FEC12E0C8E0D0E0F80161918F01CE01E5
:100C80000E94D0062196C031D105B1F75EC0903FD9
:100C900009F03FC08091CD02803109F056C0909399
:100CA0000C0381E180930D0310920E0386E0809384
:100CB0000F0383E080931003C1E0C093110348E069
:100CC00050E06FED71E082E193E00E943807C0933D
:100CD0001A0310921B030CE113E0C8E0D0E0CE0130
:100CE0000E94CC06F80181938F012196C031D10575
:100CF000B1F783E08093240384EE80932503DF9192
:100D0000CF911F910F91FF90EF90DF90CF900C94B7
:100D1000F604903DD1F48091CD02803141F4809170
:100D2000CE02813011F48AE034CF8BE032CF8032B2
:100D300061F48EEC92E0DF91CF911F910F91FF90C3
:100D4000EF90DF90CF900C948904DF91CF911F91A9
:100D50000F91FF90EF90DF90CF900895ECE0F3E0DB
:100D600090EE908390E99183828363830C94F604E0
:100D7000ECE0F3E020EE208321E92183928383835A
:100D80000C94F604ECE0F3E020EE208322E92183CA
:100D9000928383830C94F604F999FECF0C9451143A
:100DA000F999FECF0C946914F999FECF0C9459145B
:100DB000F999FECF0C9477149C01CB01F999FECFE1
:100DC000B9010C9441149C01CB01F999FECFB901F2
:100DD0000C945F14EF92FF920F931F93CF93DF93C6
:100DE000EC018C01060F171F88EEE82E81E0F82E2B
:100DF000C017D10761F089911F928F93FF92EF92F4
:100E00000E9463110F900F900F900F90F1CF8AE026
:100E100090E0DF91CF911F910F91FF90EF900C9494
:100E20007911EF92FF920F931F93CF93DF93EC0111
:100E30008C01060F171F8EEEE82E81E0F82EC017EA
:100E4000D10761F089911F928F93FF92EF920E94D8
:100E500063110F900F900F900F90F1CF8AE090E008
:100E6000DF91CF911F910F91FF90EF900C9479112A
:100E7000FB01460F571FE417F50729F02191DC010C
:100E80002D93CD01F8CF0895CF92DF92EF92FF928C
:100E90000F93CF93DF93EC0180E0EE24E394F12CE9
:100EA000801779F1982F960FE92FE695E695E6954C
:100EB000392F3770982F920F792F769576957695F2
:100EC000DA01A70FB11DCC90D12C9770D70102C0C9
:100ED000AA0FBB1F9A95E2F7CA22DB22F0E0D701E6
:100EE00001C0AA0F3A95EAF7EC0FFD1FCD2819F0C3
:100EF0009081A92B03C0A0959081A923A0838F5F27
:100F0000CFCFDF91CF910F91FF90EF90DF90CF90F7
:100F10000895FB01480F591F8417950741F0DC0124
:100F20003D91CD0121913217B9F380E0089581E020
:100F30000895AF92BF92CF92DF92EF92FF920F93FC
:100F40001F93CF93DF934CE050E060E573E08CE1BA
:100F500090E00E94DC06009150031091510310278D
:100F600001271027C0915203D0915303DC27CD27CE
:100F7000DC27C0905403A0905503B0905603D09046
:100F80005803E0905903F0905A03FE24EF24FE2406
:100F90001F92DF92809157031F928F931F92CF92DF
:100FA000DF93CF931F930F9382EF91E09F938F93E3
:100FB0000E9463118DB79EB70C960FB6F8949EBF32
:100FC0000FBE8DBF03301E4FA1F4219691F491E026
:100FD000C9120FC083E0A8120CC09CE0B91209C06E
:100FE00080E18D1530F081E098EDE91693E0F90687
:100FF00008F080E0C82FC17080FD0BC082E092E055
:101000000E9480116CE070E080E593E00E94EA06A7
:1010100004C08EE192E00E9480118C2FDF91CF916D
:101020001F910F91FF90EF90DF90CF90BF90AF9006
:101030000895CF93DF9348E050E060E573E080E0EF
:1010400090E00E94DC0648E050E06FED71E080E542
:1010500093E00E948907811117C086E392E00E9405
:10106000801148E050E06FED71E080E090E00E9478
:10107000E306C8E0D0E060E0CE010E94D0062196F1
:10108000C11584E0D807B9F7DF91CF910895EDE756
:10109000F4E020E030E0968D9F3F69F4F901EE0F17
:1010A000FF1FE556FB4F8083220F331FF901E358E2
:1010B000FB4F178E08952F5F3F4F32962430310536
:1010C00051F7089521E0FC018289823009F020E087
:1010D000822F08950F931F93CF938C010E94CC060B
:1010E000C82FC80101960E94CC062C2F30E0322F69
:1010F0002227A901482BCA01CF911F910F91089572
:101100002F923F924F925F926F927F928F929F9217
:10111000AF92BF92CF92DF92EF92FF920F931F9305
:10112000CF93DF93EC018C819D81860F911D9D8370
:101130008C831A8A8A81811106C08B81882319F0D9
:1011400081E08A838A8B8A81882331F08B818111A7
:1011500003C01A8282E08A8B90915D039F3F21F049
:1011600081E02881291301C080E081708E83888905
:101170009989892B09F0CDC08A89813009F0C9C0CD
:1011800038809FEAC92E94E0D92E2FE0E22EF12C70
:1011900055245A944E2C8091A3049091A4040E2CB3
:1011A00002C0969587950A94E2F780FD0BC081E016
:1011B000E81AF108E2E0CE1AD108FFEFEF16FF06B9
:1011C00049F7BDC09E2C0091B0041091B1048091EC
:1011D000B2049091B3040817190708F0A5C0C8011C
:1011E0000E946A089C01932F9F7337FF9DC032169F
:1011F00031F0892F90E00296080F191FE8CF0115F2
:10120000110509F491C0C8010E94CC060E5F1F4F62
:101210008F735801A80EB11C0A151B0508F084C075
:10122000C8010E94CC06982F9F70991661F0829594
:101230008770E82FF0E0ED5DFE4F808190E0019631
:10124000080F191FE9CF0115110509F46DC0C80178
:101250000E94CC0682958770282E8CEF820D8230FA
:1012600088F42092A7041092A9041092A804109266
:10127000AB041092AA041092AD041092AC045092E8
:10128000AE042AC0C80101960E946A085C018EEF74
:10129000820D823068F4C80103960E946A084C01EE
:1012A00083E0281207C0C80105960E946A0804C09E
:1012B000812C912C80E090E02092A704B092A904A8
:1012C000A092A8049092AB048092AA049093AD04DB
:1012D0008093AC044092AE048091A704853009F459
:1012E00066CF843061F1882309F461CF88E0E7EAB2
:1012F000F4E0DE01189601900D928A95E1F7E885F9
:10130000F0E0EE0FFF1FED5EFE4F80819181998B23
:10131000888BE889F9893097B1F0CE010995882347
:1013200091F0198A188A0FC0F60184A1682E661CF4
:101330006624661C712C6A94672809F038CF88E00F
:10134000EBE1F1E0D6CFDF91CF911F910F91FF90AC
:10135000EF90DF90CF90BF90AF909F908F907F9055
:101360006F905F904F903F902F900895CF93DF93B1
:101370004091A3045091A404C82FD0E09A01082EF4
:1013800002C0369527950A94E2F720FF29C021E094
:1013900030E0082E02C0220F331F0A94E2F7209596
:1013A0003095242335233093A4042093A3041F9263
:1013B0008F9383E592E09F938F930E946311CC0FEC
:1013C000DD1FCC54DB4F89818F700F900F900F90F1
:1013D0000F9031F080959091E40489238093E40488
:1013E000DF91CF910895CF92DF92EF92FF920F930A
:1013F0001F93CF93DF93C82ED090AF040FEA14E071
:10140000C0E0D0E0E62E660FFF08CD1578F4EC16AC
:10141000FD0641F0F80185818770C81203C08C2F4A
:101420000E94B60921960E5F1F4FEFCFDF91CF913B
:101430001F910F91FF90EF90DF90CF9008950F9341
:101440001F93CF93082F10E02091A3043091A404A0
:10145000082E02C0369527950A94E2F720FD35C084
:10146000C82F000F111FF801E155FB4F85818770D0
:1014700019F06C2F0E94F30981E090E00C2E02C05D
:10148000880F991F0A94E2F72091A3043091A404D5
:10149000822B932B9093A4048093A3041F92CF9349
:1014A00081E692E09F938F930E946311F801EC54C0
:1014B000FB4F81818F700F900F900F900F9029F04C
:1014C0009091E404892B8093E404CF911F910F91B4
:1014D0000895CF939C0124E0329F212D33271124BE
:1014E000213009F03DC0AC015370292F2695269577
:1014F0002F7029F03091E504232B2093E50441154A
:10150000510509F469C0342FBC016627727020911F
:10151000DC0490FF05C08091E60482608093E604BD
:10152000672B31F0822F8D7019F481E08093E704EE
:10153000332309F451C08091EE0496E08F5F86302A
:1015400009F480E0E82FF0E0EC52FB4F24892111F0
:1015500004C08093EE04448B3FC0915079F7F9CFDB
:10156000223099F5C92FCF7024E0969587952A955A
:10157000E1F78F70813091F0823081F0833091F00B
:101580008430A1F48091A3049091A4040C2E02C095
:10159000969587950A94E2F780FD04C08C2F0E94EF
:1015A0001F0A24C08C2F0E94B60920C08530F1F498
:1015B0008C2F0E941F0AC093A5048FEF8093A6046E
:1015C00082E892E00E94801111C0233029F46FEF6D
:1015D000892F87700E94F3098091A5048F3F31F015
:1015E0008091A6048F3F11F41092A6048091A30469
:1015F0009091A404892B21F480E0CF910C941F0AD0
:10160000CF910895CF93DF93C82FD0E0CC0FDD1F8B
:10161000FE01E358FB4F80819181009709F450C08F
:101620009C0124E0329F212D33271124213061F5C4
:10163000AC015370292F269526952F7031F02095F7
:101640003091E50423232093E5044115510559F118
:101650009C012227327090FF05C08091E6048D7FA7
:101660008093E604232B11F01092E7044423D9F071
:10167000E4EDF4E08489481301C0148A319684E0D3
:10168000EA3DF807B9F70FC0223069F49C0184E005
:10169000369527958A95E1F72F70213021F4892F0F
:1016A0008F700E94B6098091A3049091A404892BA5
:1016B00019F480E00E941F0AC358DB4F1982188278
:1016C000DF91CF910895EF92FF921F93CF93DF9315
:1016D000EC01998124E0929FC0011124862B89831B
:1016E0001D821C8218818B31A9F4E984FA84C70118
:1016F0000E94690AE12FF0E0EE0FFF1FE358FB4F55
:10170000F182E082812F0E9447082F85888190E036
:10171000906913C08730B9F4EB84FC84C7010E9440
:10172000690AE12FF0E0EE0FFF1FE358FB4FF18253
:10173000E0822F85888190E0906A922B90937C04C0
:1017400080937B0432C0873679F40984DA85C02D12
:10175000CE010E94690AE12FF0E0EE0FFF1FE3586F
:10176000FB4FD183C08321C08636A9F4ED84FE846B
:10177000C7010E94690AE12FF0E0EE0FFF1FE35856
:10178000FB4FF182E082812F0E944708888190E020
:10179000906B2F85D2CF823041F4812FDF91CF9192
:1017A0001F91FF90EF900C94020BDF91CF911F914E
:1017B000FF90EF900895CF92DF92EF92FF920F93F8
:1017C0001F93CF93DF93EC011A890981EC80FD8090
:1017D000DA80CE80113081F4063049F488ECE816C6
:1017E000F10428F461E0CE010E94630B16C0198257
:1017F00061E0CE010E94630B013059F4DD2061F1FC
:1018000088ECE816F104C0F163E0CE010E94630B9E
:1018100023C0093151F0063059F5D11029C088ECA8
:10182000E816F10428F163E009C0D1100CC01230B1
:10183000E9F488ECE816F104E8F462E0CE010E94D5
:10184000630B81E021C088ECE816F104D0F063E07E
:10185000CE010E94630B0CC0123041F488ECE816F4
:10186000F10440F462E0CE010E94630B80E00CC002
:101870001230E1F71982E1CFC110C6CF1230B1F7B3
:10188000F1CF123099F7D9CFDF91CF911F910F91FE
:10189000FF90EF90DF90CF900895DF92EF92FF924C
:1018A0000F931F93CF93DF93EC01998124E0929FD4
:1018B000C0011124862B89831D821C82D88086302A
:1018C000A9F4E984FA84C7010E94690AED2DF0E0C9
:1018D000EE0FFF1FE358FB4FF182E0828D2D0E9437
:1018E00047082F85888190E0906913C08730B9F44C
:1018F000EB84FC84C7010E94690AED2DF0E0EE0F35
:10190000FF1FE358FB4FF182E082888190E0906AEC
:101910002F85922B90937C0480937B041CC089318B
:1019200071F409851A85C8010E94690AED2DF0E05D
:10193000EE0FFF1FE358FB4F118300830CC0823072
:1019400051F48D2DDF91CF911F910F91FF90EF906A
:10195000DF900C94020BDF91CF911F910F91FF90BC
:10196000EF90DF900895CF92DF92EF92FF920F9366
:101970001F93CF93DF93EC010A891981EC80FD80DE
:10198000DA80CE80013069F4163031F488ECE81644
:10199000F10410F461E018C0198261E0CE010E94E8
:1019A0004D0C1130A9F4DD2041F088ECE816F1046B
:1019B00038F163E0CE010E944D0C023029F588EC2D
:1019C000E816F10408F562E0CE010E944D0C1CC03F
:1019D000163041F4D11018C088ECE816F104A0F0DC
:1019E00063E006C0023081F4173039F4198262E0F6
:1019F000CE010E944D0C81E008C01931B9F304C03A
:101A0000C110D7CF0230F9F280E0DF91CF911F9162
:101A10000F91FF90EF90DF90CF900895EF92FF929B
:101A20000F931F93CF93FC01918184E0989F9001C5
:101A30001124262B2183C0812130C9F48F01E18438
:101A4000F284C7010E94690AEC2FF0E0EE0FFF1F3D
:101A5000E358FB4FF182E082F8012785808190E016
:101A60009069922B90937C0480937B040AC022306F
:101A700041F48C2FCF911F910F91FF90EF900C9418
:101A8000020BCF911F910F91FF90EF900895FC01F1
:101A90002289213029F4118261E00E940E0D09C0D3
:101AA000223039F4FC01118262E00E940E0D81E0C7
:101AB000089580E00895CF92DF92EF92FF920F9306
:101AC0001F93CF93DF9384E290E00E94CC06D82F3F
:101AD00085E290E00E946A08D093AF042D2F30E099
:101AE0002C5E3F4F220F331F3093B1042093B0047C
:101AF0009C01285D3F4F3093B3042093B2049F9321
:101B00008F931F92DF938EE692E09F938F930E94B4
:101B1000631104EB14E00F900F900F900F900F9053
:101B20000F90680158E2E52EF12CC0E0CD1720F4AB
:101B3000C7010E946A0802C080E090E0D6018D9340
:101B40009D936D01CF5FB2E0EB0EF11CC03171F7D8
:101B5000E4EDF4E01192178284E0EC3DF807D1F750
:101B60001092E4041092E5041092E6041092E70447
:101B70001092E8041092E9041092EA041092EB0427
:101B80001092EC041092ED041092EE044091AF0418
:101B900080E090E020E030E061E070E0841788F4BD
:101BA000D801ED91FD918D01F5FF09C0FB01082ED3
:101BB00002C0EE0FFF1F0A94E2F72E2B3F2B019677
:101BC000EDCF3093A4042093A3048FEF8093A5045A
:101BD0008093A604EDE7F4E011921192B4E0EB39A2
:101BE000FB07D1F78FEF80939B0410929C048093A6
:101BF0009D0410929E0480939F041092A0048093F1
:101C0000A1041092A20480935D0310927C041092B0
:101C10007B04CDE5D3E080E089831A821B821C829D
:101C20001E821D821F82188698E0EBE1F1E0DE0142
:101C3000199601900D929A95E1F71A8A198A1B8AD2
:101C40008F5F63968F3041F781E080935C03DF9173
:101C5000CF911F910F91FF90EF90DF90CF9008955B
:101C600080915C038823C9F09091E4048091E5049D
:101C7000892B9091E604892B9091E70491118D7F37
:101C80008093DC04EEEDF4E08285819384E0E43E11
:101C9000F807D1F78CED94E0089584ED94E0089571
:101CA00080915C03882329F08091A3049091A4047F
:101CB000089580E090E0089580915C03882359F0B6
:101CC00080917B0490917C04009739F010927C0401
:101CD00010927B04089580E090E0089590915C0359
:101CE0009923E1F08F30D0F4282F30E0662369F09B
:101CF00080935D0383E1829FF001839FF00D1124A7
:101D0000E35AFC4F81E08483089583E1829FF001D0
:101D1000839FF00D1124E35AFC4F14820895EF9233
:101D2000FF920F931F93CF93DF9390915C039923BE
:101D300009F457C0C82F9EE5E92E93E0F92E10E074
:101D400080915D03811721F06C2FC7010E948008EC
:101D50001F5F23E1E20EF11C1F3091F780915D03BC
:101D60008F3F49F0E3E18E9FC00111246C2F825A0E
:101D70009C4F0E9480088FEF80935D030DE714E075
:101D800085E8E82E84E0F82EDFEFF801868D8F3F9E
:101D900049F0978D9C0F978F933320F00E94020B90
:101DA000F801D68F0E5F1F4FE016F10671F7809194
:101DB000A5048F3FB1F08091A60487FD12C0C80F23
:101DC000C093A604C3336CF08BE792E00E948011AD
:101DD0008091A5040E94B6098FEF8093A50480939B
:101DE000A604DF91CF911F910F91FF90EF9008957E
:101DF00010925C0308950E94990781110C945B0D69
:101E00000C94F80E813011F40C94F80E823011F419
:101E10000C94FB0E8A3021F481E08093F204089543
:101E20008B3011F41092F20408959091EF049923ED
:101E300081F020910E01422F50E021E030E0082E89
:101E400002C0220F331F0A94E2F724233523232BE9
:101E500011F1811107C081E0611101C080E0809320
:101E600012010895813031F4611101C080E0809346
:101E700011010895823039F481E0611101C080E0E0
:101E8000809310010895833031F481E0611101C025
:101E900080E080930F0108959091F104992331F02F
:101EA00091E0682F692785E10C94B1010895CF93E3
:101EB000DF93E0910205F0910305E80FF11DC49155
:101EC000CF3F91F1D62F662361F01F92CF938AE81E
:101ED00092E09F938F930E9463118091FD048F5F26
:101EE0000BC01F92CF9386E992E09F938F930E943D
:101EF00063118091FD0481508093FD040F900F9039
:101F00000F900F9080911101882321F06D2F8C2F5D
:101F10000E94AE068091F204811106C06D2F8C2FB5
:101F2000DF91CF910C946E0EDF91CF910895409187
:101F30000E0121E030E0662341F001C0220F8A95B6
:101F4000EAF7242B20930E010895B90102C0660F11
:101F5000771F8A95E2F7CB018095842380930E0149
:101F6000089581E08093F10485E10E946F0180E093
:101F70000E946F0180E00E944C0F8091F104882341
:101F800021F061E080E00C94B1010895BC0180E093
:101F900090E00E94430281E08093F0040895CF9383
:101FA000C82F0E94150F60E08C2FCF910C94970FD3
:101FB00021E030E001C0220F8A95EAF780910E01FE
:101FC000282B20930E010895909307058093060512
:101FD0007093050560930405509303054093020533
:101FE0000895CF93DF9300D000D0CDB7DEB7109225
:101FF000D8008091F004811102C00E946C0283E835
:1020000091E00E9480110E9419080E944D042091C5
:1020100004053091050540910605509107050EEF26
:1020200014E063E085E00E947A020E94FB0E81E0EA
:102030008093EF0465E17FE082E09FE00E9401056C
:1020400078941C821B829BEF292E94E0392E28EE77
:10205000422E21E0522E8B819C8101969C838B83A2
:1020600083709927892B09F0CDC00E94C4020EEF1E
:1020700014E080E0C82E85E0D82EA12CF6018081E6
:102080001A830983F8019081BA2CE12CF12C892E56
:10209000912C682E712CFFE0BF120EC00F5F1F4FF6
:1020A000E981FA818081F60181936F01F8E0AF0E3A
:1020B00020E1A212E3CF22C081E090E00E2C02C00A
:1020C000880F991F0A94E2F7940128233923862167
:1020D0009721892B21F4232B41F061E003C0232BAE
:1020E00021F460E08B2D0E94570F8FEFE81AF80A59
:1020F000B39498E0E916F10471F6D0CF85E00E9420
:102100008F0E0E94500E7C010E94300E8C01809137
:10211000FB049091FC04E816F90671F0809111011E
:10212000882319F0C7010E94B806F092FC04E092DF
:10213000FB04FF24F39401C0F12C48E050E063EF6E
:1021400074E0C8010E94890781110FC080911201BB
:10215000882319F0C8010E94890448E050E0B801C2
:1021600083EF94E00E94380702C0FF2091F1E0EA7B
:10217000F2E0FF93EF930E94631103EF14E00F90DE
:102180000F90F80181918F011F928F935F924F9270
:102190000E9463110F900F900F900F902016310640
:1021A00081F78DEA92E09F938F930E946311809153
:1021B000FC048F938091FB048F9381EB92E09F93BB
:1021C0008F930E9463110F900F900F900F900F90BC
:1021D0000F900E945C0E009729F0209111012111AF
:1021E0000E94C20680911001882361F08091F10461
:1021F000882341F061E08091FD04811160E080E07E
:102200000E94B10180910F01882379F08B819C811C
:1022100060ED77E00E942D11009711F481E003C07A
:10222000019719F480E00E944C0F8FE99FE001971D
:10223000F1F700C000000E9422050DCF0E94B10FEF
:1022400048E652E069E271E08CE291E00E94E40F1E
:102250000E94F10F80E090E00895AA1BBB1B51E1A2
:1022600007C0AA1FBB1FA617B70710F0A61BB70B06
:10227000881F991F5A95A9F780959095BC01CD01AB
:102280000895A1E21A2EAA1BBB1BFD010DC0AA1FB7
:10229000BB1FEE1FFF1FA217B307E407F50720F0CF
:1022A000A21BB30BE40BF50B661F771F881F991F4A
:1022B0001A9469F760957095809590959B01AC0193
:1022C000BD01CF010895A0E0B0E0E9E6F1E10C9492
:1022D0008C14AE014B5F5F4FFA0161917191AF01B8
:1022E00080910A0590910B050E94B011E2E00C94D8
:1022F000A81460910A0570910B050E94A713089518
:102300000F931F93CF93DF93E0910A05F0910B0594
:10231000238121FF1BC08C01D0E0C0E0F801819136
:102320008F0160910A0570910B05DB011896ED9104
:10233000FC911997882331F00995892B79F3DFEF08
:10234000CFEFECCF8AE00995892B19F08FEF9FEF43
:1023500002C08D2F9C2FDF91CF911F910F91089577
:10236000ABE0B0E0E6EBF1E10C947C146C017B0196
:102370008A01FC0117821682838181FFCCC1CE01C4
:1023800001963C01F6019381F70193FD859193FF3E
:1023900081917F01882309F4BAC1853239F493FD14
:1023A000859193FF81917F01853229F4B60190E0F8
:1023B0000E94A713E7CF912C212C312CFFE1F315BC
:1023C000D8F08B3279F038F4803279F08332A1F48E
:1023D000232D20611DC08D3261F0803369F4232DDF
:1023E000216016C0832D8260382EE32DE4603E2EDE
:1023F0002AC0F32DF8601DC037FC2DC020ED280F3A
:102400002A3040F08E32B9F436FC81C1232D20648D
:10241000322E19C036FE06C08AE0989E200D112487
:10242000922E11C0EAE02E9E200D1124222EF32DB3
:10243000F0623F2E08C08C3621F4832D8068382E40
:1024400002C0883641F4F70193FD859193FF819195
:102450007F018111B3CF982F9F7D9554933028F43D
:102460000C5F1F4F9FE399830DC0833631F0833794
:1024700071F0833509F059C021C0F801808189834A
:102480000E5F1F4F88248394912C530113C02801A1
:10249000F2E04F0E511CF801A080B18036FE03C05F
:1024A000692D70E002C06FEF7FEFC5010E949C13A1
:1024B0004C018201F32DFF773F2E16C0280122E048
:1024C000420E511CF801A080B18036FE03C0692D78
:1024D00070E002C06FEF7FEFC5010E9491134C01C5
:1024E000F32DF0683F2E820133FC1BC0822D90E05B
:1024F00088169906B0F4B60180E290E00E94A71316
:102500002A94F4CFF50137FC859137FE81915F0164
:10251000B60190E00E94A71321102A9421E0821AAC
:1025200091088114910471F7E8C0843611F089365E
:1025300041F5F80137FE07C0608171818281938186
:102540000C5F1F4F08C060817181072E000C880B43
:10255000990B0E5F1F4FF32DFF763F2E97FF09C09B
:1025600090958095709561957F4F8F4F9F4FF06844
:102570003F2E2AE030E0A3010E94E313882E861844
:1025800045C0853731F4232D2F7EB22E2AE030E06E
:1025900025C0932D997FB92E8F36C1F018F4883558
:1025A00079F0B5C0803719F0883721F0B0C0E92F35
:1025B000E061BE2EB4FE0DC0FB2DF460BF2E09C03D
:1025C00034FE0AC0292F2660B22E06C028E030E073
:1025D00005C020E130E002C020E132E0F801B7FEA2
:1025E00007C060817181828193810C5F1F4F06C09B
:1025F0006081718180E090E00E5F1F4FA3010E9417
:10260000E313882E8618FB2DFF773F2E36FE0DC074
:10261000232D2E7FA22E891458F434FE0BC032FCD9
:1026200009C0832D8E7EA82E05C0B82CA32C03C014
:10263000B82C01C0B92CA4FE0FC0FE01E80DF11D9D
:102640008081803321F49A2D997EA92E09C0A2FEA3
:1026500006C0B394B39404C08A2D867809F0B3946D
:10266000A3FC11C0A0FE06C0B21488F4280C922C62
:102670009B180EC0B21460F4B60180E290E00E9494
:10268000A713B394F7CFB21418F42B1802C0982CE8
:10269000212CA4FE10C0B60180E390E00E94A71395
:1026A000A2FE17C0A1FC03C088E790E002C088E545
:1026B00090E0B6010CC08A2D867859F0A1FE02C0C8
:1026C0008BE201C080E2A7FC8DE2B60190E00E949F
:1026D000A713891438F4B60180E390E00E94A71391
:1026E0009A94F7CF8A94F301E80DF11D8081B60129
:1026F00090E00E94A7138110F5CF222009F442CE6A
:10270000B60180E290E00E94A7132A94F6CFF6016A
:102710008681978102C08FEF9FEF2B96E2E10C94A8
:102720009814FC010590615070400110D8F7809515
:1027300090958E0F9F1F0895FC016150704001908D
:102740000110D8F7809590958E0F9F1F08950F93D5
:102750001F93CF93DF93FB01238121FD03C08FEFF4
:102760009FEF2CC022FF16C04681578124813581FE
:102770004217530744F4A081B1819D012F5F3F4F61
:10278000318320838C93268137812F5F3F4F37839E
:10279000268314C08B01EC01FB010084F185E02D40
:1027A0000995892BE1F6D80116968D919C91179782
:1027B000019617969C938E931697CE01DF91CF9139
:1027C0001F910F910895FA01AA27283051F1203165
:1027D00081F1E8946F936E7F6E5F7F4F8F4F9F4FB5
:1027E000AF4FB1E03ED0B4E03CD0670F781F891FF7
:1027F0009A1FA11D680F791F8A1F911DA11D6A0FC5
:10280000711D811D911DA11D20D009F468943F9177
:102810002AE0269F11243019305D3193DEF6CF0176
:102820000895462F4770405D4193B3E00FD0C9F73C
:10283000F6CF462F4F70405D4A3318F0495D31FDA9
:102840004052419302D0A9F7EACFB4E0A6959795FC
:10285000879577956795BA95C9F7009761057105D2
:1028600008959B01AC010A2E06945795479537951C
:102870002795BA95C9F7620F731F841F951FA01D76
:102880000895DC01CB01FC01F999FECF06C0F2BD31
:10289000E1BDF89A319600B40D9241505040B8F71E
:1028A0000895F999FECF92BD81BDF89A992780B518
:1028B0000895A8E1B0E042E050E00C944314DC013C
:1028C000CB0103C02D910E946A1441505040D0F7B3
:1028D0000895262FF999FECF1FBA92BD81BD20BD64
:1028E0000FB6F894FA9AF99A0FBE019608950E94CD
:1028F0006914272F0C946A142F923F924F925F9283
:102900006F927F928F929F92AF92BF92CF92DF92FF
:10291000EF92FF920F931F93CF93DF93CDB7DEB764
:10292000CA1BDB0B0FB6F894DEBF0FBECDBF0994F8
:102930002A88398848885F846E847D848C849B844F
:10294000AA84B984C884DF80EE80FD800C811B815D
:10295000AA81B981CE0FD11D0FB6F894DEBF0FBE8C
:0A296000CDBFED010895F894FFCFFC
:10296A000000000200000000300200000000FF0129
:10297A000101016208470DB30CDB0B0000000000E7
:10298A000000FF000204060000242526140E171E6C
:10299A00047573622064657669636520636F6E6689
:1029AA00696775726564005B7761726E5D20666146
:1029BA00696C656420746F2077726974652072612E
:1029CA00776869642064617461006D656D6F7279FE
:1029DA00207772697465207472616E7361637469B9
:1029EA006F6E207374617274002564206279746555
:1029FA0073207772697474656E2061742025640A85
:102A0A0000636865636B2C20616464722025642C02
:102A1A00206C656E2025640A00636B3A2025640ADF
:102A2A00006D656D6F7279207772697465207472B2
:102A3A00616E73616374696F6E20646F6E650064A2
:102A4A0078356B45395355002530325820002564B6
:102A5A0020002578202578202578202564202564E3
:102A6A000A00696E76616C69642061737369676EC6
:102A7A00207374726F6167652064617461006173A9
:102A8A007369676E2073746F72616765206973205A
:102A9A0076616C696400636C656172206565707249
:102AAA006F6D20666F72206E65772070726F6A652F
:102ABA006374006C61796572206F66662025640A0A
:102ACA00006C61796572206F6E2025640A006E6C55
:102ADA003A256420626C3A25640A0063616E636574
:102AEA006C206F6E6573686F74006B6579646F77BD
:102AFA006E2025640A006B657975702025640A00CA
:102B0A00484944207265706F72743A5B005D2C20EC
:102B1A00006C61796572733A20253032580A0000D8
:00000001FF
