:100000000C943C010C9459010C9459010C94590125
:100010000C9459010C9459010C9459010C945901F8
:100020000C9459010C9459010C9427030C944B0324
:100030000C9459010C9459010C9459010C945901D8
:100040000C9459010C9459010C9459010C945901C8
:100050000C9459010C9459010C9459010C945901B8
:100060000C9459010C9459010C9459010C945901A8
:100070000C9459010C9459010C9459010C94590198
:100080000C9459010C9459010C9459010C94590188
:100090000C9459010C9459010C9459010C94590178
:1000A0000C9459010C9459010C9459010001000061
:1000B000560212000200006C015B002200003A02AE
:1000C0001C002100007E010900220100FA0140000D
:1000D0002101009E010900220200C7013300210214
:1000E00000B7010900030000680104010309045678
:1000F0000110020309042401300303090400012252
:100100002203370034004600330041004300320030
:1001100045004600440033003100340041004100F6
:100120004300000030036B00650072006D00690041
:10013000740065005F0063006F00720065005F007F
:10014000610074006D0065006700610033003200DB
:1001500075003400000010036B00650072006D0034
:1001600069007400650000000403090409025B00D3
:10017000030100C03209040000020300000009214D
:1001800011010001221C0007058103400002070540
:1001900002034000080904010001030101000921D4
:1001A0001101000122400007058303080001090432
:1001B00002000103010200092111010001223300A4
:1001C0000705840308000105010902A101050919B9
:1001D000012903150025019503750181029501751B
:1001E0000581030501093009311581257F750895C1
:1001F000028106093895018106C005010906A101A1
:1002000075019508050719E029E715002501810208
:1002100095017508810395057501050819012905E2
:10022000910295017503910395067508150026FF47
:10023000000507190029FF8100C006ABFF0A000274
:10024000A1017508150026FF00954009018102955E
:100250004009029102C0120100020000002055F086
:1002600077A500010102030100010203040506074E
:1002700008090A0B0C0D0E0011241FBECFEFDAE0A7
:10028000DEBFCDBF12E0A0E0B1E0EAE5F6E202C0D9
:1002900005900D92AC39B107D9F724E0ACE9B2E092
:1002A00001C01D92A53EB207E1F70E94B10F0C9468
:1002B0002B130C940000E82FE695E695E69593E065
:1002C000E99FF001112435A1282F277081E090E0EB
:1002D00001C0880F2A95EAF78095832385A30895A6
:1002E000E82FE695E695E69593E0E99FF001112465
:1002F00094A1877021E030E001C0220F8A95EAF7CF
:10030000892F822B84A30895E82FE695E695E6953C
:1003100093E0E99FF001112434A1282F277081E098
:1003200090E001C0880F2A95EAF78095832384A383
:100330000895E82FE695E695E69563E0E69FF001DF
:10034000112444A1877021E030E0B90102C0660F9A
:10035000771F8A95E2F7CB01962F9095942394A36B
:1003600095A1892B85A30895662399F0E82FE6953A
:10037000E695E69593E0E99FF001112495A1877039
:1003800021E030E001C0220F8A95EAF7922B95A375
:1003900008950C945B01282F26952695269530E02C
:1003A0002F5F3F4FA901440F551F240F351FF9013F
:1003B00090A1877021E030E002C0220F331F8A95A0
:1003C000E2F7892F90E02823392381E012161306E3
:1003D0000CF080E00895E82FE695E695E69593E029
:1003E000E99FF001112495A1877021E030E001C060
:1003F000220F8A95EAF7892F822785A3089586958B
:100400008695869523E0829FC001112485960895E4
:1004100086958695869590E001969C01220F331F64
:10042000820F931F809608958770089561E00C9461
:10043000B4010C945B01282F26952695269530E073
:100440002F5F3F4FF901EE0FFF1FE20FF31F90A147
:10045000877021E030E001C0220F8A95EAF7892FEA
:10046000822B80A30895CF93C82F8A3019F48DE092
:100470000E9433028091C80085FFFCCFC093CE005C
:10048000CF910895CF93DF9300D000D0CDB7DEB7E2
:1004900069837A838B839C8360E472E48FE090E0CD
:1004A00029813A814B815C810E94D40F215031090E
:1004B0003093CD002093CC00EAECF0E08081817F86
:1004C0008660808380818F7C80838081877F80832A
:1004D000E9ECF0E080818860808380E091E0909397
:1004E000E2048093E1040F900F900F900F90DF9142
:1004F000CF910895EF92FF920F931F93CF93809324
:10050000A4026093A3025093A2024093A1023093ED
:10051000A00220939F02C0E08091A402C81790F02F
:10052000C0E08091A302C81718F100939D021093B8
:100530009E0281E080939C02CF911F910F91FF90CA
:10054000EF900895EC2EF12CE091A102F091A2021F
:10055000EE0DFF1D80810E947001E091A102F091DB
:10056000A202EE0DFF1D80810E941602CF5FD4CF44
:10057000E0919F02F091A002EC0FF11D80810E949A
:100580009901CF5FCECFCF92DF92EF92FF920F9380
:100590001F93CF93DF9380919C02811151C0DF9113
:1005A000CF911F910F91FF90EF90DF90CF90089522
:1005B0000D2D10E0E091A102F091A202E00FF11FD9
:1005C00080810E941902D0E0CC2DCD0F8091A30232
:1005D000D81788F08091A1029091A202080F191FEC
:1005E000F80180810E941602D394CC2E8091A4023F
:1005F000D816F0F2D4CFE0919F02F091A002ED0F57
:10060000F11D80810E94CB01EC2FE695E695E695E1
:10061000F0E0C770A70101C0440FCA95EAF7209126
:100620009D0230919E02E20FF31F811105C080816F
:10063000482B4083DF5FC8CF409580814823F9CFA6
:10064000D12CC12CEE24E394F12CD0CF08951F922D
:100650001FB61F9211248F939F938091E1001092F7
:10066000E10083FF0FC01092E90091E09093EB004E
:100670001092EC0092E29093ED0098E09093F000DD
:100680001092A60282FD8091A6029F918F911F90E9
:100690001FBE1F9018951F920F920FB60F92112434
:1006A0002F933F934F935F936F937F938F939F937A
:1006B000AF93BF93EF93FF931092E9008091E8000E
:1006C00083FF68C09091F1008091F1002091F100CA
:1006D0003091F1004091F1005091F1006091F100F2
:1006E0007091F100E2EFE093E800863009F05EC01F
:1006F0008CEA90E0FC01A591B4912A173B0709F020
:1007000043C0FC013296A591B4914A175B0709F0EA
:100710003BC0FC013496459154910696FC018491AE
:100720006F3F710519F010F06FEF70E0681708F473
:10073000862F3EEF9091E800292F2570D9F392FD86
:1007400012C0982F813208F090E2FA01292F21116E
:1007500027C0490F511D282F291B3093E80089130A
:100760001DC08032D8F4FF91EF91BF91AF919F915E
:100770008F917F916F915F914F913F912F910F904A
:100780000FBE0F901F9018950796F1E080309F07DD
:1007900009F0B0CF81E28093EB00E5CF822FCACF82
:1007A00064916093F10021503196D1CF853059F496
:1007B0008EEF8093E8008091E80080FFFCCF2068F6
:1007C0002093E300D0CF8930C9F5911137C0209331
:1007D000A6028EEF8093E80081E08093E900809389
:1007E000EB0091EC9093EC0026E32093ED0032E0D7
:1007F0003093E9008093EB0030EC3093EC002093D1
:10080000ED0023E02093E9008093EB009093EC004F
:1008100026E02093ED0034E03093E9008093EB0074
:100820009093EC002093ED008CE291E00E94111077
:100830008EE18093EA001092EA0095CF41155105B0
:1008400039F4913209F0A6CF8A3009F0A3CF15C050
:1008500041305105B1F4913209F09CCF8930A1F7B4
:100860008091E80082FFFCCF8091F1008093A50287
:100870008091A5028BEF8093E8008EEF8093E800D3
:1008800072CF42305105E9F285CF80E88093610054
:100890001092610081E08093D70080EA8093D800B5
:1008A00082E189BD09B400FEFDCF80E98093D800C4
:1008B0001092E0001092A6028CE08093E20008956E
:1008C0009091A602911102C080E0089593E0909368
:1008D000E9009091E80095FFF7CFF8948093F1003C
:1008E0001092F100FB01CB01069621912093F100BB
:1008F000E817F907D1F78AE38093E800789481E05C
:1009000008952091A602211102C080E0089523E0FD
:100910002093E9002091E80025FFF7CFF894FC012F
:10092000089621912093F100E817F907D1F78AE39F
:100930008093E800789481E008952091A602211127
:1009400002C080E0089521E02093E9002091E800B2
:1009500025FFF7CFF894FC01805C9F4F21912093F5
:10096000F100E817F907D1F78AE38093E80078945B
:1009700081E008952091A602211102C080E008952F
:1009800022E02093E9002091E80025FFF7CFF894BA
:10099000FC01805C9F4F2091F1002193E817F9073B
:1009A000D1F78BE68093E800789481E008959091E8
:1009B000A60281E0911101C080E00895E091270333
:1009C000F0912803309709F00994089587EE92E09A
:1009D0000E949D04811104C082E491E00C941110E6
:1009E000089590932803809327030895CF92DF9270
:1009F000FF920F931F93CF93DF9387EA92E00E94B9
:100A0000BA04882309F48AC08091A702803B09F0C8
:100A1000AAC08091A802813009F080C08091A9020B
:100A2000803171F485E691E00E94111081E0DF9140
:100A3000CF911F910F91FF90DF90CF900C94DE0427
:100A4000803209F44AC0813209F07BC00091AA02C9
:100A50001091AB02102701271027C091AC02D09152
:100A6000AD02DC27CD27DC27DF93CF931F930F93B5
:100A70008CE991E09F938F930E94F60F0F900F9057
:100A80000F900F900F900F90D12CC12CF12CCC1601
:100A9000DD0609F05EC01F92FF9284EB91E09F9308
:100AA0008F930E94F60F80EB8093E70281E08093A2
:100AB000E80282E28093E902F092EA021092EB02ED
:100AC0000F900F900F900F90DF91CF911F910F918A
:100AD000FF90DF90CF900C94E604C091AA02D091D1
:100AE000AB02DC27CD27DC27F090AC028DEAC82EC4
:100AF00082E0D82E10E000E00F15C0F0DF93CF9316
:100B00001F92FF9284E891E09F938F930E94F60FCB
:100B10000F900F900F900F900F900F90DF91CF914B
:100B20001F910F91FF90DF90CF900895F601619192
:100B30006F01C8018C0F9D1F0E941B060F5F1F4F86
:100B4000DBCF813159F78CEB91E00E94111082E0EC
:100B50006ECFC601800F911F0E941706F8268FEFF7
:100B6000C81AD80A94CF803F61F0803DB9F68091D1
:100B7000A802803151F58091A902813021F58AE0E7
:100B800056CF9091A802903149F68093E70281E117
:100B90008093E8021092E90282E08093EA0283E007
:100BA0008093EB0281E08093EC028FEF8093ED0263
:100BB0001092EE0248E050E06AED71E08FEE92E0B4
:100BC0000E94870681CF8BE032CF803209F0A6CF1A
:100BD00089EA92E0DF91CF911F910F91FF90DF9012
:100BE000CF900C948104E7EEF2E090EE908390E9D0
:100BF0009183828363830C94E604E7EEF2E020EEB7
:100C0000208321E92183982789279827938382834A
:100C10000C94E604E7EEF2E020EE208322E9218343
:100C2000982789279827938382830C94E604F9995F
:100C3000FECF0C94C912F999FECF0C94E112F999E8
:100C4000FECF0C94D112F999FECF0C94EF12382FED
:100C5000292FCB01F999FECF632F722F0C94B91273
:100C6000382F292FCB01F999FECF632F722F0C94C7
:100C7000D712EF92FF920F931F93CF93DF93EC0164
:100C80008C01060F171F83EEE82E81E0F82EC017A7
:100C9000D10751F48AE090E0DF91CF911F910F913D
:100CA000FF90EF900C940A1089911F928F93FF92FE
:100CB000EF920E94F60F0F900F900F900F90E7CFDA
:100CC000EF92FF920F931F93CF93DF93EC018C0170
:100CD000060F171F89EEE82E81E0F82EC017D10706
:100CE00051F48AE090E0DF91CF911F910F91FF9036
:100CF000EF900C940A1089911F928F93FF92EF92BC
:100D00000E94F60F0F900F900F900F90E7CFFB010E
:100D1000DC01460F571FE417F50709F40895819188
:100D20008D93F9CFCF92DF92EF92FF920F931F93A3
:100D3000CF93DF93EC01162F7A0140E061E070E081
:100D4000401309C0DF91CF911F910F91FF90EF9059
:100D5000DF90CF900895842F810FE82FE695E695D8
:100D6000E695EC0FFD2FF11D50818770DB0102C06D
:100D7000AA0FBB1F8A95E2F7CD01342F320FA32FA4
:100D8000A695A695A695AE0DBF2DB11DAC91B0E070
:100D900037706B0102C0CC0CDD1C3A95E2F7AC2138
:100DA000BD21AB2B21F0852B80834F5FC9CF809570
:100DB0008523FACFFC01DB01480F591FE417F50723
:100DC00011F481E0089591918D919817B9F380E025
:100DD0000895AF92BF92CF92DF92EF92FF920F935E
:100DE0001F93CF93DF934CE050E069E273E090E013
:100DF00080E00E9427060091290310912A03102702
:100E000001271027C0912B03D0912C03DC27CD277D
:100E1000DC27C0902D03A0902E03B0902F03D0901C
:100E20003103E0903203F09033031F92DF92809100
:100E300030031F928F931F92CF92DF93CF931F9314
:100E40000F938DEE91E09F938F930E94F60F8DB7D5
:100E50009EB70C960FB6F8949EBF0FBE8DBF0330A1
:100E60001E4FB9F42196A9F491E0C91212C083E093
:100E7000A8120FC098E1B9120CC080E18D1548F09E
:100E8000FE24EF24FE2481E098EEE91693E0F906B3
:100E900008F080E0C82FC17080FD16C08DEF91E092
:100EA0000E94111068E070E089E293E00E94390628
:100EB0008C2FDF91CF911F910F91FF90EF90DF90DA
:100EC000CF90BF90AF90089588E192E00E941110FA
:100ED000EFCFE6E5F4E030E020E0968D9F3F69F447
:100EE000F901EE0FFF1FEC58FB4F8083220F331FD9
:100EF000F901EA5AFB4F178E08952F5F3F4F329644
:100F00002430310551F70895FC01878570E0762F74
:100F100066277295707F782B8081682B706870933C
:100F20005504609354040895FC0181E09289923045
:100F300009F080E00895CF93DF9340917C045091B5
:100F40007D04C82FD0E09A01082E02C0369527955F
:100F50000A94E2F720FF29C021E030E0082E02C009
:100F6000220F331F0A94E2F720953095242335236E
:100F700030937D0420937C041F928F9380E392E052
:100F80009F938F930E94F60FCC0FDD1FC357DB4F4B
:100F900089818F700F900F900F900F9031F0809596
:100FA0009091BD0489238093BD04DF91CF91089572
:100FB000CF92DF92EF92FF920F931F93CF93DF9325
:100FC000F82EE090880408E814E0D0E0C0E0C62ED7
:100FD000660FDD08CE1548F0DF91CF911F910F917C
:100FE000FF90EF90DF90CF900895CC16DD0641F092
:100FF000F80185818770F81203C08C2F0E949B072F
:1010000021960E5F1F4FE6CF0F931F93CF93C82FEC
:10101000082F10E080917C0490917D040C2E02C07A
:10102000969587950A94E2F780FD34C0000F111F52
:10103000F801E857FB4F8581877019F06C2F0E94EB
:10104000D80721E030E00C2E02C0220F331F0A9493
:10105000E2F780917C0490917D04822B932B9093F6
:101060007D0480937C041F92CF938EE392E09F9344
:101070008F930E94F60FF801E357FB4F81818F7029
:101080000F900F900F900F9029F09091BD04892B35
:101090008093BD04CF911F910F9108951F93CF931B
:1010A000DF93EC010E941706182FCE0101960E94D3
:1010B0001706912FDF91CF911F9108956F927F9224
:1010C0008F929F92AF92BF92CF92DF92EF92FF9258
:1010D0000F931F93CF93DF93EC018C819D81680F59
:1010E000792F711D7D836C831A8A8B819A8191116E
:1010F00001C1882319F081E08A838A8B909136039D
:101100009F3F21F081E02881291301C080E0817098
:101110008E8388899989892B71F58A89813059F55F
:10112000B8802FE0E22EF12CAA24AA948E2C9E2CBB
:1011300080917C0490917D040E2C02C09695879539
:101140000A94E2F780FD30C081E0E81AF10870F7F8
:1011500088E0E6E1F1E0DE01189601900D928A95B3
:10116000E1F7E885F0E0EE0FFF1FE25FFE4F8081C0
:101170009181998B888BE889F989309731F0CE017C
:101180000995882311F0198A188ADF91CF911F9150
:101190000F91FF90EF90DF90CF90BF90AF909F9016
:1011A0008F907F906F9008950091890410918A0428
:1011B00080918B0490918C040817190740F4C801A2
:1011C0000E944E089C01832F8F7337FD09C0F701E1
:1011D000EE0FFF1FE857FB4F868187FFB5CFB8CFD3
:1011E000B21629F090E00296080F191FE1CF011501
:1011F000110569F3C8010E9417060E5F1F4F8F7318
:101200006801C80ED11C0C151D0508F7C8010E9405
:101210001706982F9F70981561F082958770E82FB8
:10122000F0E0E25EFE4F808190E00196080F191F0A
:10123000EACF0115110559F2C8010E9417068295DF
:101240008770D82E8CEF8D0D8230F8F4D092800408
:1012500010928204109281041092840410928304EC
:101260001092860410928504A092870480918004D5
:10127000853009F469CF843009F46ACF882309F4F2
:1012800063CF88E0E0E8F4E066CFC80101960E94F1
:101290004E083C018EEF8D0D812CC12C823058F40C
:1012A000C80103960E944E089C0191E0C12C232B9B
:1012B00009F490E0892E83E030E020E0D81209C0E4
:1012C000C80105960E944E0831E020E0892B09F400
:1012D00030E0D09280046092810470928204809207
:1012E0008304C092840430938504209386049092F2
:1012F0008704BCCF811102CF1A8282E0FECECF9349
:101300009C0184E0989F812D99271124813009F058
:1013100043C0A9015370832F869586958F7029F05D
:101320009091BE04892B8093BE044115510549F16B
:10133000642FF901EE27F2708091B50430FF05C0EB
:101340009091BF0492609093BF04EF2B29F08D70B1
:1013500019F481E08093C004662399F08091C7045A
:1013600096E08F5F863009F480E0E82FF0E0E355E7
:10137000FB4F2489222311F0915099F78093C704E1
:10138000448B80917E048F3FB1F080917F048F3F2A
:1013900091F410927F040FC08230E9F5C32FCF7013
:1013A00084E0369527958A95E1F72F70213069F40E
:1013B0008C2F0E94040880917C0490917D04892BDD
:1013C00099F580E0CF910C940408223089F3233002
:1013D00021F48C2F0E949B07EECF243069F480917A
:1013E0007C0490917D040C2E02C0969587950A94FA
:1013F000E2F780FDEECFDCCF2530E9F68C2F0E949E
:101400000408C0937E048FEF80937F048FE592E001
:101410000E941110D0CF833009F0B3CF6FEF832F2C
:1014200087700E94D807ADCFCF910895CF93DF93F7
:10143000C82FD0E0CC0FDD1FFE01EA5AFB4F8081A0
:101440009181009709F442C09C0124E0329F212D34
:10145000332711242130E9F5AC015370292F26954B
:1014600026952F7031F020953091BE0423232093D0
:10147000BE0441155105E9F09C012227327090FF0E
:1014800005C08091BF048D7F8093BF04232B11F092
:101490001092C004442369F0E1ECF4E087EC94E09E
:1014A0002191421303C0DF0111971C928E179F07F1
:1014B000B9F780917C0490917D04892B19F480E028
:1014C0000E940408CA5ADB4F19821882DF91CF911B
:1014D0000895223071F79C0184E0369527958A950E
:1014E000E1F72F70213029F7892F8F700E949B0719
:1014F000E0CFEF92FF921F93CF93DF93EC018981AE
:1015000024E0829FC0011124682B69831D821C8204
:1015100018816B31C9F4E984FA84C7010E947F09FC
:10152000E12FF0E0EE0FFF1FEA5AFB4FF182E0825D
:10153000812F0E94690761E0CE01DF91CF911F9159
:10154000FF90EF900C9484076730B1F0673619F57F
:101550000984DA85C02DCE010E947F09E12FF0E0D9
:10156000EE0FFF1FEA5AFB4FD183C083DF91CF916B
:101570001F91FF90EF900895EB84FC84C7010E94B7
:101580007F09E12FF0E0EE0FFF1FEA5AFB4FF182D7
:10159000E08262E0D1CF663651F0623039F7812FB8
:1015A000DF91CF911F91FF90EF900C94160AED847C
:1015B000FE84C7010E947F09E12FF0E0EE0FFF1FBC
:1015C000EA5AFB4FF182E082812F0E94690763E0B3
:1015D000B3CFCF92DF92EF92FF920F931F93CF93EF
:1015E000DF93EC011A890981EC80FD80DA80CE80DE
:1015F000113061F4063029F461E088ECE816F1045A
:1016000040F1198261E0CE010E94790A013081F037
:10161000093119F1063061F11230B1F180E0DF914A
:10162000CF911F910F91FF90EF90DF90CF90089591
:10163000DD2041F088ECE816F104A0F163E0CE0172
:101640000E94790A123051F788ECE816F104E0F4B0
:1016500062E0CE010E94790AE1CFDD20B9F088EC8A
:10166000E816F104D8F063E0CE010E94790AD4CFE5
:10167000D110D2CF63E088ECE816F10468F2CE0115
:101680000E94790A81E0CBCF198206C0123031F670
:1016900088ECE816F104C0F762E0F1CF123009F0EF
:1016A000BDCFFACFC110CACF123091F2B7CFDF92BF
:1016B000EF92FF920F931F93CF93DF93EC018981F9
:1016C00024E0829FC0011124682B69831D821C8243
:1016D000D8806630D9F4E984FA84C7010E947F0972
:1016E000ED2DF0E0EE0FFF1FEA5AFB4FF182E08292
:1016F0008D2D0E94690761E0CE01DF91CF911F918E
:101700000F91FF90EF90DF900C948407673081F089
:101710006931E9F409851A85C8010E947F09ED2D18
:10172000F0E0EE0FFF1FEA5AFB4F1183008311C058
:10173000EB84FC84C7010E947F09ED2DF0E0EE0FE1
:10174000FF1FEA5AFB4FF182E08262E0D5CF6230A0
:1017500041F0DF91CF911F910F91FF90EF90DF90BB
:1017600008958D2DDF91CF911F910F91FF90EF90F4
:10177000DF900C94160ACF92DF92EF92FF920F93B4
:101780001F93CF93DF93EC010A891981EC80FD80D0
:10179000DA80CE80013061F4163029F461E088EC03
:1017A000E816F10460F1198261E0CE010E94570B46
:1017B000113059F0163039F5D11005C063E088ECCE
:1017C000E816F10430F580E028C0DD2089F063E000
:1017D00088ECE816F10498F4CC2021F063E0CE0107
:1017E0000E94570B023079F709C0193161F70FC019
:1017F000023049F788ECE816F10428F762E0CE01E0
:101800000E94570BE0CF0230F1F6173071F71982C2
:1018100062E0CE010E94570B81E0DF91CF911F91D2
:101820000F91FF90EF90DF90CF900895EF92FF928D
:101830001F93CF93DF93EC01898124E0829FC00145
:101840001124682B698318816130B1F4E984FA842A
:10185000C7010E947F09E12FF0E0EE0FFF1FEA5A57
:10186000FB4FF182E08261E0CE01DF91CF911F91C9
:10187000FF90EF900C948407623041F4812FDF9148
:10188000CF911F91FF90EF900C94160ADF91CF91AA
:101890001F91FF90EF900895FC018289813039F407
:1018A000118261E0CF010E94160C80E00895823021
:1018B000E1F7118262E0CF010E94160C81E00895E9
:1018C000CF92DF92EF92FF920F931F93CF93DF930C
:1018D00088E090E00E941706C82F89E090E00E94FF
:1018E0004E089C01C09388048C2F90E00C96880FC2
:1018F000991F90938A0480938904C9014896909314
:101900008C0480938B043F932F931F92CF938BE48F
:1019100092E09F938F930E94F60F0DE814E00F90D2
:101920000F900F900F900F900F90680158E1E52EE7
:10193000F12CD0E030E020E0DC1720F4C7010E9459
:101940004E089C01D6012D933D936D01DF5FB2E0FF
:10195000EB0EF11CD03171F7EDEAF4E085EB94E089
:10196000119217828E179F07D9F71092BD0410921B
:10197000BE041092BF041092C0041092C1041092D1
:10198000C2041092C3041092C4041092C5041092B1
:10199000C6041092C7044091880490E080E030E0D3
:1019A00020E061E070E0841708F450C030937D04BB
:1019B00020937C048FEF80937E0480937F04E6E580
:1019C000F4E084E794E0119211928E179F07D9F703
:1019D0008FEF8093740410927504809376041092B4
:1019E0007704809378041092790480937A0410929B
:1019F0007B04809336031092550410925404C6E37E
:101A0000D3E080E089831A821B821C821E821D82A1
:101A10001F82188698E0E6E1F1E0DE011996019058
:101A20000D929A95E1F71A8A198A1B8A8F5F63963D
:101A30008F3041F781E080933503DF91CF911F9183
:101A40000F91FF90EF90DF90CF900895D801ED9126
:101A5000FD918D01F5FF09C0FB01082E02C0EE0FBC
:101A6000FF1F0A94E2F72E2B3F2B01969CCF80910B
:101A700035038823C9F08091BD049091BE04892B61
:101A80009091BF04892B9091C00491118D7F809318
:101A9000B504E7EBF4E08285819384E0ED3BF80741
:101AA000D1F785EB94E008958DEA94E00895809154
:101AB0003503882329F080917C0490917D0408955A
:101AC00090E080E0089580913503882359F080915B
:101AD000540490915504009739F0109255041092D7
:101AE0005404089590E080E008959091350399237F
:101AF000E1F08F30D0F4282F30E0662369F0809336
:101B0000360383E1829FF001839FF00D1124EA5C8C
:101B1000FC4F81E08483089583E1829FF001839FDD
:101B2000F00D1124EA5CFC4F14820895EF92FF92AD
:101B30000F931F93CF93DF93182F80913503882342
:101B400009F450C087E3E82E83E0F82EC0E08091CE
:101B500036038C1721F0612FC7010E945E08CF5F0A
:101B600023E1E20EF11CCF3091F7809136038F3FD5
:101B700049F023E1829FC0011124612F895C9C4FB1
:101B80000E945E088FEF80933603C6E5D4E00FEF26
:101B90008E8D8F3F41F09F8D910F9F8F933318F063
:101BA0000E94160A0E8F229684E0CE35D80781F760
:101BB00080917E048F3FB1F080917F0487FD12C039
:101BC000180F10937F0413336CF088E592E00E94A5
:101BD000111080917E040E949B078FEF80937E04FA
:101BE00080937F04DF91CF911F910F91FF90EF9031
:101BF00008951092350308950E94E90681110C940E
:101C0000600C0C94F90D813011F40C94F90D8230B4
:101C100029F08A3029F08B3039F008950C94FC0DAE
:101C200081E08093C90408951092C9040895682F33
:101C30008091C804882329F081E0682785E10C940D
:101C4000B4010895CF93DF93D62FE091D904F0919A
:101C5000DA04E80FF11DC491CF3F69F16623F9F072
:101C60001F92CF9387E692E09F938F930E94F60F87
:101C70008091D4048F5F8093D4040F900F900F90C5
:101C80000F906D2F8C2F0E94F3058091C904811154
:101C900012C06D2F8C2FDF91CF910C94750D1F9278
:101CA000CF9383E792E09F938F930E94F60F8091EA
:101CB000D4048150E0CFDF91CF9108959093DE045A
:101CC0008093DD047093DC046093DB045093DA04AA
:101CD0004093D904089581E08093C80485E10E946F
:101CE000700180E00E94700180E00E94170E8091D8
:101CF000C804882321F061E080E00C94B4010895C9
:101D0000CF93DF9300D000D0CDB7DEB79C0150E079
:101D100040E029833A834B835C83CA01B9010F9069
:101D20000F900F900F90DF91CF910C944202CF93C0
:101D3000DF9300D00F92CDB7DEB71092D8008EE7B8
:101D400091E00E9411100E9445042091DB04309123
:101D5000DC044091DD045091DE0405ED14E063E005
:101D600085E00E947A020E94FC0D83E09EE00E94C2
:101D7000F104789410E000E022ED222E24E0322ECF
:101D800033EE432E31E0532E4AE8642E42E0742EA7
:101D90000F5F1F4FC80183709927892B09F0C3C0BB
:101DA0000E94C30287EDE82E84E0F82E95EDC92E3F
:101DB00094E0D92E1982F70181917F01F60191916A
:101DC0006F011B821A82A92EB12C882E912C898139
:101DD000FA818F0F8F30E1F021E030E002C0220F56
:101DE000331FFA95E2F7A501422353232821392115
:101DF000232B09F0AFC061E0452B09F0AFC02A8169
:101E00003B812F5F3F4F3B832A8328303105F9F612
:101E1000F60131978081F701319780833981385FEE
:101E20003983303141F685E00E94960D0E94570DAE
:101E30008A839B830E94370D7C018091D20490910C
:101E4000D304EA81FB81E817F90709F455C0CF01F3
:101E50000E94FD052A813B813093D3042093D20454
:101E600031E0398348E050E06AEC74E0C7010E9439
:101E7000DA06811143C0C7010E94810448E050E0A6
:101E8000B7018AEC94E00E948706EDE7F2E0FF9349
:101E9000EF930E94F60F8AEC94E09B838A830F9065
:101EA0000F90EA81FB818191FB83EA831F928F93DC
:101EB0005F924F920E94F60F0F900F900F900F902D
:101EC0002A813B812216330661F77F926F920E942E
:101ED000F60F8091D3048F938091D2048F938EE874
:101EE00092E09F938F930E94F60F0F900F900F90A8
:101EF0000F900F900F9005C01982B4CF8981811186
:101F0000C4CF0E94630D009711F00E940A068091D1
:101F1000C804882341F061E08091D404811160E01D
:101F200080E00E94B401C80160ED77E00E94C00F1C
:101F3000009761F481E00E94170E8FE99FE00197FE
:101F4000F1F700C000000E94F60422CF0197A9F724
:101F500080E0F1CF452B09F052CF60E00E94220EC5
:101F60004ECF0E946B0E48E652E064E271E087E2D9
:101F700091E00E945E0E0E94970E90E080E008952E
:101F8000AA1BBB1B51E107C0AA1FBB1FA617B7079F
:101F900010F0A61BB70B881F991F5A95A9F78095BB
:101FA0009095BC01CD010895A1E21A2EAA1BBB1B7E
:101FB000FD010DC0AA1FBB1FEE1FFF1FA217B30715
:101FC000E407F50720F0A21BB30BE40BF50B661F2B
:101FD000771F881F991F1A9469F7609570958095EF
:101FE00090959B01AC01BD01CF010895B0E0A0E048
:101FF000ECEFFFE00C940413FE01359661917191B2
:10200000AF018091E1049091E2040E943D10E2E072
:102010000C9420136091E1047091E2040E942B1251
:1020200008950F931F93CF93DF93E091E104F09114
:10203000E204238110E000E021FD0EC00FEF1FEF4E
:10204000C801DF91CF911F910F9108950995892BB8
:1020500011F00FEF1FEFCE01EC0189916091E104C7
:102060007091E204DB011896ED91FC918111EECFA5
:102070008AE00995892B21F3E1CFAFE0B0E0E3E4FA
:10208000F0E10C94F4127C013B018A01DC0117960B
:102090001C921E92169713968C9181FFC3C19AE0F1
:1020A000292EFE0131964F01D70113969C91F30121
:1020B00093FD859193FF81913F01882309F448C1E5
:1020C000853239F493FD859193FF81913F018532EB
:1020D00029F4B70190E00E942B12E6CFB12C412CDD
:1020E000512CBFE1B51538F08B3209F188F48032FC
:1020F00001F1833221F157FC3AC020ED280F2A303C
:1021000040F556FE1FC0B29C200D1124B22E06C011
:102110008D3291F0803379F7689450F8F30193FD94
:10212000859193FF81913F018111DBCF20C068949D
:1021300051F8689452F8F2CF689453F8EFCF68944E
:1021400054F8ECCF429C200D1124422E689455F88F
:10215000E5CF8E3229F456FCFBC0689456F8DECFEA
:102160008C3619F4689457F8D9CF8836B9F2982F7D
:102170009F7D95549330C0F08336A1F18337C1F130
:10218000833509F05BC0D801CD90DD908D016B2DBA
:1021900070E056FC02C06FEF7FEFC6010E9415127F
:1021A0005C01689457F80AC00C5F1F4FEFE3E983A6
:1021B000AA24A394B12C6401E89457F853FC04C0FA
:1021C0004A141B0409F018F5342CA114B10431F59C
:1021D000332009F469CFB70180E290E00E942B120E
:1021E0003A94F6CFD8018C9189830E5F1F4FE0CFD0
:1021F000F801C190D1908F016B2D70E056FC02C0A8
:102200006FEF7FEFC6010E9420125C01D5CFB701AE
:1022100080E290E00E942B124A94D2CFF60157FC44
:10222000859157FE81916F01B70190E00E942B12BA
:1022300031103A94B1E0AB1AB108C7CF843619F027
:10224000893609F074C0F80157FE6AC06191719136
:10225000819191918F01E52DEF76DE2E97FF09C0D8
:1022600090958095709561957F4F8F4F9F4F6894A3
:10227000D7F82AE030E0A4010E945B12C82EC818EB
:10228000AC2C5D2CD6FE0CC0E89450F8CB1440F476
:10229000D4FE05C0D2FC03C05D2D5E7E552EAB2C56
:1022A00054FE98C0FE01EC0DF11D8081803309F0D1
:1022B0008AC0652D697E562E752D7870372E53FC99
:1022C00098C050FE92C0BC2CA41418F44C0CB42C32
:1022D000BA1854FE94C0B70180E390E00E942B121C
:1022E00052FE09C088E790E051FE02C088E590E008
:1022F000B7010E942B12CB1408F48DC0CA94D12CC4
:102300008FEFC81AD80AC80CD91CD6018E916D015E
:10231000B70190E00E942B128C149D04B1F758CFA6
:1023200061917191072E000C880B990B93CFD52CDE
:10233000E894D4F82AE030E0853739F1F52DF97FBB
:10234000DF2E8037A9F058F48835A9F08F36D9F000
:10235000F701868197812F96E2E10C94101388375C
:10236000B9F7D4FE02C06894D2F820E130E00DC085
:102370006894D4F8F6CF54FE03C02F2F2660D22ED7
:1023800020E132E002C028E030E0F801D7FE15C0BD
:1023900041915191619171914C875D876E877F87E3
:1023A0008F01A4016C857D858E859F850E945B12BF
:1023B000C82EC818E894D7F863CF81919191AC01E9
:1023C00070E060E0E9CF52FC02C0A39475CFA39403
:1023D000A39472CF852D867809F46ECFF6CFB7011E
:1023E00080E290E00E942B12A394A414C0F3312C3D
:1023F00070CF342C3A18A41408F46BCFF8CF852D85
:10240000867809F478CF8BE251FE80E257FC8DE2AA
:10241000B70190E06ECFB70180E390E00E942B12ED
:10242000BA9469CF8FEF9FEF96CFFC010590615072
:1024300070400110D8F7809590958E0F9F1F0895DA
:10244000FC016150704001900110D8F78095909583
:102450008E0F9F1F08950F931F93CF93DF93182F15
:10246000092FEB018B8181FD09C01FEF0FEF812F39
:10247000902FDF91CF911F910F91089582FF14C08B
:102480002E813F818C819D81281739073CF4E8819A
:10249000F981CF0101969983888310838E819F8172
:1024A00001969F838E83E3CFE885F985812F099577
:1024B000892BA1F3DACFFA01AA27283051F1203174
:1024C00081F1E8946F936E7F6E5F7F4F8F4F9F4FC8
:1024D000AF4FB1E03ED0B4E03CD0670F781F891F0A
:1024E0009A1FA11D680F791F8A1F911DA11D6A0FD8
:1024F000711D811D911DA11D20D009F468943F918B
:102500002AE0269F11243019305D3193DEF6CF0189
:102510000895462F4770405D4193B3E00FD0C9F74F
:10252000F6CF462F4F70405D4A3318F0495D31FDBC
:102530004052419302D0A9F7EACFB4E0A69597950F
:10254000879577956795BA95C9F7009761057105E5
:1025500008959B01AC010A2E06945795479537952F
:102560002795BA95C9F7620F731F841F951FA01D89
:102570000895DC01CB01FC01F999FECF06C0F2BD44
:10258000E1BDF89A319600B40D9241505040B8F731
:102590000895F999FECF92BD81BDF89A992780B52B
:1025A0000895A8E1B0E042E050E00C94BB12DC01D9
:1025B000CB0103C02D910E94E21241505040D0F750
:1025C0000895262FF999FECF1FBA92BD81BD20BD77
:1025D0000FB6F894FA9AF99A0FBE019608950E94E0
:1025E000E112272F0C94E2122F923F924F925F92AA
:1025F0006F927F928F929F92AF92BF92CF92DF9213
:10260000EF92FF920F931F93CF93DF93CDB7DEB777
:10261000CA1BDB0B0FB6F894DEBF0FBECDBF09940B
:102620002A88398848885F846E847D848C849B8462
:10263000AA84B984C884DF80EE80FD800C811B8170
:10264000AA81B981CE0FD11D0FB6F894DEBF0FBE9F
:0A265000CDBFED010895F894FFCF0F
:10265A00000000020000000033020000000094079E
:10266A004C0CBB0BE90A00000000000000FF00024E
:10267A0004060000242526140E171E047573622012
:10268A0064657669636520636F6E666967757265EE
:10269A0064005B7761726E5D206661696C656420B7
:1026AA00746F207772697465207261776869642033
:1026BA0064617461006D656D6F72792077726974F7
:1026CA0065207472616E73616374696F6E207374CE
:1026DA006172740025642062797465732077726967
:1026EA007474656E2061742025640A0063686563EA
:1026FA006B2C20616464722025642C206C656E202A
:10270A0025640A00636B3A2025640A006D656D6FC3
:10271A007279207772697465207472616E7361636D
:10272A0074696F6E20646F6E65006478356B453925
:10273A005355002530325820002564200025782082
:10274A0025782025782025642025640A00696E767C
:10275A00616C696420636F6E666967206D656D6F71
:10276A007279206461746100636F6E666967206DB7
:10277A00656D6F72792069732076616C6965640092
:10278A006C61796572206F66662025640A006C6147
:10279A00796572206F6E2025640A006E6C3A256492
:1027AA0020626C3A25640A0063616E63656C206F6F
:1027BA006E6573686F74006B6579646F776E202538
:1027CA00640A006B657975702025640A00484944DB
:1027DA00207265706F72743A5B005D2C20006C6128
:0C27EA00796572733A20253032580A00DD
:00000001FF
