:100000000C94C4020C94E1020C94E1020C94E10201
:100010000C94E1020C94E1020C94E1020C94E102D4
:100020000C94E1020C94E1020C94CD040C94F104C4
:100030000C94E1020C94E1020C94E1020C94E102B4
:100040000C94E1020C94E1020C94E1020C94E102A4
:100050000C94E1020C94E1020C94E1020C94E10294
:100060000C94E1020C94E1020C94E1020C94E10284
:100070000C94E1020C94E1020C94E1020C94E10274
:100080000C94E1020C94E1020C94E1020C94E10264
:100090000C94E1020C94E1020C94E1020C94E10254
:1000A0000C94E1020C94E1020C94E10200010000C6
:1000B000660212000200007C015B002200004A027E
:1000C0001C002100008E0109002201000A024000EC
:1000D000210100AE010900220200D70133002102F4
:1000E00000C7010900030000780104010309046648
:1000F0000110020309043401300303090400013232
:10010000320330003000300030003000300030006A
:10011000300030003000300030003000300030005F
:10012000300030003000300030003000300030004F
:100130003000000030034B00650072006D00690064
:100140007400650020004B006500790062006F00BC
:1001500061007200640020004400650076006900C0
:1001600063006500000010034B00650072006D0025
:1001700069007400650000000403090409025B00C3
:10018000030100C03209040000020300000009213D
:1001900011010001221C0007058103400002070530
:1001A00002034000080904010001030101000921C4
:1001B0001101000122400007058303080001090422
:1001C0000200010301020009211101000122330094
:1001D0000705840308000105010902A101050919A9
:1001E000012903150025019503750181029501750B
:1001F0000581030501093009311581257F750895B1
:10020000028106093895018106C005010906A10190
:1002100075019508050719E029E7150025018102F8
:1002200095017508810395057501050819012905D2
:10023000910295017503910395067508150026FF37
:10024000000507190029FF8100C006ABFF0A000264
:10025000A1017508150026FF00954009018102954E
:100260004009029102C0120100020000002055F076
:1002700077A50001010203010151030400000002FF
:100280005303050000000355030600000004570354
:100290000700000005590308000000065B03090081
:1002A0000000075D030A000000085F030B00000068
:1002B00009D2030C0000000A61030D0000000B636B
:1002C000030E0000000C65030F0000000D67031013
:1002D0000000000E6903110000000F6B0312000004
:1002E00000106D0313000000116F031400000012D2
:1002F000710315000000139403160000001473032B
:1003000017000000151102180000001675031900EF
:1003100000001777031A0000001879031B00000083
:10032000197B031C0000001A7D031D0000001BB395
:1003300003270200001CB7031E0200001DBB031FA1
:100340000200001E9D03200200001FA003210200E6
:100350000020A3032202000021A6032302000022A2
:10036000A9032402000023AC032502000024AF03EC
:1003700026020000257F03290000002683032C00AD
:10038000000027890328000000288F032B000000AD
:100390002993032A0000002A96033A0000002B99B3
:1003A000033B0000002C9C033C0000002D9F033DFC
:1003B0000000002EA2033E0000002FA5033F000016
:1003C0000030A8034000000031AB034100000032C0
:1003D000AE034200000033B1034300000034B50314
:1003E0004400000035B9034500000057BE03E1009A
:1003F000000058C503E000000059CB03E2000000F4
:100400005AD003E30000009EBD03E10000009FC43A
:1004100003E0000000A0CA03E2000000A1CF03E354
:10042000000000A2D403E5000000A3DB03E4000009
:1004300000A4E103E6000000A5E603E70000005B7E
:10044000EB034A0000005CF0034D0000005DF40384
:10045000490000005EFB034C0000005F02044B00FB
:1004600000006009044E000000611004500000000C
:100470006215044F00000063060452000000641B74
:1004800004510000006A2004350000006B28048835
:100490000000006D32048A0000006C39048B0000FB
:1004A00000363F043702370237410436023602383D
:1004B00043041E011E01394504380138013A47043E
:1004C000330134023B4904330233023C4B042D0117
:1004D00087013D4D042E0133013EBB012D022D024B
:1004E0003F4F042501340140510438023802415382
:1004F000042E022D014255042401230143570431E7
:1005000001890144590423012E02455B0435012E63
:1005100001465D041F012F02475F042001200148AE
:10052000610421012101496304310289024A660400
:10053000220122014B6804310287024C6A04340212
:1005400024014D6C0434011F014E6E0435022F014D
:100550004F700426012501507204270126015174B1
:10056000042F023002527604300231025374042FF9
:1005700001300154760430013101557804360136DA
:1005800001567A043701370111241FBECFEFDAE09C
:10059000DEBFCDBF15E0A0E0B1E0E2EAF9E302C0C2
:1005A00005900D92AC36B107D9F727E0ACE6B5E07F
:1005B00001C01D92AF39B207E1F70E942A190C94CD
:1005C000C81C0C940000EF92FF920F931F93CF93DF
:1005D000DF93EC018C01060F171F84E9E82E81E000
:1005E000F82EC017D10751F48AE090E0DF91CF9147
:1005F0001F910F91FF90EF900C94AC1989911F926D
:100600008F93FF92EF920E9498190F900F900F9086
:100610000F90E7CFEF92FF920F931F93CF93DF934B
:10062000EC018C01060F171F8AE9E82E81E0F82EF5
:10063000C017D10751F48AE090E0DF91CF911F916C
:100640000F91FF90EF900C94AC1989911F928F93AA
:10065000FF92EF920E9498190F900F900F900F90B9
:10066000E7CFFB01DC01460F571FE417F50709F43C
:10067000089581918D93F9CFAF92BF92CF92DF927F
:10068000EF92FF920F931F93CF93DF93DC01162F0E
:10069000EA0190E061E070E090130BC0DF91CF9130
:1006A0001F910F91FF90EF90DF90CF90BF90AF9090
:1006B0000895892F810F382F3695369536957D010F
:1006C000E30EF11CF701308187705B0101C0AA0CB9
:1006D0008A95EAF7892F820F482F469546954695C9
:1006E0004C0F5D2F511DFA01408150E087706B0166
:1006F00002C0CC0CDD1C8A95E2F74C215D21832FD2
:100700008A29452B21F4EA2DE0958E2F8323F701CA
:1007100080839F5FC1CFFC01DB01480F591FE417A5
:10072000F50711F481E0089591918D919817B9F32F
:1007300080E00895FB01DC01460F571FE417F50721
:1007400009F40895819190E08D939D93F7CF70E027
:100750000C949119262F269526952695FC01E20FDB
:10076000F11D9081677021E030E001C0220F6A9591
:10077000EAF7442319F0922B908308952095922351
:10078000FBCF262F269526952695820F911DFC01DD
:10079000208130E0677081E090E002C0880F991FEF
:1007A0006A95E2F72823392381E0121613060CF02C
:1007B00080E008959C0190E080E08217930709F49F
:1007C0000895EFE9FFE03197F1F700C000000196CE
:1007D000F4CF9C0190E080E08217930709F408951C
:1007E00045E04A95F1F700000196F6CF7894089518
:1007F000F89408951092D8000895E82FE695E695AC
:10080000E69593E0E99FF001112435A1282F277088
:1008100081E090E001C0880F2A95EAF78095832354
:1008200085A30895E82FE695E695E69593E0E99F80
:10083000F001112494A1877021E030E001C0220F63
:100840008A95EAF7892F822B84A30895E82FE695ED
:10085000E695E69593E0E99FF001112434A1282F55
:10086000277081E090E001C0880F2A95EAF7809513
:10087000832384A30895E82FE695E695E69563E043
:10088000E69FF001112444A1877021E030E0B90116
:1008900002C0660F771F8A95E2F7CB01962F9095DD
:1008A000942394A395A1892B85A30895662399F099
:1008B000E82FE695E695E69593E0E99FF00111248F
:1008C00095A1877021E030E001C0220F8A95EAF7F8
:1008D000922B95A308950C94FD03E82FE695E695D9
:1008E000E695EF5F93E0E99FF001112490A18770F6
:1008F00021E030E002C0220F331F8A95E2F7892FF2
:1009000090E02823392381E0121613060CF080E0D2
:100910000895E82FE695E695E69593E0E99FF001C6
:10092000112495A1877021E030E001C0220F8A9543
:10093000EAF7892F822785A308958695869586955F
:1009400023E0829FC001112485960895869586959F
:1009500086958F5F23E0829FC001112480960895C1
:100960008770089561E00C9456040C94FD03E82F01
:10097000E695E695E695EF5F93E0E99FF001112497
:1009800090A1877021E030E001C0220F8A95EAF73C
:10099000892F822B80A3089508951F921FB61F925E
:1009A00011248F939F938091E1001092E10083FFC7
:1009B0000FC01092E90091E09093EB001092EC00D0
:1009C00092E29093ED0098E09093F00010926D0504
:1009D00082FD80916D059F918F911F901FBE1F908A
:1009E00018951F920F920FB60F9211240F931F9319
:1009F0002F933F934F935F936F937F938F939F9327
:100A0000AF93BF93CF93DF93EF93FF931092E900DF
:100A10008091E80083FF59C02091F1009091F1008E
:100A20004091F1008091F100582F6091F100809188
:100A3000F100782F8091F100C091F10032EF3093F6
:100A4000E800963009F07AC02CEA30E0A0E0B1E08E
:100A5000F901059114914017510789F5F901329672
:100A6000059114916017710751F5F901349665915C
:100A700074912A5F3F4FF90124919C2F8F3F91057C
:100A800019F010F08FEF90E0281708F4822F20E083
:100A900031E0DEEF9091E800E92FE570D9F392FDA7
:100AA0002EC0982F813208F090E243305407E1F1D4
:100AB000FB01A92FA1113CC0690F711D18C0295F4E
:100AC0003F4FA217B30709F0C3CF81E28093EB0039
:100AD00016C08E2FDFCFEB2FFC2FB191B093F1001A
:100AE000A150BE2FCF2FA111F6CF290F311DE82F16
:100AF000E91BD093E8008913ECCF803251F3FF91CA
:100B0000EF91DF91CF91BF91AF919F918F917F91A5
:100B10006F915F914F913F912F911F910F910F9086
:100B20000FBE0F901F901895B22FC32FA92FDBCFA8
:100B3000B491B093F100A1503196BCCF953059F4E7
:100B40008EEF8093E8008091E80080FFFCCF406842
:100B50004093E300D4CF9930C9F5211137C04093B9
:100B60006D058EEF8093E80081E08093E90080932B
:100B7000EB0091EC9093EC0026E32093ED0032E043
:100B80003093E9008093EB0030EC3093EC0020933D
:100B9000ED0023E02093E9008093EB009093EC00BC
:100BA00026E02093ED0034E03093E9008093EB00E1
:100BB0009093EC002093ED008EE991E00E94B31930
:100BC0008EE18093EA001092EA0099CF61157105D9
:100BD00039F4213209F079CF9A3009F076CF15C077
:100BE00061307105B1F4213209F06FCF9930A1F76E
:100BF0008091E80082FFFCCF8091F10080936C052A
:100C000080916C058BEF8093E8008EEF8093E80075
:100C100076CF62307105E9F258CF80E880936100A9
:100C20001092610081E08093D70080EA8093D80021
:100C300082E189BD09B400FEFDCF80E98093D80030
:100C40001092E00010926D058CE08093E200089510
:100C500090916D05911102C080E0089593E090930A
:100C6000E9009091E80095FFF7CFF8948093F100A8
:100C70001092F100FB01CB01069621912093F10027
:100C8000E817F907D1F78AE38093E800789481E0C8
:100C9000089520916D05211102C080E0089523E0A0
:100CA0002093E9002091E80025FFF7CFF894FC019C
:100CB000089621912093F100E817F907D1F78AE30C
:100CC0008093E800789481E0089520916D052111CA
:100CD00002C080E0089521E02093E9002091E8001F
:100CE00025FFF7CFF894FC01805C9F4F2191209362
:100CF000F100E817F907D1F78AE38093E8007894C8
:100D000081E0089520916D05211102C080E00895D1
:100D100022E02093E9002091E80025FFF7CFF89426
:100D2000FC01805C9F4F2091F1002193E817F907A7
:100D3000D1F78BE68093E800789481E00895909154
:100D40006D0581E0911101C080E00895792F69312E
:100D500008F068E1462F50E0682F82E091E00C94A3
:100D60009A03089580E094E00895F999FECF0C94D9
:100D7000661CF999FECF0C947E1CF999FECF0C9459
:100D80006E1CF999FECF0C948C1C382F292FCB01A7
:100D9000F999FECF632F722F0C94561C382F292FF0
:100DA000CB01F999FECF632F722F0C94741CCF9353
:100DB000DF93D0E0C0E060E0CE010E94B90621964A
:100DC000C11584E0D807B9F7DF91CF910895CF938B
:100DD000C82F80916E05882359F0CA3019F48DE030
:100DE0000E94E7068091C80085FFFCCFC093CE002B
:100DF000CF910895CF93DF9300D000D0CDB7DEB769
:100E000069837A838B839C8360E472E48FE090E053
:100E100029813A814B815C810E9455192150310909
:100E20003093CD002093CC00EAECF0E08081817F0C
:100E30008660808380818F7C80838081877F8083B0
:100E4000E9ECF0E080818860808384E391E0909316
:100E50009C0780939B0781E080936E0584EB91E073
:100E60000F900F900F900F90DF91CF910C94B319CA
:100E7000E9ECF0E08081877F808384E391E09093C8
:100E80009C0780939B0710926E050895CF93C42F03
:100E9000809343016093420140936F058F3F39F087
:100EA0000E9412046C2F809143010E94560480918D
:100EB00042018F3F41F00E9412046C2F8091420149
:100EC000CF910C945604CF910895682F80914301DF
:100ED0008F3F41F090916F05992311F091E06927C0
:100EE0000C9456040895682F809142018F3F41F081
:100EF00090916F05992311F091E069270C945604A5
:100F00000895809143018F3F11F00C948904089556
:100F1000809142018F3F11F00C948904089541E0C3
:100F200065E180E00C9446078F929F92AF92BF924A
:100F3000CF92DF92EF92FF920F931F93CF93DF93A5
:100F40005C01EB016A0179014801CC15DD0510F562
:100F5000CE010E94BD068C01CE0102960E94BD0604
:100F60009C010A151B05A1F42496F701D183C083C7
:100F7000F40131832083DF91CF911F910F91FF9076
:100F8000EF90DF90CF90BF90AF909F908F9008959B
:100F9000892B29F4D0E0C0E030E020E0E6CF2C5FE0
:100FA0003F4FC20FD31FD1CFEF92FF920F931F93EA
:100FB000CF93DF93D82FC92F7B018A010E94B206FD
:100FC000AC01970162E070E08D2F9C2F0E94940786
:100FD000DF91CF911F910F91FF90EF900895CF93E4
:100FE000DF9300D000D0CDB7DEB7AE014F5F5F4FCB
:100FF000BE016D5F7F4F0E94D4078B819C810F9053
:101000000F900F900F90DF91CF910895CF92DF92C4
:10101000EF92FF920F931F93CF93DF9300D000D0F6
:10102000CDB7DEB76C017B018A01AE014F5F5F4F28
:10103000BE016D5F7F4F80E79AEA0E94D4076B8103
:101040007C8161157105A9F049815A81460F571FAE
:101050009701C6010E9494070F900F900F900F9078
:10106000DF91CF911F910F91FF90EF90DF90CF9084
:101070000895F70111821082F80111821082ECCFDD
:10108000AF92BF92CF92DF92EF92FF920F931F9396
:10109000CF93DF9300D000D0CDB7DEB78DEB91E0DA
:1010A0000E94B31990E080E00E94BD068E37934AFB
:1010B00009F044C0AE014F5F5F4FBE016D5F7F4FCF
:1010C00080E19AEA0E94D407E980FA80AE014F5F7E
:1010D0005F4FBE016D5F7F4F80E29AEA0E94D407A6
:1010E000A980BA80AE014F5F5F4FBE016D5F7F4F39
:1010F00080E39AEA0E94D407C980DA80AE014F5F8C
:101100005F4FBE016D5F7F4F80E49AEA0E94D40773
:1011100009811A8180E79AEA0E94EF079C0182E127
:10112000A816B10459F48DE0C816D10439F40E297B
:101130001F29012B19F4232B09F04AC087EE91E0F7
:101140000E94B3190E94D7066EE773EA90E080E030
:101150000E94C10660E27AEA82E090E00E94C10645
:1011600062E170E084E090E00E94C10660E37AEA08
:1011700088E190E00E94C1066DE070E08AE190E0B5
:101180000E94C10660E77AEA89E290E00E94C10607
:1011900070E060E08BE290E00E94C10680E29AEA93
:1011A0000E94EF070097D9F148E050E06AE072E052
:1011B0000F900F900F900F90DF91CF911F910F9193
:1011C000FF90EF90DF90CF90BF90AF900C94CE0641
:1011D00080E29AEA0E94EF0748E050E060E775E09D
:1011E0000E94C50648E050E06AE072E080E795E0C2
:1011F0000E948B03882309F4A1CF84ED91E00F9026
:101200000F900F900F90DF91CF911F910F91FF9052
:10121000EF90DF90CF90BF90AF900C94B3190F90E8
:101220000F900F900F90DF91CF911F910F91FF9032
:10123000EF90DF90CF90BF90AF900895CF93DF9362
:1012400080E79AEA0E94EF07EC01892B31F00E94B7
:10125000B2069C012C1B3D0BE901CE01DF91CF9121
:10126000089580E29AEA0E94EF070896089580E2C6
:101270009AEA0E94EF074096089580E39AEA0C9458
:10128000EF078DE090E0089580E79AEA0C94EF076D
:10129000CF93DF9300D000D0CDB7DEB7AE014F5F64
:1012A0005F4FBE016D5F7F4F81E79BEB0E94060899
:1012B0008B819C810F900F900F900F90DF91CF91B9
:1012C0000895CF93DF9300D000D0CDB7DEB7AE0145
:1012D0004F5F5F4FBE016D5F7F4F84E79BEB0E94C6
:1012E00006088B819C810F900F900F900F90DF91DB
:1012F000CF910895CF93DF9300D000D0CDB7DEB764
:10130000AE014F5F5F4FBE016D5F7F4F88E79BEB84
:101310000E9406088B819C810F900F900F900F9078
:10132000DF91CF910895CF93DF9300D000D0CDB758
:10133000DEB7AE014F5F5F4FBE016D5F7F4F88E745
:101340009BEB0E94060889819A810F900F900F9065
:101350000F90DF91CF910895CF93DF9300D000D00D
:10136000CDB7DEB7AE014F5F5F4FBE016D5F7F4F00
:1013700086E79BEB0E9406088B819C810F900F9063
:101380000F900F90DF91CF910895EF92FF920F93FE
:101390001F93CF93DF93182F062F8CE7E82E85E05D
:1013A000F82ED0E0C0E080917A0590917B05C817B7
:1013B000D9073CF0DF91CF911F910F91FF90EF90F3
:1013C0000895D701ED91FD917D01602F812F099541
:1013D0002196E9CF20917A0530917B05A9014F5FD5
:1013E0005F4F50937B0540937A05220F331FF9011D
:1013F000E458FA4F918380830895E82FF0E0EC5B86
:10140000FE4F60830895853011F4613040F0E82F7D
:10141000F0E0EC5BFE4F81E09081961708F480E0ED
:1014200081700895DF92EF92FF920F931F93CF93F5
:10143000DF9306E815E0D0E0C0E083E1E82E82E02B
:10144000F82EF801D1908F016D2D8C2F0E94030A88
:10145000811119C0FE01E859FE4F8081F8013197D2
:1014600080831F928F931F92DF92DF93CF93FF921F
:10147000EF920E949819EDB7FEB738960FB6F89420
:10148000FEBF0FBEEDBF2196CD30D105D1F6DF9165
:10149000CF911F910F91FF90EF90DF900895CF9320
:1014A000DF93C82FD62F0E94030A882379F0EC2FF0
:1014B000F0E0EA57FA4FD0836D2F8C2F0E94C509B8
:1014C00088EB9BE09093520180935101DF91CF9183
:1014D0000895CF93C82F282F30E0F901EC5BFE4F21
:1014E00090812A573A4FD901EC91F0E09F01260FE5
:1014F000371F442389F0692F70E06F5F7F4FCB0166
:10150000820F931F0E9441198E179F0789F0682F41
:101510008C2FCF910C944F0A37FD07C0892F90E094
:10152000281739078CF7C901EFCF90E080E0ECCFA6
:10153000CF9108950F931F93CF93DF930E943D099E
:101540009093850580938405892B99F10E94370932
:10155000EC010097B1F00E94B506811112C04DE078
:1015600050E068E671E080918405909185050E94C5
:10157000CE0661E0CE010E94B9068FE392E00E94A0
:10158000B3194DE050E066E875E0809184059091D4
:1015900085050E94C5060E94120A06E815E0C0E013
:1015A000F80161918F018C2F0E94C509CF5FCD306A
:1015B000B9F7DF91CF911F910F910895462F50E019
:1015C00066E875E00C943103462F50E064E471E066
:1015D0000C9431030C944F0AEF92FF920F931F93D8
:1015E000CF93DF938C01D0E0C0E0E62EF12CCE1536
:1015F000DF053CF0DF91CF911F910F91FF90EF90AD
:101600000895F80161918F018C2F0E944F0A219655
:10161000EECF0F931F93CF9308E611E0C0E0F801DF
:1016200061918F018C2F0E944F0ACF5FCD30B9F7A7
:10163000CF911F910F910895813039F460918D05FC
:10164000682787E00E944F0A0895823041F0833076
:1016500069F441E06FEF7FEF88E00C94690A41E0A4
:1016600061E070E08AE00E94690A089541E061E06B
:1016700070E0843089F340E060EF7FEF853031F037
:1016800040E060E170E0863009F0089589E0E5CF40
:10169000809151019091520118161906BCF40197DE
:1016A0009093520180935101892B81F4809184059C
:1016B00090918505009751F04DE050E066E875E0A7
:1016C0000E94CE068DE592E00C94B3190895CF9355
:1016D000DF930E944809EC010E941E09209741F403
:1016E0008EE692E00E94B31980E0DF91CF910895D9
:1016F000892BB1F345E050E063E975E0CE010E942B
:10170000C50630919405209195059091960580919C
:10171000970540919305413019F7363009F722308B
:10172000F9F69F3FE9F28131D8F687E892E00E940E
:10173000B31981E0DACFE0911F06F09120063097CF
:1017400009F0099408950E949F06882351F089EDBD
:1017500095E00E946506811104C089EA92E00C942C
:10176000B31908959091980591110FC090EB909343
:10177000D90592E09093DA0591EE9093DB05809382
:10178000DC056093DD050C94A30B0895909320066F
:1017900080931F0682EB9BE00E94EA090E943109B8
:1017A00090931E0680931D060E94440990931C0688
:1017B00080931B060E941E0990931A0680931906B7
:1017C0000895CF92DF92FF920F931F93CF93DF93F1
:1017D00089E995E00E948206882309F49DC09091D2
:1017E0009905903B09F010C120919A0580919B05C5
:1017F000213009F0ABC0803171F48CEC92E00E9492
:10180000B31981E0DF91CF911F910F91FF90DF908D
:10181000CF900C949B0B803209F458C0813209F0B0
:1018200083C0C0919C05D0919D05DC27CD27DC2786
:1018300080911B0690911C06C80FD91F00919E0530
:1018400010919F051027012710271F930F93DF93F7
:10185000CF9383E093E09F938F930E9498190F900A
:101860000F900F900F900F900F90D12CC12CF12C56
:10187000C016D10609F060C01F92FF928BE193E081
:101880009F938F930E94981980EB8093D90581E0F4
:101890008093DA0582E28093DB05F092DC051092FA
:1018A000DD050E94A30B0F900F900F900F90809179
:1018B0001B0690911C06B6010297DF91CF911F91F4
:1018C0000F91FF90DF90CF900C94C106C0919C05C2
:1018D000D0919D05DC27CD27DC2780911B069091B8
:1018E0001C06C80FD91F10919E05412F50E06FE9CB
:1018F00075E0CE010E94CE06DF93CF931F921F9317
:101900008BEE92E09F938F930E9498190F900F9007
:101910000F900F900F900F90DF91CF911F910F912B
:10192000FF90DF90CF9008958131B1F783E293E08B
:101930000E94B31982E066CFCE018C0D9D1D0E94DE
:10194000B506F8268FEFC81AD80A92CF2230A9F030
:10195000233011F7803901F748E050E06CE975E079
:1019600080911D0690911E06DF91CF911F910F91DE
:10197000FF90DF90CF900C94CE068038E9F49093DE
:10198000D9052093DA0581E88093DB058DE080930B
:10199000DC056DE08DED95E00E94DE0A6DE08AEEDB
:1019A00095E00E94E40ADF91CF911F910F91FF9083
:1019B000DF90CF900C94A30B803979F0803AD9F462
:1019C00060919D0580919C05DF91CF911F910F91B2
:1019D000FF90DF90CF900C94EA0A40919C056091B3
:1019E0009D0581E0809398058EE995E00E94EC0AC0
:1019F0001092980591CF803B09F08ECF81E08093C3
:101A000098050E94090BF4CF903F79F0903D09F0C2
:101A100083CF80919A05803109F05CC080919B054D
:101A2000813009F055C08AE0EDCE80919A05803171
:101A300009F072CF9093D90581E18093DA05109275
:101A4000DB0589E08093DC0586E08093DD05C1E05D
:101A5000C093DE0548E050E06AE072E08FED95E06B
:101A60000E943103C093E7051092E80548E050E07A
:101A700069EE75E080911D0690911E060E94C506D4
:101A80008091190690911A06982789279827909394
:101A9000F2058093F10540E150E060E083EF95E0CE
:101AA0000E94A70346E050E061E473E083EF95E015
:101AB0000E94310348E050E068E473E083E096E080
:101AC0000E94310382E080930B0680930C066BCF5B
:101AD0008BE098CE803209F01FCF8BE995E0DF9143
:101AE000CF911F910F91FF90DF90CF900C944906FA
:101AF000E9EDF5E090EE908390E991838283638332
:101B00000C94A30BE9EDF5E020EE208321E921837D
:101B1000982789279827938382830C94A30BE9ED58
:101B2000F5E020EE208322E9218398278927982752
:101B3000938382830C94A30BBC0148E050E0809116
:101B40001D0690911E060C94C50630E020E0F901B8
:101B5000E858FD4F9491F901295F3F4F98130FC04A
:101B6000E858FD4FA1E2B6E086E0A832B80719F4C4
:101B700081E296E0089584918D933196F5CF2031DE
:101B800093E0390721F790E080E00895CF93C62FC6
:101B90000E94A50DFC0190E080E0309741F0CC233D
:101BA00021F085819681009711F483819481CF91F2
:101BB00008950E94A50DFC01892B19F00180F28186
:101BC000E02DCF010895CF93DF930E94AC09EC0183
:101BD000009749F00E94B50680932A062196D0937B
:101BE0002906C0932806DF91CF910895CF92DF9206
:101BF000EF92FF920F931F93CF93DF93D62ED82FA0
:101C0000DF779F70F92EE12C85E0C82E80912A069F
:101C1000E816D8F50091280610912906EC9C000DD5
:101C2000111D1124C8010E94B5068D1511F08F30C9
:101C3000A9F4C80101960E94B506C82FC8010296F2
:101C40000E94B506CC2311F0C53B51F49FEF980FCD
:101C50009E3F20F4DC1721F1C53B11F1E394D6CF70
:101C6000DC13FCCFF81611F08F3FC1F7C8010396C3
:101C70000E94B506C82FC80104960E94B506C63B4F
:101C800009F0DC2F8E3F09F0F82E9F2D8D2FDF916C
:101C9000CF911F910F91FF90EF90DF90CF9008951B
:101CA000F812DCCFE3CFE7ECF6E030E020E094ADD3
:101CB0009F3F69F4F901EE0FFF1FED5FF84F80833E
:101CC000220F331FF901E953F94F15AE08952F5F25
:101CD0003F4F32962430310551F70895FC0191852C
:101CE000907381E0903209F080E008958F929F9286
:101CF000AF92BF92EF92FF920F931F93CF93DF9318
:101D00009C01C62FD0E08E01080F191F60E070E023
:101D1000CB012017310799F440E024E030E02C1B80
:101D20003D0B42171306E4F0DF91CF911F910F9105
:101D3000FF90EF90BF90AF909F908F900895882470
:101D4000962EA72EB82E79014FEFE41AF40AC90196
:101D50000E94B5069401282BC501B9019701D9CF7E
:101D6000982F872F762F66274F5FDBCF50E0542FB9
:101D700044275295507F482B562B50685093C606E7
:101D80004093C5060895CF93DF9340910B07509180
:101D90000C07C82FD0E09A01082E02C0369527956F
:101DA0000A94E2F720FF29C021E030E0082E02C0AB
:101DB000220F331F0A94E2F7209530952423352310
:101DC00030930C0720930B071F928F938CE794E0BE
:101DD0009F938F930E949819CC0FDD1FCE5DD84F33
:101DE00089818F700F900F900F900F9031F0809538
:101DF00090915207892380935207DF91CF910895E4
:101E0000CF92DF92EF92FF920F931F93CF93DF93C6
:101E1000F82EE0901D070DE117E0D0E0C0E0C62EDF
:101E2000660FDD08CE1548F0DF91CF911F910F911D
:101E3000FF90EF90DF90CF900895CC16DD0641F033
:101E4000F80185818770F81203C08C2F0E94C30EA1
:101E500021960E5F1F4FE6CF0F931F93CF93C82F8E
:101E6000082F10E080910B0790910C070C2E02C0F8
:101E7000969587950A94E2F780FD34C0000F111FF4
:101E8000F801E35EF84F8581877019F06C2F0E948E
:101E9000000F21E030E00C2E02C0220F331F0A9405
:101EA000E2F780910B0790910C07822B932B909374
:101EB0000C0780930B071F92CF938AE894E09F93BF
:101EC0008F930E949819F801EE5DF84F81818F7011
:101ED0000F900F900F900F9029F090915207892B3F
:101EE00080935207CF911F910F9108950F931F93E5
:101EF000CF93DF9394E0899FE0011124FE01E95321
:101F0000F94F80819181A281B3810097A105B1052C
:101F100009F45AC0AC01BD012EE17695679557953D
:101F200047952A95D1F7413009F053C060912C06AE
:101F3000CD010E94F60D8C018F77A801952F9F701F
:101F400031F0909520915307922390935307882363
:101F500061F161E090912B06923009F060E00E94FF
:101F6000C60D9C01982FA9014427517031FB2227EF
:101F700020F914FF20E02170452B29F080915407AF
:101F80008D7F80935407211110925507992369F092
:101F9000E6E5F7E02CE537E08191981303C0DF0117
:101FA00011971C922E173F07B9F780910B0790915C
:101FB0000C07892B19F480E00E942C0FC953D94FCC
:101FC000188219821A821B82DF91CF911F910F9183
:101FD0000895423051F7AC01BD0184E176956795D3
:101FE000579547958A95D1F74F704130F1F68B2F71
:101FF0008F700E94C30ED9CF0F931F93CF938B0185
:102000009C01DC01CB014EE1B695A795979587958C
:102010004A95D1F7813009F055C060912C06C9016D
:102020000E94F60D8C018F77A801252F2F7029F0C3
:1020300090915307922B909353078823C1F161E04D
:1020400090912B06923009F060E00E94C60D9C0131
:10205000582FBC016627717031FB882780F914FF67
:1020600080E0817090914A07672B29F040915407D6
:10207000426040935407882329F09D7019F481E051
:1020800080935507552399F080915C0796E08F5F08
:10209000863009F480E0E82FF0E0EE5BF84F4489E9
:1020A000442311F0915099F780935C07248B809121
:1020B0000D078F3FC9F080910E078F3FA9F4109252
:1020C0000E0712C0823009F04DC0C32FCF7094E1CB
:1020D00036952795179507959A95D1F70F7001308A
:1020E00081F48C2F0E942C0F80910B0790910C078C
:1020F000892B09F044C080E0CF911F910F910C947F
:102100002C0F023071F3033021F48C2F0E94C30E88
:10211000EBCF043069F480910B0790910C070C2EE3
:1021200002C0969587950A94E2F780FDEECFD9CF4D
:102130000530D1F68C2F0E942C0FC0930D078FEF26
:1021400080930E0782EC94E00E94B319CDCF8230C9
:1021500009F0ADCF9927832F722F612F822F0E9414
:102160001C0BA5CF833009F0A2CF832F877081305D
:1021700071F76FEF822F87700E94000F98CFCF9179
:102180001F910F9108952F923F924F925F926F92FD
:102190007F928F929F92AF92BF92CF92DF92EF92F7
:1021A000FF920F931F93CF93DF9300D000D000D006
:1021B0000F92CDB7DEB7382E4B019DE1A92E97E0E7
:1021C000B92E2FE0C22ED12CFC2CCA82C4010C2CBB
:1021D00002C0969587950A94E2F780FD25C021E01C
:1021E000C21AD10832E0A31AB1084FEFC416D406C0
:1021F00059F790E080E027960FB6F894DEBF0FBE47
:10220000CDBFDF91CF911F910F91FF90EF90DF90A5
:10221000CF90BF90AF909F908F907F906F905F9086
:102220004F903F902F90089580911E0790911F0727
:102230009F838E8380912007909121074E815F813B
:102240004817590778F48E819F810E94B506182F90
:102250008E819F8101960E94B506912F212F2F77A5
:1022600097FD05C0F50184A187FFB9CFC2CF38160D
:1022700049F082E0820F2E813F81280F311D3F837C
:102280002E83D8CF8E819F81009761F30E94B5067F
:10229000EE81FF813296FF83EE838F778F01080FE7
:1022A000111D8E819F8180179107E0F68E819F819D
:1022B0000E94B506982F8F708F1531F12E813F81C6
:1022C0002F5F3F4F9295977091509330D8F4C9018A
:1022D0000E94B506982F9295969596959370282F03
:1022E0002770920F9F5F8695869586958770980FC9
:1022F0002E813F812E5F3F4FA901490F511D5F8302
:102300004E83CFCF90E0F8CFEE81FF81309709F474
:10231000A9CFCF010E94B506182F129517708CEF28
:10232000810F823058F510930F071092100710920A
:1023300011071092120710921307109214071092AF
:10234000150710921607109217071092180710928F
:10235000190710921A0710921B07FFEFF0931C0742
:1023600080910F07853009F43ACF843009F441CFCA
:10237000882309F434CF8FE097E03DCF8E819F8191
:1023800001960E94B506082FE82EE294E694E694A2
:1023900083E0E822E3942E813F812E5F3F4F3F830D
:1023A0002E836E2DC9010E94760E262E7B838C8390
:1023B0009D838EEF810F823008F03FC0802F86957D
:1023C0008695869587708983F12C682F8E819F81F1
:1023D0008E0D9F1D0E94760E2B013C01133089F556
:1023E000602F6770C7013981830F911D4E815F8116
:1023F000840F951F0E94760E10930F0720921007EE
:102400005B8150931107EC81E0931207FD81F093FB
:1024100013074092140750921507609216077092A6
:102420001707609318077093190780931A07909302
:102430001B072A8120931C0793CF412C512C612C20
:10244000712C60E070E080E090E0D6CF0F931F9396
:10245000CF93DF93EC018A819B81860F911D9B8333
:102460008A838985982F9F7C998790FD05C081FF7D
:1024700003C08E7C81618987898580FF05C081FDCD
:1024800003C08E7C8062898780912E068F3F21F069
:1024900091E02881281301C090E0898590FB82F9A2
:1024A00089872F813885232BE1F480738031C9F42B
:1024B00000910B0710910C07B80188810E94C3108E
:1024C000FC01892B71F085858C831E830D83E0814F
:1024D000F0E0EE0FFF1FEB58FE4F8081918198874F
:1024E0008F83EF81F885309741F0CE0109958823DD
:1024F00021F01E821D8218861F82DF91CF911F91CD
:102500000F9108951F93CF93DF9300D000D000D098
:10251000CDB7DEB789839A83162FA981BA81159624
:102520006D917C9116978C910E94C310FC01892BB0
:1025300021F1A981BA81BC91A4E0BA9FC001112404
:102540009E838D83113019F581819281A381B4819D
:1025500089839A83AB83BC83BC01CD010E94FC0FAD
:10256000AD81BE81A953B94FFD0189819A81AB81AB
:10257000BC8180839183A283B38326960FB6F8949F
:10258000DEBF0FBECDBFDF91CF911F9108951230F6
:1025900029F485819681A781B085DACF81859285DE
:1025A000A385B485D5CFCF93DF93EC01898124E057
:1025B000829FC0011124682B69831B821A826B31B0
:1025C00071F461E0CE010E94821288810E94530E54
:1025D00041E06C818881DF91CF910C94B60E673019
:1025E00041F0673661F461E0CE01DF91CF910C9448
:1025F000821262E0CE010E94821242E0EACF663689
:1026000029F0623061F0DF91CF91089563E0CE014F
:102610000E94821288810E94530E43E0DACF8881A3
:10262000DF91CF910C94760FCF92DF92EF92FF92D1
:102630000F931F93CF93DF93EC018985182F129589
:1026400013700981EA80FB8080FBCC24C0F882FBF8
:10265000DD24D0F8113061F4063029F461E088EC13
:10266000E816F10440F1198261E0CE010E94D31214
:10267000013081F0093119F1063061F11230B1F108
:1026800080E0DF91CF911F910F91FF90EF90DF904D
:10269000CF900895CC2041F088ECE816F104A0F129
:1026A00063E0CE010E94D312123051F788ECE81695
:1026B000F104E0F462E0CE010E94D312E1CFCC201D
:1026C000B9F088ECE816F104D8F063E0CE010E947E
:1026D000D312D4CFC110D2CF63E088ECE816F10456
:1026E00068F2CE010E94D31281E0CBCF198206C0DE
:1026F000123031F688ECE816F104C0F762E0F1CF51
:10270000123009F0BDCFFACFD110CACF123091F2FA
:10271000B7CFCF93DF93EC01898124E0829FC00182
:102720001124682B69831B821A82663071F461E080
:10273000CE010E94821288810E94530E41E06C817A
:102740008881DF91CF910C94B60E673041F06931EA
:1027500061F461E0CE01DF91CF910C94821262E0CE
:10276000CE010E94821242E0EACF623019F0DF917E
:10277000CF9108958881DF91CF910C94760FCF92FD
:10278000DF92EF92FF920F931F93CF93DF93EC01B1
:102790008985182F129513700981CA80DB8080FB10
:1027A000EE24E0F882FBFF24F0F8113061F40630EB
:1027B00029F461E088ECC816D10460F1198261E067
:1027C000CE010E948913013059F0063039F5E1102D
:1027D00005C063E088ECC816D10430F580E028C05D
:1027E000EE2089F063E088ECC816D10498F4FF204D
:1027F00021F063E0CE010E948913123079F709C0FD
:10280000093161F70FC0123049F788ECC816D104BE
:1028100028F762E0CE010E948913E0CF1230F1F672
:10282000073071F7198262E0CE010E94891381E0BE
:10283000DF91CF911F910F91FF90EF90DF90CF909C
:102840000895CF93DF93EC01898582958370813061
:1028500061F4898361E0CE010E94821241E06C81C3
:1028600088810E94B60E80E007C08230E1F789833C
:1028700088810E94760F81E0DF91CF910895809347
:102880002B06089580932C060895AF92BF92CF92A5
:10289000DF92FF920F931F93CF93DF930E9448091B
:1028A0005C010E946109EC010E947A098C010E947E
:1028B00093096C01C50104960E94B506F82E809319
:1028C0001D0710931F0700931E070C0D1D1D10936D
:1028D000210700932007DF92CF921F928F9387E901
:1028E00094E09F938F930E94981982E2C82E87E00C
:1028F000D82E0F900F900F900F900F900F905601C1
:1029000010E080E090E01F1548F4CE010E94B5066B
:10291000082FCE0101960E94B506902FD5018D9308
:102920009D935D011F5F2296103159F70E94E30DC0
:10293000E2E4F7E0DF011D921A95E9F710925207E1
:102940001092530710925407109255071092560791
:1029500010925707109258071092590710925A0771
:1029600010925B0710925C0740911D0790E080E099
:1029700030E020E061E070E0841708F457C0309345
:102980000C0720930B078FEF80930D0780930E07A2
:10299000E7ECF6E09CE3DF011D929A95E9F780935E
:1029A000030710920407809305071092060780938F
:1029B0000707109208078093090710920A0780936F
:1029C0002E061092C6061092C506EEE2F6E090E0E2
:1029D00080E04AE03FEF818312820196489FD00158
:1029E000499FB00D1124A25DB94F2C912C7F2C93DF
:1029F000148213822C91237F2C93358317821682A5
:102A0000118610862C912F7C2C933A968F3091054D
:102A100011F781E080932D06DF91CF911F910F91E7
:102A2000FF90DF90CF90BF90AF900895D601ED91C9
:102A3000FD916D01F5FF09C0FB01082E02C0EE0FEC
:102A4000FF1F0A94E2F72E2B3F2B019695CF809320
:102A50002B06089580932C06089580912D068823D7
:102A6000D1F08091520790915307892B9091540790
:102A7000892B9091550791118D7F80934A0786E0AD
:102A8000E6E5F7E0ACE4B7E001900D928A95E1F756
:102A90008AE497E0089582E497E0089580912D06F6
:102AA000882329F080910B0790910C07089590E0FE
:102AB00080E0089580912D06882359F08091C50605
:102AC0009091C606009739F01092C6061092C5067E
:102AD000089590E080E0089590912D069923A9F043
:102AE0008F3098F4282F30E02F5F3F4F662371F02E
:102AF00080932E068AE0829FF001839FF00D1124BF
:102B0000E25DF94F80818260808308958AE0829F30
:102B1000F001839FF00D1124E25DF94F80818D7FDC
:102B2000F3CFEF92FF920F931F93CF93DF93182F62
:102B300080912D06882309F450C08FE2E82E86E0AC
:102B4000F82EC0E080912E068C1721F0612FC7016E
:102B50000E942612CF5F2AE0E20EF11CCF3091F7DF
:102B600080912E068F3F49F02AE0829FC0011124F8
:102B7000612F815D994F0E9426128FEF80932E0660
:102B8000C7ECD6E00FEF8CAD8F3F41F09DAD910FBC
:102B90009DAF933318F00E94760F0CAF229686E01B
:102BA000CF3CD80781F780910D078F3FB1F080911E
:102BB0000E0787FD12C0810F80930E0783336CF0E0
:102BC0008BEB94E00E94B31980910D070E94C30E15
:102BD0008FEF80930D0780930E07DF91CF911F91A8
:102BE0000F91FF90EF90089510922D0608950E9486
:102BF000670B81110C9445140C94F415CF93DF935B
:102C0000D82FC62FE0917F07F0918007309751F0C1
:102C10000190F081E02D309729F06C2F8D2FDF91FE
:102C2000CF910994D73060F4ED2FF0E0E653F34EE6
:102C30000C94771981E0C11101C080E080935D019F
:102C4000E0917F07F0918007309729F00280F381AF
:102C5000E02D309711F7DF91CF91089581E0C111F8
:102C600001C080E080935C01EBCF81E0C11101C025
:102C700080E080935B01E4CF81E0C11101C080E07E
:102C800080935A01DDCF81E0C13009F080E080936C
:102C90005901D6CF8C2F0E9427158EEC94E0C230BC
:102CA00011F48AEC94E09F938F938CED94E09F93C2
:102CB0008F930E9498190F900F900F900F90C0CF94
:102CC0008C2F0E942A1587ED94E0C13011F481ED1C
:102CD00094E09F938F938FEE94E0E9CF813011F4CD
:102CE0000C94F415823049F08A3049F481E08093E5
:102CF000810784E095E00C94B3190C94F7158B30A0
:102D000009F00895109281078DE195E0F4CFCF93FB
:102D1000DF93D62F2091900730919107280F311D16
:102D2000F901C081CF3F09F43FC0662379F11F92BA
:102D3000CF9387E395E09F938F930E9498190F900C
:102D40000F900F900F908C2F8093570180915C0112
:102D5000882321F06D2F8C2F0E94780DE0917F0742
:102D6000F0918007309741F00680F781E02D309791
:102D700019F06D2F8C2F099580918107811114C056
:102D80006D2F8C2FDF91CF910C946C151F92CF93E8
:102D900083E495E09F938F930E9498190F900F9072
:102DA0000F900F908FEFD0CFDF91CF910895909338
:102DB0007E0780937D070895E0917A0721E02E0F2A
:102DC00020937A07F0E0EE0FFF1FE558F84F91834C
:102DD00080830895E091750721E02E0F20937507F9
:102DE000F0E0EE0FFF1FEA58F84F918380830895BB
:102DF0009093910780939007089590938007809314
:102E00007F07089581E08093580108958CE897E04A
:102E100008950E9440088EEF95E10E94EA090E9401
:102E20009A0A48E050E068E473E08DE597E00E947C
:102E3000310348E050E06AE072E085E697E00E94E6
:102E400031038DE697E00E949C0D68E18DE597E0E7
:102E50000E94A6060E940D060E94F7158EE696E1D6
:102E60000C94C60BCF93E0917D07F0917E073097CD
:102E700019F08CE897E00995C0E080917A07C817AF
:102E800010F0CF910895EC2FF0E0EE0FFF1FE55802
:102E9000F84F0190F081E02D309719F08CE897E021
:102EA0000995CF5FEACF0F931F93CF93DF93182F2E
:102EB000C0E06C2F8EE897E00E94C103082F6C2FB2
:102EC0008CE897E00E94C103D82F011197C061E000
:102ED000811197C04D2F6C2F8EE897E00E94AA03B6
:102EE000CF5FCF3031F7812F0E9491150E944E1590
:102EF000EC010E942D158C0180918A0790918B071F
:102F0000C817D90709F468C080915C01882319F0BB
:102F1000CE010E94820DE0917F07F09180073097EB
:102F200039F00480F581E02D309711F0CE0109953C
:102F3000D0938B07C0938A07D0935401C093530159
:102F4000C1E048E050E062E877E0C8010E948B03EE
:102F5000811144C080915D01882319F0C8010E944D
:102F6000490648E050E0B80182E897E00E9431034A
:102F70008DE495E09F938F930E949819C2E8D7E063
:102F80000F900F9004E911E089911F928F931F9386
:102F90000F930E9498190F900F900F900F9087E059
:102FA000CA38D80789F78AE595E09F938F930E94E6
:102FB000981980918B078F9380918A078F938EE564
:102FC00095E09F938F930E9498190F900F900F9008
:102FD0000F900F900F9004C0C0E0B3CFC111C8CFC5
:102FE0000E945A15009789F020915C01222369F014
:102FF000DF91CF911F910F910C948F0D81116ACFAA
:1030000060E08C2F0E94871665CFDF91CF911F91D2
:103010000F91089580915B01882351F090918C0766
:1030200080918D07982B81E009F480E00C94730760
:103030000895CF93DF9300D000D0CDB7DEB72091B5
:103040005A01222309F120EA3FE040E050E00E94CB
:10305000551969837A838B839C83672B682B692B33
:1030600049F481E00F900F900F900F90DF91CF9176
:103070000C94650789819A81AB81BC810497A10575
:10308000B10511F480E0EECF0F900F900F900F90EC
:10309000DF91CF910895CF93C0E080917507C81755
:1030A00010F0CF910895EC2FF0E0EE0FFF1FEA58DB
:1030B000F84F0190F081E02D0995CF5FEECF0E948F
:1030C000B1060E94E10B0C94480BCF93DF938093E1
:1030D000980760939707509396074093950730930E
:1030E000940720939307C0E080919807C81758F081
:1030F000C0E080919707C817A8F081E080939207FD
:10310000DF91CF910895E0919507F0919607EC0F2C
:10311000F11DD0818D2F0E9412048D2F0E94B204C8
:10312000CF5FE2CFE0919307F0919407EC0FF11D90
:1031300080810E943B04CF5FDCCFCF92DF92EF9281
:10314000FF920F931F93CF93DF93182F092F809136
:103150009207D0E0F12CCC24C394811123C0DF91DD
:10316000CF911F910F91FF90EF90DF90CF90089536
:10317000E0919507F0919607ED0FF11DD0808D2D10
:103180000E94B50481E090E00E94E903C0E0EF2CCA
:10319000EC0E80919707C81750F08D2D0E94B20455
:1031A000DF5FFE2C80919807D81710F3D8CFE091FD
:1031B0009307F0919407EC0FF11D80810E946D043C
:1031C000482F4C256E2D812F902F0E94AA03CF5F90
:1031D000DECFCF93DF9300D000D0CDB7DEB70E9413
:1031E000FA030E9409170E94F60319821A821B82B1
:1031F0001C8289819A81AB81BC8183709927AA271F
:10320000BB27892B8A2B8B2B39F40E94321784E041
:103210000E9453170E940A1869817A818B819C81D0
:103220000E94191869817A818B819C810E944B18B8
:103230000E945F1881E090E00E94DA0389819A8100
:10324000AB81BC810196A11DB11D89839A83AB839B
:10325000BC83CFCF0E948F0721E931E04CE851E0D9
:1032600063E085E00E9465188DE998E10E94D71619
:103270008DE791E00E94F8160E94E91890E080E046
:10328000089597FB072E16F4009407D077FD09D018
:103290000E947D1907FC05D03EF4909581959F4FC3
:1032A0000895709561957F4F0895A1E21A2EAA1B8B
:1032B000BB1BFD010DC0AA1FBB1FEE1FFF1FA217E6
:1032C000B307E407F50720F0A21BB30BE40BF50BE3
:1032D000661F771F881F991F1A9469F7609570956C
:1032E000809590959B01AC01BD01CF010895EE0F33
:1032F000FF1F0590F491E02D0994AA1BBB1B51E11F
:1033000007C0AA1FBB1FA617B70710F0A61BB70B55
:10331000881F991F5A95A9F780959095BC01CD01FA
:103320000895DC0101C06D9341505040E0F70895CD
:10333000B0E0A0E0EEE9F9E10C94A11CFE013596A5
:1033400061917191AF0180919B0790919C070E94C0
:10335000DF19E2E00C94BD1C60919B0770919C0703
:103360000E94C81B08950F931F93CF93DF93E091A2
:103370009B07F0919C07238100E010E021FD0EC027
:103380000FEF1FEFC801DF91CF911F910F910895AB
:103390000995892B11F00FEF1FEFCE01EC018991F8
:1033A00060919B0770919C07DB011896ED91FC9151
:1033B0008111EECF8AE00995892B21F3E1CFAFE0AF
:1033C000B0E0E5EEF9E10C94911C7C013B018A012F
:1033D000DC0117961C921E92169713968C9181FF12
:1033E000BEC19AE0292EFE0131964F01D7011396F6
:1033F0009C91F30193FD859193FF81913F01882377
:1034000009F444C1853239F493FD859193FF81918C
:103410003F01853229F4B70190E00E94C81BE6CF36
:10342000B12C412C512CBFE1B51538F08B3209F18C
:1034300088F4803201F1833221F157FC3AC020ED4B
:10344000280F2A3040F556FE1FC0B29C200D1124D3
:10345000B22E06C08D3291F0803379F7689450F81F
:10346000F30193FD859193FF81913F018111DBCFA2
:1034700020C0689451F8689452F8F2CF689453F8D9
:10348000EFCF689454F8ECCF429C200D1124422ECB
:10349000689455F8E5CF8E3229F456FCF7C068944D
:1034A00056F8DECF8C3619F4689457F8D9CF8836A1
:1034B000B9F2982F9F7D95549330C0F0833681F1F7
:1034C0008337A1F1833509F05BC0D801CD90DD9041
:1034D0008D016B2D70E056FC02C06FEF7FEFC601CF
:1034E0000E94B21B5C01689457F80AC00C5F1F4F22
:1034F000EFE3E983AA24A394B12C6401E89457F87C
:1035000053FE29C0342CA114B10451F5332009F421
:103510006DCFB70180E290E00E94C81B3A94F6CFCD
:10352000D8018C9189830E5F1F4FE4CFF801C190C1
:10353000D1908F016B2D70E056FC02C06FEF7FEFD2
:10354000C6010E94BD1B5C01D9CFB70180E290E0AB
:103550000E94C81B4A944A141B0409F0B0F7D2CF4A
:10356000F60157FC859157FE81916F01B70190E0FC
:103570000E94C81B31103A94B1E0AB1AB108C3CF16
:10358000843619F0893609F071C0F80157FE67C01A
:1035900061917191819191918F01E52DEF76DE2EF0
:1035A00097FF09C090958095709561957F4F8F4FDB
:1035B0009F4F6894D7F82AE030E0A4010E94F81BDE
:1035C000C82EC818AC2C5D2CD6FE0CC0E89450F860
:1035D000CB1440F4D4FE05C0D2FC03C05D2D5E7E4A
:1035E000552EAB2C54FE93C0FE01EC0DF11D8081D5
:1035F000803309F085C0652D697E562E752D787053
:10360000372E53FC93C050FE8DC0BC2CA41410F474
:10361000B40CBA1854FE90C0B70180E390E00E9449
:10362000C81B52FE07C088E751FC88E590E0B7014F
:103630000E94C81BCB1408F48BC0CA94D12C8FEF06
:10364000C81AD80AC80CD91CD6018E916D01B701D1
:1036500090E00E94C81B8C149D04B1F757CF619174
:103660007191072E000C880B990B96CFD52CE894FE
:10367000D4F82AE0853729F1F52DF97FDF2E803740
:10368000A1F058F48835A1F08F36D1F0F70186818A
:1036900097812F96E2E10C94AD1C8837B9F7D4FEE0
:1036A00002C06894D2F820E10CC06894D4F8F7CF37
:1036B00054FE03C02F2F2660D22E20E132E002C03C
:1036C00028E030E0F801D7FE15C041915191619199
:1036D00071914C875D876E877F878F01A4016C8510
:1036E0007D858E859F850E94F81BC82EC818E8949A
:1036F000D7F868CF81919191AC0170E060E0E9CF9B
:1037000052FC02C0A3947ACFA394A39477CF852DC3
:10371000867809F473CFF6CFB70180E290E00E947B
:10372000C81BA394A414C0F3312C74CF342C3A18C2
:10373000A41408F46FCFF8CF852D867809F47ACFDA
:103740008BE251FE80E257FC8DE2B70190E070CF32
:10375000B70180E390E00E94C81BBA946BCF8FEF53
:103760009FEF97CFFC010590615070400110D8F792
:10377000809590958E0F9F1F0895FC0161507040B9
:1037800001900110D8F7809590958E0F9F1F089596
:103790000F931F93CF93DF93182F092FEB018B818A
:1037A00081FD09C01FEF0FEF812F902FDF91CF9187
:1037B0001F910F91089582FF14C02E813F818C814B
:1037C0009D81281739073CF4E881F981CF010196E2
:1037D0009983888310838E819F8101969F838E8336
:1037E000E3CFE885F985812F0995892BA1F3DACFFD
:1037F000FA01AA27283051F1203181F1E8946F9322
:103800006E7F6E5F7F4F8F4F9F4FAF4FB1E03ED0C7
:10381000B4E03CD0670F781F891F9A1FA11D680F65
:10382000791F8A1F911DA11D6A0F711D811D911D98
:10383000A11D20D009F468943F912AE0269F11240D
:103840003019305D3193DEF6CF010895462F477071
:10385000405D4193B3E00FD0C9F7F6CF462F4F70CC
:10386000405D4A3318F0495D31FD4052419302D02A
:10387000A9F7EACFB4E0A6959795879577956795D0
:10388000BA95C9F700976105710508959B01AC01D0
:103890000A2E06945795479537952795BA95C9F7F7
:1038A000620F731F841F951FA01D0895DC01CB01BB
:1038B000FC01F999FECF06C0F2BDE1BDF89A319640
:1038C00000B40D9241505040B8F70895F999FECFD9
:1038D00092BD81BDF89A992780B50895A8E1B0E01E
:1038E00042E050E00C94581CDC01CB0103C02D9148
:1038F0000E947F1C41505040D0F70895262FF9991F
:10390000FECF1FBA92BD81BD20BD0FB6F894FA9AC2
:10391000F99A0FBE019608950E947E1C272F0C94E1
:103920007F1C2F923F924F925F926F927F928F9265
:103930009F92AF92BF92CF92DF92EF92FF920F933E
:103940001F93CF93DF93CDB7DEB7CA1BDB0B0FB648
:10395000F894DEBF0FBECDBF09942A883988488805
:103960005F846E847D848C849B84AA84B984C8849B
:10397000DF80EE80FD800C811B81AA81B981CE0F92
:10398000D11D0FB6F894DEBF0FBECDBFED01089577
:10399000F894FFCF1A162E1635163C1643164A1603
:0239A0006016AF
:1039A2003203300030003000300030003000300090
:1039B2003000300030003000300030003000300085
:1039C2003000300030003000300030003000300075
:1039D200300000000000000200000000E7060000C6
:1039E2000000FFFF0101010101020101FFFFFF01D0
:1039F2000AFFFF00008207FF0000010101017EA310
:103A02000D0012000000000001010101000200008F
:103A120000140001046E0E2114BF131413000102DE
:103A2200030405060708090A0B0C0D0E140E171ED7
:103A32000424252625303258200025642000757381
:103A4200622064657669636520636F6E6669677577
:103A5200726564002D2D2D2D2D2D2D2D0064617488
:103A62006173746F7261676520696E697469616CF4
:103A7200697A650073746F7261676520646174614D
:103A82002076616C69640072657365742064617488
:103A9200612073746F7261676520666F72206E6554
:103AA200772070726F6A656374006478356B45398C
:103AB20053550073797374656D20706172616D6521
:103AC2007465722076616C7565206669786564201C
:103AD20025642C202564202D2D3E2025640A0073A8
:103AE200797374656D20706172616D65746572734E
:103AF20020696E697469616C697A656400706172CB
:103B0200616D657465727320736176656400696EB8
:103B120076616C6964206B65792061737369676E85
:103B2200732064617461006B6579206173736967E6
:103B32006E732073746F72616765206461746120B3
:103B420069732076616C6964005B7761726E5D20D7
:103B52006661696C656420746F2077726974652090
:103B62007261776869642064617461006D656D6F6C
:103B72007279207772697465207472616E73616301
:103B820074696F6E207374617274002564206279A7
:103B9200746573207772697474656E206174202570
:103BA200640A00636865636B2C206164647220257B
:103BB200642C206C656E2025640A00636B3A202514
:103BC200640A006D656D6F72792077726974652081
:103BD2007472616E73616374696F6E20646F6E6577
:103BE2000061746D6567610041313532464432309F
:103BF200004100420043004400450046004700489F
:103C0200004A004B004C004D004E004F0050005146
:103C1200005200540056005700580059005A0045FF
:103C2200736300537061636500456E74657200547E
:103C3200616200425300463100463200463300467C
:103C420034004635004636004637004638004639CD
:103C5200004631300046313100463132004C536863
:103C6200696674004C4374726C004C416C74004C75
:103C72004755490052536869667400524374726C26
:103C82000052416C74005247554900486F6D6500FF
:103C9200456E6400496E736572740044656C6574A8
:103CA20065005061676555700050616765446E003C
:103CB2004C65667400526967687400446F776E00E1
:103CC20048616E2F5A656E004B6174612F486972AC
:103CD200610048656E6B616E004D7568656E002E01
:103CE200002C0021003F003A003B005F002B002A1D
:103CF200002F003D0026007C005E007E0040002375
:103D0200002400C2A50025005C00270022006000FC
:103D1200280029007B007D003C003E006C61796533
:103D220072206F66662025640A006C6179657220D4
:103D32006F6E2025640A006E756D4C617965727331
:103D42003A2564206B65794D617070696E674461D4
:103D5200746153697A653A25640A0063616E63652A
:103D62006C206F6E6573686F74004A495300555337
:103D720000416C746572004D61696E0073797374F1
:103D8200656D206C61796F75743A2025730A007233
:103D92006F7574696E67206368616E6E656C3A2038
:103DA20025730A006265686176696F72206D6F64BF
:103DB200653A2053696D756C61746F720062656853
:103DC2006176696F72206D6F64653A205374616E1B
:103DD20064616C6F6E65006B6579646F776E202528
:103DE200640A006B657975702025640A00484944AD
:103DF200207265706F72743A5B005D2C20006C61FA
:0C3E0200796572733A20253032580A00AE
:00000001FF
