:100000000C94C4020C94E1020C94E1020C94E10201
:100010000C94E1020C94E1020C94E1020C94E102D4
:100020000C94E1020C94E1020C94CD040C94F104C4
:100030000C94E1020C94E1020C94E1020C94E102B4
:100040000C94E1020C94E1020C94E1020C94E102A4
:100050000C94E1020C94E1020C94E1020C94E10294
:100060000C94E1020C94E1020C94E1020C94E10284
:100070000C94E1020C94E1020C94E1020C94E10274
:100080000C94E1020C94E1020C94E1020C94E10264
:100090000C94E1020C94E1020C94E1020C94E10254
:1000A0000C94E1020C94E1020C94E10200010000C6
:1000B000660212000200007C015B002200004A027E
:1000C0001C002100008E0109002201000A024000EC
:1000D000210100AE010900220200D70133002102F4
:1000E00000C7010900030000780104010309046648
:1000F0000110020309043401300303090400013232
:10010000320330003000300030003000300030006A
:10011000300030003000300030003000300030005F
:10012000300030003000300030003000300030004F
:100130003000000030034B00650072006D00690064
:100140007400650020004B006500790062006F00BC
:1001500061007200640020004400650076006900C0
:1001600063006500000010034B00650072006D0025
:1001700069007400650000000403090409025B00C3
:10018000030100C03209040000020300000009213D
:1001900011010001221C0007058103400002070530
:1001A00002034000080904010001030101000921C4
:1001B0001101000122400007058303080001090422
:1001C0000200010301020009211101000122330094
:1001D0000705840308000105010902A101050919A9
:1001E000012903150025019503750181029501750B
:1001F0000581030501093009311581257F750895B1
:10020000028106093895018106C005010906A10190
:1002100075019508050719E029E7150025018102F8
:1002200095017508810395057501050819012905D2
:10023000910295017503910395067508150026FF37
:10024000000507190029FF8100C006ABFF0A000264
:10025000A1017508150026FF00954009018102954E
:100260004009029102C0120100020000002055F076
:1002700077A5000101020301017D030400000002D3
:100280007F030500000003810306000000048303D0
:100290000700000005850308000000068703090029
:1002A00000000789030A000000088B030B00000010
:1002B00009FE030C0000000A8D030D0000000B8FE7
:1002C000030E0000000C91030F0000000D930310BB
:1002D0000000000E9503110000000F9703120000AC
:1002E0000010990313000000119B0314000000127A
:1002F0009D031500000013C00316000000149F03A7
:100300001700000015A1031800000016A303190030
:10031000000017A5031A000000182C021B000000A3
:1003200019A7031C0000001AA9031D0000001BDF11
:1003300003270200001CE3031E0200001DE7031F49
:100340000200001EC903200200001FCC032102008E
:100350000020CF032202000021D20323020000224A
:10036000D5032402000023D8032502000024DB0368
:100370002602000025AB032900000026AF032C0055
:10038000000027B5032800000028BB032B00000055
:1003900029BF032A0000002AC2033A0000002BC52F
:1003A000033B0000002CC8033C0000002DCB033DA4
:1003B0000000002ECE033E0000002FD1033F0000BE
:1003C0000030D4034000000031D703410000003268
:1003D000DA034200000033DD034300000034E10390
:1003E0004400000035E5034500000057EA03E10042
:1003F000000058F103E000000059F703E20000009C
:100400005AFC03E30000009EE903E10000009FF0B6
:1004100003E0000000A0F603E2000000A1FB03E3FC
:10042000000000A20004E5000000A30704E40000AF
:1004300000A40D04E6000000A51204E70000005B24
:1004400017044A0000005C1C044D0000005D2004FD
:10045000490000005E27044C0000005F2E044B00A2
:1004600000006035044E000000613C0450000000B4
:100470006241044F000000633204520000006447F0
:1004800004510000006A4C04350000006B540488DD
:100490000000006D5E048A0000006C65048B0000A3
:1004A00000366B0437023702376D043602360238E5
:1004B0006F041E011E01397104380138013A7304BA
:1004C000330134023B7504330233023C77042D01BF
:1004D00087013D79042E0133013ED6012D022D0204
:1004E0003F7B0425013401407D0438023802417FFE
:1004F000042E022D0142810424012301438304318F
:1005000001890144850423012E0245870435012E0B
:10051000014689041F012F02478B04200120014856
:100520008D0421012101498F04310289024A92047C
:10053000220122014B9404310287024C96043402BA
:1005400024014D980434011F014E9A0435022F01F5
:100550004F9C0426012501509E042701260151A02D
:10056000042F02300252A2043002310253A0042FA1
:1005700001300154A2043001310155A40436013682
:100580000156A6043701370111241FBECFEFDAE070
:10059000DEBFCDBF15E0A0E0B1E0E8EBFAE302C0BA
:1005A00005900D92A839B107D9F727E0A8E9B5E081
:1005B00001C01D92AB36B207E1F70E94A9190C9455
:1005C000531D0C940000EF92FF920F931F93CF9353
:1005D000DF93EC018C01060F171F8FEAE82E81E0F4
:1005E000F82EC017D10751F48AE090E0DF91CF9147
:1005F0001F910F91FF90EF900C94371A89911F92E1
:100600008F93FF92EF920E94231A0F900F900F90FA
:100610000F90E7CFEF92FF920F931F93CF93DF934B
:10062000EC018C01060F171F85EBE82E81E0F82EF8
:10063000C017D10751F48AE090E0DF91CF911F916C
:100640000F91FF90EF900C94371A89911F928F931E
:10065000FF92EF920E94231A0F900F900F900F902D
:10066000E7CFFB01DC01460F571FE417F50709F43C
:10067000089581918D93F9CFAF92BF92CF92DF927F
:10068000EF92FF920F931F93CF93DF93DC01162F0E
:10069000EA0190E061E070E090130BC0DF91CF9130
:1006A0001F910F91FF90EF90DF90CF90BF90AF9090
:1006B0000895892F810F382F3695369536957D010F
:1006C000E30EF11CF701308187705B0101C0AA0CB9
:1006D0008A95EAF7892F820F482F469546954695C9
:1006E0004C0F5D2F511DFA01408150E087706B0166
:1006F00002C0CC0CDD1C8A95E2F74C215D21832FD2
:100700008A29452B21F4EA2DE0958E2F8323F701CA
:1007100080839F5FC1CFFC01DB01480F591FE417A5
:10072000F50711F481E0089591918D919817B9F32F
:1007300080E00895FB01DC01460F571FE417F50721
:1007400009F40895819190E08D939D93F7CF70E027
:100750000C941C1A262F269526952695FC01E20F4F
:10076000F11D9081677021E030E001C0220F6A9591
:10077000EAF7442319F0922B908308952095922351
:10078000FBCF262F269526952695820F911DFC01DD
:10079000208130E0677081E090E002C0880F991FEF
:1007A0006A95E2F72823392381E0121613060CF02C
:1007B00080E008959C0190E080E08217930709F49F
:1007C0000895EFE9FFE03197F1F700C000000196CE
:1007D000F4CF9C0190E080E08217930709F408951C
:1007E00045E04A95F1F700000196F6CF7894089518
:1007F000F89408951092D8000895E82FE695E695AC
:10080000E69593E0E99FF001112435A1282F277088
:1008100081E090E001C0880F2A95EAF78095832354
:1008200085A30895E82FE695E695E69593E0E99F80
:10083000F001112494A1877021E030E001C0220F63
:100840008A95EAF7892F822B84A30895E82FE695ED
:10085000E695E69593E0E99FF001112434A1282F55
:10086000277081E090E001C0880F2A95EAF7809513
:10087000832384A30895E82FE695E695E69563E043
:10088000E69FF001112444A1877021E030E0B90116
:1008900002C0660F771F8A95E2F7CB01962F9095DD
:1008A000942394A395A1892B85A30895662399F099
:1008B000E82FE695E695E69593E0E99FF00111248F
:1008C00095A1877021E030E001C0220F8A95EAF7F8
:1008D000922B95A308950C94FD03E82FE695E695D9
:1008E000E695EF5F93E0E99FF001112490A18770F6
:1008F00021E030E002C0220F331F8A95E2F7892FF2
:1009000090E02823392381E0121613060CF080E0D2
:100910000895E82FE695E695E69593E0E99FF001C6
:10092000112495A1877021E030E001C0220F8A9543
:10093000EAF7892F822785A308958695869586955F
:1009400023E0829FC001112485960895869586959F
:1009500086958F5F23E0829FC001112480960895C1
:100960008770089561E00C9456040C94FD03E82F01
:10097000E695E695E695EF5F93E0E99FF001112497
:1009800090A1877021E030E001C0220F8A95EAF73C
:10099000892F822B80A3089508951F921FB61F925E
:1009A00011248F939F938091E1001092E10083FFC7
:1009B0000FC01092E90091E09093EB001092EC00D0
:1009C00092E29093ED0098E09093F00010929905D8
:1009D00082FD809199059F918F911F901FBE1F905E
:1009E00018951F920F920FB60F9211240F931F9319
:1009F0002F933F934F935F936F937F938F939F9327
:100A0000AF93BF93CF93DF93EF93FF931092E900DF
:100A10008091E80083FF59C02091F1009091F1008E
:100A20004091F1008091F100582F6091F100809188
:100A3000F100782F8091F100C091F10032EF3093F6
:100A4000E800963009F07AC02CEA30E0A0E0B1E08E
:100A5000F901059114914017510789F5F901329672
:100A6000059114916017710751F5F901349665915C
:100A700074912A5F3F4FF90124919C2F8F3F91057C
:100A800019F010F08FEF90E0281708F4822F20E083
:100A900031E0DEEF9091E800E92FE570D9F392FDA7
:100AA0002EC0982F813208F090E243305407E1F1D4
:100AB000FB01A92FA1113CC0690F711D18C0295F4E
:100AC0003F4FA217B30709F0C3CF81E28093EB0039
:100AD00016C08E2FDFCFEB2FFC2FB191B093F1001A
:100AE000A150BE2FCF2FA111F6CF290F311DE82F16
:100AF000E91BD093E8008913ECCF803251F3FF91CA
:100B0000EF91DF91CF91BF91AF919F918F917F91A5
:100B10006F915F914F913F912F911F910F910F9086
:100B20000FBE0F901F901895B22FC32FA92FDBCFA8
:100B3000B491B093F100A1503196BCCF953059F4E7
:100B40008EEF8093E8008091E80080FFFCCF406842
:100B50004093E300D4CF9930C9F5211137C04093B9
:100B600099058EEF8093E80081E08093E9008093FF
:100B7000EB0091EC9093EC0026E32093ED0032E043
:100B80003093E9008093EB0030EC3093EC0020933D
:100B9000ED0023E02093E9008093EB009093EC00BC
:100BA00026E02093ED0034E03093E9008093EB00E1
:100BB0009093EC002093ED0089EB91E00E943E1AA7
:100BC0008EE18093EA001092EA0099CF61157105D9
:100BD00039F4213209F079CF9A3009F076CF15C077
:100BE00061307105B1F4213209F06FCF9930A1F76E
:100BF0008091E80082FFFCCF8091F10080939805FE
:100C0000809198058BEF8093E8008EEF8093E80049
:100C100076CF62307105E9F258CF80E880936100A9
:100C20001092610081E08093D70080EA8093D80021
:100C300082E189BD09B400FEFDCF80E98093D80030
:100C40001092E000109299058CE08093E2000895E4
:100C500090919905911102C080E0089593E09093DE
:100C6000E9009091E80095FFF7CFF8948093F100A8
:100C70001092F100FB01CB01069621912093F10027
:100C8000E817F907D1F78AE38093E800789481E0C8
:100C9000089520919905211102C080E0089523E074
:100CA0002093E9002091E80025FFF7CFF894FC019C
:100CB000089621912093F100E817F907D1F78AE30C
:100CC0008093E800789481E008952091990521119E
:100CD00002C080E0089521E02093E9002091E8001F
:100CE00025FFF7CFF894FC01805C9F4F2191209362
:100CF000F100E817F907D1F78AE38093E8007894C8
:100D000081E0089520919905211102C080E00895A5
:100D100022E02093E9002091E80025FFF7CFF89426
:100D2000FC01805C9F4F2091F1002193E817F907A7
:100D3000D1F78BE68093E800789481E00895909154
:100D4000990581E0911101C080E00895792F693102
:100D500008F068E1462F50E0682F82E091E00C94A3
:100D60009A03089580E094E00895F999FECF0C94D9
:100D7000F11CF999FECF0C94091DF999FECF0C9442
:100D8000F91CF999FECF0C94171D382F292FCB0190
:100D9000F999FECF632F722F0C94E11C382F292F65
:100DA000CB01F999FECF632F722F0C94FF1CCF93C8
:100DB000DF93D0E0C0E060E0CE010E94B90621964A
:100DC000C11584E0D807B9F7DF91CF910895CF938B
:100DD000C82F80919A05882359F0CA3019F48DE004
:100DE0000E94E7068091C80085FFFCCFC093CE002B
:100DF000CF910895CF93DF9300D000D0CDB7DEB769
:100E000069837A838B839C8360E472E48FE090E053
:100E100029813A814B815C810E94E019215031097E
:100E20003093CD002093CC00EAECF0E08081817F0C
:100E30008660808380818F7C80838081877F8083B0
:100E4000E9ECF0E080818860808384E391E0909316
:100E500068078093670781E080939A058FEC91E0A3
:100E60000F900F900F900F90DF91CF910C943E1A3E
:100E7000E9ECF0E08081877F808384E391E09093C8
:100E800068078093670710929A050895CF93C42F3F
:100E9000809343016093420140939B058F3F39F05B
:100EA0000E9412046C2F809143010E94560480918D
:100EB00042018F3F41F00E9412046C2F8091420149
:100EC000CF910C945604CF910895682F80914301DF
:100ED0008F3F41F090919B05992311F091E0692794
:100EE0000C9456040895682F809142018F3F41F081
:100EF00090919B05992311F091E069270C94560479
:100F00000895809143018F3F11F00C948904089556
:100F1000809142018F3F11F00C948904089541E0C3
:100F200065E180E00C9446078F929F92AF92BF924A
:100F3000CF92DF92EF92FF920F931F93CF93DF93A5
:100F40005C01EB016A0179014801CC15DD0510F562
:100F5000CE010E94BD068C01CE0102960E94BD0604
:100F60009C010A151B05A1F42496F701D183C083C7
:100F7000F40131832083DF91CF911F910F91FF9076
:100F8000EF90DF90CF90BF90AF909F908F9008959B
:100F9000892B29F4D0E0C0E030E020E0E6CF2C5FE0
:100FA0003F4FC20FD31FD1CFEF92FF920F931F93EA
:100FB000CF93DF93D82FC92F7B018A010E94B206FD
:100FC000AC01970162E070E08D2F9C2F0E94940786
:100FD000DF91CF911F910F91FF90EF900895CF93E4
:100FE000DF9300D000D0CDB7DEB7AE014F5F5F4FCB
:100FF000BE016D5F7F4F0E94D4078B819C810F9053
:101000000F900F900F90DF91CF910895CF92DF92C4
:10101000EF92FF920F931F93CF93DF9300D000D0F6
:10102000CDB7DEB76C017B018A01AE014F5F5F4F28
:10103000BE016D5F7F4F80E79AEA0E94D4076B8103
:101040007C8161157105A9F049815A81460F571FAE
:101050009701C6010E9494070F900F900F900F9078
:10106000DF91CF911F910F91FF90EF90DF90CF9084
:101070000895F70111821082F80111821082ECCFDD
:10108000AF92BF92CF92DF92EF92FF920F931F9396
:10109000CF93DF9300D000D0CDB7DEB788ED91E0DD
:1010A0000E943E1A90E080E00E94BD068E37934A6F
:1010B00009F044C0AE014F5F5F4FBE016D5F7F4FCF
:1010C00080E19AEA0E94D407E980FA80AE014F5F7E
:1010D0005F4FBE016D5F7F4F80E29AEA0E94D407A6
:1010E000A980BA80AE014F5F5F4FBE016D5F7F4F39
:1010F00080E39AEA0E94D407C980DA80AE014F5F8C
:101100005F4FBE016D5F7F4F80E49AEA0E94D40773
:1011100009811A8180E79AEA0E94EF079C0182E127
:10112000A816B10459F48DE0C816D10439F40E297B
:101130001F29012B19F4232B09F04AC082E092E009
:101140000E943E1A0E94D7066EE773EA90E080E0A4
:101150000E94C10660E27AEA82E090E00E94C10645
:1011600062E170E084E090E00E94C10660E37AEA08
:1011700088E190E00E94C1066DE070E08AE190E0B5
:101180000E94C10660E77AEA89E290E00E94C10607
:1011900070E060E08BE290E00E94C10680E29AEA93
:1011A0000E94EF070097D9F148E050E065E272E055
:1011B0000F900F900F900F90DF91CF911F910F9193
:1011C000FF90EF90DF90CF90BF90AF900C94CE0641
:1011D00080E29AEA0E94EF0748E050E06CE975E08F
:1011E0000E94C50648E050E065E272E08CE995E0B7
:1011F0000E948B03882309F4A1CF8FEE91E00F901A
:101200000F900F900F90DF91CF911F910F91FF9052
:10121000EF90DF90CF90BF90AF900C943E1A0F905C
:101220000F900F900F90DF91CF911F910F91FF9032
:10123000EF90DF90CF90BF90AF900895CF93DF9362
:1012400080E79AEA0E94EF07EC01892B31F00E94B7
:10125000B2069C012C1B3D0BE901CE01DF91CF9121
:10126000089580E29AEA0E94EF070896089580E2C6
:101270009AEA0E94EF074096089580E39AEA0C9458
:10128000EF078DE090E0089580E79AEA0C94EF076D
:10129000CF93DF9300D000D0CDB7DEB7AE014F5F64
:1012A0005F4FBE016D5F7F4F81E79BEB0E94060899
:1012B0008B819C810F900F900F900F90DF91CF91B9
:1012C0000895CF93DF9300D000D0CDB7DEB7AE0145
:1012D0004F5F5F4FBE016D5F7F4F84E79BEB0E94C6
:1012E00006088B819C810F900F900F900F90DF91DB
:1012F000CF910895CF93DF9300D000D0CDB7DEB764
:10130000AE014F5F5F4FBE016D5F7F4F88E79BEB84
:101310000E9406088B819C810F900F900F900F9078
:10132000DF91CF910895CF93DF9300D000D0CDB758
:10133000DEB7AE014F5F5F4FBE016D5F7F4F88E745
:101340009BEB0E94060889819A810F900F900F9065
:101350000F90DF91CF910895CF93DF9300D000D00D
:10136000CDB7DEB7AE014F5F5F4FBE016D5F7F4F00
:1013700086E79BEB0E9406088B819C810F900F9063
:101380000F900F90DF91CF910895EF92FF920F93FE
:101390001F93CF93DF93182F062F88EAE82E85E05E
:1013A000F82ED0E0C0E08091A6059091A705C8175F
:1013B000D9073CF0DF91CF911F910F91FF90EF90F3
:1013C0000895D701ED91FD917D01602F812F099541
:1013D0002196E9CF2091A6053091A705A9014F5F7D
:1013E0005F4F5093A7054093A605220F331FF901C5
:1013F000E855FA4F918380830895E82FF0E0EC5B85
:10140000FE4F60830895853011F4613040F0E82F7D
:10141000F0E0EC5BFE4F81E09081961708F480E0ED
:1014200081700895DF92EF92FF920F931F93CF93F5
:10143000DF9302EB15E0D0E0C0E08EE2E82E82E020
:10144000F82EF801D1908F016D2D8C2F0E94030A88
:10145000811119C0FE01E259FE4F8081F8013197D8
:1014600080831F928F931F92DF92DF93CF93FF921F
:10147000EF920E94231AEDB7FEB738960FB6F89494
:10148000FEBF0FBEEDBF2196CD30D105D1F6DF9165
:10149000CF911F910F91FF90EF90DF900895CF9320
:1014A000DF93C82FD62F0E94030A882379F0EC2FF0
:1014B000F0E0EE54FA4FD0836D2F8C2F0E94C509B7
:1014C00088EB9BE09093520180935101DF91CF9183
:1014D0000895CF93C82F282F30E0F901EC5BFE4F21
:1014E00090812E543A4FD901EC91F0E09F01260FE4
:1014F000371F442389F0692F70E06F5F7F4FCB0166
:10150000820F931F0E94CC198E179F0789F0682FB6
:101510008C2FCF910C944F0A37FD07C0892F90E094
:10152000281739078CF7C901EFCF90E080E0ECCFA6
:10153000CF9108950F931F93CF93DF930E943D099E
:101540009093B1058093B005892B99F10E943709DA
:10155000EC010097B1F00E94B506811112C04DE078
:1015600050E06EE671E08091B0059091B1050E9467
:10157000CE0661E0CE010E94B9068AE592E00E94A3
:101580003E1A4DE050E062EB75E08091B00590911D
:10159000B1050E94C5060E94120A02EB15E0C0E0E8
:1015A000F80161918F018C2F0E94C509CF5FCD306A
:1015B000B9F7DF91CF911F910F910895462F50E019
:1015C00062EB75E00C943103462F50E064E471E067
:1015D0000C9431030C944F0AEF92FF920F931F93D8
:1015E000CF93DF938C01D0E0C0E0E62EF12CCE1536
:1015F000DF053CF0DF91CF911F910F91FF90EF90AD
:101600000895F80161918F018C2F0E944F0A219655
:10161000EECF0F931F93CF930EE611E0C0E0F801D9
:1016200061918F018C2F0E944F0ACF5FCD30B9F7A7
:10163000CF911F910F910895813039F46091B905D0
:10164000682787E00E944F0A0895823041F0833076
:1016500069F441E06FEF7FEF88E00C94690A41E0A4
:1016600061E070E08AE00E94690A089541E061E06B
:1016700070E0843089F340E060EF7FEF853031F037
:1016800040E060E170E0863009F0089589E0E5CF40
:10169000809151019091520118161906BCF40197DE
:1016A0009093520180935101892B81F48091B00570
:1016B0009091B105009751F04DE050E062EB75E07C
:1016C0000E94CE0688E792E00C943E1A0895CF93CC
:1016D000DF930E944809EC010E941E09209741F403
:1016E00089E892E00E943E1A80E0DF91CF91089550
:1016F000892BB1F345E050E06FEB75E0CE010E941D
:10170000C5063091C0052091C1059091C205809118
:10171000C3054091BF05413019F7363009F7223033
:10172000F9F69F3FE9F28131D8F682EA92E00E9411
:101730003E1A81E0DACFE0914B06F0914C063097EB
:1017400009F0099408950E949F06882351F085E0CE
:1017500096E00E946506811104C084EC92E00C942E
:101760003E1A08959091C40591110FC090EB90938B
:10177000050692E09093060691EE909307068093FB
:101780000806609309060C94A30B089590934C06E9
:1017900080934B0682EB9BE00E94EA090E9431098C
:1017A00090934A06809349060E9444099093480604
:1017B000809347060E941E09909346068093450633
:1017C0000895CF92DF92FF920F931F93CF93DF93F1
:1017D00085EC95E00E948206882309F49DC09091D3
:1017E000C505903B09F010C12091C6058091C70541
:1017F000213009F0ABC0803171F487EE92E00E9495
:101800003E1A81E0DF91CF911F910F91FF90DF9001
:10181000CF900C949B0B803209F458C0813209F0B0
:1018200083C0C091C805D091C905DC27CD27DC272E
:101830008091470690914806C80FD91F0091CA05AC
:101840001091CB051027012710271F930F93DF93CB
:10185000CF938EE193E09F938F930E94231A0F9072
:101860000F900F900F900F900F90D12CC12CF12C56
:10187000C016D10609F060C01F92FF9286E393E084
:101880009F938F930E94231A80EB8093050681E03B
:101890008093060682E280930706F0920806109273
:1018A00009060E94A30B0F900F900F900F9080914C
:1018B000470690914806B6010297DF91CF911F919C
:1018C0000F91FF90DF90CF900C94C106C091C80596
:1018D000D091C905DC27CD27DC2780914706909160
:1018E0004806C80FD91F1091CA05412F50E06BEC74
:1018F00075E0CE010E94CE06DF93CF931F921F9317
:1019000086E093E09F938F930E94231A0F900F908D
:101910000F900F900F900F90DF91CF911F910F912B
:10192000FF90DF90CF9008958131B1F78EE393E07F
:101930000E943E1A82E066CFCE018C0D9D1D0E9452
:10194000B506F8268FEFC81AD80A92CF2230A9F030
:10195000233011F7803901F748E050E068EC75E07A
:101960008091490690914A06DF91CF911F910F9186
:10197000FF90DF90CF900C94CE068038E9F49093DE
:1019800005062093060681E8809307068DE0809384
:1019900008066DE089E096E00E94DE0A6DE086E1CF
:1019A00096E00E94E40ADF91CF911F910F91FF9082
:1019B000DF90CF900C94A30B803979F0803AD9F462
:1019C0006091C9058091C805DF91CF911F910F915A
:1019D000FF90DF90CF900C94EA0A4091C805609187
:1019E000C90581E08093C4058AEC95E00E94EC0A69
:1019F0001092C40591CF803B09F08ECF81E0809397
:101A0000C4050E94090BF4CF903F79F0903D09F096
:101A100083CF8091C605803109F05CC08091C705F5
:101A2000813009F055C08AE0EDCE8091C605803145
:101A300009F072CF9093050681E18093060610921B
:101A4000070684E08093080686E080930906C1E0DB
:101A5000C0930A0648E050E065E272E08BE096E051
:101A60000E943103C09313061092140648E050E020
:101A700065E176E08091490690914A060E94C5068C
:101A8000809145069091460698278927982790933C
:101A90001E0680931D0640E150E060E08FE196E075
:101AA0000E94A70340E150E06CE573E08FE196E00F
:101AB0000E94310348E050E064E773E08FE296E073
:101AC0000E94310382E080933706809338066BCF03
:101AD0008BE098CE803209F01FCF87EC95E0DF9144
:101AE000CF911F910F91FF90DF90CF900C944906FA
:101AF000E5E0F6E090EE908390E991838283638342
:101B00000C94A30BE5E0F6E020EE208321E921838D
:101B1000982789279827938382830C94A30BE5E069
:101B2000F6E020EE208322E9218398278927982751
:101B3000938382830C94A30BBC0148E050E0809116
:101B4000490690914A060C94C50630E020E0F90160
:101B5000E858FD4F9491F901295F3F4F98130FC04A
:101B6000E858FD4FADE4B6E086E0A435B80719F4B7
:101B70008DE496E0089584918D933196F5CF2031D0
:101B800093E0390721F790E080E00895CF93C62FC6
:101B90000E94A50DFC0190E080E0309741F0CC233D
:101BA00021F085819681009711F483819481CF91F2
:101BB00008950E94A50DFC01892B19F00180F28186
:101BC000E02DCF010895CF93DF930E94AC09EC0183
:101BD000009749F00E94B506809356062196D0934F
:101BE0005506C0935406DF91CF910895CF92DF92AE
:101BF000EF92FF920F931F93CF93DF93D62ED82FA0
:101C0000DF779F70F92EE12C85E0C82E8091560673
:101C1000E816D8F50091540610915506EC9C000D7D
:101C2000111D1124C8010E94B5068D1511F08F30C9
:101C3000A9F4C80101960E94B506C82FC8010296F2
:101C40000E94B506CC2311F0C53B51F49FEF980FCD
:101C50009E3F20F4DC1721F1C53B11F1E394D6CF70
:101C6000DC13FCCFF81611F08F3FC1F7C8010396C3
:101C70000E94B506C82FC80104960E94B506C63B4F
:101C800009F0DC2F8E3F09F0F82E9F2D8D2FDF916C
:101C9000CF911F910F91FF90EF90DF90CF9008951B
:101CA000F812DCCFE3CFEDEAF6E030E020E090A1DF
:101CB0009F3F69F4F901EE0FFF1FE353F94F808353
:101CC000220F331FF901E355F94F11A208952F5F39
:101CD0003F4F32962430310551F70895FC0191852C
:101CE000907381E0903209F080E008958F929F9286
:101CF000AF92BF92EF92FF920F931F93CF93DF9318
:101D00009C01C62FD0E08E01080F191F60E070E023
:101D1000CB012017310799F440E024E030E02C1B80
:101D20003D0B42171306E4F0DF91CF911F910F9105
:101D3000FF90EF90BF90AF909F908F900895882470
:101D4000962EA72EB82E79014FEFE41AF40AC90196
:101D50000E94B5069401282BC501B9019701D9CF7E
:101D6000982F872F762F66274F5FDBCF50E0542FB9
:101D700044275295507F482B562B50685093AC0601
:101D80004093AB060895CF93DF934091D5065091D1
:101D9000D606C82FD0E09A01082E02C036952795A6
:101DA0000A94E2F720FF29C021E030E0082E02C0AB
:101DB000220F331F0A94E2F7209530952423352310
:101DC0003093D6062093D5061F928F9388EA94E02D
:101DD0009F938F930E94231ACC0FDD1FC451D94FBC
:101DE00089818F700F900F900F900F9031F0809538
:101DF00090911C07892380931C07DF91CF91089550
:101E0000CF92DF92EF92FF920F931F93CF93DF93C6
:101E1000F82EE090E70607EE16E0D0E0C0E0C62E10
:101E2000660FDD08CE1548F0DF91CF911F910F911D
:101E3000FF90EF90DF90CF900895CC16DD0641F033
:101E4000F80185818770F81203C08C2F0E94C30EA1
:101E500021960E5F1F4FE6CF0F931F93CF93C82F8E
:101E6000082F10E08091D5069091D6060C2E02C066
:101E7000969587950A94E2F780FD34C0000F111FF4
:101E8000F801E951F94F8581877019F06C2F0E9494
:101E9000000F21E030E00C2E02C0220F331F0A9405
:101EA000E2F78091D5069091D606822B932B9093E2
:101EB000D6068093D5061F92CF9386EB94E09F932E
:101EC0008F930E94231AF801E451F94F81818F709A
:101ED0000F900F900F900F9029F090911C07892B75
:101EE00080931C07CF911F910F9108950F931F931B
:101EF000CF93DF9394E0899FE0011124FE01E35525
:101F0000F94F80819181A281B3810097A105B1052C
:101F100009F45AC0AC01BD012EE17695679557953D
:101F200047952A95D1F7413009F053C06091580682
:101F3000CD010E94F60D8C018F77A801952F9F701F
:101F400031F0909520911D07922390931D078823CF
:101F500061F161E090915706923009F060E00E94D3
:101F6000C60D9C01982FA9014427517031FB2227EF
:101F700020F914FF20E02170452B29F080911E07E5
:101F80008D7F80931E07211110921F07992369F0FE
:101F9000E0E2F7E026E237E08191981303C0DF0129
:101FA00011971C922E173F07B9F78091D506909193
:101FB000D606892B19F480E00E942C0FC355D94F07
:101FC000188219821A821B82DF91CF911F910F9183
:101FD0000895423051F7AC01BD0184E176956795D3
:101FE000579547958A95D1F74F704130F1F68B2F71
:101FF0008F700E94C30ED9CF0F931F93CF938B0185
:102000009C01DC01CB014EE1B695A795979587958C
:102010004A95D1F7813009F055C060915806C90141
:102020000E94F60D8C018F77A801252F2F7029F0C3
:1020300090911D07922B90931D078823C1F161E0B9
:1020400090915706923009F060E00E94C60D9C0105
:10205000582FBC016627717031FB882780F914FF67
:1020600080E0817090911407672B29F040911E0742
:10207000426040931E07882329F09D7019F481E087
:1020800080931F07552399F08091260796E08F5F74
:10209000863009F480E0E82FF0E0E45FF84F4489EF
:1020A000442311F0915099F780932607248B809157
:1020B000D7068F3FC9F08091D8068F3FA9F41092C0
:1020C000D80612C0823009F04DC0C32FCF7094E102
:1020D00036952795179507959A95D1F70F7001308A
:1020E00081F48C2F0E942C0F8091D5069091D606FA
:1020F000892B09F044C080E0CF911F910F910C947F
:102100002C0F023071F3033021F48C2F0E94C30E88
:10211000EBCF043069F48091D5069091D6060C2E51
:1021200002C0969587950A94E2F780FDEECFD9CF4D
:102130000530D1F68C2F0E942C0FC093D7068FEF5D
:102140008093D8068EEE94E00E943E1ACDCF823066
:1021500009F0ADCF9927832F722F612F822F0E9414
:102160001C0BA5CF833009F0A2CF832F877081305D
:1021700071F76FEF822F87700E94000F98CFCF9179
:102180001F910F9108952F923F924F925F926F92FD
:102190007F928F929F92AF92BF92CF92DF92EF92F7
:1021A000FF920F931F93CF93DF9300D000D000D006
:1021B0000F92CDB7DEB7382E4B0197EEA92E96E0E1
:1021C000B92E2FE0C22ED12CFC2CCA82C4010C2CBB
:1021D00002C0969587950A94E2F780FD25C021E01C
:1021E000C21AD10832E0A31AB1084FEFC416D406C0
:1021F00059F790E080E027960FB6F894DEBF0FBE47
:10220000CDBFDF91CF911F910F91FF90EF90DF90A5
:10221000CF90BF90AF909F908F907F906F905F9086
:102220004F903F902F9008958091E8069091E90695
:102230009F838E838091EA069091EB064E815F81A9
:102240004817590778F48E819F810E94B506182F90
:102250008E819F8101960E94B506912F212F2F77A5
:1022600097FD05C0F50184A187FFB9CFC2CF38160D
:1022700049F082E0820F2E813F81280F311D3F837C
:102280002E83D8CF8E819F81009761F30E94B5067F
:10229000EE81FF813296FF83EE838F778F01080FE7
:1022A000111D8E819F8180179107E0F68E819F819D
:1022B0000E94B506982F8F708F1531F12E813F81C6
:1022C0002F5F3F4F9295977091509330D8F4C9018A
:1022D0000E94B506982F9295969596959370282F03
:1022E0002770920F9F5F8695869586958770980FC9
:1022F0002E813F812E5F3F4FA901490F511D5F8302
:102300004E83CFCF90E0F8CFEE81FF81309709F474
:10231000A9CFCF010E94B506182F129517708CEF28
:10232000810F823058F51093D9061092DA06109278
:10233000DB061092DC061092DD061092DE0610928B
:10234000DF061092E0061092E1061092E20610926B
:10235000E3061092E4061092E506FFEFF093E6061E
:102360008091D906853009F43ACF843009F441CF01
:10237000882309F434CF89ED96E03DCF8E819F818B
:1023800001960E94B506082FE82EE294E694E694A2
:1023900083E0E822E3942E813F812E5F3F4F3F830D
:1023A0002E836E2DC9010E94760E262E7B838C8390
:1023B0009D838EEF810F823008F03FC0802F86957D
:1023C0008695869587708983F12C682F8E819F81F1
:1023D0008E0D9F1D0E94760E2B013C01133089F556
:1023E000602F6770C7013981830F911D4E815F8116
:1023F000840F951F0E94760E1093D9062092DA065C
:102400005B815093DB06EC81E093DC06FD81F09369
:10241000DD064092DE065092DF066092E006709282
:10242000E1066093E2067093E3068093E4069093DE
:10243000E5062A812093E60693CF412C512C612C8E
:10244000712C60E070E080E090E0D6CF0F931F9396
:10245000CF93DF93EC018A819B81860F911D9B8333
:102460008A838985982F9F7C998790FD05C081FF7D
:1024700003C08E7C81618987898580FF05C081FDCD
:1024800003C08E7C8062898780915A068F3F21F03D
:1024900091E02881281301C090E0898590FB82F9A2
:1024A00089872F813885232BE1F480738031C9F42B
:1024B0000091D5061091D606B80188810E94C310FC
:1024C000FC01892B71F085858C831E830D83E0814F
:1024D000F0E0EE0FFF1FE558FE4F80819181988755
:1024E0008F83EF81F885309741F0CE0109958823DD
:1024F00021F01E821D8218861F82DF91CF911F91CD
:102500000F9108951F93CF93DF9300D000D000D098
:10251000CDB7DEB789839A83162FA981BA81159624
:102520006D917C9116978C910E94C310FC01892BB0
:1025300021F1A981BA81BC91A4E0BA9FC001112404
:102540009E838D83113019F581819281A381B4819D
:1025500089839A83AB83BC83BC01CD010E94FC0FAD
:10256000AD81BE81A355B94FFD0189819A81AB81AF
:10257000BC8180839183A283B38326960FB6F8949F
:10258000DEBF0FBECDBFDF91CF911F9108951230F6
:1025900029F485819681A781B085DACF81859285DE
:1025A000A385B485D5CFCF93DF93EC01898124E057
:1025B000829FC0011124682B69831B821A826B31B0
:1025C00071F461E0CE010E94821288810E94530E54
:1025D00041E06C818881DF91CF910C94B60E673019
:1025E00041F0673661F461E0CE01DF91CF910C9448
:1025F000821262E0CE010E94821242E0EACF663689
:1026000029F0623061F0DF91CF91089563E0CE014F
:102610000E94821288810E94530E43E0DACF8881A3
:10262000DF91CF910C94760FCF92DF92EF92FF92D1
:102630000F931F93CF93DF93EC018985182F129589
:1026400013700981EA80FB8080FBCC24C0F882FBF8
:10265000DD24D0F8113061F4063029F461E088EC13
:10266000E816F10440F1198261E0CE010E94D31214
:10267000013081F0093119F1063061F11230B1F108
:1026800080E0DF91CF911F910F91FF90EF90DF904D
:10269000CF900895CC2041F088ECE816F104A0F129
:1026A00063E0CE010E94D312123051F788ECE81695
:1026B000F104E0F462E0CE010E94D312E1CFCC201D
:1026C000B9F088ECE816F104D8F063E0CE010E947E
:1026D000D312D4CFC110D2CF63E088ECE816F10456
:1026E00068F2CE010E94D31281E0CBCF198206C0DE
:1026F000123031F688ECE816F104C0F762E0F1CF51
:10270000123009F0BDCFFACFD110CACF123091F2FA
:10271000B7CFCF93DF93EC01898124E0829FC00182
:102720001124682B69831B821A82663071F461E080
:10273000CE010E94821288810E94530E41E06C817A
:102740008881DF91CF910C94B60E673041F06931EA
:1027500061F461E0CE01DF91CF910C94821262E0CE
:10276000CE010E94821242E0EACF623019F0DF917E
:10277000CF9108958881DF91CF910C94760FCF92FD
:10278000DF92EF92FF920F931F93CF93DF93EC01B1
:102790008985182F129513700981CA80DB8080FB10
:1027A000EE24E0F882FBFF24F0F8113061F40630EB
:1027B00029F461E088ECC816D10460F1198261E067
:1027C000CE010E948913013059F0063039F5E1102D
:1027D00005C063E088ECC816D10430F580E028C05D
:1027E000EE2089F063E088ECC816D10498F4FF204D
:1027F00021F063E0CE010E948913123079F709C0FD
:10280000093161F70FC0123049F788ECC816D104BE
:1028100028F762E0CE010E948913E0CF1230F1F672
:10282000073071F7198262E0CE010E94891381E0BE
:10283000DF91CF911F910F91FF90EF90DF90CF909C
:102840000895CF93DF93EC01898582958370813061
:1028500061F4898361E0CE010E94821241E06C81C3
:1028600088810E94B60E80E007C08230E1F789833C
:1028700088810E94760F81E0DF91CF910895809347
:1028800057060895809358060895AF92BF92CF924D
:10289000DF92FF920F931F93CF93DF930E9448091B
:1028A0005C010E946109EC010E947A098C010E947E
:1028B00093096C01C50104960E94B506F82E809319
:1028C000E7061093E9060093E8060C0D1D1D109312
:1028D000EB060093EA06DF92CF921F928F9383EC70
:1028E00094E09F938F930E94231A8CEEC82E86E06B
:1028F000D82E0F900F900F900F900F900F905601C1
:1029000010E080E090E01F1548F4CE010E94B5066B
:10291000082FCE0101960E94B506902FD5018D9308
:102920009D935D011F5F2296103159F70E94E30DC0
:10293000ECE0F7E0DF011D921A95E9F710921C0711
:1029400010921D0710921E0710921F071092200769
:102950001092210710922207109223071092240749
:1029600010922507109226074091E70690E080E03C
:1029700030E020E061E070E0841708F457C0309345
:10298000D6062093D5068FEF8093D7068093D8067E
:10299000EDEAF6E090E2DF011D929A95E9F7809367
:1029A000CD061092CE068093CF061092D00680936B
:1029B000D1061092D2068093D3061092D40680934B
:1029C0005A061092AC061092AB06EAE5F6E090E0EB
:1029D00080E04AE03FEF818312820196489FD00158
:1029E000499FB00D1124A65AB94F2C912C7F2C93DE
:1029F000148213822C91237F2C93358317821682A5
:102A0000118610862C912F7C2C933A968830910554
:102A100011F781E080935906DF91CF911F910F91BB
:102A2000FF90DF90CF90BF90AF900895D601ED91C9
:102A3000FD916D01F5FF09C0FB01082E02C0EE0FEC
:102A4000FF1F0A94E2F72E2B3F2B019695CF809320
:102A50005706089580935806089580915906882353
:102A6000D1F080911C0790911D07892B90911E0732
:102A7000892B90911F0791118D7F8093140786E019
:102A8000E0E2F7E0A6E1B7E001900D928A95E1F768
:102A900084E197E008958CE097E0089580915906CD
:102AA000882329F08091D5069091D606089590E06C
:102AB00080E0089580915906882359F08091AB06F3
:102AC0009091AC06009739F01092AC061092AB06CC
:102AD000089590E080E00895909159069923A9F017
:102AE000883098F4282F30E02F5F3F4F662371F035
:102AF00080935A068AE0829FF001839FF00D112493
:102B0000E65AF94F80818260808308958AE0829F2F
:102B1000F001839FF00D1124E65AF94F80818D7FDB
:102B2000F3CFEF92FF920F931F93CF93DF93182F62
:102B300080915906882309F450C08BE5E82E86E081
:102B4000F82EC0E080915A068C1721F0612FC70142
:102B50000E942612CF5F2AE0E20EF11CC83091F7E6
:102B600080915A068F3F49F02AE0829FC0011124CC
:102B7000612F855A994F0E9426128FEF80935A0633
:102B8000CDEAD6E00FEF88A18F3F41F099A1910FD8
:102B900099A3933318F00E94760F08A3229686E03B
:102BA000C53BD80781F78091D7068F3FB1F0809160
:102BB000D80687FD12C0810F8093D80683336CF04E
:102BC00087EE94E00E943E1A8091D7060E94C30EC1
:102BD0008FEF8093D7068093D806DF91CF911F9116
:102BE0000F91FF90EF9008951092590608950E945A
:102BF000670B81110C9445140C94F415CF93DF935B
:102C0000D82FC62FE0914907F0914A07309751F02D
:102C10000190F081E02D309729F06C2F8D2FDF91FE
:102C2000CF910994D73060F4ED2FF0E0EB5AF24EDB
:102C30000C94021A81E0C11101C080E080935D0113
:102C4000E0914907F0914A07309729F00280F3811B
:102C5000E02D309711F7DF91CF91089581E0C111F8
:102C600001C080E080935C01EBCF81E0C11101C025
:102C700080E080935B01E4CF81E0C11101C080E07E
:102C800080935A01DDCF81E0C13009F080E080936C
:102C90005901D6CF8C2F0E9427158AEF94E0C230BD
:102CA00011F486EF94E09F938F9388E095E09F93D3
:102CB0008F930E94231A0F900F900F900F90C0CF08
:102CC0008C2F0E942A1583E095E0C13011F48DEF1E
:102CD00094E09F938F938BE195E0E9CF813011F4DD
:102CE0000C94F415823049F08A3049F481E08093E5
:102CF0004B0780E395E00C943E1A0C94F7158B304B
:102D000009F0089510924B0789E495E0F4CFCF9332
:102D1000DF93D62F2091580730915907280F311D86
:102D2000F901C081CF3F09F43FC0662379F11F92BA
:102D3000CF9383E695E09F938F930E94231A0F9081
:102D40000F900F900F908C2F8093570180915C0112
:102D5000882321F06D2F8C2F0E94780DE091490778
:102D6000F0914A07309741F00680F781E02D3097C7
:102D700019F06D2F8C2F099580914B07811114C08C
:102D80006D2F8C2FDF91CF910C946C151F92CF93E8
:102D90008FE695E09F938F930E94231A0F900F90D8
:102DA0000F900F908FEFD0CFDF91CF910895909338
:102DB0004807809347070895E091440721E02E0FCC
:102DC00020934407F0E0EE0FFF1FEB5BF84F918379
:102DD00080830895E0913F0721E02E0F20933F0765
:102DE000F0E0EE0FFF1FE05CF84F918380830895C1
:102DF0009093590780935807089590934A078093BA
:102E00004907089581E080935801089586E597E089
:102E100008950E9440088EEF95E10E94EA090E9401
:102E20009A0A48E050E064E773E087E297E00E9486
:102E3000310348E050E065E272E08FE297E00E94E3
:102E4000310387E397E00E949C0D68E187E297E0F9
:102E50000E94A6060E940D060E94F7158EE696E1D6
:102E60000C94C60BCF93E0914707F0914807309739
:102E700019F086E597E00995C0E080914407C817EE
:102E800010F0CF910895EC2FF0E0EE0FFF1FEB5BF9
:102E9000F84F0190F081E02D309719F086E597E02A
:102EA0000995CF5FEACF0F931F93CF93DF93182F2E
:102EB000C0E06C2F87E597E00E94C103082F6C2FBC
:102EC00086E597E00E94C103D82F011197C061E009
:102ED000811197C04D2F6C2F87E597E00E94AA03C0
:102EE000CF5FC83031F7812F0E9491150E944E1597
:102EF000EC010E942D158C0180915407909155078B
:102F0000C817D90709F468C080915C01882319F0BB
:102F1000CE010E94820DE0914907F0914A07309757
:102F200039F00480F581E02D309711F0CE0109953C
:102F3000D0935507C0935407D0935401C0935301C5
:102F4000C1E048E050E06CE477E0C8010E948B03E8
:102F5000811144C080915D01882319F0C8010E944D
:102F6000490648E050E0B8018CE497E00E94310344
:102F700089E795E09F938F930E94231ACCE4D7E0D2
:102F80000F900F900FEA11E089911F928F931F937A
:102F90000F930E94231A0F900F900F900F9087E0CD
:102FA000C435D80789F786E895E09F938F930E94F0
:102FB000231A809155078F93809154078F938AE845
:102FC00095E09F938F930E94231A0F900F900F907C
:102FD0000F900F900F9004C0C0E0B3CFC111C8CFC5
:102FE0000E945A15009789F020915C01222369F014
:102FF000DF91CF911F910F910C948F0D81116ACFAA
:1030000060E08C2F0E94871665CFDF91CF911F91D2
:103010000F91089580915B01882341F081E09091A8
:103020005607911101C080E00C9473070895CF9367
:10303000DF9300D000D0CDB7DEB720915A01222314
:1030400009F120EA3FE040E050E00E94E019698386
:103050007A838B839C83672B682B692B49F481E0EF
:103060000F900F900F900F90DF91CF910C94650708
:1030700089819A81AB81BC810497A105B10511F4C6
:1030800080E0EECF0F900F900F900F90DF91CF91D7
:103090000895CF93C0E080913F07C81710F0CF91FB
:1030A0000895EC2FF0E0EE0FFF1FE05CF84F019069
:1030B000F081E02D0995CF5FEECF0E94B1060E940E
:1030C000E10B0C94480BCF9380935C0770935B07E4
:1030D00060935A07C0E080915C07C81710F0CF9149
:1030E0000895E0915A07F0915B07EC0FF11D808184
:1030F0000E943B04CF5FEFCF0F931F93CF93DF93DB
:10310000D82F192FC0E001E080915C07C81728F084
:10311000DF91CF911F910F910895E0915A07F0919F
:103120005B07EC0FF11D80810E946D04482F402742
:103130006C2F8D2F912F0E94AA03CF5FE5CFEF92C6
:10314000FF920F931F93CF93DF9370E07093640708
:10315000609363079093620780936107F12CE12CE1
:1031600010E000E080916307909164070817190749
:103170003CF0DF91CF911F910F91FF90EF90089558
:10318000C0916107D0916207CE0DDF1D88810E943A
:103190003B0489810E943B040F5F1F4F83E0E80ED0
:1031A000F11CE0CF8F929F92AF92BF92CF92DF92AD
:1031B000EF92FF920F931F93CF93DF93B82EA92E18
:1031C000F12CE12C10E000E09924939480916307A6
:1031D00090916407081719076CF0DF91CF911F9148
:1031E0000F91FF90EF90DF90CF90BF90AF909F90A6
:1031F0008F900895C0916107D0916207CE0DDF1DB9
:1032000088810E946D04882E89810E946D04980136
:10321000235A384F6901D9012C91E22FE370892498
:10322000880C89258829982F93702C7F292B2C9323
:10323000B4E0EB9FF0011124082E000C990BE82B51
:10324000F92BEE0FFF1FED57FE4F808191818230E9
:103250009105A9F52295207F26FB220F220B20F94C
:10326000822F220F990B41E08130910509F040E057
:103270004295440F407E21E0019609F020E022951E
:10328000207F422BD6018C918F7C482B4C9342950A
:1032900041706A818B2D9A2D0E94AA03F60140810C
:1032A00045FB442740F96A816F5F8B2D9A2D0E9460
:1032B000AA030F5F1F4FF3E0EF0EF11C87CF382FEB
:1032C0003370330F330F237F232BF6012083CBCFB3
:1032D000CF93DF9300D000D0CDB7DEB70E94FA03C2
:1032E0000E9409170E94F60319821A821B821C820F
:1032F00089819A81AB81BC8183709927AA27BB27DA
:10330000892B8A2B8B2B39F40E94321784E00E9480
:1033100053170E940A1869817A818B819C810E94CF
:10332000171869817A818B819C810E9449180E94BB
:103330005D1881E090E00E94DA0389819A81AB8177
:10334000BC810196A11DB11D89839A83AB83BC8387
:10335000CFCF0E948F0760E076E980E090E00E9486
:10336000FA066BEA71E084E00E94631862E08EE581
:1033700091E00E949F188CE798E10E94D71682ED99
:1033800098E10E94DC1683EA91E00E94F8160E9400
:10339000681990E080E0089597FB072E16F40094DA
:1033A00007D077FD09D00E94081A07FC05D03EF42B
:1033B000909581959F4F0895709561957F4F0895E1
:1033C000A1E21A2EAA1BBB1BFD010DC0AA1FBB1F29
:1033D000EE1FFF1FA217B307E407F50720F0A21B9B
:1033E000B30BE40BF50B661F771F881F991F1A9408
:1033F00069F760957095809590959B01AC01BD0132
:10340000CF010895EE0FFF1F0590F491E02D099470
:10341000AA1BBB1B51E107C0AA1FBB1FA617B707FA
:1034200010F0A61BB70B881F991F5A95A9F7809516
:103430009095BC01CD010895DC0101C06D93415010
:103440005040E0F70895B0E0A0E0E9E2FAE10C9422
:103450002C1DFE01359661917191AF018091670736
:10346000909168070E946A1AE2E00C94481D6091EE
:103470006707709168070E94531C08950F931F936C
:10348000CF93DF93E0916707F0916807238100E015
:1034900010E021FD0EC00FEF1FEFC801DF91CF91AB
:1034A0001F910F9108950995892B11F00FEF1FEFD0
:1034B000CE01EC0189916091670770916807DB018B
:1034C0001896ED91FC918111EECF8AE00995892B38
:1034D00021F3E1CFAFE0B0E0E0E7FAE10C941C1D8E
:1034E0007C013B018A01DC0117961C921E92169703
:1034F00013968C9181FFBEC19AE0292EFE01319670
:103500004F01D70113969C91F30193FD859193FF91
:1035100081913F01882309F444C1853239F493FD38
:10352000859193FF81913F01853229F4B70190E0A5
:103530000E94531CE6CFB12C412C512CBFE1B51594
:1035400038F08B3209F188F4803201F1833221F1B5
:1035500057FC3AC020ED280F2A3040F556FE1FC018
:10356000B29C200D1124B22E06C08D3291F0803312
:1035700079F7689450F8F30193FD859193FF819159
:103580003F018111DBCF20C0689451F8689452F854
:10359000F2CF689453F8EFCF689454F8ECCF429C84
:1035A000200D1124422E689455F8E5CF8E3229F46F
:1035B00056FCF7C0689456F8DECF8C3619F4689440
:1035C00057F8D9CF8836B9F2982F9F7D955493300C
:1035D000C0F0833681F18337A1F1833509F05BC0F8
:1035E000D801CD90DD908D016B2D70E056FC02C0AE
:1035F0006FEF7FEFC6010E943D1C5C01689457F895
:103600000AC00C5F1F4FEFE3E983AA24A394B12CF7
:103610006401E89457F853FE29C0342CA114B10476
:1036200051F5332009F46DCFB70180E290E00E949C
:10363000531C3A94F6CFD8018C9189830E5F1F4FAB
:10364000E4CFF801C190D1908F016B2D70E056FC52
:1036500002C06FEF7FEFC6010E94481C5C01D9CF0A
:10366000B70180E290E00E94531C4A944A141B0464
:1036700009F0B0F7D2CFF60157FC859157FE819142
:103680006F01B70190E00E94531C31103A94B1E0F1
:10369000AB1AB108C3CF843619F0893609F071C06E
:1036A000F80157FE67C061917191819191918F01ED
:1036B000E52DEF76DE2E97FF09C0909580957095E9
:1036C00061957F4F8F4F9F4F6894D7F82AE030E085
:1036D000A4010E94831CC82EC818AC2C5D2CD6FEF9
:1036E0000CC0E89450F8CB1440F4D4FE05C0D2FCD2
:1036F00003C05D2D5E7E552EAB2C54FE93C0FE01A3
:10370000EC0DF11D8081803309F085C0652D697E47
:10371000562E752D7870372E53FC93C050FE8DC0F9
:10372000BC2CA41410F4B40CBA1854FE90C0B70109
:1037300080E390E00E94531C52FE07C088E751FCD2
:1037400088E590E0B7010E94531CCB1408F48BC0AD
:10375000CA94D12C8FEFC81AD80AC80CD91CD6012C
:103760008E916D01B70190E00E94531C8C149D0452
:10377000B1F757CF61917191072E000C880B990B0F
:1037800096CFD52CE894D4F82AE0853729F1F52D89
:10379000F97FDF2E8037A1F058F48835A1F08F36FD
:1037A000D1F0F701868197812F96E2E10C94381DC4
:1037B0008837B9F7D4FE02C06894D2F820E10CC073
:1037C0006894D4F8F7CF54FE03C02F2F2660D22E72
:1037D00020E132E002C028E030E0F801D7FE15C059
:1037E00041915191619171914C875D876E877F877F
:1037F0008F01A4016C857D858E859F850E94831C29
:10380000C82EC818E894D7F868CF81919191AC017F
:1038100070E060E0E9CF52FC02C0A3947ACFA39499
:10382000A39477CF852D867809F473CFF6CFB701AF
:1038300080E290E00E94531CA394A414C0F3312CA6
:1038400074CF342C3A18A41408F46FCFF8CF852D18
:10385000867809F47ACF8BE251FE80E257FC8DE244
:10386000B70190E070CFB70180E390E00E94531C55
:10387000BA946BCF8FEF9FEF97CFFC01059061500B
:1038800070400110D8F7809590958E0F9F1F089576
:10389000FC016150704001900110D8F7809590951F
:1038A0008E0F9F1F08950F931F93CF93DF93182FB1
:1038B000092FEB018B8181FD09C01FEF0FEF812FD5
:1038C000902FDF91CF911F910F91089582FF14C027
:1038D0002E813F818C819D81281739073CF4E88136
:1038E000F981CF0101969983888310838E819F810E
:1038F00001969F838E83E3CFE885F985812F099513
:10390000892BA1F3DACFFA01AA27283051F120310F
:1039100081F1E8946F936E7F6E5F7F4F8F4F9F4F63
:10392000AF4FB1E03ED0B4E03CD0670F781F891FA5
:103930009A1FA11D680F791F8A1F911DA11D6A0F73
:10394000711D811D911DA11D20D009F468943F9126
:103950002AE0269F11243019305D3193DEF6CF0125
:103960000895462F4770405D4193B3E00FD0C9F7EB
:10397000F6CF462F4F70405D4A3318F0495D31FD58
:103980004052419302D0A9F7EACFB4E0A6959795AB
:10399000879577956795BA95C9F700976105710581
:1039A00008959B01AC010A2E0694579547953795CB
:1039B0002795BA95C9F7620F731F841F951FA01D25
:1039C0000895DC01CB01FC01F999FECF06C0F2BDE0
:1039D000E1BDF89A319600B40D9241505040B8F7CD
:1039E0000895F999FECF92BD81BDF89A992780B5C7
:1039F0000895A8E1B0E042E050E00C94E31CDC0143
:103A0000CB0103C02D910E940A1D41505040D0F7B8
:103A10000895262FF999FECF1FBA92BD81BD20BD12
:103A20000FB6F894FA9AF99A0FBE019608950E947B
:103A3000091D272F0C940A1D2F923F924F925F92DF
:103A40006F927F928F929F92AF92BF92CF92DF92AE
:103A5000EF92FF920F931F93CF93DF93CDB7DEB713
:103A6000CA1BDB0B0FB6F894DEBF0FBECDBF0994A7
:103A70002A88398848885F846E847D848C849B84FE
:103A8000AA84B984C884DF80EE80FD800C811B810C
:103A9000AA81B981CE0FD11D0FB6F894DEBF0FBE3B
:103AA000CDBFED010895F894FFCF1A162E163516E6
:083AB0003C1643164A1660168D
:103AB8003203300030003000300030003000300079
:103AC800300030003000300030003000300030006E
:103AD800300030003000300030003000300030005E
:103AE800300000000000000200000000E7060000AF
:103AF8000000FFFF0101010101020101FFFFFF01B9
:103B08000AFFFF00004C07FF000001010101060247
:103B1800040301067EA30D0012000000000001014D
:103B280001010002000000140001046E0E2114BF00
:103B38001314130000FFFF0100020001000000023F
:103B480000FFFFFFFF02000000010002000100FF6C
:103B5800FF00000001020304050607171E040525DF
:103B68003032582000256420007573622064657621
:103B780069636520636F6E66696775726564002D99
:103B88002D2D2D2D2D2D2D006461746173746F7290
:103B980061676520696E697469616C697A6500732B
:103BA800746F7261676520646174612076616C6905
:103BB8006400726573657420646174612073746F46
:103BC8007261676520666F72206E65772070726F0C
:103BD8006A656374005263594565714E580073797C
:103BE8007374656D20706172616D6574657220769D
:103BF800616C75652066697865642025642C2025CC
:103C080064202D2D3E2025640A0073797374656D38
:103C180020706172616D657465727320696E697474
:103C280069616C697A656400706172616D6574655B
:103C3800727320736176656400696E76616C69647D
:103C4800206B65792061737369676E732064617492
:103C580061006B65792061737369676E7320737493
:103C68006F72616765206461746120697320766191
:103C78006C6964005B7761726E5D206661696C6572
:103C88006420746F2077726974652072617768693F
:103C9800642064617461006D656D6F72792077725C
:103CA800697465207472616E73616374696F6E20E4
:103CB8007374617274002564206279746573207767
:103CC80072697474656E2061742025640A006368E3
:103CD80065636B2C20616464722025642C206C65FC
:103CE8006E2025640A00636B3A2025640A006D651E
:103CF8006D6F7279207772697465207472616E7362
:103D0800616374696F6E20646F6E650064697265C3
:103D1800637457697265643477697468456E636F54
:103D28006465720041313532464432300041004208
:103D3800004300440045004600470048004A004B45
:103D4800004C004D004E004F0050005100520054EE
:103D58000055005600570059005A00457363005338
:103D68007061636500456E7465720054616200425B
:103D7800530046310046320046330046340046358B
:103D8800004636004637004638004639004631308E
:103D98000046313100463132004C53686966740080
:103DA8004C4374726C004C416C74004C475549008C
:103DB80052536869667400524374726C0052416CC5
:103DC80074005247554900486F6D6500456E6400A0
:103DD800496E736572740044656C65746500506162
:103DE800676555700050616765446E004C65667480
:103DF80000526967687400446F776E0048616E2FDF
:103E08005A656E004B6174612F486972610048659C
:103E18006E6B616E004D7568656E002E002C00217A
:103E2800003F003A003B005F002B002A002F003DB6
:103E38000026007C005E007E00400023002400C2B3
:103E4800A50025005C00270022006000280029004A
:103E58007B007D003C003E006C61796572206F66D6
:103E6800662025640A006C61796572206F6E2025D2
:103E7800640A006E756D4C61796572733A25642029
:103E88006B65794D617070696E67446174615369DF
:103E98007A653A25640A0063616E63656C206F6E0B
:103EA8006573686F74004A495300555300416C7438
:103EB8006572004D61696E0073797374656D206C6D
:103EC80061796F75743A2025730A00726F75746989
:103ED8006E67206368616E6E656C3A2025730A0010
:103EE8006265686176696F72206D6F64653A205308
:103EF800696D756C61746F72006265686176696F6F
:103F080072206D6F64653A205374616E64616C6FE2
:103F18006E65006B6579646F776E2025640A006BA7
:103F2800657975702025640A0048494420726570D7
:103F38006F72743A5B005D2C20006C617965727356
:083F48003A20253032580A002E
:00000001FF
