:100000000C94C4020C94E1020C94E1020C94E10201
:100010000C94E1020C94E1020C94E1020C94E102D4
:100020000C94E1020C94E1020C94E8040C940C058D
:100030000C94E1020C94E1020C94E1020C94E102B4
:100040000C94E1020C94E1020C94E1020C94E102A4
:100050000C94E1020C94E1020C94E1020C94E10294
:100060000C94E1020C94E1020C94E1020C94E10284
:100070000C94E1020C94E1020C94E1020C94E10274
:100080000C94E1020C94E1020C94E1020C94E10264
:100090000C94E1020C94E1020C94E1020C94E10254
:1000A0000C94E1020C94E1020C94E10200010000C6
:1000B000660212000200007C015B002200004A027E
:1000C0001C002100008E0109002201000A024000EC
:1000D000210100AE010900220200D70133002102F4
:1000E00000C7010900030000780104010309046648
:1000F0000110020309043401300303090400013232
:10010000320330003000300030003000300030006A
:10011000300030003000300030003000300030005F
:10012000300030003000300030003000300030004F
:100130003000000030034B00650072006D00690064
:100140007400650020004B006500790062006F00BC
:1001500061007200640020004400650076006900C0
:1001600063006500000010034B00650072006D0025
:1001700069007400650000000403090409025B00C3
:10018000030100C03209040000020300000009213D
:1001900011010001221C0007058103400002070530
:1001A00002034000080904010001030101000921C4
:1001B0001101000122400007058303080001090422
:1001C0000200010301020009211101000122330094
:1001D0000705840308000105010902A101050919A9
:1001E000012903150025019503750181029501750B
:1001F0000581030501093009311581257F750895B1
:10020000028106093895018106C005010906A10190
:1002100075019508050719E029E7150025018102F8
:1002200095017508810395057501050819012905D2
:10023000910295017503910395067508150026FF37
:10024000000507190029FF8100C006ABFF0A000264
:10025000A1017508150026FF00954009018102954E
:100260004009029102C0120100020000002055F076
:1002700077A500010102030101210304000000022F
:1002800023030500000003250306000000042703E4
:100290000700000005290308000000062B030900E1
:1002A0000000072D030A000000082F030B000000C8
:1002B00009A2030C0000000A31030D0000000B33FB
:1002C000030E0000000C35030F0000000D37031073
:1002D0000000000E3903110000000F3B0312000064
:1002E00000103D0313000000113F03140000001232
:1002F00041031500000013640316000000144303BB
:1003000017000000154503180000001647031900E8
:1003100000001749031A00000018D0011B0000005C
:10032000194B031C0000001A4D031D0000001B8325
:1003300003270200001C87031E0200001D8B031F01
:100340000200001E6D03200200001F700321020046
:100350000020730322020000217603230200002202
:10036000790324020000237C0325020000247F037C
:1003700026020000254F03290000002653032C000D
:10038000000027590328000000285F032B0000000D
:100390002963032A0000002A66033A0000002B6943
:1003A000033B0000002C6C033C0000002D6F033D5C
:1003B0000000002E72033E0000002F75033F000076
:1003C0000030780340000000317B03410000003220
:1003D0007E034200000033810343000000348503A4
:1003E0004400000035890345000000588E03E100F9
:1003F0000000579503E0000000599B03E200000055
:100400005AA003E30000009F8D03E10000009E94CA
:1004100003E0000000A09A03E2000000A19F03E3B4
:10042000000000A3A403E5000000A2AB03E4000069
:1004300000A4B103E6000000A5B603E70000005BDE
:10044000BB034A0000005CC0034D0000005DC40314
:10045000490000005ECB034C0000005FD2034B005C
:10046000000060D9034E00000061E003500000006E
:1004700062E5034F00000063D6035200000064EB06
:1004800003510000006AF003350000006BF8038898
:100490000000006D02048A0000006C09048B00005B
:1004A00000360F043702370237110436023602389D
:1004B00013041E011E01391504380138013A1704CE
:1004C000330134023B1904330233023C1B042D0177
:1004D00087013D1D042E0133013E7A012D022D02BC
:1004E0003F1F042501340140210438023802412312
:1004F000042E022D01422504240123014327043147
:1005000001890144290423012E02452B0435012EC3
:1005100001462D041F012F02472F0420012001480E
:10052000310421012101493304310289024A360490
:10053000220122014B3804310287024C3A04340272
:1005400024014D3C0434011F014E3E0435022F01AD
:100550004F40042601250150420427012601514441
:10056000042F023002524604300231025344042F59
:10057000013001544604300131015548043601363A
:1005800001564A043701370111241FBECFEFDAE0CC
:10059000DEBFCDBF15E0A0E0B1E0E2EBFDE302C0BD
:1005A00005900D92AA35B107D9F727E0AAE5B5E085
:1005B00001C01D92A430B207E1F70E94291B0C94E0
:1005C000D01E0C940000EF92FF920F931F93CF93D5
:1005D000DF93EC018C01060F171F83E5E82E81E005
:1005E000F82EC017D10751F48AE090E0DF91CF9147
:1005F0001F910F91FF90EF900C94B41B89911F9263
:100600008F93FF92EF920E94A01B0F900F900F907C
:100610000F90E7CFEF92FF920F931F93CF93DF934B
:10062000EC018C01060F171F89E5E82E81E0F82EFA
:10063000C017D10751F48AE090E0DF91CF911F916C
:100640000F91FF90EF900C94B41B89911F928F93A0
:10065000FF92EF920E94A01B0F900F900F900F90AF
:10066000E7CFFB01DC01460F571FE417F50709F43C
:10067000089581918D93F9CFAF92BF92CF92DF927F
:10068000EF92FF920F931F93CF93DF93DC01162F0E
:10069000EA0190E061E070E090130BC0DF91CF9130
:1006A0001F910F91FF90EF90DF90CF90BF90AF9090
:1006B0000895892F810F382F3695369536957D010F
:1006C000E30EF11CF701308187705B0101C0AA0CB9
:1006D0008A95EAF7892F820F482F469546954695C9
:1006E0004C0F5D2F511DFA01408150E087706B0166
:1006F00002C0CC0CDD1C8A95E2F74C215D21832FD2
:100700008A29452B21F4EA2DE0958E2F8323F701CA
:1007100080839F5FC1CFFC01DB01480F591FE417A5
:10072000F50711F481E0089591918D919817B9F32F
:1007300080E00895FB01DC01460F571FE417F50721
:1007400009F40895819190E08D939D93F7CF70E027
:100750000C94991B262F269526952695FC01E20FD1
:10076000F11D9081677021E030E001C0220F6A9591
:10077000EAF7442319F0922B908308952095922351
:10078000FBCF262F269526952695820F911DFC01DD
:10079000208130E0677081E090E002C0880F991FEF
:1007A0006A95E2F72823392381E0121613060CF02C
:1007B00080E008959B01BA01FC0190E080E082177F
:1007C000930714F080E0089541915191461757071F
:1007D00011F00196F4CF81E008959C0190E080E053
:1007E0008217930709F40895EFE9FFE03197F1F7D5
:1007F00000C000000196F4CF9C0190E080E08217D9
:10080000930709F4089545E04A95F1F70000019631
:10081000F6CF78940895F89408951092D800A8958A
:1008200014BEE0E6F0E08081886180831082089544
:10083000E82FE695E695E69593E0E99FF00111240F
:1008400035A1282F277081E090E001C0880F2A95FC
:10085000EAF78095832385A30895E82FE695E6952A
:10086000E69593E0E99FF001112494A1877021E0BF
:1008700030E001C0220F8A95EAF7892F822B84A3EA
:100880000895E82FE695E695E69593E0E99FF00157
:10089000112434A1282F277081E090E001C0880F37
:1008A0002A95EAF78095832384A30895E82FE69597
:1008B000E695E69563E0E69FF001112444A1877078
:1008C00021E030E0B90102C0660F771F8A95E2F798
:1008D000CB01962F9095942394A395A1892B85A362
:1008E0000895662399F0E82FE695E695E69593E05E
:1008F000E99FF001112495A1877021E030E001C04B
:10090000220F8A95EAF7922B95A308950C94180468
:10091000E82FE695E695E695EF5F93E0E99FF00115
:10092000112490A1877021E030E002C0220F331F14
:100930008A95E2F7892F90E02823392381E0121667
:1009400013060CF080E00895E82FE695E695E6950D
:1009500093E0E99FF001112495A1877021E030E038
:1009600001C0220F8A95EAF7892F822785A308956F
:1009700086958695869523E0829FC00111248596F1
:1009800008958695869586958F5F23E0829FC001A6
:100990001124809608958770089561E00C94710485
:1009A0000C941804E82FE695E695E695EF5F93E042
:1009B000E99FF001112490A1877021E030E001C08F
:1009C000220F8A95EAF7892F822B80A30895089534
:1009D0001F921FB61F9211248F939F938091E10065
:1009E0001092E10083FF0FC01092E90091E0909314
:1009F000EB001092EC0092E29093ED0098E090935F
:100A0000F00010925B0582FD80915B059F918F91B4
:100A10001F901FBE1F9018951F920F920FB60F9236
:100A20001124EF92FF920F931F932F933F934F93B5
:100A30005F936F937F938F939F93AF93BF93CF9366
:100A4000DF93EF93FF931092E9008091E80083FF1A
:100A50005AC09091F1008091F1002091F100309105
:100A6000F1004091F1005091F1006091F10070911E
:100A7000F100E2EFE093E800863009F087C08CEAED
:100A800090E0A0E0B1E0FC01C591D4912C173D07A6
:100A900009F034C0FC013296C591D4914C175D0722
:100AA00069F5FC013496459154910696FC018491B8
:100AB0006F3F710519F010F06FEF70E0F62E86179A
:100AC00008F4F82EBA018EEFE82E8091E800982FF6
:100AD0009570D9F382FD2CC08F2DF0E2FF1508F43C
:100AE00080E223303207A9F0FB01982F9923A9F067
:100AF000A491A093F10091503196F8CF0796A817D2
:100B0000B90709F0C0CF81E28093EB0011C0F92E44
:100B1000DCCF8B01982F911122C0680F711D9F2D82
:100B2000981BE092E800F812F2CF80E2F81679F311
:100B3000FF91EF91DF91CF91BF91AF919F918F91F5
:100B40007F916F915F914F913F912F911F910F91E5
:100B5000FF90EF900F900FBE0F901F901895E80137
:100B6000C41BD50BAC2FF801B491C23048F0A25091
:100B7000B0E0C0FD05C0A695B0E0A45ABA4FBC9144
:100B8000B093F10091500F5F1F4FC5CF853059F4DE
:100B90008EEF8093E8008091E80080FFFCCF206812
:100BA0002093E300C5CF8930C9F5911137C0209358
:100BB0005B058EEF8093E80081E08093E9008093ED
:100BC000EB0091EC9093EC0026E32093ED0032E0F3
:100BD0003093E9008093EB0030EC3093EC002093ED
:100BE000ED0023E02093E9008093EB009093EC006C
:100BF00026E02093ED0034E03093E9008093EB0091
:100C00009093EC002093ED008DE591E00E94BB1BDA
:100C10008EE18093EA001092EA008ACF41155105D7
:100C200039F4913209F06FCF8A3009F06CCF15C0DA
:100C300041305105B1F4913209F065CF8930A1F707
:100C40008091E80082FFFCCF8091F10080935A05EB
:100C500080915A058BEF8093E8008EEF8093E80037
:100C600067CF42305105E9F24ECF80E880936100B2
:100C70001092610081E08093D70080EA8093D800D1
:100C800082E189BD09B400FEFDCF80E98093D800E0
:100C90001092E00010925B058CE08093E2000895D2
:100CA00090915B05911102C080E0089593E09093CC
:100CB000E9009091E80095FFF7CFF8948093F10058
:100CC0001092F100FB01CB01069621912093F100D7
:100CD000E817F907D1F78AE38093E800789481E078
:100CE000089520915B05211102C080E0089523E062
:100CF0002093E9002091E80025FFF7CFF894FC014C
:100D0000089621912093F100E817F907D1F78AE3BB
:100D10008093E800789481E0089520915B0521118B
:100D200002C080E0089521E02093E9002091E800CE
:100D300025FFF7CFF894FC01805C9F4F2191209311
:100D4000F100E817F907D1F78AE38093E800789477
:100D500081E0089520915B05211102C080E0089593
:100D600022E02093E9002091E80025FFF7CFF894D6
:100D7000FC01805C9F4F2091F1002193E817F90757
:100D8000D1F78BE68093E800789481E00895909104
:100D90005B0581E0911101C080E008958CE595E04C
:100DA000089508951092D800089580E094E0089581
:100DB000F999FECF0C946E1EF999FECF0C94861E05
:100DC000F999FECF0C94761EF999FECF0C94941EDF
:100DD000382F292FCB01F999FECF632F722F0C9456
:100DE0005E1E382F292FCB01F999FECF632F722F6A
:100DF0000C947C1ECF93DF93D0E0C0E060E0CE0186
:100E00000E94DC062196C11584E0D807B9F7DF916E
:100E1000CF91089508950895CF93C82F80917405B8
:100E2000882359F0CA3019F48DE00E940C07809194
:100E3000C80085FFFCCFC093CE00CF910895CF931B
:100E4000DF9300D000D0CDB7DEB769837A838B8380
:100E50009C8360E472E48FE090E029813A814B81C9
:100E60005C810E945D1B215031093093CD0020939D
:100E7000CC00EAECF0E08081817F86608083808115
:100E80008F7C80838081877F8083E9ECF0E08081A4
:100E90008860808380E091E0909301078093000751
:100EA00081E08093740583E791E00F900F900F909D
:100EB0000F90DF91CF910C94BB1BE9ECF0E08081A7
:100EC000877F808380E091E0909301078093000703
:100ED000109274050895CF93C42F80930F016093EF
:100EE0000E01409375058F3F39F00E942D046C2F41
:100EF00080910F010E94710480910E018F3F41F09B
:100F00000E942D046C2F80910E01CF910C947104DE
:100F1000CF910895682F80910F018F3F41F09091FC
:100F20007505992311F091E069270C9471040895D7
:100F3000682F80910E018F3F41F0909175059923A4
:100F400011F091E069270C947104089580910F01CC
:100F50008F3F11F00C94A404089580910E018F3FEF
:100F600011F00C94A404089541E065E180E00C9434
:100F70006B078F929F92AF92BF92CF92DF92EF92C8
:100F8000FF920F931F93CF93DF935C01EB016A01F4
:100F900079014801CC15DD0510F5CE010E94E0066F
:100FA0008C01CE0102960E94E0069C010A151B05E9
:100FB000A1F42496F701D183C083F4013183208307
:100FC000DF91CF911F910F91FF90EF90DF90CF9025
:100FD000BF90AF909F908F900895892B29F4D0E017
:100FE000C0E030E020E0E6CF2C5F3F4FC20FD31FC0
:100FF000D1CFEF92FF920F931F93CF93DF93D82F10
:10100000C92F7B018A010E94D506AC01970162E0DD
:1010100070E08D2F9C2F0E94B907DF91CF911F9117
:101020000F91FF90EF900895CF93DF9300D000D001
:10103000CDB7DEB7AE014F5F5F4FBE016D5F7F4F33
:101040000E94F9078B819C810F900F900F900F9059
:10105000DF91CF910895CF92DF92EF92FF920F939D
:101060001F93CF93DF9300D000D0CDB7DEB76C01D4
:101070007B018A01AE014F5F5F4FBE016D5F7F4F05
:1010800080E79AEA0E94F9076B817C8161157105FE
:10109000A9F049815A81460F571F9701C6010E9446
:1010A000B9070F900F900F900F90DF91CF911F9184
:1010B0000F91FF90EF90DF90CF900895F70111828C
:1010C0001082F80111821082ECCFAF92BF92CF92C2
:1010D000DF92EF92FF920F931F93CF93DF9300D095
:1010E00000D0CDB7DEB78CE791E00E94BB1B90E04B
:1010F00080E00E94E0068E37934A09F044C0AE01BA
:101100004F5F5F4FBE016D5F7F4F80E19AEA0E94A3
:10111000F907E980FA80AE014F5F5F4FBE016D5F56
:101120007F4F80E29AEA0E94F907A980BA80AE0157
:101130004F5F5F4FBE016D5F7F4F80E39AEA0E9471
:10114000F907C980DA80AE014F5F5F4FBE016D5F66
:101150007F4F80E49AEA0E94F90709811A8180E7AB
:101160009AEA0E9414089C0182E1A816B10459F47D
:101170008DE0C816D10439F40E291F29012B19F46A
:10118000232B09F04AC086EA91E00E94BB1B0E9413
:10119000FA066EE773EA90E080E00E94E40660E2FF
:1011A0007AEA82E090E00E94E40662E170E084E086
:1011B00090E00E94E40660E37AEA88E190E00E9411
:1011C000E4066DE070E08AE190E00E94E40660E7EA
:1011D0007AEA89E290E00E94E40670E060E08BE247
:1011E00090E00E94E40680E29AEA0E9414080097C8
:1011F000D9F148E050E069EC71E00F900F900F904A
:101200000F90DF91CF911F910F91FF90EF90DF90A2
:10121000CF90BF90AF900C94F10680E29AEA0E94C2
:10122000140848E050E066E775E00E94E80648E0F0
:1012300050E069EC71E086E795E00E948B0388231B
:1012400009F4A1CF83E991E00F900F900F900F90D8
:10125000DF91CF911F910F91FF90EF90DF90CF9092
:10126000BF90AF900C94BB1B0F900F900F900F90FE
:10127000DF91CF911F910F91FF90EF90DF90CF9072
:10128000BF90AF900895CF93DF9380E79AEA0E94D2
:101290001408EC01892B31F00E94D5069C012C1B0F
:1012A0003D0BE901CE01DF91CF91089580E29AEAEA
:1012B0000E9414080896089580E29AEA0E94140891
:1012C0004096089580E39AEA0C9414088DE090E02B
:1012D000089580E79AEA0C941408CF93DF9300D026
:1012E00000D0CDB7DEB7AE014F5F5F4FBE016D5F7F
:1012F0007F4F81E79BEB0E942B088B819C810F9095
:101300000F900F900F90DF91CF910895CF93DF93BF
:1013100000D000D0CDB7DEB7AE014F5F5F4FBE014A
:101320006D5F7F4F84E79BEB0E942B088B819C8134
:101330000F900F900F900F90DF91CF910895CF9362
:10134000DF9300D000D0CDB7DEB7AE014F5F5F4F67
:10135000BE016D5F7F4F88E79BEB0E942B088B815E
:101360009C810F900F900F900F90DF91CF91089577
:10137000CF93DF9300D000D0CDB7DEB7AE014F5F83
:101380005F4FBE016D5F7F4F88E79BEB0E942B088C
:1013900089819A810F900F900F900F90DF91CF91DC
:1013A0000895CF93DF9300D000D0CDB7DEB7AE0164
:1013B0004F5F5F4FBE016D5F7F4F86E79BEB0E94E3
:1013C0002B088B819C810F900F900F900F90DF91D5
:1013D000CF9108958F929F92AF92BF92CF92DF925A
:1013E000EF92FF920F931F93CF93DF93D0E0C0E073
:1013F000EE24E394F12C87010C2E02C0000F111F84
:101400000A94E2F780917E0590917F0580239123D5
:10141000892BF1F0FE01E457FA4F90808C2E82E880
:10142000A82E85E0B82ED12CC12C809180059091FA
:101430008105C816D906ECF00095109580917E05BF
:1014400090917F058023912390937F0580937E0563
:101450002196CD30D10579F6DF91CF911F910F9173
:10146000FF90EF90DF90CF90BF90AF909F908F90C4
:101470000895D501ED91FD915D01692D882D0995A6
:10148000BFEFCB1ADB0AD1CFCF93DF93D82FC92F71
:101490006091800570918105482F592F82E895E071
:1014A0000E94DA03811110C0E0918005F09181055E
:1014B000CF0101969093810580938005EE0FFF1F69
:1014C000EE57FA4FD083C183DF91CF910895E82F73
:1014D000F0E0E05FFE4F60830895853011F46130E5
:1014E00040F0E82FF0E0E05FFE4F81E0908196173A
:1014F00008F480E081700895DF92EF92FF920F93DD
:101500001F93CF93DF930CE815E0D0E0C0E082EDAD
:10151000E82E81E0F82EF801D1908F016D2D8C2FEF
:101520000E946D0A811119C0FE01E65CFE4F8081A8
:10153000F801319780831F928F931F92DF92DF9380
:10154000CF93FF92EF920E94A01BEDB7FEB73896A3
:101550000FB6F894FEBF0FBEEDBF2196CD30D1057A
:10156000D1F6DF91CF911F910F91FF90EF90DF9017
:101570000895CF93DF93C82FD62F0E946D0A88233A
:10158000E1F0EC2FF0E0E457FA4FD08321E030E0B7
:1015900002C0220F331FCA95E2F780917E05909119
:1015A0007F05822B932B90937F0580937E0588EB9C
:1015B0009BE090931E0180931D01DF91CF910895D0
:1015C000CF93C82F282F30E0F901E05FFE4F9081C4
:1015D00024573A4FD901EC91F0E09F01260F371FB5
:1015E000442389F0692F70E06F5F7F4FCB01820F3A
:1015F000931F0E94491B8E179F0789F0682F8C2F1D
:10160000CF910C94B90A37FD07C0892F90E02817B5
:1016100039078CF7C901EFCF90E080E0ECCFCF9194
:101620000895CF93DF930E94620990938B05809376
:101630008A05892B09F440C00E945C09EC010097DF
:10164000B1F00E94D806811112C04DE050E06AE36B
:1016500071E080918A0590918B050E94F10661E00E
:10166000CE010E94DC068EEF91E00E94BB1B4DE094
:1016700050E06CE875E080918A0590918B050E949E
:10168000E8060E947C0A20917E0530917F0590E05B
:1016900080E061E070E0AB01082E02C0440F551FEE
:1016A0000A94E2F7242B352B01968D30910599F79A
:1016B00030937F0520937E05DF91CF910895462FCB
:1016C00050E06CE875E00C943103462F50E060E187
:1016D00071E00C943103E82FF0E0E457FA4F808179
:1016E00008950C94B90AEF92FF920F931F93CF9332
:1016F000DF938C01D0E0C0E0E62EF12CCE15DF05A3
:101700003CF0DF91CF911F910F91FF90EF900895E2
:10171000F80161918F018C2F0E94B90A2196EECFBA
:101720000F931F93CF930AE311E0C0E0F80161919A
:101730008F018C2F0E94B90ACF5FCD30B9F7CF91BE
:101740001F910F910895813039F4609193056827B6
:1017500087E00E94B90A0895823041F0833069F42D
:1017600041E06FEF7FEF88E00C94E00A41E061E038
:1017700070E08AE00E94E00A089541E061E070E0D4
:10178000843089F340E060EF7FEF853031F040E056
:1017900060E170E0863009F0089589E0E5CF80913E
:1017A0001D0190911E0118161906BCF40197909323
:1017B0001E0180931D01892B81F480918A059091EF
:1017C0008B05009751F04DE050E06CE875E00E9409
:1017D000F1068CE192E00E94BB1B0C94EA090C9488
:1017E000EA098CE895E00895CF93DF930E946D0994
:1017F000EC010E944309209741F48DE292E00E949F
:10180000BB1B80E0DF91CF910895892BB1F345E0B8
:1018100050E069E975E0CE010E94E80630919A0532
:1018200020919B0590919C0580919D054091990583
:10183000413019F7363009F72330F9F69F3FE9F2C6
:101840008131D8F686E492E00E94BB1B81E0DACFBA
:10185000E091E605F091E705309709F009940895C5
:101860000E94C706882351F080EA95E00E948D0609
:10187000811104C088E692E00C94BB1B08959091FE
:101880009F05992399F090919E0591110FC090EBBF
:101890009093A00592E09093A10591EE9093A205FC
:1018A0008093A3056093A4050C94300C0895909345
:1018B000E7058093E6058FE39CE00E94440A0E94BE
:1018C00056099093E5058093E4050E946909909379
:1018D000E3058093E2050E9443099093E10580931C
:1018E000E0050895CF92DF92FF920F931F93CF935D
:1018F000DF9380EA95E00E94AA06882309F49DC040
:101900008091A005803B09F00CC19091A1058091C8
:10191000A205913009F0ABC0803171F48BE892E000
:101920000E94BB1B81E0DF91CF911F910F91FF902F
:10193000DF90CF900C94280C803209F458C081328B
:1019400009F083C0C091A305D091A405DC27CD2761
:10195000DC278091E2059091E305C80FD91F009123
:10196000A5051091A6051027012710271F930F9397
:10197000DF93CF9382EC92E09F938F930E94A01B02
:101980000F900F900F900F900F900F90D12CC12CB3
:10199000F12CC016D10609F060C01F92FF928AEDAB
:1019A00092E09F938F930E94A01B80EB8093A005F1
:1019B00081E08093A10582E28093A205F092A305C5
:1019C0001092A4050E94300C0F900F900F900F9072
:1019D0008091E2059091E305B6010297DF91CF91E6
:1019E0001F910F91FF90DF90CF900C94E406C0916F
:1019F000A305D091A405DC27CD27DC278091E20543
:101A00009091E305C80FD91F1091A505412F50E013
:101A100066EA75E0CE010E94F106DF93CF931F9234
:101A20001F938AEA92E09F938F930E94A01B0F90CE
:101A30000F900F900F900F900F90DF91CF911F910B
:101A40000F91FF90DF90CF9008958131B1F782EE32
:101A500092E00E94BB1B82E066CFCE018C0D9D1DE3
:101A60000E94D806F8268FEFC81AD80A92CF923073
:101A7000A9F0933011F7803901F748E050E063EAAC
:101A800075E08091E4059091E505DF91CF911F917C
:101A90000F91FF90DF90CF900C94F1068038C9F43D
:101AA00081E88093A2058DE08093A3056DE084EA30
:101AB00095E00E945F0B6DE081EB95E00E94650B65
:101AC000DF91CF911F910F91FF90DF90CF900C94F9
:101AD000300C803979F0803AD9F46091A405809176
:101AE000A305DF91CF911F910F91FF90DF90CF90D1
:101AF0000C94710B4091A3056091A40581E0809343
:101B00009E0585EA95E00E94730B10929E0595CF85
:101B1000803B09F092CF81E080939E050E94900B5C
:101B2000F4CF803F79F0803D09F087CF8091A10507
:101B3000803109F05FC08091A205813009F058C062
:101B40008AE0F1CE8091A105803109F076CF81E164
:101B50008093A1051092A20587E08093A30586E0FB
:101B60008093A405C1E0C093A50548E050E069EC6E
:101B700071E086EA95E00E943103C093AE051092B1
:101B8000AF0548E050E060EB75E08091E40590918E
:101B9000E5050E94E8068091E0059091E10598270F
:101BA000892798279093B9058093B80540E150E0C4
:101BB00060E08AEB95E00E94A70340E150E060E01E
:101BC00073E08AEB95E00E94310348E050E068E161
:101BD00073E08AEC95E00E94310383E08093D205A4
:101BE00082E08093D3050E94300CC0939F0525CFDF
:101BF0008BE099CE803209F020CF82EA95E0DF9128
:101C0000CF911F910F91FF90DF90CF900C947106B0
:101C1000E0EAF5E090EE908390E99183828363831C
:101C20000C94300CE0EAF5E020EE208321E92183DA
:101C3000982789279827938382830C94300CE0EAB5
:101C4000F5E020EE208322E9218398278927982731
:101C5000938382830C94300CBC0148E050E0809167
:101C6000E4059091E5050C94E806E8E7F2E030E041
:101C700020E0949189130DC0611114C087E0829F08
:101C8000F001839FF00D1124E558FD4F859195914A
:101C900015C02F5F3F4F37962037310551F790E041
:101CA00080E0089587E0829FF001839FF00D11246A
:101CB000E358FD4F85919591009701F30895E8E76A
:101CC000F2E030E020E0949189130BC087E0829F1E
:101CD000F001839FF00D1124E758FD4F85919591F8
:101CE00008952F5F3F4F37962037310561F790E019
:101CF00080E00895CF93DF930E94D109EC01009713
:101D000049F00E94D8068093EA052196D093E90510
:101D1000C093E805DF91CF910895AF92BF92CF9223
:101D2000DF92EF92FF920F931F93CF93DF939C016B
:101D3000B62E8C010027107F832F8F70D82ED22FC4
:101D4000C12C85E0A82E8091EA05C816D8F5E09050
:101D5000E805F090E905CA9CE00CF11C1124C701CC
:101D60000E94D8068B1511F08F30A9F4C701019697
:101D70000E94D806C82FC70102960E94D806CC231D
:101D800011F0C53B51F49FEF980F9E3F20F4DC17F4
:101D900039F1C53B29F1C394D6CFDC13FCCFD8165B
:101DA00011F08F3FC1F7C70103960E94D806C82FD4
:101DB000C70104960E94D806C63B09F0DC2F8E3F6F
:101DC00009F0D82EC8018D2B9D29DF91CF911F914D
:101DD0000F91FF90EF90DF90CF90BF90AF9008955C
:101DE000D812D9CFE0CF9C018827907F432F4F7026
:101DF0002F7739EA320F343050F42755330B61E036
:101E000070E001C0660F2A95EAF7462B20E0822B8E
:101E1000942B0895FC019081907681E0903409F034
:101E200080E00895482FEEEEF5E030E020E05FE03E
:101E3000529FC001539F900D1124DC01A151BA4F54
:101E40006C9160FF03C06281641749F02F5F3F4FC0
:101E50003F962A30310561F790E080E00895815186
:101E60009A4F08958F929F92AF92BF92EF92FF92F6
:101E70000F931F93CF93DF939C01C62FD0E08E0169
:101E8000080F191F60E070E0CB012017310799F4AB
:101E900040E024E030E02C1B3D0B42171306E4F039
:101EA000DF91CF911F910F91FF90EF90BF90AF9076
:101EB0009F908F9008958824962EA72EB82E790192
:101EC0004FEFE41AF40AC9010E94D8069401282BA6
:101ED000C501B9019701D9CF982F872F762F662793
:101EE0004F5FDBCF50E0542F44275295507F482B53
:101EF000562B506850938606409385060895CF93DD
:101F0000DF934091870650918806C82FD0E09A0150
:101F1000082E02C0369527950A94E2F720FF29C0C3
:101F200021E030E0082E02C0220F331F0A94E2F7AE
:101F300020953095242335233093880620938706F7
:101F40001F928F938CE494E09F938F930E94A01B29
:101F5000CC0FDD1FC256D94F89818F700F900F9023
:101F60000F900F9031F080959091C6068923809351
:101F7000C606DF91CF910895CF92DF92EF92FF9244
:101F80000F931F93CF93DF93F82EE090990609E902
:101F900016E0D0E0C0E0C62E660FDD08CE1548F092
:101FA000DF91CF911F910F91FF90EF90DF90CF9035
:101FB0000895CC16DD0641F0F80185818770F8128E
:101FC00003C08C2F0E947F0F21960E5F1F4FE6CF1C
:101FD0000F931F93CF93C82F082F10E0809187068F
:101FE000909188060C2E02C0969587950A94E2F788
:101FF00080FD34C0000F111FF801E756F94F8581AD
:10200000877019F06C2F0E94BC0F21E030E00C2E7D
:1020100002C0220F331F0A94E2F780918706909145
:102020008806822B932B90938806809387061F92B5
:10203000CF938AE594E09F938F930E94A01BF801B1
:10204000E256F94F81818F700F900F900F900F9093
:1020500029F09091C606892B8093C606CF911F91D7
:102060000F9108950F931F93CF93DF93EC018A850F
:102070009B85AC85BD850097A105B10509F45AC0C3
:10208000AC01BD012EE176956795579547952A9548
:10209000D1F7413009F053C06091EC05CD010E94A9
:1020A0008D0E0E94F30E8C018F77A801952F9F70E3
:1020B00031F090952091C70692239093C70688230C
:1020C00061F161E09091EB05923009F060E00E94CF
:1020D000350E9C01982FA9014427517031FB22270E
:1020E00020F914FF20E02170452B29F08091C806CB
:1020F0008D7F8093C80621111092C906992369F03B
:10210000EAECF6E020ED36E08191981303C0DF01A0
:1021100011971C922E173F07B9F78091870690916F
:102120008806892B19F480E00E94E80F1A861B8626
:102130001C861D86DF91CF911F910F91089542302B
:1021400061F7AC01BD0184E1769567955795479598
:102150008A95D1F74F70413001F78B2F8F700E9415
:102160007F0FDBCF0F931F93CF938B019C01DC017B
:10217000CB014EE1B695A795979587954A95D1F7EE
:10218000813009F057C06091EC05C9010E948D0EA5
:102190000E94F30E8C018F77A801252F2F7029F054
:1021A0009091C706922B9093C7068823C1F161E0F6
:1021B0009091EB05923009F060E00E94350E9C0191
:1021C000582FBC016627717031FB882780F914FFF6
:1021D00080E081709091BE06672B29F04091C8067F
:1021E00042604093C806882329F09D7019F481E06D
:1021F0008093C906552399F08091D00696E08F5FB1
:10220000863009F480E0E82FF0E0E254F94F44858D
:10221000442311F0915099F78093D0062487809140
:1022200089068F3FC9F080918A068F3FA9F41092EA
:102230008A0612C0823009F04DC0C32FCF7094E1DE
:1022400036952795179507959A95D1F70F70013018
:1022500081F48C2F0E94E80F809187069091880668
:10226000892B09F044C080E0CF911F910F910C940D
:10227000E80F023071F3033021F48C2F0E947F0F9E
:10228000EBCF043069F480918706909188060C2E7C
:1022900002C0969587950A94E2F780FDEECFD9CFDC
:1022A0000530D1F68C2F0E94E80FC09389068FEF7E
:1022B00080938A0680EB94E00E94BB1BCDCF8230D6
:1022C00009F0ADCF9927832F722F612F822F0E94A3
:1022D000A30BA5CF833009F0A2CF832F8770813065
:1022E00071F76FEF822F87700E94BC0F98CFCF914C
:1022F0001F910F9108952F923F924F925F926F928C
:102300007F928F929F92AF92BF92CF92DF92EF9285
:10231000FF920F931F93CF93DF9300D000D000D094
:102320000F92CDB7DEB7382E4B0199E9A92E96E072
:10233000B92E2FE0C22ED12CFC2CCA82C4010C2C49
:1023400002C0969587950A94E2F780FD25C021E0AA
:10235000C21AD10832E0A31AB1084FEFC416D4064E
:1023600059F790E080E027960FB6F894DEBF0FBED5
:10237000CDBFDF91CF911F910F91FF90EF90DF9034
:10238000CF90BF90AF909F908F907F906F905F9015
:102390004F903F902F90089580919A0690919B06C0
:1023A0009F838E8380919C0690919D064E815F81D4
:1023B0004817590778F48E819F810E94D806182FFC
:1023C0008E819F8101960E94D806912F212F2F7711
:1023D00097FD05C0F50184A187FFB9CFC2CF38169C
:1023E00049F082E0820F2E813F81280F311D3F830B
:1023F0002E83D8CF8E819F81009761F30E94D806EB
:10240000EE81FF813296FF83EE838F778F01080F75
:10241000111D8E819F8180179107E0F68E819F812B
:102420000E94D806982F8F708F1531F12E813F8131
:102430002F5F3F4F9295977091509330D8F4C90118
:102440000E94D806982F9295969596959370282F6E
:102450002770920F9F5F8695869586958770980F57
:102460002E813F812E5F3F4FA901490F511D5F8390
:102470004E83CFCF90E0F8CFEE81FF81309709F403
:10248000A9CFCF010E94D806182F129517708CEF94
:10249000810F823058F510938B0610928C061092A3
:1024A0008D0610928E0610928F0610929006109252
:1024B0009106109292061092930610929406109232
:1024C00095061092960610929706FFEFF0939806E5
:1024D00080918B06853009F43ACF843009F441CFDE
:1024E000882309F434CF8BE896E03DCF8E819F811D
:1024F00001960E94D806082FE82EE294E694E6940E
:1025000083E0E822E3942E813F812E5F3F4F3F839B
:102510002E836E2DC9010E94320F262E7B838C8361
:102520009D838EEF810F823008F03FC0802F86950B
:102530008695869587708983F12C682F8E819F817F
:102540008E0D9F1D0E94320F2B013C01133089F527
:10255000602F6770C7013981830F911D4E815F81A4
:10256000840F951F0E94320F10938B0620928C06C9
:102570005B8150938D06EC81E0938E06FD81F09394
:102580008F06409290065092910660929206709249
:1025900093066093940670939506809396069093A5
:1025A00097062A812093980693CF412C512C612CB9
:1025B000712C60E070E080E090E0D6CF0F931F9325
:1025C000CF93DF93EC018B819C81860F911D9C83BF
:1025D0008B838881982F9F79988391FD05C082FF16
:1025E00003C08D7982628883888181FF05C082FD66
:1025F00003C08D79806488838091EE058F3F21F040
:1026000091E02981281301C090E0888190FB83F933
:10261000888328853985232BE1F480768032C9F4BC
:102620000091870610918806B80189810E947B116C
:10263000FC01892B71F085858D831F830E83E081DA
:10264000F0E0EE0FFF1FE95BFE4F808191819987DB
:102650008887E885F985309741F0CE010995882370
:1026600021F01F821E8219861886DF91CF911F915B
:102670000F9108951F93CF93DF9300D000D000D027
:10268000CDB7DEB78D839E83162FAD81BE811696A2
:102690006D917C91179711968C910E947B11FC0192
:1026A000892BC1F0113001F581819281A381B48120
:1026B00089839A83AB83BC83BC01CD010E94B21095
:1026C00089819A81AB81BC81ED81FE81828793876C
:1026D000A487B58726960FB6F894DEBF0FBECDBF90
:1026E000DF91CF911F910895123029F48581968151
:1026F000A781B085DDCF81859285A385B485D8CFAC
:10270000CF93DF93EC018A8124E0829FC0011124E2
:10271000682B6A831C821B826B3169F461E0CE01F5
:102720000E943A1381E08E8741E06D818981DF91BB
:10273000CF910C94720F673041F0673661F461E01D
:10274000CE01DF91CF910C943A1362E0CE010E944A
:102750003A1342E0EACF663629F0623059F0DF9151
:10276000CF91089563E0CE010E943A1381E08E87F5
:1027700043E0DBCFCE01DF91CF910C943210CF92AA
:10278000DF92EF92FF920F931F93CF93DF93EC01B1
:102790008881182F1295169513700A81EB80FC80A2
:1027A00081FBCC24C0F883FBDD24D0F8113061F428
:1027B000063029F461E088ECE816F10440F11A8251
:1027C00061E0CE010E948013013081F0093119F1DE
:1027D000063061F11230B1F180E0DF91CF911F91AD
:1027E0000F91FF90EF90DF90CF900895CC2041F0B3
:1027F00088ECE816F104A0F163E0CE010E9480139A
:10280000123051F788ECE816F104E0F462E0CE01F2
:102810000E948013E1CFCC20B9F088ECE816F104D7
:10282000D8F063E0CE010E948013D4CFC110D2CF84
:1028300063E088ECE816F10468F2CE010E94801390
:1028400081E0CBCF1A8206C0123031F688ECE81650
:10285000F104C0F762E0F1CF123009F0BDCFFACF3A
:10286000D110CACF123091F2B7CFCF93DF93EC01E2
:102870008A8124E0829FC0011124682B6A831C8214
:102880001B82663069F461E0CE010E943A1381E058
:102890008E8741E06D818981DF91CF910C94720F19
:1028A000673041F0693161F461E0CE01DF91CF9191
:1028B0000C943A1362E0CE010E943A1342E0EACF50
:1028C000623019F0DF91CF910895CE01DF91CF9161
:1028D0000C943210CF92DF92EF92FF920F931F93DE
:1028E000CF93DF93EC018881182F12951695137002
:1028F0000A81CB80DC8081FBEE24E0F883FBFF249F
:10290000F0F8113061F4063029F461E088ECC81663
:10291000D10460F11A8261E0CE010E9435140130C9
:1029200059F0063039F5E11005C063E088ECC816AF
:10293000D10430F580E028C0EE2089F063E088EC17
:10294000C816D10498F4FF2021F063E0CE010E9464
:102950003514123079F709C0093161F70FC0123010
:1029600049F788ECC816D10428F762E0CE010E942E
:102970003514E0CF1230F1F6073071F71A8262E0B9
:10298000CE010E94351481E0DF91CF911F910F910C
:10299000FF90EF90DF90CF900895CF93DF93EC01FD
:1029A0008881829586958370813061F48A8361E0A5
:1029B000CE010E943A1341E06D8189810E94720F1D
:1029C00080E007C08230E1F78A83CE010E94321096
:1029D00081E0DF91CF9108958093EB050895809376
:1029E000EC050895AF92BF92CF92DF92FF920F93C2
:1029F0001F93CF93DF930E946D095C010E948609AB
:102A0000EC010E949F098C010E94B8096C01C5016C
:102A100004960E94D806F82E8093990610939B0680
:102A200000939A060C0D1D1D10939D0600939C06A5
:102A3000DF92CF921F928F9387E694E09F938F93BC
:102A40000E94A01B0EE916E00F900F900F900F90C0
:102A50000F900F905801D12C80E090E0DF1448F4E3
:102A6000CE010E94D806C82ECE0101960E94D8063B
:102A70009C2DD5018D939D935D01D3942296B0E159
:102A8000DB12EACF0E947A0EEEEBF6E088E0DF017F
:102A90001D928A95E9F71092C6061092C706109209
:102AA000C8061092C9061092CA061092CB06109260
:102AB000CC061092CD061092CE061092CF06109240
:102AC000D0064091990690E080E030E020E061E09F
:102AD00070E0841708F452C030938806209387066C
:102AE0008FEF8093890680938A068093EE0510927B
:102AF000860610928506EEEEF5E090E080E04FE06D
:102B00003FEF489FD001499FB00D1124ED01C15105
:102B1000DA4F28812E7F288332831382A251BA4F45
:102B200011962C911197297F11962C93119715824C
:102B3000148211962C911197277E11962C9336832F
:102B4000108617821286118628812F792883138692
:102B5000148615861686178601963F968A3091054B
:102B600081F681E08093ED05DF91CF911F910F9168
:102B7000FF90DF90CF90BF90AF900895D801ED9176
:102B8000FD918D01F5FF09C0FB01082E02C0EE0F7B
:102B9000FF1F0A94E2F72E2B3F2B01969ACF8093CA
:102BA000EB0508958093EC0508958091ED05882349
:102BB000D1F08091C6069091C706892B9091C806E6
:102BC000892B9091C90691118D7F8093BE0686E076
:102BD000EAECF6E0A0ECB6E001900D928A95E1F700
:102BE0008EEB96E0089548E050E060E08EEB96E0D2
:102BF0000E94A703F5CF8091ED05882329F08091ED
:102C0000870690918806089590E080E0089580916D
:102C1000ED05882359F080918506909186060097EE
:102C200039F01092860610928506089590E080E0B3
:102C30000895CF93DF93C82FD62F8091ED05882379
:102C400009F452C08C2F0E94120FDC01DD2309F41D
:102C500046C0892B79F530E020E09FE0929FF0019B
:102C6000939FF00D1124DF01A151BA4F8C912F5F7A
:102C70003F4F80FD24C0DF01A151BA4FE251FA4F0E
:102C8000C2831382158214828FEF86831086178287
:102C900012861186818180788160818313861486F3
:102CA00015861686929FF001939FF00D1124E25134
:102CB000FA4F1082C093EE058C91846014C02A30C4
:102CC000310561F61F92CF938BE894E09F938F9329
:102CD0000E94A01B0F900F900F900F9005C0892BA2
:102CE00019F08C918B7F8C93DF91CF910895CF92C7
:102CF000DF92EF92FF920F931F93CF93DF93182FE2
:102D00008091ED05882309F49CC0CFEED5E06E01DB
:102D1000F12CE12C0FE00E9DF0010F9DF00D112420
:102D2000E151FA4F808180FF0AC0F60191818091C4
:102D3000EE05981721F0612FC6010E94DE12FFEF09
:102D4000EF1AFF0A8FE0C80ED11CEAE0EE16F1047C
:102D500011F79FEEC92E95E0D92EF12CE12C0FE052
:102D60000E9DF0010F9DF00D1124E151FA4F80816D
:102D700080FF0AC0F60191818091EE05981304C08E
:102D8000612FC6010E94DE12FFEFEF1AFF0A8FE0EB
:102D9000C80ED11CEAE0EE16F10411F78FEF809314
:102DA000EE05EEEEF5E030E020E09FE0929FD001EE
:102DB000939FB00D1124A151BA4F8C9180FF0BC08D
:102DC00081FD09C041855285452B29F44785411174
:102DD00002C08E7F8C932F5F3F4F3F962A30310584
:102DE00029F785E8E82E86E0F82E888180FF0BC061
:102DF0008E85882341F0810F8E87833320F0CE01AA
:102E00000E9432101E862F96EC16FD0671F78091F7
:102E100089068F3FB1F080918A0687FD12C0810F2D
:102E200080938A0683336CF089EA94E00E94BB1B8E
:102E3000809189060E947F0F8FEF8093890680938F
:102E40008A06DF91CF911F910F91FF90EF90DF9055
:102E5000CF9008951092ED0508950E94F40B811112
:102E60000C94F2140C942A17CF93DF93D82FC62F0B
:102E7000E091E106F091E206309751F00190F08187
:102E8000E02D309729F06C2F8D2FDF91CF91099491
:102E9000D73060F4ED2FF0E0EE52F14E0C947F1B32
:102EA00081E0C11101C080E080932901E091E10639
:102EB000F091E206309729F00280F381E02D3097FF
:102EC00011F7DF91CF91089581E0C11101C080E039
:102ED00080932801EBCF81E0C11101C080E0809395
:102EE0002701E4CF81E0C11101C080E08093260179
:102EF000DDCF81E0C13009F080E080932501D6CF9D
:102F00008C2F0E94CF158CEB94E0C23011F488EB2B
:102F100094E09F938F938AEC94E09F938F930E9409
:102F2000A01B0F900F900F900F90C0CF8C2F0E947E
:102F3000D21585EC94E0C13011F48FEB94E09F93AF
:102F40008F938DED94E0E9CF813011F40C942A1722
:102F5000823049F08A3049F481E08093E30682EFC1
:102F600094E00C94BB1B0C942D178B3009F0089542
:102F70001092E3068BE095E0F4CFCF93DF93C82F58
:102F8000D62FE091D106F091D206309709F009953D
:102F90008091F0069091F106009739F08C0F911D09
:102FA000FC01C081CF3F09F43FC0DD2379F11F92BE
:102FB000CF9385E295E09F938F930E94A01B0F9083
:102FC0000F900F900F908C2F8093230180912801F8
:102FD000882321F06D2F8C2F0E94080EE091E106CE
:102FE000F091E206309741F00680F781E02D3097AE
:102FF00019F06D2F8C2F09958091E306811114C073
:103000006D2F8C2FDF91CF910C9419161F92CF93B7
:1030100081E395E09F938F930E94A01B0F900F90E8
:103020000F900F908FEFD0CFDF91CF910895CF9376
:10303000DF93D82FC92F6091D80670E0482F592F01
:1030400089ED96E00E94DA0381110DC0E091D80667
:1030500081E08E0F8093D806F0E0EE0FFF1FE7525D
:10306000F94FD083C183DF91CF910895CF93DF9340
:10307000D82FC92F6091D50670E0482F592F86EDC3
:1030800096E00E94DA0381110DC0E091D50681E03F
:103090008E0F8093D506F0E0EE0FFF1FEA52F94F36
:1030A000D083C183DF91CF9108959093D40680930C
:1030B000D30608959093F1068093F00608959093B7
:1030C000E2068093E106089581E08093240108954B
:1030D0008FEE96E008958EEE96E00895CF93DF93FD
:1030E0000E940A070E94650884E397E10E94440A4F
:1030F0000E94110B0E94CE06EC0148E050E068E10E
:1031000073E00E94310348E050E069EC71E0CE01C9
:1031100008960E943103CE0140960E942C0E0E9418
:103120002D1784EA97E1DF91CF910C94570CCF9340
:10313000C0E08091D806C81710F0CF910895EC2F09
:10314000F0E0EE0FFF1FE752F94F0190F081E02D04
:10315000309719F08EEE96E00995CF5FEACF0F9386
:103160001F93CF93DF93182FC0E06C2F8FEE96E064
:103170000E94C103082F6C2F8EEE96E00E94C103BF
:10318000D82F011197C061E0811197C04D2F6C2F8E
:103190008FEE96E00E94AA03CF5FC83031F7812FEF
:1031A0000E9477160E94FB15EC010E94D5158C0138
:1031B0008091EC069091ED06C817D90709F468C014
:1031C00080912801882319F0CE010E94120EE0910F
:1031D000E106F091E206309739F00480F581E02DA8
:1031E000309711F0CE010995D093ED06C093EC060F
:1031F000D0932001C0931F01C1E048E050E064EE8D
:1032000076E0C8010E948B03811144C0809129019E
:10321000882319F0C8010E94710648E050E0B80107
:1032200084EE96E00E9431038BE395E09F938F93A9
:103230000E94A01BC4EED6E00F900F9003E511E0B2
:1032400089911F928F931F930F930E94A01B0F9041
:103250000F900F900F9086E0CC3ED80789F788E456
:1032600095E09F938F930E94A01B8091ED068F9312
:103270008091EC068F938CE495E09F938F930E944E
:10328000A01B0F900F900F900F900F900F9004C005
:10329000C0E0B3CFC111C8CF0E940716009789F0D4
:1032A00020912801222369F0DF91CF911F910F9186
:1032B0000C941F0E81116ACF60E08C2F0E94BD1705
:1032C00065CFDF91CF911F910F91089580912701D4
:1032D000882341F081E09091EF06911101C080E0D8
:1032E0000C949807089580912701882341F081E08C
:1032F0009091EE06911101C080E00C94980708951A
:1033000080912601882351F081E00E948A0782E0A3
:1033100090E00E94ED0380E00C948A070895CF931B
:10332000C0E08091D506C81710F0CF910895EC2F1A
:10333000F0E0EE0FFF1FEA52F94F0190F081E02D0F
:103340000995CF5FEECFE091D306F091D406309788
:1033500009F0099408950E94D1060E94720C0E94FF
:10336000CF0B0C940B079093D2068093D10608954F
:10337000CF938093F5067093F4066093F306409321
:10338000F206C0E08091F506C81710F0CF910895BD
:10339000E091F306F091F406EC0FF11D80810E949C
:1033A0005604CF5FEFCF0F931F93CF93DF93D82FA8
:1033B000192FC0E001E08091F506C81728F0DF91D1
:1033C000CF911F910F910895E091F306F091F406CB
:1033D000EC0FF11D80810E948804482F40276091E6
:1033E000F2066C0F8D2F912F0E94AA03CF5FE3CFBF
:1033F000EF92FF920F931F93CF93DF9390E0909300
:10340000FD068093FC067093FB066093FA06F12C90
:10341000E12C10E000E08091FC069091FD06081779
:1034200019073CF0DF91CF911F910F91FF90EF9022
:103430000895C091FA06D091FB06CE0DDF1D88815C
:103440000E94560489810E9456040F5F1F4F83E03B
:10345000E80EF11CE0CF8F929F92AF92BF92CF9275
:10346000DF92EF92FF920F931F93CF93DF93B82ECB
:10347000A92EF12CE12C10E000E099249394809186
:10348000FC069091FD06081719076CF0DF91CF91AB
:103490001F910F91FF90EF90DF90CF90BF90AF9072
:1034A0009F908F900895C091FA06D091FB06CE0DA3
:1034B000DF1D88810E948804882E892489810E94CA
:1034C00088048925682F70E0660F771F68299801A6
:1034D0002A50394F6901F901908190FD35C088204B
:1034E00099F1811133C081E090E041E08F3F98076E
:1034F00009F040E0440F440F462B21E0019709F00A
:1035000020E0220F220F220F422B4F70F601808104
:10351000807F482B408342FB442740F96A818B2DF2
:103520009A2D0E94AA03F601408143FB442740F9EB
:103530006A816F5F8B2D9A2D0E94AA030F5F1F4F28
:10354000F3E0EF0EF11C9BCF80E0CECF8FEF9FEF2B
:10355000CCCFCF93DF93CDB7DEB728970FB6F894D3
:10356000DEBF0FBECDBF0E940D040E946E180E94E8
:1035700035060E94090419821A821B821C8288E285
:10358000C82ED12CE12CF12C90E3892E912CA12C6A
:10359000B12C20EA422E2FE0522E612C712C898111
:1035A0009A81AB81BC8183709927AA27BB27892B7D
:1035B0008A2B8B2B39F40E94971884E00E94AF1855
:1035C0000E94661969817A818B819C81A70196018D
:1035D0000E945D1B613071058105910531F469819F
:1035E0007A818B819C810E948F1969817A818B817C
:1035F0009C81A50194010E945D1B623071058105CB
:10360000910531F469817A818B819C810E94A31993
:1036100069817A818B819C81A30192010E945D1B4B
:10362000633071058105910511F40E9480190E9493
:10363000AB1981E090E00E94ED0389819A81AB8112
:10364000BC810196A11DB11D89839A83AB83BC8384
:10365000A6CF0E94B40760E076E980E090E00E9487
:103660001F0740E06FE471E084E00E94B8196AE24D
:1036700071E082E00E94F81983ED99E10E94171829
:103680008BE29AE10E9417180E94A91A90E080E04C
:10369000089597FB072E16F4009407D077FD09D004
:1036A0000E94851B07FC05D03EF4909581959F4FA5
:1036B0000895709561957F4F0895A1E21A2EAA1B77
:1036C000BB1BFD010DC0AA1FBB1FEE1FFF1FA217D2
:1036D000B307E407F50720F0A21BB30BE40BF50BCF
:1036E000661F771F881F991F1A9469F76095709558
:1036F000809590959B01AC01BD01CF010895EE0F1F
:10370000FF1F0590F491E02D0994AA1BBB1B51E10A
:1037100007C0AA1FBB1FA617B70710F0A61BB70B41
:10372000881F991F5A95A9F780959095BC01CD01E6
:103730000895DC0101C06D9341505040E0F70895B9
:10374000B0E0A0E0E6EAFBE10C94A91EFE0135968C
:1037500061917191AF0180910007909101070E94E2
:10376000E71BE2E00C94C51E609100077091010711
:103770000E94D01D08950F931F93CF93DF93E09184
:103780000007F0910107238100E010E021FD0EC049
:103790000FEF1FEFC801DF91CF911F910F91089597
:1037A0000995892B11F00FEF1FEFCE01EC018991E4
:1037B0006091000770910107DB011896ED91FC9173
:1037C0008111EECF8AE00995892B21F3E1CFAFE09B
:1037D000B0E0EDEEFBE10C94991E7C013B018A0107
:1037E000DC0117961C921E92169713968C9181FFFE
:1037F000BEC19AE0292EFE0131964F01D7011396E2
:103800009C91F30193FD859193FF81913F01882362
:1038100009F444C1853239F493FD859193FF819178
:103820003F01853229F4B70190E00E94D01DE6CF18
:10383000B12C412C512CBFE1B51538F08B3209F178
:1038400088F4803201F1833221F157FC3AC020ED37
:10385000280F2A3040F556FE1FC0B29C200D1124BF
:10386000B22E06C08D3291F0803379F7689450F80B
:10387000F30193FD859193FF81913F018111DBCF8E
:1038800020C0689451F8689452F8F2CF689453F8C5
:10389000EFCF689454F8ECCF429C200D1124422EB7
:1038A000689455F8E5CF8E3229F456FCF7C0689439
:1038B00056F8DECF8C3619F4689457F8D9CF88368D
:1038C000B9F2982F9F7D95549330C0F0833681F1E3
:1038D0008337A1F1833509F05BC0D801CD90DD902D
:1038E0008D016B2D70E056FC02C06FEF7FEFC601BB
:1038F0000E94BA1D5C01689457F80AC00C5F1F4F04
:10390000EFE3E983AA24A394B12C6401E89457F867
:1039100053FE29C0342CA114B10451F5332009F40D
:103920006DCFB70180E290E00E94D01D3A94F6CFAF
:10393000D8018C9189830E5F1F4FE4CFF801C190AD
:10394000D1908F016B2D70E056FC02C06FEF7FEFBE
:10395000C6010E94C51D5C01D9CFB70180E290E08D
:103960000E94D01D4A944A141B0409F0B0F7D2CF2C
:10397000F60157FC859157FE81916F01B70190E0E8
:103980000E94D01D31103A94B1E0AB1AB108C3CFF8
:10399000843619F0893609F071C0F80157FE67C006
:1039A00061917191819191918F01E52DEF76DE2EDC
:1039B00097FF09C090958095709561957F4F8F4FC7
:1039C0009F4F6894D7F82AE030E0A4010E94001EBF
:1039D000C82EC818AC2C5D2CD6FE0CC0E89450F84C
:1039E000CB1440F4D4FE05C0D2FC03C05D2D5E7E36
:1039F000552EAB2C54FE93C0FE01EC0DF11D8081C1
:103A0000803309F085C0652D697E562E752D78703E
:103A1000372E53FC93C050FE8DC0BC2CA41410F460
:103A2000B40CBA1854FE90C0B70180E390E00E9435
:103A3000D01D52FE07C088E751FC88E590E0B70131
:103A40000E94D01DCB1408F48BC0CA94D12C8FEFE8
:103A5000C81AD80AC80CD91CD6018E916D01B701BD
:103A600090E00E94D01D8C149D04B1F757CF619156
:103A70007191072E000C880B990B96CFD52CE894EA
:103A8000D4F82AE0853729F1F52DF97FDF2E80372C
:103A9000A1F058F48835A1F08F36D1F0F701868176
:103AA00097812F96E2E10C94B51E8837B9F7D4FEC2
:103AB00002C06894D2F820E10CC06894D4F8F7CF23
:103AC00054FE03C02F2F2660D22E20E132E002C028
:103AD00028E030E0F801D7FE15C041915191619185
:103AE00071914C875D876E877F878F01A4016C85FC
:103AF0007D858E859F850E94001EC82EC818E8947B
:103B0000D7F868CF81919191AC0170E060E0E9CF86
:103B100052FC02C0A3947ACFA394A39477CF852DAF
:103B2000867809F473CFF6CFB70180E290E00E9467
:103B3000D01DA394A414C0F3312C74CF342C3A18A4
:103B4000A41408F46FCFF8CF852D867809F47ACFC6
:103B50008BE251FE80E257FC8DE2B70190E070CF1E
:103B6000B70180E390E00E94D01DBA946BCF8FEF35
:103B70009FEF97CFFC010590615070400110D8F77E
:103B8000809590958E0F9F1F0895FC0161507040A5
:103B900001900110D8F7809590958E0F9F1F089582
:103BA0000F931F93CF93DF93182F092FEB018B8176
:103BB00081FD09C01FEF0FEF812F902FDF91CF9173
:103BC0001F910F91089582FF14C02E813F818C8137
:103BD0009D81281739073CF4E881F981CF010196CE
:103BE0009983888310838E819F8101969F838E8322
:103BF000E3CFE885F985812F0995892BA1F3DACFE9
:103C0000FA01AA27283051F1203181F1E8946F930D
:103C10006E7F6E5F7F4F8F4F9F4FAF4FB1E03ED0B3
:103C2000B4E03CD0670F781F891F9A1FA11D680F51
:103C3000791F8A1F911DA11D6A0F711D811D911D84
:103C4000A11D20D009F468943F912AE0269F1124F9
:103C50003019305D3193DEF6CF010895462F47705D
:103C6000405D4193B3E00FD0C9F7F6CF462F4F70B8
:103C7000405D4A3318F0495D31FD4052419302D016
:103C8000A9F7EACFB4E0A6959795879577956795BC
:103C9000BA95C9F700976105710508959B01AC01BC
:103CA0000A2E06945795479537952795BA95C9F7E3
:103CB000620F731F841F951FA01D0895DC01CB01A7
:103CC000FC01F999FECF06C0F2BDE1BDF89A31962C
:103CD00000B40D9241505040B8F70895F999FECFC5
:103CE00092BD81BDF89A992780B50895A8E1B0E00A
:103CF00042E050E00C94601EDC01CB0103C02D912A
:103D00000E94871E41505040D0F70895262FF99900
:103D1000FECF1FBA92BD81BD20BD0FB6F894FA9AAE
:103D2000F99A0FBE019608950E94861E272F0C94C3
:103D3000871E2F923F924F925F926F927F928F9247
:103D40009F92AF92BF92CF92DF92EF92FF920F932A
:103D50001F93CF93DF93CDB7DEB7CA1BDB0B0FB634
:103D6000F894DEBF0FBECDBF09942A8839884888F1
:103D70005F846E847D848C849B84AA84B984C88487
:103D8000DF80EE80FD800C811B81AA81B981CE0F7E
:103D9000D11D0FB6F894DEBF0FBECDBFED01089563
:103DA000F894FFCF501764176B17721779178017A5
:023DB000961764
:103DB20000000002000000000C0700000000FFFFEE
:103DC2000101010101020101FFFFFF010AFFFF00E2
:103DD20000E406FF000001010101060204030106DE
:103DE2007EA30D001200000000000101010100018C
:103DF200000000140001040A0FCD146A14BF131747
:103E02001E04052530325820002564200075736297
:103E12002064657669636520636F6E666967757293
:103E22006564002D2D2D2D2D2D2D2D0064617461C5
:103E320073746F7261676520696E697469616C6918
:103E42007A650073746F72616765206461746120C2
:103E520076616C6964007265736574206461746173
:103E62002073746F7261676520666F72206E65776A
:103E72002070726F6A656374005263594565714EB2
:103E8200580073797374656D20706172616D657429
:103E920065722076616C7565206669786564202597
:103EA200642C202564202D2D3E2025640A00737980
:103EB2007374656D20706172616D657465727320D3
:103EC200696E697469616C697A65640070617261B6
:103ED2006D657465727320736176656400696E76D0
:103EE200616C6964206B65792061737369676E73B5
:103EF2002064617461006B65792061737369676E18
:103F0200732073746F7261676520646174612069E4
:103F1200732076616C6964005B7761726E5D206606
:103F220061696C656420746F2077726974652072B0
:103F320061776869642064617461006D656D6F7298
:103F420079207772697465207472616E736163742B
:103F5200696F6E20737461727400256420627974D3
:103F62006573207772697474656E206174202564AC
:103F72000A00636865636B2C2061646472202564A7
:103F82002C206C656E2025640A00636B3A20256440
:103F92000A006D656D6F727920777269746520749D
:103FA20072616E73616374696F6E20646F6E650017
:103FB2006469726563745769726564347769746899
:103FC200456E636F6465720041313532464432306A
:103FD20000410042004300440045004600470048BB
:103FE200004A004B004C004D004E004F0050005163
:103FF200005200540055005600570059005A00451F
:10400200736300537061636500456E74657200549A
:104012006162004253004631004632004633004698
:1040220034004635004636004637004638004639E9
:10403200004631300046313100463132004C53687F
:10404200696674004C4374726C004C416C74004C91
:104052004755490052536869667400524374726C42
:104062000052416C74005247554900486F6D65001B
:10407200456E6400496E736572740044656C6574C4
:1040820065005061676555700050616765446E0058
:104092004C65667400526967687400446F776E00FD
:1040A20048616E2F5A656E004B6174612F486972C8
:1040B200610048656E6B616E004D7568656E002E1D
:1040C200002C0021003F003A003B005F002B002A39
:1040D200002F003D0026007C005E007E0040002391
:1040E200002400C2A50025005C0027002200600019
:1040F200280029007B007D003C003E006C61796550
:1041020072206F66662025640A006C6179657220F0
:104112006F6E2025640A006E756D4C61796572734D
:104122003A2564206B65794D617070696E674461F0
:10413200746153697A653A25640A0063616E6E6F31
:104142007420617474616368206B65792025642032
:10415200746F20736C6F740A0063616E63656C2008
:104162006F6E6573686F74004A495300555300417E
:104172006C746572004D61696E0073797374656D5C
:10418200206C61796F75743A2025730A00726F751D
:1041920074696E67206368616E6E656C3A20257380
:1041A2000A006265686176696F72206D6F64653AB4
:1041B2002053696D756C61746F7200626568617617
:1041C200696F72206D6F64653A205374616E646129
:1041D2006C6F6E65006B6579646F776E2025640A7B
:1041E200006B657975702025640A00484944207285
:1041F20065706F72743A5B005D2C20006C617965AA
:0A42020072733A20253032580A008A
:00000001FF
