:100000000C94BA020C94D7020C94D7020C94D70229
:100010000C94D7020C94D7020C94D7020C94D702FC
:100020000C94D7020C94D7020C9478050C949C0580
:100030000C94D7020C94D7020C94D7020C94D702DC
:100040000C94D7020C94D7020C94D7020C94D702CC
:100050000C94D7020C94D7020C94D7020C94D702BC
:100060000C94D7020C94D7020C94D7020C94D702AC
:100070000C94D7020C94D7020C94D7020C94D7029C
:100080000C9404040C94D7020C94D7020C94D7025D
:100090000C94D7020C94D7020C94D7020C94D7027C
:1000A0000C94D7020C94D7020C94D70200010000E4
:1000B000440212000200005A015B002200002802E4
:1000C0001C002100006C010900220100E801400031
:1000D0002101008C010900220200B5013300210238
:1000E00000A50109000300005601040103090446AC
:1000F000010E020309043401100303090400013254
:10010000320330003000300030003000300030006A
:10011000300030003000300030003000300030005F
:10012000300030003000300030003000300030004F
:1001300030000000100341007300740065006C0083
:100140006900610000000E03790061006800690029
:1001500072006F0000000403090409025B00030140
:1001600000C032090400000203000000092111014F
:100170000001221C0007058103400002070502035D
:1001800040000809040100010301010009211101D7
:100190000001224000070583030800010904020052
:1001A00001030102000921110100012233000705AA
:1001B000840308000105010902A1010509190129AB
:1001C00003150025019503750181029501750581CF
:1001D000030501093009311581257F7508950281D4
:1001E00006093895018106C005010906A1017501BE
:1001F0009508050719E029E71500250181029501F9
:1002000075088103950575010508190129059102F5
:1002100095017503910395067508150026FF0005E5
:1002200007190029FF8100C006ABFF0A0002A101E7
:100230007508150026FF00954009018102954009C7
:10024000029102C0120100020000002055F077A5C3
:1002500000010102030101EA01040000000233036E
:100260000500000003350306000000043703070003
:10027000000005390308000000063B0309000000E8
:10028000073D030A000000083F030B00000009B40B
:10029000030C0000000A41030D0000000B43030E95
:1002A0000000000C45030F0000000D470310000084
:1002B000000E4903110000000F4B03120000001054
:1002C0004D0313000000114F0314000000125103EE
:1002D00015000000137603160000001453031700E6
:1002E0000000155503180000001657031900000000
:1002F0001759031A000000185B031B000000195D6A
:10030000031C0000001A5F031D0000001BF30127FF
:100310000200001C99031E0200001D9D031F020025
:10032000001E7F03200200001F8203210200002024
:1003300085032202000021880323020000228B0390
:1003400024020000238E03250200002491032602CC
:100350000000256103290000002665032C00000031
:10036000276B03280000002871032B00000029756B
:10037000032A0000002A78033A0000002B7B033B8D
:100380000000002C7E033C0000002D81033D000096
:10039000002E84033E0000002F87033F0000003042
:1003A0008A0340000000318D0341000000329003B9
:1003B00042000000339303430000003497034400DD
:1003C0000000359B034500000058A003E100000039
:1003D00057A703E000000059AD03E20000005AB245
:1003E00003E30000009F9F03E10000009EA603E0DE
:1003F000000000A0AC03E2000000A1B103E3000094
:1004000000A3B603E5000000A2BD03E4000000A4C1
:10041000C303E6000000A5C803E70000005BCD03AE
:100420004A0000005CD2034D0000005DD603490085
:1004300000005EDD034C0000005FE4034B000000A1
:1004400060EB034E00000061F2035000000062F711
:10045000034F00000063E8035200000064FD0351F5
:100460000000006A0204350000006B0A04880000E6
:10047000006D14048A0000006C1B048B0000003621
:1004800021043702370237230436023602382504A6
:100490001E011E01392704380138013A29043301AD
:1004A00034023B2B04330233023C2D042D0187011F
:1004B0003D2F042E0133013E76052D022D023F31E2
:1004C0000425013401403304380238024135042E3A
:1004D000022D0142370424012301433904310189EB
:1004E00001443B0423012E02453D0435012E014603
:1004F0003F041F012F02474104200120014843040B
:1005000021012101494504310289024A480422019E
:1005100022014B4A04310287024C4C04340224016C
:100520004D4E0434011F014E500435022F014F522D
:100530000426012501505404270126015156042F99
:10054000023002525804300231025356042F013057
:100550000154580430013101555A04360136015610
:100560005C0437013701B75E0490000000B86304F3
:100570009100000011241FBECFEFDAE0DEBFCDBF37
:1005800015E0A0E0B1E0E8EDF0E402C005900D92C6
:10059000A837B107D9F727E0A8E7B5E001C01D9259
:1005A000AD33B207E1F70E94CF1C0C946A200C9483
:1005B0000000EF92FF920F931F93CF93DF93EC0114
:1005C0008C01060F171F8EE5E82E81E0F82EC0176C
:1005D000D10751F48AE090E0DF91CF911F910F9104
:1005E000FF90EF900C944E1D89911F928F93FF9274
:1005F000EF920E943A1D0F900F900F900F90E7CF4F
:10060000EF92FF920F931F93CF93DF93EC018C0136
:10061000060F171F84E6E82E81E0F82EC017D107D9
:1006200051F48AE090E0DF91CF911F910F91FF90FC
:10063000EF900C944E1D89911F928F93FF92EF9231
:100640000E943A1D0F900F900F900F90E7CFFB0183
:10065000DC01460F571FE417F50709F4089581914F
:100660008D93F9CFAF92BF92CF92DF92EF92FF922C
:100670000F931F93CF93DF93DC01162FEA0190E0D5
:1006800061E070E090130BC0DF91CF911F910F914B
:10069000FF90EF90DF90CF90BF90AF900895892F9B
:1006A000810F382F3695369536957D01E30EF11C76
:1006B000F701308187705B0101C0AA0C8A95EAF7C7
:1006C000892F820F482F4695469546954C0F5D2FF2
:1006D000511DFA01408150E087706B0102C0CC0CC3
:1006E000DD1C8A95E2F74C215D21832F8A29452B59
:1006F00021F4EA2DE0958E2F8323F70180839F5FFD
:10070000C1CFFC01DB01480F591FE417F50711F4B5
:1007100081E0089591918D919817B9F380E0089543
:10072000FB01DC01460F571FE417F50709F4089594
:10073000819190E08D939D93F7CF70E00C94331DE1
:10074000262F269526952695FC01E20FF11D908116
:10075000677021E030E001C0220F6A95EAF7442378
:1007600019F0922B9083089520959223FBCF262F8A
:10077000269526952695820F911DFC01208130E05B
:10078000677081E090E002C0880F991F6A95E2F7D8
:100790002823392381E0121613060CF080E0089517
:1007A0009B01BA01FC0190E080E08217930714F0EE
:1007B00080E00895419151914617570711F0019635
:1007C000F4CF81E0089508959C0190E080E08217C5
:1007D000930709F40895EFE9FFE03197F1F700C0BE
:1007E00000000196F4CF9C0190E080E0821793070F
:1007F00009F4089545E04A95F1F700000196F6CF17
:1008000078940895F89408951F921FB61F921124AA
:100810008F939F93AF93BF938091780590917905C3
:10082000A0917A05B0917B050196A11DB11D809321
:10083000780590937905A0937A05B0937B05BF91D5
:10084000AF919F918F911F901FBE1F901895CF93CE
:10085000DF9300D000D0CDB7DEB7809178059091BE
:100860007905A0917A05B0917B05BC01CD010F906F
:100870000F900F900F90DF91CF910895A89514BE1F
:10088000E0E6F0E0808188618083108280E885BFA7
:1008900085BF1092D8001092900089E0809391005B
:1008A00082E08093710080E89EE3909399008093AA
:1008B00098001092950010929400089588E691E0B7
:1008C0009F938F930E943A1D2FEF81EE94E0215069
:1008D00080409040E1F700C00000F89481E08093F0
:1008E000E00080E28093D8001092C9008FE19EE47E
:1008F0000197F1F700C000001DBA109268001CBCFF
:1009000010BE1FBA10927A0010926E0010926F0003
:1009100010927100109272001092C9001092BC00E7
:1009200014B817B81AB81DB810BA1092BC0015B890
:1009300018B81BB81EB811BA0C9400380F900F905D
:10094000FFCF80E091E090933A07809339070895B4
:10095000E82FE695E695E69593E0E99FF0011124EE
:1009600035A1282F277081E090E001C0880F2A95DB
:10097000EAF78095832385A30895E82FE695E69509
:10098000E69593E0E99FF001112494A1877021E09E
:1009900030E001C0220F8A95EAF7892F822B84A3C9
:1009A0000895E82FE695E695E69593E0E99FF00136
:1009B000112434A1282F277081E090E001C0880F16
:1009C0002A95EAF78095832384A30895E82FE69576
:1009D000E695E69563E0E69FF001112444A1877057
:1009E00021E030E0B90102C0660F771F8A95E2F777
:1009F000CB01962F9095942394A395A1892B85A341
:100A00000895662399F0E82FE695E695E69593E03C
:100A1000E99FF001112495A1877021E030E001C029
:100A2000220F8A95EAF7922B95A308950C94A804B7
:100A3000E82FE695E695E695EF5F93E0E99FF001F4
:100A4000112490A1877021E030E002C0220F331FF3
:100A50008A95E2F7892F90E02823392381E0121646
:100A600013060CF080E00895E82FE695E695E695EC
:100A700093E0E99FF001112495A1877021E030E017
:100A800001C0220F8A95EAF7892F822785A308954E
:100A900086958695869523E0829FC00111248596D0
:100AA00008958695869586958F5F23E0829FC00185
:100AB0001124809608958770089561E00C940105D3
:100AC0000C94A804E82FE695E695E695EF5F93E091
:100AD000E99FF001112490A1877021E030E001C06E
:100AE000220F8A95EAF7892F822B80A30895089513
:100AF0001F921FB61F9211248F939F938091E10044
:100B00001092E10083FF0FC01092E90091E09093F2
:100B1000EB001092EC0092E29093ED0098E090933D
:100B2000F00010927D0582FD80917D059F918F914F
:100B30001F901FBE1F9018951F920F920FB60F9215
:100B40001124EF92FF920F931F932F933F934F9394
:100B50005F936F937F938F939F93AF93BF93CF9345
:100B6000DF93EF93FF931092E9008091E80083FFF9
:100B70005AC09091F1008091F1002091F1003091E4
:100B8000F1004091F1005091F1006091F1007091FD
:100B9000F100E2EFE093E800863009F087C08CEACC
:100BA00090E0A0E0B1E0FC01C591D4912C173D0785
:100BB00009F034C0FC013296C591D4914C175D0701
:100BC00069F5FC013496459154910696FC01849197
:100BD0006F3F710519F010F06FEF70E0F62E861779
:100BE00008F4F82EBA018EEFE82E8091E800982FD5
:100BF0009570D9F382FD2CC08F2DF0E2FF1508F41B
:100C000080E223303207A9F0FB01982F9923A9F045
:100C1000A491A093F10091503196F8CF0796A817B0
:100C2000B90709F0C0CF81E28093EB0011C0F92E23
:100C3000DCCF8B01982F911122C0680F711D9F2D61
:100C4000981BE092E800F812F2CF80E2F81679F3F0
:100C5000FF91EF91DF91CF91BF91AF919F918F91D4
:100C60007F916F915F914F913F912F911F910F91C4
:100C7000FF90EF900F900FBE0F901F901895E80116
:100C8000C41BD50BAC2FF801B491C23048F0A25070
:100C9000B0E0C0FD05C0A695B0E0A258BA4FBC9127
:100CA000B093F10091500F5F1F4FC5CF853059F4BD
:100CB0008EEF8093E8008091E80080FFFCCF2068F1
:100CC0002093E300C5CF8930C9F5911137C0209337
:100CD0007D058EEF8093E80081E08093E9008093AA
:100CE000EB0091EC9093EC0026E32093ED0032E0D2
:100CF0003093E9008093EB0030EC3093EC002093CC
:100D0000ED0023E02093E9008093EB009093EC004A
:100D100026E02093ED0034E03093E9008093EB006F
:100D20009093EC002093ED0080E891E00E94551D27
:100D30008EE18093EA001092EA008ACF41155105B6
:100D400039F4913209F06FCF8A3009F06CCF15C0B9
:100D500041305105B1F4913209F065CF8930A1F7E6
:100D60008091E80082FFFCCF8091F10080937C05A8
:100D700080917C058BEF8093E8008EEF8093E800F4
:100D800067CF42305105E9F24ECF80E88093610091
:100D90001092610081E08093D70080EA8093D800B0
:100DA00082E189BD09B400FEFDCF80E98093D800BF
:100DB0001092E00010927D058CE08093E20008958F
:100DC00090917D05911102C080E0089593E0909389
:100DD000E9009091E80095FFF7CFF8948093F10037
:100DE0001092F100FB01CB01069621912093F100B6
:100DF000E817F907D1F78AE38093E800789481E057
:100E0000089520917D05211102C080E0089523E01E
:100E10002093E9002091E80025FFF7CFF894FC012A
:100E2000089621912093F100E817F907D1F78AE39A
:100E30008093E800789481E0089520917D05211148
:100E400002C080E0089521E02093E9002091E800AD
:100E500025FFF7CFF894FC01805C9F4F21912093F0
:100E6000F100E817F907D1F78AE38093E800789456
:100E700081E0089520917D05211102C080E0089550
:100E800022E02093E9002091E80025FFF7CFF894B5
:100E9000FC01805C9F4F2091F1002193E817F90736
:100EA000D1F78BE68093E800789481E008959091E3
:100EB0007D0581E0911101C080E008958EE795E005
:100EC000089508951092D800089580E094E0089560
:100ED000F999FECF0C940820F999FECF0C942020AC
:100EE000F999FECF0C941020F999FECF0C942E2086
:100EF000382F292FCB01F999FECF632F722F0C9435
:100F0000F81F382F292FCB01F999FECF632F722FAD
:100F10000C941620CF93DF93D0E0C0E060E0CE01C8
:100F20000E946C072196C11584E0D807B9F7DF91BC
:100F3000CF910895089508955198599A5098589AC4
:100F40001092B9008CE08093B80008959A0194EA59
:100F50009093BC009091BC0097FFFCCF880F8093CA
:100F6000BB0084E88093BC008091BC0087FFFCCF6D
:100F7000FB0190E080E044E88217930724F084E9C5
:100F80008093BC00089551915093BB004093BC00E6
:100F90005091BC0057FFFCCF0196EECF9A0194EA26
:100FA0009093BC009091BC0097FFFCCF880F8160AC
:100FB0008093BB0084E88093BC008091BC0087FFD5
:100FC000FCCFFB0190E080E0A9014150510964E8A9
:100FD00074EC8217930724F084E98093BC00089591
:100FE000841795075CF47093BC00A091BC00A7FF28
:100FF000FCCFA091BB00A1930196EBCF6093BC0006
:10100000F4CF94EA9093BC009091BC0097FFFCCF82
:10101000880F8093BB0084E88093BC008091BC0063
:1010200087FFFCCF08958093BB0084E88093BC00C9
:101030008091BC0087FFFCCF089584E98093BC00B9
:1010400008958F929F92AF92BF92CF92DF92EF92CC
:10105000FF920F931F93CF93DF935C01EB016A0123
:1010600079014801CC15DD0510F5CE010E9470070D
:101070008C01CE0102960E9470079C010A151B0587
:10108000A1F42496F701D183C083F4013183208336
:10109000DF91CF911F910F91FF90EF90DF90CF9054
:1010A000BF90AF909F908F900895892B29F4D0E046
:1010B000C0E030E020E0E6CF2C5F3F4FC20FD31FEF
:1010C000D1CFEF92FF920F931F93CF93DF93D82F3F
:1010D000C92F7B018A010E946507AC01970162E07C
:1010E00070E08D2F9C2F0E942108DF91CF911F91DE
:1010F0000F91FF90EF900895CF93DF9300D000D031
:10110000CDB7DEB7AE014F5F5F4FBE016D5F7F4F62
:101110000E9461088B819C810F900F900F900F901F
:10112000DF91CF910895CF92DF92EF92FF920F93CC
:101130001F93CF93DF9300D000D0CDB7DEB76C0103
:101140007B018A01AE014F5F5F4FBE016D5F7F4F34
:1011500080E79AEA0E9461086B817C8161157105C4
:10116000A9F049815A81460F571F9701C6010E9475
:1011700021080F900F900F900F90DF91CF911F914A
:101180000F91FF90EF90DF90CF900895F7011182BB
:101190001082F80111821082ECCFAF92BF92CF92F1
:1011A000DF92EF92FF920F931F93CF93DF9300D0C4
:1011B00000D0CDB7DEB786E991E00E94551D90E0E2
:1011C00080E00E9470078E37934A09F044C0AE0158
:1011D0004F5F5F4FBE016D5F7F4F80E19AEA0E94D3
:1011E0006108E980FA80AE014F5F5F4FBE016D5F1D
:1011F0007F4F80E29AEA0E946108A980BA80AE011E
:101200004F5F5F4FBE016D5F7F4F80E39AEA0E94A0
:101210006108C980DA80AE014F5F5F4FBE016D5F2C
:101220007F4F80E49AEA0E94610809811A8180E771
:101230009AEA0E947C089C0182E1A816B10459F444
:101240008AE0C816D10439F40E291F29012B19F49C
:10125000232B09F054C080EC91E00E94551D0E94A0
:101260008A076EE773EA90E080E00E94740760E20C
:101270007AEA82E090E00E94740762E170E084E024
:1012800090E00E94740760E37AEA88E190E00E94AF
:1012900074076AE070E08AE190E00E94740760E7FA
:1012A0007AEA86E290E00E94740770E060E088E2EB
:1012B00090E00E94740780E29AEA0E947C088C0108
:1012C000009709F443C048E050E063EE71E00E94EB
:1012D000810748E050E06CEE71E0C80108960F907D
:1012E0000F900F900F90DF91CF911F910F91FF9072
:1012F000EF90DF90CF90BF90AF900C94810780E289
:101300009AEA0E947C0848E050E066E975E00E9495
:10131000780748E050E063EE71E086E995E00E94CE
:101320008103882309F497CF8DEA91E00F900F9005
:101330000F900F90DF91CF911F910F91FF90EF9041
:10134000DF90CF90BF90AF900C94551D0F900F90F1
:101350000F900F90DF91CF911F910F91FF90EF9021
:10136000DF90CF90BF90AF900895CF93DF9380E749
:101370009AEA0E947C08EC01892B31F00E946507F3
:101380009C012C1B3D0BE901CE01DF91CF9108950B
:1013900080E29AEA0E947C080896089580E29AEA20
:1013A0000E947C084096089580E39AEA0C947C0899
:1013B0008AE090E0089580E79AEA0C947C08CF9345
:1013C000DF9300D000D0CDB7DEB7AE014F5F5F4FE7
:1013D000BE016D5F7F4F81E79BEB0E9493088B817D
:1013E0009C810F900F900F900F90DF91CF910895F7
:1013F000CF93DF9300D000D0CDB7DEB7AE014F5F03
:101400005F4FBE016D5F7F4F84E79BEB0E949308A7
:101410008B819C810F900F900F900F90DF91CF9157
:101420000895CF93DF9300D000D0CDB7DEB7AE01E3
:101430004F5F5F4FBE016D5F7F4F88E79BEB0E9460
:1014400093088B819C810F900F900F900F90DF91EC
:10145000CF910895CF93DF9300D000D0CDB7DEB702
:10146000AE014F5F5F4FBE016D5F7F4F88E79BEB23
:101470000E94930889819A810F900F900F900F908E
:10148000DF91CF910895CF93DF9300D000D0CDB7F7
:10149000DEB7AE014F5F5F4FBE016D5F7F4F86E7E6
:1014A0009BEB0E9493088B819C810F900F900F9073
:1014B0000F90DF91CF910895CF92DF92FF920F931B
:1014C0001F93CF93DF93182F062FF42E84EAC82E94
:1014D00085E0D82ED0E0C0E08091A2059091A305D0
:1014E000C817D90744F0DF91CF911F910F91FF905A
:1014F000DF90CF900895D601ED91FD916D014F2DB4
:10150000602F812F09952196E7CFEF92FF920F93DD
:101510001F93CF93DF93D0E0C0E0EE24E394F12C4F
:1015200087010C2E02C0000F111F0A94E2F7809170
:10153000A0059091A10580239123892BA1F0FE01A4
:10154000E255FA4F40816C2F82E00E945C0A0095C0
:1015500010958091A0059091A105802391239093EF
:10156000A1058093A0052196CA30D105C9F68091C6
:101570009F05882339F040E060E081E00E945C0A2A
:1015800010929F05DF91CF911F910F91FF90EF90E7
:101590000895CF93DF93D82FC92F6091A205709142
:1015A000A305482F592F84EA95E00E94D0038111AA
:1015B00010C0E091A205F091A305CF010196909390
:1015C000A3058093A205EE0FFF1FEC55FA4FD083C1
:1015D000C183DF91CF910895E82FF0E0E25FFE4FE5
:1015E00060830895E82FF0E0E25FFE4F81E0908194
:1015F000961708F480E00895CF92DF92EF92FF9261
:101600000F931F93CF93DF930EEA15E08EE0C82E61
:1016100081E0D82ED0E0C0E095EFE92E91E0F92EE0
:10162000F80181918F01F60191916F01981768F08F
:101630002196CA30D105A1F7DF91CF911F910F916B
:10164000FF90EF90DF90CF900895FE01E25CFE4F97
:101650009081F801319790831F929F931F928F93EF
:10166000DF93CF93FF92EF920E943A1DEDB7FEB742
:1016700038960FB6F894FEBF0FBEEDBFD9CF282F16
:1016800030E0F901E25FFE4F90819617D8F02255C5
:101690003A4FF901608321E030E002C0220F331F8E
:1016A0008A95E2F78091A0059091A105822B932B5A
:1016B0009093A1058093A00588EE93E09093190183
:1016C000809318010895CF93C82F282F30E0F90197
:1016D000E25FFE4F908122553A4FD901EC91F0E044
:1016E0009F01260F371F442389F0692F70E06F5F39
:1016F0007F4FCB01820F931F0E94E91C8E179F071B
:1017000089F0682F8C2FCF910C943F0B37FD07C0C9
:10171000892F90E0281739078CF7C901EFCF90E0A7
:1017200080E0ECCFCF91089590E0FC01E25FFE4FA6
:101730002081261750F082559A4FFC01608388EE75
:1017400093E090931901809318010895CF93DF934C
:101750000E94D4099093AD058093AC05892B51F17B
:101760000E94CE09EC010097B1F00E946807853015
:1017700091F04AE050E06EE371E08091AC05909109
:10178000AD050E94810765E0CE010E946C0781E2F1
:1017900092E00E94551D4AE050E06EEA75E08091AB
:1017A000AC059091AD050E9478070E94FC0A81E08B
:1017B00080939F05DF91CF910895462F50E06EEA08
:1017C00075E00C942703462F50E06EE071E00C9416
:1017D0002703E82FF0E0E255FA4F808108950C943A
:1017E0003F0BEF92FF920F931F93CF93DF938C01E8
:1017F000D0E0C0E0E62EF12CCE15DF0554F081E0FC
:1018000080939F05DF91CF911F910F91FF90EF90F3
:101810000895F80161918F018C2F0E94940B2196FD
:10182000EBCF0F931F93CF930EE311E0C0E0F801CD
:1018300061918F018C2F0E94940BCF5FCA30B9F752
:1018400081E080939F05CF911F910F910895813082
:1018500039F46091B405682786E00E943F0B089533
:10186000823039F0833061F441E06FEF7FEF87E041
:1018700004C041E061E070E089E00E94630B0895DC
:1018800041E061E070E0843091F340E060EF7FEF91
:101890008530B1F040E060E170E0863089F08E374D
:1018A00089F0873099F08830A1F08930B1F060E09C
:1018B0008A30C9F061E08B30B1F08C30B1F008951E
:1018C00088E0DBCF81E080939E05089560E084E0AE
:1018D000C4CF61E084E00C943F0B41E061E070E034
:1018E00084E00C94630B85E0F6CF41E061E070E0AA
:1018F00085E0F7CF8091180190911901181619060B
:10190000BCF401979093190180931801892B81F4FD
:101910008091AC059091AD05009751F04AE050E000
:101920006EEA75E00E9481078FE392E00E94551DE8
:101930000E94850A80919E05882321F010929E05C1
:101940000C945E0408950C94850A8EEA95E008953F
:10195000EF92FF920F931F93CF938C018EEAE82EA4
:1019600085E0F82EC0E0F70141917F016C2F82E005
:10197000F8010995CF5FCA30B1F7CF911F910F9150
:10198000FF90EF900895CF93DF930E94DF09EC0161
:101990000E94B509209741F480E592E00E94551D10
:1019A00080E0DF91CF910895892BB1F345E050E0BD
:1019B00068EB75E0CE010E9478073091B90520915F
:1019C000BA059091BB058091BC054091B8054130A6
:1019D00019F7363009F72430F9F69F3FE9F28131E3
:1019E000D8F689E692E00E94551D81E0DACFE091B9
:1019F0000406F0910506309709F0099408950E94B5
:101A00005707882351F08EEB95E00E941D07811146
:101A100004C08BE892E00C94551D08959091BD058B
:101A2000992359F0823049F485EC8093BE05609388
:101A3000BF054093C0050C94FF0C089590930506D4
:101A4000809304068EE09DE00E94C90A0E94C809A6
:101A500090930306809302060E94DB09909301068F
:101A6000809300060E94B5099093FF058093FE05C0
:101A70000895DF92EF92FF920F931F93CF93DF931E
:101A80008EEB95E00E943A07882309F45FC08091AD
:101A9000BE05803F21F481E00E94F70C57C0813FD2
:101AA00009F45CC0823F09F05BC083EF8093BE0500
:101AB0001092BF0582E18093C00586E08093C10546
:101AC00082E08093C20548E050E063EE71E083EC71
:101AD00095E00E942703C1E0C093CB051092CC058E
:101AE00048E050E06DEC75E08091020690910306AD
:101AF0000E9478078091FE059091FF05982789271D
:101B000098279093D6058093D50540E150E060E09A
:101B100087ED95E00E949D0346E050E06EEA72E09A
:101B200087ED95E00E94270348E050E065EB72E006
:101B300087EE95E00E94270384E08093EF0585E01F
:101B40008093F0050E94FF0CC093BD05DF91CF91FB
:101B50001F910F91FF90EF90DF90089582E09CCF4E
:101B6000843F29F1803B71F1823B91F1833B09F481
:101B700056C0813B09F4A2C0803C09F4A5C0823C58
:101B800009F4B5C0833C09F4BBC0843C09F4C5C06A
:101B9000813D09F4CBC0823D09F4D8C0803DB1F647
:101BA0008091BF05813009F4DCC083E2C4C048E005
:101BB00050E06FEB75E080910206909103060E9461
:101BC0008107C4CF8EEB92E00E94551D80E164CF67
:101BD000C091BF05D091C005DC27CD27DC278091BF
:101BE000000690910106C80FD91F1091C105412F21
:101BF00050E062EC75E0CE010E948107DF93CF9345
:101C00001F921F938DED92E09F938F930E943A1D38
:101C10000F900F900F900F900F900F9097CFC09153
:101C2000BF05D091C005DC27CD27DC2780910006B9
:101C300090910106C80FD91FE090C105F090C20530
:101C4000FE24EF24FE24FF92EF92DF93CF9385EFE3
:101C500092E09F938F930E943A1D0F900F900F90E8
:101C60000F900F900F9010E000E0D12C0E151F0583
:101C7000E1F41F92DF928DE093E09F938F930E9497
:101C80003A1D84EB8093BE05D092BF050E94FF0CE5
:101C90008091000690910106B80102970E94740796
:101CA0000F900F900F900F9051CFCE01800F911F8A
:101CB0000E946807D8260F5F1F4FD8CF85E193E0B9
:101CC0000E94551D81E1E8CE81EC8093BE058AE03B
:101CD0008093BF056AE080EC95E00E94DD0B6AE02E
:101CE0008AEC95E00E94E30B0E94FF0C2FCF4091FD
:101CF000BF056091C00581EC95E00E94F10B26CFF5
:101D00006091C0058091BF05DF91CF911F910F9128
:101D1000FF90EF90DF900C94EF0BDF91CF911F912C
:101D20000F91FF90EF90DF900C94110C8091BF0504
:101D3000813051F081E2DF91CF911F910F91FF909F
:101D4000EF90DF900C94F70C80E2F5CF8FEB95E0ED
:101D5000DF91CF911F910F91FF90EF90DF900C9446
:101D6000010782E2E8CFEEEBF5E090EA9083818311
:101D700062830C94FF0CEEEBF5E021EA20839827B8
:101D800089279827928381830C94FF0CBC0148E03B
:101D900050E080910206909103060C947807E6E5E6
:101DA000F2E030E020E0949189130DC0611114C07D
:101DB00087E0829FF001839FF00D1124E75AFD4FC9
:101DC0008591959115C02F5F3F4F3796223731058A
:101DD00051F790E080E0089587E0829FF001839FB3
:101DE000F00D1124E55AFD4F85919591009701F36F
:101DF0000895E6E5F2E030E020E0949189130BC00D
:101E000087E0829FF001839FF00D1124E95AFD4F76
:101E10008591959108952F5F3F4F37962237310571
:101E200061F790E080E00895CF93DF930E94430A2A
:101E3000EC01009749F00E946807809308062196FC
:101E4000D0930706C0930606DF91CF910895AF9215
:101E5000BF92CF92DF92EF92FF920F931F93CF9397
:101E6000DF939C01B62E8C010027107F832F8F708B
:101E7000D82ED22FC12C85E0A82E80910806C81636
:101E8000D8F5E0900606F0900706CA9CE00CF11C1D
:101E90001124C7010E9468078B1511F08F30A9F437
:101EA000C70101960E946807C82FC70102960E94C9
:101EB0006807CC2311F0C53B51F49FEF980F9E3F6C
:101EC00020F4DC1739F1C53B29F1C394D6CFDC13DC
:101ED000FCCFD81611F08F3FC1F7C70103960E94BF
:101EE0006807C82FC70104960E946807C63B09F01F
:101EF000DC2F8E3F09F0D82EC8018D2B9D29DF9154
:101F0000CF911F910F91FF90EF90DF90CF90BF90F6
:101F1000AF900895D812D9CFE0CFFC019081907690
:101F200081E0903409F080E00895482FECE0F6E07D
:101F300030E020E05EE0529FC001539F900D1124DD
:101F4000DC01A35FB94F6C9160FF03C0628164172D
:101F500049F02F5F3F4F3E962A30310561F790E000
:101F600080E00895835F994F08958F929F92AF927A
:101F7000BF92EF92FF920F931F93CF93DF939C0139
:101F8000C62FD0E08E01080F191F60E070E0CB0172
:101F90002017310799F440E024E030E02C1B3D0B82
:101FA00042171306E4F0DF91CF911F910F91FF903C
:101FB000EF90BF90AF909F908F9008958824962EB9
:101FC000A72EB82E79014FEFE41AF40AC9010E9436
:101FD00068079401282BC501B9019701D9CF982F23
:101FE000872F762F66274F5FDBCFCF92DF92EF925E
:101FF000FF920F931F93CF93DF9300D000D0CDB704
:10200000DEB769837A838B839C83042F60910A06F1
:102010008B819C810E94270F9C018827907F9A8347
:102020008983832F8F70922F49EA420F443050F4F6
:102030002755330B41E050E001C0440F2A95EAF7E1
:10204000842B90E029813A81292B382B3A832983EC
:102050009981A90170E060E0C52ED62EE72EFF24FD
:10206000152F1F7020E09923C9F061E080910906C7
:10207000813009F060E089810E94CF0EBC01898126
:102080009A8171FB222720F994FF20E0217070FFD4
:1020900004C06894C1F81C2D1F70962F822F880FE2
:1020A000802B1295107F812B837F0F900F900F90C4
:1020B0000F90DF91CF911F910F91FF90EF90DF90E4
:1020C000CF900895382F3170827F79F0832B209143
:1020D000E006E22FF0E0EE0FFF1FE053F94F8083A0
:1020E00011822F5F27702093E006992371F0809171
:1020F000E006E82FF0E0EE0FFF1FE053F94F3083CA
:1021000091838F5F87708093E0060895CF93DF936C
:102110004091990650919A06C82FD0E09A01082E56
:1021200002C0369527950A94E2F720FF2BC021E0E4
:1021300030E0082E02C0220F331F0A94E2F72095E8
:1021400030952423352330939A06209399061F92C5
:102150008F9388E694E09F938F930E943A1DCC0F53
:10216000DD1FC055D94F8981982F9F700F900F9018
:102170000F900F9039F08295807F90E0DF91CF91A2
:102180000C946210DF91CF910895CF92DF92EF927D
:10219000FF920F931F93CF93DF93F82EE090AB063F
:1021A0000BEA16E0D0E0C0E0C62E660FDD08CE15C3
:1021B00048F0DF91CF911F910F91FF90EF90DF904A
:1021C000CF900895CC16DD0641F0F8018581877027
:1021D000F81203C08C2F0E94861021960E5F1F4FAD
:1021E000E6CF0F931F93CF93C82F082F10E0809155
:1021F000990690919A060C2E02C0969587950A949E
:10220000E2F780FD39C0000F111FF801E555F94FC5
:102210008581877019F06C2F0E94C51021E030E095
:102220000C2E02C0220F331F0A94E2F78091990608
:1022300090919A06822B932B90939A0680939906FD
:102240001F92CF9386E794E09F938F930E943A1D4D
:10225000F801E055F94F8181982F9F700F900F90F2
:102260000F900F9049F08295807F816090E0CF9130
:102270001F910F910C946210CF911F910F910895AF
:102280000F931F93CF93DF93EC016A857B858C8539
:102290009D856115710581059105E9F08B019C0112
:1022A0004EE136952795179507954A95D1F7013058
:1022B000B9F440E00E94F50F0E94621080919906E7
:1022C00090919A06892B19F480E00E94F1101A86E9
:1022D0001B861C861D86DF91CF911F910F9108955B
:1022E000033061F7292F2770213041F78B019C01C2
:1022F00094E136952795179507959A95D1F70F7024
:102300000130E1F68F700E948610D8CF0F931F9393
:102310008B019C01DC01CB014EE1B695A795979509
:1023200087954A95D1F7813089F441E0C9010E942F
:10233000F50F0E94621080919B068F3FF9F080910B
:102340009C068F3FD9F410929C0618C0833099F7F1
:10235000832F8770813009F042C0D901CB0134E16D
:10236000B695A795979587953A95D1F78F70122FC7
:102370001F70813071F4812F0E94F11080919906B5
:1023800090919A06892BF1F580E01F910F910C94A2
:10239000F110823081F3833021F4812F0E94861066
:1023A000EDCF843069F48091990690919A06012EC0
:1023B00002C0969587950A94E2F780FDEECFDBCFB9
:1023C0008530E1F6812F0E94F11010939B068FEF6C
:1023D00080939C068CEC94E00E94551DCFCF8230F8
:1023E00031F46FEF822F87700E94C510A4CF833025
:1023F00009F0A1CF9927832F722F612F822F0E947E
:10240000270C99CF1F910F9108952F923F924F92D1
:102410005F926F927F928F929F92AF92BF92CF9274
:10242000DF92EF92FF920F931F93CF93DF9300D031
:1024300000D000D00F92CDB7DEB7382E4B019BEA0B
:10244000A92E96E0B92E2FE0C22ED12CFC2CCA82E8
:10245000C4010C2C02C0969587950A94E2F780FD82
:1024600025C021E0C21AD10832E0A31AB1084FEF0B
:10247000C416D40659F790E080E027960FB6F8947A
:10248000DEBF0FBECDBFDF91CF911F910F91FF90A7
:10249000EF90DF90CF90BF90AF909F908F907F9004
:1024A0006F905F904F903F902F9008958091AC0671
:1024B0009091AD069F838E838091AE069091AF067A
:1024C0004E815F814817590778F48E819F810E9461
:1024D0006807182F8E819F8101960E946807912FAF
:1024E000212F2F7797FD05C0F50184A187FFB9CF74
:1024F000C2CF381649F082E0820F2E813F81280F2B
:10250000311D3F832E83D8CF8E819F81009761F349
:102510000E946807EE81FF813296FF83EE838F77FA
:102520008F01080F111D8E819F8180179107E0F6A2
:102530008E819F810E946807982F8F708F1531F1CF
:102540002E813F812F5F3F4F92959770915093302E
:10255000D8F4C9010E946807982F92959695969590
:102560009370282F2770920F9F5F8695869586958A
:102570008770980F2E813F812E5F3F4FA901490F31
:10258000511D5F834E83CFCF90E0F8CFEE81FF8166
:10259000309709F4A9CFCF010E946807182F129530
:1025A00017708CEF810F823058F510939D061092B2
:1025B0009E0610929F061092A0061092A1061092FD
:1025C000A2061092A3061092A4061092A5061092DD
:1025D000A6061092A7061092A8061092A906FFEF71
:1025E000F093AA0680919D06853009F43ACF843095
:1025F00009F441CF882309F434CF8DE996E03DCF2B
:102600008E819F8101960E946807082FE82EE29430
:10261000E694E69483E0E822E3942E813F812E5FE6
:102620003F4F3F832E836E2DC9010E94B50F262E8A
:102630007B838C839D838EEF810F823008F03FC0B7
:10264000802F86958695869587708983F12C682FD3
:102650008E819F818E0D9F1D0E94B50F2B013C0125
:10266000133089F5602F6770C7013981830F911D81
:102670004E815F81840F951F0E94B50F10939D06B8
:1026800020929E065B8150939F06EC81E093A0060A
:10269000FD81F093A1064092A2065092A30660929B
:1026A000A4067092A5066093A6067093A706809371
:1026B000A8069093A9062A812093AA0693CF412CBD
:1026C000512C612C712C60E070E080E090E0D6CF5E
:1026D0000F931F93CF93DF93EC018B819C81860F27
:1026E000911D9C838B838881982F9F79988391FD7E
:1026F00005C082FF03C08D7982628883888181FF53
:1027000005C082FD03C08D798064888380910C06AA
:102710008F3F21F091E02981281301C090E088814A
:1027200090FB83F9888328853985232BE1F4807613
:102730008032C9F40091990610919A06B8018981F6
:102740000E940512FC01892B71F085858D831F8302
:102750000E83E081F0E0EE0FFF1FE85BFE4F80810B
:10276000918199878887E885F985309741F0CE0176
:102770000995882321F01F821E8219861886DF9111
:10278000CF911F910F9108951F93CF93DF9300D0A6
:1027900000D000D0CDB7DEB78D839E83162FAD81DC
:1027A000BE8116966D917C91179711968C910E941F
:1027B0000512FC01892BC1F0113001F58181928154
:1027C000A381B48189839A83AB83BC83BC01CD018F
:1027D0000E94861189819A81AB81BC81ED81FE8145
:1027E00082879387A487B58726960FB6F894DEBFB5
:1027F0000FBECDBFDF91CF911F910895123029F404
:1028000085819681A781B085DDCF81859285A3855D
:10281000B485D8CFCF93DF93EC018A8124E0829FE7
:10282000C0011124682B6A831C821B826B3149F41E
:1028300061E0CE010E94C413CE01DF91CF910C94D0
:102840004011673021F0673641F461E001C062E079
:10285000CE01DF91CF910C94C413663629F062301B
:1028600059F3DF91CF91089563E0E3CFCF92DF92E8
:10287000EF92FF920F931F93CF93DF93EC01888128
:10288000182F1295169513700A81EB80FC8081FB3E
:10289000CC24C0F883FBDD24D0F8113061F406307D
:1028A00029F461E088ECE816F10440F11A8261E055
:1028B000CE010E940A14013081F0093119F106306D
:1028C00061F11230B1F180E0DF91CF911F910F9152
:1028D000FF90EF90DF90CF900895CC2041F088ECEE
:1028E000E816F104A0F163E0CE010E940A14123050
:1028F00051F788ECE816F104E0F462E0CE010E94A2
:102900000A14E1CFCC20B9F088ECE816F104D8F035
:1029100063E0CE010E940A14D4CFC110D2CF63E08D
:1029200088ECE816F10468F2CE010E940A1481E0F6
:10293000CBCF1A8206C0123031F688ECE816F104CB
:10294000C0F762E0F1CF123009F0BDCFFACFD1105D
:10295000CACF123091F2B7CFCF93DF93EC018A81C7
:1029600024E0829FC0011124682B6A831C821B8291
:10297000663049F461E0CE010E94C413CE01DF91BC
:10298000CF910C944011673021F0693141F461E03E
:1029900001C062E0CE01DF91CF910C94C41362308C
:1029A00069F3DF91CF910895CF92DF92EF92FF927A
:1029B0000F931F93CF93DF93EC018881182F12950B
:1029C000169513700A81CB80DC8081FBEE24E0F841
:1029D00083FBFF24F0F8113061F4063029F461E044
:1029E00088ECC816D10460F11A8261E0CE010E9421
:1029F000AC14013059F0063039F5E11005C063E040
:102A000088ECC816D10430F580E028C0EE2089F0AB
:102A100063E088ECC816D10498F4FF2021F063E04D
:102A2000CE010E94AC14123079F709C0093161F768
:102A30000FC0123049F788ECC816D10428F762E0BD
:102A4000CE010E94AC14E0CF1230F1F6073071F7DE
:102A50001A8262E0CE010E94AC1481E0DF91CF9136
:102A60001F910F91FF90EF90DF90CF900895FC01A0
:102A70009081929596959370913039F4928361E0AC
:102A8000CF010E94C41380E008959230E1F7928351
:102A9000CF010E94401181E00895809309060895B6
:102AA00080930A060895AF92BF92CF92DF92FF9271
:102AB0000F931F93CF93DF930E94DF095C010E9465
:102AC000F809EC010E94110A8C010E942A0A6C018B
:102AD000C50104960E946807F82E8093AB061093F8
:102AE000AD060093AC060C0D1D1D1093AF060093B0
:102AF000AE06DF92CF921F928F9383E894E09F936C
:102B00008F930E943A1D00EB16E00F900F900F90EC
:102B10000F900F900F905801D12C80E090E0DF14BF
:102B200048F4CE010E946807C82ECE0101960E948B
:102B300068079C2DD5018D939D935D01D3942296BA
:102B4000B0E1DB12EACF0E94140FE2EEF6E088E07B
:102B5000DF011D928A95E9F71092EA061092EB06C2
:102B60001092EC061092ED061092EE061092EF060F
:102B70001092F0061092F1061092F2061092F306EF
:102B80001092F4061092F5064091AB0690E080E0BA
:102B900030E020E061E070E0841708F44DC030932D
:102BA0009A06209399068FEF80939B0680939C064C
:102BB00080930C06ECE0F6E090E080E04EE03FEF22
:102BC000489FD001499FB00D1124ED01C35FD94F3B
:102BD00028812E7F288332831382A45FB94F1196F8
:102BE0002C911197297F11962C931197158214829D
:102BF00011962C911197277E11962C93368310866F
:102C000017821286118628812F79288313861486CD
:102C10001586168601963E968A30910589F681E0E2
:102C200080930B06DF91CF911F910F91FF90DF9062
:102C3000CF90BF90AF900895D801ED91FD918D0197
:102C4000F5FF09C0FB01082E02C0EE0FFF1F0A941A
:102C5000E2F72E2B3F2B01969FCF80930906089514
:102C600080930A06089580910B06882361F1EAEEAD
:102C7000F6E080E030E020E041E050E091919923DF
:102C800039F0BA01022E01C0660F0A94EAF7862BCA
:102C90002F5F3F4F2430310589F7823031F481E0D6
:102CA0009091EE06911180E0880F8093E20686E015
:102CB000EFEEF6E0A4EEB6E001900D928A95E1F712
:102CC00082EE96E0089548E050E060E082EE96E003
:102CD0000E949D03F5CF80910B06882309F485C0DF
:102CE0008091E1069091E006981B977009F445C029
:102CF000E82FF0E0EE0FFF1FE053F94F9081492FCE
:102D000042954F7021818F5F87708093E106892FF4
:102D1000827050E090FF36C0882329F08091EE0643
:102D20008F5F8093EE06E2EEF6E090E080E0BA017D
:102D3000082E02C0759567950A94E2F760FF03C0FC
:102D400030853F5F3087019631968430910579F761
:102D5000222399F08091F50696E08F5F863009F482
:102D600080E0E82FF0E0EE51F94F3585332311F084
:102D7000915099F78093F506258780919906909157
:102D80009A060895882339F08091EE06882319F079
:102D900081508093EE06E2EEF6E090E080E0BA012A
:102DA000082E02C0759567950A94E2F760FF05C08A
:102DB0003085332311F031503087019631968430BD
:102DC000910569F72223C9F2EFEEF6E090E080E08A
:102DD0003191321305C08E51994FFC011586CDCF2C
:102DE000019686309105A1F7C8CF90E080E0089564
:102DF000CF93DF93C82FD62F80910B06882309F439
:102E000048C08C2F0E94950FDC01DD23E9F1892B4E
:102E100029F590E080E02EE0289FF001299FF00D39
:102E20001124DF01A35FB94F3C9130FD1CC0DF01CD
:102E3000A35FB94FE45FF94FC283138215821482F6
:102E40008FEF8683108617821286118681818078A3
:102E5000816081831386148615861686C0930C06BE
:102E60008C91846015C001968A309105A9F61F9255
:102E7000CF9387EA94E09F938F930E943A1D0F901F
:102E80000F900F900F9005C0892B19F08C918B7FBC
:102E90008C93DF91CF910895CF92DF92EF92FF92C2
:102EA0000F931F93CF93DF93C82F80910B06882336
:102EB00009F47FC08DE0E82E86E0F82E670110E06F
:102EC00000E0DEE0D09FF001D19FF00D1124E35F20
:102ED000F94F808180FF0AC0F601918180910C0634
:102EE000981721F06C2FC6010E9468130F5F1F4FC7
:102EF000FEE0CF0ED11C0A30110521F710E000E0F2
:102F0000DEE0D09FF001D19FF00D1124E35FF94F77
:102F1000808180FF0AC0F701918180910C0698138F
:102F200004C06C2FC7010E9468130F5F1F4FFEE0A3
:102F3000EF0EF11C0A30110521F78FEF80930C067C
:102F4000ACE0B6E030E020E08EE0829FF001839FAD
:102F5000F00D1124E35FF94F908190FF0AC091FDBD
:102F600008C019964D915C911A97452B11F49E7FDC
:102F700090832F5F3F4F1E962A30310531F78091A5
:102F80009B068F3FB1F060919C0667FD12C06C0FED
:102F900060939C0663336CF085EC94E00E94551DB1
:102FA00080919B060E9486108FEF80939B068093F2
:102FB0009C06DF91CF911F910F91FF90EF90DF90D2
:102FC000CF90089510920B0608950E94C30C8111B2
:102FD0000C9453150C94E217CF93C82F80911407CB
:102FE0008C17A1F087ED94E0CC2311F084ED94E0F0
:102FF0009F938F938BED94E09F938F930E943A1D44
:10300000C09314070F900F900F900F90CF910895D9
:10301000CF93C82F809115078C17D9F087ED94E0D6
:10302000CC2311F084ED94E09F938F938CEE94E089
:103030009F938F930E943A1DC09315070F900F9096
:103040000F900F90C11105C08CEF96E0CF910C94BA
:103050000107CF910895823039F480E00E9408186A
:1030600080E00E94EC170895803129F0813131F41D
:103070000E94E51708950E94E2170895803239F002
:10308000813241F0823241F0833249F0089581E08B
:103090000C94081880E0FCCF81E00C94EC1780E0E1
:1030A000FCCFCF93DF93D62FC42F813031F481E54D
:1030B00098E1DF91CF910C94A80CE0911207F09168
:1030C0001307309751F00190F081E02D309729F0EF
:1030D0006C2F8D2FDF91CF910994D11114C081E015
:1030E000C11101C080E080932301E0911207F091AB
:1030F0001307309729F00280F381E02D309741F7D4
:10310000DF91CF910895D13039F481E0C11101C030
:1031100080E080932201E9CFD23039F481E0C111FF
:1031200001C080E080932101E0CFD33039F481E009
:10313000C13009F080E080932001D7CFD430B1F4C2
:103140008C2F0E942D1684E095E0C13011F480E0B0
:1031500095E09F938F9382E195E09F938F930E94D8
:103160003A1D0F900F900F900F90BFCFD53009F000
:10317000BCCF8C2F0E9430168DE095E0C13011F449
:1031800087E095E09F938F9385E295E0E6CFCF931C
:10319000DF93C82FD62FE091F606F091F70630970F
:1031A00009F0099580912C0790912D07009739F02F
:1031B0008C0F911DFC01C081CF3F09F43FC0DD237E
:1031C00079F11F92CF938AE395E09F938F930E94AA
:1031D0003A1D0F900F900F900F908C2F80931E012F
:1031E00080912301882321F06D2F8C2F0E94B30E34
:1031F000E0911207F0911307309741F00680F781B4
:10320000E02D309719F06D2F8C2F099580911507BF
:10321000811114C06D2F8C2FDF91CF910C94F81673
:103220001F92CF9386E495E09F938F930E943A1D5F
:103230000F900F900F900F908FEFD0CFDF91CF9125
:103240000895CF93DF93D82FC92F6091090770E0BD
:10325000482F592F8AE097E00E94D00381110DC0BA
:10326000E091090781E08E0F80930907F0E0EE0FEF
:10327000FF1FE65FF84FD083C183DF91CF910895A0
:10328000CF93DF93D82FC92F6091060770E0482FA6
:10329000592F87E097E00E94D00381110DC0E09183
:1032A000060781E08E0F80930607F0E0EE0FFF1F08
:1032B000E95FF84FD083C183DF91CF910895909358
:1032C000050780930407089590932D0780932C079A
:1032D00008959093130780931207089581E08093D7
:1032E0001F01089586E297E0089580E297E008952F
:1032F000CF93DF930E949A070E94CD0881E598E161
:103300000E94C90A0E94A60B0E94E5178BE298E171
:103310000E941E0D0E945E07EC0148E050E065EB44
:1033200072E00E94270348E050E063EE71E0CE01B6
:1033300008960E942703CE014096DF91CF910C940E
:10334000C60ECF93C0E080910907C81710F0CF9147
:103350000895EC2FF0E0EE0FFF1FE65FF84F0190AD
:10336000F081E02D309719F080E297E00995CF5F6A
:10337000EACF8F929F92AF92BF92CF92DF92EF925D
:10338000FF920F931F93CF93DF930E9427046B014B
:103390007C018091F8069091F906A091FA06B0910F
:1033A000FB0646015701881A990AAA0ABB0A85E654
:1033B00088169104A104B10428F084E6882E912C8B
:1033C000A12CB12CC0E06C2F86E297E00E94B703DD
:1033D000182F6C2F80E297E00E94B703D82F1111AD
:1033E0009EC061E081119EC04D2F6C2F86E297E058
:1033F0000E94A003CF5FC03331F7882D0E944C1785
:103400000E946B16EC010E9433168C0180911E07FE
:1034100090911F07C817D90709F468C0809123014C
:10342000882319F0CE010E94BB0EE0911207F091A3
:103430001307309739F00480F581E02D309711F0B3
:10344000CE010995D0931F07C0931E07D0931B018F
:10345000C0931A01C1E048E050E066E177E0C8019E
:103460000E948103811144C080911407811103C01F
:10347000C8010E94010748E050E0B80186E197E0EA
:103480000E94270380E595E09F938F930E943A1D49
:10349000C6E1D7E00F900F900EE511E089911F92E1
:1034A0008F931F930F930E943A1D0F900F900F90D0
:1034B0000F9087E0CE31D80789F78DE595E09F938F
:1034C0008F930E943A1D80911F078F9380911E0752
:1034D0008F9381E695E09F938F930E943A1D0F9002
:1034E0000F900F900F900F900F9004C0C0E0B3CFDB
:1034F000C111C8CFC092F806D092F906E092FA0640
:10350000F092FB06DF91CF911F910F91FF90EF900A
:10351000DF90CF90BF90AF909F908F9008958111D2
:1035200063CF60E08C2F0E94C7185ECF809122018C
:10353000882361F0E6E2F7E09191911105C097E0F0
:10354000EC32F907C9F780E00C94D01B0895809104
:103550002201882361F0E0E2F7E09191911105C02A
:1035600097E0E632F907C9F780E00C94D01B089584
:1035700080912101882351F081E00E94C21B82E0EA
:1035800090E00E94E40380E00C94C21B0895CF9366
:10359000C0E080910607C81710F0CF910895EC2F76
:1035A000F0E0EE0FFF1FE95FF84F0190F081E02D92
:1035B0000995CF5FEECFE0910407F09105073097B2
:1035C00009F0099408950E9461070E94390D0E9434
:1035D0007A0C0C949B079093F7068093F606089557
:1035E000CF92DF92EF92FF920F931F93CF93DF93CF
:1035F000C82ED62E7A01122FD32FC0E08091340727
:10360000C81730F1C0E080913307C81760F1C0924D
:103610003407D0923307E0923107F09232071093CB
:103620002F07D093300700932E07C0E08091340716
:10363000C81720F1C0E080913307C81770F1DF91FF
:10364000CF911F910F91FF90EF90DF90CF90089551
:10365000E0913107F0913207EC0FF11D80810E945B
:10366000E604CF5FCBCFE0912F07F0913007EC0F4E
:10367000F11D80810E94E604CF5FC5CFE091310744
:10368000F0913207EC0FF11DD0818D2F0E94BD0407
:103690008D2F0E945D05CF5FC9CFE0912F07F0917C
:1036A0003007EC0FF11D80810E94E604CF5FC3CF8D
:1036B000CF92DF92EF92FF920F931F93CF93DF93FE
:1036C000082FF92ED0E0E12CDD24D394809134072B
:1036D000D81748F0DF91CF911F910F91FF90EF9095
:1036E000DF90CF900895E0913107F0913207ED0F10
:1036F000F11DC0808C2D0E94600585E090E00E9445
:10370000F303C0E01E2D1C0F80913307C81730F063
:103710008C2D0E945D05DF5FE12ED8CFE0912F0751
:10372000F0913007EC0FF11D80810E941805482FA1
:103730004D2580912E07612F680F802F9F2D0E94AD
:10374000A003CF5FDFCFCF93C42F80932501609379
:103750002401409335078F3F39F00E94BD046C2F40
:10376000809125010E940105809124018F3F41F045
:103770000E94BD046C2F80912401CF910C9401050F
:10378000CF910895682F809125018F3F41F090914E
:103790003507992311F091E069270C9401050895EC
:1037A000682F809124018F3F41F090913507992334
:1037B00011F091E069270C9401050895809125018D
:1037C0008F3F11F00C9434050895809124018F3FB0
:1037D00011F00C943405089541E065E180E00C940B
:1037E000A31BCF93C82F80913607882359F0CA3086
:1037F00019F48DE00E94F11B8091C80085FFFCCF79
:10380000C093CE00CF910895CF93DF9300D000D026
:10381000CDB7DEB769837A838B839C8360E472E4DF
:103820008FE090E029813A814B815C810E94FD1CF0
:10383000215031093093CD002093CC00EAECF0E028
:103840008081817F8660808380818F7C808380817E
:10385000877F8083E9ECF0E080818860808386E266
:1038600091E090933A078093390781E0809336077F
:103870008FE695E00F900F900F900F90DF91CF9112
:103880000C94551DE9ECF0E08081877F808386E20F
:1038900091E090933A078093390710923607089584
:1038A000CF93DF93CDB7DEB728970FB6F894DEBF7E
:1038B0000FBECDBF0E943E040E9478190E94C5062B
:1038C0000E94000419821A821B821C8288E2C82E80
:1038D000D12CE12CF12C90E3892E912CA12CB12C30
:1038E00020EA422E2FE0522E612C712C89819A8180
:1038F000AB81BC8183709927AA27BB27892B8A2B90
:103900008B2B31F40E94A1190E94B9190E94961ABA
:1039100069817A818B819C81A70196010E94FD1C9F
:10392000613071058105910531F469817A818B815E
:103930009C810E94C71A69817A818B819C81A50133
:1039400094010E94FD1C623071058105910531F4DE
:1039500069817A818B819C810E94DB1A69817A81DD
:103960008B819C81A30192010E94FD1C6330710533
:103970008105910511F40E94B81A0E94E31A81E0B2
:1039800090E00E94E40389819A81AB81BC81019619
:10399000A11DB11D89839A83AB83BC83A7CF0E94ED
:1039A000EC1B60E076E980E090E00E94041C00E0FF
:1039B00020E531E046E551E066E088E00E94F01A3B
:1039C00088E59BE10E9421190E94501C90E080E054
:1039D000089597FB072E16F4009407D077FD09D0C1
:1039E0000E941F1D07FC05D03EF4909581959F4FC6
:1039F0000895709561957F4F0895A1E21A2EAA1B34
:103A0000BB1BFD010DC0AA1FBB1FEE1FFF1FA2178E
:103A1000B307E407F50720F0A21BB30BE40BF50B8B
:103A2000661F771F881F991F1A9469F76095709514
:103A3000809590959B01AC01BD01CF010895AA1B13
:103A4000BB1B51E107C0AA1FBB1FA617B70710F089
:103A5000A61BB70B881F991F5A95A9F780959095BB
:103A6000BC01CD010895DC0101C06D93415050406F
:103A7000E0F70895B0E0A0E0E0E4FDE10C9443201D
:103A8000FE01359661917191AF0180913907909156
:103A90003A070E94811DE2E00C945F206091390793
:103AA00070913A070E946A1F08950F931F93CF9356
:103AB000DF93E0913907F0913A07238100E010E0AD
:103AC00021FD0EC00FEF1FEFC801DF91CF911F91B5
:103AD0000F9108950995892B11F00FEF1FEFCE017B
:103AE000EC0189916091390770913A07DB011896D2
:103AF000ED91FC918111EECF8AE00995892B21F39C
:103B0000E1CFAFE0B0E0E7E8FDE10C9433207C01C9
:103B10003B018A01DC0117961C921E9216971396A0
:103B20008C9181FFBEC19AE0292EFE0131964F0192
:103B3000D70113969C91F30193FD859193FF819199
:103B40003F01882309F444C1853239F493FD8591FE
:103B500093FF81913F01853229F4B70190E00E94E3
:103B60006A1FE6CFB12C412C512CBFE1B51538F0BE
:103B70008B3209F188F4803201F1833221F157FC54
:103B80003AC020ED280F2A3040F556FE1FC0B29CE7
:103B9000200D1124B22E06C08D3291F0803379F7BA
:103BA000689450F8F30193FD859193FF81913F0153
:103BB0008111DBCF20C0689451F8689452F8F2CF9D
:103BC000689453F8EFCF689454F8ECCF429C200DE2
:103BD0001124422E689455F8E5CF8E3229F456FC14
:103BE000F7C0689456F8DECF8C3619F4689457F80D
:103BF000D9CF8836B9F2982F9F7D95549330C0F075
:103C0000833681F18337A1F1833509F05BC0D80198
:103C1000CD90DD908D016B2D70E056FC02C06FEFF2
:103C20007FEFC6010E94541F5C01689457F80AC0D8
:103C30000C5F1F4FEFE3E983AA24A394B12C640126
:103C4000E89457F853FE29C0342CA114B10451F55F
:103C5000332009F46DCFB70180E290E00E946A1F23
:103C60003A94F6CFD8018C9189830E5F1F4FE4CF31
:103C7000F801C190D1908F016B2D70E056FC02C00D
:103C80006FEF7FEFC6010E945F1F5C01D9CFB701C4
:103C900080E290E00E946A1F4A944A141B0409F0D3
:103CA000B0F7D2CFF60157FC859157FE81916F0195
:103CB000B70190E00E946A1F31103A94B1E0AB1A4C
:103CC000B108C3CF843619F0893609F071C0F80104
:103CD00057FE67C061917191819191918F01E52D9E
:103CE000EF76DE2E97FF09C09095809570956195CF
:103CF0007F4F8F4F9F4F6894D7F82AE030E0A401A0
:103D00000E949A1FC82EC818AC2C5D2CD6FE0CC081
:103D1000E89450F8CB1440F4D4FE05C0D2FC03C0A4
:103D20005D2D5E7E552EAB2C54FE93C0FE01EC0D36
:103D3000F11D8081803309F085C0652D697E562E86
:103D4000752D7870372E53FC93C050FE8DC0BC2C5F
:103D5000A41410F4B40CBA1854FE90C0B70180E358
:103D600090E00E946A1F52FE07C088E751FC88E578
:103D700090E0B7010E946A1FCB1408F48BC0CA946C
:103D8000D12C8FEFC81AD80AC80CD91CD6018E9135
:103D90006D01B70190E00E946A1F8C149D04B1F779
:103DA00057CF61917191072E000C880B990B96CF1C
:103DB000D52CE894D4F82AE0853729F1F52DF97F40
:103DC000DF2E8037A1F058F48835A1F08F36D1F07E
:103DD000F701868197812F96E2E10C944F20883776
:103DE000B9F7D4FE02C06894D2F820E10CC0689400
:103DF000D4F8F7CF54FE03C02F2F2660D22E20E137
:103E000032E002C028E030E0F801D7FE15C0419151
:103E10005191619171914C875D876E877F878F018A
:103E2000A4016C857D858E859F850E949A1FC82E72
:103E3000C818E894D7F868CF81919191AC0170E0EF
:103E400060E0E9CF52FC02C0A3947ACFA394A3947C
:103E500077CF852D867809F473CFF6CFB70180E24E
:103E600090E00E946A1FA394A414C0F3312C74CF75
:103E7000342C3A18A41408F46FCFF8CF852D867827
:103E800009F47ACF8BE251FE80E257FC8DE2B70154
:103E900090E070CFB70180E390E00E946A1FBA946F
:103EA0006BCF8FEF9FEF97CFFC0105906150704073
:103EB0000110D8F7809590958E0F9F1F0895FC01F3
:103EC0006150704001900110D8F7809590958E0F49
:103ED0009F1F08950F931F93CF93DF93182F092FE0
:103EE000EB018B8181FD09C01FEF0FEF812F902F18
:103EF000DF91CF911F910F91089582FF14C02E8101
:103F00003F818C819D81281739073CF4E881F98134
:103F1000CF0101969983888310838E819F810196BA
:103F20009F838E83E3CFE885F985812F0995892BBF
:103F3000A1F3DACFFA01AA27283051F1203181F11B
:103F4000E8946F936E7F6E5F7F4F8F4F9F4FAF4FA1
:103F5000B1E03ED0B4E03CD0670F781F891F9A1FB4
:103F6000A11D680F791F8A1F911DA11D6A0F711D68
:103F7000811D911DA11D20D009F468943F912AE074
:103F8000269F11243019305D3193DEF6CF0108955C
:103F9000462F4770405D4193B3E00FD0C9F7F6CF8D
:103FA000462F4F70405D4A3318F0495D31FD405255
:103FB000419302D0A9F7EACFB4E0A69597958795EB
:103FC00077956795BA95C9F70097610571050895CA
:103FD0009B01AC010A2E0694579547953795279576
:103FE000BA95C9F7620F731F841F951FA01D08950E
:103FF000DC01CB01FC01F999FECF06C0F2BDE1BDA9
:10400000F89A319600B40D9241505040B8F7089597
:10401000F999FECF92BD81BDF89A992780B5089590
:10402000A8E1B0E042E050E00C94FA1FDC01CB01C3
:1040300003C02D910E94212041505040D0F7089597
:10404000262FF999FECF1FBA92BD81BD20BD0FB6B4
:10405000F894FA9AF99A0FBE019608950E942020CA
:10406000272F0C9421202F923F924F925F926F92B4
:104070007F928F929F92AF92BF92CF92DF92EF92F8
:10408000FF920F931F93CF93DF93CDB7DEB7CA1B79
:10409000DB0B0FB6F894DEBF0FBECDBF09942A88A4
:1040A000398848885F846E847D848C849B84AA844C
:1040B000B984C884DF80EE80FD800C811B81AA81D9
:1040C000B981CE0FD11D0FB6F894DEBF0FBECDBFA4
:0840D000ED010895F894FFCF03
:1040D8000000000200000000E303000000000101EE
:1040E8000101010101FFFFFFFFFF00001607FF00AC
:1040F80000010101FFFF0000000200000000F11BA9
:10410800000000007EA30A00120000000000010168
:1041180001000100000014008D0F3715D414361467
:104128000E142726252401030206171E0405253030
:104138003258200025642000726573657420746FFE
:104148002064667520626F6F746C6F6164657200BD
:104158007573622064657669636520636F6E66694E
:104168006775726564006461746173746F72616706
:104178006520696E697469616C697A650073746F2A
:104188007261676520646174612076616C6964009E
:10419800726573657420646174612073746F7261F1
:1041A800676520666F72206E65772070726F6A652A
:1041B80063740037397876365A62410030303030CF
:1041C800303030300073797374656D2070617261BE
:1041D8006D657465722076616C75652066697865B1
:1041E800642025642C202564202D2D3E2025640A7A
:1041F8000073797374656D20706172616D657465A3
:10420800727320696E697469616C697A656400709B
:104218006172616D6574657273207361766564009F
:10422800696E76616C6964206B6579206173736966
:10423800676E732064617461006B657920617373C4
:1042480069676E732073746F726167652064617447
:10425800612069732076616C6964005B7761726EB6
:104268005D206661696C656420746F20777269747B
:1042780065207261776869642064617461006174A3
:104288006D656761004131353246443230006D65F5
:104298006D6F7279207772697465207472616E73BC
:1042A800616374696F6E2073746172740025642091
:1042B8006279746573207772697474656E206174AD
:1042C8002025640A00636865636B2C20616464724E
:1042D8002025642C206C656E2025640A00636B3AE7
:1042E8002025640A006D656D6F7279207772697494
:1042F80065207472616E73616374696F6E20646F98
:104308006E650042004300440045004600470048EF
:10431800004A004B004C004D004E004F0050005129
:104328000052005400550056005700580059005AD2
:104338000045736300537061636500456E74657270
:104348000054616200425300463100463200463351
:1043580000463400463500463600463700463800E9
:104368004639004631300046313100463132004C82
:104378005368696674004C4374726C004C416C74E9
:10438800004C47554900525368696674005243749B
:10439800726C0052416C74005247554900486F6D69
:1043A8006500456E6400496E736572740044656CFF
:1043B80065746500506167655570005061676544B4
:1043C8006E004C65667400526967687400446F77C4
:1043D8006E0048616E2F5A656E004B6174612F48FC
:1043E8006972610048656E6B616E004D7568656E37
:1043F800002E002C0021003F003A003B005F002BFC
:10440800002A002F003D0026007C005E007E004050
:104418000023002400C2A50025005C00270022001C
:104428006000280029007B007D003C003E004B61B5
:104438006E610045697375006C61796572206F66FD
:10444800662025640A006C61796572206F6E2025EC
:10445800640A006E756D4C61796572733A25642043
:104468006B65794D617070696E67446174615369F9
:104478007A653A25640A0063616E6E6F7420617410
:1044880074616368206B657920256420746F2073DC
:104498006C6F740A0063616E63656C206F6E657380
:1044A800686F74006F6E006F6666006F7574707564
:1044B80074206D7574653A2025730A0073696D75EB
:1044C8006C61746F72206D6F64653A2025730A0001
:1044D8004A495300555300416C746572004D616937
:1044E8006E0073797374656D206C61796F75743AB9
:1044F8002025730A00726F7574696E67206368619E
:104508006E6E656C3A2025730A006B6579646F7767
:104518006E2025640A006B657975702025640A0091
:10452800484944207265706F72743A5B005D2C20B4
:10453800006C61796572733A20253032580A002D73
:084548002D2D2D2D2D2D2D0030
:00000001FF
