:100000000C944C010C9469010C9469010C946901E5
:100010000C9469010C9469010C9469010C946901B8
:100020000C9469010C9469010C9429030C944F03FE
:100030000C9469010C9469010C9469010C94690198
:100040000C9469010C9469010C9469010C94690188
:100050000C9469010C9469010C9469010C94690178
:100060000C9469010C9469010C9469010C94690168
:100070000C9469010C9469010C9469010C94690158
:100080000C9469010C9469010C9469010C94690148
:100090000C9469010C9469010C9469010C94690138
:1000A0000C9469010C9469010C9469010001000031
:1000B000560212000200006C015B002200003A02AE
:1000C0001C002100007E010900220100FA0140000D
:1000D0002101009E010900220200C7013300210214
:1000E00000B7010900030000680104010309045678
:1000F0000110020309042401300303090400012252
:100100002203370034004600330041004300320030
:1001100045004600440033003100340041004100F6
:100120004300000030036B00650072006D00690041
:10013000740065005F0063006F00720065005F007F
:10014000610074006D0065006700610033003200DB
:1001500075003400000010036B00650072006D0034
:1001600069007400650000000403090409025B00D3
:10017000030100C03209040000020300000009214D
:1001800011010001221C0007058103400002070540
:1001900002034000080904010001030101000921D4
:1001A0001101000122400007058303080001090432
:1001B00002000103010200092111010001223300A4
:1001C0000705840308000105010902A101050919B9
:1001D000012903150025019503750181029501751B
:1001E0000581030501093009311581257F750895C1
:1001F000028106093895018106C005010906A101A1
:1002000075019508050719E029E715002501810208
:1002100095017508810395057501050819012905E2
:10022000910295017503910395067508150026FF47
:10023000000507190029FF8100C006ABFF0A000274
:10024000A1017508150026FF00954009018102955E
:100250004009029102C0120100020000002055F086
:1002600077A500010102030118191A1B1C1D1E1F8E
:10027000202122232425262728292A2B2C2D2E2F06
:10028000000102030405060708090A0B0C0D0E0FF6
:10029000101112131415161711241FBECFEFDAE038
:1002A000DEBFCDBF12E0A0E0B1E0EEE8F4E202C0B4
:1002B00005900D92A83AB107D9F727E0A8EAB2E075
:1002C00001C01D92AF36B207E1F70E94BB0E0C943D
:1002D00045120C940000E82FE695E695E69593E02C
:1002E000E99FF001112435A1282F277081E090E0CB
:1002F00001C0880F2A95EAF7832B85A30895E82F7C
:10030000E695E695E69593E0E99FF001112434A186
:10031000282F277081E090E001C0880F2A95EAF726
:10032000832B84A30895E82FE695E695E69593E060
:10033000E99FF001112434A1282F277081E090E07B
:1003400001C0880F2A95EAF78095832384A3089536
:10035000E82FE695E695E69593E0E99FF0011124F4
:1003600034A1282F277081E090E001C0880F2A95E2
:10037000EAF7982F9095932394A395A1892B85A3B1
:10038000089561110C946B01E82FE695E695E695CA
:1003900093E0E99FF001112435A1282F277081E017
:1003A00090E001C0880F2A95EAF78095832385A302
:1003B0000895282F26952695269530E02F5F3F4FEC
:1003C000A901440F551FFA01E20FF31F90A1877096
:1003D00021E030E002C0220F331F8A95E2F7892F17
:1003E00090E02823392381E0121613060CF080E0F8
:1003F0000895E82FE695E695E69593E0E99FF001EC
:10040000112435A1282F277081E090E001C0880FCA
:100410002A95EAF7832785A308958695869586957C
:1004200023E0829FC00111248596089586958695C4
:10043000869590E001969C01220F331F820F931F37
:1004400080960895877008950C946B0160E00C9479
:10045000C101E82FE695E695E695F0E031969F011B
:10046000220F331FE20FF31F30A1282F277081E0E6
:1004700090E001C0880F2A95EAF7832B80A30895A6
:10048000CF93C82F8A3019F48DE00E9440028091EA
:10049000C80085FFFCCFC093CE00CF9108959B018B
:1004A000AC0160E472E48FE090E00E94D30E215032
:1004B00031093093CD002093CC00EAECF0E080814C
:1004C000817F8660808380818F7C80838081877F2D
:1004D0008083E9ECF0E080818860808380E091E0B7
:1004E00090936C0780936B070895EF92FF920F93A0
:1004F0001F93CF938093B0026093AF025093AE02EC
:100500004093AD023093AC022093AB02C0E08091E7
:10051000B002C817B8F4EC2EF12CE091AD02F091C6
:10052000AE02EE0DFF1D80810E947F018091AD0221
:100530009091AE02FC01EE0DFF1D80810E9424020D
:10054000CF5FE5CFC0E08091AF02C81758F4E091CB
:10055000AB02F091AC02EC0FF11D80810E94A8016A
:10056000CF5FF1CF1093AA020093A90281E080939C
:10057000A802CF911F910F91FF90EF900895CF9215
:10058000DF92EF92FF920F931F93CF93DF938091AF
:10059000A802882309F453C0E12CD12C01E010E01B
:1005A0008091B002E81608F04AC0CE2DD0E0E0916C
:1005B000AD02F091AE02EC0FFD1F80810E94260279
:1005C000FD2C8F2D8D199091AF02891760F59F2D0D
:1005D0009770C92EE091AB02F091AC02E80FF11DCB
:1005E00080810E94D9012F2D26952695269530E0F1
:1005F000E091A902F091AA02E20FF31F811108C055
:10060000C80101C0880FCA94EAF79081892B08C0FD
:10061000C80101C0880FCA94EAF7809590818923A8
:100620008083F394CECF8091AD029091AE02C80F3B
:10063000D91F88810E942402E394DF2CB1CFDF917F
:10064000CF911F910F91FF90EF90DF90CF90089581
:1006500008951F920F920FB60F9211248F939F93BC
:100660008091E1001092E10083FF0FC01092E90039
:1006700091E09093EB001092EC0092E29093ED00E9
:1006800098E09093F0001092B20282FD8091B20245
:100690009F918F910F900FBE0F901F9018951F92F2
:1006A0000F920FB60F9211242F933F934F935F93A6
:1006B0006F937F938F939F93AF93BF93EF93FF932A
:1006C0001092E9008091E80083FFCEC09091F10084
:1006D0008091F1002091F1004091F10030E0342B45
:1006E0004091F1006091F10050E0562B6091F100D3
:1006F0007091F100E2EFE093E800863009F049C024
:100700008CEA90E0FC01A591B4912A173B07E1F433
:10071000FC013296A591B4914A175B07A9F4FC013C
:10072000349645915491FC0136968491262F30E001
:10073000372B2F3F310519F010F02FEF30E028173D
:1007400008F4822F3EEF0DC00796E1E080309E074F
:10075000C9F68AC0490F511D891B3093E8008823D0
:10076000A9F09091E800292F2570D9F392FD7FC060
:10077000982F813208F090E2FA01292F222351F3B9
:1007800064916093F10021503196F8CF903249F393
:100790006EC0853059F48EEF8093E8008091E800B8
:1007A00080FFFCCF20682093E30061C08930C9F549
:1007B000911137C02093B2028EEF8093E80081E060
:1007C0008093E9008093EB0091EC9093EC0026E39A
:1007D0002093ED0032E03093E9008093EB0030ECA1
:1007E0003093EC002093ED0023E02093E900809308
:1007F000EB009093EC0026E02093ED0034E0309382
:10080000E9008093EB009093EC002093ED0081E3EE
:1008100091E00E94120F8EE18093EA001092EA00AC
:1008200026C041155105C1F04130510591F4913276
:10083000D9F4893099F48091E80082FFFCCF80914F
:10084000F1008093B1028091B1028BEF8093E800B8
:1008500007C04230510541F4913231F48A3021F41D
:100860008EEF8093E80003C081E28093EB00FF915C
:10087000EF91BF91AF919F918F917F916F915F9118
:100880004F913F912F910F900FBE0F901F90189591
:1008900080E8809361001092610081E08093D7002E
:1008A00080EA8093D80082E189BD09B400FEFDCFC3
:1008B00080E98093D8001092E0001092B2028CE0A0
:1008C0008093E20008959091B202911102C080E0FD
:1008D000089593E09093E9009091E80095FFF7CF99
:1008E000F8948093F1001092F100FB01CB01069681
:1008F00021912093F100E817F907D1F78AE380935B
:10090000E800789481E008952091B202211102C09C
:1009100080E0089523E02093E9002091E80025FF7E
:10092000F7CFF894FC01089621912093F100E81785
:10093000F907D1F78AE38093E800789481E008957D
:100940002091B202211102C080E0089521E020939D
:10095000E9002091E80025FFF7CFF894FC01805CC6
:100960009F4F21912093F100E817F907D1F78AE30F
:100970008093E800789481E008952091B2022111DB
:1009800002C080E0089522E02093E9002091E80071
:1009900025FFF7CFF894FC01805C9F4F2091F10078
:1009A0002193E817F907D1F78BE68093E800789454
:1009B00081E008959091B20281E0911101C080E040
:1009C0000895E0913303F0913403309709F00994CE
:1009D000089583EF92E00E94A004811104C087E48F
:1009E00091E00C94120F08958093350370933403B3
:1009F000609333030895AF92BF92CF92DF92FF923C
:100A00000F931F93CF93DF9383EB92E00E94BD047B
:100A1000882309F4DEC08091B302803B09F09DC0B9
:100A20008091B402813009F0D4C08091B502803148
:100A300031F48AE691E00E94120F81E083C0803297
:100A400071F5C091B602D091B702DC27CD27DC2723
:100A5000D090B80203EB12E0F12CCE01835B924000
:100A60005C01DF1459F0F8016681C501800F911F08
:100A70000E940B06F3940F5F1F4FF3CFDF93CF93CA
:100A80001F92DF9289E891E09F938F930E94F50E69
:100A90000F900F900F900F900F900F909AC081328F
:100AA00009F048C00091B6021091B7021027012743
:100AB0001027C091B802D091B902DC27CD27DC27DE
:100AC000DF93CF931F930F9381EA91E09F938F93CE
:100AD0000E94F50E0F900F900F900F900F900F90B7
:100AE000C12CD12CF12CCC16DD0651F0C601800FA3
:100AF000911F0E940706F826FFEFCF1ADF0AF3CFF7
:100B00001F92FF9289EB91E09F938F930E94F50EC5
:100B100080EB8093F30281E08093F40282E2809381
:100B2000F502F092F6021092F7020F900F900F90DC
:100B30000F9027C0813109F04CC081EC91E00E94F8
:100B4000120F82E0DF91CF911F910F91FF90DF9004
:100B5000CF90BF90AF900C94E104803FE9F4909166
:100B6000B4029031B1F58093F30281E18093F402F5
:100B700082E08093F502809135038093F602109213
:100B8000F702DF91CF911F910F91FF90DF90CF90EF
:100B9000BF90AF900C94E904803DD9F48091B402E9
:100BA000803141F48091B502813011F48AE0CACFDE
:100BB0008BE0C8CF803269F485EB92E0DF91CF9172
:100BC0001F910F91FF90DF90CF90BF90AF900C944A
:100BD0008404DF91CF911F910F91FF90DF90CF9010
:100BE000BF90AF900895E3EFF2E090EE908390E92C
:100BF0009183828363830C94E904E3EFF2E020EEB7
:100C0000208321E92183928383830C94E904F99959
:100C1000FECF0C94E311F999FECF0C94FB11F999D6
:100C2000FECF0C94EB11F999FECF0C9409129C01A4
:100C3000CB01F999FECFB9010C94D3119C01CB01E2
:100C4000F999FECFB9010C94F111EF92FF920F9335
:100C50001F93CF93DF93EC018C01060F171F8FEDCD
:100C6000E82E81E0F82EC017D10761F089911F921C
:100C70008F93FF92EF920E94F50E0F900F900F90BE
:100C80000F90F1CF8AE090E0DF91CF911F910F910B
:100C9000FF90EF900C940B0FEF92FF920F931F9326
:100CA000CF93DF93EC018C01060F171F85EEE82E22
:100CB00081E0F82EC017D10761F089911F928F93C0
:100CC000FF92EF920E94F50E0F900F900F900F90F1
:100CD000F1CF8AE090E0DF91CF911F910F91FF90CB
:100CE000EF900C940B0FFB01460F571FE417F5070D
:100CF00029F02191DC012D93CD01F8CF0895CF92F9
:100D0000DF92EF92FF920F93CF93DF93EC0180E09D
:100D1000EE24E394F12C801779F1982F960FE92FA8
:100D2000E695E695E695392F3770982F920F792F33
:100D3000769576957695DA01A70FB11DCC90D12CDA
:100D40009770D70102C0AA0FBB1F9A95E2F7CA227B
:100D5000DB22F0E0D70101C0AA0F3A95EAF7EC0FC9
:100D6000FD1FCD2819F09081A92B03C0A09590817B
:100D7000A923A0838F5FCFCFDF91CF910F91FF90F9
:100D8000EF90DF90CF900895FB01480F591F841713
:100D9000950741F0DC013D91CD0121913217B9F366
:100DA00080E0089581E008959F92AF92BF92CF9224
:100DB000DF92EF92FF920F931F93CF93DF934CE05C
:100DC00050E066E373E080E090E00E941706009137
:100DD000360310913703102701271027C0913803DD
:100DE000D0913903DC27CD27DC27B0903A039090CF
:100DF0003B03A0903C03C0903D03D0903E03E090A5
:100E00003F03F0904003FE24EF24FE241F92DF9264
:100E10001F92CF921F92BF92DF93CF931F930F9396
:100E200089EE91E09F938F930E94F50E8DB79EB748
:100E30000C960FB6F8949EBF0FBE8DBF03301E4FA9
:100E4000B9F42196A9F491E0B91212C082E0981287
:100E50000FC098E1A9120CC080E88C1548F090E111
:100E60009D1530F081E098EEE91693E0F90608F060
:100E700080E0C82FC17080FD0BC089EF91E00E9417
:100E8000120F68E070E086E393E00E94250604C03C
:100E900084E192E00E94120F8C2FDF91CF911F917D
:100EA0000F91FF90EF90DF90CF90BF90AF909F9009
:100EB0000895E4E0F7E020E030E090819F3F69F49E
:100EC000F901EE0FFF1FEC5FF84F8083220F331FF5
:100ED000F901EB5FF84F108208952F5F3F4F329674
:100EE0002430310551F7089521E0FC0181898230D9
:100EF00009F020E0822F08950F931F93CF938C0168
:100F00000E940706C82FC80101960E9407062C2FD1
:100F100030E0322F2227A901482BCA01CF911F911F
:100F20000F9108954F925F926F927F928F929F924E
:100F3000AF92BF92CF92DF92EF92FF920F931F93E7
:100F4000CF93DF93EC018C819D81860F911D9D8352
:100F50008C83198A8A81811106C08B81882319F0BC
:100F600081E08A83898B8A81882331F08B8181118A
:100F700003C01A8282E0898B209143032F3F49F0FE
:100F8000488150E0022E000C330B81E042175307DA
:100F900009F480E081708E838F859889892B09F010
:100FA000D5C08989813009F0D1C0788097E1C92EF8
:100FB00097E0D92E2FE0E22EF12C80910C07909132
:100FC0000D070E2C02C0969587950A94E2F780FDD6
:100FD0000BC081E0E81AF108E2E0CE1AD108FFEF79
:100FE000EF16FF0651F7C8C06E2C0091180710913C
:100FF000190780911A0790911B070817190708F025
:10100000B0C0C8010E940706882309F4AAC087FF60
:1010100003C08F77781649F0C80101960E94070631
:1010200090E00296080F191FE4CF0115110509F48D
:1010300098C0C80101960E9407060E5F1F4F580115
:10104000A80EB11C0A151B0508F08BC0C8010E9430
:101050000706982F9F70691661F082958770E82FB8
:10106000F0E0E35EFE4F808190E00196080F191FCB
:10107000E9CF0115110509F474C0C8010E940706E3
:1010800082958770682E8CEF860D823078F460929E
:101090001007109212071092110710921407109265
:1010A0001307109216071092150733C0C801019656
:1010B0000E947C075C018EEF860D823058F4C801D7
:1010C00003960E947C0721E0512C892B09F420E033
:1010D000422E02C0412C512C83E068120AC0C80184
:1010E00005960E947C0731E020E0892B21F430E056
:1010F00002C030E020E060921007B0921207A09288
:10110000110740921307509214073093150720934C
:10111000160780911007853009F45BCF843061F1A8
:10112000882309F456CF87E0E0E1F7E0DE01189666
:1011300001900D928A95E1F7E885F0E0EE0FFF1F30
:10114000E25FFE4F80819181988B8F87EF85F889D0
:101150003097B1F0CE010995882391F0188A1F8647
:101160000FC0F60184A1882E881C8824881C912C2D
:101170008A94892809F02DCF87E0E6E1F1E0D6CF07
:10118000DF91CF911F910F91FF90EF90DF90CF9063
:10119000BF90AF909F908F907F906F905F904F9097
:1011A0000895CF93DF9340910C0750910D07C82FFE
:1011B000D0E09A01082E02C0369527950A94E2F7EE
:1011C00020FF29C021E030E0082E02C0220F331F8B
:1011D0000A94E2F7209530952423352330930D07A8
:1011E00020930C071F928F938CE292E09F938F9332
:1011F0000E94F50ECC0FDD1FC45ED84F89818F7021
:101200000F900F900F900F9031F0809590914C07B8
:10121000892380934C07DF91CF910895CF92DF927D
:10122000EF92FF920F931F93CF93DF93C82ED0902E
:10123000170707E117E0C0E0D0E0E62E660FFF08D1
:10124000CD1578F4EC16FD0641F0F8018581877024
:10125000C81203C08C2F0E94D10821960E5F1F4F29
:10126000EFCFDF91CF911F910F91FF90EF90DF9023
:10127000CF9008950F931F93CF93082F10E02091E4
:101280000C0730910D07082E02C0369527950A9459
:10129000E2F720FD35C0C82F000F111FF801E95EED
:1012A000F84F8581877019F06C2F0E940E0981E03C
:1012B00090E00C2E02C0880F991F0A94E2F720914B
:1012C0000C0730910D07822B932B90930D07809381
:1012D0000C071F92CF938AE392E09F938F930E9413
:1012E000F50EF801E45EF84F81818F700F900F903A
:1012F0000F900F9029F090914C07892B80934C0709
:10130000CF911F910F910895CF939C0124E0329FBC
:10131000212D33271124213059F5AC015370292F89
:10132000269526952F7029F030914D07232B209379
:101330004D074115510509F457C0342FBC016627EC
:1013400072702091440790FF05C080914E07826023
:1013500080934E07672B31F0822F8D7019F481E056
:1013600080934F07332309F43FC0409350073CC09C
:10137000223099F5C92FCF7024E0969587952A954C
:10138000E1F78F70813091F0823081F0833091F0FD
:101390008430A1F480910C0790910D070C2E02C0AF
:1013A000969587950A94E2F780FD04C08C2F0E94E1
:1013B0003A0924C08C2F0E94D10820C08530F1F456
:1013C0008C2F0E943A09C0930E078FEF80930F076E
:1013D0008BE592E00E94120F11C0233029F46FEFC9
:1013E000892F87700E940E0980910E078F3F31F080
:1013F00080910F078F3F11F410920F0780910C0717
:1014000090910D07892B21F480E0CF910C943A093B
:10141000CF910895CF93DF93C82FD0E0CC0FDD1F7D
:10142000FE01EC55F94F80819181009709F447C086
:101430009C0124E0329F212D33271124213019F5FE
:10144000AC015370292F269526952F7031F02095E9
:1014500030914D07232320934D074115510511F17C
:101460009C012227327090FF05C080914E078D7F2E
:1014700080934E07232B11F010924F07442391F0D5
:10148000109250070FC0223069F49C0184E0369519
:1014900027958A95E1F72F70213021F4892F8F70DD
:1014A0000E94D10880910C0790910D07892B19F4A7
:1014B00080E00E943A09CC55D94F19821882DF91F9
:1014C000CF9108950F931F93CF93FC01918184E0F6
:1014D000989F90011124262B218315821482C081AC
:1014E0002B3119F40185128519C0273019F40385B1
:1014F000148504C0273671F401851285C8010E9445
:101500008409EC2FF0E0EE0FFF1FEC55F94F11832B
:1015100000831DC0263699F405851685C8010E94F2
:101520008409EC2FF0E0EE0FFF1FEC55F94F11830B
:1015300000838C2FCF911F910F910C94590722306B
:1015400031F48C2FCF911F910F910C940A0ACF91F7
:101550001F910F910895CF92DF92EF92FF920F9318
:101560001F93CF93DF93EC0119890981EC80FD80F3
:10157000DA80CE80113081F4063049F488ECE81628
:10158000F10428F461E0CE010E94620A16C01982BB
:1015900061E0CE010E94620A013059F4DD2061F160
:1015A00088ECE816F104C0F163E0CE010E94620A03
:1015B00023C0093151F0063059F5D11029C088EC0B
:1015C000E816F10428F163E009C0D1100CC0123014
:1015D000E9F488ECE816F104E8F462E0CE010E9438
:1015E000620A81E021C088ECE816F104D0F063E0E3
:1015F000CE010E94620A0CC0123041F488ECE81659
:10160000F10440F462E0CE010E94620A80E00CC066
:101610001230E1F71982E1CFC110C6CF1230B1F715
:10162000F1CF123099F7D9CFDF91CF911F910F9160
:10163000FF90EF90DF90CF9008950F931F93CF937B
:10164000FC01918184E0989F90011124262B218335
:1016500015821482C081263099F401851285C80153
:101660000E948409EC2FF0E0EE0FFF1FEC55F94FBC
:10167000118300838C2FCF911F910F910C945907E8
:10168000273019F40385148504C0293171F40185CC
:101690001285C8010E948409EC2FF0E0EE0FFF1FB5
:1016A000EC55F94F1183008308C0223031F48C2FA0
:1016B000CF911F910F910C940A0ACF911F910F9116
:1016C0000895CF92DF92EF92FF920F931F93CF93E3
:1016D000DF93EC0109891981EC80FD80DA80CE80EE
:1016E000013069F4163031F488ECE816F10410F496
:1016F00061E018C0198261E0CE010E941D0B11301B
:10170000A9F4DD2041F088ECE816F10438F163E03B
:10171000CE010E941D0B023029F588ECE816F10479
:1017200008F562E0CE010E941D0B1CC0163041F48A
:10173000D11018C088ECE816F104A0F063E006C0F0
:10174000023081F4173039F4198262E0CE010E9430
:101750001D0B81E008C01931B9F304C0C110D7CF07
:101760000230F9F280E0DF91CF911F910F91FF904D
:10177000EF90DF90CF9008950F931F93CF93FC01CC
:10178000918184E0989F90011124262B2183C081B0
:10179000213071F401851285C8010E948409EC2F63
:1017A000F0E0EE0FFF1FEC55F94F1183008308C0E6
:1017B000223031F48C2FCF911F910F910C940A0A93
:1017C000CF911F910F910895FC012189213029F4B7
:1017D000118261E00E94BC0B09C0223039F4FC0187
:1017E000118262E00E94BC0B81E0089580E00895C0
:1017F000CF92DF92EF92FF920F931F93CF93DF93DD
:1018000088E090E00E940706D82F89E090E00E94CF
:101810007C07D09317072D2F30E0245F3F4F220F16
:10182000331F30931907209318079C01285E3F4F00
:1018300030931B0720931A079F938F931F92DF9378
:1018400087E492E09F938F930E94F50E0CE117E0DE
:101850000F900F900F900F900F900F90680158E12C
:10186000E52EF12CC0E0CD1720F4C7010E947C07C3
:1018700002C080E090E0D6018D939D936D01CF5F13
:10188000B2E0EB0EF11CC03171F7ECE3F7E011921E
:10189000178287E0E434F807D1F710924C071092D2
:1018A0004D0710924E0710924F071092500740912B
:1018B000170780E090E020E030E061E070E08417FE
:1018C00088F4D801ED91FD918D01F5FF09C0FB0170
:1018D000082E02C0EE0FFF1F0A94E2F72E2B3F2BBB
:1018E0000196EDCF30930D0720930C078FEF809377
:1018F0000E0780930F07E4EAF6E011921192B7E029
:10190000E430FB07D1F78FEF8093040710920507AF
:101910008093060710920707809308071092090723
:1019200080930A0710920B0780934303C3E4D3E02C
:1019300080E089831A821B821C821E821D821F8284
:10194000188697E0E6E1F1E0DE01199601900D922C
:101950009A95E1F7198A188A1A8A8F5F62968033FE
:1019600041F781E080934203DF91CF911F910F9166
:10197000FF90EF90DF90CF900895809142038823ED
:10198000C1F090914C0780914D07892B90914E07A3
:10199000892B8093440790914F07992319F08D7FED
:1019A00080934407809150078093460784E497E032
:1019B00008958CE397E0089580914203882329F0ED
:1019C00080910C0790910D07089580E090E00895B4
:1019D000909142039923E1F08033D0F4282F30E036
:1019E000662369F08093430382E1829FF001839F25
:1019F000F00D1124ED5BFC4F81E08483089582E1BA
:101A0000829FF001839FF00D1124ED5BFC4F148247
:101A10000895EF92FF920F931F93CF93DF939091CE
:101A20004203992309F45BC0C82F84E4E82E83E0C5
:101A3000F82E00E010E080914303082E000C990B73
:101A40000817190721F06C2FC7010E9492070F5F3A
:101A50001F4F22E1E20EF11C0033110561F7809166
:101A600043038F3F49F0E2E18E02C00111246C2F45
:101A70008C5B9C4F0E9492078FEF8093430304E09E
:101A800017E0DFEFF80180818F3F49F091819C0FD3
:101A90009183933320F00E940A0AF801D0830E5FED
:101AA0001F4FF7E00C301F0769F780910E078F3F3B
:101AB000B1F080910F0787FD12C0C80FC0930F07C8
:101AC000C3336CF084E592E00E94120F80910E0700
:101AD0000E94D1088FEF80930E0780930F07DF914C
:101AE000CF911F910F91FF90EF90089510924203B4
:101AF00008950E94D40681110C94F80B0C94760D75
:101B0000813011F40C94760D823011F40C94790D1F
:101B10008A3021F481E08093680708958B3011F4B6
:101B2000109268070895CF93DF938033A8F5E82FCC
:101B3000F0E0E859FD4FC491C03370F5D62F66230D
:101B400061F01F92CF9383E692E09F938F930E9460
:101B5000F50E809167078F5F0BC01F92CF938FE6C2
:101B600092E09F938F930E94F50E809167078150BA
:101B7000809367070F900F900F900F9080916807E8
:101B8000811104C06D2F8C2F0E94E80C6D2F8C2FBB
:101B9000DF91CF910C94F305DF91CF9108955F927F
:101BA0006F927F928F929F92AF92BF92CF92DF926D
:101BB000EF92FF920F931F93CF93DF930BE517E004
:101BC00081E6E82E87E0F82E512CAA24A394B12CAC
:101BD000F701C0803801F8018080C0E0D0E0912C8E
:101BE000D12C8C2F850D95010C2E02C0220F331F96
:101BF0000A94E2F7A401422353232C213D21232BF5
:101C000021F4452B39F061E003C0452B19F460E065
:101C10000E94930D2196C830D10519F70F5F1F4F11
:101C2000F3018081F70181937F01F8E05F0E80E38B
:101C30005812CECFDF91CF911F910F91FF90EF906F
:101C4000DF90CF90BF90AF909F908F907F906F90DC
:101C50005F9008950BE517E023E231E049E251E09F
:101C600066E088E00E9475020E94790D60E87DE0E0
:101C700080E30E94F4040E94F80B7894C0E0D0E066
:101C80008AE0C82ED12C98EEA92E93E0B92E219689
:101C9000CE01B6010E94BF0E892B09F041C00E94FF
:101CA000BF020E94CF0D8AE00E94090D0E94DC0C49
:101CB0007C010E94BD0C8C018091590790915A07BC
:101CC000E816F90639F0C7010E94FD05F0925A079F
:101CD000E092590748E050E061E577E0C8010E94D2
:101CE000C406811115C068E070E0C8010E94250695
:101CF000C8010E948404811104C089E792E00E9417
:101D0000120F48E050E0B80181E597E00E947306A9
:101D100061E080916707811160E080E00E94C1016D
:101D2000CE01B5010E94BF0E009711F460E003C020
:101D3000019721F461E085E10E94C1018FE99FE0F4
:101D40000197F1F700C000000E94FB04A0CF60E003
:101D500076E980E090E00E944F0280EA92E00E94E3
:101D6000120F85E10E947F0180E00E947F010E94A6
:101D700048040E942A0E1092D8000E94A70EAA1BA7
:101D8000BB1B51E107C0AA1FBB1FA617B70710F066
:101D9000A61BB70B881F991F5A95A9F78095909598
:101DA000BC01CD010895A1E21A2EAA1BBB1BFD01A7
:101DB0000DC0AA1FBB1FEE1FFF1FA217B307E4072A
:101DC000F50720F0A21BB30BE40BF50B661F771F82
:101DD000881F991F1A9469F7609570958095909562
:101DE0009B01AC01BD01CF010895A0E0B0E0EBEF95
:101DF000FEE00C941E12AE014B5F5F4FFA01619141
:101E00007191AF0180916B0790916C070E94420F16
:101E1000E2E00C943A1260916B0770916C070E949B
:101E2000391108950F931F93CF93DF93E0916B07C0
:101E3000F0916C07238121FF1BC08C01D0E0C0E032
:101E4000F80181918F0160916B0770916C07DB0144
:101E50001896ED91FC911997882331F00995892BFB
:101E600079F3DFEFCFEFECCF8AE00995892B19F0FA
:101E70008FEF9FEF02C08D2F9C2FDF91CF911F918D
:101E80000F910895ABE0B0E0E8E4FFE00C940E128F
:101E90006C017B018A01FC0117821682838181FF1C
:101EA000CCC1CE0101963C01F6019381F70193FD6F
:101EB000859193FF81917F01882309F4BAC185320E
:101EC00039F493FD859193FF81917F01853229F447
:101ED000B60190E00E943911E7CF912C212C312CD2
:101EE000FFE1F315D8F08B3279F038F4803279F0D5
:101EF0008332A1F4232D20611DC08D3261F0803327
:101F000069F4232D216016C0832D8260382EE32DC5
:101F1000E4603E2E2AC0F32DF8601DC037FC2DC0B2
:101F200020ED280F2A3040F08E32B9F436FC81C102
:101F3000232D2064322E19C036FE06C08AE0989EFA
:101F4000200D1124922E11C0EAE02E9E200D1124A6
:101F5000222EF32DF0623F2E08C08C3621F4832D03
:101F60008068382E02C0883641F4F70193FD8591D0
:101F700093FF81917F018111B3CF982F9F7D95545D
:101F8000933028F40C5F1F4F9FE399830DC0833675
:101F900031F0833771F0833509F059C021C0F80161
:101FA000808189830E5F1F4F88248394912C530175
:101FB00013C02801F2E04F0E511CF801A080B1803F
:101FC00036FE03C0692D70E002C06FEF7FEFC501E0
:101FD0000E942E114C018201F32DFF773F2E16C077
:101FE000280122E0420E511CF801A080B18036FE8B
:101FF00003C0692D70E002C06FEF7FEFC5010E9442
:1020000023114C01F32DF0683F2E820133FC1BC0DD
:10201000822D90E088169906B0F4B60180E290E037
:102020000E9439112A94F4CFF50137FC859137FECF
:1020300081915F01B60190E00E94391121102A942C
:1020400021E0821A91088114910471F7E8C0843666
:1020500011F0893641F5F80137FE07C060817181C2
:10206000828193810C5F1F4F08C060817181072EB0
:10207000000C880B990B0E5F1F4FF32DFF763F2E40
:1020800097FF09C090958095709561957F4F8F4F10
:102090009F4FF0683F2E2AE030E0A3010E947511A7
:1020A000882E861845C0853731F4232D2F7EB22E19
:1020B0002AE030E025C0932D997FB92E8F36C1F0EC
:1020C00018F4883579F0B5C0803719F0883721F0D9
:1020D000B0C0E92FE061BE2EB4FE0DC0FB2DF46050
:1020E000BF2E09C034FE0AC0292F2660B22E06C0BA
:1020F00028E030E005C020E130E002C020E132E01D
:10210000F801B7FE07C060817181828193810C5F05
:102110001F4F06C06081718180E090E00E5F1F4F0D
:10212000A3010E947511882E8618FB2DFF773F2E84
:1021300036FE0DC0232D2E7FA22E891458F434FEB6
:102140000BC032FC09C0832D8E7EA82E05C0B82C92
:10215000A32C03C0B82C01C0B92CA4FE0FC0FE01F3
:10216000E80DF11D8081803321F49A2D997EA92EEE
:1021700009C0A2FE06C0B394B39404C08A2D867829
:1021800009F0B394A3FC11C0A0FE06C0B21488F4F9
:10219000280C922C9B180EC0B21460F4B60180E299
:1021A00090E00E943911B394F7CFB21418F42B18B1
:1021B00002C0982C212CA4FE10C0B60180E390E050
:1021C0000E943911A2FE17C0A1FC03C088E790E06D
:1021D00002C088E590E0B6010CC08A2D867859F0DF
:1021E000A1FE02C08BE201C080E2A7FC8DE2B60135
:1021F00090E00E943911891438F4B60180E390E030
:102200000E9439119A94F7CF8A94F301E80DF11DD9
:102210008081B60190E00E9439118110F5CF222013
:1022200009F442CEB60180E290E00E9439112A946E
:10223000F6CFF6018681978102C08FEF9FEF2B9634
:10224000E2E10C942A12FC010590615070400110EB
:10225000D8F7809590958E0F9F1F0895FC016150CF
:10226000704001900110D8F7809590958E0F9F1FB8
:1022700008950F931F93CF93DF93FB01238121FDDB
:1022800003C08FEF9FEF2CC022FF16C046815781FD
:10229000248135814217530744F4A081B1819D0107
:1022A0002F5F3F4F318320838C93268137812F5FAF
:1022B0003F4F3783268314C08B01EC01FB01008460
:1022C000F185E02D0995892BE1F6D80116968D91BF
:1022D0009C911797019617969C938E931697CE0113
:1022E000DF91CF911F910F910895FA01AA2728300D
:1022F00051F1203181F1E8946F936E7F6E5F7F4FD3
:102300008F4F9F4FAF4FB1E03ED0B4E03CD0670F4E
:10231000781F891F9A1FA11D680F791F8A1F911DA1
:10232000A11D6A0F711D811D911DA11D20D009F4F1
:1023300068943F912AE0269F11243019305D319333
:10234000DEF6CF010895462F4770405D4193B3E01C
:102350000FD0C9F7F6CF462F4F70405D4A3318F0C3
:10236000495D31FD4052419302D0A9F7EACFB4E074
:10237000A6959795879577956795BA95C9F700972C
:102380006105710508959B01AC010A2E06945795CD
:10239000479537952795BA95C9F7620F731F841F24
:1023A000951FA01D0895DC01CB01FC01F999FECF1A
:1023B00006C0F2BDE1BDF89A319600B40D924150CD
:1023C0005040B8F70895F999FECF92BD81BDF89AB3
:1023D000992780B50895A8E1B0E042E050E00C9460
:1023E000D511DC01CB0103C02D910E94FC1141509D
:1023F0005040D0F70895262FF999FECF1FBA92BD0D
:1024000081BD20BD0FB6F894FA9AF99A0FBE0196D5
:1024100008950E94FB11272F0C94FC112F923F92DC
:102420004F925F926F927F928F929F92AF92BF92E4
:10243000CF92DF92EF92FF920F931F93CF93DF9390
:10244000CDB7DEB7CA1BDB0B0FB6F894DEBF0FBEED
:10245000CDBF09942A88398848885F846E847D843A
:102460008C849B84AA84B984C884DF80EE80FD803C
:102470000C811B81AA81B981CE0FD11D0FB6F894B2
:0E248000DEBF0FBECDBFED010895F894FFCF73
:10248E00000000020000000040020000000074077F
:10249E00E40B610BAB0A0000000000000000020418
:1024AE000600000E1427262524171E04050103021C
:1024BE00067573622064657669636520636F6E6668
:1024CE00696775726564005B7761726E5D20666127
:1024DE00696C656420746F2077726974652072610F
:1024EE00776869642064617461006D656D6F7279DF
:1024FE00207772697465207472616E73616374699A
:10250E006F6E207374617274002564206279746535
:10251E0073207772697474656E2061742025640A65
:10252E0000636865636B2C20616464722025642CE3
:10253E00206C656E2025640A00636B3A2025640AC0
:10254E00006D656D6F727920777269746520747293
:10255E00616E73616374696F6E20646F6E650025C2
:10256E00303258200025642000257820257820253B
:10257E00782025642025640A00696E76616C696492
:10258E0020636F6E666967206D656D6F727920646A
:10259E0061746100636F6E666967206D656D6F7241
:1025AE00792069732076616C696564006C61796568
:1025BE0072206F66662025640A006C617965722050
:1025CE006F6E2025640A006E6C3A256420626C3AA8
:1025DE0025640A0063616E63656C206F6E657368B7
:1025EE006F74006B6579646F776E2025640A006BDB
:1025FE00657975702025640A005B7761726E5D20C7
:10260E006661696C656420746F20777269746520E9
:10261E006B6579626F617264207265706F7274009F
:08262E00737461727431000045
:00000001FF
