:100000000C94CB020C94E8020C94E8020C94E802E5
:100010000C94E8020C94E8020C94E8020C94E802B8
:100020000C94E8020C94E8020C9489050C94AD053C
:100030000C94E8020C94E8020C94E8020C94E80298
:100040000C94E8020C94E8020C94E8020C94E80288
:100050000C94E8020C94E8020C94E8020C94E80278
:100060000C94E8020C94E8020C94E8020C94E80268
:100070000C94E8020C94E8020C94E8020C94E80258
:100080000C9415040C94E8020C94E8020C94E80219
:100090000C94E8020C94E8020C94E8020C94E80238
:1000A0000C94E8020C94E8020C94E80200010000B1
:1000B000660212000200007C015B002200004A027E
:1000C0001C002100008E0109002201000A024000EC
:1000D000210100AE010900220200D70133002102F4
:1000E00000C7010900030000780104010309046648
:1000F0000110020309043401300303090400013232
:10010000320330003000300030003000300030006A
:10011000300030003000300030003000300030005F
:10012000300030003000300030003000300030004F
:100130003000000030034B00650072006D00690064
:100140007400650020004B006500790062006F00BC
:1001500061007200640020004400650076006900C0
:1001600063006500000010034B00650072006D0025
:1001700069007400650000000403090409025B00C3
:10018000030100C03209040000020300000009213D
:1001900011010001221C0007058103400002070530
:1001A00002034000080904010001030101000921C4
:1001B0001101000122400007058303080001090422
:1001C0000200010301020009211101000122330094
:1001D0000705840308000105010902A101050919A9
:1001E000012903150025019503750181029501750B
:1001F0000581030501093009311581257F750895B1
:10020000028106093895018106C005010906A10190
:1002100075019508050719E029E7150025018102F8
:1002200095017508810395057501050819012905D2
:10023000910295017503910395067508150026FF37
:10024000000507190029FF8100C006ABFF0A000264
:10025000A1017508150026FF00954009018102954E
:100260004009029102C0120100020000002055F076
:1002700077A5000101020301011F03040000000231
:1002800021030500000003230306000000042503EA
:1002900007000000052703080000000629030900E5
:1002A0000000072B030A000000082D030B000000CC
:1002B00009A2030C0000000A2F030D0000000B31FF
:1002C000030E0000000C33030F0000000D35031077
:1002D0000000000E3703110000000F390312000068
:1002E00000103B0313000000113D03140000001236
:1002F0003F031500000013640316000000144103BF
:1003000017000000154303180000001645031900EC
:1003100000001747031A0000001849031B000000E3
:10032000194B031C0000001A4D031D0000001BDDCB
:1003300001270200001CA1021E0200001D8B031FEA
:100340000200001E6D03200200001F700321020046
:100350000020730322020000217603230200002202
:10036000790324020000237C032502000024D40129
:1003700026020000254F03290000002653032C000D
:10038000000027590328000000285F032B0000000D
:100390002963032A0000002A66033A0000002B6943
:1003A000033B0000002C6C033C0000002D6F033D5C
:1003B0000000002E72033E0000002F75033F000076
:1003C0000030780340000000317B03410000003220
:1003D0007E034200000033810343000000348503A4
:1003E0004400000035890345000000588E03E100F9
:1003F0000000579503E0000000599B03E200000055
:100400005AA003E30000009F8D03E10000009E94CA
:1004100003E0000000A09A03E2000000A19F03E3B4
:10042000000000A3A403E5000000A2AB03E4000069
:1004300000A4B103E6000000A5B603E70000005BDE
:10044000BB034A0000005CC0034D0000005DC40314
:10045000490000005ECB034C0000005FD2034B005C
:10046000000060D9034E00000061E003500000006E
:1004700062E5034F00000063D6035200000064EB06
:1004800003510000006AF003350000006BF8038898
:100490000000006D02048A0000006C09048B00005B
:1004A00000360F043702370237110436023602389D
:1004B00013041E011E01391504380138013A1704CE
:1004C000330134023B1904330233023C1B042D0177
:1004D00087013D1D042E0133013E1F042D022D0214
:1004E0003F2104250134014023043802380241250C
:1004F000042E022D01422704240123014329043143
:10050000018901442B0423012E02452D0435012EBF
:1005100001462F041F012F0247310420012001480A
:10052000330421012101493504310289024A38048A
:10053000220122014B3A04310287024C3C0434026E
:1005400024014D3E0434011F014E400435022F01A9
:100550004F4204260125015044042701260151463B
:10056000042F023002524804300231025346042F55
:1005700001300154480430013101554A0436013636
:1005800001564C0437013701B74E0490000000B803
:1005900053049100000011241FBECFEFDAE0DEBF4C
:1005A000CDBF15E0A0E0B1E0E8E2F0E402C00590C4
:1005B0000D92A036B107D9F727E0A0E6B5E001C05B
:1005C0001D92AA31B207E1F70E947B1C0C94122005
:1005D0000C940000EF92FF920F931F93CF93DF9341
:1005E000EC018C01060F171F8AE4E82E81E0F82E3B
:1005F000C017D10751F48AE090E0DF91CF911F91AD
:100600000F91FF90EF900C94F61C89911F928F939D
:10061000FF92EF920E94E21C0F900F900F900F90AC
:10062000E7CFEF92FF920F931F93CF93DF93EC01ED
:100630008C01060F171F80E5E82E81E0F82EC01709
:10064000D10751F48AE090E0DF91CF911F910F9193
:10065000FF90EF900C94F61C89911F928F93FF925C
:10066000EF920E94E21C0F900F900F900F90E7CF37
:10067000FB01DC01460F571FE417F50709F4089545
:1006800081918D93F9CFAF92BF92CF92DF92EF928B
:10069000FF920F931F93CF93DF93DC01162FEA0194
:1006A00090E061E070E090130BC0DF91CF911F915B
:1006B0000F91FF90EF90DF90CF90BF90AF90089593
:1006C000892F810F382F3695369536957D01E30EAB
:1006D000F11CF701308187705B0101C0AA0C8A957B
:1006E000EAF7892F820F482F4695469546954C0F7D
:1006F0005D2F511DFA01408150E087706B0102C0EF
:10070000CC0CDD1C8A95E2F74C215D21832F8A29D0
:10071000452B21F4EA2DE0958E2F8323F70180836A
:100720009F5FC1CFFC01DB01480F591FE417F5079C
:1007300011F481E0089591918D919817B9F380E0BB
:100740000895FB01DC01460F571FE417F50709F474
:100750000895819190E08D939D93F7CF70E00C9474
:10076000DB1C262F269526952695FC01E20FF11D10
:100770009081677021E030E001C0220F6A95EAF7AE
:10078000442319F0922B9083089520959223FBCF58
:10079000262F269526952695820F911DFC012081F6
:1007A00030E0677081E090E002C0880F991F6A9581
:1007B000E2F72823392381E0121613060CF080E0BB
:1007C00008959B01BA01FC0190E080E08217930735
:1007D00014F080E00895419151914617570711F0A8
:1007E0000196F4CF81E0089508959C0190E080E0A7
:1007F0008217930709F40895EFE9FFE03197F1F7C5
:1008000000C000000196F4CF9C0190E080E08217C8
:10081000930709F4089545E04A95F1F70000019621
:10082000F6CF78940895F89408951F921FB61F92FA
:1008300011248F939F93AF93BF9380916005909104
:100840006105A0916205B09163050196A11DB11DDE
:100850008093600590936105A0936205B093630552
:10086000BF91AF919F918F911F901FBE1F901895C0
:10087000CF93DF9300D000D0CDB7DEB78091600575
:1008800090916105A0916205B0916305BC01CD0115
:100890000F900F900F900F90DF91CF910895A89532
:1008A00014BEE0E6F0E0808188618083108280E8F9
:1008B00085BF85BF1092D8001092900089E0809388
:1008C000910082E08093710080E89EE3909399000C
:1008D000809398001092950010929400089584E5FA
:1008E00091E09F938F930E94E21C2FEF81EE94E0A2
:1008F000215080409040E1F700C00000F89481E072
:100900008093E00080E28093D8001092C9008FE1CC
:100910009EE40197F1F700C000001DBA1092680034
:100920001CBC10BE1FBA10927A0010926E0010927A
:100930006F0010927100109272001092C900109214
:10094000BC0014B817B81AB81DB810BA1092BC0081
:1009500015B818B81BB81EB811BA0C9400380F900F
:100960000F90FFCF80E091E09093170780931607D8
:100970000895E82FE695E695E69593E0E99FF00166
:10098000112435A1282F277081E090E001C0880F45
:100990002A95EAF78095832385A30895E82FE695A5
:1009A000E695E69593E0E99FF001112494A1877004
:1009B00021E030E001C0220F8A95EAF7892F822BCF
:1009C00084A30895E82FE695E695E69593E0E99FE0
:1009D000F001112434A1282F277081E090E001C09C
:1009E000880F2A95EAF78095832384A30895E82F3A
:1009F000E695E695E69563E0E69FF001112444A1B3
:100A0000877021E030E0B90102C0660F771F8A9538
:100A1000E2F7CB01962F9095942394A395A1892B6F
:100A200085A30895662399F0E82FE695E695E69567
:100A300093E0E99FF001112495A1877021E030E057
:100A400001C0220F8A95EAF7922B95A308950C9482
:100A5000B904E82FE695E695E695EF5F93E0E99F08
:100A6000F001112490A1877021E030E002C0220F34
:100A7000331F8A95E2F7892F90E02823392381E0FC
:100A8000121613060CF080E00895E82FE695E6951F
:100A9000E69593E0E99FF001112495A1877021E08C
:100AA00030E001C0220F8A95EAF7892F822785A3BB
:100AB000089586958695869523E0829FC00111242E
:100AC000859608958695869586958F5F23E0829F0B
:100AD000C0011124809608958770089561E00C94F8
:100AE00012050C94B904E82FE695E695E695EF5FBC
:100AF00093E0E99FF001112490A1877021E030E09C
:100B000001C0220F8A95EAF7892F822B80A30895CE
:100B100008951F921FB61F9211248F939F93809167
:100B2000E1001092E10083FF0FC01092E90091E014
:100B30009093EB001092EC0092E29093ED0098E01D
:100B40009093F0001092650582FD809165059F915C
:100B50008F911F901FBE1F9018951F920F920FB676
:100B60000F921124EF92FF920F931F932F933F93B5
:100B70004F935F936F937F938F939F93AF93BF93A5
:100B8000CF93DF93EF93FF931092E9008091E800F9
:100B900083FF5AC09091F1008091F1002091F10003
:100BA0003091F1004091F1005091F1006091F1001D
:100BB0007091F100E2EFE093E800863009F087C021
:100BC0008CEA90E0A0E0B1E0FC01C591D4912C1733
:100BD0003D0709F034C0FC013296C591D4914C1701
:100BE0005D0769F5FC013496459154910696FC0128
:100BF00084916F3F710519F010F06FEF70E0F62EE1
:100C0000861708F4F82EBA018EEFE82E8091E800DE
:100C1000982F9570D9F382FD2CC08F2DF0E2FF152F
:100C200008F480E223303207A9F0FB01982F9923C2
:100C3000A9F0A491A093F10091503196F8CF0796B6
:100C4000A817B90709F0C0CF81E28093EB0011C06B
:100C5000F92EDCCF8B01982F911122C0680F711DE6
:100C60009F2D981BE092E800F812F2CF80E2F81670
:100C700079F3FF91EF91DF91CF91BF91AF919F9168
:100C80008F917F916F915F914F913F912F911F9124
:100C90000F91FF90EF900F900FBE0F901F9018953F
:100CA000E801C41BD50BAC2FF801B491C23048F059
:100CB000A250B0E0C0FD05C0A695B0E0AA59BA4F59
:100CC000BC91B093F10091500F5F1F4FC5CF85309D
:100CD00059F48EEF8093E8008091E80080FFFCCF0C
:100CE00020682093E300C5CF8930C9F5911137C042
:100CF000209365058EEF8093E80081E08093E90002
:100D00008093EB0091EC9093EC0026E32093ED00B0
:100D100032E03093E9008093EB0030EC3093EC004C
:100D20002093ED0023E02093E9008093EB00909363
:100D3000EC0026E02093ED0034E03093E90080934E
:100D4000EB009093EC002093ED008CE691E00E9484
:100D5000FD1C8EE18093EA001092EA008ACF4115D3
:100D6000510539F4913209F06FCF8A3009F06CCF18
:100D700015C041305105B1F4913209F065CF893089
:100D8000A1F78091E80082FFFCCF8091F100809371
:100D90006405809164058BEF8093E8008EEF80936B
:100DA000E80067CF42305105E9F24ECF80E88093EA
:100DB00061001092610081E08093D70080EA809307
:100DC000D80082E189BD09B400FEFDCF80E980939F
:100DD000D8001092E000109265058CE08093E2004C
:100DE000089590916505911102C080E0089593E007
:100DF0009093E9009091E80095FFF7CFF8948093E5
:100E0000F1001092F100FB01CB0106962191209395
:100E1000F100E817F907D1F78AE38093E8007894A6
:100E200081E0089520916505211102C080E00895B8
:100E300023E02093E9002091E80025FFF7CFF89404
:100E4000FC01089621912093F100E817F907D1F7EA
:100E50008AE38093E800789481E008952091650505
:100E6000211102C080E0089521E02093E900209143
:100E7000E80025FFF7CFF894FC01805C9F4F21919B
:100E80002093F100E817F907D1F78AE38093E8008F
:100E9000789481E0089520916505211102C080E0D9
:100EA000089522E02093E9002091E80025FFF7CF84
:100EB000F894FC01805C9F4F2091F1002193E8178A
:100EC000F907D1F78BE68093E800789481E00895E4
:100ED0009091650581E0911101C080E0089586E65A
:100EE00095E0089508951092D800089580E094E068
:100EF0000895F999FECF0C94B01FF999FECF0C9488
:100F0000C81FF999FECF0C94B81FF999FECF0C9425
:100F1000D61F382F292FCB01F999FECF632F722FBF
:100F20000C94A01F382F292FCB01F999FECF632FE6
:100F3000722F0C94BE1FCF93DF93D0E0C0E060E02F
:100F4000CE010E947D072196C11584E0D807B9F72C
:100F5000DF91CF910895089508955198599A509826
:100F6000589A1092B9008CE08093B80008959A01C5
:100F700094EA9093BC009091BC0097FFFCCF880F3F
:100F80008093BB0084E88093BC008091BC0087FF05
:100F9000FCCFFB0190E080E044E88217930724F047
:100FA00084E98093BC00089551915093BB00409315
:100FB000BC005091BC0057FFFCCF0196EECF9A01C8
:100FC00094EA9093BC009091BC0097FFFCCF880FEF
:100FD00081608093BB0084E88093BC008091BC005A
:100FE00087FFFCCFFB0190E080E0A901415051094F
:100FF00064E874EC8217930724F084E98093BC00C2
:101000000895841795075CF47093BC00A091BC0010
:10101000A7FFFCCFA091BB00A1930196EBCF6093FB
:10102000BC00F4CF94EA9093BC009091BC0097FF71
:10103000FCCF880F8093BB0084E88093BC00809134
:10104000BC0087FFFCCF08958093BB0084E88093A9
:10105000BC008091BC0087FFFCCF089584E9809399
:10106000BC0008958F929F92AF92BF92CF92DF9271
:10107000EF92FF920F931F93CF93DF935C01EB01ED
:101080006A0179014801CC15DD0510F5CE010E94F9
:1010900081078C01CE0102960E9481079C010A15EE
:1010A0001B05A1F42496F701D183C083F401318399
:1010B0002083DF91CF911F910F91FF90EF90DF90F0
:1010C000CF90BF90AF909F908F900895892B29F477
:1010D000D0E0C0E030E020E0E6CF2C5F3F4FC20F11
:1010E000D31FD1CFEF92FF920F931F93CF93DF9334
:1010F000D82FC92F7B018A010E947607AC01970186
:1011000062E070E08D2F9C2F0E943208DF91CF911A
:101110001F910F91FF90EF900895CF93DF9300D030
:1011200000D0CDB7DEB7AE014F5F5F4FBE016D5F40
:101130007F4F0E9472088B819C810F900F900F90BF
:101140000F90DF91CF910895CF92DF92EF92FF92AF
:101150000F931F93CF93DF9300D000D0CDB7DEB7AE
:101160006C017B018A01AE014F5F5F4FBE016D5F75
:101170007F4F80E79AEA0E9472086B817C8161153B
:101180007105A9F049815A81460F571F9701C60181
:101190000E9432080F900F900F900F90DF91CF9127
:1011A0001F910F91FF90EF90DF90CF900895F7017E
:1011B00011821082F80111821082ECCFAF92BF929F
:1011C000CF92DF92EF92FF920F931F93CF93DF9313
:1011D00000D000D0CDB7DEB782E891E00E94FD1CC0
:1011E00090E080E00E9481078E37934A09F044C066
:1011F000AE014F5F5F4FBE016D5F7F4F80E19AEAA6
:101200000E947208E980FA80AE014F5F5F4FBE0115
:101210006D5F7F4F80E29AEA0E947208A980BA80CF
:10122000AE014F5F5F4FBE016D5F7F4F80E39AEA73
:101230000E947208C980DA80AE014F5F5F4FBE0125
:101240006D5F7F4F80E49AEA0E94720809811A81DB
:1012500080E79AEA0E948D089C0182E1A816B104F9
:1012600059F48AE0C816D10439F40E291F29012B3C
:1012700019F4232B09F054C08CEA91E00E94FD1C64
:101280000E949B076EE773EA90E080E00E9485076A
:1012900060E27AEA82E090E00E94850762E170E015
:1012A00084E090E00E94850760E37AEA88E190E0BC
:1012B0000E9485076AE070E08AE190E00E9485075D
:1012C00060E77AEA86E290E00E94850770E060E0DD
:1012D00088E290E00E94850780E29AEA0E948D08E9
:1012E0008C01009709F443C046E050E06FEC71E0D8
:1012F0000E94920748E050E066ED71E0C801089650
:101300000F900F900F900F90DF91CF911F910F9141
:10131000FF90EF90DF90CF90BF90AF900C9492072A
:1013200080E29AEA0E948D0846E050E06EE775E0A0
:101330000E94890746E050E06FEC71E08EE795E08F
:101340000E949203882309F497CF89E991E00F90D6
:101350000F900F900F90DF91CF911F910F91FF9001
:10136000EF90DF90CF90BF90AF900C94FD1C0F904A
:101370000F900F900F90DF91CF911F910F91FF90E1
:10138000EF90DF90CF90BF90AF900895CF93DF9311
:1013900080E79AEA0E948D08EC01892B31F00E94C7
:1013A00076079C012C1B3D0BE901CE01DF91CF910B
:1013B000089580E29AEA0E948D080896089580E2D6
:1013C0009AEA0E948D084096089580E39AEA0C9468
:1013D0008D088AE090E0089580E79AEA0C948D08E1
:1013E000CF93DF9300D000D0CDB7DEB7AE014F5F13
:1013F0005F4FBE016D5F7F4F81E79BEB0E94A408AA
:101400008B819C810F900F900F900F90DF91CF9167
:101410000895CF93DF9300D000D0CDB7DEB7AE01F3
:101420004F5F5F4FBE016D5F7F4F84E79BEB0E9474
:10143000A4088B819C810F900F900F900F90DF91EB
:10144000CF910895CF93DF9300D000D0CDB7DEB712
:10145000AE014F5F5F4FBE016D5F7F4F88E79BEB33
:101460000E94A4088B819C810F900F900F900F9089
:10147000DF91CF910895CF93DF9300D000D0CDB707
:10148000DEB7AE014F5F5F4FBE016D5F7F4F88E7F4
:101490009BEB0E94A40889819A810F900F900F9076
:1014A0000F90DF91CF910895CF93DF9300D000D0BC
:1014B000CDB7DEB7AE014F5F5F4FBE016D5F7F4FAF
:1014C00086E79BEB0E94A4088B819C810F900F9074
:1014D0000F900F90DF91CF910895CF92DF92FF92FE
:1014E0000F931F93CF93DF93182F062FF42E8AE8C4
:1014F000C82E85E0D82ED0E0C0E08091880590917C
:101500008905C817D90744F0DF91CF911F910F913A
:10151000FF90DF90CF900895D601ED91FD916D0180
:101520004F2D602F812F09952196E7CFEF92FF92E3
:101530000F931F93CF93DF93D0E0C0E0EE24E394AA
:10154000F12C87010C2E02C0000F111F0A94E2F744
:10155000809186059091870580239123892BA1F0A6
:10156000FE01EC56FA4F40816C2F82E00E946D0A1A
:101570000095109580918605909187058023912391
:1015800090938705809386052196CA30D105C9F6C8
:1015900080918505882339F040E060E081E00E9479
:1015A0006D0A10928505DF91CF911F910F91FF90E9
:1015B000EF900895CF93DF93D82FC92F60918805BE
:1015C00070918905482F592F8AE895E00E94E10320
:1015D000811110C0E0918805F0918905CF01019635
:1015E0009093890580938805EE0FFF1FE657FA4F09
:1015F000D083C183DF91CF910895E82FF0E0E25FBF
:10160000FE4F60830895E82FF0E0E25FFE4F81E037
:101610009081961708F480E00895CF92DF92EF92C0
:10162000FF920F931F93CF93DF9304E915E08EE0B1
:10163000C82E81E0D82ED0E0C0E09FEDE92E91E0E9
:10164000F92EF80181918F01F60191916F019817A0
:1016500068F02196CA30D105A1F7DF91CF911F9193
:101660000F91FF90EF90DF90CF900895FE01E05D25
:10167000FE4F9081F801319790831F929F931F92A4
:101680008F93DF93CF93FF92EF920E94E21CEDB70E
:10169000FEB738960FB6F894FEBF0FBEEDBFD9CF98
:1016A000282F30E0F901E25FFE4F90819617D8F0C5
:1016B0002C563A4FF901608321E030E002C0220F3E
:1016C000331F8A95E2F78091860590918705822BDA
:1016D000932B909387058093860588EE93E09093F3
:1016E0001901809318010895CF93C82F282F30E057
:1016F000F901E25FFE4F90812C563A4FD901EC91EF
:10170000F0E09F01260F371F442389F0692F70E016
:101710006F5F7F4FCB01820F931F0E94911C8E172A
:101720009F0789F0682F8C2FCF910C94500B37FDB9
:1017300007C0892F90E0281739078CF7C901EFCF30
:1017400090E080E0ECCFCF91089590E0FC01E25F63
:10175000FE4F2081261750F08C569A4FFC01608373
:1017600088EE93E090931901809318010895CF9328
:10177000DF930E94E5099093930580939205892B4E
:1017800051F10E94DF09EC010097B1F00E94790746
:10179000853091F04AE050E060E371E0809192057D
:1017A000909193050E94920765E0CE010E947D070B
:1017B0008BE092E00E94FD1C4AE050E064E975E095
:1017C00080919205909193050E9489070E940D0BCC
:1017D00081E080938505DF91CF910895462F50E0F9
:1017E00064E975E00C943803462F50E06EE071E038
:1017F0000C943803E82FF0E0EC56FA4F80810895FE
:101800000C94500BEF92FF920F931F93CF93DF93A3
:101810008C01D0E0C0E0E62EF12CCE15DF0554F0AF
:1018200081E080938505DF91CF911F910F91FF900B
:10183000EF900895F80161918F018C2F0E94A50B04
:101840002196EBCF0F931F93CF9300E311E0C0E0FD
:10185000F80161918F018C2F0E94A50BCF5FCA30D8
:10186000B9F781E080938505CF911F910F9108957D
:10187000813039F460919A05682786E00E94500B08
:101880000895823039F0833061F441E06FEF7FEFEB
:1018900087E004C041E061E070E089E00E94740BE1
:1018A000089541E061E070E0843091F340E060EF42
:1018B0007FEF8530B1F040E060E170E0863089F084
:1018C0008E3789F0873099F08830A1F08930B1F0F7
:1018D00060E08A30C9F061E08B30B1F08C30B1F05B
:1018E000089588E0DBCF81E080938405089560E06F
:1018F00084E0C4CF61E084E00C94500B41E061E0EF
:1019000070E084E00C94740B85E0F6CF41E061E078
:1019100070E085E0F7CF80911801909119011816B9
:101920001906BCF401979093190180931801892B33
:1019300081F48091920590919305009751F04AE0CF
:1019400050E064E975E00E94920789E292E00E940B
:10195000FD1C0E94960A80918405882321F0109234
:1019600084050C946F0408950C94960A84E995E01C
:101970000895EF92FF920F931F93CF938C0184E908
:10198000E82E85E0F82EC0E0F70141917F016C2F31
:1019900082E0F8010995CF5FCA30B1F7CF911F916E
:1019A0000F91FF90EF900895CF93DF930E94F0097D
:1019B000EC010E94C609209741F48AE392E00E945C
:1019C000FD1C80E0DF91CF910895892BB1F345E0B4
:1019D00050E06EE975E0CE010E94890730919F05C5
:1019E0002091A0059091A1058091A20540919E05AE
:1019F000413019F7363009F72430F9F69F3FE9F204
:101A00008131D8F683E592E00E94FD1C81E0DACFB7
:101A1000E091EA05F091EB05309709F009940895FB
:101A20000E946807882351F084EA95E00E942E07FF
:101A3000811104C085E792E00C94FD1C08959091FB
:101A4000A305992359F0823049F485EC8093A405CD
:101A50006093A5054093A6050C94100D08959093EE
:101A6000EB058093EA058FE19DE00E94DA0A0E946F
:101A7000D9099093E9058093E8050E94EC099093B9
:101A8000E7058093E6050E94C6099093E5058093DB
:101A9000E4050895DF92EF92FF920F931F93CF9387
:101AA000DF9384EA95E00E944B07882309F45DC028
:101AB0008091A405803F21F481E00E94080D55C06B
:101AC000813F09F45AC0823F09F059C083EF8093E7
:101AD000A40583E08093A50586E08093A60584E0B5
:101AE0008093A70585E08093A8054AE050E068E967
:101AF00072E089EA95E00E94380346E050E06FEC1E
:101B000071E083EB95E00E943803C1E0C093B90512
:101B10001092BA0588E08093BB0540E150E060E098
:101B20008CEB95E00E94AE0346E050E063EA72E081
:101B30008CEB95E00E94380348E050E06CEC75E0D7
:101B40008091E8059091E9050E9489078091E4055C
:101B50009091E5059827892798279093D50580933C
:101B6000D4050E94100DC093A305DF91CF911F9162
:101B70000F91FF90EF90DF90089582E09ECF843F19
:101B800029F1803B71F1823B91F1833B09F456C00E
:101B9000813B09F4A2C0803C09F4A5C0823C09F451
:101BA000B5C0833C09F4BBC0843C09F4C5C0813D89
:101BB00009F4CBC0823D09F4D8C0803DB1F68091D4
:101BC000A505813009F4DCC083E2C4C048E050E0E0
:101BD00065EA75E08091E8059091E9050E94920719
:101BE000C4CF8AEA92E00E94FD1C80E166CFC091DA
:101BF000A505D091A605DC27CD27DC278091E60539
:101C00009091E705C80FD91F1091A705412F50E00B
:101C100068EA75E0CE010E949207DF93CF931F928E
:101C20001F9389EC92E09F938F930E94E21C0F9088
:101C30000F900F900F900F900F9097CFC091A50528
:101C4000D091A605DC27CD27DC278091E605909171
:101C5000E705C80FD91FE090A705F090A805FE245E
:101C6000EF24FE24FF92EF92DF93CF9381EE92E078
:101C70009F938F930E94E21C0F900F900F900F90F4
:101C80000F900F9010E000E0D12C0E151F05E1F42D
:101C90001F92DF9289EF92E09F938F930E94E21C44
:101CA00084EB8093A405D092A5050E94100D80912D
:101CB000E6059091E705B80102970E9485070F900D
:101CC0000F900F900F9051CFCE01800F911F0E9467
:101CD0007907D8260F5F1F4FD8CF81E093E00E948D
:101CE000FD1C81E1EACE81EC8093A4058AE080931B
:101CF000A5056AE086EA95E00E94EE0B6AE080EBBB
:101D000095E00E94F40B0E94100D2FCF4091A50585
:101D10006091A60587EA95E00E94020C26CF6091AB
:101D2000A6058091A505DF91CF911F910F91FF909E
:101D3000EF90DF900C94000CDF91CF911F910F91E9
:101D4000FF90EF90DF900C94220C8091A5058130DC
:101D500051F081E2DF91CF911F910F91FF90EF90B1
:101D6000DF900C94080D80E2F5CF85EA95E0DF91D5
:101D7000CF911F910F91FF90EF90DF900C9412077D
:101D800082E2E8CFE4EAF5E090EA9083818362831F
:101D90000C94100DE4EAF5E021EA208398278927C6
:101DA0009827928381830C94100DBC0148E050E089
:101DB0008091E8059091E9050C948907E8E7F2E045
:101DC00030E020E0949189130DC0611114C087E0C8
:101DD000829FF001839FF00D1124E558FD4F8591FE
:101DE000959115C02F5F3F4F37962237310551F738
:101DF00090E080E0089587E0829FF001839FF00DDE
:101E00001124E358FD4F85919591009701F30895B2
:101E1000E8E7F2E030E020E0949189130BC087E01E
:101E2000829FF001839FF00D1124E758FD4F8591AB
:101E3000959108952F5F3F4F37962237310561F70F
:101E400090E080E00895CF93DF930E94540AEC0164
:101E5000009749F00E9479078093EE052196D09370
:101E6000ED05C093EC05DF91CF910895AF92BF923D
:101E7000CF92DF92EF92FF920F931F93CF93DF9356
:101E80009C01B62E8C010027107F832F8F70D82ED7
:101E9000D22FC12C85E0A82E8091EE05C816D8F56A
:101EA000E090EC05F090ED05CA9CE00CF11C1124CB
:101EB000C7010E9479078B1511F08F30A9F4C70173
:101EC00001960E947907C82FC70102960E947907E0
:101ED000CC2311F0C53B51F49FEF980F9E3F20F4A7
:101EE000DC1739F1C53B29F1C394D6CFDC13FCCF05
:101EF000D81611F08F3FC1F7C70103960E947907EA
:101F0000C82FC70104960E947907C63B09F0DC2F51
:101F10008E3F09F0D82EC8018D2B9D29DF91CF91DE
:101F20001F910F91FF90EF90DF90CF90BF90AF90F7
:101F30000895D812D9CFE0CFFC019081907681E04E
:101F4000903409F080E00895482FE2EFF5E030E0AA
:101F500020E05EE0529FC001539F900D1124DC01F0
:101F6000AD50BA4F6C9160FF03C06281641749F0B5
:101F70002F5F3F4F3E962A30310561F790E080E0B9
:101F800008958D509A4F08958F929F92AF92BF926D
:101F9000EF92FF920F931F93CF93DF939C01C62F75
:101FA000D0E08E01080F191F60E070E0CB01201710
:101FB000310799F440E024E030E02C1B3D0B421740
:101FC0001306E4F0DF91CF911F910F91FF90EF90F6
:101FD000BF90AF909F908F9008958824962EA72E43
:101FE000B82E79014FEFE41AF40AC9010E9479076B
:101FF0009401282BC501B9019701D9CF982F872FBC
:10200000762F66274F5FDBCFCF92DF92EF92FF9262
:102010000F931F93CF93DF9300D000D0CDB7DEB7DF
:1020200069837A838B839C83042F6091F0058B8175
:102030009C810E94360F9C018827907F9A83898318
:10204000832F8F70922F49EA420F443050F4275566
:10205000330B41E050E001C0440F2A95EAF7842B8E
:1020600090E029813A81292B382B3A832983998161
:10207000A90170E060E0C52ED62EE72EFF24152FB3
:102080001F7020E09923C9F061E08091EF05813055
:1020900009F060E089810E94DE0EBC0189819A818D
:1020A00071FB222720F994FF20E0217070FF04C00B
:1020B0006894C1F81C2D1F70962F822F880F802BDB
:1020C0001295107F812B837F0F900F900F900F90B0
:1020D000DF91CF911F910F91FF90EF90DF90CF9004
:1020E0000895382F3170827F79F0832B2091C606B6
:1020F000E22FF0E0EE0FFF1FEA54F94F80831182C8
:102100002F5F27702093C606992371F08091C60631
:10211000E82FF0E0EE0FFF1FEA54F94F3083918370
:102120008F5F87708093C6060895CF93DF934091A9
:102130007F0650918006C82FD0E09A01082E02C079
:10214000369527950A94E2F720FF2BC021E030E076
:10215000082E02C0220F331F0A94E2F72095309513
:10216000242335233093800620937F061F928F937C
:1021700088E594E09F938F930E94E21CCC0FDD1FB3
:10218000CA56D94F8981982F9F700F900F900F904A
:102190000F9039F08295807F90E0DF91CF910C9481
:1021A0007110DF91CF910895CF92DF92EF92FF925D
:1021B0000F931F93CF93DF93F82EE090910601E9E0
:1021C00016E0D0E0C0E0C62E660FDD08CE1548F060
:1021D000DF91CF911F910F91FF90EF90DF90CF9003
:1021E0000895CC16DD0641F0F80185818770F8125C
:1021F00003C08C2F0E94951021960E5F1F4FE6CFD3
:102200000F931F93CF93C82F082F10E080917F0664
:10221000909180060C2E02C0969587950A94E2F75D
:1022200080FD39C0000F111FF801EF56F94F85816D
:10223000877019F06C2F0E94D41021E030E00C2E32
:1022400002C0220F331F0A94E2F780917F0690911B
:102250008006822B932B9093800680937F061F929B
:10226000CF9386E694E09F938F930E94E21CF8013F
:10227000EA56F94F8181982F9F700F900F900F9021
:102280000F9049F08295807F816090E0CF911F91FF
:102290000F910C947110CF911F910F9108950F938E
:1022A0001F93CF93DF93EC016A857B858C859D8599
:1022B0006115710581059105E9F08B019C014EE1E5
:1022C00036952795179507954A95D1F70130B9F4BA
:1022D00040E00E9404100E94711080917F0690914E
:1022E0008006892B19F480E00E9400111A861B8653
:1022F0001C861D86DF91CF911F910F9108950330A9
:1023000061F7292F2770213041F78B019C0194E15F
:1023100036952795179507959A95D1F70F70013047
:10232000E1F68F700E949510D8CF0F931F938B0109
:102330009C01DC01CB014EE1B695A7959795879559
:102340004A95D1F7813089F441E0C9010E94041017
:102350000E947110809181068F3FF9F08091820672
:102360008F3FD9F41092820618C0833099F7832FDB
:102370008770813009F042C0D901CB0134E1B695B4
:10238000A795979587953A95D1F78F70122F1F7063
:10239000813071F4812F0E94001180917F0690910D
:1023A0008006892BF1F580E01F910F910C940011AC
:1023B000823081F3833021F4812F0E949510EDCF7C
:1023C000843069F480917F0690918006012E02C0CE
:1023D000969587950A94E2F780FDEECFDBCF8530A6
:1023E000E1F6812F0E940011109381068FEF8093F8
:1023F00082068CEB94E00E94FD1CCFCF823031F43A
:102400006FEF822F87700E94D410A4CF833009F021
:10241000A1CF9927832F722F612F822F0E94380C12
:1024200099CF1F910F9108952F923F924F925F92F3
:102430006F927F928F929F92AF92BF92CF92DF92D4
:10244000EF92FF920F931F93CF93DF9300D000D0B2
:1024500000D00F92CDB7DEB7382E4B0191E9A92EEF
:1024600096E0B92E2FE0C22ED12CFC2CCA82C401DA
:102470000C2C02C0969587950A94E2F780FD25C042
:1024800021E0C21AD10832E0A31AB1084FEFC416F6
:10249000D40659F790E080E027960FB6F894DEBF97
:1024A0000FBECDBFDF91CF911F910F91FF90EF90A5
:1024B000DF90CF90BF90AF909F908F907F906F9064
:1024C0005F904F903F902F90089580919206909149
:1024D00093069F838E8380919406909195064E81FA
:1024E0005F814817590778F48E819F810E94790790
:1024F000182F8E819F8101960E947907912F212F9D
:102500002F7797FD05C0F50184A187FFB9CFC2CF12
:10251000381649F082E0820F2E813F81280F311D4D
:102520003F832E83D8CF8E819F81009761F30E94D5
:102530007907EE81FF813296FF83EE838F778F01DB
:10254000080F111D8E819F8180179107E0F68E8103
:102550009F810E947907982F8F708F1531F12E81FE
:102560003F812F5F3F4F9295977091509330D8F4F1
:10257000C9010E947907982F929596959695937028
:10258000282F2770920F9F5F869586958695877076
:10259000980F2E813F812E5F3F4FA901490F511D9A
:1025A0005F834E83CFCF90E0F8CFEE81FF813097ED
:1025B00009F4A9CFCF010E947907182F129517703F
:1025C0008CEF810F823058F51093830610928406A9
:1025D0001092850610928606109287061092880641
:1025E0001092890610928A0610928B0610928C0621
:1025F00010928D0610928E0610928F06FFEFF093C8
:10260000900680918306853009F43ACF843009F42E
:1026100041CF882309F434CF83E896E03DCF8E8103
:102620009F8101960E947907082FE82EE294E69494
:10263000E69483E0E822E3942E813F812E5F3F4FB2
:102640003F832E836E2DC9010E94C40F262E7B83EB
:102650008C839D838EEF810F823008F03FC0802FE6
:1026600086958695869587708983F12C682F8E8153
:102670009F818E0D9F1D0E94C40F2B013C011330C2
:1026800089F5602F6770C7013981830F911D4E81D5
:102690005F81840F951F0E94C40F109383062092C0
:1026A00084065B8150938506EC81E0938606FD816C
:1026B000F0938706409288065092890660928A06B7
:1026C00070928B0660938C0670938D0680938E06B5
:1026D00090938F062A812093900693CF412C512C02
:1026E000612C712C60E070E080E090E0D6CF0F9319
:1026F0001F93CF93DF93EC018B819C81860F911DFB
:102700009C838B838881982F9F79988391FD05C046
:1027100082FF03C08D7982628883888181FF05C032
:1027200082FD03C08D79806488838091F2058F3F9C
:1027300021F091E02981281301C090E0888190FB6D
:1027400083F9888328853985232BE1F480768032CC
:10275000C9F400917F0610918006B80189810E941A
:102760001412FC01892B71F085858D831F830E83E4
:10277000E081F0E0EE0FFF1FE65CFE4F808191816B
:1027800099878887E885F985309741F0CE010995CA
:10279000882321F01F821E8219861886DF91CF912F
:1027A0001F910F9108951F93CF93DF9300D000D016
:1027B00000D0CDB7DEB78D839E83162FAD81BE814D
:1027C00016966D917C91179711968C910E94141218
:1027D000FC01892BC1F0113001F581819281A38127
:1027E000B48189839A83AB83BC83BC01CD010E94F1
:1027F000951189819A81AB81BC81ED81FE818287AF
:102800009387A487B58726960FB6F894DEBF0FBED0
:10281000CDBFDF91CF911F910895123029F48581AA
:102820009681A781B085DDCF81859285A385B4850A
:10283000D8CFCF93DF93EC018A8124E0829FC0013F
:102840001124682B6A831C821B826B3149F461E07E
:10285000CE010E94D313CE01DF91CF910C944F1182
:10286000673021F0673641F461E001C062E0CE01DB
:10287000DF91CF910C94D313663629F0623059F36F
:10288000DF91CF91089563E0E3CFCF92DF92EF9293
:10289000FF920F931F93CF93DF93EC018881182F42
:1028A0001295169513700A81EB80FC8081FBCC2475
:1028B000C0F883FBDD24D0F8113061F4063029F430
:1028C00061E088ECE816F10440F11A8261E0CE0183
:1028D0000E941914013081F0093119F1063061F1BB
:1028E0001230B1F180E0DF91CF911F910F91FF90F5
:1028F000EF90DF90CF900895CC2041F088ECE8165F
:10290000F104A0F163E0CE010E941914123051F7D6
:1029100088ECE816F104E0F462E0CE010E9419149C
:10292000E1CFCC20B9F088ECE816F104D8F063E0F0
:10293000CE010E941914D4CFC110D2CF63E088EC2D
:10294000E816F10468F2CE010E94191481E0CBCFA1
:102950001A8206C0123031F688ECE816F104C0F78E
:1029600062E0F1CF123009F0BDCFFACFD110CACF5B
:10297000123091F2B7CFCF93DF93EC018A8124E03C
:10298000829FC0011124682B6A831C821B826630DF
:1029900049F461E0CE010E94D313CE01DF91CF91C3
:1029A0000C944F11673021F0693141F461E001C0AE
:1029B00062E0CE01DF91CF910C94D313623069F3C2
:1029C000DF91CF910895CF92DF92EF92FF920F9314
:1029D0001F93CF93DF93EC018881182F12951695E2
:1029E00013700A81CB80DC8081FBEE24E0F883FB4E
:1029F000FF24F0F8113061F4063029F461E088EC2E
:102A0000C816D10460F11A8261E0CE010E94BB14A5
:102A1000013059F0063039F5E11005C063E088EC6B
:102A2000C816D10430F580E028C0EE2089F063E0BC
:102A300088ECC816D10498F4FF2021F063E0CE01A1
:102A40000E94BB14123079F709C0093161F70FC039
:102A5000123049F788ECC816D10428F762E0CE019D
:102A60000E94BB14E0CF1230F1F6073071F71A82E2
:102A700062E0CE010E94BB1481E0DF91CF911F91F3
:102A80000F91FF90EF90DF90CF900895FC0190811F
:102A9000929596959370913039F4928361E0CF01CD
:102AA0000E94D31380E008959230E1F79283CF0122
:102AB0000E944F1181E008958093EF05089580935F
:102AC000F0050895AF92BF92CF92DF92FF920F93DD
:102AD0001F93CF93DF930E94F0095C010E94090AC3
:102AE000EC010E94220A8C010E943B0A6C01C50184
:102AF00004960E947907F82E80939106109393060E
:102B0000009392060C0D1D1D1093950600939406DC
:102B1000DF92CF921F928F9383E794E09F938F93DE
:102B20000E94E21C06E916E00F900F900F900F90A4
:102B30000F900F905801D12C80E090E0DF1448F402
:102B4000CE010E947907C82ECE0101960E94790716
:102B50009C2DD5018D939D935D01D3942296B0E178
:102B6000DB12EACF0E94230FE8ECF6E088E0DF01F9
:102B70001D928A95E9F71092D0061092D106109214
:102B8000D2061092D3061092D4061092D506109257
:102B9000D6061092D7061092D8061092D906109237
:102BA000DA061092DB064091910690E080E030E07A
:102BB00020E061E070E0841708F44DC03093800697
:102BC00020937F068FEF8093810680938206809307
:102BD000F205E2EFF5E090E080E04EE03FEF489F45
:102BE000D001499FB00D1124ED01CD50DA4F28815D
:102BF0002E7F288332831382AE50BA4F11962C91C8
:102C00001197297F11962C93119715821482119692
:102C10002C911197277E11962C933683108617825C
:102C20001286118628812F792883138614861586AB
:102C3000168601963E968A30910589F681E080934A
:102C4000F105DF91CF911F910F91FF90DF90CF9011
:102C5000BF90AF900895D801ED91FD918D01F5FFE2
:102C600009C0FB01082E02C0EE0FFF1F0A94E2F715
:102C70002E2B3F2B01969FCF8093EF0508958093D5
:102C8000F00508958091F105882361F1E0EDF6E00B
:102C900080E030E020E041E050E09191992339F06C
:102CA000BA01022E01C0660F0A94EAF7862B2F5F45
:102CB0003F4F2430310589F7823031F481E0909123
:102CC000D406911180E0880F8093C80686E0E5ED78
:102CD000F6E0AAECB6E001900D928A95E1F788EC57
:102CE00096E0089548E050E060E088EC96E00E94AD
:102CF000AE03F5CF8091F105882309F485C080915A
:102D0000C7069091C606981B977009F445C0E82F36
:102D1000F0E0EE0FFF1FEA54F94F9081492F4295E2
:102D20004F7021818F5F87708093C706892F8270D3
:102D300050E090FF36C0882329F08091D4068F5F41
:102D40008093D406E8ECF6E090E080E0BA01082E2B
:102D500002C0759567950A94E2F760FF03C030855D
:102D60003F5F3087019631968430910579F72223B1
:102D700099F08091DB0696E08F5F863009F480E061
:102D8000E82FF0E0E853F94F3585332311F09150E7
:102D900099F78093DB06258780917F0690918006C6
:102DA0000895882339F08091D406882319F0815042
:102DB0008093D406E8ECF6E090E080E0BA01082EBB
:102DC00002C0759567950A94E2F760FF05C03085EB
:102DD000332311F0315030870196319684309105BC
:102DE00069F72223C9F2E5EDF6E090E080E0319149
:102DF000321305C08853994FFC011586CDCF01963B
:102E000086309105A1F7C8CF90E080E00895CF9378
:102E1000DF93C82FD62F8091F105882309F448C08D
:102E20008C2F0E94A40FDC01DD23E9F1892B29F509
:102E300090E080E02EE0289FF001299FF00D112402
:102E4000DF01AD50BA4F3C9130FD1CC0DF01AD50E9
:102E5000BA4FEE50FA4FC2831382158214828FEF5D
:102E60008683108617821286118681818078816020
:102E700081831386148615861686C093F2058C917D
:102E8000846015C001968A309105A9F61F92CF93F0
:102E900087E994E09F938F930E94E21C0F900F901C
:102EA0000F900F9005C0892B19F08C918B7F8C931C
:102EB000DF91CF910895CF92DF92EF92FF920F931F
:102EC0001F93CF93DF93C82F8091F105882309F4D6
:102ED0007FC083EFE82E85E0F82E670110E000E068
:102EE000DEE0D09FF001D19FF00D1124ED50FA4F9C
:102EF000808180FF0AC0F60191818091F2059817C8
:102F000021F06C2FC6010E9477130F5F1F4FFEE068
:102F1000CF0ED11C0A30110521F710E000E0DEE0F1
:102F2000D09FF001D19FF00D1124ED50FA4F808118
:102F300080FF0AC0F70191818091F205981304C0C7
:102F40006C2FC7010E9477130F5F1F4FFEE0EF0E3B
:102F5000F11C0A30110521F78FEF8093F205A2EFE3
:102F6000B5E030E020E08EE0829FF001839FF00D1D
:102F70001124ED50FA4F908190FF0AC091FD08C0D6
:102F800019964D915C911A97452B11F49E7F908371
:102F90002F5F3F4F1E962A30310531F78091810611
:102FA0008F3FB1F06091820667FD12C06C0F609395
:102FB000820663336CF085EB94E00E94FD1C8091E7
:102FC00081060E9495108FEF809381068093820680
:102FD000DF91CF911F910F91FF90EF90DF90CF90F5
:102FE00008951092F10508950E94D40C81110C945B
:102FF00062150C94F117CF93C82F8091FA068C17A5
:10300000A1F087EC94E0CC2311F084EC94E09F9342
:103010008F938BEC94E09F938F930E94E21CC0935C
:10302000FA060F900F900F900F90CF910895CF93C5
:10303000C82F8091FB068C17D9F087EC94E0CC2345
:1030400011F084EC94E09F938F938CED94E09F9328
:103050008F930E94E21CC093FB060F900F900F907D
:103060000F90C11105C082EE96E0CF910C9412072B
:10307000CF910895823039F480E00E94171880E0E3
:103080000E94FB170895803129F0813131F40E94AC
:10309000F41708950E94F1170895803239F08132B3
:1030A00041F0823241F0833249F0089581E00C947E
:1030B000171880E0FCCF81E00C94FB1780E0FCCF78
:1030C000CF93DF93D62FC42F813031F480E698E17F
:1030D000DF91CF910C94B90CE091F806F091F906CC
:1030E000309751F00190F081E02D309729F06C2F4E
:1030F0008D2FDF91CF910994D11114C081E0C111BE
:1031000001C080E080932301E091F806F091F90678
:10311000309729F00280F381E02D309741F7DF915D
:10312000CF910895D13039F481E0C11101C080E020
:1031300080932201E9CFD23039F481E0C11101C07E
:1031400080E080932101E0CFD33039F481E0C130B9
:1031500009F080E080932001D7CFD430B1F48C2FD8
:103160000E943C1684EF94E0C13011F480EF94E0AB
:103170009F938F9382E095E09F938F930E94E21C30
:103180000F900F900F900F90BFCFD53009F0BCCFAC
:103190008C2F0E943F168DEF94E0C13011F487EF21
:1031A00094E09F938F9385E195E0E6CFCF93DF93F3
:1031B000C82FD62FE091DC06F091DD06309709F09C
:1031C000099580910A0790910B07009739F08C0FB1
:1031D000911DFC01C081CF3F09F43FC0DD2379F18F
:1031E0001F92CF938AE295E09F938F930E94E21CF7
:1031F0000F900F900F900F908C2F80931E01809155
:103200002301882321F06D2F8C2F0E94C20EE091A4
:10321000F806F091F906309741F00680F781E02D2D
:10322000309719F06D2F8C2F09958091FB06811135
:1032300014C06D2F8C2FDF91CF910C9407171F9224
:10324000CF9386E395E09F938F930E94E21C0F90AB
:103250000F900F900F908FEFD0CFDF91CF91089507
:10326000CF93DF93D82FC92F6091EF0670E0482FDE
:10327000592F80EF96E00E94E10381110DC0E0918B
:10328000EF0681E08E0F8093EF06F0E0EE0FFF1F58
:10329000E051F94FD083C183DF91CF910895CF934F
:1032A000DF93D82FC92F6091EC0670E0482F592F7B
:1032B0008DEE96E00E94E10381110DC0E091EC06D5
:1032C00081E08E0F8093EC06F0E0EE0FFF1FE351DC
:1032D000F94FD083C183DF91CF9108959093EB068E
:1032E0008093EA06089590930B0780930A07089548
:1032F0009093F9068093F806089581E080931F016A
:10330000089588E097E0089586E097E00895CF93C8
:10331000DF930E94AB070E94DE0880E698E10E94DE
:10332000DA0A0E94B70B0E94F4178AE398E10E9420
:103330002F0D0E946F07EC014AE050E068E972E04F
:103340000E94380346E050E06FEC71E0CE010A962F
:103350000E943803CE014096DF91CF910C94D50E98
:10336000CF93C0E08091EF06C81710F0CF91089579
:10337000EC2FF0E0EE0FFF1FE051F94F0190F081CC
:10338000E02D309719F086E097E00995CF5FEACFFE
:103390008F929F92AF92BF92CF92DF92EF92FF9265
:1033A0000F931F93CF93DF930E9438046B017C012E
:1033B0008091DE069091DF06A091E006B091E106D3
:1033C00046015701881A990AAA0ABB0A85E6881697
:1033D0009104A104B10428F084E6882E912CA12C3C
:1033E000B12CC0E06C2F88E097E00E94C803182F32
:1033F0006C2F86E097E00E94C803D82F11119EC061
:1034000061E081119EC04D2F6C2F88E097E00E94F3
:10341000B103CF5FCF3031F7882D0E945B170E9438
:103420007A16EC010E9442168C018091040790915B
:103430000507C817D90709F468C0809123018823BC
:1034400019F0CE010E94CA0EE091F806F091F9063B
:10345000309739F00480F581E02D309711F0CE01DE
:103460000995D0930507C0930407D0931B01C0931F
:103470001A01C1E048E050E06CEF76E0C8010E941C
:103480009203811144C08091FA06811103C0C801E2
:103490000E94120748E050E0B8018CEF96E00E94CD
:1034A000380380E495E09F938F930E94E21CCCEF59
:1034B000D6E00F900F900AE411E089911F928F934C
:1034C0001F930F930E94E21C0F900F900F900F908C
:1034D00087E0C430D80789F78DE495E09F938F93F8
:1034E0000E94E21C809105078F93809104078F93BF
:1034F00081E595E09F938F930E94E21C0F900F90BF
:103500000F900F900F900F9004C0C0E0B3CFC11187
:10351000C8CFC092DE06D092DF06E092E006F092BD
:10352000E106DF91CF911F910F91FF90EF90DF9017
:10353000CF90BF90AF909F908F900895811163CFEF
:1035400060E08C2F0E94D6185ECF809122018823E4
:1035500051F09091080780910907982B81E009F4B8
:1035600080E00C94DB1B089580912201882351F0A8
:103570009091060780910707982B81E009F480E07D
:103580000C94DB1B089580912101882351F081E088
:103590000E94CD1B82E090E00E94F50380E00C9435
:1035A000CD1B0895CF93C0E08091EC06C81710F0B2
:1035B000CF910895EC2FF0E0EE0FFF1FE351F94F8C
:1035C0000190F081E02D0995CF5FEECFE091EA0602
:1035D000F091EB06309709F0099408950E94720764
:1035E0000E944A0D0E948B0C0C94AC079093DD0650
:1035F0008093DC060895CF92DF92EF92FF920F93B3
:103600001F93CF93DF93C82ED62E7A01122FD32F7C
:10361000C0E080911207C81730F1C0E08091110717
:10362000C81760F1C0921207D0921107E0920F07FD
:10363000F092100710930D07D0930E0700930C071C
:10364000C0E080911207C81720F1C0E080911107F7
:10365000C81770F1DF91CF911F910F91FF90EF90FC
:10366000DF90CF900895E0910F07F0911007EC0FD5
:10367000F11D80810E94F704CF5FCBCFE0910D0751
:10368000F0910E07EC0FF11D80810E94F704CF5FCF
:10369000C5CFE0910F07F0911007EC0FF11DD0811D
:1036A0008D2F0E94CE048D2F0E946E05CF5FC9CF53
:1036B000E0910D07F0910E07EC0FF11D80810E9443
:1036C000F704CF5FC3CFCF92DF92EF92FF920F93B9
:1036D0001F93CF93DF93082FF92ED0E0E12CDD2448
:1036E000D39480911207D81748F0DF91CF911F91A2
:1036F0000F91FF90EF90DF90CF900895E0910F072A
:10370000F0911007ED0FF11DC0808C2D0E94710506
:1037100085E090E00E940404C0E01E2D1C0F809103
:103720001107C81730F08C2D0E946E05DF5FE12E67
:10373000D8CFE0910D07F0910E07EC0FF11D8081BD
:103740000E942905482F4D2580910C07612F680F95
:10375000802F9F2D0E94B103CF5FDFCFCF93C42F67
:103760008093250160932401409313078F3F39F024
:103770000E94CE046C2F809125010E941205809139
:1037800024018F3F41F00E94CE046C2F80912401D0
:10379000CF910C941205CF910895682F8091250147
:1037A0008F3F41F090911307992311F091E0692721
:1037B0000C9412050895682F809124018F3F41F0E9
:1037C00090911307992311F091E069270C94120549
:1037D0000895809125018F3F11F00C9445050895BF
:1037E000809124018F3F11F00C944505089541E02C
:1037F00065E180E00C94AE1BCF93DF93CDB7DEB7CD
:1038000028970FB6F894DEBF0FBECDBF0E944F04BD
:103810000E9487190E94D6060E94110419821A82FA
:103820001B821C8288E2C82ED12CE12CF12C90E363
:10383000892E912CA12CB12C20EA422E2FE0522E61
:10384000612C712C89819A81AB81BC81837099270D
:10385000AA27BB27892B8A2B8B2B31F40E94B01906
:103860000E94C8190E94A51A69817A818B819C8166
:10387000A70196010E94A51C613071058105910583
:1038800031F469817A818B819C810E94D21A69818D
:103890007A818B819C81A50194010E94A51C6230D4
:1038A00071058105910531F469817A818B819C8153
:1038B0000E94E61A69817A818B819C81A301920121
:1038C0000E94A51C633071058105910511F40E94C9
:1038D000C31A0E94EE1A81E090E00E94F5038981EC
:1038E0009A81AB81BC810196A11DB11D89839A8308
:1038F000AB83BC83A7CF0E94F71B0E94B20400E0F9
:1039000022E431E045E451E063E085E00E94FB1AE7
:1039100083E69BE10E9430190E94FC1B90E080E04E
:10392000089597FB072E16F4009407D077FD09D071
:103930000E94C71C07FC05D03EF4909581959F4FCF
:103940000895709561957F4F0895A1E21A2EAA1BE4
:10395000BB1BFD010DC0AA1FBB1FEE1FFF1FA2173F
:10396000B307E407F50720F0A21BB30BE40BF50B3C
:10397000661F771F881F991F1A9469F760957095C5
:10398000809590959B01AC01BD01CF010895AA1BC4
:10399000BB1B51E107C0AA1FBB1FA617B70710F03A
:1039A000A61BB70B881F991F5A95A9F7809590956C
:1039B000BC01CD010895DC0101C06D934150504020
:1039C000E0F70895B0E0A0E0E8EEFCE10C94EB1F16
:1039D000FE01359661917191AF018091160790912A
:1039E00017070E94291DE2E00C940720609116073A
:1039F000709117070E94121F08950F931F93CF9382
:103A0000DF93E0911607F0911707238100E010E0A3
:103A100021FD0EC00FEF1FEFC801DF91CF911F9165
:103A20000F9108950995892B11F00FEF1FEFCE012B
:103A3000EC0189916091160770911707DB011896C8
:103A4000ED91FC918111EECF8AE00995892B21F34C
:103A5000E1CFAFE0B0E0EFE2FDE10C94DB1F7C01D1
:103A60003B018A01DC0117961C921E921697139651
:103A70008C9181FFBEC19AE0292EFE0131964F0143
:103A8000D70113969C91F30193FD859193FF81914A
:103A90003F01882309F444C1853239F493FD8591AF
:103AA00093FF81913F01853229F4B70190E00E9494
:103AB000121FE6CFB12C412C512CBFE1B51538F0C7
:103AC0008B3209F188F4803201F1833221F157FC05
:103AD0003AC020ED280F2A3040F556FE1FC0B29C98
:103AE000200D1124B22E06C08D3291F0803379F76B
:103AF000689450F8F30193FD859193FF81913F0104
:103B00008111DBCF20C0689451F8689452F8F2CF4D
:103B1000689453F8EFCF689454F8ECCF429C200D92
:103B20001124422E689455F8E5CF8E3229F456FCC4
:103B3000F7C0689456F8DECF8C3619F4689457F8BD
:103B4000D9CF8836B9F2982F9F7D95549330C0F025
:103B5000833681F18337A1F1833509F05BC0D80149
:103B6000CD90DD908D016B2D70E056FC02C06FEFA3
:103B70007FEFC6010E94FC1E5C01689457F80AC0E2
:103B80000C5F1F4FEFE3E983AA24A394B12C6401D7
:103B9000E89457F853FE29C0342CA114B10451F510
:103BA000332009F46DCFB70180E290E00E94121F2C
:103BB0003A94F6CFD8018C9189830E5F1F4FE4CFE2
:103BC000F801C190D1908F016B2D70E056FC02C0BE
:103BD0006FEF7FEFC6010E94071F5C01D9CFB701CD
:103BE00080E290E00E94121F4A944A141B0409F0DC
:103BF000B0F7D2CFF60157FC859157FE81916F0146
:103C0000B70190E00E94121F31103A94B1E0AB1A54
:103C1000B108C3CF843619F0893609F071C0F801B4
:103C200057FE67C061917191819191918F01E52D4E
:103C3000EF76DE2E97FF09C090958095709561957F
:103C40007F4F8F4F9F4F6894D7F82AE030E0A40150
:103C50000E94421FC82EC818AC2C5D2CD6FE0CC08A
:103C6000E89450F8CB1440F4D4FE05C0D2FC03C055
:103C70005D2D5E7E552EAB2C54FE93C0FE01EC0DE7
:103C8000F11D8081803309F085C0652D697E562E37
:103C9000752D7870372E53FC93C050FE8DC0BC2C10
:103CA000A41410F4B40CBA1854FE90C0B70180E309
:103CB00090E00E94121F52FE07C088E751FC88E581
:103CC00090E0B7010E94121FCB1408F48BC0CA9475
:103CD000D12C8FEFC81AD80AC80CD91CD6018E91E6
:103CE0006D01B70190E00E94121F8C149D04B1F782
:103CF00057CF61917191072E000C880B990B96CFCD
:103D0000D52CE894D4F82AE0853729F1F52DF97FF0
:103D1000DF2E8037A1F058F48835A1F08F36D1F02E
:103D2000F701868197812F96E2E10C94F71F88377F
:103D3000B9F7D4FE02C06894D2F820E10CC06894B0
:103D4000D4F8F7CF54FE03C02F2F2660D22E20E1E7
:103D500032E002C028E030E0F801D7FE15C0419102
:103D60005191619171914C875D876E877F878F013B
:103D7000A4016C857D858E859F850E94421FC82E7B
:103D8000C818E894D7F868CF81919191AC0170E0A0
:103D900060E0E9CF52FC02C0A3947ACFA394A3942D
:103DA00077CF852D867809F473CFF6CFB70180E2FF
:103DB00090E00E94121FA394A414C0F3312C74CF7E
:103DC000342C3A18A41408F46FCFF8CF852D8678D8
:103DD00009F47ACF8BE251FE80E257FC8DE2B70105
:103DE00090E070CFB70180E390E00E94121FBA9478
:103DF0006BCF8FEF9FEF97CFFC0105906150704024
:103E00000110D8F7809590958E0F9F1F0895FC01A3
:103E10006150704001900110D8F7809590958E0FF9
:103E20009F1F08950F931F93CF93DF93182F092F90
:103E3000EB018B8181FD09C01FEF0FEF812F902FC8
:103E4000DF91CF911F910F91089582FF14C02E81B1
:103E50003F818C819D81281739073CF4E881F981E5
:103E6000CF0101969983888310838E819F8101966B
:103E70009F838E83E3CFE885F985812F0995892B70
:103E8000A1F3DACFFA01AA27283051F1203181F1CC
:103E9000E8946F936E7F6E5F7F4F8F4F9F4FAF4F52
:103EA000B1E03ED0B4E03CD0670F781F891F9A1F65
:103EB000A11D680F791F8A1F911DA11D6A0F711D19
:103EC000811D911DA11D20D009F468943F912AE025
:103ED000269F11243019305D3193DEF6CF0108950D
:103EE000462F4770405D4193B3E00FD0C9F7F6CF3E
:103EF000462F4F70405D4A3318F0495D31FD405206
:103F0000419302D0A9F7EACFB4E0A695979587959B
:103F100077956795BA95C9F700976105710508957A
:103F20009B01AC010A2E0694579547953795279526
:103F3000BA95C9F7620F731F841F951FA01D0895BE
:103F4000DC01CB01FC01F999FECF06C0F2BDE1BD59
:103F5000F89A319600B40D9241505040B8F7089548
:103F6000F999FECF92BD81BDF89A992780B5089541
:103F7000A8E1B0E042E050E00C94A21FDC01CB01CC
:103F800003C02D910E94C91F41505040D0F70895A1
:103F9000262FF999FECF1FBA92BD81BD20BD0FB665
:103FA000F894FA9AF99A0FBE019608950E94C81FD4
:103FB000272F0C94C91F2F923F924F925F926F92BE
:103FC0007F928F929F92AF92BF92CF92DF92EF92A9
:103FD000FF920F931F93CF93DF93CDB7DEB7CA1B2A
:103FE000DB0B0FB6F894DEBF0FBECDBF09942A8855
:103FF000398848885F846E847D848C849B84AA84FD
:10400000B984C884DF80EE80FD800C811B81AA8189
:10401000B981CE0FD11D0FB6F894DEBF0FBECDBF54
:08402000ED010895F894FFCFB3
:104028000000000200000000F4030000000001018D
:104038000101010101FFFFFFFFFF0000FC06FF0077
:1040480000010101FFFF7EA30A001200000000002A
:10405800010101000100000014009C0F4615E31443
:104068004514242526140E171E0425303258200026
:1040780025642000726573657420746F206466750A
:1040880020626F6F746C6F61646572007573622073
:1040980064657669636520636F6E666967757265C6
:1040A80064006461746173746F7261676520696E1E
:1040B800697469616C697A650073746F72616765A8
:1040C80020646174612076616C696400726573654F
:1040D8007420646174612073746F7261676520660F
:1040E8006F72206E65772070726F6A656374006402
:1040F80078356B453900303030303030303000732F
:10410800797374656D20706172616D657465722074
:1041180076616C75652066697865642025642C2055
:104128002564202D2D3E2025640A0073797374655B
:104138006D20706172616D657465727320696E6956
:104148007469616C697A656400706172616D657427
:1041580065727320736176656400696E76616C6957
:1041680064206B65792061737369676E732064617D
:104178007461006B65792061737369676E7320736E
:10418800746F726167652064617461206973207659
:10419800616C6964005B7761726E5D206661696C51
:1041A800656420746F20777269746520726177681E
:1041B8006964206461746100413135324644324398
:1041C80030310061746D656761006D656D6F72797E
:1041D800207772697465207472616E7361637469A3
:1041E8006F6E20737461727400256420627974653F
:1041F80073207772697474656E2061742025640A6F
:1042080000636865636B2C20616464722025642CEC
:10421800206C656E2025640A00636B3A2025640AC9
:10422800006D656D6F72792077726974652074729C
:10423800616E73616374696F6E20646F6E650041AF
:104248000042004300440045004600470048004A39
:10425800004B004C004D004E004F005000510052E2
:10426800005400550056005700580059005A0045A0
:10427800736300537061636500456E746572005422
:104288006162004253004631004632004633004620
:104298003400463500463600463700463800463971
:1042A800004631300046313100463132004C536807
:1042B800696674004C4374726C004C416C74004C19
:1042C8004755490052536869667400524374726CCA
:1042D8000052416C74005247554900486F6D6500A3
:1042E800456E6400496E736572740044656C65744C
:1042F80065005061676555700050616765446E00E0
:104308004C65667400526967687400446F776E0084
:1043180048616E2F5A656E004B6174612F4869724F
:10432800610048656E6B616E004D7568656E002EA4
:10433800002C0021003F003A003B005F002B002DBD
:10434800002A002F003D0026007C005E007E004011
:104358000023002400C2A50025005C0027002200DD
:104368006000280029007B007D003C003E004B6176
:104378006E610045697375006C61796572206F66BE
:10438800662025640A006C61796572206F6E2025AD
:10439800640A006E756D4C61796572733A25642004
:1043A8006B65794D617070696E67446174615369BA
:1043B8007A653A25640A0063616E6E6F74206174D1
:1043C80074616368206B657920256420746F20739D
:1043D8006C6F740A0063616E63656C206F6E657341
:1043E800686F74006F6E006F6666006F7574707525
:1043F80074206D7574653A2025730A0073696D75AC
:104408006C61746F72206D6F64653A2025730A00C1
:104418004A495300555300416C746572004D6169F7
:104428006E0073797374656D206C61796F75743A79
:104438002025730A00726F7574696E67206368615E
:104448006E6E656C3A2025730A006B6579646F7728
:104458006E2025640A006B657975702025640A0052
:10446800484944207265706F72743A5B005D2C2075
:10447800006C61796572733A20253032580A000061
:00000001FF
