:100000000C94C4020C94E1020C94E1020C94B1082B
:100010000C94E1020C94E1020C94E1020C94E102D4
:100020000C94E1020C94E1020C9423050C94470516
:100030000C94E1020C94E1020C94E1020C94E102B4
:100040000C94E1020C94E1020C94E1020C94E102A4
:100050000C94E1020C94E1020C94E1020C94E10294
:100060000C94E1020C94E1020C94E1020C94E10284
:100070000C94E1020C94E1020C94E1020C94E10274
:100080000C94E1020C94E1020C94E1020C94E10264
:100090000C94E1020C94E1020C94E1020C94E10254
:1000A0000C94E1020C94E1020C94E10200010000C6
:1000B000660212000200007C015B002200004A027E
:1000C0001C002100008E0109002201000A024000EC
:1000D000210100AE010900220200D70133002102F4
:1000E00000C7010900030000780104010309046648
:1000F0000110020309043401300303090400013232
:10010000320330003000300030003000300030006A
:10011000300030003000300030003000300030005F
:10012000300030003000300030003000300030004F
:100130003000000030034B00650072006D00690064
:100140007400650020004B006500790062006F00BC
:1001500061007200640020004400650076006900C0
:1001600063006500000010034B00650072006D0025
:1001700069007400650000000403090409025B00C3
:10018000030100C03209040000020300000009213D
:1001900011010001221C0007058103400002070530
:1001A00002034000080904010001030101000921C4
:1001B0001101000122400007058303080001090422
:1001C0000200010301020009211101000122330094
:1001D0000705840308000105010902A101050919A9
:1001E000012903150025019503750181029501750B
:1001F0000581030501093009311581257F750895B1
:10020000028106093895018106C005010906A10190
:1002100075019508050719E029E7150025018102F8
:1002200095017508810395057501050819012905D2
:10023000910295017503910395067508150026FF37
:10024000000507190029FF8100C006ABFF0A000264
:10025000A1017508150026FF00954009018102954E
:100260004009029102C0120100020000002055F076
:1002700077A50001010203010161030400000002EF
:100280006303050000000365030600000004670324
:1002900007000000056903080000000623020900AA
:1002A0000000076B030A000000086D030B0000004C
:1002B00009E2030C0000000A6F030D0000000B713F
:1002C000030E0000000C73030F0000000D750310F7
:1002D0000000000E7703110000000F7903120000E8
:1002E00000107B0313000000117D031400000012B6
:1002F0007F031500000013A40316000000148103FF
:10030000170000001583031800000016850319006C
:1003100000001787031A0000001889031B00000063
:10032000198B031C0000001A8D031D0000001BC365
:1003300003270200001CC7031E0200001DCB031F81
:100340000200001EAD03200200001FB003210200C6
:100350000020B3032202000021B603230200002282
:10036000B9032402000023BC032502000024BF03BC
:1003700026020000258F03290000002693032C008D
:10038000000027990328000000289F032B0000008D
:1003900029A3032A0000002AA6033A0000002BA983
:1003A000033B0000002CAC033C0000002DAF033DDC
:1003B0000000002EB2033E0000002FB5033F0000F6
:1003C0000030B8034000000031BB034100000032A0
:1003D000BE034200000033C1034300000034C503E4
:1003E0004400000035C9034500000058CE03E10079
:1003F000000057D503E000000059DB03E2000000D5
:100400005AE003E30000009FCD03E10000009ED40A
:1004100003E0000000A0DA03E2000000A1DF03E334
:10042000000000A3E403E5000000A2EB03E40000E9
:1004300000A4F103E6000000A5F603E70000005B5E
:10044000FB034A0000005C00044D0000005D040452
:10045000490000005E0B044C0000005F12044B00DA
:1004600000006019044E00000061200450000000EC
:100470006225044F00000063160452000000642B44
:1004800004510000006A3004350000006B38048815
:100490000000006D42048A0000006C49048B0000DB
:1004A00000364F043702370237510436023602381D
:1004B00053041E011E01395504380138013A57040E
:1004C000330134023B5904330233023C5B042D01F7
:1004D00087013D5D042E0133013ECD012D022D0229
:1004E0003F5F042501340140610438023802416352
:1004F000042E022D014265042401230143670431C7
:1005000001890144690423012E02456B0435012E43
:1005100001466D041F012F02476F0420012001488E
:10052000710421012101497304310289024A7604D0
:10053000220122014B7804310287024C7A043402F2
:1005400024014D7C0434011F014E7E0435022F012D
:100550004F80042601250150820427012601518481
:10056000042F023002528604300231025384042FD9
:1005700001300154860430013101558804360136BA
:1005800001568A043701370111241FBECFEFDAE08C
:10059000DEBFCDBF15E0A0E0B1E0EAEBF1E402C0C0
:1005A00005900D92AC3DB107D9F727E0ACEDB5E071
:1005B00001C01D92A93EB207E1F70E94271D0C94CD
:1005C000D4200C940000EF92FF920F931F93CF93CF
:1005D000DF93EC018C01060F171F86EAE82E81E0FD
:1005E000F82EC017D10751F48AE090E0DF91CF9147
:1005F0001F910F91FF90EF900C94B81D89911F925D
:100600008F93FF92EF920E94A41D0F900F900F9076
:100610000F90E7CFEF92FF920F931F93CF93DF934B
:10062000EC018C01060F171F8CEAE82E81E0F82EF2
:10063000C017D10751F48AE090E0DF91CF911F916C
:100640000F91FF90EF900C94B81D89911F928F939A
:10065000FF92EF920E94A41D0F900F900F900F90A9
:10066000E7CFFB01DC01460F571FE417F50709F43C
:10067000089581918D93F9CFAF92BF92CF92DF927F
:10068000EF92FF920F931F93CF93DF93DC01162F0E
:10069000EA0190E061E070E090130BC0DF91CF9130
:1006A0001F910F91FF90EF90DF90CF90BF90AF9090
:1006B0000895892F810F382F3695369536957D010F
:1006C000E30EF11CF701308187705B0101C0AA0CB9
:1006D0008A95EAF7892F820F482F469546954695C9
:1006E0004C0F5D2F511DFA01408150E087706B0166
:1006F00002C0CC0CDD1C8A95E2F74C215D21832FD2
:100700008A29452B21F4EA2DE0958E2F8323F701CA
:1007100080839F5FC1CFFC01DB01480F591FE417A5
:10072000F50711F481E0089591918D919817B9F32F
:1007300080E00895FB01DC01460F571FE417F50721
:1007400009F40895819190E08D939D93F7CF70E027
:100750000C949D1D262F269526952695FC01E20FCB
:10076000F11D9081677021E030E001C0220F6A9591
:10077000EAF7442319F0922B908308952095922351
:10078000FBCF262F269526952695820F911DFC01DD
:10079000208130E0677081E090E002C0880F991FEF
:1007A0006A95E2F72823392381E0121613060CF02C
:1007B00080E008959C0190E080E08217930709F49F
:1007C0000895EFE9FFE03197F1F700C000000196CE
:1007D000F4CF9C0190E080E08217930709F408951C
:1007E00045E04A95F1F700000196F6CF7894089518
:1007F000F89408951092D800A89514BEE0E6F0E0B1
:1008000080818861808310820895E82FE695E695BF
:10081000E69593E0E99FF001112435A1282F277078
:1008200081E090E001C0880F2A95EAF78095832344
:1008300085A30895E82FE695E695E69593E0E99F70
:10084000F001112494A1877021E030E001C0220F53
:100850008A95EAF7892F822B84A30895E82FE695DD
:10086000E695E69593E0E99FF001112434A1282F45
:10087000277081E090E001C0880F2A95EAF7809503
:10088000832384A30895E82FE695E695E69563E033
:10089000E69FF001112444A1877021E030E0B90106
:1008A00002C0660F771F8A95E2F7CB01962F9095CD
:1008B000942394A395A1892B85A30895662399F089
:1008C000E82FE695E695E69593E0E99FF00111247F
:1008D00095A1877021E030E001C0220F8A95EAF7E8
:1008E000922B95A308950C940504E82FE695E695C0
:1008F000E695EF5F93E0E99FF001112490A18770E6
:1009000021E030E002C0220F331F8A95E2F7892FE1
:1009100090E02823392381E0121613060CF080E0C2
:100920000895E82FE695E695E69593E0E99FF001B6
:10093000112495A1877021E030E001C0220F8A9533
:10094000EAF7892F822785A308958695869586954F
:1009500023E0829FC001112485960895869586958F
:1009600086958F5F23E0829FC001112480960895B1
:100970008770089561E00C945E040C940504E82FE0
:10098000E695E695E695EF5F93E0E99FF001112487
:1009900090A1877021E030E001C0220F8A95EAF72C
:1009A000892F822B80A30895CF93C42F80930101B8
:1009B000609300014093DC058F3F39F00E941A04D8
:1009C0006C2F809101010E945E04809100018F3F95
:1009D00041F00E941A046C2F80910001CF910C9479
:1009E0005E04CF910895682F809101018F3F41F0FF
:1009F0009091DC05992311F091E069270C945E0435
:100A00000895682F809100018F3F41F09091DC059F
:100A1000992311F091E069270C945E040895809168
:100A200001018F3F11F00C94910408958091000111
:100A30008F3F11F00C949104089541E065E180E04E
:100A40000C94D40408951F921FB61F9211248F9303
:100A50009F938091E1001092E10083FF0FC01092FC
:100A6000E90091E09093EB001092EC0092E29093F9
:100A7000ED0098E09093F0001092DE0582FD8091E9
:100A8000DE059F918F911F901FBE1F9018951F929A
:100A90000F920FB60F921124EF92FF920F931F93B4
:100AA0002F933F934F935F936F937F938F939F9376
:100AB000AF93BF93CF93DF93EF93FF931092E9002F
:100AC0008091E80083FF5AC09091F1008091F1007D
:100AD0002091F1003091F1004091F1005091F1002E
:100AE0006091F1007091F100E2EFE093E800863050
:100AF00009F087C08CEA90E0A0E0B1E0FC01C5916C
:100B0000D4912C173D0709F034C0FC013296C591F1
:100B1000D4914C175D0769F5FC01349645915491C9
:100B20000696FC0184916F3F710519F010F06FEF8C
:100B300070E0F62E861708F4F82EBA018EEFE82E34
:100B40008091E800982F9570D9F382FD2CC08F2DED
:100B5000F0E2FF1508F480E223303207A9F0FB0130
:100B6000982F9923A9F0A491A093F1009150319668
:100B7000F8CF0796A817B90709F0C0CF81E2809394
:100B8000EB0011C0F92EDCCF8B01982F911122C000
:100B9000680F711D9F2D981BE092E800F812F2CFAC
:100BA00080E2F81679F3FF91EF91DF91CF91BF9139
:100BB000AF919F918F917F916F915F914F913F91F5
:100BC0002F911F910F91FF90EF900F900FBE0F90FC
:100BD0001F901895E801C41BD50BAC2FF801B491F8
:100BE000C23048F0A250B0E0C0FD05C0A695B0E00C
:100BF000A152BA4FBC91B093F10091500F5F1F4FBB
:100C0000C5CF853059F48EEF8093E8008091E800DD
:100C100080FFFCCF20682093E300C5CF8930C9F561
:100C2000911137C02093DE058EEF8093E80081E0BC
:100C30008093E9008093EB0091EC9093EC0026E325
:100C40002093ED0032E03093E9008093EB0030EC2C
:100C50003093EC002093ED0023E02093E900809393
:100C6000EB009093EC0026E02093ED0034E030930D
:100C7000E9008093EB009093EC002093ED0080EB73
:100C800091E00E94BF1D8EE18093EA001092EA007D
:100C90008ACF4115510539F4913209F06FCF8A306E
:100CA00009F06CCF15C041305105B1F4913209F013
:100CB00065CF8930A1F78091E80082FFFCCF809159
:100CC000F1008093DD058091DD058BEF8093E800D6
:100CD0008EEF8093E80067CF42305105E9F24ECFA6
:100CE00080E8809361001092610081E08093D700DA
:100CF00080EA8093D80082E189BD09B400FEFDCF6F
:100D000080E98093D8001092E0001092DE058CE01C
:100D10008093E20008959091DE05911102C080E079
:100D2000089593E09093E9009091E80095FFF7CF44
:100D3000F8948093F1001092F100FB01CB0106962C
:100D400021912093F100E817F907D1F78AE3809306
:100D5000E800789481E008952091DE05211102C019
:100D600080E0089523E02093E9002091E80025FF2A
:100D7000F7CFF894FC01089621912093F100E81731
:100D8000F907D1F78AE38093E800789481E0089529
:100D90002091DE05211102C080E0089521E020931A
:100DA000E9002091E80025FFF7CFF894FC01805C72
:100DB0009F4F21912093F100E817F907D1F78AE3BB
:100DC0008093E800789481E008952091DE05211158
:100DD00002C080E0089522E02093E9002091E8001D
:100DE00025FFF7CFF894FC01805C9F4F2091F10024
:100DF0002193E817F907D1F78BE68093E800789400
:100E000081E008959091DE0581E0911101C080E0BC
:100E100008958FED95E00895089580E094E0089599
:100E2000F999FECF0C947220F999FECF0C948A2088
:100E3000F999FECF0C947A20F999FECF0C94982062
:100E4000382F292FCB01F999FECF632F722F0C94E5
:100E50006220382F292FCB01F999FECF632F722FF3
:100E60000C948020CF93DF93D0E0C0E060E0CE010F
:100E70000E9414072196C11584E0D807B9F7DF91C5
:100E8000CF910895CF93C82F8091F705882359F00B
:100E9000CA3019F48DE00E9442078091C80085FF96
:100EA000FCCFC093CE00CF910895CF93DF9300D0B5
:100EB00000D0CDB7DEB769837A838B839C8360E4EF
:100EC00072E48FE090E029813A814B815C810E943D
:100ED000581D215031093093CD002093CC00EAEC0D
:100EE000F0E08081817F8660808380818F7C808339
:100EF0008081877F8083E9ECF0E080818860808357
:100F000082E091E09093E6078093E50781E080938B
:100F1000F70586EC91E00F900F900F900F90DF9106
:100F2000CF910C94BF1DE9ECF0E08081877F808336
:100F300082E091E09093E6078093E5071092F70531
:100F4000089552985A9A089520E032E099B1892F75
:100F5000847092FF09C02F3F11F482E00895832F1F
:100F60008A95F1F72F5FF2CF32E02223B1F34A994D
:100F700007C08F3F91F3932F9A95F1F78F5FF7CFCB
:100F8000882359F3820F982F969581E0921730F3BA
:100F900080E00895EF92FF920F931F93CF93DF931A
:100FA00080E022E04A990AC08F3F19F4E29AC0E03B
:100FB00029C0922F9A95F1F78F5FF4CF0CEF15E0CF
:100FC000C0E0882399F387E0E82EF12CD0E00E945E
:100FD000A407823059F30E2C01C0880F0A94EAF757
:100FE000D82B81E0E81AF10890F7CF5FF801D19390
:100FF0008F010E94A4078230C9F2813011F0C03104
:1010000011F7E29A8C2FDF91CF911F910F91FF90F2
:10101000EF9008955A9A882341F080EA8A95F1F773
:101020005A9888E28A95F1F708958CE38A95F1F74A
:101030005A988CE8F7CF9F92AF92BF92CF92DF92EF
:10104000EF92FF920F931F93CF93DF93529A5A9A86
:101050005A9898EC292F2A95F1F79A95F1F7C82F0D
:10106000D0E010E000E07E0181E0E81AF108C0174E
:10107000D10791F40E94A10788EC8A95F1F7E29AD2
:10108000DF91CF911F910F91FF90EF90DF90CF9064
:10109000BF90AF909F90089599249394E016F10625
:1010A00009F0912C87E0A82EB12CF801E45FF94FEC
:1010B0006F01F601808190E00A2C02C0959587951A
:1010C0000A94E2F781700E940A08F1E0AF1AB108B1
:1010D00080F7892D0E940A080F5F1F4FC8CF0C941C
:1010E000A107CF93792FC62F462F50E0682F8CE0B1
:1010F00096E00E94941DC093FB05CF910895F8944B
:101100008091FB050E941B080E94CA078093FA0584
:1011100078940895CF93C091FA056C1708F4C62F00
:101120004C2F50E06CEF75E00E94941D8C2FCF91F6
:1011300008959093F9058093F805E9E6F0E0808141
:101140008F7C80628083EA9A789408951092F905E2
:101150001092F805E9E6F0E080818F7C8083EA98C0
:1011600008951F920F920FB60F9211242F933F9361
:101170004F935F936F937F938F939F93AF93BF939F
:10118000EF93FF930E94CA078093FA051092FB0524
:10119000E091F805F091F905309709F009958091F3
:1011A000FB0581110E941B08FF91EF91BF91AF9148
:1011B0009F918F917F916F915F914F913F912F916F
:1011C0000F900FBE0F901F9018958F929F92AF9225
:1011D000BF92CF92DF92EF92FF920F931F93CF9324
:1011E000DF935C01EB016A0179014801CC15DD0553
:1011F00010F5CE010E9418078C01CE0102960E94C4
:1012000018079C010A151B05A1F42496F701D18348
:10121000C083F40131832083DF91CF911F910F911F
:10122000FF90EF90DF90CF90BF90AF909F908F9006
:101230000895892B29F4D0E0C0E030E020E0E6CF2B
:101240002C5F3F4FC20FD31FD1CFEF92FF920F936E
:101250001F93CF93DF93D82FC92F7B018A010E9460
:101260000D07AC01970162E070E08D2F9C2F0E946A
:10127000E508DF91CF911F910F91FF90EF900895B6
:10128000CF93DF9300D000D0CDB7DEB7AE014F5F74
:101290005F4FBE016D5F7F4F0E9425098B819C814E
:1012A0000F900F900F900F90DF91CF910895CF92F4
:1012B000DF92EF92FF920F931F93CF93DF9300D0B3
:1012C00000D0CDB7DEB76C017B018A01AE014F5F64
:1012D0005F4FBE016D5F7F4F80E79AEA0E9425094C
:1012E0006B817C8161157105A9F049815A81460F96
:1012F000571F9701C6010E94E5080F900F900F90AD
:101300000F90DF91CF911F910F91FF90EF90DF90A1
:10131000CF900895F70111821082F8011182108296
:10132000ECCFAF92BF92CF92DF92EF92FF920F93EA
:101330001F93CF93DF9300D000D0CDB7DEB78FECF3
:1013400091E00E94BF1D90E080E00E9418078E3758
:10135000934A09F044C0AE014F5F5F4FBE016D5F1D
:101360007F4F80E19AEA0E942509E980FA80AE0168
:101370004F5F5F4FBE016D5F7F4F80E29AEA0E9430
:101380002509A980BA80AE014F5F5F4FBE016D5F36
:101390007F4F80E39AEA0E942509C980DA80AE0176
:1013A0004F5F5F4FBE016D5F7F4F80E49AEA0E94FE
:1013B000250909811A8180E79AEA0E9440099C0167
:1013C00082E1A816B10459F48DE0C816D10439F4AD
:1013D0000E291F29012B19F4232B09F04AC089EF8C
:1013E00091E00E94BF1D0E9432076EE773EA90E011
:1013F00080E00E941C0760E27AEA82E090E00E94AE
:101400001C0762E170E084E090E00E941C0760E34A
:101410007AEA88E190E00E941C076DE070E08AE1C2
:1014200090E00E941C0760E77AEA89E290E00E945F
:101430001C0770E060E08BE290E00E941C0780E2F5
:101440009AEA0E9440090097D9F148E050E06CE127
:1014500072E00F900F900F900F90DF91CF911F913E
:101460000F91FF90EF90DF90CF90BF90AF900C94D2
:10147000290780E29AEA0E94400948E050E06CE1C6
:1014800076E00E94200748E050E06CE172E08CE1D9
:1014900096E00E948B03882309F4A1CF86EE91E0A9
:1014A0000F900F900F900F90DF91CF911F910F91A0
:1014B000FF90EF90DF90CF90BF90AF900C94BF1D46
:1014C0000F900F900F900F90DF91CF911F910F9180
:1014D000FF90EF90DF90CF90BF90AF900895CF93A3
:1014E000DF9380E79AEA0E944009EC01892B31F0F2
:1014F0000E940D079C012C1B3D0BE901CE01DF91E1
:10150000CF91089580E29AEA0E94400908960895D2
:1015100080E29AEA0E9440094096089580E39AEAA0
:101520000C9440098DE090E0089580E79AEA0C94CD
:101530004009CF93DF9300D000D0CDB7DEB7AE0126
:101540004F5F5F4FBE016D5F7F4F81E79BEB0E9456
:1015500057098B819C810F900F900F900F90DF9116
:10156000CF910895CF93DF9300D000D0CDB7DEB7F1
:10157000AE014F5F5F4FBE016D5F7F4F84E79BEB16
:101580000E9457098B819C810F900F900F900F90B4
:10159000DF91CF910895CF93DF9300D000D0CDB7E6
:1015A000DEB7AE014F5F5F4FBE016D5F7F4F88E7D3
:1015B0009BEB0E9457098B819C810F900F900F909D
:1015C0000F90DF91CF910895CF93DF9300D000D09B
:1015D000CDB7DEB7AE014F5F5F4FBE016D5F7F4F8E
:1015E00088E79BEB0E94570989819A810F900F90A1
:1015F0000F900F90DF91CF910895CF93DF9300D09C
:1016000000D0CDB7DEB7AE014F5F5F4FBE016D5F5B
:101610007F4F86E79BEB0E9457098B819C810F903F
:101620000F900F900F90DF91CF910895EF92FF925E
:101630000F931F93CF93DF93182F062F86E2E82E88
:1016400086E0F82ED0E0C0E0809124069091250637
:10165000C817D9073CF0DF91CF911F910F91FF90F0
:10166000EF900895D701ED91FD917D01602F812FBD
:1016700009952196E9CF2091240630912506A901EC
:101680004F5F5F4F5093250640932406220F331F70
:10169000F901EA5DF94F918380830895E82FF0E026
:1016A000E95DFE4F60830895853011F4613040F0AC
:1016B000E82FF0E0E95DFE4F81E09081961708F495
:1016C00080E081700895DF92EF92FF920F931F9355
:1016D000CF93DF9300E316E0D0E0C0E085E2E82E90
:1016E00082E0F82EF801D1908F016D2D8C2F0E9491
:1016F000540B811119C0FE01EC5CFE4F8081F80192
:10170000319780831F928F931F92DF92DF93CF9345
:10171000FF92EF920E94A41DEDB7FEB738960FB668
:10172000F894FEBF0FBEEDBF2196CD30D105D1F6A6
:10173000DF91CF911F910F91FF90EF90DF9008956F
:10174000CF93DF93C82FD62F0E94540B882379F0B4
:10175000EC2FF0E0E05DF94FD0836D2F8C2F0E94CD
:10176000160B88EB9BE09093110180931001DF91A1
:10177000CF910895CF93C82F282F30E0F901E95D6C
:10178000FE4F9081205D394FD901EC91F0E09F012F
:10179000260F371F442389F0692F70E06F5F7F4F5A
:1017A000CB01820F931F0E94441D8E179F0789F063
:1017B000682F8C2FCF910C94A00B37FD07C0892F79
:1017C00090E0281739078CF7C901EFCF90E080E04F
:1017D000ECCFCF9108950F931F93CF93DF930E9487
:1017E0008E0A90932F0680932E06892B99F10E94E2
:1017F000880AEC010097B1F00E941007811112C015
:101800004DE050E064E371E080912E0690912F0648
:101810000E94290761E0CE010E94140781E592E051
:101820000E94BF1D4DE050E060E376E080912E06FF
:1018300090912F060E9420070E94630B00E316E0A0
:10184000C0E0F80161918F018C2F0E94160BCF5FD1
:10185000CD30B9F7DF91CF911F910F910895462FA9
:1018600050E060E376E00C943103462F50E067E2ED
:1018700071E00C9431030C94A00BEF92FF920F9344
:101880001F93CF93DF938C01D0E0C0E0E62EF12CC4
:10189000CE15DF053CF0DF91CF911F910F91FF90A6
:1018A000EF900895F80161918F018C2F0E94A00B99
:1018B0002196EECF0F931F93CF9304E311E0C0E086
:1018C000F80161918F018C2F0E94A00BCF5FCD306A
:1018D000B9F7CF911F910F910895813039F460913C
:1018E0003706682787E00E94A00B0895823041F0F8
:1018F000833069F441E06FEF7FEF88E00C94BA0B1E
:1019000041E061E070E08AE00E94BA0B089541E096
:1019100061E070E0843089F340E060EF7FEF853074
:1019200031F040E060E170E0863009F0089589E030
:10193000E5CF809110019091110118161906BCF4A1
:1019400001979093110180931001892B81F480916C
:101950002E0690912F06009751F04DE050E060E385
:1019600076E00E9429078FE692E00C94BF1D08954F
:1019700080E396E00895CF93DF930E94990AEC01EB
:101980000E946F0A209741F480E892E00E94BF1DF8
:1019900080E0DF91CF910895892BB1F345E050E0CD
:1019A0006DE376E0CE010E94200730913E06209143
:1019B0003F06909140068091410640913D0641309E
:1019C00019F7363009F72330F9F69F3FE9F28131F4
:1019D000D8F689E992E00E94BF1D81E0DACFE0915C
:1019E0008906F0918A06309709F0099408950E94BB
:1019F0000207882351F083E496E00E94C806811113
:101A000004C08BEB92E00C94BF1D089590914206A8
:101A100091110FC090EB9093430692E0909344068F
:101A200091EE9093450680934606609347060C948A
:101A3000F70C089590938A068093890686E09DE0CE
:101A40000E943B0B0E94820A90938806809387062F
:101A50000E94950A90938606809385060E946F0ADD
:101A600090938406809383060895CF92DF92FF922D
:101A70000F931F93CF93DF9383E496E00E94E506D4
:101A8000882309F49DC080914306803B09F00CC176
:101A90009091440680914506913009F0ABC08031A9
:101AA00071F48EED92E00E94BF1D81E0DF91CF9135
:101AB0001F910F91FF90DF90CF900C94EF0C80322C
:101AC00009F458C0813209F083C0C0914606D09114
:101AD0004706DC27CD27DC27809185069091860676
:101AE000C80FD91F009148061091490610270127F9
:101AF00010271F930F93DF93CF9385E193E09F937C
:101B00008F930E94A41D0F900F900F900F900F9035
:101B10000F90D12CC12CF12CC016D10609F060C059
:101B20001F92FF928DE293E09F938F930E94A41DDA
:101B300080EB8093430681E08093440682E28093A9
:101B40004506F0924606109247060E94F70C0F9049
:101B50000F900F900F908091850690918606B601A8
:101B60000297DF91CF911F910F91FF90DF90CF905F
:101B70000C941C07C0914606D0914706DC27CD2760
:101B8000DC278091850690918606C80FD91F109199
:101B90004806412F50E069E476E0CE010E94290713
:101BA000DF93CF931F921F938DEF92E09F938F93BC
:101BB0000E94A41D0F900F900F900F900F900F9008
:101BC000DF91CF911F910F91FF90DF90CF900895FB
:101BD0008131B1F785E393E00E94BF1D82E066CFBB
:101BE000CE018C0D9D1D0E941007F8268FEFC81A9C
:101BF000D80A92CF9230A9F0933011F7803901F7CB
:101C000048E050E066E476E080918706909188068F
:101C1000DF91CF911F910F91FF90DF90CF900C94A7
:101C200029078038C9F481E8809345068DE08093C8
:101C300046066DE087E496E00E942F0C6DE084E597
:101C400096E00E94350CDF91CF911F910F91FF908C
:101C5000DF90CF900C94F70C803979F0803AD9F46A
:101C60006091470680914606DF91CF911F910F91B9
:101C7000FF90DF90CF900C943B0C40914606609112
:101C8000470681E08093420688E496E00E943D0C7E
:101C90001092420695CF803B09F092CF81E080936D
:101CA00042060E945A0CF4CF803F79F0803D09F043
:101CB00087CF80914406803109F05AC08091450653
:101CC000813009F053C08AE0F1CE80914406803122
:101CD00009F076CF81E1809344061092450686E0B4
:101CE0008093460680934706C1E0C093480648E0CB
:101CF00050E06CE172E089E496E00E943103C09309
:101D000051061092520648E050E063E576E080917B
:101D10008706909188060E94200780918306909103
:101D2000840698278927982790935C0680935B0602
:101D300040E150E060E08DE596E00E94A70344E0BA
:101D400050E063E573E08DE596E00E94310348E0E2
:101D500050E068E573E08DE696E00E94310383E091
:101D60008093750682E0809376066DCF8BE09ECEE1
:101D7000803209F025CF85E496E0DF91CF911F9165
:101D80000F91FF90DF90CF900C94AC06E3E4F6E067
:101D900090EE908390E99183828363830C94F70C97
:101DA000E3E4F6E020EE208321E9218398278927C8
:101DB0009827938382830C94F70CE3E4F6E020EEFB
:101DC000208322E921839827892798279383828378
:101DD0000C94F70CBC0148E050E08091870690918C
:101DE00088060C942007E8E7F2E030E020E09491C8
:101DF00089130DC0611114C087E0829FF001839F99
:101E0000F00D1124E558FD4F8591959115C02F5F78
:101E10003F4F37962037310551F790E080E0089525
:101E200087E0829FF001839FF00D1124E358FD4F5E
:101E300085919591009701F30895E8E7F2E030E08D
:101E400020E0949189130BC087E0829FF001839F6B
:101E5000F00D1124E758FD4F8591959108952F5F5E
:101E60003F4F37962037310561F790E080E00895C5
:101E7000CF93DF930E94FD0AEC01009749F00E9486
:101E8000100780938D062196D0938C06C0938B0605
:101E9000DF91CF910895AF92BF92CF92DF92EF92F0
:101EA000FF920F931F93CF93DF939C01B62E8C016B
:101EB0000027107F832F8F70D82ED22FC12C85E062
:101EC000A82E80918D06C816D8F5E0908B06F0906C
:101ED0008C06CA9CE00CF11C1124C7010E9410075B
:101EE0008B1511F08F30A9F4C70101960E941007DD
:101EF000C82FC70102960E941007CC2311F0C53BE2
:101F000051F49FEF980F9E3F20F4DC1739F1C53B49
:101F100029F1C394D6CFDC13FCCFD81611F08F3F34
:101F2000C1F7C70103960E941007C82FC701049686
:101F30000E941007C63B09F0DC2F8E3F09F0D82E17
:101F4000C8018D2B9D29DF91CF911F910F91FF909B
:101F5000EF90DF90CF90BF90AF900895D812D9CF77
:101F6000E0CF9C018827907F432F4F702F7739EA6D
:101F7000320F343050F42755330B61E070E001C06C
:101F8000660F2A95EAF7462B20E0822B942B0895C2
:101F9000FC019081907681E0903409F080E0089512
:101FA000482FE1E9F6E030E020E05FE0529FC00119
:101FB000539F900D1124DC01AE56B94F6C9160FF18
:101FC00003C06281641749F02F5F3F4F3F962A306C
:101FD000310561F790E080E008958E56994F08959D
:101FE0008F929F92AF92BF92EF92FF920F931F93A7
:101FF000CF93DF939C01C62FD0E08E01080F191FED
:1020000060E070E0CB012017310799F440E024E054
:1020100030E02C1B3D0B42171306E4F0DF91CF910B
:102020001F910F91FF90EF90BF90AF909F908F9076
:1020300008958824962EA72EB82E79014FEFE41A22
:10204000F40AC9010E9410079401282BC501B901A7
:102050009701D9CF982F872F762F66274F5FDBCF39
:1020600050E0542F44275295507F482B562B5068F0
:1020700050932907409328070895CF93DF93409109
:102080002A0750912B07C82FD0E09A01082E02C0D2
:10209000369527950A94E2F720FF29C021E030E029
:1020A000082E02C0220F331F0A94E2F720953095C4
:1020B0002423352330932B0720932A071F928F93D5
:1020C0008CE894E09F938F930E94A41DCC0FDD1F9A
:1020D000CF5BD84F89818F700F900F900F900F902A
:1020E00031F0809590916907892380936907DF918A
:1020F000CF910895CF92DF92EF92FF920F931F93AB
:10210000CF93DF93F82EE0903C070CE317E0D0E08C
:10211000C0E0C62E660FDD08CE1548F0DF91CF91E6
:102120001F910F91FF90EF90DF90CF900895CC1604
:10213000DD0641F0F80185818770F81203C08C2F0D
:102140000E943D1021960E5F1F4FE6CF0F931F9305
:10215000CF93C82F082F10E080912A0790912B076A
:102160000C2E02C0969587950A94E2F780FD34C044
:10217000000F111FF801E45CF84F8581877019F09A
:102180006C2F0E947A1021E030E00C2E02C0220F4A
:10219000331F0A94E2F780912A0790912B07822B34
:1021A000932B90932B0780932A071F92CF938AE952
:1021B00094E09F938F930E94A41DF801EF5BF84F6A
:1021C00081818F700F900F900F900F9029F0909158
:1021D0006907892B80936907CF911F910F9108950B
:1021E0000F931F93CF93DF93EC018A859B85AC857A
:1021F000BD850097A105B10509F45AC0AC01BD0128
:102200002EE176956795579547952A95D1F74130F8
:1022100009F053C060918F06CD010E944B0F0E94C0
:10222000B10F8C018F77A801952F9F7031F0909599
:1022300020916A07922390936A07882361F161E0F5
:1022400090918E06923009F060E00E94F30E9C019E
:10225000982FA9014427517031FB222720F914FF40
:1022600020E02170452B29F080916B078D7F8093B2
:102270006B07211110926C07992369F0EDE6F7E0E6
:1022800023E737E08191981303C0DF0111971C9277
:102290002E173F07B9F780912A0790912B07892BBA
:1022A00019F480E00E94A6101A861B861C861D86E3
:1022B000DF91CF911F910F910895423061F7AC01EA
:1022C000BD0184E176956795579547958A95D1F735
:1022D0004F70413001F78B2F8F700E943D10DBCF84
:1022E0000F931F93CF938B019C01DC01CB014EE137
:1022F000B695A795979587954A95D1F7813009F0BE
:1023000057C060918F06C9010E944B0F0E94B10F08
:102310008C018F77A801252F2F7029F090916A07E3
:10232000922B90936A078823C1F161E090918E0609
:10233000923009F060E00E94F30E9C01582FBC011E
:102340006627717031FB882780F914FF80E0817067
:1023500090916107672B29F040916B074260409391
:102360006B07882329F09D7019F481E080936C0736
:10237000552399F08091730796E08F5F863009F4BA
:1023800080E0E82FF0E0EF59F84F4485442311F046
:10239000915099F780937307248780912C078F3F82
:1023A000C9F080912D078F3FA9F410922D0712C01C
:1023B000823009F04DC0C32FCF7094E13695279538
:1023C000179507959A95D1F70F70013081F48C2FEE
:1023D0000E94A61080912A0790912B07892B09F063
:1023E00044C080E0CF911F910F910C94A610023051
:1023F00071F3033021F48C2F0E943D10EBCF043099
:1024000069F480912A0790912B070C2E02C09695B3
:1024100087950A94E2F780FDEECFD9CF0530D1F64B
:102420008C2F0E94A610C0932C078FEF80932D074E
:1024300084E295E00E94BF1DCDCF823009F0ADCF80
:102440009927832F722F612F822F0E946D0CA5CFA9
:10245000833009F0A2CF832F8770813071F76FEF3F
:10246000822F87700E947A1098CFCF911F910F9181
:1024700008952F923F924F925F926F927F928F9228
:102480009F92AF92BF92CF92DF92EF92FF920F9303
:102490001F93CF93DF9300D000D000D00F92CDB721
:1024A000DEB7382E4B019CE3A92E97E0B92E2FE022
:1024B000C22ED12CFC2CCA82C4010C2C02C09695D1
:1024C00087950A94E2F780FD25C021E0C21AD10861
:1024D00032E0A31AB1084FEFC416D40659F790E0C2
:1024E00080E027960FB6F894DEBF0FBECDBFDF9118
:1024F000CF911F910F91FF90EF90DF90CF90BF9001
:10250000AF909F908F907F906F905F904F903F9093
:102510002F90089580913D0790913E079F838E8371
:1025200080913F07909140074E815F81481759077E
:1025300078F48E819F810E941007182F8E819F81D1
:1025400001960E941007912F212F2F7797FD05C02C
:10255000F50184A187FFB9CFC2CF381649F082E0D8
:10256000820F2E813F81280F311D3F832E83D8CFCC
:102570008E819F81009761F30E941007EE81FF8199
:102580003296FF83EE838F778F01080F111D8E81A6
:102590009F8180179107E0F68E819F810E9410072E
:1025A000982F8F708F1531F12E813F812F5F3F4F14
:1025B0009295977091509330D8F4C9010E941007FA
:1025C000982F9295969596959370282F2770920F35
:1025D0009F5F8695869586958770980F2E813F819F
:1025E0002E5F3F4FA901490F511D5F834E83CFCF0F
:1025F00090E0F8CFEE81FF81309709F4A9CFCF01A9
:102600000E941007182F129517708CEF810F8230DF
:1026100058F510932E0710922F0710923007109242
:10262000310710923207109233071092340710923C
:10263000350710923607109237071092380710921C
:10264000390710923A07FFEFF0933B0780912E076E
:10265000853009F43ACF843009F441CF882309F456
:1026600034CF8EE297E03DCF8E819F8101960E940C
:102670001007082FE82EE294E694E69483E0E8221F
:10268000E3942E813F812E5F3F4F3F832E836E2D3B
:10269000C9010E94F00F262E7B838C839D838EEFD1
:1026A000810F823008F03FC0802F869586958695F1
:1026B00087708983F12C682F8E819F818E0D9F1DDD
:1026C0000E94F00F2B013C01133089F5602F6770D9
:1026D000C7013981830F911D4E815F81840F951F42
:1026E0000E94F00F10932E0720922F075B815093CA
:1026F0003007EC81E0933107FD81F093320740927F
:102700003307509234076092350770923607609312
:102710003707709338078093390790933A072A81D7
:1027200020933B0793CF412C512C612C712C60E0FE
:1027300070E080E090E0D6CF0F931F93CF93DF93AC
:10274000EC018B819C81860F911D9C838B838881FA
:10275000982F9F79988391FD05C082FF03C08D79E2
:1027600082628883888181FF05C082FD03C08D79E4
:1027700080648883809191068F3F21F091E02981C8
:10278000281301C090E0888190FB83F98883288515
:102790003985232BE1F480768032C9F400912A0731
:1027A00010912B07B80189810E943912FC01892BF5
:1027B00071F085858D831F830E83E081F0E0EE0F3D
:1027C000FF1FEF5BFE4F8081918199878887E885A5
:1027D000F985309741F0CE010995882321F01F82B9
:1027E0001E8219861886DF91CF911F910F9108954F
:1027F0001F93CF93DF9300D000D000D0CDB7DEB7CA
:102800008D839E83162FAD81BE8116966D917C912E
:10281000179711968C910E943912FC01892BC1F0F7
:10282000113001F581819281A381B48189839A83DA
:10283000AB83BC83BC01CD010E94701189819A8158
:10284000AB81BC81ED81FE8182879387A487B587A8
:1028500026960FB6F894DEBF0FBECDBFDF91CF91A5
:102860001F910895123029F485819681A781B08542
:10287000DDCF81859285A385B485D8CFCF93DF93B3
:10288000EC018A8124E0829FC0011124682B6A83B5
:102890001C821B826B3169F461E0CE010E94F81347
:1028A00081E08E8741E06D818981DF91CF910C9429
:1028B0003010673041F0673661F461E0CE01DF919E
:1028C000CF910C94F81362E0CE010E94F81342E01D
:1028D000EACF663629F0623059F0DF91CF91089542
:1028E00063E0CE010E94F81381E08E8743E0DBCFE6
:1028F000CE01DF91CF910C94F010CF92DF92EF9246
:10290000FF920F931F93CF93DF93EC018881182FD1
:102910001295169513700A81EB80FC8081FBCC2404
:10292000C0F883FBDD24D0F8113061F4063029F4BF
:1029300061E088ECE816F10440F11A8261E0CE0112
:102940000E943E14013081F0093119F1063061F125
:102950001230B1F180E0DF91CF911F910F91FF9084
:10296000EF90DF90CF900895CC2041F088ECE816EE
:10297000F104A0F163E0CE010E943E14123051F741
:1029800088ECE816F104E0F462E0CE010E943E1407
:10299000E1CFCC20B9F088ECE816F104D8F063E080
:1029A000CE010E943E14D4CFC110D2CF63E088EC98
:1029B000E816F10468F2CE010E943E1481E0CBCF0C
:1029C0001A8206C0123031F688ECE816F104C0F71E
:1029D00062E0F1CF123009F0BDCFFACFD110CACFEB
:1029E000123091F2B7CFCF93DF93EC018A8124E0CC
:1029F000829FC0011124682B6A831C821B8266306F
:102A000069F461E0CE010E94F81381E08E8741E015
:102A10006D818981DF91CF910C943010673041F046
:102A2000693161F461E0CE01DF91CF910C94F8132C
:102A300062E0CE010E94F81342E0EACF623019F062
:102A4000DF91CF910895CE01DF91CF910C94F010DA
:102A5000CF92DF92EF92FF920F931F93CF93DF936A
:102A6000EC018881182F1295169513700A81CB807E
:102A7000DC8081FBEE24E0F883FBFF24F0F81130CA
:102A800061F4063029F461E088ECC816D10460F1E5
:102A90001A8261E0CE010E94F314013059F0063031
:102AA00039F5E11005C063E088ECC816D10430F5B3
:102AB00080E028C0EE2089F063E088ECC816D104DD
:102AC00098F4FF2021F063E0CE010E94F31412304D
:102AD00079F709C0093161F70FC0123049F788EC66
:102AE000C816D10428F762E0CE010E94F314E0CFAB
:102AF0001230F1F6073071F71A8262E0CE010E94BF
:102B0000F31481E0DF91CF911F910F91FF90EF902F
:102B1000DF90CF900895CF93DF93EC018881829569
:102B200086958370813061F48A8361E0CE010E94D2
:102B3000F81341E06D8189810E94301080E007C068
:102B40008230E1F78A83CE010E94F01081E0DF91AC
:102B5000CF91089580938E06089580938F060895EF
:102B6000AF92BF92CF92DF92FF920F931F93CF93BA
:102B7000DF930E94990A5C010E94B20AEC010E9454
:102B8000CB0A8C010E94E40A6C01C50104960E94E4
:102B90001007F82E80933C0710933E0700933D07E3
:102BA0000C0D1D1D1093400700933F07DF92CF923D
:102BB0001F928F9387EA94E09F938F930E94A41DA6
:102BC00001E417E00F900F900F900F900F900F906F
:102BD0005801D12C80E090E0DF1448F4CE010E942F
:102BE0001007C82ECE0101960E9410079C2DD5011A
:102BF0008D939D935D01D3942296B0E1DB12EACFD1
:102C00000E94380FE1E6F7E088E0DF011D928A9527
:102C1000E9F71092690710926A0710926B071092F9
:102C20006C0710926D0710926E0710926F0710924A
:102C300070071092710710927207109273074091FB
:102C40003C0790E080E030E020E061E070E0841735
:102C500008F452C030932B0720932A078FEF8093FC
:102C60002C0780932D0780939106109229071092CC
:102C70002807E1E9F6E090E080E04FE03FEF489F71
:102C8000D001499FB00D1124ED01CE56D94F2881B6
:102C90002E7F288332831382AF56B94F11962C9121
:102CA0001197297F11962C931197158214821196F2
:102CB0002C911197277E11962C93368310861782BC
:102CC0001286118628812F7928831386148615860B
:102CD0001686178601963F968A30910581F681E027
:102CE00080939006DF91CF911F910F91FF90DF901D
:102CF000CF90BF90AF900895D801ED91FD918D01D7
:102D0000F5FF09C0FB01082E02C0EE0FFF1F0A9459
:102D1000E2F72E2B3F2B01969ACF80938E060895D3
:102D200080938F060895809190068823D1F080913A
:102D3000690790916A07892B90916B07892B909175
:102D40006C0791118D7F8093610786E0EDE6F7E0D7
:102D5000A3E6B7E001900D928A95E1F781E697E04E
:102D6000089548E050E060E081E697E00E94A70304
:102D7000F5CF80919006882329F080912A079091C1
:102D80002B07089590E080E00895809190068823B5
:102D900059F08091280790912907009739F01092F7
:102DA000290710922807089590E080E008950F9376
:102DB0001F93CF93DF93182F062F809190068823BF
:102DC00009F45BC0812F0E94D00FEC01002309F4AD
:102DD0004FC0892BC1F590E080E03FE0389FF001C3
:102DE000399FF00D1124DF01AE56B94F2C91019699
:102DF00020FD2EC0ED01EF56F94F1283138215828C
:102E000014822FEF26831086178212861186218165
:102E10002078216021831386148615861686389FB4
:102E2000F001399FF00D1124EF56F94F10821F92D7
:102E30001F938BEC94E09F938F930E94A41D0F909F
:102E40000F900F900F90109391068881846014C0AA
:102E50008A30910519F61F921F9384EE94E09F9398
:102E60008F930E94A41D0F900F900F900F9005C09C
:102E7000892B19F088818B7F8883DF91CF911F91F7
:102E80000F9108958F929F92AF92BF92CF92DF924F
:102E9000EF92FF920F931F93CF93DF93182F8091A0
:102EA0009006882309F4B6C0C2E9D6E06E01F12C81
:102EB000E12C0FE00E9DF0010F9DF00D1124EE5658
:102EC000F94F808180FF0AC0F601918180919106BF
:102ED000981721F0612FC6010E949C13FFEFEF1A93
:102EE000FF0A2FE0C20ED11C3AE0E316F10411F7FD
:102EF00032E9C32E36E0D32EF12CE12C0FE00E9DEB
:102F0000F0010F9DF00D1124EE56F94F808180FFE6
:102F10000AC0F601918180919106981304C0612F37
:102F2000C6010E949C13FFEFEF1AFF0A2FE0C20EAA
:102F3000D11C3AE0E316F10411F78FEF809391066C
:102F400091E9E92E96E0F92EB12CA12C0FE022E0B8
:102F5000822E25E0922E0A9DC0010B9D900D11241A
:102F6000FC01EE56F94F6F01808180FF19C081FD91
:102F700017C0F70181859285892B91F4878581118E
:102F80000FC082811F928F939F928F920E94A41DE7
:102F9000F60180818E7F80830F900F900F900F90AD
:102FA000FFEFAF1ABF0A2FE0E20EF11C3AE0A316C2
:102FB000B10489F688E2E82E87E0F82E888180FF48
:102FC0000BC08E85882341F0810F8E87833320F0DC
:102FD000CE010E94F0101E862F96EC16FD0671F7AA
:102FE00080912C078F3FB1F080912D0787FD12C093
:102FF000810F80932D0783336CF08DE195E00E9463
:10300000BF1D80912C070E943D108FEF80932C07ED
:1030100080932D07DF91CF911F910F91FF90EF903B
:10302000DF90CF90BF90AF909F908F9008951092B7
:10303000900608950E94BB0C81110C94B0150C945D
:103040001718CF93DF93D82FC62FE0918007F09108
:103050008107309751F00190F081E02D309729F0F1
:103060006C2F8D2FDF91CF910994D73060F4ED2F25
:10307000F0E0EA52FF4D0C947A1D81E0C11101C0CD
:1030800080E080931C01E0918007F09181073097E8
:1030900029F00280F381E02D309711F7DF91CF9175
:1030A000089581E0C11101C080E080931B01EBCF46
:1030B00081E0C11101C080E080931A01E4CF81E07A
:1030C000C11101C080E080931901DDCF81E0C130E2
:1030D00009F080E080931801D6CF8C2F0E948D16C6
:1030E00080E395E0C23011F48CE295E09F938F93DA
:1030F0008EE395E09F938F930E94A41D0F900F90F5
:103100000F900F90C0CF8C2F0E94901689E395E00E
:10311000C13011F483E395E09F938F9381E595E0AF
:10312000E9CF813011F40C941718823049F08A30BD
:1031300049F481E08093820786E695E00C94BF1DF8
:103140000C941A188B3009F00895109282078FE7BB
:1031500095E0F4CFCF93DF93C82FD62FE09174077B
:10316000F0917507309709F00995E091AB07F09160
:10317000AC07EC0FF11DC081CF3F09F43FC0DD2348
:1031800079F11F92CF9389E995E09F938F930E94E5
:10319000A41D0F900F900F900F908C2F809316010D
:1031A00080911B01882321F06D2F8C2F0E94C60E69
:1031B000E0918007F0918107309741F00680F78118
:1031C000E02D309719F06D2F8C2F09958091820793
:1031D000811114C06D2F8C2FDF91CF910C94D716D5
:1031E0001F92CF9385EA95E09F938F930E94A41D31
:1031F0000F900F900F900F908FEFD0CFDF91CF9166
:10320000089590937F0780937E070895E0917B0750
:1032100021E02E0F20937B07F0E0EE0FFF1FE45814
:10322000F84F918380830895E091760721E02E0F77
:1032300020937607F0E0EE0FFF1FE958F84F9183D7
:10324000808308959093AC078093AB070895909383
:10325000810780938007089581E080931701089586
:103260008DE897E0089581EA97E00895CF93DF9382
:103270000E94910981E298E10E943B0B0E94EB0BB6
:103280000E940907EC0148E050E068E573E00E9405
:10329000310348E050E06CE172E0CE0108960E94F4
:1032A0003103CE0140960E94EA0E0E941A1881E96D
:1032B00098E1DF91CF910C941A0DCF93E0917E07A6
:1032C000F0917F07309719F081EA97E00995C0E007
:1032D00080917B07C81710F0CF910895EC2FF0E094
:1032E000EE0FFF1FE458F84F0190F081E02D30976A
:1032F00019F081EA97E00995CF5FEACF0F931F930A
:10330000CF93DF93182F80911801C0E081119CC0EA
:103310004AE050E061EA77E08DE897E00E943103EF
:10332000C0E06C2F87E997E00E94C103082F6C2F43
:103330008DE897E00E94C103D82F0111B4C061E06D
:103340008111B4C04D2F6C2F87E997E00E94AA032A
:10335000CF5FC03531F7812F0E9442170E94B91606
:10336000EC010E9493168C0180918B0790918C0741
:10337000C817D90709F485C080911B01882319F06B
:10338000CE010E94D00EE0918007F0918107309726
:1033900039F00480F581E02D309711F0CE010995C8
:1033A000D0938C07C0938B07D0931301C093120165
:1033B000C1E048E050E063E877E0C8010E948B0379
:1033C000811161C080911C01882319F0C8010E94FD
:1033D000AC0648E050E0B80183E897E00E94310372
:1033E0008FEA95E09F938F930E94A41DC3E8D7E0D6
:1033F0000F900F9006EA11E089911F928F931F930F
:103400000F930E94A41D0F900F900F900F9087E0D4
:10341000CB38D80789F78CEB95E09F938F930E9468
:10342000A41D80918C078F9380918B078F9380ECE4
:1034300095E09F938F930E94A41D0F900F900F9083
:103440000F900F900F9021C06C2F81EA97E00E949F
:10345000C103D82F08E20C0F602F81EA97E00E9489
:10346000C103482F6C2F8DE897E00E94AA034D2FCF
:10347000602F8DE897E00E94AA03CF5FC83221F742
:103480004FCFC0E096CFC111ABCF0E94C5160097B9
:1034900089F020911B01222369F0DF91CF911F91C8
:1034A0000F910C94DD0E81114DCF60E08C2F0E94A6
:1034B000AA1848CFDF91CF911F910F910895809165
:1034C0001A01882361F0EDE8F7E09191911105C0B0
:1034D00097E0E739F907C9F780E00C9401050895F2
:1034E000CF93DF9300D000D0CDB7DEB72091190184
:1034F000222309F120EA3FE040E050E00E94581DFD
:1035000069837A838B839C83672B682B692B49F4AF
:1035100081E00F900F900F900F90DF91CF910C945E
:10352000F30489819A81AB81BC810497A105B1051F
:1035300011F480E0EECF0F900F900F900F90DF917D
:10354000CF910895CF93C0E080917607C81710F00F
:10355000CF910895EC2FF0E0EE0FFF1FE958F84FE0
:103560000190F081E02D0995CF5FEECF0E940C070E
:103570000E94350D0C94990C9093750780937407F5
:103580000895CF93DF938093B3076093B20750936E
:10359000B1074093B0073093AF072093AE07C0E068
:1035A0008091B307C81758F0C0E08091B207C817E0
:1035B000A8F081E08093AD07DF91CF910895E0916D
:1035C000B007F091B107EC0FF11DD0818D2F0E9453
:1035D0001A048D2F0E94BA04CF5FE2CFE091AE07AC
:1035E000F091AF07EC0FF11D80810E944304CF5F83
:1035F000DCCFCF92DF92EF92FF920F931F93CF9386
:10360000DF93182F092F8091AD07D0E0F12CCC2447
:10361000C394811123C0DF91CF911F910F91FF902F
:10362000EF90DF90CF900895E091B007F091B1074F
:10363000ED0FF11DD0808D2D0E94BD0481E090E042
:103640000E94E903C0E0EF2CEC0E8091B207C8178E
:1036500050F08D2D0E94BA04DF5FFE2C8091B307DD
:10366000D81710F3D8CFE091AE07F091AF07EC0F69
:10367000F11D80810E947504482F4C256E2D812FED
:10368000902F0E94AA03CF5FDECF2091B50794E070
:10369000299FF0011124EA54F84F90E0B0E0A0E037
:1036A000962BA42B80839183A283B3832F5F2770F3
:1036B0002093B5070895462F9EEF980F933020F082
:1036C00099EF980F943020F4682F81EC0C94451BEF
:1036D0000895462F682F80EC0C94451B66E087ED1B
:1036E00097E00E948A08813031F49091D707903A90
:1036F00011F48093D607089566E087ED97E00E9465
:103700008A08982F882341F18091D707803499F453
:10371000913011F581E48093DD070E943319BC01DB
:1037200045E050E08EED97E00E94310366E08DEDBC
:1037300097E00C94710820E4280F223068F493304D
:1037400059F44091D9076091D8070E94451B80EF3A
:103750008093DD0761E0EBCF0895CF93DF9300D036
:1037600000D00F92CDB7DEB70E94FA030E9436193F
:103770000E9470060E946F088EE69BE10E949908E5
:103780000E94F6030E9402078983882309F47EC001
:1037900080EA8093DD0761E08DED97E00E9471087B
:1037A0000E947F080E94A6081F9229812F938EEC09
:1037B00095E09F938F930E94A41D0F900F900F9000
:1037C0000F908981882309F46CC094E0998381E08B
:1037D0000E94F30482E090E00E94DA0380E00E94FD
:1037E000F30484E690E00E94DA03A981A150A98342
:1037F000A111EDCF0E94B80C8C01F80161918F01ED
:1038000089810E945B1BF981FF5FF983FD30A9F775
:1038100089E69BE10E94BC1A8BE59BE10E943B0B71
:1038200019821A821B821C8289819A81AB81BC8198
:1038300083709927AA27BB270097A105B10509F036
:103840009EC00E945D1984E00E947E190E945F1A4A
:1038500069817A818B819C810E94A21A69817A8117
:103860008B819C810E94701A0E94B61A81E090E0C0
:103870000E94DA0389819A81AB81BC810196A11DE6
:10388000B11D89839A83AB83BC83CECF8091D60749
:10389000811188CF0E940C0781E090E00E94DA033A
:1038A00071CF81E00E94F30484EF91E00E94DA037B
:1038B00080E00E94F3048CE79BE10E9499080E943B
:1038C0002C1919821A821B821C8289819A81AB81F0
:1038D000BC8183709927AA27BB27892B8A2B8B2B26
:1038E00021F40E945D190E945F1A2091B40794E0B0
:1038F000299FF0011124EA54F84F80819181A2811F
:10390000B3810097A105B105F1F0108211821282F6
:1039100013822F5F27702093B407282FC92EDA2E29
:10392000EB2EFF24BD01882799276D83203C09F0E9
:1039300087C00E94301941E0AD81A11101C040E073
:103940006C2D0E94AA0369817A818B819C810E94DF
:10395000A21A69817A818B819C810E94701A81E010
:1039600090E00E94DA0389819A81AB81BC81019643
:10397000A11DB11D89839A83AB83BC83A6CF8130FF
:103980009105A105B105D9F10297A105B10509F08D
:103990005FCFE091B40784E0E89FF0011124EA547E
:1039A000F84F2081318180819181A281B38100977C
:1039B000A105B10509F44CCF3093DE072093DD0754
:1039C000A093DF0763E08DED97E00E9471080E94ED
:1039D0007F0866E087ED97E00E948A088091B4072F
:1039E00094E0899FF0011124EA54F84F108211826B
:1039F000128213828F5F87708093B40729CF20E4EF
:103A00002093DD0761E08DED97E00E9471080E9430
:103A10007F0866E087ED97E00E948A08863009F00B
:103A200017CF8091D707813409F012CF0E94331944
:103A300008E220E048ED57E068E20E943C0308CF2E
:103A4000213C09F080CF8C2D0E943B0C7CCF0E9442
:103A50001D0560E076E980E090E00E9455072EE9C0
:103A600031E049E951E068E085E00E94C11A89EF40
:103A70009AE10E94011989E491E00E9422190E94B2
:103A8000AD1B90E080E0089597FB072E16F400949C
:103A900007D077FD09D00E94801D07FC05D03EF4B9
:103AA000909581959F4F0895709561957F4F0895EA
:103AB000A1E21A2EAA1BBB1BFD010DC0AA1FBB1F32
:103AC000EE1FFF1FA217B307E407F50720F0A21BA4
:103AD000B30BE40BF50B661F771F881F991F1A9411
:103AE00069F760957095809590959B01AC01BD013B
:103AF000CF010895EE0FFF1F0590F491E02D09947A
:103B0000AA1BBB1B51E107C0AA1FBB1FA617B70703
:103B100010F0A61BB70B881F991F5A95A9F780951F
:103B20009095BC01CD010895FB01DC0102C001901C
:103B30000D9241505040D8F70895DC0101C06D93BB
:103B400041505040E0F70895B0E0A0E0EAEAFDE11E
:103B50000C94AD20FE01359661917191AF01809179
:103B6000E5079091E6070E94EB1DE2E00C94C92066
:103B70006091E5077091E6070E94D41F08950F93A6
:103B80001F93CF93DF93E091E507F091E607238140
:103B900000E010E021FD0EC00FEF1FEFC801DF9124
:103BA000CF911F910F9108950995892B11F00FEF77
:103BB0001FEFCE01EC0189916091E5077091E60756
:103BC000DB011896ED91FC918111EECF8AE0099509
:103BD000892B21F3E1CFAFE0B0E0E1EFFDE10C9400
:103BE0009D207C013B018A01DC0117961C921E92EC
:103BF000169713968C9181FFBEC19AE0292EFE0183
:103C000031964F01D70113969C91F30193FD859155
:103C100093FF81913F01882309F444C1853239F42F
:103C200093FD859193FF81913F01853229F4B7017E
:103C300090E00E94D41FE6CFB12C412C512CBFE163
:103C4000B51538F08B3209F188F4803201F18332F6
:103C500021F157FC3AC020ED280F2A3040F556FEDE
:103C60001FC0B29C200D1124B22E06C08D3291F0DF
:103C7000803379F7689450F8F30193FD859193FFB1
:103C800081913F018111DBCF20C0689451F8689485
:103C900052F8F2CF689453F8EFCF689454F8ECCF11
:103CA000429C200D1124422E689455F8E5CF8E32A7
:103CB00029F456FCF7C0689456F8DECF8C3619F418
:103CC000689457F8D9CF8836B9F2982F9F7D9554CC
:103CD0009330C0F0833681F18337A1F1833509F049
:103CE0005BC0D801CD90DD908D016B2D70E056FC4E
:103CF00002C06FEF7FEFC6010E94BE1F5C01689497
:103D000057F80AC00C5F1F4FEFE3E983AA24A3947E
:103D1000B12C6401E89457F853FE29C0342CA11447
:103D2000B10451F5332009F46DCFB70180E290E082
:103D30000E94D41F3A94F6CFD8018C9189830E5FEC
:103D40001F4FE4CFF801C190D1908F016B2D70E02F
:103D500056FC02C06FEF7FEFC6010E94C91F5C01D5
:103D6000D9CFB70180E290E00E94D41F4A944A1450
:103D70001B0409F0B0F7D2CFF60157FC859157FE2E
:103D800081916F01B70190E00E94D41F31103A94E5
:103D9000B1E0AB1AB108C3CF843619F0893609F007
:103DA00071C0F80157FE67C0619171918191919145
:103DB0008F01E52DEF76DE2E97FF09C09095809557
:103DC000709561957F4F8F4F9F4F6894D7F82AE089
:103DD00030E0A4010E940420C82EC818AC2C5D2C31
:103DE000D6FE0CC0E89450F8CB1440F4D4FE05C0C5
:103DF000D2FC03C05D2D5E7E552EAB2C54FE93C0CD
:103E0000FE01EC0DF11D8081803309F085C0652D28
:103E1000697E562E752D7870372E53FC93C050FE58
:103E20008DC0BC2CA41410F4B40CBA1854FE90C06D
:103E3000B70180E390E00E94D41F52FE07C088E7DC
:103E400051FC88E590E0B7010E94D41FCB1408F420
:103E50008BC0CA94D12C8FEFC81AD80AC80CD91CB1
:103E6000D6018E916D01B70190E00E94D41F8C1491
:103E70009D04B1F757CF61917191072E000C880B0B
:103E8000990B96CFD52CE894D4F82AE0853729F100
:103E9000F52DF97FDF2E8037A1F058F48835A1F099
:103EA0008F36D1F0F701868197812F96E2E10C944D
:103EB000B9208837B9F7D4FE02C06894D2F820E15F
:103EC0000CC06894D4F8F7CF54FE03C02F2F26609F
:103ED000D22E20E132E002C028E030E0F801D7FE27
:103EE00015C041915191619171914C875D876E87A9
:103EF0007F878F01A4016C857D858E859F850E94BB
:103F00000420C82EC818E894D7F868CF8191919101
:103F1000AC0170E060E0E9CF52FC02C0A3947ACF1C
:103F2000A394A39477CF852D867809F473CFF6CF29
:103F3000B70180E290E00E94D41FA394A414C0F3C0
:103F4000312C74CF342C3A18A41408F46FCFF8CF66
:103F5000852D867809F47ACF8BE251FE80E257FCFA
:103F60008DE2B70190E070CFB70180E390E00E944E
:103F7000D41FBA946BCF8FEF9FEF97CFFC010590C2
:103F8000615070400110D8F7809590958E0F9F1F5B
:103F90000895FC016150704001900110D8F78095A0
:103FA00090958E0F9F1F08950F931F93CF93DF93CC
:103FB000182F092FEB018B8181FD09C01FEF0FEF37
:103FC000812F902FDF91CF911F910F91089582FF44
:103FD00014C02E813F818C819D81281739073CF4C4
:103FE000E881F981CF0101969983888310838E81BE
:103FF0009F8101969F838E83E3CFE885F985812F8A
:104000000995892BA1F3DACFFA01AA27283051F1BB
:10401000203181F1E8946F936E7F6E5F7F4F8F4FF9
:104020009F4FAF4FB1E03ED0B4E03CD0670F781F58
:10403000891F9A1FA11D680F791F8A1F911DA11D3D
:104040006A0F711D811D911DA11D20D009F4689476
:104050003F912AE0269F11243019305D3193DEF61E
:10406000CF010895462F4770405D4193B3E00FD0D4
:10407000C9F7F6CF462F4F70405D4A3318F0495DBF
:1040800031FD4052419302D0A9F7EACFB4E0A695A2
:104090009795879577956795BA95C9F700976105C4
:1040A000710508959B01AC010A2E0694579547951A
:1040B00037952795BA95C9F7620F731F841F951F0F
:1040C000A01D0895DC01CB01FC01F999FECF06C0CB
:1040D000F2BDE1BDF89A319600B40D9241505040C6
:1040E000B8F70895F999FECF92BD81BDF89A992746
:1040F00080B50895A8E1B0E042E050E00C9464205F
:10410000DC01CB0103C02D910E948B204150504017
:10411000D0F70895262FF999FECF1FBA92BD81BD21
:1041200020BD0FB6F894FA9AF99A0FBE0196089539
:104130000E948A20272F0C948B202F923F924F921F
:104140005F926F927F928F929F92AF92BF92CF9227
:10415000DF92EF92FF920F931F93CF93DF93CDB730
:10416000DEB7CA1BDB0B0FB6F894DEBF0FBECDBFA8
:1041700009942A88398848885F846E847D848C8479
:104180009B84AA84B984C884DF80EE80FD800C8182
:104190001B81AA81B981CE0FD11D0FB6F894DEBF65
:1041A0000FBECDBFED010895F894FFCF3D18511813
:0A41B00058185F1866186D18831880
:1041BA00FFFF0000000200000000420700000000AC
:1041CA00FFFF00008307FF0000010101017EA30D2C
:1041DA00001200000000000101010101020101FFBB
:1041EA00FFFF010A010101010001000000140001A2
:1041FA0004C80F8B1528157D140001020304050657
:10420A000708090A0B0C0D0E0F10111213141516BC
:10421A001718191A1B1C1D1E1F20212223FF2425D3
:10422A002628292A2B2C2D2E2F303132333435369D
:10423A003738393A3B3C3D3E3F404142434445468C
:10424A004748494A4BFF4C4D4E0E171E040524257C
:10425A002627010302062530325820002564200053
:10426A007573622064657669636520636F6E66693B
:10427A006775726564002D2D2D2D2D2D2D2D006451
:10428A0061746173746F7261676520696E697469BC
:10429A00616C697A650073746F7261676520646125
:1042AA0074612076616C6964007265736574206458
:1042BA006174612073746F7261676520666F722022
:1042CA006E65772070726F6A65637400446936564A
:1042DA00344B76460073797374656D207061726130
:1042EA006D657465722076616C756520666978659E
:1042FA00642025642C202564202D2D3E2025640A67
:10430A000073797374656D20706172616D6574658F
:10431A00727320696E697469616C697A6564007088
:10432A006172616D6574657273207361766564008C
:10433A00696E76616C6964206B6579206173736953
:10434A00676E732064617461006B657920617373B1
:10435A0069676E732073746F726167652064617434
:10436A00612069732076616C6964005B7761726EA3
:10437A005D206661696C656420746F207772697468
:10438A0065207261776869642064617461006D6593
:10439A006D6F7279207772697465207472616E73B9
:1043AA00616374696F6E207374617274002564208E
:1043BA006279746573207772697474656E206174AA
:1043CA002025640A00636865636B2C20616464724B
:1043DA002025642C206C656E2025640A00636B3AE4
:1043EA002025640A006D656D6F7279207772697491
:1043FA0065207472616E73616374696F6E20646F95
:10440A006E6500726576310041313532464432308C
:10441A000041004200430044004500470048004A6A
:10442A00004B004C004D004E004F0050005100520E
:10443A00005400550056005700580059005A0045CC
:10444A00736300537061636500456E74657200544E
:10445A00616200425300463100463200463300464C
:10446A00340046350046360046370046380046399D
:10447A00004631300046313100463132004C536833
:10448A00696674004C4374726C004C416C74004C45
:10449A004755490052536869667400524374726CF6
:1044AA000052416C74005247554900486F6D6500CF
:1044BA00456E6400496E736572740044656C657478
:1044CA0065005061676555700050616765446E000C
:1044DA004C65667400526967687400446F776E00B1
:1044EA0048616E2F5A656E004B6174612F4869727C
:1044FA00610048656E6B616E004D7568656E002ED1
:10450A00002C0021003F003A003B005F002B002AEC
:10451A00002F003D0026007C005E007E0040002344
:10452A00002400C2A50025005C00270022006000CC
:10453A00280029007B007D003C003E006C61796503
:10454A0072206F66662025640A006C6179657220A4
:10455A006F6E2025640A006E756D4C617965727301
:10456A003A2564206B65794D617070696E674461A4
:10457A00746153697A653A25640A006B6579202566
:10458A006420617474616368656420746F20736C5D
:10459A006F740A0063616E6E6F7420617474616374
:1045AA0068206B657920256420746F20736C6F74A2
:1045BA000A006B6579202564206465746163686507
:1045CA00642066726F6D20736C6F740A0063616E8B
:1045DA0063656C206F6E6573686F74004A49530097
:1045EA00555300416C746572004D61696E007379B0
:1045FA007374656D206C61796F75743A2025730A3E
:10460A0000726F7574696E67206368616E6E656C9F
:10461A003A2025730A006265686176696F72206DB7
:10462A006F64653A2053696D756C61746F720062CC
:10463A0065686176696F72206D6F64653A2053749C
:10464A00616E64616C6F6E65006B6579646F776E1D
:10465A002025640A006B657975702025640A004874
:10466A004944207265706F72743A5B005D2C2000B9
:10467A006C61796572733A20253032580A00697381
:0C468A004D61737465723A25640A0000EB
:00000001FF
