:100000000C9478050C9495050C9495050C94950525
:100010000C9495050C9495050C9495050C949505F8
:100020000C9495050C94301F0C9495080C94B90809
:100030000C9495050C9495050C9495050C949505D8
:100040000C9495050C9495050C9495050C949505C8
:100050000C9495050C9495050C9495050C949505B8
:100060000C9495050C9495050C9495050C949505A8
:100070000C9495050C9495050C9495050C94950598
:100080000C94CD060C9495050C9495050C9495054F
:100090000C9495050C9495050C9495050C94950578
:1000A0000C9495050C9495050C94950500010000A1
:1000B0008E021200020000AA015B00220000720200
:1000C0001C00210000BC0109002201003202400096
:1000D000210100DC01090022020005022D0021029D
:1000E00000F5010900030000A601040103090494BE
:1000F0000110020309045001420303090400014EE8
:100100004E0330003000300030003000300030004E
:10011000300030003000300030003000300030005F
:10012000300030003000300030003000300030004F
:10013000300030003000300030003000300030003F
:10014000300030003000300030003000300000005F
:10015000420330003000300030003000300030000A
:10016000300030003000300030003000300030000F
:1001700030003000300030003000300030003000FF
:1001800030003000300030003000300030003000EF
:100190003000000010034B00650072006D00690024
:1001A0007400650000000403090409025B000301F8
:1001B00000C03209040000020300000009211101FF
:1001C0000001221C0007058103400002070502030D
:1001D0004000080904010001030101000921110187
:1001E0000001224000070583030800010904020002
:1001F0000103010200092111010001222D00070560
:10020000840308000105010902A10105091901295A
:10021000031500250195037501810295017505817E
:10022000030501093009311581257F750895028183
:1002300006C005010906A10175019508050719E029
:1002400029E71500250181029501750881039505AF
:10025000750105081901290591029501750391039E
:1002600095067508150026FF000507190029FF816E
:1002700000C006ABFF0A0002A1017508150026FFA9
:1002800000954009018102954009029102C01201C6
:1002900000020000002055F077A5000101020301D3
:1002A000015C0304000000025E0305000000033748
:1002B0000606000000046003070000000562030852
:1002C000000000066403090000000766030A00003E
:1002D000000868030B00000009D4030C0000000AAA
:1002E0006A030D0000000B6C030E0000000C6E038F
:1002F0000F0000000D7003100000000E72031100CB
:1003000000000F74031200000010760313000000B9
:1003100011780314000000127A031500000013FF87
:100320000416000000147C0317000000157E03185B
:10033000000000168003190000001782031A000055
:10034000001884031B0000001986031C0000001A1B
:1003500088031D0000001B2102270200001CDE0292
:100360001E0200001DBD031F0200001E0305200227
:1003700000001F070521020000200B0522020000DB
:10038000210F052302000022130524020000231779
:100390000525020000241B0526020000258A0329EA
:1003A000000000268E032C00000027F40428000023
:1003B000002894032B00000029FE042A0000002AD4
:1003C00098033A0000002B9B033B0000002C9E0387
:1003D0003C0000002DA1033D0000002EA4033E00C0
:1003E00000002FA7033F00000030AA0340000000D8
:1003F00031AD034100000032B0034200000033B3CE
:10040000034300000034B7034400000035BB03453C
:1004100000000058C003E100000057C703E00000DF
:100420000059CD03E20000005AD203E30000009F10
:10043000BF03E10000009EC603E0000000A0CC0363
:10044000E2000000A1D103E3000000A3D603E50011
:100450000000A2DD03E4000000A4E303E6000000C6
:10046000A5E803E70000005BED034A0000005CF232
:10047000034D0000005DF603490000005EFD034CE3
:100480000000005F04044B000000600B044E0000FD
:1004900000611204500000006217044F0000006366
:1004A000080452000000641D04510000006A220488
:1004B000350000006B2A04880000006D34048A00B7
:1004C00000006C3B048B00000036D5043702370275
:1004D000374104360236023843041E011E013945F5
:1004E00004380138013A4704330134023B490433EC
:1004F0000233023C4B042D0187013DE9042E0133F8
:10050000013EE4042D022D023FDF042501340140A9
:10051000DA043802380241EE042E022D01424D0465
:1005200024012301434F0431018901445104230173
:100530002E0245530435012E014655041F012F029A
:100540004757042001200148590421012101495B3A
:1005500004310289024A5E04220122014B60043107
:100560000287024C6204340224014D640434011FEA
:10057000014E660435022F014F6804260125015003
:100580006A0427012601516C042F023002526E04C6
:1005900030023102536C042F013001546E043001DB
:1005A00031015570043601360156720437013701A6
:1005B000B7740490000000B87904910000009D7E9B
:1005C000045300000066860439000000678F04476A
:1005D0000000008A9A04620000008B9F045900000A
:1005E000008CA4045A0000008DA9045B0000008E5A
:1005F000AE045C0000008FB3045D00000090B804FE
:100600005E00000091BD045F00000092C204600023
:10061000000093C704610000009CCC04B0000000FF
:1006200094D2046300000098D7045400000097DCC3
:10063000045500000096E1045600000095E60457BA
:1006400000000099EB04670000009AF004580000D5
:10065000009BFA04BB0000007E0105680000007FDB
:100660000505690000008009056A000000810D058C
:100670006B0000008211056C0000008315056D0001
:1006800000008419056E000000851D056F00000044
:10069000862105700000008725057100000088296B
:1006A0000572000000892D057300000065310546C4
:1006B0000000006838054800000069430576000026
:1006C0000000AEA81FD30040A1C8DA02813FA4A653
:1006D000D5808D142002AF000000000000005E00F5
:1006E000000006000600247E247E24002E7A2F3A85
:1006F00000661668660036494936000600000000AC
:10070000003E41000000413E00082A1C2A0808085B
:100710003E080800402000000008080808000020EB
:10072000000000300C0300007F41417F0000417F4A
:1007300040007949494F004949497F000F08087F27
:10074000004F494979007F49497900017109070043
:100750007F49497F004F49497F0000240000000085
:100760004024000008142200001414141400002275
:1007700014080002015906007F5D557D007F1111AC
:100780007F007F49497E007F414141007F41413EDA
:10079000007F494949007F090909007F41497900E3
:1007A0007F08087F00417F4100004040413F007FBB
:1007B000083641007F4040407F017F017F7F031C5E
:1007C000607F007F41417F007F09090F007F412149
:1007D0005F007F19294F004F49497901017F0101CD
:1007E000007F40407F007F40201F7F407F407F0090
:1007F000631C1C6303047804030061514D43000033
:100800007F410000030C30400000417F00000402E3
:100810000400002020202000040200000074545432
:100820007C007F44447C007C444444007C44447FFE
:10083000007C54545C00047F050000BCA4A4FC00B0
:100840007F04047C0000007D00000080FD00007F2C
:1008500010284400007F40007C047C047C007C0461
:10086000047C007C44447C00FC24243C003C242484
:10087000FC00007C0404005C54547400047F4400B9
:10088000007C40407C007C40201C7C407C407C0004
:1008900044383844009CA0403C004464544C00045C
:1008A00002000000087F41000000007F00000041BE
:1008B0007F080000000000000000000000000000B1
:1008C000000080FFFF0780FFFF0780FFFF0780FF1A
:1008D000FF070000070000800F0000C01F0000F0AD
:1008E0003F0000F87F0000FCFC00007EF801803F24
:1008F000E003800FC00780078007800300078001A6
:10090000000600000004000000000000000080FF5E
:10091000FF0780FFFF0780FFFF0780FFFF0780873B
:100920008707808787078087870780878707808773
:100930008707808787078087870780878707808763
:100940008707808787078007800700000000000076
:100950000000000000000000000080FFFF0780FF93
:10096000FF0780FFFF0780FFFF0780071E0080074B
:100970001E0080071E0080071E0080077E00800783
:10098000FE00800FFF01809FFF0700FFEF0700FFC1
:100990008F0700FE070700F80106000000000000B6
:1009A00000000000000080FFFF0700FFFF0700FEBF
:1009B000FF0700F8FF0700F0030000E0070000C099
:1009C0000F0000801F0000007F000000FC000000FE
:1009D000FC0000007F0000801F0000C00F0000E04E
:1009E000070000F0030000F8FF0700FEFF0700FF0C
:1009F000FF0780FFFF07000000000000000000006C
:100A00000000000000000000000080FFFF0780FFE2
:100A1000FF0780FFFF0780FFFF07000000000000C6
:100A20000000000000008007000080070000800731
:100A3000000080070000800700008007000080FFA2
:100A4000FF0780FFFF0780FFFF0780FFFF0780078A
:100A5000000080070000800700008007000080077A
:100A60000000800700000000000080FFFF0780FFFB
:100A7000FF0780FFFF0780FFFF07808787078087CA
:100A80008707808787078087870780878707808712
:100A90008707808787078087870780878707808702
:100AA00087078007800700000000000000000000AA
:100AB00000004F28092886279B28DA250000FF0020
:100AC0000044FF0000FFFF0000FF660000FF000081
:100AD00044FF0000FFFF0000FF440000FF00000093
:100AE000FF004400FF00FF004400FF00FFFFFF0085
:100AF00011241FBECFEFDAE0DEBFCDBF16E0A0E0CD
:100B0000B1E0ECE7F1E602C005900D92A439B1071F
:100B1000D9F729E0A4E9B6E001C01D92A133B207DC
:100B2000E1F70E94722A0C94BC300C940000EF9202
:100B3000FF920F931F93CF93DF93EC018C01060F6D
:100B4000171F85E9E82E81E0F82EC017D10751F470
:100B50008AE090E0DF91CF911F910F91FF90EF908D
:100B60000C947D2D89911F928F93FF92EF920E949A
:100B7000692D0F900F900F900F90E7CFEF92FF929B
:100B80000F931F93CF93DF93EC018C01060F171F78
:100B90008BE9E82E81E0F82EC017D10751F48AE0E6
:100BA00090E0DF91CF911F910F91FF90EF900C9407
:100BB0007D2D89911F928F93FF92EF920E94692D54
:100BC0000F900F900F900F90E7CFFB01DC01460FC5
:100BD000571FE417F50709F4089581918D93F9CF14
:100BE000AF92BF92CF92DF92EF92FF920F931F933B
:100BF000CF93DF93DC01162FEA0190E061E070E013
:100C000090130BC0DF91CF911F910F91FF90EF9048
:100C1000DF90CF90BF90AF900895892F810F382F2C
:100C20003695369536957D01E30EF11CF70130813E
:100C300087705B0101C0AA0C8A95EAF7892F820FA1
:100C4000482F4695469546954C0F5D2F511DFA014C
:100C5000408150E087706B0102C0CC0CDD1C8A958E
:100C6000E2F74C215D21832F8A29452B21F4EA2DBF
:100C7000E0958E2F8323F70180839F5FC1CFFC0116
:100C8000DB01480F591FE417F50711F481E00895BF
:100C900091918D919817B9F380E00895FB01DC01E3
:100CA000460F571FE417F50709F4089581918D93B6
:100CB000F9CFFB01DC01460F571FE417F50709F4D4
:100CC0000895819190E08D939D93F7CF70E00C94FF
:100CD0005B2D262F269526952695FC01E20FF11D0A
:100CE0009081677021E030E001C0220F6A95EAF739
:100CF000442319F0922B9083089520959223FBCFE3
:100D0000262F269526952695820F911DFC01208180
:100D100030E0677081E090E002C0880F991F6A950B
:100D2000E2F72823392381E0121613060CF080E045
:100D300008959B01BA01FC0190E080E082179307BF
:100D400014F080E00895419151914617570711F032
:100D50000196F4CF81E0089508959C0190E080E031
:100D60008217930709F40895EFE9FFE03197F1F74F
:100D700000C000000196F4CF9C0190E080E0821753
:100D8000930709F4089545E04A95F1F700000196AC
:100D9000F6CF78940895F89408951F921FB61F9285
:100DA00011248F939F93AF93BF938091940690915A
:100DB0009506A0919606B09197060196A11DB11DCA
:100DC0008093940690939506A0939606B093970609
:100DD000BF91AF919F918F911F901FBE1F9018954B
:100DE000CF93DF9300D000D0CDB7DEB780919406CB
:100DF00090919506A0919606B0919706BC01CD0101
:100E00000F900F900F900F90DF91CF910895A895BC
:100E100014BEE0E6F0E0808188618083108280E883
:100E200085BF85BF1092D8001092900089E0809312
:100E3000910082E08093710080E89EE39093990096
:100E400080939800109295001092940008958FE975
:100E500091E09F938F930E94692D2FEF81EE94E094
:100E6000215080409040E1F700C00000F89481E0FC
:100E70008093E00080E28093D8001092C9008FE157
:100E80009EE40197F1F700C000001DBA10926800BF
:100E90001CBC10BE1FBA10927A0010926E00109205
:100EA0006F0010927100109272001092C90010929F
:100EB000BC0014B817B81AB81DB810BA1092BC000C
:100EC00015B818B81BB81EB811BA0C9400380F909A
:100ED0000F90FFCF80E091E090932E0980932D0931
:100EE0000895E82FE695E695E69593E0E99FF001F1
:100EF000112435A1282F277081E090E001C0880FD0
:100F00002A95EAF78095832385A30895E82FE6952F
:100F1000E695E69593E0E99FF001112494A187708E
:100F200021E030E001C0220F8A95EAF7892F822B59
:100F300084A30895E82FE695E695E69593E0E99F6A
:100F4000F001112434A1282F277081E090E001C026
:100F5000880F2A95EAF78095832384A30895E82FC4
:100F6000E695E695E69563E0E69FF001112444A13D
:100F7000877021E030E0B90102C0660F771F8A95C3
:100F8000E2F7CB01962F9095942394A395A1892BFA
:100F900085A30895662399F0E82FE695E695E695F2
:100FA00093E0E99FF001112495A1877021E030E0E2
:100FB00001C0220F8A95EAF7922B95A308950C940D
:100FC0007107E82FE695E695E695EF5F93E0E99FD8
:100FD000F001112490A1877021E030E002C0220FBF
:100FE000331F8A95E2F7892F90E02823392381E087
:100FF000121613060CF080E00895E82FE695E695AA
:10100000E69593E0E99FF001112495A1877021E016
:1010100030E001C0220F8A95EAF7892F822785A345
:10102000089586958695869523E0829FC0011124B8
:10103000859608958695869586958F5F23E0829F95
:10104000C0011124809608958770089561E00C9482
:10105000CA070C947107E82FE695E695E695EF5FD1
:1010600093E0E99FF001112490A1877021E030E026
:1010700001C0220F8A95EAF7892F822B80A3089559
:10108000E82FE695E695E69593E0E99FF0011124B7
:1010900034A1282F277081E090E001C0880F2A95A5
:1010A000EAF78095932F982394A395A1892385A38C
:1010B0000895E82FE695E695E69593E0E99FF0011F
:1010C0001124282F277081E090E001C0880F2A9515
:1010D000EAF794A1611103C0892B84A30895809538
:1010E0008923FBCF0C94E107FB019A0190919906AB
:1010F000911102C080E008958093E9008091E8009A
:1011000085FFF8CFF89480E0DF01A80FB11D9C9116
:101110009093F1008F5F82171306B4F38AE38093F4
:10112000E800789481E0089508951F921FB61F92F9
:1011300011248F939F938091E1001092E10083FF2F
:101140000FC01092E90091E09093EB001092EC0038
:1011500092E29093ED0098E09093F000109299063F
:1011600082FD809199069F918F911F901FBE1F90C5
:1011700018951F920F920FB60F921124AF92BF9243
:10118000DF92EF92FF920F931F932F933F934F9312
:101190005F936F937F938F939F93AF93BF93CF93FF
:1011A000DF93EF93FF931092E9008091E80083FFB3
:1011B00069C09091F1008091F1004091F10020917F
:1011C000F100522F2091F1003091F100A091F10037
:1011D000B091F10062EF6093E800863009F096C0AC
:1011E0008CEA90E060E071E0FC01C591D4914C176D
:1011F0005D0709F042C0FC013296C591D4912C17CD
:101200003D0709F03AC0FC01349665917491069649
:10121000FC018491AF3FB10519F010F0AFEFB0E0E1
:101220003A2F8A1708F4382F21ECA22E26E0B22E8E
:101230004230F3E05F0721F09AE9A92E96E0B92E3B
:10124000DB01425053408EEFF82E8091E800982F3A
:101250009570D9F382FD3EC0832F313208F080E2D1
:10126000FD01982F4230510548F1992349F124910D
:101270002093F10091503196F8CF079668177907BF
:1012800009F0B2CF81E28093EB0024C0392FDDCF8B
:101290008F01061B170B2491DD24D394D01650F434
:1012A0002EEF200F00FD30C026958501020F111D85
:1012B000E80128812093F100915031969111E8CFF7
:1012C000A80FB11D932F981BF092E8003813DECFC2
:1012D0003032E1F2FF91EF91DF91CF91BF91AF9169
:1012E0009F918F917F916F915F914F913F912F913E
:1012F0001F910F91FF90EF90DF90BF90AF900F90F4
:101300000FBE0F901F90189520E0D4CF853059F470
:101310008EEF8093E8008091E80080FFFCCF40686A
:101320004093E300D7CF8930C9F5911137C040937E
:1013300099068EEF8093E80081E08093E900809326
:10134000EB0091EC9093EC0026E32093ED0032E06B
:101350003093E9008093EB0030EC3093EC00209365
:10136000ED0023E02093E9008093EB009093EC00E4
:1013700026E02093ED0034E03093E9008093EB0009
:101380009093EC002093ED0087EB91E00E94842D78
:101390008EE18093EA001092EA009CCF211531057E
:1013A00039F4913209F06ECF8A3009F06BCF15C055
:1013B00021303105B1F4913209F064CF8930A1F7C1
:1013C0008091E80082FFFCCF8091F1008093980625
:1013D000809198068BEF8093E8008EEF8093E80071
:1013E00079CF22303105E9F24DCF80E8809361005A
:1013F0001092610081E08093D70080EA8093D8004A
:1014000082E189BD09B400FEFDCF80E98093D80058
:101410001092E000109299068CE08093E20008950B
:10142000BC0148E050E083E00C9474088091980679
:101430000895BC0143E050E084E00C947408BC01C2
:1014400040E450E081E00C94740820919906211149
:1014500002C080E0089522E02093E9002091E80096
:1014600025FFF7CFF894FC01805C9F4F2091F1009D
:101470002193E817F907D1F78BE68093E800789479
:1014800081E008959091990681E0911101C080E07A
:1014900008958AE996E00895BC0181EC96E00C94E9
:1014A000622D08951092D800089580E094E0089588
:1014B000F999FECF0C945A30F999FECF0C94723002
:1014C000F999FECF0C946230F999FECF0C948030DC
:1014D000382F292FCB01F999FECF632F722F0C944F
:1014E0004A30382F292FCB01F999FECF632F722F65
:1014F0000C946830CF93DF93D0E0C0E060E0CE0181
:101500000E945C0A2196C11584E0D807B9F7DF91E3
:10151000CF910895089508955198599A5098589ADE
:101520001092B9008CE08093B80008959A0194EA73
:101530009093BC009091BC0097FFFCCF880F8093E4
:10154000BB0084E88093BC008091BC0087FFFCCF87
:10155000FB0190E080E044E88217930724F084E9DF
:101560008093BC00089551915093BB004093BC0000
:101570005091BC0057FFFCCF0196EECF9A0194EA40
:101580009093BC009091BC0097FFFCCF880F8160C6
:101590008093BB0084E88093BC008091BC0087FFEF
:1015A000FCCFFB0190E080E0A9014150510964E8C3
:1015B00074EC8217930724F084E98093BC000895AB
:1015C000841795075CF47093BC00A091BC00A7FF42
:1015D000FCCFA091BB00A1930196EBCF6093BC0020
:1015E000F4CF94EA9093BC009091BC0097FFFCCF9D
:1015F000880F8093BB0084E88093BC008091BC007E
:1016000087FFFCCF08958093BB0084E88093BC00E3
:101610008091BC0087FFFCCF089584E98093BC00D3
:1016200008958F929F92AF92BF92CF92DF92EF92E6
:10163000FF920F931F93CF93DF935C01EB016A013D
:1016400079014801CC15DD0510F5CE010E94600A34
:101650008C01CE0102960E94600A9C010A151B05AE
:10166000A1F42496F701D183C083F4013183208350
:10167000DF91CF911F910F91FF90EF90DF90CF906E
:10168000BF90AF909F908F900895892B29F4D0E060
:10169000C0E030E020E0E6CF2C5F3F4FC20FD31F09
:1016A000D1CFEF92FF920F931F93CF93DF93D82F59
:1016B000C92F7B018A010E94550AAC01970162E0A3
:1016C00070E08D2F9C2F0E94110BDF91CF911F9105
:1016D0000F91FF90EF900895CF93DF9300D000D04B
:1016E000CDB7DEB7AE014F5F5F4FBE016D5F7F4F7D
:1016F0000E94510B8B819C810F900F900F900F9047
:10170000DF91CF910895CF92DF92EF92FF920F93E6
:101710001F93CF93DF9300D000D0CDB7DEB76C011D
:101720007B018A01AE014F5F5F4FBE016D5F7F4F4E
:1017300080E79AEA0E94510B6B817C8161157105EB
:10174000A9F049815A81460F571F9701C6010E948F
:10175000110B0F900F900F900F90DF91CF911F9171
:101760000F91FF90EF90DF90CF900895F7011182D5
:101770001082F80111821082ECCFAF92BF92CF920B
:10178000DF92EF92FF920F931F93CF93DF9300D0DE
:1017900000D0CDB7DEB78DEC91E00E94842D90E0B3
:1017A00080E00E94600A8E37934A09F044C0AE017F
:1017B0004F5F5F4FBE016D5F7F4F80E19AEA0E94ED
:1017C000510BE980FA80AE014F5F5F4FBE016D5F44
:1017D0007F4F80E29AEA0E94510BA980BA80AE0145
:1017E0004F5F5F4FBE016D5F7F4F80E39AEA0E94BB
:1017F000510BC980DA80AE014F5F5F4FBE016D5F54
:101800007F4F80E49AEA0E94510B09811A8180E798
:101810009AEA0E946C0B9C0182E1A816B10459F46B
:101820008AE0C816D10439F40E291F29012B19F4B6
:10183000232B09F054C087EF91E00E94842D0E9471
:101840007A0A6EE773EA90E080E00E94640A60E240
:101850007AEA82E090E00E94640A62E170E084E04B
:1018600090E00E94640A60E37AEA88E190E00E94D6
:10187000640A6AE070E08AE190E00E94640A60E72E
:101880007AEA86E290E00E94640A70E060E088E212
:1018900090E00E94640A80E29AEA0E946C0B8C013C
:1018A000009709F443C046E050E06AE171E00E940D
:1018B000710A48E050E06AE172E0C80108960F90B2
:1018C0000F900F900F90DF91CF911F910F91FF908C
:1018D000EF90DF90CF90BF90AF900C94710A80E2B0
:1018E0009AEA0E946C0B46E050E062EE76E00E94BD
:1018F000680A46E050E06AE171E082EE96E00E94FC
:101900003F06882309F497CF84EE91E00F900F9063
:101910000F900F90DF91CF911F910F91FF90EF905B
:10192000DF90CF90BF90AF900C94842D0F900F90CC
:101930000F900F90DF91CF911F910F91FF90EF903B
:10194000DF90CF90BF90AF900895CF93DF9380E763
:101950009AEA0E946C0BEC01892B31F00E94550A27
:101960009C012C1B3D0BE901CE01DF91CF91089525
:1019700080E29AEA0E946C0B4096089580E39AEA0E
:101980000C946C0B8AE090E0089580E79AEA0C943E
:101990006C0BCF93DF9300D000D0CDB7DEB7AE0194
:1019A0004F5F5F4FBE016D5F7F4F81E79BEB0E94F2
:1019B000830B8B819C810F900F900F900F90DF9184
:1019C000CF910895CF93DF9300D000D0CDB7DEB78D
:1019D000AE014F5F5F4FBE016D5F7F4F84E79BEBB2
:1019E0000E94830B8B819C810F900F900F900F9022
:1019F000DF91CF910895CF93DF9300D000D0CDB782
:101A0000DEB7AE014F5F5F4FBE016D5F7F4F88E76E
:101A10009BEB0E94830B8B819C810F900F900F900A
:101A20000F90DF91CF910895CF93DF9300D000D036
:101A3000CDB7DEB7AE014F5F5F4FBE016D5F7F4F29
:101A400088E79BEB0E94830B89819A810F900F900E
:101A50000F900F90DF91CF910895CF93DF9300D037
:101A600000D0CDB7DEB7AE014F5F5F4FBE016D5FF7
:101A70007F4F86E79BEB0E94830B8B819C810F90AD
:101A80000F900F900F90DF91CF910895CF92DF923A
:101A9000FF920F931F93CF93DF93182F062FF42EEF
:101AA00080EFC82E86E0D82ED0E0C0E08091EE0610
:101AB0009091EF06C817D90744F0DF91CF911F919D
:101AC0000F91FF90DF90CF900895D601ED91FD9199
:101AD0006D014F2D602F812F09952196E7CFEF9251
:101AE000FF920F931F93CF93DF93D0E0C0E0EE24DB
:101AF000E394F12C87010C2E02C0000F111F0A94F1
:101B0000E2F78091EC069091ED0680239123892BDA
:101B1000A1F0FE01E650F94F40816C2F82E00E9457
:101B2000460D009510958091EC069091ED0680236E
:101B300091239093ED068093EC062196CA30D1054F
:101B4000C9F68091EB06882339F040E060E081E03F
:101B50000E94460D1092EB06DF91CF911F910F91DD
:101B6000FF90EF90089521E030E002C0220F331F74
:101B70008A95E2F78091E8069091E906822B932BF3
:101B80009093E9068093E80608958091E806909185
:101B9000E9060895CF93DF93D82FC92F6091EE0601
:101BA0007091EF06482F592F80EF96E00E9499061A
:101BB000811110C0E091EE06F091EF06CF01019681
:101BC0009093EF068093EE06EE0FFF1FE051F94F62
:101BD000D083C183DF91CF910895E82FF0E0E25FD9
:101BE000FE4F60830895E82FF0E0E25FFE4F81E052
:101BF0009081961708F480E00895CF92DF92EF92DB
:101C0000FF920F931F93CF93DF930AEF16E08EE0BE
:101C1000C82E81E0D82ED0E0C0E093E2E92E92E019
:101C2000F92EF80181918F01F60191916F019817BA
:101C300068F02196CA30D105A1F7DF91CF911F91AD
:101C40000F91FF90EF90DF90CF900895FE01E9583B
:101C5000FE4F9081F801319790831F929F931F92BE
:101C60008F93DF93CF93FF92EF920E94692DEDB790
:101C7000FEB738960FB6F894FEBF0FBEEDBFD9CFB2
:101C8000282F30E0F901E25FFE4F90819617D8F0DF
:101C90002650394FF901608321E030E002C0220F65
:101CA000331F8A95E2F78091EC069091ED06822B26
:101CB000932B9093ED068093EC0688EE93E090933F
:101CC0001901809318010895CF93C82F282F30E071
:101CD000F901E25FFE4F90812650394FD901EC9116
:101CE000F0E09F01260F371F442389F0692F70E031
:101CF0006F5F7F4FCB01820F931F0E94B12A8E1717
:101D00009F0789F0682F8C2FCF910C94400E37FDE0
:101D100007C0892F90E0281739078CF7C901EFCF4A
:101D200090E080E0ECCFCF91089590E0FC01E25F7D
:101D3000FE4F2081261750F08650994FFC0160839A
:101D400088EE93E090931901809318010895CF9342
:101D5000DF930E94BE0C9093F9068093F806892BBE
:101D600051F10E94B80CEC010097B1F00E94580AA2
:101D7000853091F04AE050E067E771E08091F80625
:101D80009091F9060E94710A65E0CE010E945C0AFA
:101D90008FE492E00E94842D4AE050E06AEF76E002
:101DA0008091F8069091F9060E94680A0E94FD0D44
:101DB00081E08093EB06DF91CF910895462F50E0AC
:101DC0006AEF76E00C94E505462F50E06EE071E096
:101DD0000C94E505E82FF0E0E650F94F8081089576
:101DE0000C94400EEF92FF920F931F93CF93DF93CB
:101DF0008C01D0E0C0E0E62EF12CCE15DF0554F0CA
:101E000081E08093EB06DF91CF911F910F91FF90BE
:101E1000EF900895F80161918F018C2F0E94950E2B
:101E20002196EBCF0F931F93CF9307E711E0C0E00C
:101E3000F80161918F018C2F0E94950ECF5FCA30FF
:101E4000B9F781E08093EB06CF911F910F91089530
:101E5000813039F460910007682786E00E94400EC7
:101E60000895823039F0833061F441E06FEF7FEF05
:101E700087E004C041E061E070E089E00E94640E08
:101E8000089541E061E070E0843091F340E060EF5C
:101E90007FEF8530B1F040E060E170E0863089F09E
:101EA0008E3789F0873099F08830A1F08930B1F011
:101EB00060E08A30C9F061E08B30B1F08C30B1F075
:101EC000089588E0DBCF81E08093EA06089560E022
:101ED00084E0C4CF61E084E00C94400E41E061E016
:101EE00070E084E00C94640E85E0F6CF41E061E0A0
:101EF00070E085E0F7CF80911801909119011816D4
:101F00001906BCF401979093190180931801892B4D
:101F100081F48091F8069091F906009751F04AE01B
:101F200050E06AEF76E00E94710A8DE692E00E942E
:101F3000842D0E946F0D8091EA06882321F0109273
:101F4000EA060C94270708950C946F0D8AEF96E02B
:101F50000895EF92FF920F931F93CF938C018AEF16
:101F6000E82E86E0F82EC0E0F70141917F016C2F4A
:101F700082E0F8010995CF5FCA30B1F7CF911F9188
:101F80000F91FF90EF900895CF93DF930E94C90CBB
:101F9000EC010E94A50C209741F48EE792E00E948C
:101FA000842D80E0DF91CF910895892BB1F345E036
:101FB00050E064E077E0CE010E94680A30910507A6
:101FC0002091060790910707809108074091040728
:101FD000413019F7363009F72430F9F69F3FE9F21E
:101FE0008131D8F687E992E00E94842D81E0DACF32
:101FF000E0914E07F0914F07309709F0099408954A
:102000000E94420A882351F08AE097E00E941F0A4A
:10201000811104C089EB92E00C94842D0895909175
:102020000907992359F0823049F485EC80930A0717
:1020300060930B0740930C070C9400100895909345
:102040004F0780934E078FE090E10E94CA0D0E94D7
:10205000C50C90934D0780934C070E94A50C90935C
:102060004B0780934A070895DF92EF92FF920F93F8
:102070001F93CF93DF938AE097E00E94250A88237D
:1020800009F45AC080910A07803F21F481E00E9440
:10209000F80F52C0813F09F457C0823F09F056C083
:1020A00083EF80930A0784E080930B0796E0909378
:1020B0000C0780930D0785E080930E0743E050E006
:1020C0006CED72E08FE097E00E94E50546E050E09D
:1020D0006AE171E089E197E00E94E505C1E0C09303
:1020E0001F071092200783E08093210740E150E012
:1020F00060E082E297E00E94660646E050E060EE13
:1021000072E082E297E00E94E50548E050E06BE271
:1021100071E082E397E00E94E50580914A07909183
:102120004B0798278927982790933B0780933A0776
:102130000E940010C0930907DF91CF911F910F916A
:10214000FF90EF90DF90089582E0A1CF803B19F1DE
:10215000823B39F1833B09F44BC0813B09F497C0C2
:10216000803C09F49AC0823C09F4B3C0833C09F472
:10217000B9C0843C09F4C3C0813D09F4C9C0823DA3
:1021800009F4D6C0803DC1F680910B07813009F477
:10219000DAC083E2C2C087EE92E00E94842D80E123
:1021A00076CFC0910B07D0910C07DC27CD27DC2719
:1021B00080914C0790914D07C80FD91F10910D07C2
:1021C000412F50E06EE077E0CE010E94710ADF936C
:1021D000CF931F921F9386E093E09F938F930E946B
:1021E000692D0F900F900F900F900F900F90A4CF2C
:1021F000C0910B07D0910C07DC27CD27DC278091FD
:102200004C0790914D07C80FD91FE0900D07F09033
:102210000E07FE24EF24FE24FF92EF92DF93CF936C
:102220008EE193E09F938F930E94692D0F900F9002
:102230000F900F900F900F9010E000E0D12C0E1532
:102240001F05E1F41F92DF9286E393E09F938F9343
:102250000E94692D84EB80930A07D0920B070E949D
:10226000001080914C0790914D07B80102970E9491
:10227000640A0F900F900F900F905ECFCE01800FE9
:10228000911F0E94580AD8260F5F1F4FD8CF8EE3A8
:1022900093E00E94842D81E1FACE81EC80930A07BD
:1022A0008AE080930B070E94C50D982789279827FD
:1022B00090930D0780930C076AE08EE097E00E94F0
:1022C000DE0E6AE088E197E00E94E40E0E940010B2
:1022D00033CF40910B0760910C078DE097E00E948F
:1022E000F20E2ACF60910C0780910B07DF91CF91FE
:1022F0001F910F91FF90EF90DF900C94F00EDF9103
:10230000CF911F910F91FF90EF90DF900C94120FDF
:1023100080910B07813051F081E2DF91CF911F91C5
:102320000F91FF90EF90DF900C94F80F80E2F5CFC3
:102330008BE097E0DF91CF911F910F91FF90EF908D
:10234000DF900C94100A82E2E8CFEAE0F7E090EA2E
:102350009083818362830C940010EAE0F7E021EA25
:102360002083982789279827928381830C940010D3
:10237000E0EAF2E030E020E0949189130DC06111B1
:1023800014C087E0829FF001839FF00D1124ED556A
:10239000FD4F8591959115C02F5F3F4F3796273997
:1023A000310551F790E080E0089587E0829FF001C9
:1023B000839FF00D1124EB55FD4F8591959100976A
:1023C00001F30895E0EAF2E030E020E0949189130F
:1023D0000BC087E0829FF001839FF00D1124EF5521
:1023E000FD4F8591959108952F5F3F4F379627397F
:1023F000310561F790E080E00895CF93DF930E946C
:102400002D0DEC01009749F00E94580A8093520765
:102410002196D0935107C0935007DF91CF91089533
:10242000AF92BF92CF92DF92EF92FF920F931F93E2
:10243000CF93DF939C01B62E8C010027107F832F52
:102440008F70D82ED22FC12C85E0A82E80915207F4
:10245000C816D8F5E0905007F0905107CA9CE00CE0
:10246000F11C1124C7010E94580A8B1511F08F30FE
:10247000A9F4C70101960E94580AC82FC701029605
:102480000E94580ACC2311F0C53B51F49FEF980FDE
:102490009E3F20F4DC1739F1C53B29F1C394D6CF18
:1024A000DC13FCCFD81611F08F3FC1F7C70103969C
:1024B0000E94580AC82FC70104960E94580AC63BBA
:1024C00009F0DC2F8E3F09F0D82EC8018D2B9D29F5
:1024D000DF91CF911F910F91FF90EF90DF90CF9000
:1024E000BF90AF900895D812D9CFE0CFFC01908172
:1024F000907681E0903409F080E00895482FE6E579
:10250000F7E030E020E05EE0529FC001539F900D65
:102510001124DC01A95AB84F6C9160FF03C062819D
:10252000641749F02F5F3F4F3E962A30310561F71F
:1025300090E080E00895895A984F08958F929F9275
:10254000AF92BF92EF92FF920F931F93CF93DF93BF
:102550009C01C62FD0E08E01080F191F60E070E0CB
:10256000CB012017310799F440E024E030E02C1B28
:102570003D0B42171306E4F0DF91CF911F910F91AD
:10258000FF90EF90BF90AF909F908F900895882418
:10259000962EA72EB82E79014FEFE41AF40AC9013E
:1025A0000E94580A9401282BC501B9019701D9CF7F
:1025B000982F872F762F66274F5FDBCFCF92DF9242
:1025C000EF92FF920F931F93CF93DF9300D000D031
:1025D000CDB7DEB769837A838B839C83042F6091A8
:1025E00054078B819C810E9410129C018827907F48
:1025F0009A838983832F8F70922F49EA420F443048
:1026000050F42755330B41E050E001C0440F2A95A8
:10261000EAF7842B90E029813A81292B382B3A83E1
:1026200029839981A90170E060E0C52ED62EE72E9E
:10263000FF24152F1F7020E09923C9F061E08091DD
:102640005307813009F060E089810E94B811BC0114
:1026500089819A8171FB222720F994FF20E0217063
:1026600070FF04C06894C1F81C2D1F70962F822F34
:10267000880F802B1295107F812B837F0F900F90F6
:102680000F900F90DF91CF911F910F91FF90EF90DE
:10269000DF90CF900895382F3170827F79F0832BAF
:1026A00020912A08E22FF0E0EE0FFF1FE65EF74FC1
:1026B000808311822F5F277020932A08992371F05D
:1026C00080912A08E82FF0E0EE0FFF1FE65EF74F3B
:1026D000308391838F5F877080932A080895CF930A
:1026E000DF934091E3075091E407C82FD0E09A01AF
:1026F000082E02C0369527950A94E2F720FF2BC0DA
:1027000021E030E0082E02C0220F331F0A94E2F7C6
:1027100020953095242335233093E4072093E30755
:102720001F928F9388E495E09F938F930E94692D69
:10273000CC0FDD1FC650D84F8981982F9F700F9006
:102740000F900F900F9039F08295807F90E0DF918D
:10275000CF910C944B13DF91CF910895CF92DF92DC
:10276000EF92FF920F931F93CF93DF93F82EE09099
:10277000F50705EF17E0D0E0C0E0C62E660FDD08D4
:10278000CE1548F0DF91CF911F910F91FF90EF9000
:10279000DF90CF900895CC16DD0641F0F8018581D9
:1027A0008770F81203C08C2F0E946F1321960E5F62
:1027B0001F4FE6CF0F931F93CF93C82F082F10E022
:1027C0008091E3079091E4070C2E02C096958795BF
:1027D0000A94E2F780FD39C0000F111FF801EB5099
:1027E000F84F8581877019F06C2F0E94AE1321E09D
:1027F00030E00C2E02C0220F331F0A94E2F78091C2
:10280000E3079091E407822B932B9093E407809346
:10281000E3071F92CF9386E595E09F938F930E94E5
:10282000692DF801E650F84F8181982F9F700F9025
:102830000F900F900F9049F08295807F816090E01B
:10284000CF911F910F910C944B13CF911F910F912A
:1028500008950F931F93CF93DF93EC016A857B85D7
:102860008C859D856115710581059105E9F08B01C8
:102870009C014EE136952795179507954A95D1F716
:102880000130B9F440E00E94DE120E944B138091A7
:10289000E3079091E407892B19F480E00E94DA1392
:1028A0001A861B861C861D86DF91CF911F910F9182
:1028B0000895033061F7292F2770213041F78B01EC
:1028C0009C0194E136952795179507959A95D1F730
:1028D0000F700130E1F68F700E946F13D8CF0F9305
:1028E0001F938B019C01DC01CB014EE1B695A795AE
:1028F000979587954A95D1F7813089F441E0C901D0
:102900000E94DE120E944B138091E5078F3FF9F081
:102910008091E6078F3FD9F41092E60718C0833004
:1029200099F7832F8770813009F042C0D901CB011C
:1029300034E1B695A795979587953A95D1F78F701D
:10294000122F1F70813071F4812F0E94DA13809151
:10295000E3079091E407892BF1F580E01F910F9137
:102960000C94DA13823081F3833021F4812F0E949A
:102970006F13EDCF843069F48091E3079091E40701
:10298000012E02C0969587950A94E2F780FDEECF5E
:10299000DBCF8530E1F6812F0E94DA131093E50733
:1029A0008FEF8093E6078CEA95E00E94842DCFCFCD
:1029B000823031F46FEF822F87700E94AE13A4CF64
:1029C000833009F0A1CF9927832F722F612F822F97
:1029D0000E94280F99CF1F910F9108952F923F9237
:1029E0004F925F926F927F928F929F92AF92BF921F
:1029F000CF92DF92EF92FF920F931F93CF93DF93CB
:102A000000D000D000D00F92CDB7DEB7382E4B01EA
:102A100095EFA92E97E0B92E2FE0C22ED12CFC2CD9
:102A2000CA82C4010C2C02C0969587950A94E2F7DD
:102A300080FD25C021E0C21AD10832E0A31AB108F6
:102A40004FEFC416D40659F790E080E027960FB6F2
:102A5000F894DEBF0FBECDBFDF91CF911F910F91D4
:102A6000FF90EF90DF90CF90BF90AF909F908F90AE
:102A70007F906F905F904F903F902F90089580913E
:102A8000F6079091F7079F838E838091F8079091C6
:102A9000F9074E815F814817590778F48E819F812D
:102AA0000E94580A182F8E819F8101960E94580A11
:102AB000912F212F2F7797FD05C0F50184A187FF66
:102AC000B9CFC2CF381649F082E0820F2E813F8104
:102AD000280F311D3F832E83D8CF8E819F81009791
:102AE00061F30E94580AEE81FF813296FF83EE83E4
:102AF0008F778F01080F111D8E819F81801791079D
:102B0000E0F68E819F810E94580A982F8F708F1552
:102B100031F12E813F812F5F3F4F929597709150F9
:102B20009330D8F4C9010E94580A982F929596952F
:102B300096959370282F2770920F9F5F86958695A4
:102B400086958770980F2E813F812E5F3F4FA90198
:102B5000490F511D5F834E83CFCF90E0F8CFEE81B8
:102B6000FF81309709F4A9CFCF010E94580A182F8E
:102B7000129517708CEF810F823058F51093E7078C
:102B80001092E8071092E9071092EA071092EB07FB
:102B90001092EC071092ED071092EE071092EF07DB
:102BA0001092F0071092F1071092F2071092F307BB
:102BB000FFEFF093F4078091E707853009F43ACFEF
:102BC000843009F441CF882309F434CF87EE97E0AD
:102BD0003DCF8E819F8101960E94580A082FE82ED2
:102BE000E294E694E69483E0E822E3942E813F8128
:102BF0002E5F3F4F3F832E836E2DC9010E949E1290
:102C0000262E7B838C839D838EEF810F823008F08C
:102C10003FC0802F86958695869587708983F12C95
:102C2000682F8E819F818E0D9F1D0E949E122B0109
:102C30003C01133089F5602F6770C7013981830F1C
:102C4000911D4E815F81840F951F0E949E121093EB
:102C5000E7072092E8075B815093E907EC81E09356
:102C6000EA07FD81F093EB074092EC075092ED07E5
:102C70006092EE077092EF076093F0077093F10790
:102C80008093F2079093F3072A812093F40793CF60
:102C9000412C512C612C712C60E070E080E090E0C0
:102CA000D6CF0F931F93CF93DF93EC018B819C8141
:102CB000860F911D9C838B838881982F9F799883A1
:102CC00091FD05C082FF03C08D798262888388816F
:102CD00081FF05C082FD03C08D7980648883809167
:102CE00056078F3F21F091E02981281301C090E021
:102CF000888190FB83F9888328853985232BE1F42B
:102D000080768032C9F40091E3071091E407B8019E
:102D100089810E94EE14FC01892B71F085858D83D9
:102D20001F830E83E081F0E0EE0FFF1FEF57FE4F91
:102D30008081918199878887E885F985309741F06E
:102D4000CE010995882321F01F821E8219861886DC
:102D5000DF91CF911F910F9108951F93CF93DF9330
:102D600000D000D000D0CDB7DEB78D839E83162F64
:102D7000AD81BE8116966D917C91179711968C91BD
:102D80000E94EE14FC01892BC1F0113001F5818104
:102D90009281A381B48189839A83AB83BC83BC0174
:102DA000CD010E946F1489819A81AB81BC81ED8134
:102DB000FE8182879387A487B58726960FB6F894FD
:102DC000DEBF0FBECDBFDF91CF911F9108951230AE
:102DD00029F485819681A781B085DDCF8185928593
:102DE000A385B485D8CFCF93DF93EC018A8124E00B
:102DF000829FC0011124682B6A831C821B826B3165
:102E000049F461E0CE010E94AD16CE01DF91CF9171
:102E10000C942914673021F0673641F461E001C059
:102E200062E0CE01DF91CF910C94AD16663629F0A9
:102E3000623059F3DF91CF91089563E0E3CFCF92F1
:102E4000DF92EF92FF920F931F93CF93DF93EC01EA
:102E50008881182F1295169513700A81EB80FC80DB
:102E600081FBCC24C0F883FBDD24D0F8113061F461
:102E7000063029F461E088ECE816F10440F11A828A
:102E800061E0CE010E94F316013081F0093119F1A1
:102E9000063061F11230B1F180E0DF91CF911F91E6
:102EA0000F91FF90EF90DF90CF900895CC2041F0EC
:102EB00088ECE816F104A0F163E0CE010E94F3165D
:102EC000123051F788ECE816F104E0F462E0CE012C
:102ED0000E94F316E1CFCC20B9F088ECE816F1049B
:102EE000D8F063E0CE010E94F316D4CFC110D2CF48
:102EF00063E088ECE816F10468F2CE010E94F31654
:102F000081E0CBCF1A8206C0123031F688ECE81689
:102F1000F104C0F762E0F1CF123009F0BDCFFACF73
:102F2000D110CACF123091F2B7CFCF93DF93EC011B
:102F30008A8124E0829FC0011124682B6A831C824D
:102F40001B82663049F461E0CE010E94AD16CE01CD
:102F5000DF91CF910C942914673021F0693141F44D
:102F600061E001C062E0CE01DF91CF910C94AD161B
:102F7000623069F3DF91CF910895CF92DF92EF92A3
:102F8000FF920F931F93CF93DF93EC018881182F4B
:102F90001295169513700A81CB80DC8081FBEE249C
:102FA000E0F883FBFF24F0F8113061F4063029F4D7
:102FB00061E088ECC816D10460F11A8261E0CE01AC
:102FC0000E949517013059F0063039F5E11005C01F
:102FD00063E088ECC816D10430F580E028C0EE200C
:102FE00089F063E088ECC816D10498F4FF2021F042
:102FF00063E0CE010E949517123079F709C00931BC
:1030000061F70FC0123049F788ECC816D10428F7D1
:1030100062E0CE010E949517E0CF1230F1F6073042
:1030200071F71A8262E0CE010E94951781E0DF916C
:10303000CF911F910F91FF90EF90DF90CF90089567
:10304000FC019081929596959370913039F492831A
:1030500061E0CF010E94AD1680E008959230E1F763
:103060009283CF010E94291481E008958093530731
:103070000895809354070895AF92BF92CF92DF9244
:10308000FF920F931F93CF93DF930E94C90C5C01B3
:103090000E94E20CEC010E94FB0C8C010E94140DBA
:1030A0006C01C50104960E94580AF82E8093F5071A
:1030B0001093F7070093F6070C0D1D1D1093F907E9
:1030C0000093F807DF92CF921F928F9383E695E0EB
:1030D0009F938F930E94692D0AEF17E00F900F9036
:1030E0000F900F900F900F905801D12C80E090E03E
:1030F000DF1448F4CE010E94580AC82ECE01019672
:103100000E94580A9C2DD5018D939D935D01D39407
:103110002296B0E1DB12EACF0E94FD11ECE2F8E06A
:1031200088E0DF011D928A95E9F710923408109229
:10313000350810923608109237081092380810920D
:10314000390810923A0810923B0810923C081092ED
:103150003D0810923E0810923F084091F50790E01C
:1031600080E030E020E061E070E0841708F44DC0BA
:103170003093E4072093E3078FEF8093E507809374
:10318000E60780935607E6E5F7E090E080E04EE042
:103190003FEF489FD001499FB00D1124ED01C95A5E
:1031A000D84F28812E7F288332831382AA5AB84FA2
:1031B00011962C911197297F11962C9311971582B6
:1031C000148211962C911197277E11962C93368399
:1031D000108617821286118628812F7928831386FC
:1031E00014861586168601963E968A30910589F6D4
:1031F00081E080935507DF91CF911F910F91FF9050
:10320000DF90CF90BF90AF900895D801ED91FD91E0
:103210008D01F5FF09C0FB01082E02C0EE0FFF1F54
:103220000A94E2F72E2B3F2B01969FCF80935307F2
:10323000089580935407089580915507882361F17C
:10324000E4E3F8E080E030E020E041E050E09191FC
:10325000992339F0BA01022E01C0660F0A94EAF7E9
:10326000862B2F5F3F4F2430310589F7823031F4B0
:1032700081E090913808911180E0880F80932C08AC
:1032800086E0E9E3F8E0AEE2B8E001900D928A95BD
:10329000E1F78CE298E0089548E050E060E08CE2CD
:1032A00098E00E946606F5CF80915507882309F4BF
:1032B00085C080912B0890912A08981B977009F47B
:1032C00045C0E82FF0E0EE0FFF1FE65EF74F90815C
:1032D000492F42954F7021818F5F877080932B0813
:1032E000892F827050E090FF36C0882329F08091AA
:1032F00038088F5F80933808ECE2F8E090E080E0D7
:10330000BA01082E02C0759567950A94E2F760FF2E
:1033100003C030853F5F3087019631968430910538
:1033200079F7222399F080913F0896E08F5F8630ED
:1033300009F480E0E82FF0E0E45DF74F35853323B2
:1033400011F0915099F780933F0825878091E3070A
:103350009091E4070895882339F0809138088823F4
:1033600019F0815080933808ECE2F8E090E080E0BA
:10337000BA01082E02C0759567950A94E2F760FFBE
:1033800005C03085332311F03150308701963196D6
:103390008430910569F72223C9F2E9E3F8E090E06F
:1033A00080E03191321305C0845D974FFC01158692
:1033B000CDCF019686309105A1F7C8CF90E080E08F
:1033C0000895CF93DF93C82FD62F80915507882378
:1033D00009F448C08C2F0E947E12DC01DD23E9F144
:1033E000892B29F590E080E02EE0289FF001299FAD
:1033F000F00D1124DF01A95AB84F3C9130FD1CC0DB
:10340000DF01A95AB84FEA5AF84FC28313821582D6
:1034100014828FEF8683108617821286118681812F
:103420008078816081831386148615861686C09302
:1034300056078C91846015C001968A309105A9F6D3
:103440001F92CF9387E895E09F938F930E94692DF9
:103450000F900F900F900F9005C0892B19F08C9151
:103460008B7F8C93DF91CF910895CF92DF92EF9273
:10347000FF920F931F93CF93DF93C82F809155072F
:10348000882309F47FC087E5E82E87E0F82E6701DE
:1034900010E000E0DEE0D09FF001D19FF00D11249C
:1034A000E95AF84F808180FF0AC0F601918180912E
:1034B0005607981721F06C2FC6010E9451160F5F16
:1034C0001F4FFEE0CF0ED11C0A30110521F710E08E
:1034D00000E0DEE0D09FF001D19FF00D1124E95A09
:1034E000F84F808180FF0AC0F701918180915607D3
:1034F000981304C06C2FC7010E9451160F5F1F4F15
:10350000FEE0EF0EF11C0A30110521F78FEF8093DA
:103510005607A6E5B7E030E020E08EE0829FF0019C
:10352000839FF00D1124E95AF84F908190FF0AC053
:1035300091FD08C019964D915C911A97452B11F495
:103540009E7F90832F5F3F4F1E962A30310531F7C3
:103550008091E5078F3FB1F06091E60767FD12C0EB
:103560006C0F6093E60763336CF085EA95E00E9488
:10357000842D8091E5070E946F138FEF8093E507FC
:103580008093E607DF91CF911F910F91FF90EF900D
:10359000DF90CF9008951092550708950E94C40FB0
:1035A00081110C943C180C94CB1ACF93C82F8091A6
:1035B00062088C17A1F087EB95E0CC2311F084EB27
:1035C00095E09F938F938BEB95E09F938F930E9451
:1035D000692DC09362080F900F900F900F90CF91BC
:1035E0000895CF93C82F809163088C17D9F087EB8B
:1035F00095E0CC2311F084EB95E09F938F938CECB6
:1036000095E09F938F930E94692DC09363080F905C
:103610000F900F900F90C11105C088E498E0CF91F2
:103620000C94100ACF910895823039F480E00E9402
:10363000F11A80E00E94D51A0895803129F0813175
:1036400031F40E94CE1A08950E94CB1A0895803258
:1036500039F0813241F0823241F0833249F00895ED
:1036600081E00C94F11A80E0FCCF81E00C94D51A33
:1036700080E0FCCFCF93DF93D62FC42F813031F47D
:103680008AE39BE1DF91CF910C94A90FE091600850
:10369000F0916108309751F00190F081E02D309762
:1036A00029F06C2F8D2FDF91CF910994D11114C087
:1036B00081E0C11101C080E080935F01E09160086A
:1036C000F0916108309729F00280F381E02D309766
:1036D00041F7DF91CF910895D13039F481E0C111E4
:1036E00001C080E080935E01E9CFD23039F481E0FF
:1036F000C11101C080E080935D01E0CFD33039F487
:1037000081E0C13009F080E080935B01D7CFD430F5
:10371000B1F48C2F0E94161984EE95E0C13011F49B
:1037200080EE95E09F938F9382EF95E09F938F9328
:103730000E94692D0F900F900F900F90BFCFD53042
:1037400009F0BCCF8C2F0E9419198DEE95E0C13085
:1037500011F487EE95E09F938F9385E096E0E6CF96
:10376000CF93DF93C82FD62FE0914008F091410806
:10377000309709F009958091750890917608009727
:1037800039F08C0F911DFC01C081CF3F09F43FC07F
:10379000DD2379F11F92CF938AE196E09F938F9377
:1037A0000E94692D0F900F900F900F908C2F809397
:1037B000590180915F01882321F06D2F8C2F0E9489
:1037C000A511E0916008F0916108309741F0068002
:1037D000F781E02D309719F06D2F8C2F099580918E
:1037E0006308811114C06D2F8C2FDF91CF910C9441
:1037F000E1191F92CF9386E296E09F938F930E94E8
:10380000692D0F900F900F900F908FEFD0CFDF9119
:10381000CF910895CF93DF93D82FC92F6091570888
:1038200070E0482F592F88E598E00E949906811191
:103830000DC0E091570881E08E0F80935708F0E0AB
:10384000EE0FFF1FE85AF74FD083C183DF91CF916E
:103850000895CF93DF93D82FC92F6091540870E05B
:10386000482F592F85E598E00E94990681110DC0D7
:10387000E091540881E08E0F80935408F0E0EE0F41
:10388000FF1FEB5AF74FD083C183DF91CF9108958B
:10389000909343088093420808959093530880932F
:1038A000520808959093510880935008089590937A
:1038B0007608809375080895909361088093600856
:1038C000089581E080935A01089583E798E0089570
:1038D00081E798E00895CF93DF9380E00E94B30DD5
:1038E00084E00E94B30D85E00E94B30D0E948A0A15
:1038F0000E94BD0B8AE39BE10E94CA0D0E94A70EA5
:103900000E94CE1A84E19BE10E941F100E94490A86
:10391000EC0148E050E060E376E00E944E0641E0B2
:1039200050E067E474E0CE0108960E944E0643E042
:1039300050E06CED72E0CE0109960E944E0641E027
:1039400050E067E474E0CE010C960E944E0646E01B
:1039500050E06AE171E0CE010D960E944E0641E012
:1039600050E067E474E0CE0143960E944E0646E0C4
:1039700050E061E271E0CE0144960E944E0641E0C3
:1039800050E067E474E0CE014A960E944E0642E0A1
:1039900050E068E271E0CE014B960E944E0641E095
:1039A00050E067E474E0CE014D960E944E0648E078
:1039B00050E06BE271E0CE014E960E944E0641E06F
:1039C00050E069E871E0CE0186960E944E0684E3DD
:1039D00091E0DF91CF910C944C0ACF93C0E080919D
:1039E0005708C81710F0CF910895EC2FF0E0EE0FB4
:1039F000FF1FE85AF74F0190F081E02D309719F042
:103A000081E798E00995CF5FEACFCF93DF9300D0AD
:103A1000CDB7DEB71A821982E0914208F0914308CF
:103A20003097A9F0BE016F5F7F4FCE0102960995D6
:103A30009A818981292F282B51F010926408909344
:103A400065088093660884E698E00E94190A0F9042
:103A50000F90DF91CF9108958F929F92AF92BF9276
:103A6000CF92DF92EF92FF920F931F93CF93DF934A
:103A70000E94F0066B017C018091440890914508FA
:103A8000A0914608B091470846015701881A990A43
:103A9000AA0ABB0A85E688169104A104B10428F09D
:103AA00084E6882E912CA12CB12CC0E06C2F83E7EA
:103AB00098E00E948006182F6C2F81E798E00E9402
:103AC0008006D82F11119EC061E081119EC04D2F3C
:103AD0006C2F83E798E00E946906CF5FCE3031F704
:103AE000882D0E94351A0E945419EC010E941C195D
:103AF0008C0180916F0890917008C817D90709F45C
:103B000068C080915F01882319F0CE010E94AD1139
:103B1000E0916008F0916108309739F00480F581F8
:103B2000E02D309711F0CE010995D0937008C09325
:103B30006F08D0935601C0935501C1E048E050E0B2
:103B400067E678E0C8010E943F06811144C0809179
:103B50006208811103C0C8010E94100A48E050E0C9
:103B6000B80187E698E00E94E50589E396E09F9317
:103B70008F930E94692DC7E6D8E00F900F9005E95A
:103B800011E089911F928F931F930F930E94692DCB
:103B90000F900F900F900F9088E0CF36D80789F7DD
:103BA00086E496E09F938F930E94692D8091700820
:103BB0008F9380916F088F938AE496E09F938F9301
:103BC0000E94692D0F900F900F900F900F900F9003
:103BD00004C0C0E0B3CFC111C8CFC0924408D09296
:103BE0004508E0924608F0924708DF91CF911F9177
:103BF0000F91FF90EF90DF90CF90BF90AF909F908C
:103C00008F900895811163CF60E08C2F0E94B01BCC
:103C10005ECF80915E01882351F09091730880916E
:103C20007408982B81E009F480E00C94B321089586
:103C300080915E01882351F0909171088091720803
:103C4000982B81E009F480E00C94B32108958091D1
:103C50005D01882351F081E00E94A52182E090E07F
:103C60000E94AD0680E00C94A5210895CF93C0E09A
:103C700080915408C81710F0CF910895EC2FF0E010
:103C8000EE0FFF1FEB5AF74F0190F081E02D0995E1
:103C9000CF5FEECFE0915208F0915308309709F0D2
:103CA00009940895E0915008F0915108309709F077
:103CB000099408950E94510A0E94160A80935C019B
:103CC0000E9434100E947B0F0C948B0A9093410841
:103CD000809340080895CF92DF92EF92FF920F9366
:103CE0001F93CF93DF93C82ED62E7A01122FD32F96
:103CF000C0E080917D08C81730F1C0E080917C0859
:103D0000C81760F1C0927D08D0927C08E0927A08D2
:103D1000F0927B0810937808D09379080093770885
:103D2000C0E080917D08C81720F1C0E080917C0838
:103D3000C81770F1DF91CF911F910F91FF90EF9015
:103D4000DF90CF900895E0917A08F0917B08EC0F16
:103D5000F11D80810E94AF07CF5FCBCFE091780843
:103D6000F0917908EC0FF11D80810E94AF07CF5FC1
:103D7000C5CFE0917A08F0917B08EC0FF11DD0815E
:103D80008D2F0E9486078D2F0E942608CF5FC9CFF6
:103D9000E0917808F0917908EC0FF11D80810E9484
:103DA000AF07CF5FC3CFCF92DF92EF92FF920F9317
:103DB0001F93CF93DF93082FF92ED0E0E12CDD2461
:103DC000D39480917D08D81748F0DF91CF911F914F
:103DD0000F91FF90EF90DF90CF900895E0917A08D7
:103DE000F0917B08ED0FF11DC0808C2D0E942908F9
:103DF00085E090E00E94BC06C0E01E2D1C0F809163
:103E00007C08C81730F08C2D0E942608DF5FE12E59
:103E1000D8CFE0917808F0917908EC0FF11D8081FE
:103E20000E94E107482F4D2580917708612F680F88
:103E3000802F9F2D0E946906CF5FDFCF80918F0872
:103E4000882341F080936B008091680081608093AB
:103E50006800089510926B00809168008E7FF7CF04
:103E60001F920F920FB60F921124BF92CF92DF9242
:103E7000EF92FF920F931F932F933F934F935F9374
:103E80006F937F938F939F93AF93BF93CF93DF9362
:103E9000EF93FF93B3B00EE718E0D0E0C0E0EE245C
:103EA000E394F12CCB2CD12CA7010C2E02C0440F93
:103EB000551F0A94E2F796012423352380918E083A
:103EC00090E08423952341E0181619060CF040E099
:103ED00081E0121613060CF080E0481761F062E0F2
:103EE000232B09F061E070E0D801ED91FC9130974F
:103EF00011F0CE01099521960E5F1F4FC830D105F4
:103F000099F6B0928E08FF91EF91DF91CF91BF911A
:103F1000AF919F918F917F916F915F914F913F9161
:103F20002F911F910F91FF90EF90DF90CF90BF9056
:103F30000F900FBE0F901F901895EF92FF920F9366
:103F40001F93CF93DF93EC017B018830910530F50F
:103F500001E010E001C0000F8A95EAF780918F0818
:103F6000802B80938F088C2F0E94E10790918E0800
:103F7000882389F0902B90938E08CC0FDD1FC258B8
:103F8000D74FE882F982DF91CF911F910F91FF9077
:103F9000EF900C941E1F00959023EDCFDF91CF91F1
:103FA0001F910F91FF90EF9008958770992721E05E
:103FB00030E0082E01C0220F0A94EAF720953091D4
:103FC0008F08232320938F08880F991FFC01E25844
:103FD000F74F118210820C941E1F2F923F924F9226
:103FE0005F926F927F928F929F92AF92BF92CF9289
:103FF000DF92EF92FF920F931F93CF93DF933C01D9
:10400000C4E9D8E0D12CC12C10E000E026E0422E1B
:10401000AA24A394B12C2224239480919C089091EB
:104020009D08081719079CF0DF91CF911F910F9100
:10403000FF90EF90DF90CF90BF90AF909F908F90C8
:104040007F906F905F904F903F902F900895E090F9
:104050009A08F0909B08EC0CFD1CF70180818615F6
:10406000170409F083C082E390E00E94BC06F701C8
:1040700080810E94E107582EF82FFF703F2E409E4E
:10408000C001419E900D11249C012C56374F4901CF
:10409000F90180818F70831509F468C0F70181816F
:1040A0000E94E107F40190819F7009F466C0252DFC
:1040B000222530E0811168C006C021E030E05110B7
:1040C00004C020E030E0220F331F922F409EF00109
:1040D000419EF00D1124EC56F74F8081807F803295
:1040E000C9F42330C1F58D81F50102C0EE0FFF1F29
:1040F0008A95E2F7CF01092E000CAA0BBB0B498170
:104100005A816B817C81842B952BA62BB72B1CC0ED
:1041100023E0DBCF8034F9F49130E9F48D81A501FF
:1041200002C0440F551F8A95E2F7CA018095909509
:10413000092E000CAA0BBB0B49815A816B817C8133
:1041400084239523A623B72389839A83AB83BC83D7
:104150008D818F5F8D83409EF001419EF00D112473
:10416000EC56F74F2295207F232920830F5F1F4FA6
:104170002696F3E0CF0ED11C50CF882309F49DCFB3
:1041800020E030E05110C4CF220F331F220F331F25
:104190009CCFCF92DF92EF92FF920F931F93CF931A
:1041A000DF93C82F162FD72FD12CC12CF12CE12C47
:1041B00080919C0890919D08E816F906F4F08C2FE8
:1041C00090E090939D0880939C0810939A08D09358
:1041D0009B08F12CE12C10E000E080919C0890916C
:1041E0009D0808171907D4F0DF91CF911F910F9107
:1041F000FF90EF90DF90CF900895E0919A08F091B2
:104200009B08EC0DFD1D808190E00E94D51F8FEF73
:10421000E81AF80A83E0C80ED11CCACFC0919A08E8
:10422000D0919B08CE0DDF1D88810E94AF07898148
:104230000E94AF0788816DEE7FE190E00E949D1F94
:104240000F5F1F4F83E0E80EF11CC7CF9F92AF9224
:10425000BF92CF92DF92EF92FF920F931F93CF9373
:10426000DF93B82EA92EC4E9D8E0D12CC12CF12CB3
:10427000E12C80919C0890919D08E816F90664F065
:10428000DF91CF911F910F91FF90EF90DF90CF9032
:10429000BF90AF909F90089500919A0810919B084D
:1042A0000C0D1D1D4091900850919108609192084D
:1042B000709193084F5F5F4F6F4F7F4F409390080F
:1042C0005093910860939208709393084370552718
:1042D00066277727452B462B472B79F58D81882339
:1042E00061F149815A816B817C81942F9170992E63
:1042F000769567955795479549835A836B837C8359
:1043000081508D8341E0911040E0F80162818B2D56
:104310009A2D0E94690641E0941240E0F801628102
:104320006F5F8B2D9A2D0E946906FFEFEF1AFF0A2F
:10433000269683E0C80ED11C9CCF82E0982EE2CF57
:1043400090939F0880939E080895E0919E08F091B5
:104350009F08309739F062E070E0681B710990E0C7
:1043600080E009940895E0919E08F0919F083097AD
:1043700039F062E070E0681B710981E090E0099417
:104380000895E0919E08F0919F08309729F063E02E
:1043900070E090E080E009940895E0919E08F0912B
:1043A0009F08309729F063E070E081E090E0099485
:1043B00008959B01805A9E4FFC0180818F3FA1F0A0
:1043C0006330710579F09091A00861E0911105C00A
:1043D0002130310529F060E003C021303105D9F3E7
:1043E0000C94CA070C94FD0708951F93CF93DF9395
:1043F000D82FC62F142F8F3F31F00E948607612FD0
:104400008D2F0E94CA07CF3F39F08C2F0E9486075C
:10441000612F8C2F0E94CA07D0936001C093610165
:104420001093A00889ED91E20E94A02182E00E94F1
:10443000B30D81E0DF91CF911F910C94B30D41E05A
:1044400065E180E00C94F521CF93DF93D82FC62F40
:104450008CE30E94F10A80E00E94030B8D2F806B99
:104460000E94030B8C2F8F700E94030B8C2F829560
:104470008F7080610E94030BDF91CF910C940D0B24
:10448000CF93DF930E948C0A8CE30E94F10AC1EC67
:10449000D6E0FE018591EF010E94030BF6E0C73DD7
:1044A000DF07B9F70E940D0B1092A10880EA8093F4
:1044B000A20880EC8093A30843E050E061EA78E032
:1044C0008CE3DF91CF910C94960A0F931F93CF93B7
:1044D000C0E060E08C2F0E9424228CE30E94F10A4D
:1044E00080E40E94030B00E810E080E00E94030BD0
:1044F00001501109D1F70E940D0BCF5FC43049F76D
:10450000CF911F910F910895CF92DF92EF92FF927A
:104510000F931F93CF93DF937C01D0E0C0E060E066
:104520008C2F0E9424228CE30E94F10A80E40E94D6
:10453000030B10E000E06701CC0EDD1EF801EE0F6A
:10454000FF1FEE0FFF1FEC0DFD1D84910E94030B5A
:104550000F5F1F4F0038110589F70E940D0B219640
:10456000C430D105E1F6DF91CF911F910F91FF90FB
:10457000EF90DF90CF90089590930E0980930D09EE
:1045800070930C0960930B0950930A094093090931
:1045900008958F929F92AF92BF92CF92DF92EF9247
:1045A000FF92CF93DF93E5EAF8E025EB38E0812C2A
:1045B000912C54018394D90190E080E04D914423E3
:1045C000C9F0ED0121971882408151816281738188
:1045D00075016401082E04C0CC0CDD1CEE1CFF1C10
:1045E0000A94D2F74C295D296E297F294083518393
:1045F0006283738301968531910501F734962B5EB2
:104600003F4F88E0E53BF807B1F6DF91CF91FF908F
:10461000EF90DF90CF90BF90AF909F908F900895D4
:104620008F929F92AF92BF92CF92DF92EF92FF92C2
:104630000F931F93CF93DF93942F252F641B35E1A6
:10464000839FA00111244B54574F34E0839FF00106
:104650001124EB55F74FC12CD12C7601C394762F42
:10466000790FA92FB22F8D9181110DC0DF91CF91BC
:104670001F910F91FF90EF90DF90CF90BF90AF9080
:104680009F908F900895EA01C70FD11D9881282F20
:10469000082E000C330B92171306B1F088834601E5
:1046A000570104C0880C991CAA1CBB1C7A95D2F730
:1046B0000081118122813381082919292A293B2966
:1046C00000831183228333839A2F2B2FC8CF7F92AD
:1046D0008F929F92AF92BF92CF92DF92EF92FF9212
:1046E0000F931F93CF93DF9360910B0970910C0987
:1046F0008091090990910A09680F791F80E890E07C
:104700000E94B12A5B0185EBE82E88E0F82E95EA3D
:10471000C92E98E0D92E712CD0E0C0E048C0F60137
:1047200080819181A281B3810C2E04C0B695A7959A
:10473000979587950A94D2F780FF38C0F701EC0F60
:10474000FD1F108160910B0970910C09809109097E
:1047500090910A09680F791F6C9F602D1124872D95
:104760000E9424228CE30E94F10A80E40E94030B41
:10477000112309F458C0812F110F990B80972091B4
:104780000B0930910C09829F8001839F100D929F2D
:10479000100D1124912C812C80910B0990910C0902
:1047A000881699060CF442C00E940D0B2196CA157A
:1047B000DB050CF4B4CFE5E1EE0EF11C7394F4E0EC
:1047C000CF0ED11C24E07212A7CF1092A508109230
:1047D000A6081092A7081092A8081092A908109293
:1047E000AA081092AB081092AC081092AD08109273
:1047F000AE081092AF081092B0081092B108109253
:10480000B2081092B3081092B408DF91CF911F91B3
:104810000F91FF90EF90DF90CF90BF90AF909F905F
:104820008F907F90089500E010E0B4CFE0910D09E3
:10483000F0910E09E80DF91DE00FF11F84910E941F
:10484000030B8FEF881A980AA7CF90936701809384
:1048500066010895909365018093640160936301FC
:104860004093620108950E9440224091620150E00D
:104870006091630170E080916401909165010C94F6
:10488000BC220F931F93CF93DF9380910F09811167
:104890000BC080916601909167010097A9F00E947A
:1048A000842280910F0906C090915A01911105C090
:1048B0008C3340F48F5F80930F09DF91CF911F916C
:1048C0000F9108958C3319F40E946522EACF8091EC
:1048D000640190916501892B81F348E556E070E011
:1048E00060E090E080E00E941023E0915701F09199
:1048F000580187815DE281115BE286814DE2811181
:104900004BE285813DE281113BE284812DE2811100
:104910002BE283819DE281119BE282818111A2C001
:104920008DE21F925F931F924F931F923F931F92AE
:104930002F931F929F931F928F938FE596E09F93E3
:104940008F9381E199E09F938F930E94B02D41E175
:1049500059E06FE070E090E080E00E9410238091C9
:1049600059012DB73EB7205F3F4F0FB6F8943EBFB9
:104970000FBE2DBF8F3F09F477C0E0915701F09132
:104980005801DF0112969F01285F3F4F1D911111C1
:1049900003C02A173B07D1F700811F928F938CE643
:1049A00096E09F938F93C1E1D9E0DF93CF930E946C
:1049B000B02DAE0170E060E083E090E00E94102333
:1049C0001F921F9382E796E09F938F93DF93CF937D
:1049D0000E94B02DAE0166E070E083E090E00E949E
:1049E00010231F920F9388E796E09F938F93DF9396
:1049F000CF930E94B02DAE016DE070E083E090E0B7
:104A00000E9410232DB73EB72E5E3F4F0FB6F8948D
:104A10003EBF0FBE2DBF8091550190915601992741
:104A20009F938F938EE896E09F938F9381E199E017
:104A30009F938F930E94B02D41E159E062E170E0B5
:104A400083E090E00E9410230E9467238091100968
:104A50008F5F809310090F900F900F900F900F9021
:104A60000F902BCF8BE25DCF6DE776E081E199E08F
:104A70000E94622D41E159E070E060E083E090E047
:104A80000E94102363E876E081E199E00E94622DA4
:104A900041E159E066E070E083E090E00E9410237D
:104AA00069E876E081E199E00E94622D41E159E0F8
:104AB0006DE070E083E090E00E941023ACCF0C9496
:104AC000502ACF93DF93D82FC62F872F0E94532AC7
:104AD0008D2F0E94532A8C2FDF91CF910C94532A53
:104AE000CF92DF92EF92FF920F931F93CF93DF93BA
:104AF00000D000D0CDB7DEB7E62F582F242F30E0FE
:104B0000A72FB0E00E94062B6B017C01CC242E2F36
:104B100030E0A42FB0E00E94062BBB27A92F982FCE
:104B2000872FC82AD92AEA2AFB2A242F30E0A52F6A
:104B3000B0E00E94062BBB27A92F982F872FDC01FE
:104B40009927882797018601082B192B2A2B3B2BA5
:104B500009831A832B833C83C901B8010F900F90FE
:104B60000F900F90DF91CF911F910F91FF90EF90D9
:104B7000DF90CF900C946125CF93DF9300D000D0CD
:104B8000CDB7DEB7E0911F09ED3008F0E0E084E03A
:104B9000E89FF0011124E454F54F85919591A5917A
:104BA000B591BC01CD010F900F900F900F90DF9148
:104BB000CF9108952F923F924F925F926F927F9282
:104BC0008F929F92AF92BF92CF92DF92EF92FF921D
:104BD0000F931F93CF93DF93CDB7DEB760970FB6D8
:104BE000F894DEBF0FBECDBF80901A0990901B09CC
:104BF000A0901C09B0901D09C501B40126E930E060
:104C000040E050E00E94C52A69837A838B839C83AD
:104C10000E943C2C20E030E046E153E469837A8333
:104C20008B839C8369817A818B819C810E949B2BE1
:104C3000F62E172F8F839D830E94BC254B015C01AC
:104C40004FEF84169406A406B10431F438E8832E9D
:104C500099249A94A92CB12C340155244424442439
:104C600055247724BB27AB2D9A2D892D482A592A04
:104C70006A2A7B2A20E030E040E450E4F9821A837B
:104C80006F816B837D817C8369817A818B819C813B
:104C90000E94EE2C8B0189879F8320E030E040E862
:104CA0005FE369831A838B839C8369817A818B811B
:104CB0009C810E94962B87FD2AC0FA2CE92CD82CC7
:104CC000CC24CC24FF24C501AA27BB27C82AD92A73
:104CD000EA2AFB2A20E030E040E050E469817A8152
:104CE0008B819C810E94962B87FF78C020E030E06A
:104CF00040E85FE369817A818B819C810E94292B46
:104D00008B0189879F83530142012601370120913E
:104D1000210930912209032E000C440B550B60E051
:104D200070E081E090E00E94E72A3E832D830E949C
:104D3000CB0620E030E040E853E409831A838985FC
:104D40008B839F819C8369817A818B819C810E9466
:104D5000EE2C69837A838B839C8369817A818B8132
:104D60009C810E940D2CA3E06A9F60011124EA2D12
:104D7000F0E0F887EF83262C312C492D50E05A873C
:104D80004987E52CF12C1982682D70E0788B6F87AC
:104D9000042D10E08980282D30E080912109909128
:104DA00022092817390794F160960FB6F894DEBFF0
:104DB0000FBECDBFDF91CF911F910F91FF90EF906C
:104DC000DF90CF90BF90AF909F908F907F906F902B
:104DD0005F904F903F902F900C94C90620E030E0F8
:104DE00040E050E409831A8369856B837F817C836B
:104DF00069817A818B819C810E94292B8B01898713
:104E00009F83240135014601570181CF8D809E800B
:104E1000289DC001299D900D389D900D1124892F4A
:104E20009927880F991F9601281B390B2F3F3105B1
:104E300019F014F02FEF30E037FF02C020E030E02F
:104E40004FEF50E0421B530BAF80B8844A9D2001C6
:104E50004B9D500C5A9D500C1124229DC001239D46
:104E6000900D329D900D1124480E591E452C55244D
:104E7000712C612C32015524442489849A84489DE4
:104E8000C001499D900D589D900D11242E9DB0019B
:104E90002F9D700D3E9D700D1124860F971F892F39
:104EA0009927B0E0A0E0BA2FA92F982F882784294E
:104EB0009529A629B729AF84B888A49EB001A59EDC
:104EC000700DB49E700D1124029FA001039F500D20
:104ED000129F500D1124640F751F672F7727AB01A8
:104EE00070E060E04C015D01842A952AA62AB72A69
:104EF0008B869C86AD86BE8640911E09C501B40195
:104F00000E94702549814F5F498344CFAF92BF9281
:104F1000CF92DF92EF92FF920F931F93CF93DF9385
:104F200000D000D000D0CDB7DEB70E94BC25F62E51
:104F3000E72ED82EC92EA0902109B0902209950104
:104F4000220F331F3E832D8380911A0990911B09F4
:104F5000A0911C09B0911D099C01AD015695479582
:104F60003795279529833A834B835C838D819E8176
:104F70009C01990F440B550B69817A818B819C812F
:104F80000E94C52A69837A838B839C8309811A8155
:104F9000A016B10634F40D811E8129813A81021BCD
:104FA000130B0E94CB061A821982809121099091DD
:104FB000220949815A814817590794F026960FB65D
:104FC000F894DEBF0FBECDBFDF91CF911F910F913F
:104FD000FF90EF90DF90CF90BF90AF900C94C906F8
:104FE00040911E0989819A818017910769F060E0DC
:104FF00070E080E090E00E94702529813A812F5F67
:105000003F4F3A832983D1CF6F2D7E2D8D2D9C2D3F
:10501000F2CFDF92EF92FF920F931F93CF93DF9324
:105020000E94BC25162F072FF82EE92E20911A0971
:1050300030911B0983E0220F331F8A95E1F731700D
:10504000213041E0340734F080E092E0AC01421BB3
:10505000530B9A0140911E09429FC001439F900D3E
:105060001124D92E0E94CB06D0E0C0E08091210906
:1050700090912209C817D9074CF0DF91CF911F9169
:105080000F91FF90EF90DF900C94C9064D2D612F8A
:10509000702F8F2D9E2D0E9470252196E7CFEF92C5
:1050A000FF920F931F93CF93DF930E94BC25162F7F
:1050B000072FF82EE92E0E94CB06D0E0C0E08091A9
:1050C000210990912209C817D90744F0DF91CF91A7
:1050D0001F910F91FF90EF900C94C90640911E090B
:1050E000612F702F8F2D9E2D0E9470252196E7CF66
:1050F000813021F488E798E20C94A90F663039F4E6
:1051000081E0411101C080E080932009089567305B
:1051100019F440931F090895683041F4449FA00199
:10512000112481E0850F80931E090895693011F4E0
:105130004093190908950F931F93CF93DF9300D0E5
:1051400000D000D0CDB7DEB780911A0990911B092D
:10515000A0911C09B0911D09BC01CD0124E130E0F2
:1051600040E050E00E94C52A69837A838B839C8348
:10517000672B682B692B09F048C00E94CB061E8262
:105180001D820DEE15E180912109909122092D815A
:105190003E812817390764F026960FB6F894DEBFD3
:1051A0000FBECDBFDF91CF911F910F910C94C90617
:1051B0002091680130916901209FC001219F900DCD
:1051C000309F900D1124419690936901809368015E
:1051D0006DE00E94A52AA4E09A9FF0011124E454F6
:1051E000F54F85919591A591B59189839A83AB836C
:1051F000BC8340911E09BC01CD010E947025AD8188
:10520000BE811196BE83AD83BECF26960FB6F894AD
:10521000DEBF0FBECDBFDF91CF911F910F910895DB
:1052200086E00E94B30D87E00E94B30D88E00E94E3
:10523000B30D89E00E94B30D6CE087E00E94ED0D94
:1052400064E089E00C94ED0DCF93C82F70E070936B
:1052500026096093250950E05093240940932309BF
:1052600088E798E20E94CA0D8C2FCF910C945F259D
:10527000811109C0809125099091260990932209F6
:105280008093210908958091230990912409F6CFF4
:10529000CF93DF9300D000D0CDB7DEB70E94F006E9
:1052A00069837A838B839C83DC01CB0126E0B695EE
:1052B000A795979587952A95D1F780931A0990938A
:1052C0001B09A0931C09B0931D098091200981112D
:1052D00021C00E94CB061A821982809121099091E7
:1052E000220929813A812817390744F00F900F903D
:1052F0000F900F90DF91CF910C94C90660E070E0A1
:10530000CB010E94612529813A812F5F3F4F3A836B
:105310002983E3CFE0911909E530B0F480912109A8
:1053200090912209181619067CF4F0E0EE0FFF1F89
:10533000EE54F54F0590F491E02D0F900F900F90E3
:105340000F90DF91CF9109940F900F900F900F90D5
:10535000DF91CF910895CF93DF93CDB7DEB7289734
:105360000FB6F894DEBF0FBECDBF0E9407070E94A4
:105370006B1C0E94F5090E94C90619821A821B82C1
:105380001C8288E2882E912CA12CB12C90E3492E0E
:10539000512C612C712C89819A81AB81BC818370E5
:1053A0009927AA27BB270097A105B10509F04EC090
:1053B0000E94ED1C0E942C1D0E94091E69817A81A9
:1053C0008B819C81A50194010E94C52A62307105E0
:1053D0008105910531F469817A818B819C810E94DC
:1053E000361E69817A818B819C81A30192010E9482
:1053F000C52A633071058105910531F469817A818F
:105400008B819C810E944A1E69817A818B819C815B
:1054100024E630E040E050E00E94C52A672B682B6C
:10542000692B11F40E94521E0E945A1E81E090E0E6
:105430000E94AD0689819A81AB81BC810196A11D34
:10544000B11D89839A83AB83BC83A5CF0197A10546
:10545000B10509F0B3CF0E94051D0E94F0066B0153
:105460007C018091270990912809A0912909B09188
:105470002A098C159D05AE05BF0508F09FCF0E9437
:10548000271E88EBC80E8BE0D81EE11CF11CC092D1
:105490002709D0922809E0922909F0922A098ECF93
:1054A000849A8C98089598E0880F30F08C9A0000C8
:1054B000000000008C98000088F48C9A0000000026
:1054C00000000000000000000000000000000000DC
:1054D0008C9800000000000000000000880F9A95E2
:1054E00021F708950E941F220E946A070E94332418
:1054F00081E494E20E944D1C0E9410294CE06CE073
:1055000084E20E94242980E00E94382988E499E2FC
:105510000E94291C00E02EE831E042E951E064E0FD
:1055200083E00E946B1E83ED9EE10E940A1C86E2CE
:1055300091E20E940A1C6AE671E081E00E94C920A3
:105540000E94AB2990E080E00895991B79E004C0A7
:10555000991F961708F0961B881F7A95C9F78095B2
:10556000089597FB072E16F4009407D077FD09D015
:105570000E94152B07FC05D03EF4909581959F4F16
:105580000895709561957F4F0895A1E21A2EAA1B88
:10559000BB1BFD010DC0AA1FBB1FEE1FFF1FA217E3
:1055A000B307E407F50720F0A21BB30BE40BF50BE0
:1055B000661F771F881F991F1A9469F76095709569
:1055C000809590959B01AC01BD01CF010895052EFA
:1055D00097FB1EF400940E94FE2A57FD07D00E94FC
:1055E000C52A07FC03D04EF40C94FE2A5095409532
:1055F000309521953F4F4F4F5F4F0895909580957F
:10560000709561957F4F8F4F9F4F0895A29FB00176
:10561000B39FC001A39F700D811D1124911DB29FE6
:10562000700D811D1124911D0895AA1BBB1B51E112
:1056300007C0AA1FBB1FA617B70710F0A61BB70B02
:10564000881F991F5A95A9F780959095BC01CD01A7
:1056500008955058BB27AA270E94412B0C94B42CC4
:105660000E94A62C38F00E94AD2C20F039F49F3F08
:1056700019F426F40C94A32C0EF4E095E7FB0C949B
:105680009D2CE92F0E94C52C58F3BA1762077307A7
:105690008407950720F079F4A6F50C94E72C0EF416
:1056A000E0950B2EBA2FA02D0B01B90190010C0132
:1056B000CA01A0011124FF27591B99F0593F50F44A
:1056C000503E68F11A16F040A22F232F342F4427A2
:1056D000585FF3CF469537952795A795F04053959A
:1056E000C9F77EF41F16BA0B620B730B840BBAF06A
:1056F0009150A1F0FF0FBB1F661F771F881FC2F7D5
:105700000EC0BA0F621F731F841F48F487957795E8
:105710006795B795F7959E3F08F0B0CF9395880FA2
:1057200008F09927EE0F9795879508950E94792C98
:1057300008F481E008950E94AF2B0C94B42C0E94D1
:10574000AD2C58F00E94A62C40F029F45F3F29F0C0
:105750000C949D2C51110C94E82C0C94A32C0E94B9
:10576000C52C68F39923B1F3552391F3951B550B81
:10577000BB27AA2762177307840738F09F5F5F4F24
:10578000220F331F441FAA1FA9F335D00E2E3AF063
:10579000E0E832D091505040E695001CCAF72BD07B
:1057A000FE2F29D0660F771F881FBB1F26173707CC
:1057B0004807AB07B0E809F0BB0B802DBF01FF27FE
:1057C00093585F4F3AF09E3F510578F00C949D2C12
:1057D0000C94E82C5F3FE4F3983ED4F386957795DC
:1057E0006795B795F7959F5FC9F7880F911D9695B7
:1057F000879597F90895E1E0660F771F881FBB1F13
:10580000621773078407BA0720F0621B730B840BBF
:10581000BA0BEE1F88F7E09508950E94CD2C88F012
:105820009F5798F0B92F9927B751B0F0E1F0660F64
:10583000771F881F991F1AF0BA95C9F714C0B130A5
:1058400091F00E94E72CB1E008950C94E72C672FAB
:10585000782F8827B85F39F0B93FCCF386957795D4
:105860006795B395D9F73EF49095809570956195BD
:105870007F4F8F4F9F4F0895E89409C097FB3EF4E8
:1058800090958095709561957F4F8F4F9F4F99238D
:10589000A9F0F92F96E9BB279395F695879577950B
:1058A0006795B795F111F8CFFAF4BB0F11F460FFCB
:1058B0001BC06F5F7F4F8F4F9F4F16C0882311F023
:1058C00096E911C0772321F09EE8872F762F05C037
:1058D000662371F096E8862F70E060E02AF09A95D2
:1058E000660F771F881FDAF7880F9695879597F9C7
:1058F0000895990F0008550FAA0BE0E8FEEF161661
:105900001706E807F907C0F012161306E407F507B3
:1059100098F0621B730B840B950B39F40A2661F027
:10592000232B242B252B21F408950A2609F4A140CA
:10593000A6958FEF811D811D089597F99F6780E8D7
:1059400070E060E008959FEF80EC089500240A94D1
:105950001616170618060906089500240A9412164A
:105960001306140605060895092E0394000C11F47D
:10597000882352F0BB0F40F4BF2B11F460FF04C02A
:105980006F5F7F4F8F4F9F4F089557FD9058440F83
:10599000551F59F05F3F71F04795880F97FB991F8E
:1059A00061F09F3F79F0879508951216130614064B
:1059B000551FF2CF4695F1DF08C0161617061806D8
:1059C000991FF1CF86957105610508940895E894B3
:1059D000BB2766277727CB0197F908950E94012DF1
:1059E0000C94B42C0E94A62C38F00E94AD2C20F010
:1059F000952311F00C949D2C0C94A32C11240C9441
:105A0000E82C0E94C52C70F3959FC1F3950F50E0D0
:105A1000551F629FF001729FBB27F00DB11D639F60
:105A2000AA27F00DB11DAA1F649F6627B00DA11D06
:105A3000661F829F2227B00DA11D621F739FB00DAC
:105A4000A11D621F839FA00D611D221F749F33271C
:105A5000A00D611D231F849F600D211D822F762FB5
:105A60006A2F11249F5750409AF0F1F088234AF092
:105A7000EE0FFF1FBB1F661F771F881F91505040FE
:105A8000A9F79E3F510580F00C949D2C0C94E82CB6
:105A90005F3FE4F3983ED4F3869577956795B79585
:105AA000F795E7959F5FC1F7FE2B880F911D96959F
:105AB000879597F90895DC0101C06D9341505040DE
:105AC000E0F70895FB01DC0101900D920020E1F761
:105AD0000895B0E0A0E0EFE6FDE20C949530FE0101
