:100000000C9460030C947D030C947D030C947D038D
:100010000C947D030C947D030C947D030C947D0360
:100020000C947D030C947D030C947D060C94A10626
:100030000C947D030C947D030C947D030C947D0340
:100040000C947D030C947D030C947D030C947D0330
:100050000C947D030C947D030C947D030C947D0320
:100060000C947D030C947D030C947D030C947D0310
:100070000C947D030C947D030C947D030C947D0300
:100080000C94B5040C947D030C947D030C947D03B7
:100090000C947D030C947D030C947D030C947D03E0
:1000A0000C947D030C947D030C947D0300010000EF
:1000B0008C021200020000A8015B00220000700206
:1000C0001C00210000BA010900220100300240009A
:1000D000210100DA01090022020003022D002102A1
:1000E00000F3010900030000A401040103090494C2
:1000F000010E020309045001420303090400014EEA
:100100004E0330003000300030003000300030004E
:10011000300030003000300030003000300030005F
:10012000300030003000300030003000300030004F
:10013000300030003000300030003000300030003F
:10014000300030003000300030003000300000005F
:10015000420330003000300030003000300030000A
:10016000300030003000300030003000300030000F
:1001700030003000300030003000300030003000FF
:1001800030003000300030003000300030003000EF
:10019000300000000E037900610068006900720001
:1001A0006F0000000403090409025B00030100C0A2
:1001B00032090400000203000000092111010001BE
:1001C000221C0007058103400002070502034000CE
:1001D00008090401000103010100092111010001C6
:1001E00022400007058303080001090402000103FF
:1001F000010200092111010001222D0007058403DD
:1002000008000105010902A10105091901290315C9
:10021000002501950375018102950175058103058E
:1002200001093009311581257F750895028106C0C5
:1002300005010906A10175019508050719E029E7DF
:100240001500250181029501750881039505750149
:100250000508190129059102950175039103950679
:100260007508150026FF000507190029FF8100C049
:1002700006ABFF0A0002A1017508150026FF0095D4
:100280004009018102954009029102C01201000259
:100290000000002055F077A5000101020301016371
:1002A000030400000002650305000000033E06068B
:1002B0000000000467030700000005690308000050
:1002C00000066B0309000000076D030A0000000828
:1002D0006F030B00000009DB030C0000000A710330
:1002E0000D0000000B73030E0000000C75030F00DF
:1002F00000000D7703100000000E790311000000CC
:100300000F7B0312000000107D0313000000117F1B
:1003100003140000001281031500000013060516E7
:100320000000001483031700000015850318000067
:1003300000168703190000001789031A000000182F
:100340008B031B000000198D031C0000001A8F0393
:100350001D0000001B2802270200001CE5021E02EF
:1003600000001DC4031F0200001E0A052002000039
:100370001F0E052102000020120522020000211696
:100380000523020000221A0524020000231E052571
:100390000200002422052602000025910329000006
:1003A000002695032C00000027FB042800000028ED
:1003B0009B032B0000002905052A0000002A9F034B
:1003C0003A0000002BA2033B0000002CA5033C00D8
:1003D00000002DA8033D0000002EAB033E000000EE
:1003E0002FAE033F00000030B1034000000031B4E5
:1003F000034100000032B7034200000033BA034358
:1004000000000034BE034400000035C20345000074
:100410000058C703E100000057CE03E00000005978
:10042000D403E20000005AD903E30000009FC60392
:10043000E10000009ECD03E0000000A0D303E20035
:100440000000A1D803E3000000A3DD03E5000000E5
:10045000A2E403E4000000A4EA03E6000000A5EF24
:1004600003E70000005BF4034A0000005CF9034D61
:100470000000005DFD03490000005E04044C000024
:10048000005F0B044B0000006012044E000000618E
:10049000190450000000621E044F000000630F04A6
:1004A00052000000642404510000006A2904350051
:1004B00000006B3104880000006D3B048A000000DE
:1004C0006C42048B00000036DC04370237023748E8
:1004D0000436023602384A041E011E01394C043823
:1004E0000138013A4E04330134023B5004330233E5
:1004F000023C52042D0187013DF0042E0133013EE0
:1005000066062D022D023FE6042501340140E10478
:100510003802380241F5042E022D01425404240110
:1005200023014356043101890144580423012E025A
:10053000455A0435012E01465C041F012F02475E17
:100540000420012001486004210121014962043195
:100550000289024A6504220122014B6704310287A5
:10056000024C6904340224014D6B0434011F014E16
:100570006D0435022F014F6F0426012501507104CF
:10058000270126015173042F0230025275043002F4
:1005900031025373042F01300154750430013101CD
:1005A0005577043601360156790437013701B77B98
:1005B0000490000000B88004910000009D85045361
:1005C000000000668D0439000000679604470000B3
:1005D000008AA104620000008BA604590000008C70
:1005E000AB045A0000008DB0045B0000008EB5041F
:1005F0005C0000008FBA045D00000090BF045E0044
:10060000000091C4045F00000092C9046000000073
:1006100093CE04610000009CD304B000000094D984
:10062000046300000098DE045400000097E30455C2
:1006300000000096E8045600000095ED0457000005
:100640000099F204670000009AF704580000009B2C
:100650000105BB0000007E0805680000007F0C0556
:10066000690000008010056A0000008114056B001D
:1006700000008218056C000000831C056D0000005E
:100680008420056E0000008524056F000000862888
:100690000570000000872C0571000000883005728D
:1006A000000000893405730000006538054600002D
:1006B00000683F0548000000694A05760000000018
:1006C00011241FBECFEFDAE0DEBFCDBF16E0A0E001
:1006D000B1E0ECE6F4E402C005900D92A836B10753
:1006E000D9F728E0A8E6B6E001C01D92A836B20707
:1006F000E1F70E94921E0C9434220C940000EF92B9
:10070000FF920F931F93CF93DF93EC018C01060FA1
:10071000171F8CE9E82E81E0F82EC017D10751F49D
:100720008AE090E0DF91CF911F910F91FF90EF90C1
:100730000C94181F89911F928F93FF92EF920E9441
:10074000041F0F900F900F900F90E7CFEF92FF9242
:100750000F931F93CF93DF93EC018C01060F171FAC
:1007600082EAE82E81E0F82EC017D10751F48AE022
:1007700090E0DF91CF911F910F91FF90EF900C943B
:10078000181F89911F928F93FF92EF920E94041F6E
:100790000F900F900F900F90E7CFFB01DC01460FF9
:1007A000571FE417F50709F4089581918D93F9CF48
:1007B000AF92BF92CF92DF92EF92FF920F931F936F
:1007C000CF93DF93DC01162FEA0190E061E070E047
:1007D00090130BC0DF91CF911F910F91FF90EF907D
:1007E000DF90CF90BF90AF900895892F810F382F61
:1007F0003695369536957D01E30EF11CF701308173
:1008000087705B0101C0AA0C8A95EAF7892F820FD5
:10081000482F4695469546954C0F5D2F511DFA0180
:10082000408150E087706B0102C0CC0CDD1C8A95C2
:10083000E2F74C215D21832F8A29452B21F4EA2DF3
:10084000E0958E2F8323F70180839F5FC1CFFC014A
:10085000DB01480F591FE417F50711F481E00895F3
:1008600091918D919817B9F380E00895FB01DC0117
:10087000460F571FE417F50709F4089581918D93EA
:10088000F9CFFB01DC01460F571FE417F50709F408
:100890000895819190E08D939D93F7CF70E00C9433
:1008A000F61E262F269526952695FC01E20FF11DB2
:1008B0009081677021E030E001C0220F6A95EAF76D
:1008C000442319F0922B9083089520959223FBCF17
:1008D000262F269526952695820F911DFC012081B5
:1008E00030E0677081E090E002C0880F991F6A9540
:1008F000E2F72823392381E0121613060CF080E07A
:1009000008959B01BA01FC0190E080E082179307F3
:1009100014F080E00895419151914617570711F066
:100920000196F4CF81E0089508959C0190E080E065
:100930008217930709F40895EFE9FFE03197F1F783
:1009400000C000000196F4CF9C0190E080E0821787
:10095000930709F4089545E04A95F1F700000196E0
:10096000F6CF78940895F89408951F921FB61F92B9
:1009700011248F939F93AF93BF93809168069091BA
:100980006906A0916A06B0916B060196A11DB11D82
:100990008093680690936906A0936A06B0936B06ED
:1009A000BF91AF919F918F911F901FBE1F9018957F
:1009B000CF93DF9300D000D0CDB7DEB7809168062B
:1009C00090916906A0916A06B0916B06BC01CD01B9
:1009D0000F900F900F900F90DF91CF910895A895F1
:1009E00014BEE0E6F0E0808188618083108280E8B8
:1009F00085BF85BF1092D8001092900089E0809347
:100A0000910082E08093710080E89EE390939900CA
:100A1000809398001092950010929400089586EAB1
:100A200091E09F938F930E94041F2FEF81EE94E03B
:100A3000215080409040E1F700C00000F89481E030
:100A40008093E00080E28093D8001092C9008FE18B
:100A50009EE40197F1F700C000001DBA10926800F3
:100A60001CBC10BE1FBA10927A0010926E00109239
:100A70006F0010927100109272001092C9001092D3
:100A8000BC0014B817B81AB81DB810BA1092BC0040
:100A900015B818B81BB81EB811BA0C9400380F90CE
:100AA0000F90FFCF80E091E09093650880936408F9
:100AB0000895E82FE695E695E69593E0E99FF00125
:100AC000112435A1282F277081E090E001C0880F04
:100AD0002A95EAF78095832385A30895E82FE69564
:100AE000E695E69593E0E99FF001112494A18770C3
:100AF00021E030E001C0220F8A95EAF7892F822B8E
:100B000084A30895E82FE695E695E69593E0E99F9E
:100B1000F001112434A1282F277081E090E001C05A
:100B2000880F2A95EAF78095832384A30895E82FF8
:100B3000E695E695E69563E0E69FF001112444A171
:100B4000877021E030E0B90102C0660F771F8A95F7
:100B5000E2F7CB01962F9095942394A395A1892B2E
:100B600085A30895662399F0E82FE695E695E69526
:100B700093E0E99FF001112495A1877021E030E016
:100B800001C0220F8A95EAF7922B95A308950C9441
:100B90005905E82FE695E695E695EF5F93E0E99F26
:100BA000F001112490A1877021E030E002C0220FF3
:100BB000331F8A95E2F7892F90E02823392381E0BB
:100BC000121613060CF080E00895E82FE695E695DE
:100BD000E69593E0E99FF001112495A1877021E04B
:100BE00030E001C0220F8A95EAF7892F822785A37A
:100BF000089586958695869523E0829FC0011124ED
:100C0000859608958695869586958F5F23E0829FC9
:100C1000C0011124809608958770089561E00C94B6
:100C2000B2050C945905E82FE695E695E695EF5F39
:100C300093E0E99FF001112490A1877021E030E05A
:100C400001C0220F8A95EAF7892F822B80A308958D
:100C5000E82FE695E695E69593E0E99FF0011124EB
:100C600034A1282F277081E090E001C0880F2A95D9
:100C7000EAF78095932F982394A395A1892385A3C0
:100C80000895E82FE695E695E69593E0E99FF00153
:100C90001124282F277081E090E001C0880F2A9549
:100CA000EAF794A1611103C0892B84A3089580956C
:100CB0008923FBCF0C94C905FB019A0190916D0625
:100CC000911102C080E008958093E9008091E800CE
:100CD00085FFF8CFF89480E0DF01A80FB11D9C914B
:100CE0009093F1008F5F82171306B4F38AE3809329
:100CF000E800789481E0089508951F921FB61F922E
:100D000011248F939F938091E1001092E10083FF63
:100D10000FC01092E90091E09093EB001092EC006C
:100D200092E29093ED0098E09093F00010926D069F
:100D300082FD80916D069F918F911F901FBE1F9025
:100D400018951F920F920FB60F921124AF92BF9277
:100D5000DF92EF92FF920F931F932F933F934F9346
:100D60005F936F937F938F939F93AF93BF93CF9333
:100D7000DF93EF93FF931092E9008091E80083FFE7
:100D800069C09091F1008091F1004091F1002091B3
:100D9000F100522F2091F1003091F100A091F1006B
:100DA000B091F10062EF6093E800863009F096C0E0
:100DB0008CEA90E060E071E0FC01C591D4914C17A1
:100DC0005D0709F042C0FC013296C591D4912C1701
:100DD0003D0709F03AC0FC0134966591749106967E
:100DE000FC018491AF3FB10519F010F0AFEFB0E016
:100DF0003A2F8A1708F4382F25E9A22E26E0B22EC2
:100E00004230F3E05F0721F09EE6A92E96E0B92E6E
:100E1000DB01425053408EEFF82E8091E800982F6E
:100E20009570D9F382FD3EC0832F313208F080E205
:100E3000FD01982F4230510548F1992349F1249141
:100E40002093F10091503196F8CF079668177907F3
:100E500009F0B2CF81E28093EB0024C0392FDDCFBF
:100E60008F01061B170B2491DD24D394D01650F468
:100E70002EEF200F00FD30C026958501020F111DB9
:100E8000E80128812093F100915031969111E8CF2B
:100E9000A80FB11D932F981BF092E8003813DECFF6
:100EA0003032E1F2FF91EF91DF91CF91BF91AF919D
:100EB0009F918F917F916F915F914F913F912F9172
:100EC0001F910F91FF90EF90DF90BF90AF900F9028
:100ED0000FBE0F901F90189520E0D4CF853059F4A5
:100EE0008EEF8093E8008091E80080FFFCCF40689F
:100EF0004093E300D7CF8930C9F5911137C04093B3
:100F00006D068EEF8093E80081E08093E900809386
:100F1000EB0091EC9093EC0026E32093ED0032E09F
:100F20003093E9008093EB0030EC3093EC00209399
:100F3000ED0023E02093E9008093EB009093EC0018
:100F400026E02093ED0034E03093E9008093EB003D
:100F50009093EC002093ED008EEB91E00E941F1F18
:100F60008EE18093EA001092EA009CCF21153105B2
:100F700039F4913209F06ECF8A3009F06BCF15C089
:100F800021303105B1F4913209F064CF8930A1F7F5
:100F90008091E80082FFFCCF8091F10080936C0685
:100FA00080916C068BEF8093E8008EEF8093E800D1
:100FB00079CF22303105E9F24DCF80E8809361008E
:100FC0001092610081E08093D70080EA8093D8007E
:100FD00082E189BD09B400FEFDCF80E98093D8008D
:100FE0001092E00010926D068CE08093E20008956C
:100FF000BC0148E050E083E00C945C0680916C06F4
:101000000895BC0143E050E084E00C945C06BC0110
:1010100040E450E081E00C945C0620916D062111C3
:1010200002C080E0089522E02093E9002091E800CA
:1010300025FFF7CFF894FC01805C9F4F2091F100D1
:101040002193E817F907D1F78BE68093E8007894AD
:1010500081E0089590916D0681E0911101C080E0DA
:1010600008958EE696E00895BC0185E996E00C941B
:10107000FD1E08951092D800089580E094E0089530
:10108000F999FECF0C94D221F999FECF0C94EA2164
:10109000F999FECF0C94DA21F999FECF0C94F8213E
:1010A000382F292FCB01F999FECF632F722F0C9483
:1010B000C221382F292FCB01F999FECF632F722F30
:1010C0000C94E021CF93DF93D0E0C0E060E0CE014C
:1010D0000E9444082196C11584E0D807B9F7DF9132
:1010E000CF910895089508955198599A5098589A13
:1010F0001092B9008CE08093B80008959A0194EAA8
:101100009093BC009091BC0097FFFCCF880F809318
:10111000BB0084E88093BC008091BC0087FFFCCFBB
:10112000FB0190E080E044E88217930724F084E913
:101130008093BC00089551915093BB004093BC0034
:101140005091BC0057FFFCCF0196EECF9A0194EA74
:101150009093BC009091BC0097FFFCCF880F8160FA
:101160008093BB0084E88093BC008091BC0087FF23
:10117000FCCFFB0190E080E0A9014150510964E8F7
:1011800074EC8217930724F084E98093BC000895DF
:10119000841795075CF47093BC00A091BC00A7FF76
:1011A000FCCFA091BB00A1930196EBCF6093BC0054
:1011B000F4CF94EA9093BC009091BC0097FFFCCFD1
:1011C000880F8093BB0084E88093BC008091BC00B2
:1011D00087FFFCCF08958093BB0084E88093BC0018
:1011E0008091BC0087FFFCCF089584E98093BC0008
:1011F00008958F929F92AF92BF92CF92DF92EF921B
:10120000FF920F931F93CF93DF935C01EB016A0171
:1012100079014801CC15DD0510F5CE010E94480882
:101220008C01CE0102960E9448089C010A151B05FC
:10123000A1F42496F701D183C083F4013183208384
:10124000DF91CF911F910F91FF90EF90DF90CF90A2
:10125000BF90AF909F908F900895892B29F4D0E094
:10126000C0E030E020E0E6CF2C5F3F4FC20FD31F3D
:10127000D1CFEF92FF920F931F93CF93DF93D82F8D
:10128000C92F7B018A010E943D08AC01970162E0F1
:1012900070E08D2F9C2F0E94F908DF91CF911F9154
:1012A0000F91FF90EF900895CF93DF9300D000D07F
:1012B000CDB7DEB7AE014F5F5F4FBE016D5F7F4FB1
:1012C0000E9439098B819C810F900F900F900F9095
:1012D000DF91CF910895CF92DF92EF92FF920F931B
:1012E0001F93CF93DF9300D000D0CDB7DEB76C0152
:1012F0007B018A01AE014F5F5F4FBE016D5F7F4F83
:1013000080E79AEA0E9439096B817C816115710539
:10131000A9F049815A81460F571F9701C6010E94C3
:10132000F9080F900F900F900F90DF91CF911F91C0
:101330000F91FF90EF90DF90CF900895F701118209
:101340001082F80111821082ECCFAF92BF92CF923F
:10135000DF92EF92FF920F931F93CF93DF9300D012
:1013600000D0CDB7DEB784ED91E00E941F1F90E062
:1013700080E00E9448088E37934A09F044C0AE01CD
:101380004F5F5F4FBE016D5F7F4F80E19AEA0E9421
:101390003909E980FA80AE014F5F5F4FBE016D5F92
:1013A0007F4F80E29AEA0E943909A980BA80AE0193
:1013B0004F5F5F4FBE016D5F7F4F80E39AEA0E94EF
:1013C0003909C980DA80AE014F5F5F4FBE016D5FA2
:1013D0007F4F80E49AEA0E94390909811A8180E7E7
:1013E0009AEA0E9454099C0182E1A816B10459F4BA
:1013F0008AE0C816D10439F40E291F29012B19F4EB
:10140000232B09F054C08EEF91E00E941F1F0E9411
:1014100062086EE773EA90E080E00E944C0860E2A8
:101420007AEA82E090E00E944C0862E170E084E099
:1014300090E00E944C0860E37AEA88E190E00E9424
:101440004C086AE070E08AE190E00E944C0860E796
:101450007AEA86E290E00E944C0870E060E088E260
:1014600090E00E944C0880E29AEA0E9454098C01A4
:10147000009709F443C046E050E06AE171E00E9441
:10148000590848E050E061E272E0C80108960F9008
:101490000F900F900F90DF91CF911F910F91FF90C0
:1014A000EF90DF90CF90BF90AF900C94590880E2FE
:1014B0009AEA0E94540946E050E066EB76E00E940A
:1014C000500846E050E06AE171E086EB96E00E9449
:1014D0002704882309F497CF8BEE91E00F900F90AB
:1014E0000F900F90DF91CF911F910F91FF90EF9090
:1014F000DF90CF90BF90AF900C941F1F0F900F9074
:101500000F900F90DF91CF911F910F91FF90EF906F
:10151000DF90CF90BF90AF900895CF93DF9380E797
:101520009AEA0E945409EC01892B31F00E943D088F
:101530009C012C1B3D0BE901CE01DF91CF91089559
:1015400080E29AEA0E9454094096089580E39AEA5C
:101550000C9454098AE090E0089580E79AEA0C948C
:101560005409CF93DF9300D000D0CDB7DEB7AE01E2
:101570004F5F5F4FBE016D5F7F4F81E79BEB0E9426
:101580006B098B819C810F900F900F900F90DF91D2
:10159000CF910895CF93DF9300D000D0CDB7DEB7C1
:1015A000AE014F5F5F4FBE016D5F7F4F84E79BEBE6
:1015B0000E946B098B819C810F900F900F900F9070
:1015C000DF91CF910895CF93DF9300D000D0CDB7B6
:1015D000DEB7AE014F5F5F4FBE016D5F7F4F88E7A3
:1015E0009BEB0E946B098B819C810F900F900F9059
:1015F0000F90DF91CF910895CF93DF9300D000D06B
:10160000CDB7DEB7AE014F5F5F4FBE016D5F7F4F5D
:1016100088E79BEB0E946B0989819A810F900F905C
:101620000F900F90DF91CF910895CF93DF9300D06B
:1016300000D0CDB7DEB7AE014F5F5F4FBE016D5F2B
:101640007F4F86E79BEB0E946B098B819C810F90FB
:101650000F900F900F90DF91CF910895CF92DF926E
:10166000FF920F931F93CF93DF93182F062FF42E23
:1016700084ECC82E86E0D82ED0E0C0E08091C2066F
:101680009091C306C817D90744F0DF91CF911F91FD
:101690000F91FF90DF90CF900895D601ED91FD91CD
:1016A0006D014F2D602F812F09952196E7CFEF9285
:1016B000FF920F931F93CF93DF93D0E0C0E0EE240F
:1016C000E394F12C87010C2E02C0000F111F0A9425
:1016D000E2F78091C0069091C10680239123892B67
:1016E000A1F0FE01E253F94F40816C2F82E00E948D
:1016F0002E0B009510958091C0069091C106802315
:1017000091239093C1068093C0062196CA30D105DB
:10171000C9F68091BF06882339F040E060E081E09F
:101720000E942E0B1092BF06DF91CF911F910F9157
:10173000FF90EF90089521E030E002C0220F331FA8
:101740008A95E2F78091BC069091BD06822B932B7F
:101750009093BD068093BC0608958091BC0690913D
:10176000BD060895CF93DF93D82FC92F6091C2068D
:101770007091C306482F592F84EC96E00E94810493
:10178000811110C0E091C206F091C306CF0101960D
:101790009093C3068093C206EE0FFF1FEC53F94FE0
:1017A000D083C183DF91CF910895E82FF0E0E25F0D
:1017B000FE4F60830895E82FF0E0E25FFE4F81E086
:1017C0009081961708F480E00895CF92DF92EF920F
:1017D000FF920F931F93CF93DF930EEC16E08EE0F2
:1017E000C82E81E0D82ED0E0C0E09AE2E92E92E047
:1017F000F92EF80181918F01F60191916F019817EF
:1018000068F02196CA30D105A1F7DF91CF911F91E1
:101810000F91FF90EF90DF90CF900895FE01E65872
:10182000FE4F9081F801319790831F929F931F92F2
:101830008F93DF93CF93FF92EF920E94041FEDB737
:10184000FEB738960FB6F894FEBF0FBEEDBFD9CFE6
:10185000282F30E0F901E25FFE4F90819617D8F013
:101860002253394FF901608321E030E002C0220F9A
:10187000331F8A95E2F78091C0069091C106822BB2
:10188000932B9093C1068093C00688EE93E09093CB
:101890001901809318010895CF93C82F282F30E0A5
:1018A000F901E25FFE4F90812253394FD901EC914B
:1018B000F0E09F01260F371F442389F0692F70E065
:1018C0006F5F7F4FCB01820F931F0E94AC1E8E175C
:1018D0009F0789F0682F8C2FCF910C94280C37FD2F
:1018E00007C0892F90E0281739078CF7C901EFCF7F
:1018F00090E080E0ECCFCF91089590E0FC01E25FB2
:10190000FE4F2081261750F08253994FFC016083CF
:1019100088EE93E090931901809318010895CF9376
:10192000DF930E94A60A9093CD068093CC06892B64
:1019300051F10E94A00AEC010097B1F00E9440080A
:10194000853091F04AE050E06AE771E08091CC0682
:101950009091CD060E94590865E0CE010E9444088E
:1019600086E592E00E941F1F4AE050E06EEC76E0B0
:101970008091CC069091CD060E9450080E94E50B04
:1019800081E08093BF06DF91CF910895462F50E00C
:101990006EEC76E00C94CD03462F50E06EE071E0E3
:1019A0000C94CD03E82FF0E0E253F94F80810895C5
:1019B0000C94280CEF92FF920F931F93CF93DF9319
:1019C0008C01D0E0C0E0E62EF12CCE15DF0554F0FE
:1019D00081E08093BF06DF91CF911F910F91FF901F
:1019E000EF900895F80161918F018C2F0E947D0C7A
:1019F0002196EBCF0F931F93CF930AE711E0C0E03E
:101A0000F80161918F018C2F0E947D0CCF5FCA304D
:101A1000B9F781E08093BF06CF911F910F91089590
:101A2000813039F46091D406682786E00E94280C42
:101A30000895823039F0833061F441E06FEF7FEF39
:101A400087E004C041E061E070E089E00E944C0C56
:101A5000089541E061E070E0843091F340E060EF90
:101A60007FEF8530B1F040E060E170E0863089F0D2
:101A70008E3789F0873099F08830A1F08930B1F045
:101A800060E08A30C9F061E08B30B1F08C30B1F0A9
:101A9000089588E0DBCF81E08093BE06089560E082
:101AA00084E0C4CF61E084E00C94280C41E061E064
:101AB00070E084E00C944C0C85E0F6CF41E061E0EE
:101AC00070E085E0F7CF8091180190911901181608
:101AD0001906BCF401979093190180931801892B82
:101AE00081F48091CC069091CD06009751F04AE0A8
:101AF00050E06EEC76E00E94590884E792E00E9484
:101B00001F1F0E94570B8091BE06882321F0109260
:101B1000BE060C940F0508950C94570B8EEC96E0BE
:101B20000895EF92FF920F931F93CF938C018EEC49
:101B3000E82E86E0F82EC0E0F70141917F016C2F7E
:101B400082E0F8010995CF5FCA30B1F7CF911F91BC
:101B50000F91FF90EF900895CF93DF930E94B10A09
:101B6000EC010E948D0A209741F485E892E00E94E2
:101B70001F1F80E0DF91CF910895892BB1F345E0DD
:101B800050E068ED76E0CE010E9450083091D90611
:101B90002091DA069091DB068091DC064091D80610
:101BA000413019F7363009F72430F9F69F3FE9F252
:101BB0008131D8F68EE992E00E941F1F81E0DACFD2
:101BC000E0912207F0912307309709F009940895D6
:101BD0000E942A08882351F08EED96E00E940708A3
:101BE000811104C080EC92E00C941F1F0895909125
:101BF000DD06992359F0823049F485EC8093DE06A6
:101C00006093DF064093E0060C94E80D08959093EE
:101C100023078093220787EF9DE00E94B20B0E946A
:101C2000AD0A90932107809320070E948D0A90931C
:101C30001F0780931E070895DF92EF92FF920F9384
:101C40001F93CF93DF938EED96E00E940D088823BB
:101C500009F45AC08091DE06803F21F481E00E94A1
:101C6000E00D52C0813F09F457C0823F09F056C0D1
:101C700083EF8093DE0684E08093DF0696E0909306
:101C8000E0068093E10685E08093E20643E050E0C1
:101C900063EE72E083EE96E00E94CD0346E050E0F2
:101CA0006AE171E08DEE96E00E94CD03C1E0C09341
:101CB000F3061092F40683E08093F50640E150E0CD
:101CC00060E086EF96E00E944E0446E050E067EE4A
:101CD00072E086EF96E00E94CD0348E050E06BE2B0
:101CE00071E086E097E00E94CD0380911E079091FD
:101CF0001F0798278927982790930F0780930E072F
:101D00000E94E80DC093DD06DF91CF911F910F91E6
:101D1000FF90EF90DF90089582E0A1CF803B19F112
:101D2000823B39F1833B09F44BC0813B09F497C0F6
:101D3000803C09F49AC0823C09F4B3C0833C09F4A6
:101D4000B9C0843C09F4C3C0813D09F4C9C0823DD7
:101D500009F4D6C0803DC1F68091DF06813009F4D8
:101D6000DAC083E2C2C08EEE92E00E941F1F80E1C3
:101D700076CFC091DF06D091E006DC27CD27DC27A7
:101D80008091200790912107C80FD91F1091E1067B
:101D9000412F50E062EE76E0CE010E945908DF93B9
:101DA000CF931F921F938DE093E09F938F930E9498
:101DB000041F0F900F900F900F900F900F90A4CFD3
:101DC000C091DF06D091E006DC27CD27DC2780918B
:101DD000200790912107C80FD91FE090E106F090ED
:101DE000E206FE24EF24FE24FF92EF92DF93CF93CE
:101DF00085E293E09F938F930E94041F0F900F90B2
:101E00000F900F900F900F9010E000E0D12C0E1566
:101E10001F05E1F41F92DF928DE393E09F938F9370
:101E20000E94041F84EB8093DE06D092DF060E949E
:101E3000E80D8091200790912107B80102970E9438
:101E40004C080F900F900F900F905ECFCE01800F37
:101E5000911F0E944008D8260F5F1F4FD8CF85E4FE
:101E600093E00E941F1F81E1FACE81EC8093DE0691
:101E70008AE08093DF060E94AD0B98278927982778
:101E80009093E1068093E0066AE082EE96E00E947D
:101E9000C60C6AE08CEE96E00E94CC0C0E94E80D25
:101EA00033CF4091DF066091E00681EE96E00E941C
:101EB000DA0C2ACF6091E0068091DF06DF91CF91A6
:101EC0001F910F91FF90EF90DF900C94D80CDF9151
:101ED000CF911F910F91FF90EF90DF900C94FA0C2F
:101EE0008091DF06813051F081E2DF91CF911F9127
:101EF0000F91FF90EF90DF900C94E00D80E2F5CF12
:101F00008FED96E0DF91CF911F910F91FF90EF90B1
:101F1000DF900C94F80782E2E8CFEEEDF6E090EA6D
:101F20009083818362830C94E80DEEEDF6E021EA64
:101F30002083982789279827928381830C94E80D22
:101F4000EEE9F2E030E020E0949189130DC06111D8
:101F500014C087E0829FF001839FF00D1124EF559C
:101F6000FD4F8591959115C02F5F3F4F37962739CB
:101F7000310551F790E080E0089587E0829FF001FD
:101F8000839FF00D1124ED55FD4F8591959100979C
:101F900001F30895EEE9F2E030E020E09491891336
:101FA0000BC087E0829FF001839FF00D1124E15662
:101FB000FD4F8591959108952F5F3F4F37962739B3
:101FC000310561F790E080E00895CF93DF930E94A0
:101FD000150BEC01009749F00E94400880932607FA
:101FE0002196D0932507C0932407DF91CF910895C0
:101FF000AF92BF92CF92DF92EF92FF920F931F9317
:10200000CF93DF939C01B62E8C010027107F832F86
:102010008F70D82ED22FC12C85E0A82E8091260754
:10202000C816D8F5E0902407F0902507CA9CE00C6C
:10203000F11C1124C7010E9440088B1511F08F304C
:10204000A9F4C70101960E944008C82FC701029653
:102050000E944008CC2311F0C53B51F49FEF980F2C
:102060009E3F20F4DC1739F1C53B29F1C394D6CF4C
:10207000DC13FCCFD81611F08F3FC1F7C7010396D0
:102080000E944008C82FC70104960E944008C63B22
:1020900009F0DC2F8E3F09F0D82EC8018D2B9D2929
:1020A000DF91CF911F910F91FF90EF90DF90CF9034
:1020B000BF90AF900895D812D9CFE0CFFC019081A6
:1020C000907681E0903409F080E00895482FEAE2AC
:1020D000F7E030E020E05EE0529FC001539F900D9A
:1020E0001124DC01A55DB84F6C9160FF03C06281D3
:1020F000641749F02F5F3F4F3E962A30310561F754
:1021000090E080E00895855D984F08958F929F92AA
:10211000AF92BF92EF92FF920F931F93CF93DF93F3
:102120009C01C62FD0E08E01080F191F60E070E0FF
:10213000CB012017310799F440E024E030E02C1B5C
:102140003D0B42171306E4F0DF91CF911F910F91E1
:10215000FF90EF90BF90AF909F908F90089588244C
:10216000962EA72EB82E79014FEFE41AF40AC90172
:102170000E9440089401282BC501B9019701D9CFCD
:10218000982F872F762F66274F5FDBCFCF92DF9276
:10219000EF92FF920F931F93CF93DF9300D000D065
:1021A000CDB7DEB769837A838B839C83042F6091DC
:1021B00028078B819C810E94F80F9C018827907FC3
:1021C0009A838983832F8F70922F49EA420F44307C
:1021D00050F42755330B41E050E001C0440F2A95DD
:1021E000EAF7842B90E029813A81292B382B3A8316
:1021F00029839981A90170E060E0C52ED62EE72ED3
:10220000FF24152F1F7020E09923C9F061E0809111
:102210002707813009F060E089810E94A00FBC018E
:1022200089819A8171FB222720F994FF20E0217097
:1022300070FF04C06894C1F81C2D1F70962F822F68
:10224000880F802B1295107F812B837F0F900F902A
:102250000F900F90DF91CF911F910F91FF90EF9012
:10226000DF90CF900895382F3170827F79F0832BE3
:102270002091FE07E22FF0E0EE0FFF1FE251F84F32
:10228000808311822F5F27702093FE07992371F0BE
:102290008091FE07E82FF0E0EE0FFF1FE251F84FAC
:1022A000308391838F5F87708093FE070895CF936B
:1022B000DF934091B7075091B807C82FD0E09A013B
:1022C000082E02C0369527950A94E2F720FF2BC00E
:1022D00021E030E0082E02C0220F331F0A94E2F7FB
:1022E00020953095242335233093B8072093B707E2
:1022F0001F928F938FE495E09F938F930E94041F0A
:10230000CC0FDD1FC253D84F8981982F9F700F903B
:102310000F900F900F9039F08295807F90E0DF91C1
:10232000CF910C943311DF91CF910895CF92DF922A
:10233000EF92FF920F931F93CF93DF93F82EE090CD
:10234000C90709EC17E0D0E0C0E0C62E660FDD0833
:10235000CE1548F0DF91CF911F910F91FF90EF9034
:10236000DF90CF900895CC16DD0641F0F80185810D
:102370008770F81203C08C2F0E94571121960E5FB0
:102380001F4FE6CF0F931F93CF93C82F082F10E056
:102390008091B7079091B8070C2E02C0969587954B
:1023A0000A94E2F780FD39C0000F111FF801E753CE
:1023B000F84F8581877019F06C2F0E94961121E0EB
:1023C00030E00C2E02C0220F331F0A94E2F78091F6
:1023D000B7079091B807822B932B9093B8078093FF
:1023E000B7071F92CF938DE595E09F938F930E943F
:1023F000041FF801E253F84F8181982F9F700F90CE
:102400000F900F900F9049F08295807F816090E04F
:10241000CF911F910F910C943311CF911F910F9178
:1024200008950F931F93CF93DF93EC016A857B850B
:102430008C859D856115710581059105E9F08B01FC
:102440009C014EE136952795179507954A95D1F74A
:102450000130B9F440E00E94C6100E94331180910F
:10246000B7079091B807892B19F480E00E94C21138
:102470001A861B861C861D86DF91CF911F910F91B6
:102480000895033061F7292F2770213041F78B0120
:102490009C0194E136952795179507959A95D1F764
:1024A0000F700130E1F68F700E945711D8CF0F9353
:1024B0001F938B019C01DC01CB014EE1B695A795E2
:1024C000979587954A95D1F7813089F441E0C90104
:1024D0000E94C6100E9433118091B9078F3FF9F016
:1024E0008091BA078F3FD9F41092BA0718C0833091
:1024F00099F7832F8770813009F042C0D901CB0151
:1025000034E1B695A795979587953A95D1F78F7051
:10251000122F1F70813071F4812F0E94C21180919F
:10252000B7079091B807892BF1F580E01F910F91C3
:102530000C94C211823081F3833021F4812F0E94E8
:102540005711EDCF843069F48091B7079091B807A7
:10255000012E02C0969587950A94E2F780FDEECF92
:10256000DBCF8530E1F6812F0E94C2111093B907AD
:102570008FEF8093BA0783EB95E00E941F1FCFCFA8
:10258000823031F46FEF822F87700E949611A4CFB2
:10259000833009F0A1CF9927832F722F612F822FCB
:1025A0000E94100D99CF1F910F9108952F923F9285
:1025B0004F925F926F927F928F929F92AF92BF9253
:1025C000CF92DF92EF92FF920F931F93CF93DF93FF
:1025D00000D000D000D00F92CDB7DEB7382E4B011F
:1025E00099ECA92E97E0B92E2FE0C22ED12CFC2C0D
:1025F000CA82C4010C2C02C0969587950A94E2F712
:1026000080FD25C021E0C21AD10832E0A31AB1082A
:102610004FEFC416D40659F790E080E027960FB626
:10262000F894DEBF0FBECDBFDF91CF911F910F9108
:10263000FF90EF90DF90CF90BF90AF909F908F90E2
:102640007F906F905F904F903F902F900895809172
:10265000CA079091CB079F838E838091CC0790917E
:10266000CD074E815F814817590778F48E819F818D
:102670000E944008182F8E819F8101960E94400879
:10268000912F212F2F7797FD05C0F50184A187FF9A
:10269000B9CFC2CF381649F082E0820F2E813F8138
:1026A000280F311D3F832E83D8CF8E819F810097C5
:1026B00061F30E944008EE81FF813296FF83EE8332
:1026C0008F778F01080F111D8E819F8180179107D1
:1026D000E0F68E819F810E944008982F8F708F15A1
:1026E00031F12E813F812F5F3F4F9295977091502E
:1026F0009330D8F4C9010E944008982F929596957E
:1027000096959370282F2770920F9F5F86958695D8
:1027100086958770980F2E813F812E5F3F4FA901CC
:10272000490F511D5F834E83CFCF90E0F8CFEE81EC
:10273000FF81309709F4A9CFCF010E944008182FDC
:10274000129517708CEF810F823058F51093BB07EC
:102750001092BC071092BD071092BE071092BF07DF
:102760001092C0071092C1071092C2071092C307BF
:102770001092C4071092C5071092C6071092C7079F
:10278000FFEFF093C8078091BB07853009F43ACF7B
:10279000843009F441CF882309F434CF8BEB97E0E0
:1027A0003DCF8E819F8101960E944008082FE82E20
:1027B000E294E694E69483E0E822E3942E813F815C
:1027C0002E5F3F4F3F832E836E2DC9010E948610DE
:1027D000262E7B838C839D838EEF810F823008F0C1
:1027E0003FC0802F86958695869587708983F12CCA
:1027F000682F8E819F818E0D9F1D0E9486102B0158
:102800003C01133089F5602F6770C7013981830F50
:10281000911D4E815F81840F951F0E948610109339
:10282000BB072092BC075B815093BD07EC81E0930E
:10283000BE07FD81F093BF074092C0075092C107C9
:102840006092C2077092C3076093C4077093C50774
:102850008093C6079093C7072A812093C80793CF18
:10286000412C512C612C712C60E070E080E090E0F4
:10287000D6CF0F931F93CF93DF93EC018B819C8175
:10288000860F911D9C838B838881982F9F799883D5
:1028900091FD05C082FF03C08D79826288838881A3
:1028A00081FF05C082FD03C08D798064888380919B
:1028B0002A078F3F21F091E02981281301C090E081
:1028C000888190FB83F9888328853985232BE1F45F
:1028D00080768032C9F40091B7071091B807B8012B
:1028E00089810E94D612FC01892B71F085858D8328
:1028F0001F830E83E081F0E0EE0FFF1FEC57FE4FC9
:102900008081918199878887E885F985309741F0A2
:10291000CE010995882321F01F821E821986188610
:10292000DF91CF911F910F9108951F93CF93DF9364
:1029300000D000D000D0CDB7DEB78D839E83162F98
:10294000AD81BE8116966D917C91179711968C91F1
:102950000E94D612FC01892BC1F0113001F5818152
:102960009281A381B48189839A83AB83BC83BC01A8
:10297000CD010E94571289819A81AB81BC81ED8182
:10298000FE8182879387A487B58726960FB6F89431
:10299000DEBF0FBECDBFDF91CF911F9108951230E2
:1029A00029F485819681A781B085DDCF81859285C7
:1029B000A385B485D8CFCF93DF93EC018A8124E03F
:1029C000829FC0011124682B6A831C821B826B3199
:1029D00049F461E0CE010E949514CE01DF91CF91C0
:1029E0000C941112673021F0673641F461E001C0A8
:1029F00062E0CE01DF91CF910C949514663629F0F8
:102A0000623059F3DF91CF91089563E0E3CFCF9225
:102A1000DF92EF92FF920F931F93CF93DF93EC011E
:102A20008881182F1295169513700A81EB80FC800F
:102A300081FBCC24C0F883FBDD24D0F8113061F495
:102A4000063029F461E088ECE816F10440F11A82BE
:102A500061E0CE010E94DB14013081F0093119F1EF
:102A6000063061F11230B1F180E0DF91CF911F911A
:102A70000F91FF90EF90DF90CF900895CC2041F020
:102A800088ECE816F104A0F163E0CE010E94DB14AB
:102A9000123051F788ECE816F104E0F462E0CE0160
:102AA0000E94DB14E1CFCC20B9F088ECE816F104E9
:102AB000D8F063E0CE010E94DB14D4CFC110D2CF96
:102AC00063E088ECE816F10468F2CE010E94DB14A2
:102AD00081E0CBCF1A8206C0123031F688ECE816BE
:102AE000F104C0F762E0F1CF123009F0BDCFFACFA8
:102AF000D110CACF123091F2B7CFCF93DF93EC0150
:102B00008A8124E0829FC0011124682B6A831C8281
:102B10001B82663049F461E0CE010E949514CE011B
:102B2000DF91CF910C941112673021F0693141F49B
:102B300061E001C062E0CE01DF91CF910C94951469
:102B4000623069F3DF91CF910895CF92DF92EF92D7
:102B5000FF920F931F93CF93DF93EC018881182F7F
:102B60001295169513700A81CB80DC8081FBEE24D0
:102B7000E0F883FBFF24F0F8113061F4063029F40B
:102B800061E088ECC816D10460F11A8261E0CE01E0
:102B90000E947D15013059F0063039F5E11005C06D
:102BA00063E088ECC816D10430F580E028C0EE2040
:102BB00089F063E088ECC816D10498F4FF2021F076
:102BC00063E0CE010E947D15123079F709C009310A
:102BD00061F70FC0123049F788ECC816D10428F706
:102BE00062E0CE010E947D15E0CF1230F1F6073091
:102BF00071F71A8262E0CE010E947D1581E0DF91BB
:102C0000CF911F910F91FF90EF90DF90CF9008959B
:102C1000FC019081929596959370913039F492834E
:102C200061E0CF010E94951480E008959230E1F7B1
:102C30009283CF010E94111281E0089580932707AB
:102C40000895809328070895AF92BF92CF92DF92A4
:102C5000FF920F931F93CF93DF930E94B10A5C0101
:102C60000E94CA0AEC010E94E30A8C010E94FC0A3D
:102C70006C01C50104960E944008F82E8093C90794
:102C80001093CB070093CA070C0D1D1D1093CD07A1
:102C90000093CC07DF92CF921F928F938AE695E044
:102CA0009F938F930E94041F0EEC17E00F900F90DC
:102CB0000F900F900F900F905801D12C80E090E072
:102CC000DF1448F4CE010E944008C82ECE010196C0
:102CD0000E9440089C2DD5018D939D935D01D39456
:102CE0002296B0E1DB12EACF0E94E50FE0E0F8E0C7
:102CF00088E0DF011D928A95E9F71092080810928A
:102D0000090810920A0810920B0810920C081092F1
:102D10000D0810920E0810920F08109210081092D1
:102D2000110810921208109213084091C90790E000
:102D300080E030E020E061E070E0841708F44DC0EE
:102D40003093B8072093B7078FEF8093B90780932C
:102D5000BA0780932A07EAE2F7E090E080E04EE0CD
:102D60003FEF489FD001499FB00D1124ED01C55D93
:102D7000D84F28812E7F288332831382A65DB84FD7
:102D800011962C911197297F11962C9311971582EA
:102D9000148211962C911197277E11962C933683CD
:102DA000108617821286118628812F792883138630
:102DB00014861586168601963E968A30910589F608
:102DC00081E080932907DF91CF911F910F91FF90B0
:102DD000DF90CF90BF90AF900895D801ED91FD9115
:102DE0008D01F5FF09C0FB01082E02C0EE0FFF1F89
:102DF0000A94E2F72E2B3F2B01969FCF8093270753
:102E0000089580932807089580912907882361F108
:102E1000E8E0F8E080E030E020E041E050E091912F
:102E2000992339F0BA01022E01C0660F0A94EAF71D
:102E3000862B2F5F3F4F2430310589F7823031F4E4
:102E400081E090910C08911180E0880F8093000838
:102E500086E0EDE0F8E0A2E0B8E001900D928A95FE
:102E6000E1F780E098E0089548E050E060E080E01D
:102E700098E00E944E04F5CF80912907882309F439
:102E800085C08091FF079091FE07981B977009F409
:102E900045C0E82FF0E0EE0FFF1FE251F84F9081A0
:102EA000492F42954F7021818F5F87708093FF0774
:102EB000892F827050E090FF36C0882329F08091DE
:102EC0000C088F5F80930C08E0E0F8E090E080E071
:102ED000BA01082E02C0759567950A94E2F760FF63
:102EE00003C030853F5F308701963196843091056D
:102EF00079F7222399F08091130896E08F5F86304E
:102F000009F480E0E82FF0E0E050F84F35853323F6
:102F100011F0915099F78093130825878091B70796
:102F20009091B8070895882339F080910C08882380
:102F300019F0815080930C08E0E0F8E090E080E028
:102F4000BA01082E02C0759567950A94E2F760FFF2
:102F500005C03085332311F031503087019631960A
:102F60008430910569F72223C9F2EDE0F8E090E0A2
:102F700080E03191321305C08050984FFC011586D6
:102F8000CDCF019686309105A1F7C8CF90E080E0C3
:102F90000895CF93DF93C82FD62F809129078823D8
:102FA00009F448C08C2F0E946610DC01DD23E9F192
:102FB000892B29F590E080E02EE0289FF001299FE1
:102FC000F00D1124DF01A55DB84F3C9130FD1CC010
:102FD000DF01A55DB84FE65DF84FC283138215820D
:102FE00014828FEF86831086178212861186818164
:102FF0008078816081831386148615861686C09337
:103000002A078C91846015C001968A309105A9F633
:103010001F92CF938EE895E09F938F930E94041F99
:103020000F900F900F900F9005C0892B19F08C9185
:103030008B7F8C93DF91CF910895CF92DF92EF92A7
:10304000FF920F931F93CF93DF93C82F809129078F
:10305000882309F47FC08BE2E82E87E0F82E670111
:1030600010E000E0DEE0D09FF001D19FF00D1124D0
:10307000E55DF84F808180FF0AC0F6019181809163
:103080002A07981721F06C2FC6010E9439140F5F90
:103090001F4FFEE0CF0ED11C0A30110521F710E0C2
:1030A00000E0DEE0D09FF001D19FF00D1124E55D3E
:1030B000F84F808180FF0AC0F701918180912A0733
:1030C000981304C06C2FC7010E9439140F5F1F4F63
:1030D000FEE0EF0EF11C0A30110521F78FEF80930F
:1030E0002A07AAE2B7E030E020E08EE0829FF001FC
:1030F000839FF00D1124E55DF84F908190FF0AC089
:1031000091FD08C019964D915C911A97452B11F4C9
:103110009E7F90832F5F3F4F1E962A30310531F7F7
:103120008091B9078F3FB1F06091BA0767FD12C077
:103130006C0F6093BA0763336CF08CEA95E00E94E1
:103140001F1F8091B9070E9457118FEF8093B90715
:103150008093BA07DF91CF911F910F91FF90EF906D
:10316000DF90CF9008951092290708950E94AC0D2A
:1031700081110C9424160C94B318CF93C82F80910E
:1031800036088C17A1F08EEB95E0CC2311F08BEB79
:1031900095E09F938F9382EC95E09F938F930E948D
:1031A000041FC09336080F900F900F900F90CF918F
:1031B0000895CF93C82F809137088C17D9F08EEBE4
:1031C00095E0CC2311F08BEB95E09F938F9383EDEB
:1031D00095E09F938F930E94041FC09337080F9030
:1031E0000F900F900F90C11105C08CE198E0CF9126
:1031F0000C94F807CF910895823039F480E00E9452
:10320000D91880E00E94BD180895803129F08131DD
:1032100031F40E94B61808950E94B31808958032C0
:1032200039F0813241F0823241F0833249F0089521
:1032300081E00C94D91880E0FCCF81E00C94BD189B
:1032400080E0FCCFCF93DF93D62FC42F813031F4B1
:1032500082E299E1DF91CF910C94910DE0913408D5
:10326000F0913508309751F00190F081E02D3097C2
:1032700029F06C2F8D2FDF91CF910994D11114C0BB
:1032800081E0C11101C080E080935F01E0913408CA
:10329000F0913508309729F00280F381E02D3097C6
:1032A00041F7DF91CF910895D13039F481E0C11118
:1032B00001C080E080935E01E9CFD23039F481E033
:1032C000C11101C080E080935D01E0CFD33039F4BB
:1032D00081E0C13009F080E080935B01D7CFD4302A
:1032E000B1F48C2F0E94FE168BEE95E0C13011F4E4
:1032F00087EE95E09F938F9389EF95E09F938F934F
:103300000E94041F0F900F900F900F90BFCFD530E9
:1033100009F0BCCF8C2F0E94011784EF95E0C130DB
:1033200011F48EEE95E09F938F938CE096E0E6CFBC
:10333000CF93DF93C82FD62FE0911408F091150892
:10334000309709F0099580915108909152080097A3
:1033500039F08C0F911DFC01C081CF3F09F43FC0B3
:10336000DD2379F11F92CF9381E296E09F938F93B3
:103370000E94041F0F900F900F900F908C2F80933E
:10338000590180915F01882321F06D2F8C2F0E94BD
:103390008D0FE0913408F0913508309741F00680A8
:1033A000F781E02D309719F06D2F8C2F09958091C2
:1033B0003708811114C06D2F8C2FDF91CF910C94A1
:1033C000C9171F92CF938DE296E09F938F930E942F
:1033D000041F0F900F900F900F908FEFD0CFDF91C1
:1033E000CF910895CF93DF93D82FC92F60912B08E9
:1033F00070E0482F592F8CE298E00E9481048111DF
:103400000DC0E0912B0881E08E0F80932B08F0E037
:10341000EE0FFF1FE45DF74FD083C183DF91CF91A3
:103420000895CF93DF93D82FC92F6091280870E0BB
:10343000482F592F89E298E00E94810481110DC024
:10344000E091280881E08E0F80932808F0E0EE0FCD
:10345000FF1FE75DF74FD083C183DF91CF910895C0
:1034600090931708809316080895909327088093E7
:103470002608089590932508809324080895909332
:10348000520880935108089590933508809334082A
:10349000089581E080935A0108958BE498E008959F
:1034A00085E498E00895CF93DF9380E00E949B0B22
:1034B00084E00E949B0B85E00E949B0B0E94720897
:1034C0000E94A50982E299E10E94B20B0E948F0C32
:1034D0000E94B6188CEF98E10E94070E0E943108F6
:1034E000EC0148E050E067E376E00E94360441E0FA
:1034F00050E06EE474E0CE0108960E94360443E08A
:1035000050E063EE72E0CE0109960E94360441E07D
:1035100050E06EE474E0CE010C960E94360446E062
:1035200050E06AE171E0CE010D960E94360441E060
:1035300050E06EE474E0CE0143960E94360446E00B
:1035400050E061E271E0CE0144960E94360441E011
:1035500050E06EE474E0CE014A960E94360442E0E8
:1035600050E068E271E0CE014B960E94360441E0E3
:1035700050E06EE474E0CE014D960E94360448E0BF
:1035800050E06BE271E0CE014E960E94360441E0BD
:1035900050E06CE871E0CE0186960E94360484E328
:1035A00091E0DF91CF910C943408CF93C0E08091EB
:1035B0002B08C81710F0CF910895EC2FF0E0EE0F14
:1035C000FF1FE45DF74F0190F081E02D309719F077
:1035D00085E498E00995CF5FEACFCF93DF9300D0E1
:1035E000CDB7DEB71A821982E0911608F09117085C
:1035F0003097A9F0BE016F5F7F4FCE01029609950B
:103600009A818981292F282B51F0109238089093A4
:10361000390880933A0888E398E00E9401080F90E7
:103620000F90DF91CF9108958F929F92AF92BF92AA
:10363000CF92DF92EF92FF920F931F93CF93DF937E
:103640000E94D8046B017C018091180890911908A0
:10365000A0911A08B0911B0846015701881A990ACF
:10366000AA0ABB0A85E688169104A104B10428F0D1
:1036700084E6882E912CA12CB12CC0E06C2F8BE419
:1036800098E00E946804182F6C2F85E498E00E944F
:103690006804D82F11119EC061E081119EC04D2F8A
:1036A0006C2F8BE498E00E945104CF5FC03331F758
:1036B000882D0E941D180E943C17EC010E940417DF
:1036C0008C018091430890914408C817D90709F4E8
:1036D00068C080915F01882319F0CE010E94950F88
:1036E000E0913408F0913508309739F00480F58185
:1036F000E02D309711F0CE010995D0934408C09386
:103700004308D0935601C0935501C1E048E050E012
:103710006BE378E0C8010E942704811144C08091C6
:103720003608811103C0C8010E94F80748E050E044
:10373000B8018BE398E00E94CD0380E496E09F936C
:103740008F930E94041FCBE3D8E00F900F900CE9F9
:1037500011E089911F928F931F930F930E94041F72
:103760000F900F900F900F9088E0C334D80789F71F
:103770008DE496E09F938F930E94041F80914408EC
:103780008F93809143088F9381E596E09F938F9369
:103790000E94041F0F900F900F900F900F900F90AA
:1037A00004C0C0E0B3CFC111C8CFC0921808D092F6
:1037B0001908E0921A08F0921B08DF91CF911F912F
:1037C0000F91FF90EF90DF90CF90BF90AF909F90C0
:1037D0008F900895811163CF60E08C2F0E9498191B
:1037E0005ECF80915E01882361F0EBE4F8E0919177
:1037F000911105C098E0E135F907C9F780E00C9414
:103800001D1D089580915E01882361F0E5E4F8E0D4
:103810009191911105C098E0EB34F907C9F780E068
:103820000C941D1D089580915D01882351F081E065
:103830000E940F1D82E090E00E94950480E00C94AD
:103840000F1D0895CF93C0E080912808C81710F08D
:10385000CF910895EC2FF0E0EE0FFF1FE75DF74FDB
:103860000190F081E02D0995CF5FEECFE091260821
:10387000F0912708309709F009940895E091240801
:10388000F0912508309709F0099408950E943908AD
:103890000E94FE0780935C010E941C0E0E94630D33
:1038A0000C94730890931508809314080895CF9290
:1038B000DF92EF92FF920F931F93CF93DF93C82E67
:1038C000D62E7A01122FD32FC0E080915908C81745
:1038D00030F1C0E080915808C81760F1C0925908D3
:1038E000D0925808E0925608F09257081093540866
:1038F000D093550800935308C0E080915908C81729
:1039000020F1C0E080915808C81770F1DF91CF9185
:103910001F910F91FF90EF90DF90CF900895E0916D
:103920005608F0915708EC0FF11D80810E94970511
:10393000CF5FCBCFE0915408F0915508EC0FF11D0B
:1039400080810E949705CF5FC5CFE0915608F09126
:103950005708EC0FF11DD0818D2F0E946E058D2F21
:103960000E940E06CF5FC9CFE0915408F091550830
:10397000EC0FF11D80810E949705CF5FC3CFCF92DE
:10398000DF92EF92FF920F931F93CF93DF93082F55
:10399000F92ED0E0E12CDD24D39480915908D8177A
:1039A00048F0DF91CF911F910F91FF90EF90DF9042
:1039B000CF900895E0915608F0915708ED0FF11D52
:1039C000C0808C2D0E94110685E090E00E94A40426
:1039D000C0E01E2D1C0F80915808C81730F08C2DA8
:1039E0000E940E06DF5FE12ED8CFE0915408F091DF
:1039F0005508EC0FF11D80810E94C905482F4D2507
:103A000080915308612F680F802F9F2D0E945104D1
:103A1000CF5FDFCF90935B0880935A080895E091C1
:103A20005A08F0915B08309739F062E070E0681B4B
:103A3000710990E080E009940895E0915A08F091AE
:103A40005B08309739F062E070E0681B710981E033
:103A500090E009940895E0915A08F0915B0830973E
:103A600029F063E070E090E080E009940895E0912F
:103A70005A08F0915B08309729F063E070E081E02C
:103A800090E0099408959B01805A9E4FFC0180812B
:103A90008F3FA1F06330710579F090915C0861E08F
:103AA000911105C02130310529F060E003C02130BB
:103AB0003105D9F30C94B2050C94E50508951F93D4
:103AC000CF93DF93D82FC62F142F8F3F31F00E9452
:103AD0006E05612F8D2F0E94B205CF3F39F08C2FDC
:103AE0000E946E05612F8C2F0E94B205D093600159
:103AF000C093610110935C0883E49DE10E940A1D5C
:103B000082E00E949B0B81E0DF91CF911F910C948A
:103B10009B0B41E065E180E00C945F1DCF93C82FC3
:103B200080915D08882359F0CA3019F48DE00E9415
:103B30008E1D8091C80085FFFCCFC093CE00CF9131
:103B40000895CF93DF9300D000D0CDB7DEB769835F
:103B50007A838B839C8360E472E48FE090E0298118
:103B60003A814B815C810E94C01E21503109309303
:103B7000CD002093CC00EAECF0E08081817F86606C
:103B8000808380818F7C80838081877F8083E9EC44
:103B9000F0E080818860808382E691E09093650800
:103BA0008093640881E080935D088FE596E00F9034
:103BB0000F900F900F90DF91CF910C941F1FE9ECA5
:103BC000F0E08081877F808382E691E090936508B2
:103BD0008093640810925D080895CF93DF93CDB76A
:103BE000DEB728970FB6F894DEBF0FBECDBF0E9498
:103BF000EF040E94531A0E94DD070E94B10419824B
:103C00001A821B821C8288E2882E912CA12CB12C56
:103C100090E3492E512C612C712C89819A81AB81C2
:103C2000BC8183709927AA27BB270097A105B105FE
:103C300009F04EC00E94D51A0E94141B0E94F11B6D
:103C400069817A818B819C81A50194010E94C01EAB
:103C5000623071058105910531F469817A818B812A
:103C60009C810E94221C69817A818B819C81A301A5
:103C700092010E94C01E633071058105910531F4E7
:103C800069817A818B819C810E94361C69817A814D
:103C90008B819C8124E630E040E050E00E94C01E11
:103CA000672B682B692B11F40E943E1C0E94461C56
:103CB00081E090E00E94950489819A81AB81BC816A
:103CC0000196A11DB11D89839A83AB83BC83A5CFC7
:103CD0000197A105B10509F0B3CF0E94ED1A0E942A
:103CE000D8046B017C0180915E0890915F08A091DF
:103CF0006008B09161088C159D05AE05BF0508F000
:103D00009FCF0E94131C88EBC80E8BE0D81EE11CCD
:103D1000F11CC0925E08D0925F08E0926008F092B9
:103D200061088ECF0E94891D60E076E980E090E016
:103D30000E94A11D00E02EE831E044E951E066E078
:103D400088E00E94571C8FEB9CE10E94F2190E94B0
:103D5000ED1D90E080E0089597FB072E16F4009487
:103D600007D077FD09D00E94E21E07FC05D03EF483
:103D7000909581959F4F0895709561957F4F089517
:103D8000A1E21A2EAA1BBB1BFD010DC0AA1FBB1F5F
:103D9000EE1FFF1FA217B307E407F50720F0A21BD1
:103DA000B30BE40BF50B661F771F881F991F1A943E
:103DB00069F760957095809590959B01AC01BD0168
:103DC000CF010895AA1BBB1B51E107C0AA1FBB1F4F
:103DD000A617B70710F0A61BB70B881F991F5A9597
:103DE000A9F780959095BC01CD010895DC0101C033
:103DF0006D9341505040E0F70895FB01DC010190C4
:103E00000D920020E1F70895B0E0A0E0EAE0FFE1C4
:103E10000C940D22FE01359661917191AF01809154
:103E20006408909165080E944B1FE2E00C942922DF
:103E300060916408709165080E94342108950F9381
:103E40001F93CF93DF93E0916408F091650823817D
:103E500000E010E021FD0EC00FEF1FEFC801DF9161
:103E6000CF911F910F9108950995892B11F00FEFB4
:103E70001FEFCE01EC018991609164087091650893
:103E8000DB011896ED91FC918111EECF8AE0099546
:103E9000892B21F3E1CFAFE0B0E0E1E5FFE10C9445
:103EA000FD217C013B018A01DC0117961C921E92C8
:103EB000169713968C9181FFBEC19AE0292EFE01C0
:103EC00031964F01D70113969C91F30193FD859193
:103ED00093FF81913F01882309F444C1853239F46D
:103EE00093FD859193FF81913F01853229F4B701BC
:103EF00090E00E943421E6CFB12C412C512CBFE13F
:103F0000B51538F08B3209F188F4803201F1833233
:103F100021F157FC3AC020ED280F2A3040F556FE1B
:103F20001FC0B29C200D1124B22E06C08D3291F01C
:103F3000803379F7689450F8F30193FD859193FFEE
:103F400081913F018111DBCF20C0689451F86894C2
:103F500052F8F2CF689453F8EFCF689454F8ECCF4E
:103F6000429C200D1124422E689455F8E5CF8E32E4
:103F700029F456FCF7C0689456F8DECF8C3619F455
:103F8000689457F8D9CF8836B9F2982F9F7D955409
:103F90009330C0F0833681F18337A1F1833509F086
:103FA0005BC0D801CD90DD908D016B2D70E056FC8B
:103FB00002C06FEF7FEFC6010E941E215C01689472
:103FC00057F80AC00C5F1F4FEFE3E983AA24A394BC
:103FD000B12C6401E89457F853FE29C0342CA11485
:103FE000B10451F5332009F46DCFB70180E290E0C0
:103FF0000E9434213A94F6CFD8018C9189830E5FC8
:104000001F4FE4CFF801C190D1908F016B2D70E06C
:1040100056FC02C06FEF7FEFC6010E9429215C01B0
:10402000D9CFB70180E290E00E9434214A944A142B
:104030001B0409F0B0F7D2CFF60157FC859157FE6B
:1040400081916F01B70190E00E94342131103A94C0
:10405000B1E0AB1AB108C3CF843619F0893609F044
:1040600071C0F80157FE67C0619171918191919182
:104070008F01E52DEF76DE2E97FF09C09095809594
:10408000709561957F4F8F4F9F4F6894D7F82AE0C6
:1040900030E0A4010E946421C82EC818AC2C5D2C0D
:1040A000D6FE0CC0E89450F8CB1440F4D4FE05C002
:1040B000D2FC03C05D2D5E7E552EAB2C54FE93C00A
:1040C000FE01EC0DF11D8081803309F085C0652D66
:1040D000697E562E752D7870372E53FC93C050FE96
:1040E0008DC0BC2CA41410F4B40CBA1854FE90C0AB
:1040F000B70180E390E00E94342152FE07C088E7B8
:1041000051FC88E590E0B7010E943421CB1408F4FB
:104110008BC0CA94D12C8FEFC81AD80AC80CD91CEE
:10412000D6018E916D01B70190E00E9434218C146C
:104130009D04B1F757CF61917191072E000C880B48
:10414000990B96CFD52CE894D4F82AE0853729F13D
:10415000F52DF97FDF2E8037A1F058F48835A1F0D6
:104160008F36D1F0F701868197812F96E2E10C948A
:1041700019228837B9F7D4FE02C06894D2F820E13A
:104180000CC06894D4F8F7CF54FE03C02F2F2660DC
:10419000D22E20E132E002C028E030E0F801D7FE64
:1041A00015C041915191619171914C875D876E87E6
:1041B0007F878F01A4016C857D858E859F850E94F8
:1041C0006421C82EC818E894D7F868CF81919191DE
:1041D000AC0170E060E0E9CF52FC02C0A3947ACF5A
:1041E000A394A39477CF852D867809F473CFF6CF67
:1041F000B70180E290E00E943421A394A414C0F39C
:10420000312C74CF342C3A18A41408F46FCFF8CFA3
:10421000852D867809F47ACF8BE251FE80E257FC37
:104220008DE2B70190E070CFB70180E390E00E948B
:104230003421BA946BCF8FEF9FEF97CFFC0105909D
:10424000615070400110D8F7809590958E0F9F1F98
:104250000895FC016150704001900110D8F78095DD
:1042600090958E0F9F1F08950F931F93CF93DF9309
:10427000182F092FEB018B8181FD09C01FEF0FEF74
:10428000812F902FDF91CF911F910F91089582FF81
:1042900014C02E813F818C819D81281739073CF401
:1042A000E881F981CF0101969983888310838E81FB
:1042B0009F8101969F838E83E3CFE885F985812FC7
:1042C0000995892BA1F3DACFFA01AA27283051F1F9
:1042D000203181F1E8946F936E7F6E5F7F4F8F4F37
:1042E0009F4FAF4FB1E03ED0B4E03CD0670F781F96
:1042F000891F9A1FA11D680F791F8A1F911DA11D7B
:104300006A0F711D811D911DA11D20D009F46894B3
:104310003F912AE0269F11243019305D3193DEF65B
:10432000CF010895462F4770405D4193B3E00FD011
:10433000C9F7F6CF462F4F70405D4A3318F0495DFC
:1043400031FD4052419302D0A9F7EACFB4E0A695DF
:104350009795879577956795BA95C9F70097610501
:10436000710508959B01AC010A2E06945795479557
:1043700037952795BA95C9F7620F731F841F951F4C
:10438000A01D0895DC01CB01FC01F999FECF06C008
:10439000F2BDE1BDF89A319600B40D924150504003
:1043A000B8F70895F999FECF92BD81BDF89A992783
:1043B00080B50895A8E1B0E042E050E00C94C4213B
:1043C000DC01CB0103C02D910E94EB2141505040F4
:1043D000D0F70895262FF999FECF1FBA92BD81BD5F
:1043E00020BD0FB6F894FA9AF99A0FBE0196089577
:1043F0000E94EA21272F0C94EB212F923F924F929B
:104400005F926F927F928F929F92AF92BF92CF9264
:10441000DF92EF92FF920F931F93CF93DF93CDB76D
:10442000DEB7CA1BDB0B0FB6F894DEBF0FBECDBFE5
:1044300009942A88398848885F846E847D848C84B6
:104440009B84AA84B984C884DF80EE80FD800C81BF
:104450001B81AA81B981CE0FD11D0FB6F894DEBFA2
:0C4460000FBECDBFED010895F894FFCF12
:10446C0000000002000000009404000000000101A4
:10447C000101010101FFFFFFFFFF6446624138317A
:10448C0000303030303030003030003030303030B0
:10449C0030303000417374656C69610000000000BD
:1044AC000000000000000000000000000000000000
:1044BC00000000000000003B08FF000000010101AB
:1044CC00FFFF00000002000000008E1D0000000035
:1044DC007EA30A001200000000000101010001008F
:1044EC00000014005E100816A515071500000E1428
:1044FC002726252401030206171E040525303258F1
:10450C00200025642000726573657420746F20642C
:10451C00667520626F6F746C6F6164657200757381
:10452C00622064657669636520636F6E6669677582
:10453C00726564006461746173746F726167652085
:10454C00696E697469616C697A650073746F726104
:10455C00676520646174612076616C6964007265C2
:10456C0073657420646174612073746F7261676524
:10457C0020666F72206E65772070726F6A65637447
:10458C000030303030303030300073797374656DFA
:10459C0020706172616D657465722076616C7565F1
:1045AC002066697865642025642C202564202D2DD7
:1045BC003E2025640A0073797374656D20706172F6
:1045CC00616D657465727320696E697469616C697B
:1045DC007A656400706172616D65746572732073C5
:1045EC006176656400696E76616C6964206B6579CF
:1045FC002061737369676E732064617461006B650D
:10460C00792061737369676E732073746F7261675D
:10461C006520646174612069732076616C69640043
:10462C005B7761726E5D206661696C656420746F86
:10463C00207772697465207261776869642064619F
:10464C007461004D30310061746D656761006D659A
:10465C006D6F7279207772697465207472616E73F4
:10466C00616374696F6E20737461727400256420C9
:10467C006279746573207772697474656E206174E5
:10468C002025640A00636865636B2C206164647286
:10469C002025642C206C656E2025640A00636B3A1F
:1046AC002025640A006D656D6F72792077726974CC
:1046BC0065207472616E73616374696F6E20646FD0
:1046CC006E6500410042004400450046004700482A
:1046DC00004A004B004C004D004E004F0050005162
:1046EC000052005400550056005700580059005A0B
:1046FC00004573630053706163650054616200464A
:10470C00310046320046330046340046350046360A
:10471C0000463700463800463900463130004631F5
:10472C003100463132004C5368696674004C437456
:10473C00726C004C416C74004C47554900525368E4
:10474C0069667400524374726C0052416C7400526E
:10475C0047554900486F6D6500456E6400496E739E
:10476C006572740044656C657465005061676555CD
:10477C00700050616765446E004C65667400526948
:10478C0067687400446F776E0048616E2F5A656ECF
:10479C00004B6174612F486972610048656E6B61F2
:1047AC006E004D7568656E002C0021003F003A00CC
:1047BC003B005F0026007C005E007E004000230072
:1047CC002400C2A50025005C002700220060002800
:1047DC000029007B007D003C003E004B616E6100B7
:1047EC0045697375004E756D4C6F636B004361705A
:1047FC00734C6F636B005363726F6C6C4C6F636BB9
:10480C00004E756D30004E756D31004E756D320079
:10481C004E756D33004E756D34004E756D35004E12
:10482C00756D36004E756D37004E756D38004E75D2
:10483C006D39004E756D3030004E756D2E004E7515
:10484C006D2F004E756D2A004E756D2D004E756DD9
:10485C002B004E756D3D004E756D5F456E74657227
:10486C00004E756D5F4253004631330046313400C3
:10487C004631350046313600463137004631380076
:10488C004631390046323000463231004632320071
:10489C004632330046323400507274536372005007
:1048AC0061757365427265616B004D656E75006C68
:1048BC0061796572206F66662025640A006C6179E7
:1048CC006572206F6E2025640A006E756D4C6179DF
:1048DC006572733A2564206B65794D617070696EF1
:1048EC00674461746153697A653A25640A006361AF
:1048FC006E6E6F7420617474616368206B657920CF
:10490C00256420746F20736C6F740A0063616E638E
:10491C00656C206F6E6573686F74006F6E006F66E8
:10492C0066006F7574707574206D7574653A20250A
:10493C00730A0073696D756C61746F72206D6F64AE
:10494C00653A2025730A004A495300555300416CBF
:10495C00746572004D61696E0073797374656D20B6
:10496C006C61796F75743A2025730A00726F7574D7
:10497C00696E67206368616E6E656C3A2025730AF8
:10498C00006B6579646F776E2025640A006B65791E
:10499C0075702025640A004131353246443243009B
:1049AC00484944207265706F72743A5B005D2C202C
:1049BC00006C61796572733A20253032580A002DEB
:0849CC002D2D2D2D2D2D2D00A8
:00000001FF
