:100000000C9478050C9495050C9495050C94950525
:100010000C9495050C9495050C9495050C949505F8
:100020000C9495050C94DE0B0C9495080C94B9086F
:100030000C9495050C9495050C9495050C949505D8
:100040000C9495050C9495050C9495050C949505C8
:100050000C9495050C9495050C9495050C949505B8
:100060000C9495050C9495050C9495050C949505A8
:100070000C9495050C9495050C9495050C94950598
:100080000C94CD060C9495050C9495050C9495054F
:100090000C9495050C9495050C9495050C94950578
:1000A0000C9495050C9495050C94950500010000A1
:1000B0008E021200020000AA015B00220000720200
:1000C0001C00210000BC0109002201003202400096
:1000D000210100DC01090022020005022D0021029D
:1000E00000F5010900030000A601040103090494BE
:1000F0000110020309045001420303090400014EE8
:100100004E0330003000300030003000300030004E
:10011000300030003000300030003000300030005F
:10012000300030003000300030003000300030004F
:10013000300030003000300030003000300030003F
:10014000300030003000300030003000300000005F
:10015000420330003000300030003000300030000A
:10016000300030003000300030003000300030000F
:1001700030003000300030003000300030003000FF
:1001800030003000300030003000300030003000EF
:100190003000000010034B00650072006D00690024
:1001A0007400650000000403090409025B000301F8
:1001B00000C03209040000020300000009211101FF
:1001C0000001221C0007058103400002070502030D
:1001D0004000080904010001030101000921110187
:1001E0000001224000070583030800010904020002
:1001F0000103010200092111010001222D00070560
:10020000840308000105010902A10105091901295A
:10021000031500250195037501810295017505817E
:10022000030501093009311581257F750895028183
:1002300006C005010906A10175019508050719E029
:1002400029E71500250181029501750881039505AF
:10025000750105081901290591029501750391039E
:1002600095067508150026FF000507190029FF816E
:1002700000C006ABFF0A0002A1017508150026FFA9
:1002800000954009018102954009029102C01201C6
:1002900000020000002055F077A5000101020301D3
:1002A000019A0304000000029C0305000000037390
:1002B0000606000000049E030700000005A00308D6
:1002C00000000006A2030900000007A4030A0000C2
:1002D0000008A6030B0000000910040C0000000A2F
:1002E000A8030D0000000B59020E0000000CAA0329
:1002F0000F0000000DAC03100000000EAE03110053
:1003000000000FB0031200000010B2031300000041
:1003100011B4031400000012B60315000000133BD3
:10032000051600000014B8031700000015BA0318E2
:1003300000000016BC031900000017BE031A0000DD
:100340000018C0031B00000019C2031C0000001AA3
:10035000C4031D0000001B6202270200001C1F03D3
:100360001E0200001DF9031F0200001E3F052002AF
:1003700000001F4305210200002047052202000063
:10038000214B0523020000224F05240200002353C5
:1003900005250200002457052602000025C6032972
:1003A00000000026CA032C000000273005280000AA
:1003B0000028D0032B000000293A052A0000002A5B
:1003C000D4033A0000002BD7033B0000002CDA03D3
:1003D0003C0000002DDD033D0000002EE0033E0048
:1003E00000002FE3033F00000030E6034000000060
:1003F00031E9034100000032EC034200000033EF1A
:10040000034300000034F3034400000035F70345C4
:1004100000000058FC03E1000000570304E0000066
:1004200000590904E20000005A0E04E30000009F96
:10043000FB03E10000009E0204E0000000A00804AD
:10044000E2000000A10D04E3000000A31204E50097
:100450000000A21904E4000000A41F04E60000004C
:10046000A52404E70000005B29044A0000005C2E7C
:10047000044D0000005D3204490000005E39044C68
:100480000000005F40044B0000006047044E000085
:1004900000614E04500000006253044F00000063EE
:1004A000440452000000645904510000006A5E04D4
:1004B000350000006B6604880000006D70048A003F
:1004C00000006C77048B00000036110537023702FC
:1004D000377D0436023602387F041E011E01398141
:1004E00004380138013A8304330134023B85043374
:1004F0000233023C87042D0187013D25052E01337F
:10050000013E05022D022D023F1B0525013401404D
:10051000160538023802412A052E022D01428904AF
:1005200024012301438B0431018901448D042301FB
:100530002E02458F0435012E014691041F012F0222
:100540004793042001200148950421012101499786
:1005500004310289024A9A04220122014B9C04318F
:100560000287024C9E04340224014DA00434011F72
:10057000014EA20435022F014FA40426012501508B
:10058000A6042701260151A8042F02300252AA0412
:100590003002310253A8042F01300154AA04300163
:1005A000310155AC043601360156AE04370137012E
:1005B000B7B00490000000B8B504910000009DBAE7
:1005C000045300000066C2043900000067CB0447F2
:1005D0000000008AD604620000008BDB0459000092
:1005E000008CE0045A0000008DE5045B0000008EE2
:1005F000EA045C0000008FEF045D00000090F4044A
:100600005E00000091F9045F00000092FE046000AB
:100610000000930305610000009C0805B000000085
:10062000940E05630000009813055400000097180D
:100630000555000000961D0556000000952205573F
:10064000000000992705670000009A2C055800005B
:10065000009B3605BB0000007E3D05680000007F62
:100660004105690000008045056A000000814905D8
:100670006B000000824D056C0000008351056D0089
:1006800000008455056E0000008559056F000000CC
:10069000865D0570000000876105710000008865B7
:1006A000057200000089690573000000656D05464C
:1006B00000000068740548000000697F05760000AE
:1006C00000A3255E25DC24EE2539230000FF000071
:1006D00044FF0000FFFF0000FF660000FF00004431
:1006E000FF0000FFFF0000FF440000FF000000FFCC
:1006F000004400FF00FF004400FF00FFFFFF000078
:10070000AEA81FD30040A1C8DA02813FA4A6D580BD
:100710008D142002AF000000000000005E00000009
:1007200006000600247E247E24002E7A2F3A0066DE
:100730001668660036494936000600000000003E93
:1007400041000000413E00082A1C2A0808083E0813
:1007500008004020000000080808080000200000F1
:1007600000300C0300007F41417F0000417F4000CA
:100770007949494F004949497F000F08087F004FD8
:10078000494979007F4949790001710907007F498A
:10079000497F004F49497F000024000000004024A9
:1007A000000008142200001414141400002214087D
:1007B0000002015906007F5D557D007F11117F0009
:1007C0007F49497E007F414141007F41413E007F9A
:1007D000494949007F090909007F414979007F089B
:1007E000087F00417F4100004040413F007F0836C4
:1007F00041007F4040407F017F017F7F031C607F7D
:10080000007F41417F007F09090F007F41215F0088
:100810007F19294F004F49497901017F0101007F6C
:1008200040407F007F40201F7F407F407F00631C4F
:100830001C6303047804030061514D4300007F41B1
:100840000000030C30400000417F0000040204005F
:1008500000202020200004020000007454547C007A
:100860007F44447C007C444444007C44447F007CBE
:1008700054545C00047F050000BCA4A4FC007F0469
:10088000047C0000007D00000080FD00007F102837
:100890004400007F40007C047C047C007C04047CD9
:1008A000007C44447C00FC24243C003C2424FC00C8
:1008B000007C0404005C54547400047F4400007CF9
:1008C00040407C007C40201C7C407C407C004438C4
:1008D0003844009CA0403C004464544C0004020096
:1008E0000000087F41000000007F000000417F08F9
:1008F00000000000000000000000000000000000F8
:1009000080FFFF0780FFFF0780FFFF0780FFFF07D3
:100910000000070000800F0000C01F0000F03F0033
:1009200000F87F0000FCFC00007EF801803FE0033F
:10093000800FC00780078007800300078001000642
:1009400000000004000000000000000080FFFF071E
:1009500080FFFF0780FFFF0780FFFF078087870773
:100960008087870780878707808787078087870733
:100970008087870780878707808787078087870723
:1009800080878707800780070000000000000000C4
:10099000000000000000000080FFFF0780FFFF074D
:1009A00080FFFF0780FFFF0780071E0080071E00F3
:1009B00080071E0080071E0080077E008007FE0063
:1009C000800FFF01809FFF0700FFEF0700FF8F07E9
:1009D00000FE070700F8010600000000000000000C
:1009E0000000000080FFFF0700FFFF0700FEFF0779
:1009F00000F8FF0700F0030000E0070000C00F0050
:100A000000801F0000007F000000FC000000FC00D0
:100A100000007F0000801F0000C00F0000E0070002
:100A200000F0030000F8FF0700FEFF0700FFFF07CC
:100A300080FFFF0700000000000000000000000031
:100A4000000000000000000080FFFF0780FFFF079C
:100A500080FFFF0780FFFF0700000000000000008C
:100A600000000000800700008007000080070000F1
:100A700080070000800700008007000080FFFF075C
:100A800080FFFF0780FFFF0780FFFF078007000050
:100A9000800700008007000080070000800700003A
:100AA000800700000000000080FFFF0780FFFF07B5
:100AB00080FFFF0780FFFF07808787078087870702
:100AC00080878707808787078087870780878707D2
:100AD00080878707808787078087870780878707C2
:100AE00080078007000000000000000000000000F8
:100AF00011241FBECFEFDAE0DEBFCDBF16E0A0E0CD
:100B0000B1E0E2E5F3E602C005900D92A03DB10729
:100B1000D9F729E0A0EDB6E001C01D92A639B207D1
:100B2000E1F70E94E42A0C94A7310C940000EF92A4
:100B3000FF920F931F93CF93DF93EC018C01060F6D
:100B4000171F86ECE82E81E0F82EC017D10751F46C
:100B50008AE090E0DF91CF911F910F91FF90EF908D
:100B60000C94682E89911F928F93FF92EF920E94AE
:100B7000542E0F900F900F900F90E7CFEF92FF92AF
:100B80000F931F93CF93DF93EC018C01060F171F78
:100B90008CECE82E81E0F82EC017D10751F48AE0E2
:100BA00090E0DF91CF911F910F91FF90EF900C9407
:100BB000682E89911F928F93FF92EF920E94542E7C
:100BC0000F900F900F900F90E7CFFB01DC01460FC5
:100BD000571FE417F50709F4089581918D93F9CF14
:100BE000AF92BF92CF92DF92EF92FF920F931F933B
:100BF000CF93DF93DC01162FEA0190E061E070E013
:100C000090130BC0DF91CF911F910F91FF90EF9048
:100C1000DF90CF90BF90AF900895892F810F382F2C
:100C20003695369536957D01E30EF11CF70130813E
:100C300087705B0101C0AA0C8A95EAF7892F820FA1
:100C4000482F4695469546954C0F5D2F511DFA014C
:100C5000408150E087706B0102C0CC0CDD1C8A958E
:100C6000E2F74C215D21832F8A29452B21F4EA2DBF
:100C7000E0958E2F8323F70180839F5FC1CFFC0116
:100C8000DB01480F591FE417F50711F481E00895BF
:100C900091918D919817B9F380E00895FB01DC01E3
:100CA000460F571FE417F50709F4089581918D93B6
:100CB000F9CFFB01DC01460F571FE417F50709F4D4
:100CC0000895819190E08D939D93F7CF70E00C94FF
:100CD000462E262F269526952695FC01E20FF11D1E
:100CE0009081677021E030E001C0220F6A95EAF739
:100CF000442319F0922B9083089520959223FBCFE3
:100D0000262F269526952695820F911DFC01208180
:100D100030E0677081E090E002C0880F991F6A950B
:100D2000E2F72823392381E0121613060CF080E045
:100D300008959B01BA01FC0190E080E082179307BF
:100D400014F080E00895419151914617570711F032
:100D50000196F4CF81E0089508959C0190E080E031
:100D60008217930709F40895EFE9FFE03197F1F74F
:100D700000C000000196F4CF9C0190E080E0821753
:100D8000930709F4089545E04A95F1F700000196AC
:100D9000F6CF78940895F89408951F921FB61F9285
:100DA00011248F939F93AF93BF938091D00690911E
:100DB000D106A091D206B091D3060196A11DB11D16
:100DC0008093D0069093D106A093D206B093D30619
:100DD000BF91AF919F918F911F901FBE1F9018954B
:100DE000CF93DF9300D000D0CDB7DEB78091D0068F
:100DF0009091D106A091D206B091D306BC01CD014D
:100E00000F900F900F900F90DF91CF910895A895BC
:100E100014BEE0E6F0E0808188618083108280E883
:100E200085BF85BF1092D8001092900089E0809312
:100E3000910082E08093710080E89EE39093990096
:100E4000809398001092950010929400089580ED80
:100E500091E09F938F930E94542E2FEF81EE94E0A8
:100E6000215080409040E1F700C00000F89481E0FC
:100E70008093E00080E28093D8001092C9008FE157
:100E80009EE40197F1F700C000001DBA10926800BF
:100E90001CBC10BE1FBA10927A0010926E00109205
:100EA0006F0010927100109272001092C90010929F
:100EB000BC0014B817B81AB81DB810BA1092BC000C
:100EC00015B818B81BB81EB811BA0C9400380F909A
:100ED0000F90FFCF80E091E0909393098093920967
:100EE0000895E82FE695E695E69593E0E99FF001F1
:100EF000112435A1282F277081E090E001C0880FD0
:100F00002A95EAF78095832385A30895E82FE6952F
:100F1000E695E69593E0E99FF001112494A187708E
:100F200021E030E001C0220F8A95EAF7892F822B59
:100F300084A30895E82FE695E695E69593E0E99F6A
:100F4000F001112434A1282F277081E090E001C026
:100F5000880F2A95EAF78095832384A30895E82FC4
:100F6000E695E695E69563E0E69FF001112444A13D
:100F7000877021E030E0B90102C0660F771F8A95C3
:100F8000E2F7CB01962F9095942394A395A1892BFA
:100F900085A30895662399F0E82FE695E695E695F2
:100FA00093E0E99FF001112495A1877021E030E0E2
:100FB00001C0220F8A95EAF7922B95A308950C940D
:100FC0007107E82FE695E695E695EF5F93E0E99FD8
:100FD000F001112490A1877021E030E002C0220FBF
:100FE000331F8A95E2F7892F90E02823392381E087
:100FF000121613060CF080E00895E82FE695E695AA
:10100000E69593E0E99FF001112495A1877021E016
:1010100030E001C0220F8A95EAF7892F822785A345
:10102000089586958695869523E0829FC0011124B8
:10103000859608958695869586958F5F23E0829F95
:10104000C0011124809608958770089561E00C9482
:10105000CA070C947107E82FE695E695E695EF5FD1
:1010600093E0E99FF001112490A1877021E030E026
:1010700001C0220F8A95EAF7892F822B80A3089559
:10108000E82FE695E695E69593E0E99FF0011124B7
:1010900034A1282F277081E090E001C0880F2A95A5
:1010A000EAF78095932F982394A395A1892385A38C
:1010B0000895E82FE695E695E69593E0E99FF0011F
:1010C0001124282F277081E090E001C0880F2A9515
:1010D000EAF794A1611103C0892B84A30895809538
:1010E0008923FBCF0C94E107FB019A019091D5066F
:1010F000911102C080E008958093E9008091E8009A
:1011000085FFF8CFF89480E0DF01A80FB11D9C9116
:101110009093F1008F5F82171306B4F38AE38093F4
:10112000E800789481E0089508951F921FB61F92F9
:1011300011248F939F938091E1001092E10083FF2F
:101140000FC01092E90091E09093EB001092EC0038
:1011500092E29093ED0098E09093F0001092D50603
:1011600082FD8091D5069F918F911F901FBE1F9089
:1011700018951F920F920FB60F921124AF92BF9243
:10118000DF92EF92FF920F931F932F933F934F9312
:101190005F936F937F938F939F93AF93BF93CF93FF
:1011A000DF93EF93FF931092E9008091E80083FFB3
:1011B00069C09091F1008091F1004091F10020917F
:1011C000F100522F2091F1003091F100A091F10037
:1011D000B091F10062EF6093E800863009F096C0AC
:1011E0008CEA90E060E071E0FC01C591D4914C176D
:1011F0005D0709F042C0FC013296C591D4912C17CD
:101200003D0709F03AC0FC01349665917491069649
:10121000FC018491AF3FB10519F010F0AFEFB0E0E1
:101220003A2F8A1708F4382F2DEFA22E26E0B22E7F
:101230004230F3E05F0721F096EDA92E96E0B92E3B
:10124000DB01425053408EEFF82E8091E800982F3A
:101250009570D9F382FD3EC0832F313208F080E2D1
:10126000FD01982F4230510548F1992349F124910D
:101270002093F10091503196F8CF079668177907BF
:1012800009F0B2CF81E28093EB0024C0392FDDCF8B
:101290008F01061B170B2491DD24D394D01650F434
:1012A0002EEF200F00FD30C026958501020F111D85
:1012B000E80128812093F100915031969111E8CFF7
:1012C000A80FB11D932F981BF092E8003813DECFC2
:1012D0003032E1F2FF91EF91DF91CF91BF91AF9169
:1012E0009F918F917F916F915F914F913F912F913E
:1012F0001F910F91FF90EF90DF90BF90AF900F90F4
:101300000FBE0F901F90189520E0D4CF853059F470
:101310008EEF8093E8008091E80080FFFCCF40686A
:101320004093E300D7CF8930C9F5911137C040937E
:10133000D5068EEF8093E80081E08093E9008093EA
:10134000EB0091EC9093EC0026E32093ED0032E06B
:101350003093E9008093EB0030EC3093EC00209365
:10136000ED0023E02093E9008093EB009093EC00E4
:1013700026E02093ED0034E03093E9008093EB0009
:101380009093EC002093ED0088EE91E00E946F2E88
:101390008EE18093EA001092EA009CCF211531057E
:1013A00039F4913209F06ECF8A3009F06BCF15C055
:1013B00021303105B1F4913209F064CF8930A1F7C1
:1013C0008091E80082FFFCCF8091F1008093D406E9
:1013D0008091D4068BEF8093E8008EEF8093E80035
:1013E00079CF22303105E9F24DCF80E8809361005A
:1013F0001092610081E08093D70080EA8093D8004A
:1014000082E189BD09B400FEFDCF80E98093D80058
:101410001092E0001092D5068CE08093E2000895CF
:10142000BC0148E050E083E00C9474088091D4063D
:101430000895BC0143E050E084E00C947408BC01C2
:1014400040E450E081E00C9474082091D50621110D
:1014500002C080E0089522E02093E9002091E80096
:1014600025FFF7CFF894FC01805C9F4F2091F1009D
:101470002193E817F907D1F78BE68093E800789479
:1014800081E008959091D50681E0911101C080E03E
:10149000089586ED96E00895BC018DEF96E00C94DA
:1014A0004D2E08951092D800089580E094E008959C
:1014B000F999FECF0C944531F999FECF0C945D312A
:1014C000F999FECF0C944D31F999FECF0C946B3104
:1014D000382F292FCB01F999FECF632F722F0C944F
:1014E0003531382F292FCB01F999FECF632F722F79
:1014F0000C945331CF93DF93D0E0C0E060E0CE0195
:101500000E945C0A2196C11584E0D807B9F7DF91E3
:10151000CF91089508950895CF93C82F80911E0705
:10152000882359F0CA3019F48DE00E948C0A80910A
:10153000C80085FFFCCFC093CE00CF910895CF9314
:10154000DF9300D000D0CDB7DEB769837A838B8379
:101550009C8360E472E48FE090E029813A814B81C2
:101560005C810E94B02B215031093093CD00209333
:10157000CC00EAECF0E08081817F8660808380810E
:101580008F7C80838081877F8083E9ECF0E080819D
:10159000886080838EE091E0909393098093920914
:1015A00081E080931E078EEF91E00F900F900F90D7
:1015B0000F90DF91CF910C946F2EE9ECF0E08081D9
:1015C000877F80838EE091E09093930980939209C6
:1015D00010921E0708959093200780931F07089587
:1015E000E0911F07F0912007309739F062E070E03A
:1015F000681B710990E080E009940895E0911F074D
:10160000F0912007309739F062E070E0681B7109B3
:1016100081E090E009940895E0911F07F091200780
:10162000309729F063E070E090E080E0099408953D
:10163000E0911F07F0912007309729F063E070E0F8
:1016400081E090E0099408959B01845E9E4FFC0127
:1016500080818F3FA1F06330710579F0909121076F
:1016600061E0911105C02130310529F060E003C02F
:1016700021303105D9F30C94CA070C94FD07089565
:101680001F93CF93DF93D82FC62F142F8F3F31F0A6
:101690000E948607612F8D2F0E94CA07CF3F39F025
:1016A0008C2F0E948607612F8C2F0E94CA07D0932F
:1016B0001C01C0931D011093210784E29BE00E944E
:1016C000EB0A82E00E94890F81E0DF91CF911F91A8
:1016D0000C94890F41E065E180E00C94400B0C9480
:1016E000C22ACF93DF93D82FC62F872F0E94C52AF7
:1016F0008D2F0E94C52A8C2FDF91CF910C94C52A83
:10170000CF92DF92EF92FF920F931F93CF93DF93CD
:1017100000D000D0CDB7DEB7E62F582F242F30E011
:10172000A72FB0E00E94F12B6B017C01CC242E2F5F
:1017300030E0A42FB0E00E94F12BBB27A92F982FF7
:10174000872FC82AD92AEA2AFB2A242F30E0A52F7E
:10175000B0E00E94F12BBB27A92F982F872FDC0127
:101760009927882797018601082B192B2A2B3B2BB9
:1017700009831A832B833C83C901B8010F900F9012
:101780000F900F90DF91CF911F910F91FF90EF90ED
:10179000DF90CF900C94710B80913307882341F038
:1017A00080936B0080916800816080936800089549
:1017B00010926B00809168008E7FF7CF1F920F927E
:1017C0000FB60F921124BF92CF92DF92EF92FF9249
:1017D0000F931F932F933F934F935F936F937F9339
:1017E0008F939F93AF93BF93CF93DF93EF93FF9329
:1017F000B3B002E217E0D0E0C0E0EE24E394F12CB5
:10180000CB2CD12CA7010C2E02C0440F551F0A94DB
:10181000E2F79601242335238091320790E0842358
:10182000952341E0181619060CF040E081E01216ED
:1018300013060CF080E0481761F062E0232B09F0FA
:1018400061E070E0D801ED91FC91309711F0CE018C
:10185000099521960E5F1F4FC830D10599F6B092B9
:101860003207FF91EF91DF91CF91BF91AF919F919F
:101870008F917F916F915F914F913F912F911F9128
:101880000F91FF90EF90DF90CF90BF900F900FBE21
:101890000F901F901895EF92FF920F931F93CF9385
:1018A000DF93EC017B018830910530F501E010E019
:1018B00001C0000F8A95EAF780913307802B80934F
:1018C00033078C2F0E94E10790913207882389F01B
:1018D000902B90933207CC0FDD1FCE5DD84FE8825E
:1018E000F982DF91CF911F910F91FF90EF900C94AF
:1018F000CC0B00959023EDCFDF91CF911F910F91ED
:10190000FF90EF9008958770992721E030E0082E2E
:1019100001C0220F0A94EAF7209530913307232360
:1019200020933307880F991FFC01EE5DF84F118259
:1019300010820C94CC0B5198599A5098589A109246
:10194000B9008CE08093B80008959A0194EA9093CE
:10195000BC009091BC0097FFFCCF880F8093BB0028
:1019600084E88093BC008091BC0087FFFCCFFB0122
:1019700090E080E044E88217930724F084E98093A4
:10198000BC00089551915093BB004093BC0050910E
:10199000BC0057FFFCCF0196EECF9A0194EA9093DA
:1019A000BC009091BC0097FFFCCF880F81608093B2
:1019B000BB0084E88093BC008091BC0087FFFCCF13
:1019C000FB0190E080E0A9014150510964E874EC0A
:1019D0008217930724F084E98093BC00089584174C
:1019E00095075CF47093BC00A091BC00A7FFFCCFEE
:1019F000A091BB00A1930196EBCF6093BC00F4CF04
:101A000094EA9093BC009091BC0097FFFCCF880FA4
:101A10008093BB0084E88093BC008091BC0087FF6A
:101A2000FCCF08958093BB0084E88093BC00809134
:101A3000BC0087FFFCCF089584E98093BC00089523
:101A40008F929F92AF92BF92CF92DF92EF92FF92CE
:101A50000F931F93CF93DF935C01EB016A01790130
:101A60004801CC15DD0510F5CE010E94600A8C01FD
:101A7000CE0102960E94600A9C010A151B05A1F482
:101A80002496F701D183C083F40131832083DF9151
:101A9000CF911F910F91FF90EF90DF90CF90BF906B
:101AA000AF909F908F900895892B29F4D0E0C0E0EB
:101AB00030E020E0E6CF2C5F3F4FC20FD31FD1CFE5
:101AC000EF92FF920F931F93CF93DF93D82FC92FDD
:101AD0007B018A010E94550AAC01970162E070E027
:101AE0008D2F9C2F0E94200DDF91CF911F910F9180
:101AF000FF90EF900895CF93DF9300D000D0CDB743
:101B0000DEB7AE014F5F5F4FBE016D5F7F4F0E943A
:101B1000600D8B819C810F900F900F900F90DF9143
:101B2000CF910895CF92DF92EF92FF920F931F9380
:101B3000CF93DF9300D000D0CDB7DEB76C017B012F
:101B40008A01AE014F5F5F4FBE016D5F7F4F80E73F
:101B50009AEA0E94600D6B817C8161157105A9F084
:101B600049815A81460F571F9701C6010E94200DD7
:101B70000F900F900F900F90DF91CF911F910F91C9
:101B8000FF90EF90DF90CF900895F70111821082BF
:101B9000F80111821082ECCFCF93DF9300D000D0F8
:101BA000CDB7DEB7AE014F5F5F4FBE016D5F7F4FB8
:101BB0000E94920D8B819C810F900F900F900F903F
:101BC000DF91CF910895AF92BF92CF92DF92EF92C3
:101BD000FF920F931F93CF93DF9300D000D0CDB728
:101BE000DEB787E092E00E946F2E90E080E00E94D6
:101BF000600A8E37934A09F044C0AE014F5F5F4FD1
:101C0000BE016D5F7F4F80E19AEA0E94600DE9801E
:101C1000FA80AE014F5F5F4FBE016D5F7F4F80E284
:101C20009AEA0E94600DA980BA80AE014F5F5F4FB3
:101C3000BE016D5F7F4F80E39AEA0E94600DC9800C
:101C4000DA80AE014F5F5F4FBE016D5F7F4F80E472
:101C50009AEA0E94600D09811A8180E79AEA0E943F
:101C60007B0D9C0182E1A816B10459F48AE0C816E4
:101C7000D10439F40E291F29012B19F4232B09F063
:101C800054C081E392E00E946F2E0E947A0A6EE7B0
:101C900073EA90E080E00E94640A60E27AEA82E0FF
:101CA00090E00E94640A62E170E084E090E00E94AB
:101CB000640A60E37AEA88E190E00E94640A6AE0DC
:101CC00070E08AE190E00E94640A60E77AEA86E2C6
:101CD00090E00E94640A70E060E088E290E00E9478
:101CE000640A80E29AEA0E947B0D8C01009709F455
:101CF00043C046E050E064E572E00E94710A48E0AB
:101D000050E06BE572E0C80108960F900F900F90BD
:101D10000F90DF91CF911F910F91FF90EF90DF9087
:101D2000CF90BF90AF900C94710A80E29AEA0E9423
:101D30007B0D46E050E064E377E00E94680A46E0ED
:101D400050E064E572E084E397E00E943F06882358
:101D500009F497CF8EE192E00F900F900F900F90C3
:101D6000DF91CF911F910F91FF90EF90DF90CF9077
:101D7000BF90AF900C946F2E0F900F900F900F901C
:101D8000DF91CF911F910F91FF90EF90DF90CF9057
:101D9000BF90AF900895CF93DF9380E79AEA0E94B7
:101DA0007B0DEC01892B31F00E94550A9C012C1B04
:101DB0003D0BE901CE01DF91CF91089580E29AEACF
:101DC0000E947B0D4096089580E39AEA0C947B0D67
:101DD0008AE090E0089580E79AEA0C947B0D81E711
:101DE0009BEB0C94CC0D82E79BEB0C94CC0D84E721
:101DF0009BEB0C94CC0D86E79BEB0C94CC0D88E709
:101E00009BEB0C94CC0DCF93DF9300D000D0CDB7DB
:101E1000DEB7AE014F5F5F4FBE016D5F7F4F88E75A
:101E20009BEB0E94920D89819A810F900F900F90E9
:101E30000F90DF91CF910895CF92DF92FF920F9391
:101E40001F93CF93DF93182F062FF42E82E4C82E12
:101E500087E0D82ED0E0C0E0809140079091410704
:101E6000C817D90744F0DF91CF911F910F91FF90D0
:101E7000DF90CF900895D601ED91FD916D014F2D2A
:101E8000602F812F09952196E7CFEF92FF920F9354
:101E90001F93CF93DF93D0E0C0E0EE24E394F12CC6
:101EA00087010C2E02C0000F111F0A94E2F78091E7
:101EB0003E0790913F0780239123892BA1F0FE01DB
:101EC000E45BF84F40816C2F82E00E941C0F00956C
:101ED000109580913E0790913F0780239123909326
:101EE0003F0780933E072196CA30D105C9F68091FD
:101EF0003D07882339F040E060E081E00E941C0F3C
:101F000010923D07DF91CF911F910F91FF90EF90BD
:101F1000089521E030E002C0220F331F8A95E2F7D6
:101F200080913A0790913B07822B932B90933B072C
:101F300080933A07089580913A0790913B0708955E
:101F4000CF93DF93D82FC92F60914007709141073D
:101F5000482F592F82E497E00E949906811110C002
:101F6000E0914007F0914107CF010196909341071E
:101F700080934007EE0FFF1FEE5BF84FD083C183C5
:101F8000DF91CF910895E82FF0E0E25EFE4F60838D
:101F90000895E82FF0E0E25EFE4F81E09081961711
:101FA00008F480E00895CF92DF92EF92FF920F93B2
:101FB0001F93CF93DF930CE417E08EE1C82E81E0EE
:101FC000D82ED0E0C0E094E6E92E92E0F92EF80198
:101FD00081918F01F60191916F01981768F0219618
:101FE000CA30D105A1F7DF91CF911F910F91FF90DA
:101FF000EF90DF90CF900895FE01E155FE4F908164
:10200000F801319790831F929F931F928F93DF93D4
:10201000CF93FF92EF920E94542EEDB7FEB7389601
:102020000FB6F894FEBF0FBEEDBFD9CF282F30E01A
:10203000F901E25EFE4F90819617D8F0245B384F8D
:10204000F901608321E030E002C0220F331F8A953E
:10205000E2F780913E0790913F07822B932B90935C
:102060003F0780933E0788EE93E090932901809389
:1020700028010895CF93C82F282F30E0F901E25EA0
:10208000FE4F9081245B384FD901EC91F0E09F0125
:10209000260F371F442389F0692F70E06F5F7F4F51
:1020A000CB01820F931F0E949C2B8E179F0789F0F4
:1020B000682F8C2FCF910C94161037FD07C0892FF5
:1020C00090E0281739078CF7C901EFCF90E080E046
:1020D000ECCFCF91089590E0FC01E25EFE4F2081AD
:1020E000261750F0845B984FFC01608388EE93E0E4
:1020F00090932901809328010895CF93DF930E9444
:10210000E40E90934B0780934A07892B51F10E946C
:10211000DE0EEC010097B1F00E94580A853091F074
:102120004AE050E06FEA71E080914A0790914B07D6
:102130000E94710A65E0CE010E945C0A80E992E08B
:102140000E946F2E4AE050E06CE477E080914A07ED
:1021500090914B070E94680A0E94D30F81E0809300
:102160003D07DF91CF910895462F50E06CE477E072
:102170000C94E505462F50E06EE171E00C94E50506
:10218000E82FF0E0E45BF84F808108950C9416107E
:10219000EF92FF920F931F93CF93DF938C01D0E0C8
:1021A000C0E0E62EF12CCE15DF0554F081E08093DF
:1021B0003D07DF91CF911F910F91FF90EF90089510
:1021C000F80161918F018C2F0E946B102196EBCF4B
:1021D0000F931F93CF930FEA11E0C0E0F8016191D4
:1021E0008F018C2F0E946B10CF5FCA30B9F781E04E
:1021F00080933D07CF911F910F910895813039F45D
:1022000060915207682786E00E9416100895823078
:1022100039F0833061F441E06FEF7FEF87E004C075
:1022200041E061E070E089E00E943A10089541E0E9
:1022300061E070E0843091F340E060EF7FEF853043
:10224000B1F040E060E170E0863089F08E3789F0CF
:10225000873099F08830A1F08930B1F060E08A30A1
:10226000C9F061E08B30B1F08C30B1F0089588E0B6
:10227000DBCF81E080933C07089560E084E0C4CF29
:1022800061E084E00C94161041E061E070E084E0CD
:102290000C943A1085E0F6CF41E061E070E085E013
:1022A000F7CF809128019091290118161906BCF4E6
:1022B00001979093290180932801892B81F48091C3
:1022C0004A0790914B07009751F04AE050E06CE4C8
:1022D00077E00E94710A8EEA92E00E946F2E0E94BF
:1022E000450F80913C07882321F010923C070C9405
:1022F000270708950C94450F8CE497E00895EF921A
:10230000FF920F931F93CF938C018CE4E82E87E00C
:10231000F82EC0E0F70141917F016C2F82E0F801B7
:102320000995CF5FCA30B1F7CF911F910F91FF9000
:10233000EF900895CF93DF930E94EF0EEC010E947F
:10234000CB0E209741F48FEB92E00E946F2E80E03D
:10235000DF91CF910895892BB1F345E050E066E518
:1023600077E0CE010E94680A309157072091580704
:102370009091590780915A0740915607413019F7BB
:10238000363009F72530F9F69F3FE9F28131D8F66A
:1023900088ED92E00E946F2E81E0DACFE091A007F5
:1023A000F091A107309709F0099408950E94420A1C
:1023B000882351F08CE597E00E941F0A811104C028
:1023C0008AEF92E00C946F2E089590915B07992309
:1023D00059F0823049F485EC80935C0760935D0787
:1023E00040935E070C94D61108959093A1078093B3
:1023F000A00785EE91E10E94A00F0E94EB0E909342
:102400009F0780939E070E94CB0E90939D07809319
:102410009C070895DF92EF92FF920F931F93CF9343
:10242000DF938CE597E00E94250A882309F45AC0BF
:1024300080915C07803F21F481E00E94CE1152C060
:10244000813F09F457C0823F09F056C083EF809363
:102450005C0784E080935D0786E080935E0785E0FB
:1024600080935F078093600743E050E06DE173E085
:1024700081E697E00E94E50546E050E064E572E001
:102480008BE697E00E94E505C1E0C09371071092CA
:10249000720788E08093730740E150E060E084E7D2
:1024A00097E00E94660643E050E061E273E084E753
:1024B00097E00E94E50544E050E069E371E084E8BC
:1024C00097E00E94E50580919C0790919D079827D1
:1024D0008927982790938D0780938C070E94D611A7
:1024E000C0935B07DF91CF911F910F91FF90EF9009
:1024F000DF90089582E0A1CF803B19F1823B39F152
:10250000833B09F44BC0813B09F497C0803C09F43C
:102510009AC0823C09F4B3C0833C09F4B9C0843C3E
:1025200009F4C3C0813D09F4C9C0823D09F4D6C095
:10253000803DC1F680915D07813009F4DAC083E205
:10254000C2C085E293E00E946F2E80E176CFC091F9
:102550005D07D0915E07DC27CD27DC2780919E07A1
:1025600090919F07C80FD91F10915F07412F50E02E
:1025700060E677E0CE010E94710ADF93CF931F924D
:102580001F9384E493E09F938F930E94542E0F90A7
:102590000F900F900F900F900F90A4CFC0915D07F8
:1025A000D0915E07DC27CD27DC2780919E07909194
:1025B0009F07C80FD91FE0905F07F0906007FE24C7
:1025C000EF24FE24FF92EF92DF93CF938CE593E00C
:1025D0009F938F930E94542E0F900F900F900F9007
:1025E0000F900F9010E000E0D12C0E151F05E1F4C4
:1025F0001F92DF9284E793E09F938F930E94542E63
:1026000084EB80935C07D0925D070E94D611809185
:102610009E0790919F07B80102970E94640A0F904D
:102620000F900F900F905ECFCE01800F911F0E94F0
:10263000580AD8260F5F1F4FD8CF8CE793E00E942F
:102640006F2E81E1FACE81EC80935C078AE0809363
:102650005D070E949B0F98278927982790935F0713
:1026600080935E076AE080E697E00E94B4106AE01B
:102670008AE697E00E94BA100E94D61133CF4091AB
:102680005D0760915E078FE597E00E94C8102ACF32
:1026900060915E0780915D07DF91CF911F910F914F
:1026A000FF90EF90DF900C94C610DF91CF911F91B7
:1026B0000F91FF90EF90DF900C94E81080915D07F0
:1026C000813051F081E2DF91CF911F910F91FF9006
:1026D000EF90DF900C94CE1180E2F5CF8DE597E07E
:1026E000DF91CF911F910F91FF90EF90DF900C94AD
:1026F000100A82E2E8CFECE5F7E090EA908381836C
:1027000062830C94D611ECE5F7E021EA2083982748
:1027100089279827928381830C94D611E0EAF2E00E
:1027200030E020E0949189130DC0611114C087E05E
:10273000829FF001839FF00D1124ED55FD4F85918F
:10274000959115C02F5F3F4F37962739310551F7C7
:1027500090E080E0089587E0829FF001839FF00D74
:102760001124EB55FD4F85919591009701F3089544
:10277000E0EAF2E030E020E0949189130BC087E0BA
:10278000829FF001839FF00D1124EF55FD4F85913D
:10279000959108952F5F3F4F37962739310561F79F
:1027A00090E080E00895CF93DF930E94FB0EEC0150
:1027B000009749F00E94580A8093A4072196D0936D
:1027C000A307C093A207DF91CF910895AF92BF9264
:1027D000CF92DF92EF92FF920F931F93CF93DF93ED
:1027E0009C01B62E8C010027107F832F8F70D82E6E
:1027F000D22FC12C85E0A82E8091A407C816D8F549
:10280000E090A207F090A307CA9CE00CF11C1124F1
:10281000C7010E94580A8B1511F08F30A9F4C70127
:1028200001960E94580AC82FC70102960E94580AB2
:10283000CC2311F0C53B51F49FEF980F9E3F20F43D
:10284000DC1739F1C53B29F1C394D6CFDC13FCCF9B
:10285000D81611F08F3FC1F7C70103960E94580A9E
:10286000C82FC70104960E94580AC63B09F0DC2F06
:102870008E3F09F0D82EC8018D2B9D29DF91CF9175
:102880001F910F91FF90EF90DF90CF90BF90AF908E
:102890000895D812D9CFE0CFFC019081907681E0E5
:1028A000903409F080E00895482FE8EAF7E030E03E
:1028B00020E05EE0529FC001539F900D1124DC0187
:1028C000A755B84F6C9160FF03C06281641749F04F
:1028D0002F5F3F4F3E962A30310561F790E080E050
:1028E00008958755984F08951F93CF93DF93EC0178
:1028F0000E94580A182FCE0101960E94580A912F63
:10290000DF91CF911F9108958F929F92AF92BF92C6
:10291000EF92FF920F931F93CF93DF939C01C62FEB
:10292000D0E08E01080F191F60E070E0CB01201786
:10293000310799F440E024E030E02C1B3D0B4217B6
:102940001306E4F0DF91CF911F910F91FF90EF906C
:10295000BF90AF909F908F9008958824962EA72EB9
:10296000B82E79014FEFE41AF40AC9010E94580AFF
:102970009401282BC501B9019701D9CF982F872F32
:10298000762F66274F5FDBCF2F923F924F925F9259
:102990006F927F928F929F92AF92BF92CF92DF926F
:1029A000EF92FF920F931F93CF93DF9300D000D04D
:1029B00000D00F92CDB7DEB7382E4B019BE4A92E85
:1029C00098E0B92E2FE0C22ED12CFC2CCA82C40173
:1029D0000C2C02C0969587950A94E2F780FD25C0DD
:1029E00021E0C21AD10832E0A31AB1084FEFC41691
:1029F000D40659F790E080E027960FB6F894DEBF32
:102A00000FBECDBFDF91CF911F910F91FF90EF903F
:102A1000DF90CF90BF90AF909F908F907F906F90FE
:102A20005F904F903F902F90089580914C08909127
:102A30004D089F838E8380914E0890914F084E8160
:102A40005F814817590748F48E819F810E94741452
:102A50009C01832F8F7737FD05C0F50184A187FF87
:102A6000BFCFC8CF321641F08E5F2E813F81280F35
:102A7000311D3F832E83DFCF8E819F81009769F3C5
:102A80000E94580AEE81FF813296FF83EE838F7792
:102A90008F01080F111D8E819F8180179107E8F625
:102AA0008E819F810E94580A982F8F708F1531F167
:102AB0002E813F812F5F3F4F9295977091509330B9
:102AC000D8F4C9010E94580A982F92959695969528
:102AD0009370282F2770920F9F5F86958695869515
:102AE0008770980F2E813F812E5F3F4FA901490FBC
:102AF000511D5F834E83CFCF90E0F8CFEE81FF81F1
:102B0000309709F4AACFCF010E94580A182F1295C6
:102B100017708CEF810F823058F51093390810929E
:102B20003A0810923B0810923C0810923D0810920F
:102B30003E0810923F0810924008109241081092EF
:102B40004208109243081092440810924508FFEF83
:102B5000F093460880913908853009F441CF8430DC
:102B600009F448CF882309F43BCF89E398E044CFA8
:102B70008E819F8101960E94580A082FE82EE294C8
:102B8000E694E69483E0E822E3942E813F812E5F71
:102B90003F4F3F832E836E2DC9010E948414262E41
:102BA0007B838C839D838EEF810F823008F03FC042
:102BB000802F86958695869587708983F12C682F5E
:102BC0008E819F818E0D9F1D0E9484142B013C01DC
:102BD000133089F5602F6770C7013981830F911D0C
:102BE0004E815F81840F951F0E94841410933908D1
:102BF00020923A085B8150933B08EC81E0933C08BB
:102C0000FD81F0933D0840923E0850923F0860924B
:102C10004008709241086093420870934308809383
:102C20004408909345082A812093460893CF412C6D
:102C3000512C612C712C60E070E080E090E0D6CFE8
:102C40000F931F93CF93DF93EC018B819C81860FB1
:102C5000911D9C838B838881982F9F79988391FD08
:102C600005C082FF03C08D7982628883888181FFDD
:102C700005C082FD03C08D798064888380914A08F5
:102C8000882369F09091A8079F3F21F081E0298176
:102C9000291301C080E0988180FB93F9988388858F
:102CA0009985892BE9F4888180768032C9F4009176
:102CB000350810913608B80189810E94C414FC01BE
:102CC000892B71F085858D831F830E83E081F0E071
:102CD000EE0FFF1FE754FE4F80819181998788870F
:102CE000E885F985309741F0CE010995882321F0D8
:102CF0001F821E8219861886DF91CF911F910F9136
:102D00000895CF92DF92EF92FF920F931F93CF938C
:102D1000DF9300D000D0CDB7DEB769837A838B8391
:102D20009C83042F6091A6078B819C810E94E613EF
:102D30009C018827907F9A838983832F8F70922F9D
:102D400049EA420F443050F42755330B41E050E03C
:102D500001C0440F2A95EAF7842B90E029813A813B
:102D6000292B382B3A8329839981A90170E060E0EF
:102D7000C52ED62EE72EFF24152F1F7020E0992395
:102D8000F1F061E08091A507813009F060E0898170
:102D90000E948E13BC0191FF0AC0809147082A81CE
:102DA00022952170813021F021E0823009F020E06D
:102DB00070FF04C06894C1F81C2D1F70962F822FDD
:102DC000880F802B1295107F812B837F0F900F909F
:102DD0000F900F90DF91CF911F910F91FF90EF9087
:102DE000DF90CF900895382F3170827F79F0832B58
:102DF00020918008E22FF0E0EE0FFF1FE059F74F1F
:102E0000808311822F5F277020938008992371F0AF
:102E100080918008E82FF0E0EE0FFF1FE059F74F98
:102E2000308391838F5F8770809380080895CF935C
:102E3000DF934091350850913608C82FD0E09A01B1
:102E4000082E02C0369527950A94E2F720FF2BC082
:102E500021E030E0082E02C0220F331F0A94E2F76F
:102E60002095309524233523309336082093350858
:102E70001F928F9384E895E09F938F930E94542E26
:102E8000CC0FDD1FC05BD74F8981982F9F700F90AB
:102E90000F900F900F9039F08295807F90E0DF9136
:102EA000CF910C94F316DF91CF910895CF92DF92DA
:102EB000EF92FF920F931F93CF93DF93F82EE09042
:102EC0004B080BE418E0D0E0C0E0C62E660FDD082A
:102ED000CE1548F0DF91CF911F910F91FF90EF90A9
:102EE000DF90CF900895CC16DD0641F0F801858182
:102EF0008770F81203C08C2F0E94171721960E5F5F
:102F00001F4FE6CF0F931F93CF93C82F082F10E0CA
:102F100080913508909136080C2E02C096958795C1
:102F20000A94E2F780FD39C0000F111FF801E55B3C
:102F3000F74F8581877019F06C2F0E94561721E09A
:102F400030E00C2E02C0220F331F0A94E2F780916A
:102F5000350890913608822B932B909336088093F6
:102F600035081F92CF9382E995E09F938F930E943B
:102F7000542EF801E05BF74F8181982F9F700F90DE
:102F80000F900F900F9049F08295807F816090E0C4
:102F9000CF911F910F910C94F316CF911F910F9128
:102FA00008950F931F93CF93DF93EC016A857B8580
:102FB0008C859D856115710581059105E9F08B0171
:102FC0009C014EE136952795179507954A95D1F7BF
:102FD0000130B9F440E00E9481160E94F3168091FE
:102FE000350890913608892B19F480E00E948217E9
:102FF0001A861B861C861D86DF91CF911F910F912B
:103000000895033061F7292F2770213041F78B0194
:103010009C0194E136952795179507959A95D1F7D8
:103020000F700130E1F68F700E941717D8CF0F9301
:103030001F938B019C01DC01CB014EE1B695A79556
:10304000979587954A95D1F7813089F441E0C90178
:103050000E9481160E94F316809137088F3FF9F085
:10306000809138088F3FD9F41092380818C0833007
:1030700099F7832F8770813009F042C0D901CB01C5
:1030800034E1B695A795979587953A95D1F78F70C6
:10309000122F1F70813071F4812F0E94821780914E
:1030A000350890913608892BF1F580E01F910F913A
:1030B0000C948217823081F3833021F4812F0E9497
:1030C0001717EDCF843069F4809135089091360858
:1030D000012E02C0969587950A94E2F780FDEECF07
:1030E000DBCF8530E1F6812F0E94821710933708DD
:1030F0008FEF8093380888EE95E00E946F2ECFCF37
:10310000823031F46FEF822F87700E945617A4CF60
:10311000833009F0A1CF9927832F722F612F822F3F
:103120000E94FE1099CF1F910F9108951F93CF9386
:10313000DF9300D000D000D0CDB7DEB78D839E8363
:10314000162FAD81BE8116966D917C9117971196C1
:103150008C910E94C414FC01892BC1F0113001F53F
:1031600081819281A381B48189839A83AB83BC835B
:10317000BC01CD010E94171889819A81AB81BC8165
:10318000ED81FE8182879387A487B58726960FB647
:10319000F894DEBF0FBECDBFDF91CF911F91089590
:1031A000123029F485819681A781B085DDCF818594
:1031B0009285A385B485D8CFCF93DF93EC018A8124
:1031C00024E0829FC0011124682B6A831C821B8229
:1031D0006B3149F461E0CE010E949618CE01DF9177
:1031E000CF910C94D117673021F0673641F461E03C
:1031F00001C062E0CE01DF91CF910C949618663643
:1032000029F0623059F3DF91CF91089563E0E3CF65
:10321000AF92BF92CF92DF92EF92FF920F931F93E4
:10322000CF93DF93EC018881182F129516951370B8
:103230000A81EB80FC8081FBAA24A0F883FBBB24DD
:10324000B0F8C0904808D0904908113059F40630C1
:1032500021F461E0EC14FD0440F11A8261E0CE013A
:103260000E94DC18013091F0093119F1063059F152
:103270001230A1F180E0DF91CF911F910F91FF906B
:10328000EF90DF90CF90BF90AF900895AA2039F0D3
:10329000EC14FD0478F163E0CE010E94DC181230DA
:1032A00049F7EC14FD04D0F462E0CE010E94DC1872
:1032B000E1CFAA20A9F0EC14FD04C8F063E0CE0130
:1032C0000E94DC18D5CFA110D3CF63E0EC14FD042D
:1032D00078F2CE010E94DC1881E0CDCF1A8205C0C1
:1032E000123041F6EC14FD04C8F762E0F2CF123060
:1032F00009F6FBCFB110CFCF1230B1F2BBCFCF93D5
:10330000DF93EC018A8124E0829FC0011124682BA5
:103310006A831C821B82663049F461E0CE010E9400
:103320009618CE01DF91CF910C94D117673021F020
:10333000693141F461E001C062E0CE01DF91CF91DB
:103340000C949618623069F3DF91CF910895AF9293
:10335000BF92CF92DF92EF92FF920F931F93CF9382
:10336000DF93EC018881182F1295169513700A814E
:10337000CB80DC8081FBEE24E0F883FBFF24F0F8B7
:10338000A0904808B0904908113059F4063021F453
:1033900061E0CA14DB0448F11A8261E0CE010E94A8
:1033A0007F19013051F0063021F5E11004C063E0CF
:1033B000CA14DB0420F580E026C0EE2081F063E033
:1033C000CA14DB0490F4FF2021F063E0CE010E94D8
:1033D0007F19123081F708C0093169F70EC0123029
:1033E00051F7CA14DB0438F762E0CE010E947F195E
:1033F000E2CF123001F7073079F71A8262E0CE018E
:103400000E947F1981E0DF91CF911F910F91FF9072
:10341000EF90DF90CF90BF90AF900895FC01908126
:10342000929596959370913039F4928361E0CF0133
:103430000E94961880E008959230E1F79283CF01C0
:103440000E94D11781E008958093A5070895809385
:10345000A6070895CF92DF92EF92FF920F931F93EA
:10346000CF93DF930E94EF0E04960E94580A182F04
:1034700080934B080E94FF0EEC010E94030F9C01F9
:10348000D0934D08C0934C08C80FD91FD0934F0854
:10349000C0934E083F938F931F921F938FE995E03F
:1034A0009F938F930E94542E0E94F70EEC0180E5AB
:1034B000E82E88E0F82E0F900F900F900F900F904D
:1034C0000F90670100E080E090E0011718F4CE0152
:1034D0000E947414D6018C9311969C93B2E0CB0E8B
:1034E000D11C0F5F2296003171F70E94F30EEC01A0
:1034F0000E94580A80934708CE0101960E947414D6
:103500009093490880934808CE0103960E94580A78
:1035100091E0811101C090E090934A080E94D3137A
:10352000E2E8F8E088E0DF011D928A95E9F7109261
:103530008A0810928B0810928C0810928D081092B5
:103540008E0810928F081092900810929108109295
:103550009208109293081092940810929508409146
:103560004B0890E080E030E020E061E070E08417FC
:1035700008F44CC030933608209335088FEF8093C1
:103580003708809338088093A807E8EAF7E090E0CE
:1035900080E04EE03FEF489FD001499FB00D1124DD
:1035A000ED01C755D84F28812E7F2883328313829F
:1035B000A855B84F11962C911197297F11962C93ED
:1035C00011971582148211962C911197277E1196CE
:1035D0002C933683108617821286118628812F79C4
:1035E0002883138614861586168601963E968A30A1
:1035F000910589F681E08093A707DF91CF911F9114
:103600000F91FF90EF90DF90CF900895D701ED914B
:10361000FD917D01F5FF09C0FB01082E02C0EE0FF0
:10362000FF1F0A94E2F72E2B3F2B0196A0CF809329
:10363000A50708958093A60708958091A70788237A
:1036400061F1EAE8F8E080E030E020E041E050E0BD
:103650009191992339F0BA01022E01C0660F0A94A4
:10366000EAF7862B2F5F3F4F2430310589F78230F0
:1036700031F481E090918E08911180E0880F809361
:10368000820886E0EFE8F8E0A4E8B8E001900D9247
:103690008A95E1F782E898E0089548E050E060E01C
:1036A00082E898E00E946606F5CF8091A7078823FC
:1036B00009F485C08091810890918008981B9770CB
:1036C00009F445C0E82FF0E0EE0FFF1FE059F74F77
:1036D0009081492F42954F7021818F5F8770809331
:1036E0008108892F827050E090FF36C0882329F02E
:1036F00080918E088F5F80938E08E2E8F8E090E07A
:1037000080E0BA01082E02C0759567950A94E2F729
:1037100060FF03C030853F5F30870196319684306B
:10372000910579F7222399F08091950896E08F5FB3
:10373000863009F480E0E82FF0E0EE57F74F35854A
:10374000332311F0915099F7809395082587809144
:103750003508909136080895882339F080918E08B5
:10376000882319F0815080938E08E2E8F8E090E019
:1037700080E0BA01082E02C0759567950A94E2F7B9
:1037800060FF05C03085332311F03150308701963A
:1037900031968430910569F72223C9F2EFE8F8E009
:1037A00090E080E03191321305C08E57974FFC01B5
:1037B0001586CDCF019686309105A1F7C8CF90E050
:1037C00080E00895CF93DF93C82FD62F8091A7076D
:1037D000882309F448C08C2F0E945414DC01DD2397
:1037E000E9F1892B29F590E080E02EE0289FF00197
:1037F000299FF00D1124DF01A755B84F3C9130FDF2
:103800001CC0DF01A755B84FE855F84FC28313829B
:10381000158214828FEF8683108617821286118696
:10382000818180788160818313861486158616864F
:10383000C093A8078C91846015C001968A309105C9
:10384000A9F61F92CF9383EC95E09F938F930E94EC
:10385000542E0F900F900F900F9005C0892B19F0E8
:103860008C918B7F8C93DF91CF910895CF92DF92D3
:10387000EF92FF920F931F93CF93DF93C82F809106
:10388000A707882309F47FC089EAE82E87E0F82E8D
:10389000670110E000E0DEE0D09FF001D19FF00D65
:1038A0001124E755F84F808180FF0AC0F60191810D
:1038B0008091A807981721F06C2FC6010E9420164E
:1038C0000F5F1F4FFEE0CF0ED11C0A30110521F70C
:1038D00010E000E0DEE0D09FF001D19FF00D112458
:1038E000E755F84F808180FF0AC0F70191818091F0
:1038F000A807981304C06C2FC7010E9420160F5F01
:103900001F4FFEE0EF0EF11C0A30110521F78FEF7B
:103910008093A807A8EAB7E030E020E08EE0829F1D
:10392000F001839FF00D1124E755F84F908190FF2F
:103930000AC091FD08C019964D915C911A97452BCC
:1039400011F49E7F90832F5F3F4F1E962A303105E2
:1039500031F7809137088F3FB1F06091380867FDEB
:1039600012C06C0F6093380863336CF081EE95E001
:103970000E946F2E809137080E9417178FEF809357
:10398000370880933808DF91CF911F910F91FF90F6
:10399000EF90DF90CF9008951092A70708950E94AE
:1039A0009A1181110C942A1A0C94CC1CCF93DF939A
:1039B000C82FD62F87FD53C0E0919608F091970845
:1039C000309709F009958091E7089091E8080097F1
:1039D00039F08C0F911DFC01C081CF3F09F43FC02D
:1039E000DD2379F11F92CF9380EF95E09F938F9322
:1039F0000E94542E0F900F900F900F908C2F809359
:103A0000630180916901882321F06D2F8C2F0E9422
:103A10007B13E091B608F091B708309741F006802B
:103A2000F781E02D309719F06D2F8C2F099580913B
:103A3000B908811114C06D2F8C2FDF91CF910C9498
:103A4000E21B1F92CF938CEF95E09F938F930E9480
:103A5000542E0F900F900F900F908FEFD0CFDF91DB
:103A6000CF910895CF93C82F8091B8088C17A1F0FB
:103A700089E096E0CC2311F086E096E09F938F9347
:103A80008DE096E09F938F930E94542EC093B808C8
:103A90000F900F900F900F90CF910895CF93C82F54
:103AA0008091B9088C17D9F089E096E0CC2311F009
:103AB00086E096E09F938F938EE196E09F938F939D
:103AC0000E94542EC093B9080F900F900F900F9042
:103AD000C11105C08EE998E0CF910C94100ACF91E6
:103AE0000895823039F480E00E944E1D80E00E94EB
:103AF000321D0895803129F0813131F40E94CF1CAC
:103B000008950E94CC1C0895803239F0813241F032
:103B1000823241F0833249F0089581E00C944E1DC9
:103B200080E0FCCF81E00C94321D80E0FCCFCF938D
:103B3000DF93D62FC42F813031F487E99DE1DF91E7
:103B4000CF910C947F11E091B608F091B7083097AF
:103B500051F00190F081E02D309729F06C2F8D2FDE
:103B6000DF91CF910994D11114C081E0C11101C03E
:103B700080E080936901E091B608F091B708309732
:103B800029F00280F381E02D309741F7DF91CF914A
:103B90000895D13039F481E0C11101C080E08093F3
:103BA0006801E9CFD23039F481E0C11101C080E071
:103BB00080936701E0CFD33039F481E0C13009F060
:103BC00080E080936501D7CFD430B1F48C2F0E9470
:103BD000171B86E396E0C13011F482E396E09F93D1
:103BE0008F9384E496E09F938F930E94542E0F90BE
:103BF0000F900F900F90BFCFD53009F0BCCF8C2F16
:103C00000E941A1B8FE396E0C13011F489E396E01D
:103C10009F938F9387E596E0E6CFCF93DF93D82FDE
:103C2000C92F6091AD0870E0482F592F8EEA98E0B7
:103C30000E94990681110DC0E091AD0881E08E0FC0
:103C40008093AD08F0E0EE0FFF1FE255F74FD083F1
:103C5000C183DF91CF910895CF93DF93D82FC92FE0
:103C60006091AA0870E0482F592F8BEA98E00E94D3
:103C7000990681110DC0E091AA0881E08E0F809312
:103C8000AA08F0E0EE0FFF1FE555F74FD083C18380
:103C9000DF91CF91089590939908809398080895A3
:103CA0009093A9088093A80808959093A7088093FB
:103CB000A60808959093E8088093E70808959093E4
:103CC000B7088093B608089581E080936401089551
:103CD00087ED98E0089587EC98E00895CF93DF93FF
:103CE00080E00E94890F84E00E94890F85E00E9495
:103CF000890F0E948A0A0E94E30D87E99DE10E94D4
:103D0000A00F0E947D100E94CF1C81E79DE10E94C0
:103D1000F5110E94490AEC0148E050E06CE676E0BB
:103D20000E944E0641E050E063E874E0CE01089640
:103D30000E944E0643E050E06DE173E0CE0109962B
:103D40000E944E0641E050E063E874E0CE010C961C
:103D50000E944E0646E050E064E572E0CE010D960A
:103D60000E944E0641E050E063E874E0CE014396C5
:103D70000E944E0646E050E06FE271E0CE014496AC
:103D80000E944E0641E050E063E874E0CE014A969E
:103D90000E944E0642E050E066E371E0CE014B9691
:103DA0000E944E0641E050E063E874E0CE014D967B
:103DB0000E944E0644E050E069E371E0CE014E9669
:103DC0000E944E0641E050E061EC71E0CE01829627
:103DD0000E944E068EE391E0DF91CF910C944C0A45
:103DE000CF93C0E08091AD08C81710F0CF9108952F
:103DF000EC2FF0E0EE0FFF1FE255F74F0190F0813E
:103E0000E02D309719F087EC98E00995CF5FEACF65
:103E1000CF93DF9300D0CDB7DEB71A821982E0913D
:103E20009808F09199083097A9F0BE016F5F7F4F15
:103E3000CE01029609959A818981292F282B51F06C
:103E40001092BA089093BB088093BC088AEB98E064
:103E50000E94190A0F900F90DF91CF9108958F92D1
:103E60009F92AF92BF92CF92DF92EF92FF920F9309
:103E70001F93CF93DF930E94F0066B017C0180912A
:103E80009A0890919B08A0919C08B0919D084601CA
:103E90005701881A990AAA0ABB0A85E6881691046E
:103EA000A104B10428F094E6892E912CA12CB12C08
:103EB000C0E06C2F87ED98E00E948006182F6C2FD1
:103EC00087EC98E00E948006D82F1111A1C061E014
:103ED0008111A1C04D2F6C2F87ED98E00E946906DB
:103EE000CF5FC03831F7882D0E94361C0E94551BC9
:103EF000EC010E941D1B8C018091C5089091C608A1
:103F0000C817D90709F46BC080916901882319F09B
:103F1000CE010E948313E091B608F091B708309764
:103F200039F00480F581E02D309711F0CE0109952C
:103F3000D093C608C093C508D0936001C0935F01B9
:103F4000C1E048E050E06DEB78E0C8010E943F0618
:103F5000811147C08091B808811103C0C8010E9437
:103F6000100A48E050E0B8018DEB98E00E94E505AA
:103F700085E796E09F938F930E94542ECDEBD8E077
:103F800085ECA82E88E0B82E0F900F9006EC11E07B
:103F900089911F928F931F930F930E94542E0F901D
:103FA0000F900F900F90AC16BD0691F782E896E047
:103FB0009F938F930E94542E8091C6088F93809177
:103FC000C5088F9386E896E09F938F930E94542EA6
:103FD0000F900F900F900F900F900F9004C0C0E0C3
:103FE000B0CFC111C5CFC0929A08D0929B08E09281
:103FF0009C08F0929D08DF91CF911F910F91FF9047
:10400000EF90DF90CF90BF90AF909F908F900895EA
:10401000811160CF60E08C2F0E94D61C5BCF809115
:104020006801882361F0E7EDF8E09191911105C0F6
:1040300098E0E73EF907C9F780E00C94FE0A08957E
:1040400080916801882361F0E7ECF8E0919191118B
:1040500005C098E0E73DF907C9F780E00C94FE0A37
:10406000089580916701882351F081E00E94F00A51
:1040700082E090E00E94AD0680E00C94F00A089582
:10408000CF93C0E08091AA08C81710F0CF9108958F
:10409000EC2FF0E0EE0FFF1FE555F74F0190F08198
:1040A000E02D0995CF5FEECFE091A808F091A90827
:1040B000309709F009940895E091A608F091A708B7
:1040C000309709F0099408950E94510A0E94160A37
:1040D000809366010E940A120E9451110C948B0A6F
:1040E00090939708809396080895CF92DF92EF926D
:1040F000FF920F931F93CF93DF93C82ED62E7A0192
:10410000122FD32FC0E08091EF08C81730F1C0E024
:104110008091EE08C81760F1C092EF08D092EE08C7
:10412000E092EC08F092ED081093EA08D093EB08C7
:104130000093E908C0E08091EF08C81720F1C0E0C3
:104140008091EE08C81770F1DF91CF911F910F9108
:10415000FF90EF90DF90CF900895E091EC08F09100
:10416000ED08EC0FF11D80810E94AF07CF5FCBCF30
:10417000E091EA08F091EB08EC0FF11D80810E94BC
:10418000AF07CF5FC5CFE091EC08F091ED08EC0FE1
:10419000F11DD0818D2F0E9486078D2F0E94260849
:1041A000CF5FC9CFE091EA08F091EB08EC0FF11D69
:1041B00080810E94AF07CF5FC3CFCF92DF92EF9293
:1041C000FF920F931F93CF93DF93082FF92ED0E028
:1041D000E12CDD24D3948091EF08D81748F0DF91CB
:1041E000CF911F910F91FF90EF90DF90CF900895A6
:1041F000E091EC08F091ED08ED0FF11DC0808C2DE1
:104200000E94290885E090E00E94BC06C0E01E2DB7
:104210001C0F8091EE08C81730F08C2D0E942608E4
:10422000DF5FE12ED8CFE091EA08F091EB08EC0FC8
:10423000F11D80810E94E107482F4D258091E908FA
:10424000612F680F802F9F2D0E946906CF5FDFCFFF
:10425000CF938093F3087093F2086093F108409332
:10426000F008C0E08091F308C81710F0CF910895CE
:10427000E091F108F091F208EC0FF11D80810E94AD
:10428000AF07CF5FEFCF0F931F93CF93DF93D82F5D
:10429000192FC0E001E08091F308C81728F0DF91E2
:1042A000CF911F910F910895E091F108F091F208DC
:1042B000EC0FF11D80810E94E107482F402760919B
:1042C000F0086C0F8D2F912F0E946906CF5FE3CF0E
:1042D0002F923F924F925F926F927F928F929F9216
:1042E000AF92BF92CF92DF92EF92FF920F931F9304
:1042F000CF93DF933C01C8EFD8E0D12CC12C10E064
:1043000000E026E0422EAA24A394B12C2224239478
:104310008091000990910109081719079CF0DF911D
:10432000CF911F910F91FF90EF90DF90CF90BF90B2
:10433000AF909F908F907F906F905F904F903F9045
:104340002F900895E090FE08F090FF08EC0CFD1C03
:10435000F70180818615170409F083C082E390E09D
:104360000E94BC06F70180810E94E107582EF82FB9
:10437000FF703F2E409EC001419E900D11249C0174
:104380002850374F4901F90180818F70831509F456
:1043900068C0F70181810E94E107F40190819F705C
:1043A00009F466C0252D222530E0811168C006C0C1
:1043B00021E030E0511004C020E030E0220F331F34
:1043C000922F409EF001419EF00D1124E850F74FCE
:1043D0008081807F8032C9F42330C1F58D81F50161
:1043E00002C0EE0FFF1F8A95E2F7CF01092E000CE5
:1043F000AA0BBB0B49815A816B817C81842B952B45
:10440000A62BB72B1CC023E0DBCF8034F9F491300E
:10441000E9F48D81A50102C0440F551F8A95E2F78A
:10442000CA0180959095092E000CAA0BBB0B4981FF
:104430005A816B817C8184239523A623B7238983AA
:104440009A83AB83BC838D818F5F8D83409EF00107
:10445000419EF00D1124E850F74F2295207F23292B
:1044600020830F5F1F4F2696F3E0CF0ED11C50CF55
:10447000882309F49DCF20E030E05110C4CF220FF3
:10448000331F220F331F9CCFCF92DF92EF92FF9208
:104490000F931F93CF93DF93C82F162FD72FD12CB5
:1044A000C12CF12CE12C8091000990910109E816B2
:1044B000F906F4F08C2F90E09093010980930009A5
:1044C0001093FE08D093FF08F12CE12C10E000E0DF
:1044D000809100099091010908171907D4F0DF9124
:1044E000CF911F910F91FF90EF90DF90CF900895A3
:1044F000E091FE08F091FF08EC0DFD1D808190E039
:104500000E94830C8FEFE81AF80A83E0C80ED11CD2
:10451000CACFC091FE08D091FF08CE0DDF1D888163
:104520000E94AF0789810E94AF07888168E671E227
:1045300090E00E944B0C0F5F1F4F83E0E80EF11CD0
:10454000C7CF9F92AF92BF92CF92DF92EF92FF922E
:104550000F931F93CF93DF93B82EA92EC8EFD8E007
:10456000D12CC12CF12CE12C8091000990910109F2
:10457000E816F90664F0DF91CF911F910F91FF903B
:10458000EF90DF90CF90BF90AF909F9008950091F3
:10459000FE081091FF080C0D1D1D4091F40850916C
:1045A000F5086091F6087091F7084F5F5F4F6F4F05
:1045B0007F4F4093F4085093F5086093F60870938A
:1045C000F7084370552766277727452B462B472B3F
:1045D00079F58D81882361F149815A816B817C81D4
:1045E000942F9170992E76956795579547954983A5
:1045F0005A836B837C8381508D8341E0911040E02E
:10460000F80162818B2D9A2D0E94690641E0941277
:1046100040E0F80162816F5F8B2D9A2D0E94690640
:10462000FFEFEF1AFF0A269683E0C80ED11C9CCF3D
:1046300082E0982EE2CFCF93DF9300D000D0CDB7A9
:10464000DEB7E0910809ED3008F0E0E084E0E89F93
:10465000F0011124E553F94F85919591A591B591FC
:10466000BC01CD010F900F900F900F90DF91CF9173
:1046700008952F923F924F925F926F927F928F9206
:104680009F92AF92BF92CF92DF92EF92FF920F93E1
:104690001F93CF93DF93CDB7DEB760970FB6F89433
:1046A000DEBF0FBECDBF8090030990900409A0909B
:1046B0000509B0900609C501B40126E930E040E0E3
:1046C00050E00E94B02B69837A838B839C830E9485
:1046D000272D20E030E046E153E469837A838B8321
:1046E0009C8369817A818B819C810E94862CF62E25
:1046F000172F8F839D830E941B234B015C012FEF9B
:1047000082169206A206B10431F438E8832E992469
:104710009A94A92CB12C34015524442444245524C2
:104720007724BB27AB2D9A2D892D482A592A6A2A2E
:104730007B2A20E030E040E450E4F9821A836F8164
:104740006B837D817C8369817A818B819C810E94CE
:10475000D92D8B0189879F8320E030E040E85FE31B
:1047600069831A838B839C8369817A818B819C8185
:104770000E94812C87FD2AC0FA2CE92CD82CCC244D
:10478000CC24FF24C501AA27BB27C82AD92AEA2A94
:10479000FB2A20E030E040E050E469817A818B819F
:1047A0009C810E94812C87FF70C020E030E040E8AF
:1047B0005FE369817A818B819C810E94142C8B013B
:1047C00089879F83530142012601370120910A09FD
:1047D00030E050E040E060E070E081E090E00E9476
:1047E000D22B3E832D830E94CB0620E030E040E8B0
:1047F00053E409831A8389858B839F819C83698114
:104800007A818B819C810E94D92D69837A838B83E5
:104810009C8369817A818B819C810E94F82CA3E022
:104820006A9F60011124EA2DF0E0F887EF83262CBF
:10483000312C292D30E03A872987E52CF12C19827B
:10484000682D70E0788B6F87042D10E080910A0945
:104850008980881690F160960FB6F894DEBF0FBE7F
:10486000CDBFDF91CF911F910F91FF90EF90DF901F
:10487000CF90BF90AF909F908F907F906F905F9000
:104880004F903F902F900C94C90620E030E040E01C
:1048900050E409831A8369856B837F817C836981F6
:1048A0007A818B819C810E94142C8B0189879F8344
:1048B000240135014601570189CFA9808D809E8052
:1048C000A89CC001A99C900D1124892F9927880FBD
:1048D000991F9601281B390B2F3F310519F014F051
:1048E0002FEF30E037FF02C020E030E04FEF50E024
:1048F000421B530B8F809884489D2001499D500C8A
:10490000589D500C1124229DC001239D900D329D75
:10491000900D1124480E591E452C5524712C612CE4
:10492000320155244424A984BA844A9DC0014B9D78
:10493000900D5A9D900D11242E9DB0012F9D700D4C
:104940003E9D700D1124860F971F892F9927B0E087
:10495000A0E0BA2FA92F982F882784299529A62966
:10496000B7298F849888849EB001859E700D949E8F
:10497000700D1124029FA001039F500D129F500D36
:104980001124640F751F672F7727AB0170E060E07B
:104990004C015D01842A952AA62AB72A8B869C861B
:1049A000AD86BE8640910709C501B4010E94800B07
:1049B00029812F5F29834ACFAF92BF92CF92DF9296
:1049C000EF92FF920F931F93CF93DF9300D000D00D
:1049D00000D0CDB7DEB70E941B23F62EE72ED82ECF
:1049E000C92E20910A09422F50E05E834D835A015F
:1049F000AA0CBB1C8091030990910409A0910509A0
:104A0000B09106099C01AD015695479537952795BC
:104A100029833A834B835C8395010B2C000C440B58
:104A2000550B69817A818B819C810E94B02B6983AF
:104A30007A838B839C8309811A814D815E81401723
:104A400051072CF4850189819A81081B190B0E945A
:104A5000CB061A82198280910A0929813A8182172C
:104A6000130609F094F426960FB6F894DEBF0FBE35
:104A7000CDBFDF91CF911F910F91FF90EF90DF900D
:104A8000CF90BF90AF900C94C9064091070929813F
:104A90003A812017310769F060E070E080E090E033
:104AA0000E94800B49815A814F5F5F4F5A8349832F
:104AB000D2CF6F2D7E2D8D2D9C2DF2CFDF92EF92D8
:104AC000FF920F931F93CF93DF930E941B23162F08
:104AD000072FF82EE92E209103093091040983E075
:104AE000220F331F8A95E1F73170213041E03407FE
:104AF00034F080E092E0AC01421B530B9A014091EC
:104B00000709429FC001439F900D1124D92E0E9496
:104B1000CB06D0E0C0E080910A098C171D0609F091
:104B20004CF4DF91CF911F910F91FF90EF90DF90A8
:104B30000C94C9064D2D612F702F8F2D9E2D0E9434
:104B4000800B2196E8CFEF92FF920F931F93CF93A4
:104B5000DF930E941B23162F072FF82EE92E0E94A9
:104B6000CB06D0E0C0E080910A098C171D0609F041
:104B700044F4DF91CF911F910F91FF90EF900C942F
:104B8000C90640910709612F702F8F2D9E2D0E941D
:104B9000800B2196E8CF813021F48BEC95E20C94C8
:104BA0007F11663039F481E0411101C080E08093CB
:104BB00009090895673019F4409308090895683089
:104BC00041F4449FA001112481E0850F80930709DF
:104BD0000895693011F44093020908950F931F93CB
:104BE000CF93DF9300D000D000D0CDB7DEB7809157
:104BF000030990910409A0910509B0910609BC012F
:104C0000CD0124E130E040E050E00E94B02B698308
:104C10007A838B839C83672B682B692B09F047C0B1
:104C20000E94CB061E821D820DEE15E180910A09BD
:104C30002D813E818217130609F064F426960FB683
:104C4000F894DEBF0FBECDBFDF91CF911F910F91C2
:104C50000C94C90620916A0130916B01209FC0011C
:104C6000219F900D309F900D1124419690936B01E0
:104C700080936A016DE00E94902BA4E09A9FF0015E
:104C80001124E553F94F85919591A591B5918983AB
:104C90009A83AB83BC8340910709BC01CD010E947C
:104CA000800BAD81BE811196BE83AD83BFCF2696AA
:104CB0000FB6F894DEBF0FBECDBFDF91CF911F912D
:104CC0000F91089586E00E94890F87E00E94890F66
:104CD00088E00E94890F89E00E94890F6CE087E0DC
:104CE0000E94C30F64E089E00C94C30FCF93C82FD8
:104CF0008BEC95E20E94A00F8C2FCF910C946F0B40
:104D000080930A090895CF93DF9300D000D0CDB7E8
:104D1000DEB70E94F00669837A838B839C83DC0173
:104D2000CB0126E0B695A795979587952A95D1F75B
:104D30008093030990930409A0930509B093060991
:104D400080910909811120C00E94CB061A82198224
:104D500080910A0929813A818217130609F044F4E7
:104D60000F900F900F900F90DF91CF910C94C90688
:104D700060E070E0CB010E94710B29813A812F5FC6
:104D80003F4F3A832983E4CFE0910209E53098F45C
:104D900080910A09882379F0F0E0EE0FFF1FEF53AE
:104DA000F94F0590F491E02D0F900F900F900F9018
:104DB000DF91CF9109940F900F900F900F90DF919A
:104DC000CF910895CF93DF93D82FC62F8CE30E9405
:104DD000000D80E00E94120D8D2F806B0E94120D3D
:104DE0008C2F8F700E94120D8C2F82958F70806196
:104DF0000E94120DDF91CF910C941C0DCF93DF9385
:104E00000E949B0C8CE30E94000DCFEFD6E0FE01C8
:104E10008591EF010E94120DF7E0C531DF07B9F768
:104E20000E941C0D10920B0980EA80930C0980EC03
:104E300080930D0943E050E06BE079E08CE3DF9173
:104E4000CF910C94A50C0F931F93CF93C0E060E01B
:104E50008C2F0E94E2268CE30E94000D80E40E94C9
:104E6000120D00E810E080E00E94120D01501109BF
:104E7000D1F70E941C0DCF5FC43049F7CF911F912D
:104E80000F910895CF92DF92EF92FF920F931F93AD
:104E9000CF93DF937C01D0E0C0E060E08C2F0E94D4
:104EA000E2268CE30E94000D80E40E94120D10E0C7
:104EB00000E06701CC0EDD1EF801EE0FFF1FEE0FC4
:104EC000FF1FEC0DFD1D84910E94120D0F5F1F4FFF
:104ED0000038110589F70E941C0D2196C430D105B8
:104EE000E1F6DF91CF911F910F91FF90EF90DF904E
:104EF000CF900895909378098093770970937609FD
:104F000060937509509374094093730908958F92C3
:104F10009F92AF92BF92CF92DF92EF92FF92CF9388
:104F2000DF93EFE0F9E02FE139E0812C912C54017F
:104F30008394D90190E080E04D914423C9F0ED01C4
:104F400021971882408151816281738175016401CA
:104F5000082E04C0CC0CDD1CEE1CFF1C0A94D2F7FA
:104F60004C295D296E297F29408351836283738395
:104F700001968531910501F734962B5E3F4F89E00C
:104F8000EF31F807B1F6DF91CF91FF90EF90DF900E
:104F9000CF90BF90AF909F908F9008958F929F92E7
:104FA000AF92BF92CF92DF92EF92FF920F931F9337
:104FB000CF93DF93942F252F641B35E1839FA001AE
:104FC0001124415E564F34E0839FF0011124E15FCC
:104FD000F64FC12CD12C7601C394762F790FA92FCF
:104FE000B22F8D9181110DC0DF91CF911F910F9143
:104FF000FF90EF90DF90CF90BF90AF909F908F90F9
:105000000895EA01C70FD11D9881282F082E000CA2
:10501000330B92171306B1F088834601570104C081
:10502000880C991CAA1CBB1C7A95D2F700811181AF
:1050300022813381082919292A293B2900831183D8
:10504000228333839A2F2B2FC8CF7F928F929F92E8
:10505000AF92BF92CF92DF92EF92FF920F931F9386
:10506000CF93DF93609175097091760980917309F0
:1050700090917409680F791F80E890E00E949C2B42
:105080005B018FE1E82E89E0F82E9FE0C92E99E0C0
:10509000D92E712CD0E0C0E048C0F601808191810A
:1050A000A281B3810C2E04C0B695A79597958795DC
:1050B0000A94D2F780FF38C0F701EC0FFD1F108172
:1050C00060917509709176098091730990917409C6
:1050D000680F791F6C9F602D1124872D0E94E22696
:1050E0008CE30E94000D80E40E94120D112309F44C
:1050F00058C0812F110F990B80972091750930911D
:105100007609829F8001839F100D929F100D1124BC
:10511000912C812C809175099091760988169906B9
:105120000CF442C00E941C0D2196CA15DB050CF43C
:10513000B4CFE5E1EE0EF11C7394F4E0CF0ED11C78
:1051400024E07212A7CF10920F091092100910924A
:105150001109109212091092130910921409109259
:105160001509109216091092170910921809109239
:10517000190910921A0910921B0910921C09109219
:105180001D0910921E09DF91CF911F910F91FF9081
:10519000EF90DF90CF90BF90AF909F908F907F90D7
:1051A000089500E010E0B4CFE0917709F09178091C
:1051B000E80DF91DE00FF11F84910E94120D8FEF91
:1051C000881A980AA7CF909371018093700108956F
:1051D00090936F0180936E0160936D0140936C0119
:1051E00008950E94FE2640916C0150E060916D018F
:1051F00070E080916E0190916F010C947A270F936B
:105200001F93CF93DF938091790981110BC0809117
:105210007001909171010097A9F00E94422780913E
:10522000790906C090916401911105C08C3340F456
:105230008F5F80937909DF91CF911F910F9108952E
:105240008C3319F40E942327EACF80916E0190914C
:105250006F01892B81F344E956E070E060E090E053
:1052600080E00E94CE27E0916101F0916201878188
:105270005DE281115BE286814DE281114BE2858125
:105280003DE281113BE284812DE281112BE2838199
:105290009DE281119BE282818111A2C08DE21F9269
:1052A0005F931F924F931F923F931F922F931F92D2
:1052B0009F931F928F938BE996E09F938F938BE739
:1052C00099E09F938F930E949B2E4BE759E06FE0EC
:1052D00070E090E080E00E94CE27809163012DB7BE
:1052E0003EB7205F3F4F0FB6F8943EBF0FBE2DBFB5
:1052F0008F3F09F477C0E0916101F0916201DF0115
:1053000012969F01285F3F4F1D91111103C02A176C
:105310003B07D1F700811F928F9388EA96E09F9315
:105320008F93CBE7D9E0DF93CF930E949B2EAE0102
:1053300070E060E083E090E00E94CE271F921F9310
:105340008EEA96E09F938F93DF93CF930E949B2EDC
:10535000AE0166E070E083E090E00E94CE271F92ED
:105360000F9384EB96E09F938F93DF93CF930E94EC
:105370009B2EAE016DE070E083E090E00E94CE27AE
:105380002DB73EB72E5E3F4F0FB6F8943EBF0FBE0F
:105390002DBF80915F019091600199279F938F931A
:1053A0008AEC96E09F938F938BE799E09F938F937E
:1053B0000E949B2E4BE759E062E170E083E090E0B1
:1053C0000E94CE270E94252880917A098F5F8093C2
:1053D0007A090F900F900F900F900F900F902BCF96
:1053E0008BE25DCF69EB76E08BE799E00E944D2E72
:1053F0004BE759E070E060E083E090E00E94CE2748
:105400006FEB76E08BE799E00E944D2E4BE759E079
:1054100066E070E083E090E00E94CE2765EC76E0E5
:105420008BE799E00E944D2E4BE759E06DE070E06C
:1054300083E090E00E94CE27ACCFCF93DF93CDB72F
:10544000DEB728970FB6F894DEBF0FBECDBF0E941F
:1054500007070E946E1E0E94F5090E94C906198264
:105460001A821B821C8288E2882E912CA12CB12CDE
:1054700090E3492E512C612C712C89819A81AB814A
:10548000BC8183709927AA27BB270097A105B10586
:1054900009F04EC00E94F01E0E942F1F0E940F2094
:1054A00069817A818B819C81A50194010E94B02B36
:1054B000623071058105910531F469817A818B81B2
:1054C0009C810E94402069817A818B819C81A3010B
:1054D00092010E94B02B633071058105910531F472
:1054E00069817A818B819C810E94542069817A81B3
:1054F0008B819C8124E630E040E050E00E94B02B9C
:10550000672B682B692B11F40E945C200E94642099
:1055100081E090E00E94AD0689819A81AB81BC81D7
:105520000196A11DB11D89839A83AB83BC83A5CF4E
:105530000197A105B10509F0B3CF0E94081F0E9491
:10554000F0066B017C018091830990918409A09100
:105550008509B09186098C159D05AE05BF0508F03B
:105560009FCF0E94312088EBC80E8BE0D81EE11C33
:10557000F11CC0928309D0928409E0928509F092CF
:1055800086098ECF539A5B98089598E0880F30F083
:105590005B9A0000000000005B98000088F45B9AB2
:1055A00000000000000000000000000000000000FB
:1055B000000000005B9800000000000000000000F8
:1055C000880F9A9521F70895809178018823F1F04A
:1055D00080917701823031F48AE69BE0892BB1F02B
:1055E0000E946A0B80917701843031F480E090E072
:1055F000892B61F00E94000080917701853031F4A1
:1056000080E090E0892B11F00E94000080917901E8
:10561000882309F476C060E076E980E090E00E949B
:105620009F0A80917D01882371F00E9462268091FB
:10563000A3010E9476268091A4010E94802683E81F
:1056400096E20E942C1E80917E01882331F00E94F8
:10565000F1288FEF98E20E94501E80917A01C0E0FD
:1056600010E000E08823D1F0C0917F01D09180014B
:10567000EC2EF12C97012D573E4F00E043E851E00E
:105680006D2F8C2F0E9475208DED90E20E940D1ED3
:1056900087010D0F111DCD9FC02D112480917B011D
:1056A000882381F0D0918101B8016D577E4F4C2F36
:1056B0008D2F0E94282183E491E20E940D1E0D0F80
:1056C000111DCD0F80917C018823B1F0D091820112
:1056D000F801EE58FE4FA7E8B9E08D2F880F8C0F28
:1056E0003296C81311C081EA92E20E940D1E67E84B
:1056F00079E08D2F0E9444220E941D2A90E080E0D4
:1057000008950E946A078DCF97859C939089119682
:105710009C9311971296CC9312971396CE5FE0CF7D
:10572000991B79E004C0991F961708F0961B881FF3
:105730007A95C9F78095089597FB072E16F4009483
:1057400007D077FD09D00E94002C07FC05D03EF45D
:10575000909581959F4F0895709561957F4F08951D
:10576000A1E21A2EAA1BBB1BFD010DC0AA1FBB1F65
:10577000EE1FFF1FA217B307E407F50720F0A21BD7
:10578000B30BE40BF50B661F771F881F991F1A9444
:1057900069F760957095809590959B01AC01BD016E
:1057A000CF010895052E97FB1EF400940E94E92B6B
:1057B00057FD07D00E94B02B07FC03D04EF40C9489
:1057C000E92B50954095309521953F4F4F4F5F4FB6
:1057D000089590958095709561957F4F8F4F9F4F5D
:1057E0000895A29FB001B39FC001A39F700D811DBA
:1057F0001124911DB29F700D811D1124911D0895DA
:10580000AA1BBB1B51E107C0AA1FBB1FA617B707E6
:1058100010F0A61BB70B881F991F5A95A9F7809502
:105820009095BC01CD0108955058BB27AA270E942E
:105830002C2C0C949F2D0E94912D38F00E94982DB5
:1058400020F039F49F3F19F426F40C948E2D0EF4B9
:10585000E095E7FB0C94882DE92F0E94B02D58F3BA
:10586000BA17620773078407950720F079F4A6F545
:105870000C94D22D0EF4E0950B2EBA2FA02D0B0117
:10588000B90190010C01CA01A0011124FF27591B85
:1058900099F0593F50F4503E68F11A16F040A22F8B
:1058A000232F342F4427585FF3CF469537952795FC
:1058B000A795F0405395C9F77EF41F16BA0B620BFB
:1058C000730B840BBAF09150A1F0FF0FBB1F661F42
:1058D000771F881FC2F70EC0BA0F621F731F841F85
:1058E00048F4879577956795B795F7959E3F08F0AB
:1058F000B0CF9395880F08F09927EE0F979587956D
:1059000008950E94642D08F481E008950E949A2C65
:105910000C949F2D0E94982D58F00E94912D40F0DC
:1059200029F45F3F29F00C94882D51110C94D32D4C
:105930000C948E2D0E94B02D68F39923B1F355235A
:1059400091F3951B550BBB27AA2762177307840792
:1059500038F09F5F5F4F220F331F441FAA1FA9F328
:1059600035D00E2E3AF0E0E832D091505040E69516
:10597000001CCAF72BD0FE2F29D0660F771F881F77
:10598000BB1F261737074807AB07B0E809F0BB0B6A
:10599000802DBF01FF2793585F4F3AF09E3F51057E
:1059A00078F00C94882D0C94D32D5F3FE4F3983E4F
:1059B000D4F3869577956795B795F7959F5FC9F767
:1059C000880F911D9695879597F90895E1E0660FE8
:1059D000771F881FBB1F621773078407BA0720F061
:1059E000621B730B840BBA0BEE1F88F7E0950895CA
:1059F0000E94B82D88F09F5798F0B92F9927B7517A
:105A0000B0F0E1F0660F771F881F991F1AF0BA9562
:105A1000C9F714C0B13091F00E94D22DB1E00895C1
:105A20000C94D22D672F782F8827B85F39F0B93FB3
:105A3000CCF3869577956795B395D9F73EF4909515
:105A40008095709561957F4F8F4F9F4F0895E89493
:105A500009C097FB3EF490958095709561957F4FB6
:105A60008F4F9F4F9923A9F0F92F96E9BB27939564
:105A7000F695879577956795B795F111F8CFFAF474
:105A8000BB0F11F460FF1BC06F5F7F4F8F4F9F4FA5
:105A900016C0882311F096E911C0772321F09EE803
:105AA000872F762F05C0662371F096E8862F70E069
:105AB00060E02AF09A95660F771F881FDAF7880F43
:105AC0009695879597F90895990F0008550FAA0B99
:105AD000E0E8FEEF16161706E807F907C0F0121601
