:100000000C94DC040C94F9040C94F9040C94F90499
:100010000C94F9040C94F9040C94F9040C94F9046C
:100020000C94F9040C94F9040C9400070C94240724
:100030000C94F9040C94F9040C94F9040C94F9044C
:100040000C94F9040C94F9040C94F9040C94F9043C
:100050000C94F9040C94F9040C94F9040C94F9042C
:100060000C94F9040C94F9040C94F9040C94F9041C
:100070000C94F9040C94F9040C94F9040C94F9040C
:100080000C94F9040C94F9040C94F9040C94F904FC
:100090000C94F9040C94F9040C94F9040C94F904EC
:1000A0000C94F9040C94F9040C94F9040001000078
:1000B000660212000200007C015B002200004A027E
:1000C0001C002100008E0109002201000A024000EC
:1000D000210100AE010900220200D70133002102F4
:1000E00000C7010900030000780104010309046648
:1000F0000110020309043401300303090400013232
:10010000320330003000300030003000300030006A
:10011000300030003000300030003000300030005F
:10012000300030003000300030003000300030004F
:100130003000000030034B00650072006D00690064
:100140007400650020004B006500790062006F00BC
:1001500061007200640020004400650076006900C0
:1001600063006500000010034B00650072006D0025
:1001700069007400650000000403090409025B00C3
:10018000030100C03209040000020300000009213D
:1001900011010001221C0007058103400002070530
:1001A00002034000080904010001030101000921C4
:1001B0001101000122400007058303080001090422
:1001C0000200010301020009211101000122330094
:1001D0000705840308000105010902A101050919A9
:1001E000012903150025019503750181029501750B
:1001F0000581030501093009311581257F750895B1
:10020000028106093895018106C005010906A10190
:1002100075019508050719E029E7150025018102F8
:1002200095017508810395057501050819012905D2
:10023000910295017503910395067508150026FF37
:10024000000507190029FF8100C006ABFF0A000264
:10025000A1017508150026FF00954009018102954E
:100260004009029102C0120100020000002055F076
:1002700077A500010102030101140304000000023C
:1002800016030500000003180306000000041A030B
:1002900007000000051C0308000000061E030900FB
:1002A00000000720030A0000000822030B000000E2
:1002B0000997030C0000000A24030D0000000B2620
:1002C000030E0000000C28030F0000000D2A03108D
:1002D0000000000E2C03110000000F2E031200007E
:1002E000001030031300000011320314000000124C
:1002F00034031500000013590316000000143603E0
:100300001700000015380318000000163A03190002
:100310000000173C031A000000183E031B000000F9
:100320001940031C0000001A42031D0000001B7846
:1003300003270200001C7C031E0200001D80031F17
:100340000200001E6203200200001F65032102005C
:100350000020680322020000216B03230200002218
:100360006E0324020000237103250200002474039D
:1003700026020000254403290000002648032C0023
:100380000000274E03280000002854032B00000023
:100390002958032A0000002A5B033A0000002B5E64
:1003A000033B0000002C61033C0000002D64033D72
:1003B0000000002E67033E0000002F6A033F00008C
:1003C00000306D0340000000317003410000003236
:1003D00073034200000033760343000000347A03C5
:1003E00044000000357E0345000000588303E1000F
:1003F0000000578A03E0000000599003E20000006B
:100400005A9503E30000009F8203E10000009E89EB
:1004100003E0000000A08F03E2000000A19403E3CA
:10042000000000A39903E5000000A2A003E400007F
:1004300000A4A603E6000000A5AB03E70000005BF4
:10044000B0034A0000005CB5034D0000005DB90335
:10045000490000005EC0034C0000005FC7034B0072
:10046000000060CE034E00000061D5035000000084
:1004700062DA034F00000063CB035200000064E027
:1004800003510000006AE503350000006BED0388AE
:100490000000006DF7038A0000006CFE038B000073
:1004A00000360404370237023706043602360238B3
:1004B00008041E011E01390A04380138013A0C04EF
:1004C000330134023B0E04330233023C10042D018D
:1004D00087013D12042E0133013E56052D022D02E7
:1004E0003F14042501340140160438023802411833
:1004F000042E022D01421A0424012301431C04315D
:10050000018901441E0423012E0245200435012ED9
:10051000014622041F012F02472404200120014824
:10052000260421012101492804310289024A2B04B1
:10053000220122014B2D04310287024C2F04340288
:1005400024014D310434011F014E330435022F01C3
:100550004F35042601250150370427012601513962
:10056000042F023002523B04300231025339042F6F
:10057000013001543B0430013101553D0436013650
:1005800001563F043701370100AEA81FD30040A138
:10059000C8DA02813FA4A6D5808D142002AF0000E6
:1005A00000000000005E00000006000600247E241B
:1005B0007E24002E7A2F3A00661668660036494976
:1005C00036000600000000003E41000000413E00F1
:1005D000082A1C2A0808083E0808004020000000DD
:1005E00008080808000020000000300C0300007F0D
:1005F00041417F0000417F40007949494F0049490E
:10060000497F000F08087F004F494979007F494919
:10061000790001710907007F49497F004F49497FEF
:100620000000240000000040240000081422000004
:100630001414141400002214080002015906007F4B
:100640005D557D007F11117F007F49497E007F410C
:100650004141007F41413E007F494949007F0909EE
:1006600009007F414979007F08087F00417F4100F0
:10067000004040413F007F083641007F4040407FBE
:10068000017F017F7F031C607F007F41417F007FEE
:1006900009090F007F41215F007F19294F004F4951
:1006A000497901017F0101007F40407F007F4020A8
:1006B0001F7F407F407F00631C1C6303047804039A
:1006C0000061514D4300007F410000030C304000A9
:1006D00000417F00000402040000202020200004CC
:1006E000020000007454547C007F44447C007C442D
:1006F0004444007C44447F007C54545C00047F05E7
:100700000000BCA4A4FC007F04047C0000007D0069
:10071000000080FD00007F10284400007F40007C26
:10072000047C047C007C04047C007C44447C00FC4D
:1007300024243C003C2424FC00007C0404005C5481
:10074000547400047F4400007C40407C007C4020C6
:100750001C7C407C407C0044383844009CA0403CD9
:10076000004464544C000402000000087F41000073
:1007700000007F000000417F080000000000000032
:1007800000000000000000000080FFFF0780FFFF66
:100790000780FFFF0780FFFF070000070000800FB2
:1007A0000000C01F0000F03F0000F87F0000FCFCCC
:1007B00000007EF801803FE003800FC007800780C3
:1007C000078003000780010006000000040000000D
:1007D000000000000080FFFF0780FFFF0780FFFF91
:1007E0000780FFFF078087870780878707808787C5
:1007F00007808787078087870780878707808787A5
:10080000078087870780878707808787078007801B
:1008100007000000000000000000000000000000D1
:100820000080FFFF0780FFFF0780FFFF0780FFFFBB
:100830000780071E0080071E0080071E0080071E1D
:100840000080077E008007FE00800FFF01809FFF71
:100850000700FFEF0700FF8F0700FE070700F80102
:100860000600000000000000000000000080FFFF04
:100870000700FFFF0700FEFF0700F8FF0700F00377
:100880000000E0070000C00F0000801F0000007F94
:10089000000000FC000000FC0000007F0000801F42
:1008A0000000C00F0000E0070000F0030000F8FFA8
:1008B0000700FEFF0700FFFF0780FFFF07000000A3
:1008C0000000000000000000000000000000000028
:1008D0000080FFFF0780FFFF0780FFFF0780FFFF0B
:1008E000070000000000000000000000008007007A
:1008F00000800700008007000080070000800700DC
:10090000008007000080FFFF0780FFFF0780FFFFD8
:100910000780FFFF078007000080070000800700B6
:100920000080070000800700008007000000000032
:100930000080FFFF0780FFFF0780FFFF0780FFFFAA
:100940000780878707808787078087870780878753
:100950000780878707808787078087870780878743
:100960000780878707808787078007800700000048
:10097000000000000000000000E723A1231E232D3B
:100980002472210000FF000044FF0000FFFF000070
:10099000FF660000FF000044FF0000FFFF0000FFB3
:1009A000440000FF000000FF004400FF00FF00447F
:1009B00000FF00FFFFFF000011241FBECFEFDAE0B1
:1009C000DEBFCDBF15E0A0E0B1E0ECEDF7E502C081
:1009D00005900D92A439B107D9F727E0A4E9B5E055
:1009E00001C01D92A33CB207E1F70E9497250C9429
:1009F000E52B0C940000EF92FF920F931F93CF937F
:100A0000DF93EC018C01060F171F80E6E82E81E0D2
:100A1000F82EC017D10751F48AE090E0DF91CF9112
:100A20001F910F91FF90EF900C94A62889911F922F
:100A30008F93FF92EF920E9492280F900F900F9049
:100A40000F90E7CFEF92FF920F931F93CF93DF9317
:100A5000EC018C01060F171F86E6E82E81E0F82EC8
:100A6000C017D10751F48AE090E0DF91CF911F9138
:100A70000F91FF90EF900C94A62889911F928F936D
:100A8000FF92EF920E9492280F900F900F900F907C
:100A9000E7CFFB01DC01460F571FE417F50709F408
:100AA000089581918D93F9CFAF92BF92CF92DF924B
:100AB000EF92FF920F931F93CF93DF93DC01162FDA
:100AC000EA0190E061E070E090130BC0DF91CF91FC
:100AD0001F910F91FF90EF90DF90CF90BF90AF905C
:100AE0000895892F810F382F3695369536957D01DB
:100AF000E30EF11CF701308187705B0101C0AA0C85
:100B00008A95EAF7892F820F482F46954695469594
:100B10004C0F5D2F511DFA01408150E087706B0131
:100B200002C0CC0CDD1C8A95E2F74C215D21832F9D
:100B30008A29452B21F4EA2DE0958E2F8323F70196
:100B400080839F5FC1CFFC01DB01480F591FE41771
:100B5000F50711F481E0089591918D919817B9F3FB
:100B600080E00895FB01DC01460F571FE417F507ED
:100B700009F40895819190E08D939D93F7CF70E0F3
:100B80000C948428262F269526952695FC01E20FA5
:100B9000F11D9081677021E030E001C0220F6A955D
:100BA000EAF7442319F0922B90830895209592231D
:100BB000FBCF262F269526952695820F911DFC01A9
:100BC000208130E0677081E090E002C0880F991FBB
:100BD0006A95E2F72823392381E0121613060CF0F8
:100BE00080E008959B01BA01FC0190E080E082174B
:100BF000930714F080E008954191519146175707EB
:100C000011F00196F4CF81E008959C0190E080E01E
:100C10008217930709F40895EFE9FFE03197F1F7A0
:100C200000C000000196F4CF9C0190E080E08217A4
:100C3000930709F4089545E04A95F1F700000196FD
:100C4000F6CF78940895F89408951092D800A89556
:100C500014BEE0E6F0E08081886180831082089510
:100C6000E82FE695E695E69593E0E99FF0011124DB
:100C700035A1282F277081E090E001C0880F2A95C8
:100C8000EAF78095832385A30895E82FE695E695F6
:100C9000E69593E0E99FF001112494A1877021E08B
:100CA00030E001C0220F8A95EAF7892F822B84A3B6
:100CB0000895E82FE695E695E69593E0E99FF00123
:100CC000112434A1282F277081E090E001C0880F03
:100CD0002A95EAF78095832384A30895E82FE69563
:100CE000E695E69563E0E69FF001112444A1877044
:100CF00021E030E0B90102C0660F771F8A95E2F764
:100D0000CB01962F9095942394A395A1892B85A32D
:100D10000895662399F0E82FE695E695E69593E029
:100D2000E99FF001112495A1877021E030E001C016
:100D3000220F8A95EAF7922B95A308950C9430061A
:100D4000E82FE695E695E695EF5F93E0E99FF001E1
:100D5000112490A1877021E030E002C0220F331FE0
:100D60008A95E2F7892F90E02823392381E0121633
:100D700013060CF080E00895E82FE695E695E695D9
:100D800093E0E99FF001112495A1877021E030E004
:100D900001C0220F8A95EAF7892F822785A308953B
:100DA00086958695869523E0829FC00111248596BD
:100DB00008958695869586958F5F23E0829FC00172
:100DC0001124809608958770089561E00C94890637
:100DD0000C943006E82FE695E695E695EF5F93E0F4
:100DE000E99FF001112490A1877021E030E001C05B
:100DF000220F8A95EAF7892F822B80A30895089500
:100E00001F921FB61F9211248F939F938091E10030
:100E10001092E10083FF0FC01092E90091E09093DF
:100E2000EB001092EC0092E29093ED0098E090932A
:100E3000F0001092950582FD809195059F918F910C
:100E40001F901FBE1F9018951F920F920FB60F9202
:100E50001124EF92FF920F931F932F933F934F9381
:100E60005F936F937F938F939F93AF93BF93CF9332
:100E7000DF93EF93FF931092E9008091E80083FFE6
:100E80005AC09091F1008091F1002091F1003091D1
:100E9000F1004091F1005091F1006091F1007091EA
:100EA000F100E2EFE093E800863009F087C08CEAB9
:100EB00090E0A0E0B1E0FC01C591D4912C173D0772
:100EC00009F034C0FC013296C591D4914C175D07EE
:100ED00069F5FC013496459154910696FC01849184
:100EE0006F3F710519F010F06FEF70E0F62E861766
:100EF00008F4F82EBA018EEFE82E8091E800982FC2
:100F00009570D9F382FD2CC08F2DF0E2FF1508F407
:100F100080E223303207A9F0FB01982F9923A9F032
:100F2000A491A093F10091503196F8CF0796A8179D
:100F3000B90709F0C0CF81E28093EB0011C0F92E10
:100F4000DCCF8B01982F911122C0680F711D9F2D4E
:100F5000981BE092E800F812F2CF80E2F81679F3DD
:100F6000FF91EF91DF91CF91BF91AF919F918F91C1
:100F70007F916F915F914F913F912F911F910F91B1
:100F8000FF90EF900F900FBE0F901F901895E80103
:100F9000C41BD50BAC2FF801B491C23048F0A2505D
:100FA000B0E0C0FD05C0A695B0E0AA56BA4FBC910E
:100FB000B093F10091500F5F1F4FC5CF853059F4AA
:100FC0008EEF8093E8008091E80080FFFCCF2068DE
:100FD0002093E300C5CF8930C9F5911137C0209324
:100FE00095058EEF8093E80081E08093E90080937F
:100FF000EB0091EC9093EC0026E32093ED0032E0BF
:101000003093E9008093EB0030EC3093EC002093B8
:10101000ED0023E02093E9008093EB009093EC0037
:1010200026E02093ED0034E03093E9008093EB005C
:101030009093EC002093ED008AE691E00E94AD28A9
:101040008EE18093EA001092EA008ACF41155105A3
:1010500039F4913209F06FCF8A3009F06CCF15C0A6
:1010600041305105B1F4913209F065CF8930A1F7D3
:101070008091E80082FFFCCF8091F100809394057D
:10108000809194058BEF8093E8008EEF8093E800C9
:1010900067CF42305105E9F24ECF80E8809361007E
:1010A0001092610081E08093D70080EA8093D8009D
:1010B00082E189BD09B400FEFDCF80E98093D800AC
:1010C0001092E000109295058CE08093E200089564
:1010D00090919505911102C080E0089593E090935E
:1010E000E9009091E80095FFF7CFF8948093F10024
:1010F0001092F100FB01CB01069621912093F100A3
:10110000E817F907D1F78AE38093E800789481E043
:10111000089520919505211102C080E0089523E0F3
:101120002093E9002091E80025FFF7CFF894FC0117
:10113000089621912093F100E817F907D1F78AE387
:101140008093E800789481E008952091950521111D
:1011500002C080E0089521E02093E9002091E8009A
:1011600025FFF7CFF894FC01805C9F4F21912093DD
:10117000F100E817F907D1F78AE38093E800789443
:1011800081E0089520919505211102C080E0089525
:1011900022E02093E9002091E80025FFF7CFF894A2
:1011A000FC01805C9F4F2091F1002193E817F90723
:1011B000D1F78BE68093E800789481E008959091D0
:1011C000950581E0911101C080E0089586E995E0E0
:1011D000089508951092D800089580E094E008954D
:1011E000F999FECF0C94832BF999FECF0C949B2B8D
:1011F000F999FECF0C948B2BF999FECF0C94A92B67
:10120000382F292FCB01F999FECF632F722F0C9421
:10121000732B382F292FCB01F999FECF632F722F13
:101220000C94912BCF93DF93D0E0C0E060E0CE012F
:101230000E94F4082196C11584E0D807B9F7DF9120
:10124000CF910895089508955198599A5098589AB1
:101250001092B9008CE08093B80008959A0194EA46
:101260009093BC009091BC0097FFFCCF880F8093B7
:10127000BB0084E88093BC008091BC0087FFFCCF5A
:10128000FB0190E080E044E88217930724F084E9B2
:101290008093BC00089551915093BB004093BC00D3
:1012A0005091BC0057FFFCCF0196EECF9A0194EA13
:1012B0009093BC009091BC0097FFFCCF880F816099
:1012C0008093BB0084E88093BC008091BC0087FFC2
:1012D000FCCFFB0190E080E0A9014150510964E896
:1012E00074EC8217930724F084E98093BC0008957E
:1012F000841795075CF47093BC00A091BC00A7FF15
:10130000FCCFA091BB00A1930196EBCF6093BC00F2
:10131000F4CF94EA9093BC009091BC0097FFFCCF6F
:10132000880F8093BB0084E88093BC008091BC0050
:1013300087FFFCCF08958093BB0084E88093BC00B6
:101340008091BC0087FFFCCF089584E98093BC00A6
:1013500008958F929F92AF92BF92CF92DF92EF92B9
:10136000FF920F931F93CF93DF935C01EB016A0110
:1013700079014801CC15DD0510F5CE010E94F80871
:101380008C01CE0102960E94F8089C010A151B05EB
:10139000A1F42496F701D183C083F4013183208323
:1013A000DF91CF911F910F91FF90EF90DF90CF9041
:1013B000BF90AF909F908F900895892B29F4D0E033
:1013C000C0E030E020E0E6CF2C5F3F4FC20FD31FDC
:1013D000D1CFEF92FF920F931F93CF93DF93D82F2C
:1013E000C92F7B018A010E94ED08AC01970162E0E0
:1013F00070E08D2F9C2F0E94A909DF91CF911F9142
:101400000F91FF90EF900895CF93DF9300D000D01D
:10141000CDB7DEB7AE014F5F5F4FBE016D5F7F4F4F
:101420000E94E9098B819C810F900F900F900F9083
:10143000DF91CF910895CF92DF92EF92FF920F93B9
:101440001F93CF93DF9300D000D0CDB7DEB76C01F0
:101450007B018A01AE014F5F5F4FBE016D5F7F4F21
:1014600080E79AEA0E94E9096B817C816115710528
:10147000A9F049815A81460F571F9701C6010E9462
:10148000A9090F900F900F900F90DF91CF911F91AE
:101490000F91FF90EF90DF90CF900895F7011182A8
:1014A0001082F80111821082ECCFAF92BF92CF92DE
:1014B000DF92EF92FF920F931F93CF93DF9300D0B1
:1014C00000D0CDB7DEB780E891E00E94AD2890E073
:1014D00080E00E94F8088E37934A09F044C0AE01BC
:1014E0004F5F5F4FBE016D5F7F4F80E19AEA0E94C0
:1014F000E909E980FA80AE014F5F5F4FBE016D5F81
:101500007F4F80E29AEA0E94E909A980BA80AE0181
:101510004F5F5F4FBE016D5F7F4F80E39AEA0E948D
:10152000E909C980DA80AE014F5F5F4FBE016D5F90
:101530007F4F80E49AEA0E94E90909811A8180E7D5
:101540009AEA0E94040A9C0182E1A816B10459F4A7
:101550008DE0C816D10439F40E291F29012B19F486
:10156000232B09F04AC08AEA91E00E94AD280E942C
:1015700012096EE773EA90E080E00E94FC0860E2E6
:101580007AEA82E090E00E94FC0862E170E084E088
:1015900090E00E94FC0860E37AEA88E190E00E9413
:1015A000FC086DE070E08AE190E00E94FC0860E7D2
:1015B0007AEA89E290E00E94FC0870E060E08BE249
:1015C00090E00E94FC0880E29AEA0E94040A0097D8
:1015D000D9F148E050E06DEC71E00F900F900F9062
:1015E0000F90DF91CF911F910F91FF90EF90DF90BF
:1015F000CF90BF90AF900C94090980E29AEA0E94C4
:10160000040A48E050E06EEA75E00E94000948E0F4
:1016100050E06DEC71E08EEA95E00E94A30588230E
:1016200009F4A1CF87E991E00F900F900F900F90F0
:10163000DF91CF911F910F91FF90EF90DF90CF90AE
:10164000BF90AF900C94AD280F900F900F900F901B
:10165000DF91CF911F910F91FF90EF90DF90CF908E
:10166000BF90AF900895CF93DF9380E79AEA0E94EE
:10167000040AEC01892B31F00E94ED089C012C1B1F
:101680003D0BE901CE01DF91CF91089580E29AEA06
:101690000E94040A0896089580E29AEA0E94040AC9
:1016A0004096089580E39AEA0C94040A8DE090E055
:1016B000089580E79AEA0C94040ACF93DF9300D050
:1016C00000D0CDB7DEB7AE014F5F5F4FBE016D5F9B
:1016D0007F4F81E79BEB0E941B0A8B819C810F90BF
:1016E0000F900F900F90DF91CF910895CF93DF93DC
:1016F00000D000D0CDB7DEB7AE014F5F5F4FBE0167
:101700006D5F7F4F84E79BEB0E941B0A8B819C815E
:101710000F900F900F900F90DF91CF910895CF937E
:10172000DF9300D000D0CDB7DEB7AE014F5F5F4F83
:10173000BE016D5F7F4F88E79BEB0E941B0A8B8188
:101740009C810F900F900F900F90DF91CF91089593
:10175000CF93DF9300D000D0CDB7DEB7AE014F5F9F
:101760005F4FBE016D5F7F4F88E79BEB0E941B0AB6
:1017700089819A810F900F900F900F90DF91CF91F8
:101780000895CF93DF9300D000D0CDB7DEB7AE0180
:101790004F5F5F4FBE016D5F7F4F86E79BEB0E94FF
:1017A0001B0A8B819C810F900F900F900F90DF91FF
:1017B000CF9108958F929F92AF92BF92CF92DF9276
:1017C000EF92FF920F931F93CF93DF93D0E0C0E08F
:1017D000EE24E394F12C87010C2E02C0000F111FA0
:1017E0000A94E2F78091B6059091B7058023912382
:1017F000892BF1F0FE01EC53FA4F90808C2E8AEB8E
:10180000A82E85E0B82ED12CC12C8091B8059091DE
:10181000B905C816D906ECF0009510958091B6056B
:101820009091B705802391239093B7058093B605D7
:101830002196CD30D10579F6DF91CF911F910F918F
:10184000FF90EF90DF90CF90BF90AF909F908F90E0
:101850000895D501ED91FD915D01692D882D0995C2
:10186000BFEFCB1ADB0AD1CFCF93DF93D82FC92F8D
:101870006091B8057091B905482F592F8AEB95E012
:101880000E94F205811110C0E091B805F091B905F0
:10189000CF0101969093B9058093B805EE0FFF1F15
:1018A000E654FA4FD083C183DF91CF910895E82F9A
:1018B000F0E0E050FF4F60830895853011F461300F
:1018C00040F0E82FF0E0E050FF4F81E09081961764
:1018D00008F480E081700895DF92EF92FF920F93F9
:1018E0001F93CF93DF9304EC15E0D0E0C0E086EDCA
:1018F000E82E81E0F82EF801D1908F016D2D8C2F0C
:101900000E945D0C811119C0FE01EF5BFE4F8081CA
:10191000F801319780831F928F931F92DF92DF939C
:10192000CF93FF92EF920E949228EDB7FEB73896C0
:101930000FB6F894FEBF0FBEEDBF2196CD30D10596
:10194000D1F6DF91CF911F910F91FF90EF90DF9033
:101950000895CF93DF93C82FD62F0E945D0C882364
:10196000E1F0EC2FF0E0EC53FA4FD08321E030E0CF
:1019700002C0220F331FCA95E2F78091B6059091FD
:10198000B705822B932B9093B7058093B60588EB10
:101990009BE090930E0180930D01DF91CF9108950C
:1019A000CF93C82F282F30E0F901E050FF4F9081EE
:1019B0002C533A4FD901EC91F0E09F01260F371FCD
:1019C000442389F0692F70E06F5F7F4FCB01820F56
:1019D000931F0E94D4258E179F0789F0682F8C2FA4
:1019E000CF910C94A90C37FD07C0892F90E02817E0
:1019F00039078CF7C901EFCF90E080E0ECCFCF91B1
:101A00000895CF93DF930E94520B9093C305809368
:101A1000C205892B09F440C00E944C0BEC010097D1
:101A2000B1F00E94F008811112C04DE050E061E475
:101A300071E08091C2059091C3050E94090961E09F
:101A4000CE010E94F40882E092E00E94AD284DE0B1
:101A500050E064EC75E08091C2059091C3050E944E
:101A600000090E946C0C2091B6053091B70590E0FA
:101A700080E061E070E0AB01082E02C0440F551F0A
:101A80000A94E2F7242B352B01968D30910599F7B6
:101A90003093B7052093B605DF91CF910895462F77
:101AA00050E064EC75E00C944905462F50E060E08E
:101AB00071E00C944905E82FF0E0EC53FA4F808177
:101AC00008950C94A90CEF92FF920F931F93CF935C
:101AD000DF938C01D0E0C0E0E62EF12CCE15DF05BF
:101AE0003CF0DF91CF911F910F91FF90EF900895FF
:101AF000F80161918F018C2F0E94A90C2196EECFE5
:101B00000F931F93CF9301E411E0C0E0F8016191BE
:101B10008F018C2F0E94A90CCF5FCD30B9F7CF91E8
:101B20001F910F910895813039F46091CB0568279A
:101B300087E00E94A90C0895823041F0833069F457
:101B400041E06FEF7FEF88E00C94D00C41E061E062
:101B500070E08AE00E94D00C089541E061E070E0FE
:101B6000843089F340E060EF7FEF853031F040E072
:101B700060E170E0863009F0089589E0E5CF80915A
:101B80000D0190910E0118161906BCF4019790935F
:101B90000E0180930D01892B81F48091C2059091F3
:101BA000C305009751F04DE050E064EC75E00E94F1
:101BB000090980E292E00E94AD280C94DA0B0C94A3
:101BC000DA0B84EC95E00895CF93DF930E945D0BD0
:101BD000EC010E94330B209741F481E392E00E94D4
:101BE000AD2880E0DF91CF910895892BB1F345E0D6
:101BF00050E061ED75E0CE010E9400093091D20500
:101C00002091D3059091D4058091D5054091D105BF
:101C1000413019F7363009F72330F9F69F3FE9F2E2
:101C20008131D8F68AE492E00E94AD2881E0DACFD3
:101C3000E0911E06F0911F06309709F0099408956F
:101C40000E94DF08882351F088ED95E00E94A508E6
:101C5000811104C08CE692E00C94AD280895909117
:101C6000D705992399F09091D60591110FC090EB6B
:101C70009093D80592E09093D90591EE9093DA0570
:101C80008093DB056093DC050C94200E08959093FF
:101C90001F0680931E068FE29EE00E94340C0E9475
:101CA000460B90931D0680931C060E94590B90933F
:101CB0001B0680931A060E94330B9093190680939B
:101CC00018060895CF92DF92FF920F931F93CF9340
:101CD000DF9388ED95E00E94C208882309F49DC037
:101CE0008091D805803B09F00CC19091D905809175
:101CF000DA05913009F0ABC0803171F48FE892E0E1
:101D00000E94AD2881E0DF91CF911F910F91FF904C
:101D1000DF90CF900C94180E803209F458C08132B5
:101D200009F083C0C091DB05D091DC05DC27CD270D
:101D3000DC2780911A0690911B06C80FD91F0091CD
:101D4000DD051091DE051027012710271F930F9343
:101D5000DF93CF9386EC92E09F938F930E9492281B
:101D60000F900F900F900F900F900F90D12CC12CCF
:101D7000F12CC016D10609F060C01F92FF928EEDC3
:101D800092E09F938F930E94922880EB8093D805D6
:101D900081E08093D90582E28093DA05F092DB0539
:101DA0001092DC050E94200E0F900F900F900F9064
:101DB00080911A0690911B06B6010297DF91CF9190
:101DC0001F910F91FF90DF90CF900C94FC08C09171
:101DD000DB05D091DC05DC27CD27DC2780911A06B6
:101DE00090911B06C80FD91F1091DD05412F50E0BF
:101DF0006EED75E0CE010E940909DF93CF931F922B
:101E00001F938EEA92E09F938F930E9492280F90E7
:101E10000F900F900F900F900F90DF91CF911F9127
:101E20000F91FF90DF90CF9008958131B1F786EE4A
:101E300092E00E94AD2882E066CFCE018C0D9D1D00
:101E40000E94F008F8268FEFC81AD80A92CF923075
:101E5000A9F0933011F7803901F748E050E06BEDBD
:101E600075E080911C0690911D06DF91CF911F9126
:101E70000F91FF90DF90CF900C9409098038C9F43E
:101E800081E88093DA058DE08093DB056DE08CEDD1
:101E900095E00E944F0D6DE089EE95E00E94550D92
:101EA000DF91CF911F910F91FF90DF90CF900C9415
:101EB000200E803979F0803AD9F46091DC05809168
:101EC000DB05DF91CF911F910F91FF90DF90CF90B5
:101ED0000C94610D4091DB056091DC0581E08093FD
:101EE000D6058DED95E00E94630D1092D60595CF35
:101EF000803B09F092CF81E08093D6050E94800D4F
:101F0000F4CF803F79F0803D09F087CF8091D905EB
:101F1000803109F05EC08091DA05813009F057C048
:101F20008AE0F1CE8091D905803109F076CF81E148
:101F30008093D9051092DA05D3E0D093DB0586E0D3
:101F40008093DC05C1E0C093DD0548E050E06DEC16
:101F500071E08EED95E00E944905C093E605109270
:101F6000E70548E050E068EE75E080911C0690912E
:101F70001D060E9400098091180690911906982765
:101F8000892798279093F1058093F00540E150E070
:101F900060E082EF95E00E94BF0546E050E064E01B
:101FA00073E082EF95E00E94490548E050E06BE065
:101FB00073E082E096E00E944905D0930A0682E031
:101FC00080930B060E94200EC093D70526CF8BE08E
:101FD0009ACE803209F021CF8AED95E0DF91CF9142
:101FE0001F910F91FF90DF90CF900C948908E8ED3E
:101FF000F5E090EE908390E99183828363830C9463
:10200000200EE8EDF5E020EE208321E921839827DA
:1020100089279827938382830C94200EE8EDF5E0BE
:1020200020EE208322E9218398278927982793830C
:1020300082830C94200EBC0148E050E080911C0685
:1020400090911D060C940009E8E7F2E030E020E0F2
:10205000949189130DC0611114C087E0829FF00133
:10206000839FF00D1124E558FD4F8591959115C082
:102070002F5F3F4F37962037310551F790E080E0D2
:10208000089587E0829FF001839FF00D1124E358AB
:10209000FD4F85919591009701F30895E8E7F2E0EF
:1020A00030E020E0949189130BC087E0829FF0011B
:1020B000839FF00D1124E758FD4F85919591089568
:1020C0002F5F3F4F37962037310561F790E080E072
:1020D0000895CF93DF930E94C10BEC01009749F064
:1020E0000E94F008809322062196D0932106C09387
:1020F0002006DF91CF910895AF92BF92CF92DF92E9
:10210000EF92FF920F931F93CF93DF939C01B62E14
:102110008C010027107F832F8F70D82ED22FC12CD7
:1021200085E0A82E80912206C816D8F5E0902006FA
:10213000F0902106CA9CE00CF11C1124C7010E94FA
:10214000F0088B1511F08F30A9F4C70101960E9499
:10215000F008C82FC70102960E94F008CC2311F0A6
:10216000C53B51F49FEF980F9E3F20F4DC1739F1E7
:10217000C53B29F1C394D6CFDC13FCCFD81611F0A0
:102180008F3FC1F7C70103960E94F008C82FC7010F
:1021900004960E94F008C63B09F0DC2F8E3F09F040
:1021A000D82EC8018D2B9D29DF91CF911F910F91C2
:1021B000FF90EF90DF90CF90BF90AF900895D8122E
:1021C000D9CFE0CF9C018827907F432F4F702F7786
:1021D00039EA320F343050F42755330B61E070E0A8
:1021E00001C0660F2A95EAF7462B20E0822B942B3C
:1021F0000895FC019081907681E0903409F080E0B0
:102200000895482FE6E2F6E030E020E05FE0529FDC
:10221000C001539F900D1124DC01A95DB94F6C9151
:1022200060FF03C06281641749F02F5F3F4F3F9604
:102230002A30310561F790E080E00895895D994F7B
:1022400008958F929F92AF92BF92EF92FF920F9359
:102250001F93CF93DF939C01C62FD0E08E01080F10
:10226000191F60E070E0CB012017310799F440E0BE
:1022700024E030E02C1B3D0B42171306E4F0DF9105
:10228000CF911F910F91FF90EF90BF90AF909F90D3
:102290008F9008958824962EA72EB82E79014FEF9F
:1022A000E41AF40AC9010E94F0089401282BC50120
:1022B000B9019701D9CF982F872F762F66274F5FC7
:1022C000DBCF50E0542F44275295507F482B562B9C
:1022D00050685093BE064093BD060895CF93DF9398
:1022E0004091BF065091C006C82FD0E09A01082E39
:1022F00002C0369527950A94E2F720FF29C021E015
:1023000030E0082E02C0220F331F0A94E2F7209516
:102310003095242335233093C0062093BF061F92A7
:102320008F9381E494E09F938F930E949228CC0F27
:10233000DD1FCA52D94F89818F700F900F900F9077
:102340000F9031F080959091FE0689238093FE06D0
:10235000DF91CF910895CF92DF92EF92FF920F938A
:102360001F93CF93DF93F82EE090D10601ED16E096
:10237000D0E0C0E0C62E660FDD08CE1548F0DF9134
:10238000CF911F910F91FF90EF90DF90CF90089524
:10239000CC16DD0641F0F80185818770F81203C084
:1023A0008C2F0E946E1121960E5F1F4FE6CF0F9368
:1023B0001F93CF93C82F082F10E08091BF069091F4
:1023C000C0060C2E02C0969587950A94E2F780FD10
:1023D00034C0000F111FF801EF52F94F858187704B
:1023E00019F06C2F0E94AB1121E030E00C2E02C0DE
:1023F000220F331F0A94E2F78091BF069091C00626
:10240000822B932B9093C0068093BF061F92CF938D
:102410008FE494E09F938F930E949228F801EA52F0
:10242000F94F81818F700F900F900F900F9029F0CE
:102430009091FE06892B8093FE06CF911F910F91FC
:1024400008950F931F93CF93DF93EC018A859B85AB
:10245000AC85BD850097A105B10509F45AC0AC0152
:10246000BD012EE176956795579547952A95D1F749
:10247000413009F053C060912406CD010E947C10C8
:102480000E94E2108C018F77A801952F9F7031F088
:1024900090952091FF0692239093FF06882361F187
:1024A00061E090912306923009F060E00E942410D0
:1024B0009C01982FA9014427517031FB222720F954
:1024C00014FF20E02170452B29F0809100078D7FBB
:1024D00080930007211110920107992369F0E2E02F
:1024E000F7E028E037E08191981303C0DF011197EE
:1024F0001C922E173F07B9F78091BF069091C00636
:10250000892B19F480E00E94D7111A861B861C863D
:102510001D86DF91CF911F910F910895423061F791
:10252000AC01BD0184E176956795579547958A95ED
:10253000D1F74F70413001F78B2F8F700E946E11D1
:10254000DBCF0F931F93CF938B019C01DC01CB0159
:102550004EE1B695A795979587954A95D1F7813025
:1025600009F057C060912406C9010E947C100E94A6
:10257000E2108C018F77A801252F2F7029F0909100
:10258000FF06922B9093FF068823C1F161E09091A2
:102590002306923009F060E00E9424109C01582F1D
:1025A000BC016627717031FB882780F914FF80E039
:1025B00081709091F606672B29F0409100074260E8
:1025C00040930007882329F09D7019F481E08093DF
:1025D0000107552399F08091080796E08F5F8630B8
:1025E00009F480E0E82FF0E0EA50F94F44854423F5
:1025F00011F0915099F78093080724878091C106C4
:102600008F3FC9F08091C2068F3FA9F41092C20695
:1026100012C0823009F04DC0C32FCF7094E13695BF
:102620002795179507959A95D1F70F70013081F48A
:102630008C2F0E94D7118091BF069091C006892BE4
:1026400009F044C080E0CF911F910F910C94D711F5
:10265000023071F3033021F48C2F0E946E11EBCF06
:10266000043069F48091BF069091C0060C2E02C020
:10267000969587950A94E2F780FDEECFD9CF053085
:10268000D1F68C2F0E94D711C093C1068FEF809393
:10269000C20685EA94E00E94AD28CDCF823009F0D1
:1026A000ADCF9927832F722F612F822F0E94930D18
:1026B000A5CF833009F0A2CF832F8770813071F7C7
:1026C0006FEF822F87700E94AB1198CFCF911F912F
:1026D0000F9108952F923F924F925F926F927F9247
:1026E0008F929F92AF92BF92CF92DF92EF92FF9222
:1026F0000F931F93CF93DF9300D000D000D00F92A1
:10270000CDB7DEB7382E4B0191EDA92E96E0B92E4C
:102710002FE0C22ED12CFC2CCA82C4010C2C02C08A
:10272000969587950A94E2F780FD25C021E0C21AAC
:10273000D10832E0A31AB1084FEFC416D40659F7F6
:1027400090E080E027960FB6F894DEBF0FBECDBFB5
:10275000DF91CF911F910F91FF90EF90DF90CF907D
:10276000BF90AF909F908F907F906F905F904F90B1
:102770003F902F9008958091D2069091D3069F8329
:102780008E838091D4069091D5064E815F81481743
:10279000590778F48E819F810E94F008182F8E814E
:1027A0009F8101960E94F008912F212F2F7797FD8E
:1027B00005C0F50184A187FFB9CFC2CF381649F013
:1027C00082E0820F2E813F81280F311D3F832E83AF
:1027D000D8CF8E819F81009761F30E94F008EE812F
:1027E000FF813296FF83EE838F778F01080F111DD3
:1027F0008E819F8180179107E0F68E819F810E94D4
:10280000F008982F8F708F1531F12E813F812F5F47
:102810003F4F9295977091509330D8F4C9010E9420
:10282000F008982F9295969596959370282F27707B
:10283000920F9F5F8695869586958770980F2E815B
:102840003F812E5F3F4FA901490F511D5F834E838A
:10285000CFCF90E0F8CFEE81FF81309709F4A9CF78
:10286000CF010E94F008182F129517708CEF810F7E
:10287000823058F51093C3061092C4061092C50614
:102880001092C6061092C7061092C8061092C9068A
:102890001092CA061092CB061092CC061092CD066A
:1028A0001092CE061092CF06FFEFF093D0068091E3
:1028B000C306853009F43ACF843009F441CF882328
:1028C00009F434CF83EC96E03DCF8E819F81019651
:1028D0000E94F008082FE82EE294E694E69483E044
:1028E000E822E3942E813F812E5F3F4F3F832E836A
:1028F0006E2DC9010E942111262E7B838C839D831E
:102900008EEF810F823008F03FC0802F869586952C
:10291000869587708983F12C682F8E819F818E0D1B
:102920009F1D0E9421112B013C01133089F5602F5E
:102930006770C7013981830F911D4E815F81840FBC
:10294000951F0E9421111093C3062092C4065B813B
:102950005093C506EC81E093C606FD81F093C7064F
:102960004092C8065092C9066092CA067092CB0681
:102970006093CC067093CD068093CE069093CF06DD
:102980002A812093D00693CF412C512C612C712C9D
:1029900060E070E080E090E0D6CF0F931F93CF937C
:1029A000DF93EC018B819C81860F911D9C838B832F
:1029B0008881982F9F79988391FD05C082FF03C07D
:1029C0008D7982628883888181FF05C082FD03C082
:1029D0008D7980648883809126068F3F21F091E075
:1029E0002981281301C090E0888190FB83F98883B6
:1029F00028853985232BE1F480768032C9F4009153
:102A0000BF061091C006B80189810E946A13FC01BB
:102A1000892B71F085858D831F830E83E081F0E023
:102A2000EE0FFF1FE25BFE4F8081918199878887BF
:102A3000E885F985309741F0CE010995882321F08A
:102A40001F821E8219861886DF91CF911F910F91E8
:102A500008951F93CF93DF9300D000D000D0CDB75F
:102A6000DEB78D839E83162FAD81BE8116966D9144
:102A70007C91179711968C910E946A13FC01892B07
:102A8000C1F0113001F581819281A381B4818983E4
:102A90009A83AB83BC83BC01CD010E94A1128981C2
:102AA0009A81AB81BC81ED81FE8182879387A48767
:102AB000B58726960FB6F894DEBF0FBECDBFDF9167
:102AC000CF911F910895123029F485819681A781B5
:102AD000B085DDCF81859285A385B485D8CFCF938E
:102AE000DF93EC018A8124E0829FC0011124682BCE
:102AF0006A831C821B826B3169F461E0CE010E9403
:102B0000291581E08E8741E06D818981DF91CF9128
:102B10000C946111673041F0673661F461E0CE01D9
:102B2000DF91CF910C94291562E0CE010E94291506
:102B300042E0EACF663629F0623059F0DF91CF915A
:102B4000089563E0CE010E94291581E08E8743E05D
:102B5000DBCFCE01DF91CF910C942112CF92DF9287
:102B6000EF92FF920F931F93CF93DF93EC01888135
:102B7000182F1295169513700A81EB80FC8081FB4B
:102B8000CC24C0F883FBDD24D0F8113061F406308A
:102B900029F461E088ECE816F10440F11A8261E062
:102BA000CE010E946F15013081F0093119F1063014
:102BB00061F11230B1F180E0DF91CF911F910F915F
:102BC000FF90EF90DF90CF900895CC2041F088ECFB
:102BD000E816F104A0F163E0CE010E946F151230F7
:102BE00051F788ECE816F104E0F462E0CE010E94AF
:102BF0006F15E1CFCC20B9F088ECE816F104D8F0DD
:102C000063E0CE010E946F15D4CFC110D2CF63E034
:102C100088ECE816F10468F2CE010E946F1581E09D
:102C2000CBCF1A8206C0123031F688ECE816F104D8
:102C3000C0F762E0F1CF123009F0BDCFFACFD1106A
:102C4000CACF123091F2B7CFCF93DF93EC018A81D4
:102C500024E0829FC0011124682B6A831C821B829E
:102C6000663069F461E0CE010E94291581E08E870B
:102C700041E06D818981DF91CF910C9461116730C2
:102C800041F0693161F461E0CE01DF91CF910C94A4
:102C9000291562E0CE010E94291542E0EACF623098
:102CA00019F0DF91CF910895CE01DF91CF910C946F
:102CB0002112CF92DF92EF92FF920F931F93CF9347
:102CC000DF93EC018881182F1295169513700A81F5
:102CD000CB80DC8081FBEE24E0F883FBFF24F0F85E
:102CE000113061F4063029F461E088ECC816D10493
:102CF00060F11A8261E0CE010E942416013059F081
:102D0000063039F5E11005C063E088ECC816D1043F
:102D100030F580E028C0EE2089F063E088ECC8162A
:102D2000D10498F4FF2021F063E0CE010E94241624
:102D3000123079F709C0093161F70FC0123049F735
:102D400088ECC816D10428F762E0CE010E94241650
:102D5000E0CF1230F1F6073071F71A8262E0CE014F
:102D60000E94241681E0DF91CF911F910F91FF9077
:102D7000EF90DF90CF900895CF93DF93EC0188819F
:102D8000829586958370813061F48A8361E0CE01FB
:102D90000E94291541E06D8189810E94611180E0C6
:102DA00007C08230E1F78A83CE010E94211281E0C0
:102DB000DF91CF9108958093230608958093240690
:102DC0000895AF92BF92CF92DF92FF920F931F931D
:102DD000CF93DF930E945D0B5C010E94760BEC01A8
:102DE0000E948F0B8C010E94A80B6C01C5010496F8
:102DF0000E94F008F82E8093D1061093D30600931A
:102E0000D2060C0D1D1D1093D5060093D406DF923B
:102E1000CF921F928F938CE594E09F938F930E94A3
:102E2000922806ED16E00F900F900F900F900F90E4
:102E30000F905801D12C80E090E0DF1448F4CE01CF
:102E40000E94F008C82ECE0101960E94F0089C2D29
:102E5000D5018D939D935D01D3942296B0E1DB1251
:102E6000EACF0E946910E6EFF6E088E0DF011D92EC
:102E70008A95E9F71092FE061092FF06109200075D
:102E80001092010710920207109203071092040794
:102E90001092050710920607109207071092080774
:102EA0004091D10690E080E030E020E061E070E009
:102EB000841708F452C03093C0062093BF068FEFEA
:102EC0008093C1068093C206809326061092BE06A8
:102ED0001092BD06E6E2F6E090E080E04FE03FEFC2
:102EE000489FD001499FB00D1124ED01C95DD94F14
:102EF00028812E7F288332831382AA5DB94F1196D1
:102F00002C911197297F11962C9311971582148279
:102F100011962C911197277E11962C93368310864B
:102F200017821286118628812F79288313861486AA
:102F300015861686178601963F968A30910581F68A
:102F400081E080932506DF91CF911F910F91FF9033
:102F5000DF90CF90BF90AF900895D801ED91FD9193
:102F60008D01F5FF09C0FB01082E02C0EE0FFF1F07
:102F70000A94E2F72E2B3F2B01969ACF80932306DB
:102F80000895809324060895809125068823D1F022
:102F90008091FE069091FF06892B90910007892B66
:102FA0009091010791118D7F8093F60686E0E2E013
:102FB000F7E0A8EFB6E001900D928A95E1F786EF71
:102FC00096E0089548E050E060E086EF96E00E94C9
:102FD000BF05F5CF80912506882329F08091BF0693
:102FE0009091C006089590E080E0089580912506B4
:102FF000882359F08091BD069091BE06009739F064
:103000001092BE061092BD06089590E080E00895EB
:10301000CF93DF93C82FD62F80912506882309F4FC
:1030200052C08C2F0E940111DC01DD2309F446C03F
:10303000892B79F530E020E09FE0929FF001939F8B
:10304000F00D1124DF01A95DB94F8C912F5F3F4F27
:1030500080FD24C0DF01A95DB94FEA5DF94FC2834D
:103060001382158214828FEF868310861782128650
:10307000118681818078816081831386148615860C
:103080001686929FF001939FF00D1124EA5DF94F8F
:103090001082C09326068C91846014C02A303105BA
:1030A00061F61F92CF9380E894E09F938F930E94E4
:1030B00092280F900F900F900F9005C0892B19F058
:1030C0008C918B7F8C93DF91CF910895CF92DF927B
:1030D000EF92FF920F931F93CF93DF93182F80915E
:1030E0002506882309F49CC0C7E2D6E06E01F12CC6
:1030F000E12C0FE00E9DF0010F9DF00D1124E95D14
:10310000F94F808180FF0AC0F601918180912606E7
:10311000981721F0612FC6010E94CD14FFEFEF1A1E
:10312000FF0A8FE0C80ED11CEAE0EE16F10411F799
:1031300097E2C92E96E0D92EF12CE12C0FE00E9DDE
:10314000F0010F9DF00D1124E95DF94F808180FFA2
:103150000AC0F601918180912606981304C0612F60
:10316000C6010E94CD14FFEFEF1AFF0A8FE0C80ED0
:10317000D11CEAE0EE16F10411F78FEF80932606DA
:10318000E6E2F6E030E020E09FE0929FD001939FDE
:10319000B00D1124A95DB94F8C9180FF0BC081FD4A
:1031A00009C041855285452B29F44785411102C04C
:1031B0008E7F8C932F5F3F4F3F962A30310529F742
:1031C0008DEBE82E86E0F82E888180FF0BC08E857F
:1031D000882341F0810F8E87833320F0CE010E9437
:1031E00021121E862F96EC16FD0671F78091C106FE
:1031F0008F3FB1F08091C20687FD12C0810F80938E
:10320000C20683336CF08EE994E00E94AD28809171
:10321000C1060E946E118FEF8093C1068093C20693
:10322000DF91CF911F910F91FF90EF90DF90CF90A2
:1032300008951092250608950E94E40D81110C94C2
:10324000E1160C941919CF93DF93D82FC62FE09174
:103250001907F0911A07309751F00190F081E02D95
:10326000309729F06C2F8D2FDF91CF910994D730B3
:1032700060F4ED2FF0E0E951F44D0C94292681E043
:10328000C11101C080E080931901E0911907F0910C
:103290001A07309729F00280F381E02D309711F75B
:1032A000DF91CF91089581E0C11101C080E080934A
:1032B0001801EBCF81E0C11101C080E080931701BC
:1032C000E4CF81E0C11101C080E080931601DDCF21
:1032D00081E0C13009F080E080931501D6CF8C2FBA
:1032E0000E94BE1781EB94E0C23011F48DEA94E0A5
:1032F0009F938F938FEB94E09F938F930E949228DC
:103300000F900F900F900F90C0CF8C2F0E94C1177D
:103310008AEB94E0C13011F484EB94E09F938F9397
:1033200082ED94E0E9CF813011F40C9419198230C8
:1033300049F08A3049F481E080931B0787EE94E0DE
:103340000C94AD280C941C198B3009F00895109240
:103350001B0780E095E0F4CFCF93DF93C82FD62FE3
:10336000E0910907F0910A07309709F009958091DB
:103370002A0790912B07009739F08C0F911DFC01C3
:10338000C081CF3F09F43FC0DD2379F11F92CF9375
:103390008AE195E09F938F930E9492280F900F905F
:1033A0000F900F908C2F8093130180911801882328
:1033B00021F06D2F8C2F0E94F70FE0911907F091EB
:1033C0001A07309741F00680F781E02D309719F009
:1033D0006D2F8C2F099580911B07811114C06D2FC3
:1033E0008C2FDF91CF910C9408181F92CF9386E217
:1033F00095E09F938F930E9492280F900F900F90CB
:103400000F908FEFD0CFDF91CF910895CF93DF93BF
:10341000D82FC92F6091100770E0482F592F81E1F4
:1034200097E00E94F20581110DC0E091100781E044
:103430008E0F80931007F0E0EE0FFF1FEF5EF84F46
:10344000D083C183DF91CF910895CF93DF93D82F9D
:10345000C92F60910D0770E0482F592F8EE097E03B
:103460000E94F20581110DC0E0910D0781E08E0FE1
:1034700080930D07F0E0EE0FFF1FE25FF84FD0835F
:10348000C183DF91CF91089590930C0780930B0730
:10349000089590932B0780932A07089590931A0715
:1034A00080931907089581E080931401089588E2BC
:1034B00097E0089586E297E00895CF93DF930E9406
:1034C00022090E94550A83E299E10E94340C0E946D
:1034D000010D0E94E608EC0148E050E06BE073E06B
:1034E0000E94490548E050E06DEC71E0CE0108967D
:1034F0000E944905CE0140960E941B100E941C1993
:1035000083E999E1DF91CF910C94470ECF93C0E00E
:1035100080911007C81710F0CF910895EC2FF0E0BC
:10352000EE0FFF1FEF5EF84F0190F081E02D309716
:1035300019F086E297E00995CF5FEACF0F931F93CA
:10354000CF93DF93182FC0E06C2F88E297E00E94A2
:10355000D905082F6C2F86E297E00E94D905D82F55
:10356000011197C061E0811197C04D2F6C2F88E247
:1035700097E00E94C205CF5FCE3031F7812F0E94C5
:1035800066180E94EA17EC010E94C4178C01809112
:10359000240790912507C817D90709F468C08091BE
:1035A0001801882319F0CE010E940110E09119073B
:1035B000F0911A07309739F00480F581E02D3097AB
:1035C00011F0CE010995D0932507C0932407D0931D
:1035D0001001C0930F01C1E048E050E06CE177E0DA
:1035E000C8010E94A305811144C08091190188235C
:1035F00019F0C8010E94890848E050E0B8018CE148
:1036000097E00E94490580E395E09F938F930E9485
:103610009228CCE1D7E00F900F9000E611E089915D
:103620001F928F931F930F930E9492280F900F90D9
:103630000F900F9087E0C432D80789F78DE395E0AB
:103640009F938F930E949228809125078F9380915A
:1036500024078F9381E495E09F938F930E94922893
:103660000F900F900F900F900F900F9004C0C0E03C
:10367000B3CFC111C8CF0E94F617009789F02091EF
:103680001801222369F0DF91CF911F910F910C94C3
:103690000E1081116ACF60E08C2F0E94AC1965CFAB
:1036A000DF91CF911F910F91089580911701882389
:1036B00051F09091280780912907982B81E009F417
:1036C00080E00C943C1D089580911701882351F0EF
:1036D0009091260780912707982B81E009F480E0DC
:1036E0000C943C1D089580911601882351F081E0CF
:1036F0000E942E1D82E090E00E94050680E00C945E
:103700002E1D0895CF93C0E080910D07C81710F0CB
:10371000CF910895EC2FF0E0EE0FFF1FE25FF84F1E
:103720000190F081E02D0995CF5FEECFE0910B077E
:10373000F0910C07309709F0099408950E94E90868
:103740000E94620E0E94BF0D0C94230990930A07F9
:10375000809309070895CF92DF92EF92FF920F9323
:103760001F93CF93DF93C82ED62E7A01122FD32F1B
:10377000C0E080913207C81730F1C0E08091310776
:10378000C81760F1C0923207D0923107E0922F073C
:10379000F092300710932D07D0932E0700932C073B
:1037A000C0E080913207C81720F1C0E08091310756
:1037B000C81770F1DF91CF911F910F91FF90EF909B
:1037C000DF90CF900895E0912F07F0913007EC0F34
:1037D000F11D80810E946E06CF5FCBCFE0912D0757
:1037E000F0912E07EC0FF11D80810E946E06CF5FD5
:1037F000C5CFE0912F07F0913007EC0FF11DD0817C
:103800008D2F0E9445068D2F0E94E506CF5FC9CF00
:10381000E0912D07F0912E07EC0FF11D80810E94A1
:103820006E06CF5FC3CFCF92DF92EF92FF920F93DE
:103830001F93CF93DF93082FF92ED0E0E12CDD24E6
:10384000D39480913207D81748F0DF91CF911F9120
:103850000F91FF90EF90DF90CF900895E0912F07A8
:10386000F0913007ED0FF11DC0808C2D0E94E8060D
:1038700081E090E00E941406C0E01E2D1C0F809194
:103880003107C81730F08C2D0E94E506DF5FE12E6E
:10389000D8CFE0912D07F0912E07EC0FF11D80811C
:1038A0000E94A006482F4D2580912C07612F680F9C
:1038B000802F9F2D0E94C205CF5FDFCFEF92FF9236
:1038C0000F931F93CF93DF9390E090933A078093E9
:1038D00039077093380760933707F12CE12C10E01B
:1038E00000E08091390790913A07081719073CF0DA
:1038F000DF91CF911F910F91FF90EF900895C091AC
:103900003707D0913807CE0DDF1D88810E946E06E3
:1039100089810E946E060F5F1F4F83E0E80EF11C45
:10392000E0CF8F929F92AF92BF92CF92DF92EF92B1
:10393000FF920F931F93CF93DF93B82EA92EF12CF4
:10394000E12C10E000E09924939480913907909144
:103950003A07081719076CF0DF91CF911F910F916B
:10396000FF90EF90DF90CF90BF90AF909F908F909F
:103970000895C0913707D0913807CE0DDF1D88819B
:103980000E94A006882E892489810E94A00689258C
:10399000682F70E0660F771F682998012D5C384FFB
:1039A0006901F901908190FD35C0882099F181115C
:1039B00033C081E090E041E08F3F980709F040E09C
:1039C000440F440F462B21E0019709F020E0220F1D
:1039D000220F220F422B4F70F6018081807F482BEF
:1039E000408342FB442740F96A818B2D9A2D0E9427
:1039F000C205F601408143FB442740F96A816F5FAD
:103A00008B2D9A2D0E94C2050F5F1F4FF3E0EF0E22
:103A1000F11C9BCF80E0CECF8FEF9FEFCCCFCF9329
:103A2000C42F80931B0160931A0140933B078F3F83
:103A300039F00E9445066C2F80911B010E94890677
:103A400080911A018F3F41F00E9445066C2F8091B2
:103A50001A01CF910C948906CF910895682F809117
:103A60001B018F3F41F090913B07992311F091E0AA
:103A700069270C9489060895682F80911A018F3F59
:103A800041F090913B07992311F091E069270C9444
:103A90008906089580911B018F3F11F00C94BC069C
:103AA000089580911A018F3F11F00C94BC0608957F
:103AB00041E065E180E00C940F1DCF93C82F809109
:103AC0003C07882359F0CA3019F48DE00E945D1D2F
:103AD0008091C80085FFFCCFC093CE00CF910895A0
:103AE000CF93DF9300D000D0CDB7DEB769837A8360
:103AF0008B839C8360E472E48FE090E029813A81BB
:103B00004B815C810E94E825215031093093CD0022
:103B10002093CC00EAECF0E08081817F8660808396
:103B200080818F7C80838081877F8083E9ECF0E0D7
:103B30008081886080838CE191E09093C0078093BE
:103B4000BF0781E080933C078FE495E00F900F90D2
:103B50000F900F90DF91CF910C94AD28E9ECF0E03D
:103B60008081877F80838CE191E09093C007809370
:103B7000BF0710923C070895CF93DF93D82FC62F2D
:103B80008CE30E94890980E00E949B098D2F806B45
:103B90000E949B098C2F8F700E949B098C2F82950D
:103BA0008F7080610E949B09DF91CF910C94A509D1
:103BB000CF93DF930E9424098CE30E948909C8E80F
:103BC000D5E0FE018591EF010E949B09F5E0CE3919
:103BD000DF07B9F70E94A50910923D0780EA80939C
:103BE0003E0780EC80933F0743E050E06DE377E0D1
:103BF0008CE3DF91CF910C942E090F931F93CF93F9
:103C0000C0E060E08C2F0E94BC1D8CE30E948909FB
:103C100080E40E949B0900E810E080E00E949B097C
:103C200001501109D1F70E94A509CF5FC43049F7AF
:103C3000CF911F910F910895CF92DF92EF92FF9253
:103C40000F931F93CF93DF937C01D0E0C0E060E03F
:103C50008C2F0E94BC1D8CE30E94890980E40E9485
:103C60009B0910E000E06701CC0EDD1EF801EE0FAD
:103C7000FF1FEE0FFF1FEC0DFD1D84910E949B099D
:103C80000F5F1F4F0038110589F70E94A509219683
:103C9000C430D105E1F6DF91CF911F910F91FF90D4
:103CA000EF90DF90CF9008959093AA078093A90793
:103CB0007093A8076093A7075093A6074093A507A2
:103CC00008958F929F92AF92BF92CF92DF92EF9220
:103CD000FF92CF93DF93E1E4F7E021E537E0812C19
:103CE000912C54018394D90190E080E04D914423BC
:103CF000C9F0ED0121971882408151816281738161
:103D000075016401082E04C0CC0CDD1CEE1CFF1CE8
:103D10000A94D2F74C295D296E297F29408351836B
:103D20006283738301968531910501F734962B5E8A
:103D30003F4F87E0E135F807B1F6DF91CF91FF9073
:103D4000EF90DF90CF90BF90AF909F908F900895AD
:103D50008F929F92AF92BF92CF92DF92EF92FF929B
:103D60000F931F93CF93DF93942F252F641B35E17F
:103D7000839FA00111244F5A584F34E0839FF001D4
:103D80001124EF5BF84FC12CD12C7601C394762F10
:103D9000790FA92FB22F8D9181110DC0DF91CF9195
:103DA0001F910F91FF90EF90DF90CF90BF90AF9059
:103DB0009F908F900895EA01C70FD11D9881282FF9
:103DC000082E000C330B92171306B1F088834601BE
:103DD000570104C0880C991CAA1CBB1C7A95D2F709
:103DE0000081118122813381082919292A293B293F
:103DF00000831183228333839A2F2B2FC8CF7F9286
:103E00008F929F92AF92BF92CF92DF92EF92FF92EA
:103E10000F931F93CF93DF936091A7077091A8072B
:103E20008091A5079091A607680F791F80E890E020
:103E30000E94D4255B0181E5E82E87E0F82E91E40D
:103E4000C92E97E0D92E712CD0E0C0E048C0F60111
:103E500080819181A281B3810C2E04C0B695A79573
:103E6000979587950A94D2F780FF38C0F701EC0F39
:103E7000FD1F10816091A7077091A8078091A50789
:103E80009091A607680F791F6C9F602D1124872DD4
:103E90000E94BC1D8CE30E94890980E40E949B095A
:103EA000112309F458C0812F110F990B809720918D
:103EB000A7073091A807829F8001839F100D929FD2
:103EC000100D1124912C812C8091A7079091A807A7
:103ED000881699060CF442C00E94A5092196CA15BD
:103EE000DB050CF4B4CFE5E1EE0EF11C7394F4E0C5
:103EF000CF0ED11C24E07212A7CF1092410710926E
:103F000042071092430710924407109245071092FF
:103F100046071092470710924807109249071092DF
:103F20004A0710924B0710924C0710924D071092BF
:103F30004E0710924F0710925007DF91CF911F91BB
:103F40000F91FF90EF90DF90CF90BF90AF909F9038
:103F50008F907F90089500E010E0B4CFE091A90722
:103F6000F091AA07E80DF91DE00FF11F84910E945E
:103F70009B098FEF881A980AA7CF90932F018093FF
:103F80002E01089590932D0180932C0160932B01B5
:103F900040932A0108950E94D81D40912A0150E0C3
:103FA00060912B0170E080912C0190912D010C9477
:103FB000541E0F931F93CF93DF938091AB07811112
:103FC0000BC080912E0190912F010097A9F00E94C3
:103FD0001C1E8091AB0706C090911401911105C081
:103FE0008C3340F48F5F8093AB07DF91CF911F91AB
:103FF0000F9108958C3319F40E94FD1DEACF809132
:104000002C0190912D01892B81F348E555E070E05A
:1040100060E090E080E00E94A81EE0911101F09124
:10402000120187815DE281115BE286814DE281119F
:104030004BE285813DE281113BE284812DE28111D9
:104040002BE283819DE281119BE282818111A2C0DA
:104050008DE21F925F931F924F931F923F931F9287
:104060002F931F929F931F928F938FE595E09F93BD
:104070008F938DEA97E09F938F930E94D9284DEA02
:1040800057E06FE070E090E080E00E94A81E809111
:1040900013012DB73EB7205F3F4F0FB6F8943EBFD8
:1040A0000FBE2DBF8F3F09F477C0E0911101F09151
:1040B0001201DF0112969F01285F3F4F1D911111E0
:1040C00003C02A173B07D1F700811F928F938CE61C
:1040D00095E09F938F93CDEAD7E0DF93CF930E9433
:1040E000D928AE0170E060E083E090E00E94A81E55
:1040F0001F921F9382E795E09F938F93DF93CF9357
:104100000E94D928AE0166E070E083E090E00E9452
:10411000A81E1F920F9388E795E09F938F93DF93DC
:10412000CF930E94D928AE016DE070E083E090E06B
:104130000E94A81E2DB73EB72E5E3F4F0FB6F894D3
:104140003EBF0FBE2DBF80910F01909110019927A6
:104150009F938F938EE895E09F938F938DEA97E0DE
:104160009F938F930E94D9284DEA57E062E170E057
:1041700083E090E00E94A81E0E94FF1E8091AC0781
:104180008F5F8093AC070F900F900F900F900F9060
:104190000F902BCF8BE25DCF6DE775E08DEA97E056
:1041A0000E948B284DEA57E070E060E083E090E0E9
:1041B0000E94A81E63E875E08DEA97E00E948B28B4
:1041C0004DEA57E066E070E083E090E00E94A81EB0
:1041D00069E875E08DEA97E00E948B284DEA57E088
:1041E0006DE070E083E090E00E94A81EACCF0C94DC
:1041F0007525CF93DF93D82FC62F872F0E94782560
:104200008D2F0E9478258C2FDF91CF910C947825EB
:10421000CF92DF92EF92FF920F931F93CF93DF9392
:1042200000D000D0CDB7DEB7E62F582F242F30E0D6
:10423000A72FB0E00E942F266B017C01CC242E2FEB
:1042400030E0A42FB0E00E942F26BB27A92F982F83
:10425000872FC82AD92AEA2AFB2A242F30E0A52F43
:10426000B0E00E942F26BB27A92F982F872FDC01B3
:104270009927882797018601082B192B2A2B3B2B7E
:1042800009831A832B833C83C901B8010F900F90D7
:104290000F900F90DF91CF911F910F91FF90EF90B2
:1042A000DF90CF900C94F920CF93DF9300D000D013
:1042B000CDB7DEB7E091BB07ED3008F0E0E084E079
:1042C000E89FF0011124ED57F64F85919591A59146
:1042D000B591BC01CD010F900F900F900F90DF9121
:1042E000CF9108952F923F924F925F926F927F925B
:1042F0008F929F92AF92BF92CF92DF92EF92FF92F6
:104300000F931F93CF93DF93CDB7DEB760970FB6B0
:10431000F894DEBF0FBECDBF8090B6079090B70770
:10432000A090B807B090B907C501B40126E930E004
:1043300040E050E00E94E82569837A838B839C8368
:104340000E94652720E030E046E153E469837A83E8
:104350008B839C8369817A818B819C810E94C42696
:10436000F62E172F8F839D830E9454214B015C01F1
:104370004FEF84169406A406B10431F438E8832E76
:1043800099249A94A92CB12C340155244424442412
:1043900055247724BB27AB2D9A2D892D482A592ADD
:1043A0006A2A7B2A20E030E040E450E4F9821A8354
:1043B0006F816B837D817C8369817A818B819C8114
:1043C0000E9417288B0189879F8320E030E040E816
:1043D0005FE369831A838B839C8369817A818B81F4
:1043E0009C810E94BF2687FD2AC0FA2CE92CD82C7C
:1043F000CC24CC24FF24C501AA27BB27C82AD92A4C
:10440000EA2AFB2A20E030E040E050E469817A812A
:104410008B819C810E94BF2687FF78C020E030E01E
:1044200040E85FE369817A818B819C810E945226FA
:104430008B0189879F835301420126013701209117
:10444000320130913301032E000C440B550B60E018
:1044500070E081E090E00E940A263E832D830E9456
:10446000230620E030E040E853E409831A8389857D
:104470008B839F819C8369817A818B819C810E943F
:10448000172869837A838B839C8369817A818B81E6
:104490009C810E943627A3E06A9F60011124EA2DC7
:1044A000F0E0F887EF83262C312C492D50E05A8715
:1044B0004987E52CF12C1982682D70E0788B6F8785
:1044C000042D10E08980282D30E0809132019091F8
:1044D00033012817390794F160960FB6F894DEBFC0
:1044E0000FBECDBFDF91CF911F910F91FF90EF9045
:1044F000DF90CF90BF90AF909F908F907F906F9004
:104500005F904F903F902F900C94210620E030E078
:1045100040E050E409831A8369856B837F817C8343
:1045200069817A818B819C810E9452268B018987C7
:104530009F83240135014601570181CF8D809E80E4
:10454000289DC001299D900D389D900D1124892F23
:104550009927880F991F9601281B390B2F3F31058A
:1045600019F014F02FEF30E037FF02C020E030E008
:104570004FEF50E0421B530BAF80B8844A9D20019F
:104580004B9D500C5A9D500C1124229DC001239D1F
:10459000900D329D900D1124480E591E452C552426
:1045A000712C612C32015524442489849A84489DBD
:1045B000C001499D900D589D900D11242E9DB00174
:1045C0002F9D700D3E9D700D1124860F971F892F12
:1045D0009927B0E0A0E0BA2FA92F982F8827842927
:1045E0009529A629B729AF84B888A49EB001A59EB5
:1045F000700DB49E700D1124029FA001039F500DF9
:10460000129F500D1124640F751F672F7727AB0180
:1046100070E060E04C015D01842A952AA62AB72A41
:104620008B869C86AD86BE864091BA07C501B401D3
:104630000E94082149814F5F498344CFAF92BF92C6
:10464000CF92DF92EF92FF920F931F93CF93DF935E
:1046500000D000D000D0CDB7DEB70E945421F62E96
:10466000E72ED82EC92EA0903201B09033019501CB
:10467000220F331F3E832D838091B6079091B70799
:10468000A091B807B091B9079C01AD015695479527
:104690003795279529833A834B835C838D819E814F
:1046A0009C01990F440B550B69817A818B819C8108
:1046B0000E94E82569837A838B839C8309811A8110
:1046C000A016B10634F40D811E8129813A81021BA6
:1046D000130B0E9423061A82198280913201909155
:1046E000330149815A814817590794F026960FB62D
:1046F000F894DEBF0FBECDBFDF91CF911F910F9118
:10470000FF90EF90DF90CF90BF90AF900C94210678
:104710004091BA0789819A818017910769F060E01A
:1047200070E080E090E00E94082129813A812F5FAB
:104730003F4F3A832983D1CF6F2D7E2D8D2D9C2D18
:10474000F2CFDF92EF92FF920F931F93CF93DF93FD
:104750000E945421162F072FF82EE92E2091B6071C
:104760003091B70783E0220F331F8A95E1F731704C
:10477000213041E0340734F080E092E0AC01421B8C
:10478000530B9A014091BA07429FC001439F900D7D
:104790001124D92E0E942306D0E0C0E0809132017E
:1047A00090913301C817D9074CF0DF91CF911F9139
:1047B0000F91FF90EF90DF900C9421064D2D612F0B
:1047C000702F8F2D9E2D0E9408212196E7CFEF920A
:1047D000FF920F931F93CF93DF930E945421162FC4
:1047E000072FF82EE92E0E942306D0E0C0E080912A
:1047F000320190913301C817D90744F0DF91CF916E
:104800001F910F91FF90EF900C9421064091BA07F1
:10481000612F702F8F2D9E2D0E9408212196E7CFAA
:10482000873039F481E0611101C080E08093BC07DA
:104830000895883019F46093BB070895893041F4D6
:10484000669FB001112481E0870F8093BA07089515
:104850008A3011F46093B50708950F931F93CF9397
:10486000DF9300D000D000D0CDB7DEB78091B6077F
:104870009091B707A091B807B091B907BC01CD01DD
:1048800024E130E040E050E00E94E82569837A832B
:104890008B839C83672B682B692B09F048C00E948F
:1048A00023061E821D820DEE15E18091320190914A
:1048B00033012D813E812817390764F026960FB603
:1048C000F894DEBF0FBECDBFDF91CF911F910F9146
:1048D0000C9421062091300130913101209FC001BC
:1048E000219F900D309F900D11244196909331019E
:1048F000809330016DE00E94C825A4E09A9FF001EA
:104900001124ED57F64F85919591A591B591898325
:104910009A83AB83BC834091BA07BC01CD010E944E
:104920000821AD81BE811196BE83AD83BECF269690
:104930000FB6F894DEBF0FBECDBFDF91CF911F91B0
:104940000F9108956CE088E00E94570C64E08AE0C3
:104950000C94570C80E194E20E94340C0C94F720E4
:104960008CE090E090933301809332010895CF93CF
:10497000DF938091BC0781112AC00E942306D0E0FA
:10498000C0E08091320190913301C817D907C4F07B
:104990000E9421068091B6079091B707A091B807B1
:1049A000B091B9070196A11DB11D8093B6079093F0
:1049B000B707A093B807B093B907DF91CF910895D7
:1049C00060E070E0CB010E94F9202196DACFE091FF
:1049D000B507E530F8F6F0E0EE0FFF1FE758F64FA9
:1049E0000590F491E02D0995D5CFCF93DF93CDB706
:1049F000DEB728970FB6F894DEBF0FBECDBF0E947A
:104A000025060E945D1A0E944D080E942106198207
:104A10001A821B821C8288E2C82ED12CE12CF12C38
:104A200090E3892E912CA12CB12C20EA422E2FE06C
:104A3000522E612C712C89819A81AB81BC8183704B
:104A40009927AA27BB27892B8A2B8B2B39F40E9405
:104A5000861A84E00E949E1A0E94551B69817A8101
:104A60008B819C81A70196010E94E8256130710528
:104A70008105910531F469817A818B819C810E9445
:104A8000821B69817A818B819C81A50194010E949E
:104A9000E825623071058105910531F469817A81DB
:104AA0008B819C810E94961B69817A818B819C817C
:104AB000A30192010E94E8256330710581059105EB
:104AC00011F40E94731B0E949E1B81E090E00E94E3
:104AD000050689819A81AB81BC810196A11DB11D1A
:104AE00089839A83AB83BC83A6CF849A8C980895DC
:104AF00098E0880F30F08C9A0000000000008C983D
:104B0000000088F48C9A0000000000000000000003
:104B1000000000000000000000008C980000000071
:104B2000000000000000880F9A9521F708950E9468
:104B3000581D60E076E980E090E00E94701D0E94C0
:104B4000CB1F89ED9FE10E94441A0E94A2240E947B
:104B5000AA2487EB94E20E94251A00E029E531E0BF
:104B60004DE551E064E083E00E94AB1B83E19CE1F2
:104B70000E94061A81E99CE10E94061A64E371E032
:104B800081E00E945E1C0E94F52490E080E0089580
:104B9000991B79E004C0991F961708F0961B881F8F
:104BA0007A95C9F78095089597FB072E16F400941F
:104BB00007D077FD09D00E943E2607FC05D03EF4C1
:104BC000909581959F4F0895709561957F4F0895B9
:104BD000A1E21A2EAA1BBB1BFD010DC0AA1FBB1F01
:104BE000EE1FFF1FA217B307E407F50720F0A21B73
:104BF000B30BE40BF50B661F771F881F991F1A94E0
:104C000069F760957095809590959B01AC01BD0109
:104C1000CF010895052E97FB1EF400940E942126D3
:104C200057FD07D00E94E82507FC03D04EF40C94F2
:104C3000212650954095309521953F4F4F4F5F4F1E
:104C4000089590958095709561957F4F8F4F9F4FF8
:104C50000895EE0FFF1F0590F491E02D0994A29F97
:104C6000B001B39FC001A39F700D811D1124911D40
:104C7000B29F700D811D1124911D0895AA1BBB1BAD
:104C800051E107C0AA1FBB1FA617B70710F0A61B4C
:104C9000B70B881F991F5A95A9F780959095BC016D
:104CA000CD0108955058BB27AA270E946A260C946C
:104CB000DD270E94CF2738F00E94D62720F039F454
:104CC0009F3F19F426F40C94CC270EF4E095E7FBF3
:104CD0000C94C627E92F0E94EE2758F3BA176207F3
:104CE00073078407950720F079F4A6F50C94102833
:104CF0000EF4E0950B2EBA2FA02D0B01B9019001F7
:104D00000C01CA01A0011124FF27591B99F0593F3A
:104D100050F4503E68F11A16F040A22F232F342F82
:104D20004427585FF3CF469537952795A795F040D0
:104D30005395C9F77EF41F16BA0B620B730B840BE5
:104D4000BAF09150A1F0FF0FBB1F661F771F881F9D
:104D5000C2F70EC0BA0F621F731F841F48F48795F5
:104D600077956795B795F7959E3F08F0B0CF9395E7
:104D7000880F08F09927EE0F9795879508950E9460
:104D8000A22708F481E008950E94D8260C94DD271C
:104D90000E94D62758F00E94CF2740F029F45F3FA9
:104DA00029F00C94C62751110C9411280C94CC278F
:104DB0000E94EE2768F39923B1F3552391F3951BD5
:104DC000550BBB27AA2762177307840738F09F5F2C
:104DD0005F4F220F331F441FAA1FA9F335D00E2E99
:104DE0003AF0E0E832D091505040E695001CCAF706
:104DF0002BD0FE2F29D0660F771F881FBB1F2617C9
:104E000037074807AB07B0E809F0BB0B802DBF019F
:104E1000FF2793585F4F3AF09E3F510578F00C946E
:104E2000C6270C9411285F3FE4F3983ED4F386958F
:104E300077956795B795F7959F5FC9F7880F911D8F
:104E40009695879597F90895E1E0660F771F881F7B
:104E5000BB1F621773078407BA0720F0621B730B2E
:104E6000840BBA0BEE1F88F7E09508950E94F62791
:104E700088F09F5798F0B92F9927B751B0F0E1F01B
:104E8000660F771F881F991F1AF0BA95C9F714C0CB
:104E9000B13091F00E941028B1E008950C941028D0
:104EA000672F782F8827B85F39F0B93FCCF3869504
:104EB00077956795B395D9F73EF490958095709561
:104EC00061957F4F8F4F9F4F0895E89409C097FBDE
:104ED0003EF490958095709561957F4F8F4F9F4FD1
:104EE0009923A9F0F92F96E9BB279395F695879515
:104EF00077956795B795F111F8CFFAF4BB0F11F4D8
:104F000060FF1BC06F5F7F4F8F4F9F4F16C088237E
:104F100011F096E911C0772321F09EE8872F762FB4
:104F200005C0662371F096E8862F70E060E02AF0F5
:104F30009A95660F771F881FDAF7880F96958795E1
:104F400097F90895990F0008550FAA0BE0E8FEEFB6
:104F500016161706E807F907C0F012161306E4073D
:104F6000F50798F0621B730B840B950B39F40A2636
:104F700061F0232B242B252B21F408950A2609F414
:104F8000A140A6958FEF811D811D089597F99F6718
:104F900080E870E060E008959FEF80EC08950024C1
:104FA0000A941616170618060906089500240A948E
:104FB00012161306140605060895092E0394000C14
:104FC00011F4882352F0BB0F40F4BF2B11F460FFA3
:104FD00004C06F5F7F4F8F4F9F4F089557FD9058CC
:104FE000440F551F59F05F3F71F04795880F97FBAD
:104FF000991F61F09F3F79F0879508951216130667
:105000001406551FF2CF4695F1DF08C01616170695
:105010001806991FF1CF86957105610508940895CA
:10502000E894BB2766277727CB0197F908950E945C
:105030002A280C94DD270E94CF2738F00E94D6271B
:1050400020F0952311F00C94C6270C94CC27112442
:105050000C9411280E94EE2770F3959FC1F3950FD1
:1050600050E0551F629FF001729FBB27F00DB11DEC
:10507000639FAA27F00DB11DAA1F649F6627B00D7C
:10508000A11D661F829F2227B00DA11D621F739F65
:10509000B00DA11D621F839FA00D611D221F749F73
:1050A0003327A00D611D231F849F600D211D822FBA
:1050B000762F6A2F11249F5750409AF0F1F08823E1
:1050C0004AF0EE0FFF1FBB1F661F771F881F91500E
:1050D0005040A9F79E3F510580F00C94C6270C94D0
:1050E00011285F3FE4F3983ED4F386957795679552
:1050F000B795F795E7959F5FC1F7FE2B880F911D38
:105100009695879597F90895DC0101C06D934150FC
:105110005040E0F70895FB01DC0101900D92002062
:10512000E1F70895B0E0A0E0E8E9F8E20C94BE2BC6
:10513000FE01359661917191AF018091BF07909109
:10514000C0070E94FC28E2E00C94DA2B6091BF07B4
:105150007091C0070E94E52A08950F931F93CF9383
:10516000DF93E091BF07F091C007238100E010E0DA
:1051700021FD0EC00FEF1FEFC801DF91CF911F91EE
:105180000F9108950995892B11F00FEF1FEFCE01B4
:10519000EC0189916091BF077091C007DB011896FF
:1051A000ED91FC918111EECF8AE00995892B21F3D5
:1051B000E1CFAEE0B0E0EFEDF8E20C94BC2B0D894E
:1051C0001E8986E08C831A8309838FEF9FE79E8375
:1051D0008D83AE01475E5F4F6F89788DCE0101965A
:1051E0000E94FC282F813885020F131FF8011082BE
:1051F0002E96E4E00C94D82BAFE0B0E0E2E0F9E2C8
:105200000C94AE2B7C013B018A01DC0117961C92A9
:105210001E92169713968C9181FFBEC19AE0292E9B
:10522000FE0131964F01D70113969C91F30193FD36
:10523000859193FF81913F01882309F444C1853210
:1052400039F493FD859193FF81913F01853229F4D3
:10525000B70190E00E94E52AE6CFB12C412C512CF9
:10526000BFE1B51538F08B3209F188F4803201F1D5
:10527000833221F157FC3AC020ED280F2A3040F547
:1052800056FE1FC0B29C200D1124B22E06C08D32D6
:1052900091F0803379F7689450F8F30193FD85918C
:1052A00093FF81913F018111DBCF20C0689451F8B9
:1052B000689452F8F2CF689453F8EFCF689454F89A
:1052C000ECCF429C200D1124422E689455F8E5CF76
:1052D0008E3229F456FCF7C0689456F8DECF8C362F
:1052E00019F4689457F8D9CF8836B9F2982F9F7D72
:1052F00095549330C0F0833681F18337A1F1833523
:1053000009F05BC0D801CD90DD908D016B2D70E070
:1053100056FC02C06FEF7FEFC6010E94CF2A5C01EE
:10532000689457F80AC00C5F1F4FEFE3E983AA2483
:10533000A394B12C6401E89457F853FE29C0342C8F
:10534000A114B10451F5332009F46DCFB70180E207
:1053500090E00E94E52A3A94F6CFD8018C91898397
:105360000E5F1F4FE4CFF801C190D1908F016B2DDC
:1053700070E056FC02C06FEF7FEFC6010E94DA2A90
:105380005C01D9CFB70180E290E00E94E52A4A94FF
:105390004A141B0409F0B0F7D2CFF60157FC8591EF
:1053A00057FE81916F01B70190E00E94E52A31100C
:1053B0003A94B1E0AB1AB108C3CF843619F08936FC
:1053C00009F071C0F80157FE67C061917191819138
:1053D00091918F01E52DEF76DE2E97FF09C0909514
:1053E0008095709561957F4F8F4F9F4F6894D7F848
:1053F0002AE030E0A4010E94152BC82EC818AC2C5E
:105400005D2CD6FE0CC0E89450F8CB1440F4D4FECA
:1054100005C0D2FC03C05D2D5E7E552EAB2C54FE24
:1054200093C0FE01EC0DF11D8081803309F085C031
:10543000652D697E562E752D7870372E53FC93C0DE
:1054400050FE8DC0BC2CA41410F4B40CBA1854FE39
:1054500090C0B70180E390E00E94E52A52FE07C0A9
:1054600088E751FC88E590E0B7010E94E52ACB145B
:1054700008F48BC0CA94D12C8FEFC81AD80AC80C74
:10548000D91CD6018E916D01B70190E00E94E52AEA
:105490008C149D04B1F757CF61917191072E000CC8
:1054A000880B990B96CFD52CE894D4F82AE0853751
:1054B00029F1F52DF97FDF2E8037A1F058F48835DA
:1054C000A1F08F36D1F0F701868197812F96E2E126
:1054D0000C94CA2B8837B9F7D4FE02C06894D2F86E
:1054E00020E10CC06894D4F8F7CF54FE03C02F2FEE
:1054F0002660D22E20E132E002C028E030E0F80140
:10550000D7FE15C041915191619171914C875D8792
:105510006E877F878F01A4016C857D858E859F8531
:105520000E94152BC82EC818E894D7F868CF81912F
:105530009191AC0170E060E0E9CF52FC02C0A3940D
:105540007ACFA394A39477CF852D867809F473CF6F
:10555000F6CFB70180E290E00E94E52AA394A4145C
:10556000C0F3312C74CF342C3A18A41408F46FCF44
:10557000F8CF852D867809F47ACF8BE251FE80E250
:1055800057FC8DE2B70190E070CFB70180E390E067
:105590000E94E52ABA946BCF8FEF9FEF97CFFC0163
:1055A0000590615070400110D8F7809590958E0F4E
:1055B0009F1F0895FC016150704001900110D8F7C1
:1055C000809590958E0F9F1F08950F931F93CF93F3
:1055D000DF93182F092FEB018B8181FD09C01FEF8D
:1055E0000FEF812F902FDF91CF911F910F91089591
:1055F00082FF14C02E813F818C819D81281739073D
:105600003CF4E881F981CF01019699838883108366
:105610008E819F8101969F838E83E3CFE885F985F4
:10562000812F0995892BA1F3DACFFA01AA27283017
:1056300051F1203181F1E8946F936E7F6E5F7F4F5F
:105640008F4F9F4FAF4FB1E03ED0B4E03CD0670FDB
:10565000781F891F9A1FA11D680F791F8A1F911D2E
:10566000A11D6A0F711D811D911DA11D20D009F47E
:1056700068943F912AE0269F11243019305D3193C0
:10568000DEF6CF010895462F4770405D4193B3E0A9
:105690000FD0C9F7F6CF462F4F70405D4A3318F050
:1056A000495D31FD4052419302D0A9F7EACFB4E001
:1056B000A6959795879577956795BA95C9F70097B9
:1056C0006105710508959B01AC010A2E069457955A
:1056D000479537952795BA95C9F7620F731F841FB1
:1056E000951FA01D0895DC01CB01FC01F999FECFA7
:1056F00006C0F2BDE1BDF89A319600B40D9241505A
:105700005040B8F70895F999FECF92BD81BDF89A3F
:10571000992780B50895A8E1B0E042E050E00C94EC
:10572000752BDC01CB0103C02D910E949C2B4150B5
:105730005040D0F70895262FF999FECF1FBA92BD99
:1057400081BD20BD0FB6F894FA9AF99A0FBE019662
:1057500008950E949B2B272F0C949C2B2F923F92F5
:105760004F925F926F927F928F929F92AF92BF9271
:10577000CF92DF92EF92FF920F931F93CF93DF931D
:10578000CDB7DEB7CA1BDB0B0FB6F894DEBF0FBE7A
:10579000CDBF09942A88398848885F846E847D84C7
:1057A0008C849B84AA84B984C884DF80EE80FD80C9
:1057B0000C811B81AA81B981CE0FD11D0FB6F8943F
:1057C000DEBF0FBECDBFED010895F894FFCF3F19A6
:0C57D00053195A19611968196F198519CD
:1057DC000101010101020101FFFFFF010AFFFF00AE
:1057EC00001C07FF000001010101FFFF0000000287
:1057FC00000000005D1D0000000001059E057907FA
:10580C00830D0C0001270C7EA30D0012000000007C
:10581C000001010101000100000014000104F91055
:10582C00BC165916AE15000105171E040503020619
:10583C002530325820002564200075736220646581
:10584C007669636520636F6E66696775726564005F
:10585C006461746173746F7261676520696E6974D9
:10586C0069616C697A650073746F72616765206435
:10587C006174612076616C69640072657365742073
:10588C00646174612073746F7261676520666F72F6
:10589C00206E65772070726F6A656374003278557C
:1058AC0057634238300073797374656D2070617280
:1058BC00616D657465722076616C756520666978BA
:1058CC0065642025642C202564202D2D3E20256424
:1058DC000A0073797374656D20706172616D657403
:1058EC0065727320696E697469616C697A656400AC
:1058FC00706172616D657465727320736176656435
:10590C0000696E76616C6964206B657920617373D4
:10591C0069676E732064617461006B6579206173D3
:10592C007369676E732073746F726167652064614D
:10593C0074612069732076616C6964005B776172B5
:10594C006E5D206661696C656420746F2077726986
:10595C007465207261776869642064617461006D9C
:10596C00656D6F7279207772697465207472616EDF
:10597C0073616374696F6E20737461727400256453
:10598C00206279746573207772697474656E206116
:10599C00742025640A00636865636B2C2061646461
:1059AC00722025642C206C656E2025640A00636BC4
:1059BC003A2025640A006D656D6F727920777269E3
:1059CC007465207472616E73616374696F6E2064A8
:1059DC006F6E650061746D656761004131353246EB
:1059EC004432300041004200430044004500460070
:1059FC00470048004A004B004C004D004E004F0041
:105A0C0050005100520054005500560057005800E9
:105A1C0059005A0045736300537061636500456E0D
:105A2C007465720054616200425300463100463284
:105A3C0000463300463400463500463600463700F3
:105A4C004638004639004631300046313100463187
:105A5C0032004C5368696674004C4374726C004C91
:105A6C00416C74004C475549005253686966740088
:105A7C00524374726C0052416C7400524755490089
:105A8C00486F6D6500456E6400496E7365727400F5
:105A9C0044656C65746500506167655570005061B4
:105AAC006765446E004C65667400526967687400E3
:105ABC00446F776E0048616E2F5A656E004B6174AF
:105ACC00612F486972610048656E6B616E004D759F
