:100000000C94E3040C9400050C9400050C9400057A
:100010000C9400050C9400050C9400050C9400054C
:100020000C9400050C948B1D0C94A1070C94C5072F
:100030000C9400050C9400050C9400050C9400052C
:100040000C9400050C9400050C9400050C9400051C
:100050000C9400050C9400050C9400050C9400050C
:100060000C9400050C9400050C9400050C940005FC
:100070000C9400050C9400050C9400050C940005EC
:100080000C942D060C9400050C9400050C940005AE
:100090000C9400050C9400050C9400050C940005CC
:1000A0000C9400050C9400050C9400050001000060
:1000B000660212000200007C015B002200004A027E
:1000C0001C002100008E0109002201000A024000EC
:1000D000210100AE010900220200D70133002102F4
:1000E00000C7010900030000780104010309046648
:1000F0000110020309043401300303090400013232
:10010000320330003000300030003000300030006A
:10011000300030003000300030003000300030005F
:10012000300030003000300030003000300030004F
:100130003000000030034B00650072006D00690064
:100140007400650020004B006500790062006F00BC
:1001500061007200640020004400650076006900C0
:1001600063006500000010034B00650072006D0025
:1001700069007400650000000403090409025B00C3
:10018000030100C03209040000020300000009213D
:1001900011010001221C0007058103400002070530
:1001A00002034000080904010001030101000921C4
:1001B0001101000122400007058303080001090422
:1001C0000200010301020009211101000122330094
:1001D0000705840308000105010902A101050919A9
:1001E000012903150025019503750181029501750B
:1001F0000581030501093009311581257F750895B1
:10020000028106093895018106C005010906A10190
:1002100075019508050719E029E7150025018102F8
:1002200095017508810395057501050819012905D2
:10023000910295017503910395067508150026FF37
:10024000000507190029FF8100C006ABFF0A000264
:10025000A1017508150026FF00954009018102954E
:100260004009029102C0120100020000002055F076
:1002700077A5000101020301012903040000000227
:100280002B0305000000032D0306000000042F03CC
:1002900007000000053103080000000633030900D1
:1002A00000000735030A0000000837030B000000B8
:1002B00009AC030C0000000A39030D0000000B3BE1
:1002C000030E0000000C3D030F0000000D3F031063
:1002D0000000000E4103110000000F430312000054
:1002E0000010450313000000114703140000001222
:1002F000490315000000136E0316000000144B03A1
:1003000017000000154D0318000000164F031900D8
:1003100000001751031A0000001853031B000000CF
:100320001955031C0000001A57031D0000001B8D07
:1003300003270200001C91031E0200001D95031FED
:100340000200001E7703200200001F7A0321020032
:1003500000207D03220200002180032302000022EE
:10036000830324020000238603250200002489035E
:100370002602000025590329000000265D032C00F9
:100380000000276303280000002869032B000000F9
:10039000296D032A0000002A70033A0000002B7325
:1003A000033B0000002C76033C0000002D79033D48
:1003B0000000002E7C033E0000002F7F033F000062
:1003C000003082034000000031850341000000320C
:1003D000880342000000338B0343000000348F0386
:1003E0004400000035930345000000589803E100E5
:1003F0000000579F03E000000059A503E200000041
:100400005AAA03E30000009F9703E10000009E9EAC
:1004100003E0000000A0A403E2000000A1A903E3A0
:10042000000000A3AE03E5000000A2B503E4000055
:1004300000A4BB03E6000000A5C003E70000005BCA
:10044000C5034A0000005CCA034D0000005DCE03F6
:10045000490000005ED5034C0000005FDC034B0048
:10046000000060E3034E00000061EA03500000005A
:1004700062EF034F00000063E0035200000064F5E8
:1004800003510000006AFA03350000006B02048883
:100490000000006D0C048A0000006C13048B000047
:1004A0000036190437023702371B04360236023889
:1004B0001D041E011E01391F04380138013A2104B0
:1004C000330134023B2304330233023C25042D0163
:1004D00087013D27042E0133013E29042D022D0200
:1004E0003F2B0425013401402D0438023802412FEE
:1004F000042E022D0142310424012301433304312F
:1005000001890144350423012E0245370435012EAB
:10051000014639041F012F02473B042001200148F6
:100520003D0421012101493F04310289024A42046C
:10053000220122014B4404310287024C460434025A
:1005400024014D480434011F014E4A0435022F0195
:100550004F4C0426012501504E042701260151501D
:10056000042F023002525204300231025350042F41
:100570000130015452043001310155540436013622
:100580000156560437013701B7580490000000B8EF
:100590005D049100000000AEA81FD30040A1C8DA9E
:1005A00002813FA4A6D5808D142002AF0000000078
:1005B0000000005E00000006000600247E247E2469
:1005C000002E7A2F3A0066166866003649493600D2
:1005D0000600000000003E41000000413E00082AE5
:1005E0001C2A0808083E08080040200000000808EF
:1005F0000808000020000000300C0300007F41418B
:100600007F0000417F40007949494F004949497FB7
:10061000000F08087F004F494979007F4949790058
:1006200001710907007F49497F004F49497F000058
:1006300024000000004024000008142200001414CC
:10064000141400002214080002015906007F5D55B1
:100650007D007F11117F007F49497E007F4141412C
:10066000007F41413E007F494949007F0909090057
:100670007F414979007F08087F00417F41000040A9
:1006800040413F007F083641007F4040407F017F6E
:10069000017F7F031C607F007F41417F007F09094C
:1006A0000F007F41215F007F19294F004F49497991
:1006B00001017F0101007F40407F007F40201F7FBC
:1006C000407F407F00631C1C6303047804030061C7
:1006D000514D4300007F410000030C3040000041B9
:1006E0007F000004020400002020202000040200FB
:1006F00000007454547C007F44447C007C44444497
:10070000007C44447F007C54545C00047F0500005E
:10071000BCA4A4FC007F04047C0000007D00000059
:1007200080FD00007F10284400007F40007C047C96
:10073000047C007C04047C007C44447C00FC242475
:100740003C003C2424FC00007C0404005C545474F1
:1007500000047F4400007C40407C007C40201C7CE6
:10076000407C407C0044383844009CA0403C00441D
:1007700064544C000402000000087F4100000000A7
:100780007F000000417F0800000000000000000022
:100790000000000000000080FFFF0780FFFF0780CF
:1007A000FFFF0780FFFF070000070000800F000029
:1007B000C01F0000F03F0000F87F0000FCFC0000BC
:1007C0007EF801803FE003800FC00780078007802C
:1007D0000300078001000600000004000000000084
:1007E00000000080FFFF0780FFFF0780FFFF0780FA
:1007F000FFFF0780878707808787078087870780B5
:100800008787078087870780878707808787078094
:10081000878707808787078087870780078007008B
:100820000000000000000000000000000000008048
:10083000FFFF0780FFFF0780FFFF0780FFFF0780A4
:10084000071E0080071E0080071E0080071E008014
:10085000077E008007FE00800FFF01809FFF0700DA
:10086000FFEF0700FF8F0700FE070700F8010600F3
:10087000000000000000000000000080FFFF0700F3
:10088000FFFF0700FEFF0700F8FF0700F00300006E
:10089000E0070000C00F0000801F0000007F000084
:1008A00000FC000000FC0000007F0000801F000032
:1008B000C00F0000E0070000F0030000F8FF070091
:1008C000FEFF0700FFFF0780FFFF0700000000009A
:1008D0000000000000000000000000000000008098
:1008E000FFFF0780FFFF0780FFFF0780FFFF070074
:1008F00000000000000000000000008007000080F1
:1009000007000080070000800700008007000080CB
:1009100007000080FFFF0780FFFF0780FFFF0780C1
:10092000FFFF0780070000800700008007000080AD
:100930000700008007000080070000000000008022
:10094000FFFF0780FFFF0780FFFF0780FFFF078093
:100950008787078087870780878707808787078043
:100960008787078087870780878707808787078033
:1009700087870780878707800780070000000000BF
:100980000000000000000074262E26AB25BA26FFCA
:10099000230000FF000044FF0000FFFF0000FF668F
:1009A0000000FF000044FF0000FFFF0000FF4400C4
:1009B00000FF000000FF004400FF00FF004400FFB4
:1009C00000FFFFFF000011241FBECFEFDAE0DEBF03
:1009D000CDBF15E0A0E0B1E0EEE0FDE502C005907E
:1009E0000D92A43AB107D9F728E0A4EAB5E001C016
:1009F0001D92A230B207E1F70E9441280C94852E87
:100A00000C940000EF92FF920F931F93CF93DF930C
:100A1000EC018C01060F171F8DE5E82E81E0F82E02
:100A2000C017D10751F48AE090E0DF91CF911F9178
:100A30000F91FF90EF900C94462B89911F928F930A
:100A4000FF92EF920E94322B0F900F900F900F9019
:100A5000E7CFEF92FF920F931F93CF93DF93EC01B9
:100A60008C01060F171F83E6E82E81E0F82EC017D1
:100A7000D10751F48AE090E0DF91CF911F910F915F
:100A8000FF90EF900C94462B89911F928F93FF92C9
:100A9000EF920E94322B0F900F900F900F90E7CFA4
:100AA000FB01DC01460F571FE417F50709F4089511
:100AB00081918D93F9CFAF92BF92CF92DF92EF9257
:100AC000FF920F931F93CF93DF93DC01162FEA0160
:100AD00090E061E070E090130BC0DF91CF911F9127
:100AE0000F91FF90EF90DF90CF90BF90AF9008955F
:100AF000892F810F382F3695369536957D01E30E77
:100B0000F11CF701308187705B0101C0AA0C8A9546
:100B1000EAF7892F820F482F4695469546954C0F48
:100B20005D2F511DFA01408150E087706B0102C0BA
:100B3000CC0CDD1C8A95E2F74C215D21832F8A299C
:100B4000452B21F4EA2DE0958E2F8323F701808336
:100B50009F5FC1CFFC01DB01480F591FE417F50768
:100B600011F481E0089591918D919817B9F380E087
:100B70000895FB01DC01460F571FE417F50709F440
:100B80000895819190E08D939D93F7CF70E00C9440
:100B9000242B262F269526952695FC01E20FF11D84
:100BA0009081677021E030E001C0220F6A95EAF77A
:100BB000442319F0922B9083089520959223FBCF24
:100BC000262F269526952695820F911DFC012081C2
:100BD00030E0677081E090E002C0880F991F6A954D
:100BE000E2F72823392381E0121613060CF080E087
:100BF00008959B01BA01FC0190E080E08217930701
:100C000014F080E00895419151914617570711F073
:100C10000196F4CF81E0089508959C0190E080E072
:100C20008217930709F40895EFE9FFE03197F1F790
:100C300000C000000196F4CF9C0190E080E0821794
:100C4000930709F4089545E04A95F1F700000196ED
:100C5000F6CF78940895F89408951F921FB61F92C6
:100C600011248F939F93AF93BF938091A40590918C
:100C7000A505A091A605B091A7050196A11DB11DDE
:100C80008093A4059093A505A093A605B093A7050E
:100C9000BF91AF919F918F911F901FBE1F9018958C
:100CA000CF93DF9300D000D0CDB7DEB78091A405FD
:100CB0009091A505A091A605B091A705BC01CD0115
:100CC0000F900F900F900F90DF91CF910895A895FE
:100CD00014BEE0E6F0E0808188618083108280E8C5
:100CE00085BF85BF1092D8001092900089E0809354
:100CF000910082E08093710080E89EE390939900D8
:100D0000809398001092950010929400089587E6C1
:100D100091E09F938F930E94322B2FEF81EE94E00E
:100D2000215080409040E1F700C00000F89481E03D
:100D30008093E00080E28093D8001092C9008FE198
:100D40009EE40197F1F700C000001DBA1092680000
:100D50001CBC10BE1FBA10927A0010926E00109246
:100D60006F0010927100109272001092C9001092E0
:100D7000BC0014B817B81AB81DB810BA1092BC004D
:100D800015B818B81BB81EB811BA0C9400380F90DB
:100D90000F90FFCF80E091E09093FF078093FE07D4
:100DA0000895E82FE695E695E69593E0E99FF00132
:100DB000112435A1282F277081E090E001C0880F11
:100DC0002A95EAF78095832385A30895E82FE69571
:100DD000E695E69593E0E99FF001112494A18770D0
:100DE00021E030E001C0220F8A95EAF7892F822B9B
:100DF00084A30895E82FE695E695E69593E0E99FAC
:100E0000F001112434A1282F277081E090E001C067
:100E1000880F2A95EAF78095832384A30895E82F05
:100E2000E695E695E69563E0E69FF001112444A17E
:100E3000877021E030E0B90102C0660F771F8A9504
:100E4000E2F7CB01962F9095942394A395A1892B3B
:100E500085A30895662399F0E82FE695E695E69533
:100E600093E0E99FF001112495A1877021E030E023
:100E700001C0220F8A95EAF7922B95A308950C944E
:100E8000D106E82FE695E695E695EF5F93E0E99FBA
:100E9000F001112490A1877021E030E002C0220F00
:100EA000331F8A95E2F7892F90E02823392381E0C8
:100EB000121613060CF080E00895E82FE695E695EB
:100EC000E69593E0E99FF001112495A1877021E058
:100ED00030E001C0220F8A95EAF7892F822785A387
:100EE000089586958695869523E0829FC0011124FA
:100EF000859608958695869586958F5F23E0829FD7
:100F0000C0011124809608958770089561E00C94C3
:100F10002A070C94D106E82FE695E695E695EF5F53
:100F200093E0E99FF001112490A1877021E030E067
:100F300001C0220F8A95EAF7892F822B80A308959A
:100F400008951F921FB61F9211248F939F93809133
:100F5000E1001092E10083FF0FC01092E90091E0E0
:100F60009093EB001092EC0092E29093ED0098E0E9
:100F70009093F0001092A90582FD8091A9059F91A0
:100F80008F911F901FBE1F9018951F920F920FB642
:100F90000F921124EF92FF920F931F932F933F9381
:100FA0004F935F936F937F938F939F93AF93BF9371
:100FB000CF93DF93EF93FF931092E9008091E800C5
:100FC00083FF5AC09091F1008091F1002091F100CF
:100FD0003091F1004091F1005091F1006091F100E9
:100FE0007091F100E2EFE093E800863009F087C0ED
:100FF0008CEA90E0A0E0B1E0FC01C591D4912C17FF
:101000003D0709F034C0FC013296C591D4914C17CC
:101010005D0769F5FC013496459154910696FC01F3
:1010200084916F3F710519F010F06FEF70E0F62EAC
:10103000861708F4F82EBA018EEFE82E8091E800AA
:10104000982F9570D9F382FD2CC08F2DF0E2FF15FB
:1010500008F480E223303207A9F0FB01982F99238E
:10106000A9F0A491A093F10091503196F8CF079682
:10107000A817B90709F0C0CF81E28093EB0011C037
:10108000F92EDCCF8B01982F911122C0680F711DB2
:101090009F2D981BE092E800F812F2CF80E2F8163C
:1010A00079F3FF91EF91DF91CF91BF91AF919F9134
:1010B0008F917F916F915F914F913F912F911F91F0
:1010C0000F91FF90EF900F900FBE0F901F9018950B
:1010D000E801C41BD50BAC2FF801B491C23048F025
:1010E000A250B0E0C0FD05C0A695B0E0A655BA4F2D
:1010F000BC91B093F10091500F5F1F4FC5CF853069
:1011000059F48EEF8093E8008091E80080FFFCCFD7
:1011100020682093E300C5CF8930C9F5911137C00D
:101120002093A9058EEF8093E80081E08093E90089
:101130008093EB0091EC9093EC0026E32093ED007C
:1011400032E03093E9008093EB0030EC3093EC0018
:101150002093ED0023E02093E9008093EB0090932F
:10116000EC0026E02093ED0034E03093E90080931A
:10117000EB009093EC002093ED008FE791E00E944C
:101180004D2B8EE18093EA001092EA008ACF411540
:10119000510539F4913209F06FCF8A3009F06CCFE4
:1011A00015C041305105B1F4913209F065CF893055
:1011B000A1F78091E80082FFFCCF8091F10080933D
:1011C000A8058091A8058BEF8093E8008EEF8093AF
:1011D000E80067CF42305105E9F24ECF80E88093B6
:1011E00061001092610081E08093D70080EA8093D3
:1011F000D80082E189BD09B400FEFDCF80E980936B
:10120000D8001092E0001092A9058CE08093E200D3
:1012100008959091A905911102C080E0089593E08E
:101220009093E9009091E80095FFF7CFF8948093B0
:10123000F1001092F100FB01CB0106962191209361
:10124000F100E817F907D1F78AE38093E800789472
:1012500081E008952091A905211102C080E0089540
:1012600023E02093E9002091E80025FFF7CFF894D0
:10127000FC01089621912093F100E817F907D1F7B6
:101280008AE38093E800789481E008952091A9058D
:10129000211102C080E0089521E02093E90020910F
:1012A000E80025FFF7CFF894FC01805C9F4F219167
:1012B0002093F100E817F907D1F78AE38093E8005B
:1012C000789481E008952091A905211102C080E061
:1012D000089522E02093E9002091E80025FFF7CF50
:1012E000F894FC01805C9F4F2091F1002193E81756
:1012F000F907D1F78BE68093E800789481E00895B0
:101300009091A90581E0911101C080E008958AEAD9
:1013100095E0089508951092D800089580E094E033
:101320000895F999FECF0C94232EF999FECF0C94D1
:101330003B2EF999FECF0C942B2EF999FECF0C94ED
:10134000492E382F292FCB01F999FECF632F722F09
:101350000C94132E382F292FCB01F999FECF632F30
:10136000722F0C94312ECF93DF93D0E0C0E060E079
:10137000CE010E9495092196C11584E0D807B9F7DE
:10138000DF91CF910895089508955198599A5098F2
:10139000589A1092B9008CE08093B80008959A0191
:1013A00094EA9093BC009091BC0097FFFCCF880F0B
:1013B0008093BB0084E88093BC008091BC0087FFD1
:1013C000FCCFFB0190E080E044E88217930724F013
:1013D00084E98093BC00089551915093BB004093E1
:1013E000BC005091BC0057FFFCCF0196EECF9A0194
:1013F00094EA9093BC009091BC0097FFFCCF880FBB
:1014000081608093BB0084E88093BC008091BC0025
:1014100087FFFCCFFB0190E080E0A901415051091A
:1014200064E874EC8217930724F084E98093BC008D
:101430000895841795075CF47093BC00A091BC00DC
:10144000A7FFFCCFA091BB00A1930196EBCF6093C7
:10145000BC00F4CF94EA9093BC009091BC0097FF3D
:10146000FCCF880F8093BB0084E88093BC00809100
:10147000BC0087FFFCCF08958093BB0084E8809375
:10148000BC008091BC0087FFFCCF089584E9809365
:10149000BC0008958F929F92AF92BF92CF92DF923D
:1014A000EF92FF920F931F93CF93DF935C01EB01B9
:1014B0006A0179014801CC15DD0510F5CE010E94C5
:1014C00099098C01CE0102960E9499099C010A1586
:1014D0001B05A1F42496F701D183C083F401318365
:1014E0002083DF91CF911F910F91FF90EF90DF90BC
:1014F000CF90BF90AF909F908F900895892B29F443
:10150000D0E0C0E030E020E0E6CF2C5F3F4FC20FDC
:10151000D31FD1CFEF92FF920F931F93CF93DF93FF
:10152000D82FC92F7B018A010E948E09AC01970137
:1015300062E070E08D2F9C2F0E944A0ADF91CF91CC
:101540001F910F91FF90EF900895CF93DF9300D0FC
:1015500000D0CDB7DEB7AE014F5F5F4FBE016D5F0C
:101560007F4F0E948A0A8B819C810F900F900F9071
:101570000F90DF91CF910895CF92DF92EF92FF927B
:101580000F931F93CF93DF9300D000D0CDB7DEB77A
:101590006C017B018A01AE014F5F5F4FBE016D5F41
:1015A0007F4F80E79AEA0E948A0A6B817C816115ED
:1015B0007105A9F049815A81460F571F9701C6014D
:1015C0000E944A0A0F900F900F900F90DF91CF91D9
:1015D0001F910F91FF90EF90DF90CF900895F7014A
:1015E00011821082F80111821082ECCFAF92BF926B
:1015F000CF92DF92EF92FF920F931F93CF93DF93DF
:1016000000D000D0CDB7DEB785E991E00E944D2B28
:1016100090E080E00E9499098E37934A09F044C017
:10162000AE014F5F5F4FBE016D5F7F4F80E19AEA71
:101630000E948A0AE980FA80AE014F5F5F4FBE01C7
:101640006D5F7F4F80E29AEA0E948A0AA980BA8081
:10165000AE014F5F5F4FBE016D5F7F4F80E39AEA3F
:101660000E948A0AC980DA80AE014F5F5F4FBE01D7
:101670006D5F7F4F80E49AEA0E948A0A09811A818D
:1016800080E79AEA0E94A50A9C0182E1A816B104AB
:1016900059F48CE0C816D10439F40E291F29012B06
:1016A00019F4232B09F04AC08FEB91E00E944D2BD7
:1016B0000E94B3096EE773EA90E080E00E949D0902
:1016C00060E27AEA82E090E00E949D0962E170E0C7
:1016D00084E090E00E949D0960E37AEA88E190E06E
:1016E0000E949D096CE070E08AE190E00E949D09F3
:1016F00060E77AEA88E290E00E949D0970E060E08D
:101700008AE290E00E949D0980E29AEA0E94A50A7E
:101710000097D9F148E050E062EE71E00F900F9031
:101720000F900F90DF91CF911F910F91FF90EF904D
:10173000DF90CF90BF90AF900C94AA0980E29AEA14
:101740000E94A50A48E050E062EC75E00E94A10901
:1017500048E050E062EE71E082EC95E00E94AA055C
:10176000882309F4A1CF8CEA91E00F900F900F909D
:101770000F90DF91CF911F910F91FF90EF90DF902D
:10178000CF90BF90AF900C944D2B0F900F900F9077
:101790000F90DF91CF911F910F91FF90EF90DF900D
:1017A000CF90BF90AF900895CF93DF9380E79AEAF0
:1017B0000E94A50AEC01892B31F00E948E099C0140
:1017C0002C1B3D0BE901CE01DF91CF91089580E202
:1017D0009AEA0E94A50A0896089580E29AEA0E9471
:1017E000A50A4096089580E39AEA0C94A50A8CE035
:1017F00090E0089580E79AEA0C94A50ACF93DF93CE
:1018000000D000D0CDB7DEB7AE014F5F5F4FBE0155
:101810006D5F7F4F81E79BEB0E94BC0A8B819C81AF
:101820000F900F900F900F90DF91CF910895CF936D
:10183000DF9300D000D0CDB7DEB7AE014F5F5F4F72
:10184000BE016D5F7F4F84E79BEB0E94BC0A8B81DA
:101850009C810F900F900F900F90DF91CF91089582
:10186000CF93DF9300D000D0CDB7DEB7AE014F5F8E
:101870005F4FBE016D5F7F4F88E79BEB0E94BC0A04
:101880008B819C810F900F900F900F90DF91CF91E3
:101890000895CF93DF9300D000D0CDB7DEB7AE016F
:1018A0004F5F5F4FBE016D5F7F4F88E79BEB0E94EC
:1018B000BC0A89819A810F900F900F900F90DF9151
:1018C000CF910895CF93DF9300D000D0CDB7DEB78E
:1018D000AE014F5F5F4FBE016D5F7F4F86E79BEBB1
:1018E0000E94BC0A8B819C810F900F900F900F90EB
:1018F000DF91CF9108958F929F92AF92BF92CF9236
:10190000DF92EF92FF920F931F93CF93DF93D0E07C
:10191000C0E0EE24E394F12C87010C2E02C0000FEE
:10192000111F0A94E2F78091CB059091CC0580239A
:101930009123892BF1F0FE01E752FA4F90808C2E13
:101940008FECA82E85E0B82ED12CC12C8091CD052E
:101950009091CE05C816D906ECF0009510958091AF
:10196000CB059091CC05802391239093CC05809357
:10197000CB052196CC30D10579F6DF91CF911F911F
:101980000F91FF90EF90DF90CF90BF90AF909F901E
:101990008F900895D501ED91FD915D01692D882D00
:1019A0000995BFEFCB1ADB0AD1CFCF93DF93D82FA6
:1019B000C92F6091CD057091CE05482F592F8FEC1E
:1019C00095E00E94F905811110C0E091CD05F091DC
:1019D000CE05CF0101969093CE058093CD05EE0FF5
:1019E000FF1FE153FA4FD083C183DF91CF91089558
:1019F000E82FF0E0E25FFE4F60830895E82FF0E00B
:101A0000E25FFE4F81E09081961708F480E0089530
:101A1000CF92DF92EF92FF920F931F93CF93DF93BA
:101A200009ED15E08EE0C82E81E0D82ED0E0C0E0B0
:101A30009BEEE92E91E0F92EF80181918F01F601DC
:101A400091916F01981768F02196CC30D105A1F7DC
:101A5000DF91CF911F910F91FF90EF90DF90CF908A
:101A60000895FE01E15CFE4F9081F801319790836B
:101A70001F929F931F928F93DF93CF93FF92EF92CA
:101A80000E94322BEDB7FEB738960FB6F894FEBF22
:101A90000FBEEDBFD9CF282F30E0F901E25FFE4F36
:101AA00090819617D8F027523A4FF901608321E0D0
:101AB00030E002C0220F331F8A95E2F78091CB05F8
:101AC0009091CC05822B932B9093CC058093CB05E2
:101AD00088EB9BE090931B0180931A010895CF93AC
:101AE000C82F282F30E0F901E25FFE4F9081275286
:101AF0003A4FD901EC91F0E09F01260F371F4423A4
:101B000089F0692F70E06F5F7F4FCB01820F931FC9
:101B10000E947A288E179F0789F0682F8C2FCF910B
:101B20000C944B0D37FD07C0892F90E0281739071B
:101B30008CF7C901EFCF90E080E0ECCFCF91089512
:101B4000CF93DF930E94F30B9093D8058093D70532
:101B5000892B09F440C00E94ED0BEC010097B1F015
:101B60000E949109811112C04CE050E06FE371E0D6
:101B70008091D7059091D8050E94AA0961E0CE0115
:101B80000E94950987E192E00E944D2B4CE050E0C5
:101B900069ED75E08091D7059091D8050E94A10963
:101BA0000E94080D2091CB053091CC0590E080E09B
:101BB00061E070E0AB01082E02C0440F551F0A948B
:101BC000E2F7242B352B01968C30910599F7309351
:101BD000CC052093CB05DF91CF910895462F50E09F
:101BE00069ED75E00C945005462F50E06EE071E011
:101BF0000C945005E82FF0E0E752FA4F80810895E9
:101C00000C944B0DEF92FF920F931F93CF93DF93A2
:101C10008C01D0E0C0E0E62EF12CCE15DF053CF0C3
:101C2000DF91CF911F910F91FF90EF900895F801F0
:101C300061918F018C2F0E944B0D2196EECF0F9357
:101C40001F93CF930FE311E0C0E0F80161918F0182
:101C50008C2F0E944B0DCF5FCC30B9F7CF911F91E5
:101C60000F910895813039F46091DF05682786E08F
:101C70000E944B0D0895823039F0833061F441E0C9
:101C80006FEF7FEF87E004C041E061E070E089E042
:101C90000E946F0D089541E061E070E0843091F39F
:101CA00040E060EF7FEF8530B1F040E060E170E050
:101CB000863089F08E3789F0873099F08830A1F02E
:101CC0008930B1F060E08A30C9F061E08B30B1F06A
:101CD0008C30B1F0089588E0DBCF81E08093CA05B5
:101CE000089560E084E0C4CF61E084E00C944B0D83
:101CF00041E061E070E084E00C946F0D85E0F6CF88
:101D000041E061E070E085E0F7CF80911A019091A9
:101D10001B0118161906BCF4019790931B018093C0
:101D20001A01892B81F48091D7059091D8050097ED
:101D300051F04CE050E069ED75E00E94AA0985E39E
:101D400092E00E944D2B0E947B0C8091CA05882353
:101D500021F01092CA050C94870608950C947B0C10
:101D600089ED95E00895CF93DF930E94FE0BEC017F
:101D70000E94D40B209741F486E492E00E944D2B00
:101D800080E0DF91CF910895892BB1F345E050E0D9
:101D900065EE75E0CE010E94A1093091E605209123
:101DA000E7059091E8058091E9054091E50541300E
:101DB00019F7363009F72430F9F69F3FE9F28131FF
:101DC000D8F68FE592E00E944D2B81E0DACFE091CA
:101DD0003206F0913306309709F0099408950E9475
:101DE0008009882351F08CEE95E00E94460981110C
:101DF00004C081E892E00C944D2B08959091EB057E
:101E0000992369F09091EA05911109C095EC90939E
:101E1000EC058093ED056093EE050C94EF0E0895AC
:101E200090933306809332068EEF9EE00E94D50C8D
:101E30000E94E70B90933106809330060E94FA0BC4
:101E400090932F0680932E060E94D40B90932D061C
:101E500080932C060895DF92EF92FF920F931F93C9
:101E6000CF93DF938CEE95E00E946309882309F4F9
:101E70005EC08091EC05803F21F481E00E94E70E76
:101E800056C0813F09F45BC0823F09F05AC083EF1E
:101E90008093EC051092ED0587E08093EE0586E0D7
:101EA0008093EF0582E08093F00548E050E062EE19
:101EB00071E081EF95E00E945005C1E0C093F90503
:101EC0001092FA0548E050E06BEF75E08091300623
:101ED000909131060E94A10980912C0690912D06C7
:101EE000982789279827909304068093030640E15A
:101EF00050E060E085E096E00E94C60546E050E0D4
:101F000064EA72E085E096E00E94500548E050E007
:101F10006BEA72E085E196E00E94500584E08093D0
:101F20001D0680931E060E94EF0EC093EB05DF9105
:101F3000CF911F910F91FF90EF90DF90089582E075
:101F40009DCF843F29F1803B71F1823B91F1833B2E
:101F500009F456C0813B09F4A2C0803C09F4A5C035
:101F6000823C09F4B5C0833C09F4C0C0843C09F448
:101F7000CAC0813D09F4CDC0823D09F4DAC0803D7C
:101F8000B1F68091ED05813009F4DEC083E2C6C070
:101F900048E050E06DEE75E080913006909131069A
:101FA0000E94AA09C4CF84EB92E00E944D2B80E1ED
:101FB00065CFC091ED05D091EE05DC27CD27DC275C
:101FC00080912E0690912F06C80FD91F1091EF0512
:101FD000412F50E060EF75E0CE010E94AA09DF9327
:101FE000CF931F921F9383ED92E09F938F930E9454
:101FF000322B0F900F900F900F900F900F9097CF64
:10200000C091ED05D091EE05DC27CD27DC2780912E
:102010002E0690912F06C80FD91FE090EF05F09083
:10202000F005FE24EF24FE24FF92EF92DF93CF937E
:102030008BEE92E09F938F930E94322B0F900F9024
:102040000F900F900F900F9010E000E0D12C0E1524
:102050001F05E1F41F92DF9283E093E09F938F933B
:102060000E94322B84EB8093EC05D092ED050E9408
:10207000EF0E80912E0690912F06B80102970E94D4
:102080009D090F900F900F900F9051CFCE01800FB0
:10209000911F0E949109D8260F5F1F4FD8CF8BE068
:1020A00093E00E944D2B81E1E9CE81EC8093EC0519
:1020B0008CE08093ED056CE08EEE95E00E94EE0DD5
:1020C0006CE08AEF95E00E94F40D0E94EF0E2FCF96
:1020D0004091ED056091EE0581E08093EA058FEE79
:1020E00095E00E94020E1092EA0521CF6091EE0564
:1020F0008091ED05DF91CF911F910F91FF90EF90AF
:10210000DF900C94000E81E08093EA050E941F0E80
:10211000EACF8091ED05813051F081E2DF91CF91DE
:102120001F910F91FF90EF90DF900C94E70E80E2EB
:10213000F5CF8DEE95E0DF91CF911F910F91FF903C
:10214000EF90DF900C942A0982E2E8CFECEEF5E004
:1021500090EA9083818362830C94EF0EECEEF5E0BD
:1021600021EA2083982789279827928381830C94DA
:10217000EF0EBC0148E050E08091300690913106AE
:102180000C94A109E8E7F2E030E020E09491891393
:102190000DC0611114C087E0829FF001839FF00D94
:1021A0001124E558FD4F8591959115C02F5F3F4F44
:1021B00037962237310551F790E080E0089587E0A7
:1021C000829FF001839FF00D1124E358FD4F85910C
:1021D0009591009701F30895E8E7F2E030E020E000
:1021E000949189130BC087E0829FF001839FF00DCB
:1021F0001124E758FD4F8591959108952F5F3F4F2A
:1022000037962237310561F790E080E00895CF934B
:10221000DF930E94620CEC01009749F00E94910943
:10222000809336062196D0933506C0933406DF910D
:10223000CF910895AF92BF92CF92DF92EF92FF922B
:102240000F931F93CF93DF939C01B62E8C01002731
:10225000107F832F8F70D82ED22FC12C85E0A82E0F
:1022600080913606C816D8F5E0903406F090350611
:10227000CA9CE00CF11C1124C7010E9491098B1526
:1022800011F08F30A9F4C70101960E949109C82F5F
:10229000C70102960E949109CC2311F0C53B51F46D
:1022A0009FEF980F9E3F20F4DC1739F1C53B29F1D1
:1022B000C394D6CFDC13FCCFD81611F08F3FC1F7F3
:1022C000C70103960E949109C82FC70104960E9476
:1022D0009109C63B09F0DC2F8E3F09F0D82EC801CA
:1022E0008D2B9D29DF91CF911F910F91FF90EF9042
:1022F000DF90CF90BF90AF900895D812D9CFE0CFA4
:102300009C01AEEFB6E050969C915097E92FF0E01B
:10231000EE0FFF1FE250F94F318320839F5F9770CC
:1023200050969C930895FC019081907681E09034C2
:1023300009F080E00895482FEAE3F6E030E020E07D
:102340005EE0529FC001539F900D1124DC01A55CFB
:10235000B94F6C9160FF03C06281641749F02F5F31
:102360003F4F3E962A30310561F790E080E00895B6
:10237000855C994F08958F929F92AF92BF92EF9292
:10238000FF920F931F93CF93DF939C01C62FD0E052
:102390008E01080F191F60E070E0CB012017310794
:1023A00099F440E024E030E02C1B3D0B421713066B
:1023B000E4F0DF91CF911F910F91FF90EF90BF90CC
:1023C000AF909F908F9008958824962EA72EB82EB8
:1023D00079014FEFE41AF40AC9010E9491099401AE
:1023E000282BC501B9019701D9CF982F872F762FB8
:1023F00066274F5FDBCFCF92DF92EF92FF920F9372
:102400001F93CF93DF9300D000D0CDB7DEB76983A1
:102410007A838B839C83042F609138068B819C8107
:102420000E941A119C018827907F9A838983832FA9
:102430008F70922F49EA420F443050F42755330BE6
:1024400041E050E001C0440F2A95EAF7842B90E068
:1024500029813A81292B382B3A8329839981A90133
:1024600070E060E0C52ED62EE72EFF24152F1F70DA
:1024700020E09923C9F061E080913706813009F0AE
:1024800060E089810E94C210BC0189819A8171FB40
:10249000222720F994FF20E0217070FF04C0689487
:1024A000C1F81C2D1F70962F822F880F802B12953C
:1024B000107F812B837F0F900F900F900F90DF91F3
:1024C000CF911F910F91FF90EF90DF90CF900895E3
:1024D000CF93DF934091C7065091C806C82FD0E034
:1024E0009A01082E02C0369527950A94E2F720FF3C
:1024F0002BC021E030E0082E02C0220F331F0A94C7
:10250000E2F720953095242335233093C806209395
:10251000C7061F928F9382E694E09F938F930E9449
:10252000322BCC0FDD1FC252D94F8981982F9F705B
:102530000F900F900F900F9039F08295807F90E070
:10254000DF91CF910C948011DF91CF910895CF92BC
:10255000DF92EF92FF920F931F93CF93DF93F82EAA
:10256000E090D90609ED16E0D0E0C0E0C62E660F77
:10257000DD08CE1548F0DF91CF911F910F91FF90AC
:10258000EF90DF90CF900895CC16DD0641F0F80172
:1025900085818770F81203C08C2F0E9468122196E3
:1025A0000E5F1F4FE6CF0F931F93CF93C82F082FB7
:1025B00010E08091C7069091C8060C2E02C0969537
:1025C00087950A94E2F780FD39C0000F111FF801CA
:1025D000E752F94F8581877019F06C2F0E94A7127E
:1025E00021E030E00C2E02C0220F331F0A94E2F7E4
:1025F0008091C7069091C806822B932B9093C806B2
:102600008093C7061F92CF9380E794E09F938F93A8
:102610000E94322BF801E252F94F8181982F9F706E
:102620000F900F900F900F9049F08295807F8160FE
:1026300090E0CF911F910F910C948011CF911F9139
:102640000F9108950F931F93CF93DF93EC016A8549
:102650007B858C859D856115710581059105E9F066
:102660008B019C014EE136952795179507954A9564
:10267000D1F70130B9F440E00E94FB110E948011B3
:102680008091C7069091C806892B19F480E00E94BA
:10269000D3121A861B861C861D86DF91CF911F914F
:1026A0000F910895033061F7292F2770213041F7EA
:1026B0008B019C0194E136952795179507959A957E
:1026C000D1F70F700130E1F68F700E946812D8CFF9
:1026D0000F931F938B019C01DC01CB014EE1B6955A
:1026E000A795979587954A95D1F7813089F441E070
:1026F000C9010E94FB110E9480118091C9068F3F81
:10270000F9F08091CA068F3FD9F41092CA0618C01A
:10271000833099F7832F8770813009F042C0D90147
:10272000CB0134E1B695A795979587953A95D1F762
:102730008F70122F1F70813071F4812F0E94D3127D
:102740008091C7069091C806892BF1F580E01F9112
:102750000F910C94D312823081F3833021F4812FB6
:102760000E946812EDCF843069F48091C706909181
:10277000C806012E02C0969587950A94E2F780FD5F
:10278000EECFDBCF8530E1F6812F0E94D31210937C
:10279000C9068FEF8093CA0686EC94E00E944D2B09
:1027A000CFCF823031F46FEF822F87700E94A71253
:1027B000A4CF833009F0A1CF9927832F722F612FE7
:1027C000822F0E94320E99CF1F910F9108952F9260
:1027D0003F924F925F926F927F928F929F92AF92B1
:1027E000BF92CF92DF92EF92FF920F931F93CF93FE
:1027F000DF9300D000D000D00F92CDB7DEB7382ED7
:102800004B0199EDA92E96E0B92E2FE0C22ED12CC6
:10281000FC2CCA82C4010C2C02C0969587950A94A0
:10282000E2F780FD25C021E0C21AD10832E0A31AE8
:10283000B1084FEFC416D40659F790E080E0279610
:102840000FB6F894DEBF0FBECDBFDF91CF911F91C1
:102850000F91FF90EF90DF90CF90BF90AF909F903F
:102860008F907F906F905F904F903F902F90089542
:102870008091DA069091DB069F838E838091DC063F
:102880009091DD064E815F814817590778F48E815B
:102890009F810E949109182F8E819F8101960E942D
:1028A0009109912F212F2F7797FD05C0F50184A164
:1028B00087FFB9CFC2CF381649F082E0820F2E8150
:1028C0003F81280F311D3F832E83D8CF8E819F817A
:1028D000009761F30E949109EE81FF813296FF8398
:1028E000EE838F778F01080F111D8E819F818017D6
:1028F0009107E0F68E819F810E949109982F8F7039
:102900008F1531F12E813F812F5F3F4F9295977048
:1029100091509330D8F4C9010E949109982F929553
:10292000969596959370282F2770920F9F5F8695A6
:10293000869586958770980F2E813F812E5F3F4F39
:10294000A901490F511D5F834E83CFCF90E0F8CF8F
:10295000EE81FF81309709F4A9CFCF010E94910940
:10296000182F129517708CEF810F823058F5109345
:10297000CB061092CC061092CD061092CE06109285
:10298000CF061092D0061092D1061092D206109265
:10299000D3061092D4061092D5061092D606109245
:1029A000D706FFEFF093D8068091CB06853009F467
:1029B0003ACF843009F441CF882309F434CF8BEC2B
:1029C00096E03DCF8E819F8101960E949109082F4C
:1029D000E82EE294E694E69483E0E822E3942E81E4
:1029E0003F812E5F3F4F3F832E836E2DC9010E9492
:1029F000BB11262E7B838C839D838EEF810F8230CB
:102A000008F03FC0802F86958695869587708983CC
:102A1000F12C682F8E819F818E0D9F1D0E94BB110E
:102A20002B013C01133089F5602F6770C701398194
:102A3000830F911D4E815F81840F951F0E94BB11F2
:102A40001093CB062092CC065B815093CD06EC818F
:102A5000E093CE06FD81F093CF064092D0065092CF
:102A6000D1066092D2067092D3066093D40670931A
:102A7000D5068093D6069093D7062A812093D80650
:102A800093CF412C512C612C712C60E070E080E0E0
:102A900090E0D6CF0F931F93CF93DF93EC018B8100
:102AA0009C81860F911D9C838B838881982F9F79B1
:102AB000988391FD05C082FF03C08D79826288836F
:102AC000888181FF05C082FD03C08D798064888381
:102AD00080913A068F3F21F091E02981281301C0AF
:102AE00090E0888190FB83F9888328853985232BA2
:102AF000E1F480768032C9F40091C7061091C806CF
:102B0000B80189810E94E713FC01892B71F085854A
:102B10008D831F830E83E081F0E0EE0FFF1FE55BE6
:102B2000FE4F8081918199878887E885F985309764
:102B300041F0CE010995882321F01F821E8219865B
:102B40001886DF91CF911F910F9108951F93CF9316
:102B5000DF9300D000D000D0CDB7DEB78D839E8349
:102B6000162FAD81BE8116966D917C9117971196A7
:102B70008C910E94E713FC01892BC1F0113001F503
:102B800081819281A381B48189839A83AB83BC8341
:102B9000BC01CD010E94681389819A81AB81BC81FF
:102BA000ED81FE8182879387A487B58726960FB62D
:102BB000F894DEBF0FBECDBFDF91CF911F91089576
:102BC000123029F485819681A781B085DDCF81857A
:102BD0009285A385B485D8CFCF93DF93EC018A810A
:102BE00024E0829FC0011124682B6A831C821B820F
:102BF0006B3149F461E0CE010E94A615CE01DF9150
:102C0000CF910C942213673021F0673641F461E0D4
:102C100001C062E0CE01DF91CF910C94A61566361B
:102C200029F0623059F3DF91CF91089563E0E3CF4B
:102C3000CF92DF92EF92FF920F931F93CF93DF9388
:102C4000EC018881182F1295169513700A81EB807C
:102C5000FC8081FBCC24C0F883FBDD24D0F811304C
:102C600061F4063029F461E088ECE816F10440F1E3
:102C70001A8261E0CE010E94EC15013081F0093129
:102C800019F1063061F11230B1F180E0DF91CF919E
:102C90001F910F91FF90EF90DF90CF900895CC207F
:102CA00041F088ECE816F104A0F163E0CE010E9447
:102CB000EC15123051F788ECE816F104E0F462E00C
:102CC000CE010E94EC15E1CFCC20B9F088ECE816DB
:102CD000F104D8F063E0CE010E94EC15D4CFC1100E
:102CE000D2CF63E088ECE816F10468F2CE010E94CE
:102CF000EC1581E0CBCF1A8206C0123031F688EC99
:102D0000E816F104C0F762E0F1CF123009F0BDCF50
:102D1000FACFD110CACF123091F2B7CFCF93DF9351
:102D2000EC018A8124E0829FC0011124682B6A8310
:102D30001C821B82663049F461E0CE010E94A61518
:102D4000CE01DF91CF910C942213673021F06931CD
:102D500041F461E001C062E0CE01DF91CF910C94BB
:102D6000A615623069F3DF91CF910895CF92DF927B
:102D7000EF92FF920F931F93CF93DF93EC01888123
:102D8000182F1295169513700A81CB80DC8081FB79
:102D9000EE24E0F883FBFF24F0F8113061F40630F4
:102DA00029F461E088ECC816D10460F11A8261E070
:102DB000CE010E948E16013059F0063039F5E1102F
:102DC00005C063E088ECC816D10430F580E028C067
:102DD000EE2089F063E088ECC816D10498F4FF2057
:102DE00021F063E0CE010E948E16123079F709C0FF
:102DF000093161F70FC0123049F788ECC816D104C9
:102E000028F762E0CE010E948E16E0CF1230F1F674
:102E1000073071F71A8262E0CE010E948E1681E0BF
:102E2000DF91CF911F910F91FF90EF90DF90CF90A6
:102E30000895FC019081929596959370913039F4A4
:102E4000928361E0CF010E94A61580E00895923040
:102E5000E1F79283CF010E94221381E008958093CD
:102E600037060895809338060895AF92BF92CF92A7
:102E7000DF92FF920F931F93CF93DF930E94FE0B7D
:102E80005C010E94170CEC010E94300C8C010E9426
:102E9000490C6C01C50104960E949109F82E80939B
:102EA000D9061093DB060093DA060C0D1D1D109356
:102EB000DD060093DC06DF92CF921F928F938DE7A1
:102EC00094E09F938F930E94322B0EED16E00F90AB
:102ED0000F900F900F900F900F905801D12C80E021
:102EE00090E0DF1448F4CE010E949109C82ECE0173
:102EF00001960E9491099C2DD5018D939D935D01B2
:102F0000D3942296B0E1DB12EACF0E940711E0E1F0
:102F1000F7E088E0DF011D928A95E9F71092180723
:102F20001092190710921A0710921B0710921C0793
:102F300010921D0710921E0710921F071092200773
:102F40001092210710922207109223074091D90670
:102F500090E080E030E020E061E070E0841708F469
:102F60004DC03093C8062093C7068FEF8093C906E3
:102F70008093CA0680933A06EAE3F6E090E080E0A8
:102F80004EE03FEF489FD001499FB00D1124ED0165
:102F9000C55CD94F28812E7F288332831382A65C9B
:102FA000B94F11962C911197297F11962C93119757
:102FB0001582148211962C911197277E11962C93CD
:102FC0003683108617821286118628812F792883EE
:102FD000138614861586168601963E968A309105CC
:102FE00089F681E080933906DF91CF911F910F918F
:102FF000FF90DF90CF90BF90AF900895D801ED91F2
:10300000FD918D01F5FF09C0FB01082E02C0EE0FF6
:10301000FF1F0A94E2F72E2B3F2B01969FCF809340
:1030200037060895809338060895809139068823DD
:1030300061F1E8E1F7E080E030E020E041E050E0DD
:103040009191992339F0BA01022E01C0660F0A94BA
:10305000EAF7862B2F5F3F4F2430310589F7823006
:1030600031F481E090911C07911180E0880F8093EA
:10307000100786E0EDE1F7E0A2E1B7E001900D92E4
:103080008A95E1F780E197E0089548E050E060E03C
:1030900080E197E00E94C605F5CF8091390688232C
:1030A00009F485C080910F0790910E07981B9770C7
:1030B00009F445C0E82FF0E0EE0FFF1FE250F94F92
:1030C0009081492F42954F7021818F5F8770809347
:1030D0000F07892F827050E090FF36C0882329F0B7
:1030E00080911C078F5F80931C07E0E1F7E090E080
:1030F00080E0BA01082E02C0759567950A94E2F740
:1031000060FF03C030853F5F308701963196843081
:10311000910579F7222399F08091230796E08F5F3C
:10312000863009F480E0E82FF0E0E05FF84F358565
:10313000332311F0915099F78093230725878091CD
:10314000C7069091C8060895882339F080911C071E
:10315000882319F0815080931C07E0E1F7E090E0AC
:1031600080E0BA01082E02C0759567950A94E2F7CF
:1031700060FF05C03085332311F031503087019650
:1031800031968430910569F72223C9F2EDE1F7E029
:1031900090E080E03191321305C0805F984FFC01D0
:1031A0001586CDCF019686309105A1F7C8CF90E066
:1031B00080E00895CF93DF93C82FD62F80913906F2
:1031C000882309F448C08C2F0E949B11DC01DD2369
:1031D000E9F1892B29F590E080E02EE0289FF001AD
:1031E000299FF00D1124DF01A55CB94F3C9130FD02
:1031F0001CC0DF01A55CB94FE65CF94FC2831382A6
:10320000158214828FEF86831086178212861186AC
:103210008181807881608183138614861586168665
:10322000C0933A068C91846015C001968A3091054E
:10323000A9F61F92CF9381EA94E09F938F930E9407
:10324000322B0F900F900F900F9005C0892B19F023
:103250008C918B7F8C93DF91CF910895CF92DF92E9
:10326000EF92FF920F931F93CF93DF93C82F80911C
:103270003906882309F47FC08BE3E82E86E0F82E18
:10328000670110E000E0DEE0D09FF001D19FF00D7B
:103290001124E55CF94F808180FF0AC0F60191811D
:1032A00080913A06981721F06C2FC6010E944A15AA
:1032B0000F5F1F4FFEE0CF0ED11C0A30110521F722
:1032C00010E000E0DEE0D09FF001D19FF00D11246E
:1032D000E55CF94F808180FF0AC0F7019181809100
:1032E0003A06981304C06C2FC7010E944A150F5F5D
:1032F0001F4FFEE0EF0EF11C0A30110521F78FEF92
:1033000080933A06AAE3B6E030E020E08EE0829FA8
:10331000F001839FF00D1124E55CF94F908190FF3F
:103320000AC091FD08C019964D915C911A97452BE2
:1033300011F49E7F90832F5F3F4F1E962A303105F8
:1033400031F78091C9068F3FB1F06091CA0667FDE1
:1033500012C06C0F6093CA0663336CF08FEB94E07D
:103360000E944D2B8091C9060E9468128FEF8093B6
:10337000C9068093CA06DF91CF911F910F91FF90EC
:10338000EF90DF90CF9008951092390608950E9433
:10339000B30E81110C9435170C94C419CF93C82F18
:1033A000809142078C17A1F081ED94E0CC2311F0BD
:1033B0008EEC94E09F938F9385ED94E09F938F9391
:1033C0000E94322BC09342070F900F900F900F90E6
:1033D000CF910895CF93C82F809143078C17D9F0D0
:1033E00081ED94E0CC2311F08EEC94E09F938F93C9
:1033F00086EE94E09F938F930E94322BC0934307F5
:103400000F900F900F900F90C11105C08AE297E0C6
:10341000CF910C942A09CF910895823039F480E03D
:103420000E94EA1980E00E94CE190895803129F0A7
:10343000813131F40E94C71908950E94C41908957A
:10344000803239F0813241F0823241F0833249F0EA
:10345000089581E00C94EA1980E0FCCF81E00C949F
:10346000CE1980E0FCCFCF93DF93D82FC62FE09109
:103470004007F0914107309751F00190F081E02D25
:10348000309729F06C2F8D2FDF91CF910994D111B6
:1034900014C081E0C11101C080E080932501E0915A
:1034A0004007F0914107309729F00280F381E02D29
:1034B000309741F7DF91CF910895D13039F481E011
:1034C000C11101C080E080932401E9CFD23039F4EA
:1034D00081E0C11101C080E080932301E0CFD330AF
:1034E00039F481E0C13009F080E080932201D7CF28
:1034F000D430B1F48C2F0E940F188EEF94E0C130BD
:1035000011F48AEF94E09F938F938CE095E09F9362
:103510008F930E94322B0F900F900F900F90BFCF80
:10352000D53009F0BCCF8C2F0E94121887E095E0AF
:10353000C13011F481E095E09F938F938FE195E086
:10354000E6CFCF93DF93C82FD62FE0912407F091D9
:103550002507309709F009958091520790915307FC
:10356000009739F08C0F911DFC01C081CF3F09F409
:103570003FC0DD2379F11F92CF9384E395E09F93C1
:103580008F930E94322B0F900F900F900F908C2FE3
:103590008093200180912501882321F06D2F8C2FAD
:1035A0000E94A610E0914007F0914107309741F04A
:1035B0000680F781E02D309719F06D2F8C2F09953B
:1035C00080914307811114C06D2F8C2FDF91CF9113
:1035D0000C94DA181F92CF9380E495E09F938F9319
:1035E0000E94322B0F900F900F900F908FEFD0CF43
:1035F000DF91CF910895CF93DF93D82FC92F60919A
:10360000370770E0482F592F88E397E00E94F905AB
:1036100081110DC0E091370781E08E0F809337074D
:10362000F0E0EE0FFF1FE85CF84FD083C183DF911D
:10363000CF910895CF93DF93D82FC92F609134078E
:1036400070E0482F592F85E397E00E94F90581111A
:103650000DC0E091340781E08E0F80933407F0E0D5
:10366000EE0FFF1FEB5CF84FD083C183DF91CF914A
:1036700008959093330780933207089590935307EA
:1036800080935207089590934107809340070895CF
:1036900081E080932101089580E597E008958EE40C
:1036A00097E00895CF93DF930E94C3090E94F60A22
:1036B00083E39AE10E94D50C0E94A00D0E94870925
:1036C000EC0148E050E06BEA72E00E94500548E0EF
:1036D00050E062EE71E0CE0108960E945005CE01E6
:1036E00040960E94B9100E94C7198DE09AE1DF91BF
:1036F000CF910C94100FCF93C0E080913707C8177B
:1037000010F0CF910895EC2FF0E0EE0FFF1FE85C72
:10371000F84F0190F081E02D309719F08EE497E09A
:103720000995CF5FEACF8F929F92AF92BF92CF92CF
:10373000DF92EF92FF920F931F93CF93DF930E943C
:1037400050066B017C018091260790912707A0917C
:103750002807B091290746015701881A990AAA0A31
:10376000BB0A85E688169104A104B10428F084E61A
:10377000882E912CA12CB12CC0E06C2F80E597E015
:103780000E94E005182F6C2F8EE497E00E94E00560
:10379000D82F11119EC061E081119EC04D2F6C2F5A
:1037A00080E597E00E94C905CF5FCE3031F7882DC4
:1037B0000E942E190E944D18EC010E9415188C01D0
:1037C00080914C0790914D07C817D90709F468C03C
:1037D00080912501882319F0CE010E94AE10E0915E
:1037E0004007F0914107309739F00480F581E02DD2
:1037F000309711F0CE010995D0934D07C0934C0737
:10380000D0931D01C0931C01C1E048E050E064E486
:1038100077E0C8010E94AA05811144C08091420747
:10382000811103C0C8010E942A0948E050E0B80194
:1038300084E497E00E9450058AE495E09F938F937B
:103840000E94322BC4E4D7E00F900F900DE511E0F9
:1038500089911F928F931F930F930E94322B0F9089
:103860000F900F900F9087E0CC34D80789F787E549
:1038700095E09F938F930E94322B80914D078F93F9
:1038800080914C078F938BE595E09F938F930E94D7
:10389000322B0F900F900F900F900F900F9004C04D
:1038A000C0E0B3CFC111C8CFC0922607D09227077E
:1038B000E0922807F0922907DF91CF911F910F9195
:1038C000FF90EF90DF90CF90BF90AF909F908F9040
:1038D0000895811163CF60E08C2F0E94A11A5ECF02
:1038E00080912401882351F09091500780915107D5
:1038F000982B81E009F480E00C94282008958091B1
:103900002401882351F090914E0780914F07982B06
:1039100081E009F480E00C9428200895809123012F
:10392000882351F081E00E941A2082E090E00E94FA
:103930000D0680E00C941A200895CF93C0E080918A
:103940003407C81710F0CF910895EC2FF0E0EE0F78
:10395000FF1FEB5CF84F0190F081E02D0995CF5FE0
:10396000EECFE0913207F0913307309709F00994D8
:1039700008950E948A090E942B0F0E94850E0C94C4
:10398000C40990932507809324070895CF92DF926E
:10399000EF92FF920F931F93CF93DF93C82ED62EF3
:1039A0007A01122FD32FC0E080915A07C81730F147
:1039B000C0E080915907C81760F1C0925A07D092B1
:1039C0005907E0925707F092580710935507D09384
:1039D000560700935407C0E080915A07C81720F19A
:1039E000C0E080915907C81770F1DF91CF911F9106
:1039F0000F91FF90EF90DF90CF900895E0915707DF
:103A0000F0915807EC0FF11D80810E940F07CF5FE6
:103A1000CBCFE0915507F0915607EC0FF11D808157
:103A20000E940F07CF5FC5CFE0915707F09158076D
:103A3000EC0FF11DD0818D2F0E94E6068D2F0E9484
:103A40008607CF5FC9CFE0915507F0915607EC0F7D
:103A5000F11D80810E940F07CF5FC3CFCF92DF920D
:103A6000EF92FF920F931F93CF93DF93082FF92EBE
:103A7000D0E0E12CDD24D39480915A07D81748F088
:103A8000DF91CF911F910F91FF90EF90DF90CF903A
:103A90000895E0915707F0915807ED0FF11DC08090
:103AA0008C2D0E94890781E090E00E941C06C0E0F6
:103AB0001E2D1C0F80915907C81730F08C2D0E94C5
:103AC0008607DF5FE12ED8CFE0915507F0915607CA
:103AD000EC0FF11D80810E944107482F4D258091F8
:103AE0005407612F680F802F9F2D0E94C905CF5F5B
:103AF000DFCF80916C07882341F080936B00809129
:103B00006800816080936800089510926B00809136
:103B100068008E7FF7CF1F920F920FB60F9211247D
:103B2000BF92CF92DF92EF92FF920F931F932F934A
:103B30003F934F935F936F937F938F939F93AF9335
:103B4000BF93CF93DF93EF93FF93B3B00BE517E0F1
:103B5000D0E0C0E0EE24E394F12CCB2CD12CA701D3
:103B60000C2E02C0440F551F0A94E2F7960124233D
:103B7000352380916B0790E08423952341E018164C
:103B800019060CF040E081E0121613060CF080E0FC
:103B9000481761F062E0232B09F061E070E0D80182
:103BA000ED91FC91309711F0CE01099521960E5FB1
:103BB0001F4FC830D10599F6B0926B07FF91EF9176
:103BC000DF91CF91BF91AF919F918F917F916F9135
:103BD0005F914F913F912F911F910F91FF90EF9027
:103BE000DF90CF90BF900F900FBE0F901F90189551
:103BF000EF92FF920F931F93CF93DF93EC017B0122
:103C00008830910530F501E010E001C0000F8A9581
:103C1000EAF780916C07802B80936C078C2F0E94B1
:103C2000410790916B07882389F0902B90936B0745
:103C3000CC0FDD1FC55AD84FE882F982DF91CF91B2
:103C40001F910F91FF90EF900C94791D0095902398
:103C5000EDCFDF91CF911F910F91FF90EF900895DD
:103C60008770992721E030E0082E01C0220F0A94C6
:103C7000EAF7209530916C07232320936C07880F77
:103C8000991FFC01E55AF84F118210820C94791D9E
:103C90002F923F924F925F926F927F928F929F925C
:103CA000AF92BF92CF92DF92EF92FF920F931F934A
:103CB000CF93DF933C01C1E7D7E0D12CC12C10E0BA
:103CC00000E026E0422EAA24A394B12C22242394BF
:103CD0008091790790917A07081719079CF0DF9176
:103CE000CF911F910F91FF90EF90DF90CF90BF90F9
:103CF000AF909F908F907F906F905F904F903F908C
:103D00002F900895E0907707F0907807EC0CFD1C59
:103D1000F70180818615170409F083C082E390E0E3
:103D20000E941C06F70180810E944107582EF82F3F
:103D3000FF703F2E409EC001419E900D11249C01BA
:103D40002F58384F4901F90180818F70831509F48C
:103D500068C0F70181810E944107F40190819F7042
:103D600009F466C0252D222530E0811168C006C007
:103D700021E030E0511004C020E030E0220F331F7A
:103D8000922F409EF001419EF00D1124EF58F84F04
:103D90008081807F8032C9F42330C1F58D81F501A7
:103DA00002C0EE0FFF1F8A95E2F7CF01092E000C2B
:103DB000AA0BBB0B49815A816B817C81842B952B8B
:103DC000A62BB72B1CC023E0DBCF8034F9F4913055
:103DD000E9F48D81A50102C0440F551F8A95E2F7D1
:103DE000CA0180959095092E000CAA0BBB0B498146
:103DF0005A816B817C8184239523A623B7238983F1
:103E00009A83AB83BC838D818F5F8D83409EF0014D
:103E1000419EF00D1124EF58F84F2295207F232961
:103E200020830F5F1F4F2696F3E0CF0ED11C50CF9B
:103E3000882309F49DCF20E030E05110C4CF220F39
:103E4000331F220F331F9CCFCF92DF92EF92FF924E
:103E50000F931F93CF93DF93C82F162FD72FD12CFB
:103E6000C12CF12CE12C8091790790917A07E8160A
:103E7000F906F4F08C2F90E090937A0780937907FD
:103E800010937707D0937807F12CE12C10E000E035
:103E90008091790790917A0708171907D4F0DF917C
:103EA000CF911F910F91FF90EF90DF90CF900895E9
:103EB000E0917707F0917807EC0DFD1D808190E08F
:103EC0000E94301E8FEFE81AF80A83E0C80ED11C5A
:103ED000CACFC0917707D0917807CE0DDF1D8881BA
:103EE0000E940F0789810E940F07888168E47EE1A4
:103EF00090E00E94F81D0F5F1F4F83E0E80EF11C59
:103F0000C7CF9F92AF92BF92CF92DF92EF92FF9274
:103F10000F931F93CF93DF93B82EA92EC1E7D7E05D
:103F2000D12CC12CF12CE12C8091790790917A074A
:103F3000E816F90664F0DF91CF911F910F91FF9081
:103F4000EF90DF90CF90BF90AF909F900895009139
:103F50007707109178070C0D1D1D40916D0750914A
:103F60006E0760916F07709170074F5F5F4F6F4FE3
:103F70007F4F40936D0750936E0760936F07709368
:103F800070074370552766277727452B462B472B0D
:103F900079F58D81882361F149815A816B817C811A
:103FA000942F9170992E76956795579547954983EB
:103FB0005A836B837C8381508D8341E0911040E074
:103FC000F80162818B2D9A2D0E94C90541E094125F
:103FD00040E0F80162816F5F8B2D9A2D0E94C90528
:103FE000FFEFEF1AFF0A269683E0C80ED11C9CCF84
:103FF00082E0982EE2CFCF93C42F80932701609365
:10400000260140937B078F3F39F00E94E6066C2F14
:10401000809127010E942A07809126018F3F41F05D
:104020000E94E6066C2F80912601CF910C942A07FE
:10403000CF910895682F809127018F3F41F0909193
:104040007B07992311F091E069270C942A070895C2
:10405000682F809126018F3F41F090917B07992333
:1040600011F091E069270C942A07089580912701A7
:104070008F3F11F00C945D070895809126018F3FCA
:1040800011F00C945D07089541E065E180E00C9427
:10409000FB1FCF93DF93D82FC62F8CE30E942A0AF1
:1040A00080E00E943C0A8D2F806B0E943C0A8C2F7E
:1040B0008F700E943C0A8C2F82958F7080610E94C5
:1040C0003C0ADF91CF910C94460ACF93DF930E9474
:1040D000C5098CE30E942A0AC6E9D5E0FE01859154
:1040E000EF010E943C0AF5E0CC3ADF07B9F70E94E5
:1040F000460A10927C0780EA80937D0780EC8093CB
:104100007E0743E050E06CE777E08CE3DF91CF91EE
:104110000C94CF090F931F93CF93C0E060E08C2FD6
:104120000E9449208CE30E942A0A80E40E943C0AF3
:1041300000E810E080E00E943C0A01501109D1F72C
:104140000E94460ACF5FC43049F7CF911F910F916B
:104150000895CF92DF92EF92FF920F931F93CF9328
:10416000DF937C01D0E0C0E060E08C2F0E9449200A
:104170008CE30E942A0A80E40E943C0A10E000E0DE
:104180006701CC0EDD1EF801EE0FFF1FEE0FFF1FC3
:10419000EC0DFD1D84910E943C0A0F5F1F4F0038FB
:1041A000110589F70E94460A2196C430D105E1F62F
:1041B000DF91CF911F910F91FF90EF90DF90CF9003
:1041C00008959093E9078093E8077093E707609359
:1041D000E6075093E5074093E40708958F929F9276
:1041E000AF92BF92CF92DF92EF92FF92CF93DF9385
:1041F000E0E8F7E020E937E0812C912C540183942A
:10420000D90190E080E04D914423C9F0ED01219760
:104210001882408151816281738175016401082E89
:1042200004C0CC0CDD1CEE1CFF1C0A94D2F74C29F8
:104230005D296E297F2940835183628373830196B0
:104240008531910501F734962B5E3F4F87E0E039C9
:10425000F807B1F6DF91CF91FF90EF90DF90CF900C
:10426000BF90AF909F908F9008958F929F92AF9242
:10427000BF92CF92DF92EF92FF920F931F93CF9353
:10428000DF93942F252F641B35E1839FA001112418
:104290004057584F34E0839FF0011124E058F84F05
:1042A000C12CD12C7601C394762F790FA92FB22F70
:1042B0008D9181110DC0DF91CF911F910F91FF90D2
:1042C000EF90DF90CF90BF90AF909F908F90089528
:1042D000EA01C70FD11D9881282F082E000C330B3F
:1042E00092171306B1F088834601570104C0880C69
:1042F000991CAA1CBB1C7A95D2F7008111812281DE
:104300003381082919292A293B2900831183228313
:1043100033839A2F2B2FC8CF7F928F929F92AF9289
:10432000BF92CF92DF92EF92FF920F931F93CF93A2
:10433000DF936091E6077091E7078091E407909121
:10434000E507680F791F80E890E00E947A285B01FA
:1043500080E9E82E87E0F82E90E8C92E97E0D92E64
:10436000712CD0E0C0E048C0F60180819181A2812B
:10437000B3810C2E04C0B695A795979587950A949E
:10438000D2F780FF38C0F701EC0FFD1F108160915C
:10439000E6077091E7078091E4079091E507680FC1
:1043A000791F6C9F602D1124872D0E9449208CE37A
:1043B0000E942A0A80E40E943C0A112309F458C092
:1043C000812F110F990B80972091E6073091E70715
:1043D000829F8001839F100D929F100D1124912CBC
:1043E000812C8091E6079091E707881699060CF4D6
:1043F00042C00E94460A2196CA15DB050CF4B4CFD0
:10440000E5E1EE0EF11C7394F4E0CF0ED11C24E034
:104410007212A7CF10928007109281071092820724
:1044200010928307109284071092850710928607D6
:1044300010928707109288071092890710928A07B6
:1044400010928B0710928C0710928D0710928E0796
:1044500010928F07DF91CF911F910F91FF90EF90F6
:10446000DF90CF90BF90AF909F908F907F900895F6
:1044700000E010E0B4CFE091E807F091E907E80D23
:10448000F91DE00FF11F84910E943C0A8FEF881AFA
:10449000980AA7CF90932D0180932C0108959093B3
:1044A0002B0180932A0160932901409328010895EC
:1044B0000E9465204091280150E06091290170E040
:1044C00080912A0190912B010C94E1200F931F936E
:1044D000CF93DF938091EA0781110BC080912C016B
:1044E00090912D010097A9F00E94A9208091EA07E0
:1044F00006C090912101911105C08C3340F48F5F6B
:104500008093EA07DF91CF911F910F9108958C332B
:1045100019F40E948A20EACF80912A0190912B0100
:10452000892B81F349E655E070E060E090E080E09F
:104530000E943521E0911E01F0911F0187815DE20B
:1045400081115BE286814DE281114BE285813DE282
:1045500081113BE284812DE281112BE283819DE276
:1045600081119BE282818111A2C08DE21F925F9333
:104570001F924F931F923F931F922F931F929F93CF
:104580001F928F9380E795E09F938F938CEE97E037
:104590009F938F930E94792B4CEE57E06FE070E071
:1045A00090E080E00E943521809120012DB73EB738
:1045B000205F3F4F0FB6F8943EBF0FBE2DBF8F3F19
:1045C00009F477C0E0911E01F0911F01DF011296FE
:1045D0009F01285F3F4F1D91111103C02A173B0710
:1045E000D1F700811F928F938DE795E09F938F9372
:1045F000CCEED7E0DF93CF930E94792BAE0170E031
:1046000060E083E090E00E9435211F921F9383E8D1
:1046100095E09F938F93DF93CF930E94792BAE0108
:1046200066E070E083E090E00E9435211F920F93D6
:1046300089E895E09F938F93DF93CF930E94792B26
:10464000AE016DE070E083E090E00E9435212DB76F
:104650003EB72E5E3F4F0FB6F8943EBF0FBE2DBF44
:1046600080911C0190911D0199279F938F938FE951
:1046700095E09F938F938CEE97E09F938F930E948A
:10468000792B4CEE57E062E170E083E090E00E940D
:1046900035210E948C218091EB078F5F8093EB077F
:1046A0000F900F900F900F900F900F902BCF8BE2E9
:1046B0005DCF6EE875E08CEE97E00E942B2B4CEE00
:1046C00057E070E060E083E090E00E94352164E90B
:1046D00075E08CEE97E00E942B2B4CEE57E066E0E5
:1046E00070E083E090E00E9435216AE975E08CEE8D
:1046F00097E00E942B2B4CEE57E06DE070E083E0DA
:1047000090E00E943521ACCF0C941F28CF93DF930B
:10471000D82FC62F872F0E9422288D2F0E94222853
:104720008C2FDF91CF910C942228CF92DF92EF92C1
:10473000FF920F931F93CF93DF9300D000D0CDB79C
:10474000DEB7E62F582F242F30E0A72FB0E00E94CD
:10475000CF286B017C01CC242E2F30E0A42FB0E0B9
:104760000E94CF28BB27A92F982F872FC82AD92A84
:10477000EA2AFB2A242F30E0A52FB0E00E94CF28A0
:10478000BB27A92F982F872FDC019927882797010E
:104790008601082B192B2A2B3B2B09831A832B8389
:1047A0003C83C901B8010F900F900F900F90DF91DB
:1047B000CF911F910F91FF90EF90DF90CF900C94CD
:1047C0008623CF93DF9300D000D0CDB7DEB7E09142
:1047D000FA07ED3008F0E0E084E0E89FF0011124F2
:1047E000EF56F64F85919591A591B591BC01CD01FC
:1047F0000F900F900F900F90DF91CF9108952F920F
:104800003F924F925F926F927F928F929F92AF9260
:10481000BF92CF92DF92EF92FF920F931F93CF93AD
:10482000DF93CDB7DEB760970FB6F894DEBF0FBE4B
:10483000CDBF8090F5079090F607A090F707B09055
:10484000F807C501B40126E930E040E050E00E94DD
:104850008E2869837A838B839C830E94052A20E0BB
:1048600030E046E153E469837A838B839C836981DA
:104870007A818B819C810E946429F62E172F8F8369
:104880009D830E94E1234B015C014FEF8416940647
:10489000A406B10431F438E8832E99249A94A92C03
:1048A000B12C340155244424442455247724BB27B7
:1048B000AB2D9A2D892D482A592A6A2A7B2A20E075
:1048C00030E040E450E4F9821A836F816B837D818C
:1048D0007C8369817A818B819C810E94B72A8B01BC
:1048E00089879F8320E030E040E85FE369831A8393
:1048F0008B839C8369817A818B819C810E945F2953
:1049000087FD2AC0FA2CE92CD82CCC24CC24FF24F7
:10491000C501AA27BB27C82AD92AEA2AFB2A20E0F0
:1049200030E040E050E469817A818B819C810E9473
:104930005F2987FF78C020E030E040E85FE36981CD
:104940007A818B819C810E94F2288B0189879F83C9
:10495000530142012601370120913001309131018C
:10496000032E000C440B550B60E070E081E090E0FA
:104970000E94B0283E832D830E942B0620E030E069
:1049800040E853E409831A8389858B839F819C8344
:1049900069817A818B819C810E94B72A69837A839D
:1049A0008B839C8369817A818B819C810E94D6292B
:1049B000A3E06A9F60011124EA2DF0E0F887EF83FD
:1049C000262C312C492D50E05A874987E52CF12CB3
:1049D0001982682D70E0788B6F87042D10E0898034
:1049E000282D30E08091300190913101281739074E
:1049F00094F160960FB6F894DEBF0FBECDBFDF9185
:104A0000CF911F910F91FF90EF90DF90CF90BF90CB
:104A1000AF909F908F907F906F905F904F903F905E
:104A20002F900C94290620E030E040E050E4098308
:104A30001A8369856B837F817C8369817A818B810D
:104A40009C810E94F2288B0189879F832401350174
:104A50004601570181CF8D809E80289DC001299DF0
:104A6000900D389D900D1124892F9927880F991F3B
:104A70009601281B390B2F3F310519F014F02FEF49
:104A800030E037FF02C020E030E04FEF50E0421B43
:104A9000530BAF80B8844A9D20014B9D500C5A9D0A
:104AA000500C1124229DC001239D900D329D900D2C
:104AB0001124480E591E452C5524712C612C3201AD
:104AC0005524442489849A84489DC001499D900DB1
:104AD000589D900D11242E9DB0012F9D700D3E9D6F
:104AE000700D1124860F971F892F9927B0E0A0E041
:104AF000BA2FA92F982F882784299529A629B72965
:104B0000AF84B888A49EB001A59E700DB49E700DB0
:104B10001124029FA001039F500D129F500D1124DC
:104B2000640F751F672F7727AB0170E060E04C01C1
:104B30005D01842A952AA62AB72A8B869C86AD8693
:104B4000BE864091F907C501B4010E9495234981B1
:104B50004F5F498344CFAF92BF92CF92DF92EF92E3
:104B6000FF920F931F93CF93DF9300D000D000D01C
:104B7000CDB7DEB70E94E123F62EE72ED82EC92E40
:104B8000A0903001B09031019501220F331F3E8378
:104B90002D838091F5079091F607A091F707B091CA
:104BA000F8079C01AD0156954795379527952983C0
:104BB0003A834B835C838D819E819C01990F440BCA
:104BC000550B69817A818B819C810E948E28698333
:104BD0007A838B839C8309811A81A016B10634F4F1
:104BE0000D811E8129813A81021B130B0E942B0625
:104BF0001A821982809130019091310149815A8144
:104C00004817590794F026960FB6F894DEBF0FBEEA
:104C1000CDBFDF91CF911F910F91FF90EF90DF906B
:104C2000CF90BF90AF900C9429064091F9078981ED
:104C30009A818017910769F060E070E080E090E071
:104C40000E94952329813A812F5F3F4F3A83298320
:104C5000D1CF6F2D7E2D8D2D9C2DF2CFDF92EF9237
:104C6000FF920F931F93CF93DF930E94E123162FA0
:104C7000072FF82EE92E2091F5073091F60783E0F3
:104C8000220F331F8A95E1F73170213041E034075C
:104C900034F080E092E0AC01421B530B9A0140914A
:104CA000F907429FC001439F900D1124D92E0E9405
:104CB0002B06D0E0C0E08091300190913101C817FF
:104CC000D9074CF0DF91CF911F910F91FF90EF909A
:104CD000DF900C9429064D2D612F702F8F2D9E2D66
:104CE0000E9495232196E7CFEF92FF920F931F9397
:104CF000CF93DF930E94E123162F072FF82EE92E82
:104D00000E942B06D0E0C0E08091300190913101EB
:104D1000C817D90744F0DF91CF911F910F91FF90F1
:104D2000EF900C9429064091F907612F702F8F2D79
:104D30009E2D0E9495232196E7CF863039F481E09D
:104D4000611101C080E08093FB070895873019F45A
:104D50006093FA070895883041F4669FB0011124EA
:104D600081E0870F8093F9070895893011F46093EB
:104D7000F40708950F931F93CF93DF9300D000D0D3
:104D800000D0CDB7DEB78091F5079091F607A091DE
:104D9000F707B091F807BC01CD0124E130E040E015
:104DA00050E00E948E2869837A838B839C83672BD3
:104DB000682B692B09F048C00E942B061E821D82B9
:104DC0000DEE15E180913001909131012D813E81F0
:104DD0002817390764F026960FB6F894DEBF0FBE89
:104DE000CDBFDF91CF911F910F910C942906209197
:104DF0002E0130912F01209FC001219F900D309FE7
:104E0000900D1124419690932F0180932E016DE017
:104E10000E946E28A4E09A9FF0011124EF56F64FED
:104E200085919591A591B59189839A83AB83BC8334
:104E30004091F907BC01CD010E949523AD81BE814F
:104E40001196BE83AD83BECF26960FB6F894DEBF13
:104E50000FBECDBFDF91CF911F910F9108956CE0F0
:104E600087E00E94F80C64E089E00C94F80C8DE96E
:104E700096E20E94D50C0C9484238CE090E09093F1
:104E80003101809330010895CF93DF9300D000D09B
:104E9000CDB7DEB70E94500669837A838B839C83EB
:104EA000DC01CB0126E0B695A795979587952A95C5
:104EB000D1F78093F5079093F607A093F707B09387
:104EC000F8078091FB07811121C00E942B061A82EE
:104ED0001982809130019091310129813A812817FE
:104EE000390744F00F900F900F900F90DF91CF9102
:104EF0000C94290660E070E0CB010E948623298192
:104F00003A812F5F3F4F3A832983E3CFE091F40743
:104F1000E53078F4F0E0EE0FFF1FE957F64F05900B
:104F2000F491E02D0F900F900F900F90DF91CF91A3
:104F300009940F900F900F900F90DF91CF910895EB
:104F4000CF93DF93CDB7DEB728970FB6F894DEBFC7
:104F50000FBECDBF0E9467060E94521B0E94EE0842
:104F60000E94290619821A821B821C8288E2C82E9E
:104F7000D12CE12CF12C90E3892E912CA12CB12C79
:104F800020EA422E2FE0522E612C712C89819A81C9
:104F9000AB81BC8183709927AA27BB27892B8A2BD9
:104FA0008B2B31F40E947B1B0E94931B0E94701C70
:104FB00069817A818B819C81A70196010E948E284C
:104FC000613071058105910531F469817A818B81A8
:104FD0009C810E949D1C69817A818B819C81A501A5
:104FE00094010E948E28623071058105910531F48B
:104FF00069817A818B819C810E94B11C69817A814F
:105000008B819C81A30192010E948E2863307105DF
:105010008105910511F40E948E1C0E94B91C81E04B
:1050200090E00E940D0689819A81AB81BC81019636
:10503000A11DB11D89839A83AB83BC83A7CF849ABA
:105040008C98089598E0880F30F08C9A000000004A
:1050500000008C98000088F48C9A0000000000008A
:1050600000000000000000000000000000008C981C
:1050700000000000000000000000880F9A9521F752
:1050800008950E9444200E94CA060E94582286E683
:1050900092E20E94391B0E942F270E94372784E446
:1050A00097E20E941A1B00E026E531E04AE551E054
:1050B00064E083E00E94C61C8EE29DE10E94FB1A20
:1050C00081E89FE10E94FB1A62E371E081E00E94A7
:1050D000241F0E94A02790E080E00895991B79E0AA
:1050E00004C0991F961708F0961B881F7A95C9F778
:1050F0008095089597FB072E16F4009407D077FD4E
:1051000009D00E94DE2807FC05D03EF490958195D9
:105110009F4F0895709561957F4F0895A1E21A2ED3
:10512000AA1BBB1BFD010DC0AA1FBB1FEE1FFF1F4B
:10513000A217B307E407F50720F0A21BB30BE40B9B
:10514000F50B661F771F881F991F1A9469F76095E2
:105150007095809590959B01AC01BD01CF0108959C
:10516000052E97FB1EF400940E94C72857FD07D018
:105170000E948E2807FC03D04EF40C94C72850954B
:105180004095309521953F4F4F4F5F4F0895909533
:105190008095709561957F4F8F4F9F4F0895A29F87
:1051A000B001B39FC001A39F700D811D1124911DFB
:1051B000B29F700D811D1124911D0895AA1BBB1B68
:1051C00051E107C0AA1FBB1FA617B70710F0A61B07
:1051D000B70B881F991F5A95A9F780959095BC0128
:1051E000CD0108955058BB27AA270E940A290C9484
:1051F0007D2A0E946F2A38F00E94762A20F039F426
:105200009F3F19F426F40C946C2A0EF4E095E7FB0A
:105210000C94662AE92F0E948E2A58F3BA17620767
:1052200073078407950720F079F4A6F50C94B02A4B
:105230000EF4E0950B2EBA2FA02D0B01B9019001B1
:105240000C01CA01A0011124FF27591B99F0593FF5
:1052500050F4503E68F11A16F040A22F232F342F3D
:105260004427585FF3CF469537952795A795F0408B
:105270005395C9F77EF41F16BA0B620B730B840BA0
:10528000BAF09150A1F0FF0FBB1F661F771F881F58
:10529000C2F70EC0BA0F621F731F841F48F48795B0
:1052A00077956795B795F7959E3F08F0B0CF9395A2
:1052B000880F08F09927EE0F9795879508950E941B
:1052C000422A08F481E008950E9478290C947D2AEE
:1052D0000E94762A58F00E946F2A40F029F45F3F1E
:1052E00029F00C94662A51110C94B12A0C946C2A62
:1052F0000E948E2A68F39923B1F3552391F3951BED
:10530000550BBB27AA2762177307840738F09F5FE6
:105310005F4F220F331F441FAA1FA9F335D00E2E53
:105320003AF0E0E832D091505040E695001CCAF7C0
:105330002BD0FE2F29D0660F771F881FBB1F261783
:1053400037074807AB07B0E809F0BB0B802DBF015A
:10535000FF2793585F4F3AF09E3F510578F00C9429
:10536000662A0C94B12A5F3FE4F3983ED4F3869505
:1053700077956795B795F7959F5FC9F7880F911D4A
:105380009695879597F90895E1E0660F771F881F36
:10539000BB1F621773078407BA0720F0621B730BE9
:1053A000840BBA0BEE1F88F7E09508950E94962AA9
:1053B00088F09F5798F0B92F9927B751B0F0E1F0D6
:1053C000660F771F881F991F1AF0BA95C9F714C086
:1053D000B13091F00E94B02AB1E008950C94B02A47
:1053E000672F782F8827B85F39F0B93FCCF38695BF
:1053F00077956795B395D9F73EF49095809570951C
:1054000061957F4F8F4F9F4F0895E89409C097FB98
:105410003EF490958095709561957F4F8F4F9F4F8B
:105420009923A9F0F92F96E9BB279395F6958795CF
:1054300077956795B795F111F8CFFAF4BB0F11F492
:1054400060FF1BC06F5F7F4F8F4F9F4F16C0882339
:1054500011F096E911C0772321F09EE8872F762F6F
:1054600005C0662371F096E8862F70E060E02AF0B0
:105470009A95660F771F881FDAF7880F969587959C
:1054800097F90895990F0008550FAA0BE0E8FEEF71
:1054900016161706E807F907C0F012161306E407F8
:1054A000F50798F0621B730B840B950B39F40A26F1
:1054B00061F0232B242B252B21F408950A2609F4CF
:1054C000A140A6958FEF811D811D089597F99F67D3
:1054D00080E870E060E008959FEF80EC089500247C
:1054E0000A941616170618060906089500240A9449
:1054F00012161306140605060895092E0394000CCF
:1055000011F4882352F0BB0F40F4BF2B11F460FF5D
:1055100004C06F5F7F4F8F4F9F4F089557FD905886
:10552000440F551F59F05F3F71F04795880F97FB67
:10553000991F61F09F3F79F0879508951216130621
:105540001406551FF2CF4695F1DF08C01616170650
:105550001806991FF1CF8695710561050894089585
:10556000E894BB2766277727CB0197F908950E9417
:10557000CA2A0C947D2A0E946F2A38F00E94762A4B
:1055800020F0952311F00C94662A0C946C2A1124B7
:105590000C94B12A0E948E2A70F3959FC1F3950F47
:1055A00050E0551F629FF001729FBB27F00DB11DA7
:1055B000639FAA27F00DB11DAA1F649F6627B00D37
:1055C000A11D661F829F2227B00DA11D621F739F20
:1055D000B00DA11D621F839FA00D611D221F749F2E
:1055E0003327A00D611D231F849F600D211D822F75
:1055F000762F6A2F11249F5750409AF0F1F088239C
:105600004AF0EE0FFF1FBB1F661F771F881F9150C8
:105610005040A9F79E3F510580F00C94662A0C94E7
:10562000B12A5F3FE4F3983ED4F38695779567956A
:10563000B795F795E7959F5FC1F7FE2B880F911DF2
:105640009695879597F90895DC0101C06D934150B7
:105650005040E0F70895FB01DC0101900D9200201D
:10566000E1F70895B0E0A0E0E8E3FBE20C945E2EE1
:10567000FE01359661917191AF018091FE07909185
:10568000FF070E949C2BE2E00C947A2E6091FE07AB
:105690007091FF070E94852D08950F931F93CF935C
:1056A000DF93E091FE07F091FF07238100E010E017
:1056B00021FD0EC00FEF1FEFC801DF91CF911F91A9
:1056C0000F9108950995892B11F00FEF1FEFCE016F
:1056D000EC0189916091FE077091FF07DB0118963C
:1056E000ED91FC918111EECF8AE00995892B21F390
:1056F000E1CFAEE0B0E0EFE7FBE20C945C2E0D8969
:105700001E8986E08C831A8309838FEF9FE79E832F
:105710008D83AE01475E5F4F6F89788DCE01019614
:105720000E949C2B2F813885020F131FF8011082D5
:105730002E96E4E00C94782EAFE0B0E0E2EAFBE2D3
:105740000C944E2E7C013B018A01DC0117961C92C1
:105750001E92169713968C9181FFBEC19AE0292E56
:10576000FE0131964F01D70113969C91F30193FDF1
:10577000859193FF81913F01882309F444C18532CB
:1057800039F493FD859193FF81913F01853229F48E
:10579000B70190E00E94852DE6CFB12C412C512C11
:1057A000BFE1B51538F08B3209F188F4803201F190
:1057B000833221F157FC3AC020ED280F2A3040F502
:1057C00056FE1FC0B29C200D1124B22E06C08D3291
:1057D00091F0803379F7689450F8F30193FD859147
:1057E00093FF81913F018111DBCF20C0689451F874
:1057F000689452F8F2CF689453F8EFCF689454F855
:10580000ECCF429C200D1124422E689455F8E5CF30
:105810008E3229F456FCF7C0689456F8DECF8C36E9
:1058200019F4689457F8D9CF8836B9F2982F9F7D2C
:1058300095549330C0F0833681F18337A1F18335DD
:1058400009F05BC0D801CD90DD908D016B2D70E02B
:1058500056FC02C06FEF7FEFC6010E946F2D5C0106
:10586000689457F80AC00C5F1F4FEFE3E983AA243E
:10587000A394B12C6401E89457F853FE29C0342C4A
:10588000A114B10451F5332009F46DCFB70180E2C2
:1058900090E00E94852D3A94F6CFD8018C918983AF
:1058A0000E5F1F4FE4CFF801C190D1908F016B2D97
:1058B00070E056FC02C06FEF7FEFC6010E947A2DA8
:1058C0005C01D9CFB70180E290E00E94852D4A9417
:1058D0004A141B0409F0B0F7D2CFF60157FC8591AA
:1058E00057FE81916F01B70190E00E94852D311024
:1058F0003A94B1E0AB1AB108C3CF843619F08936B7
:1059000009F071C0F80157FE67C0619171918191F2
:1059100091918F01E52DEF76DE2E97FF09C09095CE
:105920008095709561957F4F8F4F9F4F6894D7F802
:105930002AE030E0A4010E94B52DC82EC818AC2C76
:105940005D2CD6FE0CC0E89450F8CB1440F4D4FE85
:1059500005C0D2FC03C05D2D5E7E552EAB2C54FEDF
:1059600093C0FE01EC0DF11D8081803309F085C0EC
:10597000652D697E562E752D7870372E53FC93C099
:1059800050FE8DC0BC2CA41410F4B40CBA1854FEF4
:1059900090C0B70180E390E00E94852D52FE07C0C1
:1059A00088E751FC88E590E0B7010E94852DCB1473
:1059B00008F48BC0CA94D12C8FEFC81AD80AC80C2F
:1059C000D91CD6018E916D01B70190E00E94852D02
:1059D0008C149D04B1F757CF61917191072E000C83
:1059E000880B990B96CFD52CE894D4F82AE085370C
:1059F00029F1F52DF97FDF2E8037A1F058F4883595
:105A0000A1F08F36D1F0F701868197812F96E2E1E0
:105A10000C946A2E8837B9F7D4FE02C06894D2F885
:105A200020E10CC06894D4F8F7CF54FE03C02F2FA8
:105A30002660D22E20E132E002C028E030E0F801FA
:105A4000D7FE15C041915191619171914C875D874D
:105A50006E877F878F01A4016C857D858E859F85EC
:105A60000E94B52DC82EC818E894D7F868CF819148
:105A70009191AC0170E060E0E9CF52FC02C0A394C8
:105A80007ACFA394A39477CF852D867809F473CF2A
:105A9000F6CFB70180E290E00E94852DA394A41474
:105AA000C0F3312C74CF342C3A18A41408F46FCFFF
:105AB000F8CF852D867809F47ACF8BE251FE80E20B
:105AC00057FC8DE2B70190E070CFB70180E390E022
:105AD0000E94852DBA946BCF8FEF9FEF97CFFC017B
