:100000000C9461030C947E030C947E030C947E0389
:100010000C947E030C947E030C947E030C947E035C
:100020000C947E030C947E030C947E060C94A20622
:100030000C947E030C947E030C947E030C947E033C
:100040000C947E030C947E030C947E030C947E032C
:100050000C947E030C947E030C947E030C947E031C
:100060000C947E030C947E030C947E030C947E030C
:100070000C947E030C947E030C947E030C947E03FC
:100080000C94B6040C947E030C947E030C947E03B3
:100090000C947E030C947E030C947E030C947E03DC
:1000A0000C947E030C947E030C947E0300010000EC
:1000B0008E021200020000AA015B00220000720200
:1000C0001C00210000BC0109002201003202400096
:1000D000210100DC01090022020005022D0021029D
:1000E00000F5010900030000A601040103090494BE
:1000F0000110020309045001420303090400014EE8
:100100004E0330003000300030003000300030004E
:10011000300030003000300030003000300030005F
:10012000300030003000300030003000300030004F
:10013000300030003000300030003000300030003F
:10014000300030003000300030003000300000005F
:10015000420330003000300030003000300030000A
:10016000300030003000300030003000300030000F
:1001700030003000300030003000300030003000FF
:1001800030003000300030003000300030003000EF
:100190003000000010034B00650072006D00690024
:1001A0007400650000000403090409025B000301F8
:1001B00000C03209040000020300000009211101FF
:1001C0000001221C0007058103400002070502030D
:1001D0004000080904010001030101000921110187
:1001E0000001224000070583030800010904020002
:1001F0000103010200092111010001222D00070560
:10020000840308000105010902A10105091901295A
:10021000031500250195037501810295017505817E
:10022000030501093009311581257F750895028183
:1002300006C005010906A10175019508050719E029
:1002400029E71500250181029501750881039505AF
:10025000750105081901290591029501750391039E
:1002600095067508150026FF000507190029FF816E
:1002700000C006ABFF0A0002A1017508150026FFA9
:1002800000954009018102954009029102C01201C6
:1002900000020000002055F077A5000101020301D3
:1002A0000154030400000002560305000000032F60
:1002B000060600000004580307000000055A030862
:1002C000000000065C0309000000075E030A00004E
:1002D000000860030B00000009CC030C0000000ABA
:1002E00062030D0000000B64030E0000000C6603A7
:1002F0000F0000000D6803100000000E6A031100DB
:1003000000000F6C0312000000106E0313000000C9
:10031000117003140000001272031500000013F79F
:10032000041600000014740317000000157603186B
:1003300000000016780319000000177A031A000065
:1003400000187C031B000000197E031C0000001A2B
:1003500080031D0000001B1902270200001CD602AA
:100360001E0200001DB5031F0200001EFB04200238
:1003700000001FFF042102000020030522020000EC
:1003800021070523020000220B0524020000230F91
:1003900005250200002413052602000025820329FA
:1003A0000000002686032C00000027EC0428000033
:1003B00000288C032B00000029F6042A0000002AE4
:1003C00090033A0000002B93033B0000002C96039F
:1003D0003C0000002D99033D0000002E9C033E00D0
:1003E00000002F9F033F00000030A20340000000E8
:1003F00031A5034100000032A8034200000033ABE6
:10040000034300000034AF034400000035B303454C
:1004100000000058B803E100000057BF03E00000EF
:100420000059C503E20000005ACA03E30000009F20
:10043000B703E10000009EBE03E0000000A0C4037B
:10044000E2000000A1C903E3000000A3CE03E50021
:100450000000A2D503E4000000A4DB03E6000000D6
:10046000A5E003E70000005BE5034A0000005CEA4A
:10047000034D0000005DEE03490000005EF5034CF3
:100480000000005FFC034B0000006003044E00000E
:1004900000610A0450000000620F044F0000006376
:1004A000000452000000641504510000006A1A04A0
:1004B000350000006B2204880000006D2C048A00C7
:1004C00000006C33048B00000036CD043702370285
:1004D00037390436023602383B041E011E01393D0D
:1004E00004380138013A3F04330134023B410433FC
:1004F0000233023C43042D0187013DE1042E013308
:10050000013EDC042D022D023FD7042501340140B9
:10051000D2043802380241E6042E022D014245047D
:100520002401230143470431018901444904230183
:100530002E02454B0435012E01464D041F012F02AA
:10054000474F042001200148510421012101495352
:1005500004310289024A5604220122014B58043117
:100560000287024C5A04340224014D5C0434011FFA
:10057000014E5E0435022F014F6004260125015013
:100580006204270126015164042F023002526604DE
:10059000300231025364042F0130015466043001EB
:1005A000310155680436013601566A0437013701B6
:1005B000B76C0490000000B87104910000009D76B3
:1005C0000453000000667E0439000000678704477A
:1005D0000000008A9204620000008B97045900001A
:1005E000008C9C045A0000008DA1045B0000008E6A
:1005F000A6045C0000008FAB045D00000090B00416
:100600005E00000091B5045F00000092BA04600033
:10061000000093BF04610000009CC404B00000000F
:1006200094CA046300000098CF045400000097D4DB
:10063000045500000096D9045600000095DE0457CA
:1006400000000099E304670000009AE804580000E5
:10065000009BF204BB0000007EF904680000007FEC
:10066000FD04690000008001056A000000810505A5
:100670006B0000008209056C000000830D056D0011
:1006800000008411056E0000008515056F00000054
:1006900086190570000000871D0571000000882183
:1006A00005720000008925057300000065290546D4
:1006B00000000068300548000000693B0576000036
:1006C000000011241FBECFEFDAE0DEBFCDBF16E081
:1006D000A0E0B1E0E2E8F3E402C005900D92A0359D
:1006E000B107D9F728E0A0E5B6E001C01D92AB3410
:1006F000B207E1F70E94211E0C94BF210C94000068
:10070000EF92FF920F931F93CF93DF93EC018C0135
:10071000060F171F86E8E82E81E0F82EC017D107D4
:1007200051F48AE090E0DF91CF911F910F91FF90FB
:10073000EF900C94A31E89911F928F93FF92EF92DA
:100740000E948F1E0F900F900F900F90E7CFEF92A7
:10075000FF920F931F93CF93DF93EC018C01060F51
:10076000171F8CE8E82E81E0F82EC017D10751F44E
:100770008AE090E0DF91CF911F910F91FF90EF9071
:100780000C94A31E89911F928F93FF92EF920E9467
:100790008F1E0F900F900F900F90E7CFFB01DC01A1
:1007A000460F571FE417F50709F4089581918D93BB
:1007B000F9CFAF92BF92CF92DF92EF92FF920F9359
:1007C0001F93CF93DF93DC01162FEA0190E061E0E5
:1007D00070E090130BC0DF91CF911F910F91FF90AC
:1007E000EF90DF90CF90BF90AF900895892F810F49
:1007F000382F3695369536957D01E30EF11CF701BD
:10080000308187705B0101C0AA0C8A95EAF7892FB5
:10081000820F482F4695469546954C0F5D2F511DEA
:10082000FA01408150E087706B0102C0CC0CDD1CE6
:100830008A95E2F74C215D21832F8A29452B21F4EB
:10084000EA2DE0958E2F8323F70180839F5FC1CF30
:10085000FC01DB01480F591FE417F50711F481E093
:10086000089591918D919817B9F380E00895FB0157
:10087000DC01460F571FE417F50709F4089581912D
:100880008D93F9CFFB01DC01460F571FE417F507E5
:1008900009F40895819190E08D939D93F7CF70E0D6
:1008A0000C94811E262F269526952695FC01E20F95
:1008B000F11D9081677021E030E001C0220F6A9540
:1008C000EAF7442319F0922B908308952095922300
:1008D000FBCF262F269526952695820F911DFC018C
:1008E000208130E0677081E090E002C0880F991F9E
:1008F0006A95E2F72823392381E0121613060CF0DB
:1009000080E008959B01BA01FC0190E080E082172D
:10091000930714F080E008954191519146175707CD
:1009200011F00196F4CF81E0089508959C0190E0C4
:1009300080E08217930709F40895EFE9FFE031970B
:10094000F1F700C000000196F4CF9C0190E080E038
:100950008217930709F4089545E04A95F1F70000DE
:100960000196F6CF78940895F89408951F921FB6D3
:100970001F9211248F939F93AF93BF938091500642
:1009800090915106A0915206B09153060196A11D77
:10099000B11D8093500690935106A0935206B093D8
:1009A0005306BF91AF919F918F911F901FBE1F90D3
:1009B0001895CF93DF9300D000D0CDB7DEB78091EC
:1009C000500690915106A0915206B0915306BC0179
:1009D000CD010F900F900F900F90DF91CF91089560
:1009E000A89514BEE0E6F0E08081886180831082E3
:1009F00080E885BF85BF1092D8001092900089E0F2
:100A00008093910082E08093710080E89EE3909350
:100A10009900809398001092950010929400089588
:100A200080E991E09F938F930E948F1E2FEF81EEBC
:100A300094E0215080409040E1F700C00000F8941D
:100A400081E08093E00080E28093D8001092C9009A
:100A50008FE19EE40197F1F700C000001DBA1092EB
:100A600068001CBC10BE1FBA10927A0010926E0073
:100A700010926F0010927100109272001092C900D3
:100A80001092BC0014B817B81AB81DB810BA10925A
:100A9000BC0015B818B81BB81EB811BA0C940038B1
:100AA0000F900F90FFCF80E091E0909348088093E3
:100AB00047080895E82FE695E695E69593E0E99FC7
:100AC000F001112435A1282F277081E090E001C0AA
:100AD000880F2A95EAF78095832385A30895E82F48
:100AE000E695E695E69593E0E99FF001112494A13F
:100AF000877021E030E001C0220F8A95EAF7892F44
:100B0000822B84A30895E82FE695E695E69593E079
:100B1000E99FF001112434A1282F277081E090E093
:100B200001C0880F2A95EAF78095832384A308954E
:100B3000E82FE695E695E69563E0E69FF00111243F
:100B400044A1877021E030E0B90102C0660F771F31
:100B50008A95E2F7CB01962F9095942394A395A1C3
:100B6000892B85A30895662399F0E82FE695E695ED
:100B7000E69593E0E99FF001112495A1877021E0AB
:100B800030E001C0220F8A95EAF7922B95A30895D1
:100B90000C945A05E82FE695E695E695EF5F93E00D
:100BA000E99FF001112490A1877021E030E002C09C
:100BB000220F331F8A95E2F7892F90E028233923EB
:100BC00081E0121613060CF080E00895E82FE695F8
:100BD000E695E69593E0E99FF001112495A18770D1
:100BE00021E030E001C0220F8A95EAF7892F8227A1
:100BF00085A3089586958695869523E0829FC001FA
:100C00001124859608958695869586958F5F23E0B5
:100C1000829FC0011124809608958770089561E035
:100C20000C94B3050C945A05E82FE695E695E695E5
:100C3000EF5F93E0E99FF001112490A1877021E01C
:100C400030E001C0220F8A95EAF7892F822B80A31A
:100C50000895E82FE695E695E69593E0E99FF00183
:100C6000112434A1282F277081E090E001C0880F63
:100C70002A95EAF78095932F982394A395A1892329
:100C800085A30895E82FE695E695E69593E0E99F1C
:100C9000F0011124282F277081E090E001C0880F17
:100CA0002A95EAF794A1611103C0892B84A30895C2
:100CB00080958923FBCF0C94CA05FB019A01909182
:100CC0005506911102C080E008958093E90080915B
:100CD000E80085FFF8CFF89480E0DF01A80FB11D90
:100CE0009C919093F1008F5F82171306B4F38AE30F
:100CF0008093E800789481E0089508951F921FB6CC
:100D00001F9211248F939F938091E1001092E10034
:100D100083FF0FC01092E90091E09093EB001092D6
:100D2000EC0092E29093ED0098E09093F000109226
:100D3000550682FD809155069F918F911F901FBE91
:100D40001F9018951F920F920FB60F921124AF9219
:100D5000BF92DF92EF92FF920F931F932F933F93D7
:100D60004F935F936F937F938F939F93AF93BF93B3
:100D7000CF93DF93EF93FF931092E9008091E80007
:100D800083FF69C09091F1008091F1004091F100E2
:100D90002091F100522F2091F1003091F100A091AB
:100DA000F100B091F10062EF6093E800863009F045
:100DB00096C08CEA90E060E071E0FC01C591D491AE
:100DC0004C175D0709F042C0FC013296C591D491E1
:100DD0002C173D0709F03AC0FC01349665917491D7
:100DE0000696FC018491AF3FB10519F010F0AFEF0A
:100DF000B0E03A2F8A1708F4382F2DE7A22E26E00C
:100E0000B22E4230F3E05F0721F096E5A92E96E07E
:100E1000B92EDB01425053408EEFF82E8091E8004E
:100E2000982F9570D9F382FD3EC0832F313208F0A0
:100E300080E2FD01982F4230510548F1992349F194
:100E400024912093F10091503196F8CF07966817BE
:100E5000790709F0B2CF81E28093EB0024C0392FEB
:100E6000DDCF8F01061B170B2491DD24D394D01600
:100E700050F42EEF200F00FD30C026958501020FA3
:100E8000111DE80128812093F100915031969111B4
:100E9000E8CFA80FB11D932F981BF092E8003813EC
:100EA000DECF3032E1F2FF91EF91DF91CF91BF9130
:100EB000AF919F918F917F916F915F914F913F91F2
:100EC0002F911F910F91FF90EF90DF90BF90AF9007
:100ED0000F900FBE0F901F90189520E0D4CF853053
:100EE00059F48EEF8093E8008091E80080FFFCCFFA
:100EF00040684093E300D7CF8930C9F5911137C0DE
:100F0000409355068EEF8093E80081E08093E900DE
:100F10008093EB0091EC9093EC0026E32093ED009E
:100F200032E03093E9008093EB0030EC3093EC003A
:100F30002093ED0023E02093E9008093EB00909351
:100F4000EC0026E02093ED0034E03093E90080933C
:100F5000EB009093EC002093ED0088EA91E00E9472
:100F6000AA1E8EE18093EA001092EA009CCF211520
:100F7000310539F4913209F06ECF8A3009F06BCF28
:100F800015C021303105B1F4913209F064CF8930B8
:100F9000A1F78091E80082FFFCCF8091F10080935F
:100FA0005406809154068BEF8093E8008EEF809377
:100FB000E80079CF22303105E9F24DCF80E8809307
:100FC00061001092610081E08093D70080EA8093F5
:100FD000D80082E189BD09B400FEFDCF80E980938D
:100FE000D8001092E000109255068CE08093E20049
:100FF0000895BC0148E050E083E00C945D068091C8
:1010000054060895BC0143E050E084E00C945D0672
:10101000BC0140E450E081E00C945D06209155064F
:10102000211102C080E0089522E02093E900209180
:10103000E80025FFF7CFF894FC01805C9F4F2091DA
:10104000F1002193E817F907D1F78BE68093E800C8
:10105000789481E008959091550681E0911101C046
:1010600080E0089586E596E00895BC018DE796E05E
:101070000C94881E08951092D800089580E094E0A2
:101080000895F999FECF0C945D21F999FECF0C9447
:101090007521F999FECF0C946521F999FECF0C9436
:1010A0008321382F292FCB01F999FECF632F722F7F
:1010B0000C944D21382F292FCB01F999FECF632FA6
:1010C000722F0C946B21CF93DF93D0E0C0E060E0EF
:1010D000CE010E9445082196C11584E0D807B9F7D2
:1010E000DF91CF910895089508955198599A509895
:1010F000589A1092B9008CE08093B80008959A0134
:1011000094EA9093BC009091BC0097FFFCCF880FAD
:101110008093BB0084E88093BC008091BC0087FF73
:10112000FCCFFB0190E080E044E88217930724F0B5
:1011300084E98093BC00089551915093BB00409383
:10114000BC005091BC0057FFFCCF0196EECF9A0136
:1011500094EA9093BC009091BC0097FFFCCF880F5D
:1011600081608093BB0084E88093BC008091BC00C8
:1011700087FFFCCFFB0190E080E0A90141505109BD
:1011800064E874EC8217930724F084E98093BC0030
:101190000895841795075CF47093BC00A091BC007F
:1011A000A7FFFCCFA091BB00A1930196EBCF60936A
:1011B000BC00F4CF94EA9093BC009091BC0097FFE0
:1011C000FCCF880F8093BB0084E88093BC008091A3
:1011D000BC0087FFFCCF08958093BB0084E8809318
:1011E000BC008091BC0087FFFCCF089584E9809308
:1011F000BC0008958F929F92AF92BF92CF92DF92E0
:10120000EF92FF920F931F93CF93DF935C01EB015B
:101210006A0179014801CC15DD0510F5CE010E9467
:1012200049088C01CE0102960E9449089C010A15CA
:101230001B05A1F42496F701D183C083F401318307
:101240002083DF91CF911F910F91FF90EF90DF905E
:10125000CF90BF90AF909F908F900895892B29F4E5
:10126000D0E0C0E030E020E0E6CF2C5F3F4FC20F7F
:10127000D31FD1CFEF92FF920F931F93CF93DF93A2
:10128000D82FC92F7B018A010E943E08AC0197012B
:1012900062E070E08D2F9C2F0E94FA08DF91CF91C1
:1012A0001F910F91FF90EF900895CF93DF9300D09F
:1012B00000D0CDB7DEB7AE014F5F5F4FBE016D5FAF
:1012C0007F4F0E943A098B819C810F900F900F9065
:1012D0000F90DF91CF910895CF92DF92EF92FF921E
:1012E0000F931F93CF93DF9300D000D0CDB7DEB71D
:1012F0006C017B018A01AE014F5F5F4FBE016D5FE4
:101300007F4F80E79AEA0E943A096B817C816115E0
:101310007105A9F049815A81460F571F9701C601EF
:101320000E94FA080F900F900F900F90DF91CF91CD
:101330001F910F91FF90EF90DF90CF900895F701EC
:1013400011821082F80111821082ECCFCF93DF93CB
:1013500000D000D0CDB7DEB7AE014F5F5F4FBE010A
:101360006D5F7F4F0E946C098B819C810F900F9065
:101370000F900F90DF91CF910895AF92BF92CF92CF
:10138000DF92EF92FF920F931F93CF93DF9300D0E2
:1013900000D0CDB7DEB78EEB91E00E94AA1E90E0A0
:1013A00080E00E9449088E37934A09F044C0AE019C
:1013B0004F5F5F4FBE016D5F7F4F80E19AEA0E94F1
:1013C0003A09E980FA80AE014F5F5F4FBE016D5F61
:1013D0007F4F80E29AEA0E943A09A980BA80AE0162
:1013E0004F5F5F4FBE016D5F7F4F80E39AEA0E94BF
:1013F0003A09C980DA80AE014F5F5F4FBE016D5F71
:101400007F4F80E49AEA0E943A0909811A8180E7B5
:101410009AEA0E9455099C0182E1A816B10459F488
:101420008AE0C816D10439F40E291F29012B19F4BA
:10143000232B09F054C088EE91E00E94AA1E0E945E
:1014400063086EE773EA90E080E00E944D0860E276
:101450007AEA82E090E00E944D0862E170E084E068
:1014600090E00E944D0860E37AEA88E190E00E94F3
:101470004D086AE070E08AE190E00E944D0860E764
:101480007AEA86E290E00E944D0870E060E088E22F
:1014900090E00E944D0880E29AEA0E9455098C0172
:1014A000009709F443C046E050E06BE072E00E9410
:1014B0005A0848E050E062E172E0C80108960F90D7
:1014C0000F900F900F90DF91CF911F910F91FF9090
:1014D000EF90DF90CF90BF90AF900C945A0880E2CD
:1014E0009AEA0E94550946E050E06EE976E00E94D3
:1014F000510846E050E06BE072E08EE996E00E9411
:101500002804882309F497CF85ED91E00F900F9080
:101510000F900F90DF91CF911F910F91FF90EF905F
:10152000DF90CF90BF90AF900C94AA1E0F900F90B9
:101530000F900F90DF91CF911F910F91FF90EF903F
:10154000DF90CF90BF90AF900895CF93DF9380E767
:101550009AEA0E945509EC01892B31F00E943E085D
:101560009C012C1B3D0BE901CE01DF91CF91089529
:1015700080E29AEA0E9455094096089580E39AEA2B
:101580000C9455098AE090E0089580E79AEA0C945B
:10159000550981E79BEB0C94A60982E79BEB0C9421
:1015A000A60984E79BEB0C94A60986E79BEB0C94B9
:1015B000A60988E79BEB0C94A609CF93DF9300D094
:1015C00000D0CDB7DEB7AE014F5F5F4FBE016D5F9C
:1015D0007F4F88E79BEB0E946C0989819A810F906D
:1015E0000F900F900F90DF91CF910895CF92DF92DF
:1015F000FF920F931F93CF93DF93182F062FF42E94
:101600008CEAC82E86E0D82ED0E0C0E08091AA06F1
:101610009091AB06C817D90744F0DF91CF911F9185
:101620000F91FF90DF90CF900895D601ED91FD913D
:101630006D014F2D602F812F09952196E7CFEF92F5
:10164000FF920F931F93CF93DF93D0E0C0E0EE247F
:10165000E394F12C87010C2E02C0000F111F0A9495
:10166000E2F78091A8069091A90680239123892B07
:10167000A1F0FE01EA54F94F40816C2F82E00E94F4
:10168000F60A009510958091A8069091A9068023EE
:1016900091239093A9068093A8062196CA30D1057C
:1016A000C9F68091A706882339F040E060E081E028
:1016B0000E94F60A1092A706DF91CF911F910F9119
:1016C000FF90EF90089521E030E002C0220F331F19
:1016D0008A95E2F78091A4069091A506822B932B20
:1016E0009093A5068093A40608958091A4069091F6
:1016F000A5060895CF93DF93D82FC92F6091AA062E
:101700007091AB06482F592F8CEA96E00E94820414
:10171000811110C0E091AA06F091AB06CF010196AD
:101720009093AB068093AA06EE0FFF1FE455F94F86
:10173000D083C183DF91CF910895E82FF0E0E25F7D
:10174000FE4F60830895E82FF0E0E25FFE4F81E0F6
:101750009081961708F480E00895CF92DF92EF927F
:10176000FF920F931F93CF93DF9306EB16E08EE06B
:10177000C82E81E0D82ED0E0C0E09BE1E92E92E0B7
:10178000F92EF80181918F01F60191916F0198175F
:1017900068F02196CA30D105A1F7DF91CF911F9152
:1017A0000F91FF90EF90DF90CF900895FE01E659E2
:1017B000FE4F9081F801319790831F929F931F9263
:1017C0008F93DF93CF93FF92EF920E948F1EEDB71E
:1017D000FEB738960FB6F894FEBF0FBEEDBFD9CF57
:1017E000282F30E0F901E25FFE4F90819617D8F084
:1017F0002A54394FF901608321E030E002C0220F02
:10180000331F8A95E2F78091A8069091A906822B52
:10181000932B9093A9068093A80688EE93E090936B
:101820001901809318010895CF93C82F282F30E015
:10183000F901E25FFE4F90812A54394FD901EC91B2
:10184000F0E09F01260F371F442389F0692F70E0D5
:101850006F5F7F4FCB01820F931F0E94371E8E1741
:101860009F0789F0682F8C2FCF910C94F00B37FDD8
:1018700007C0892F90E0281739078CF7C901EFCFEF
:1018800090E080E0ECCFCF91089590E0FC01E25F22
:10189000FE4F2081261750F08A54994FFC01608337
:1018A00088EE93E090931901809318010895CF93E7
:1018B000DF930E94BE0A9093B5068093B406892BED
:1018C00051F10E94B80AEC010097B1F00E94410862
:1018D000853091F04AE050E06AE671E08091B4060C
:1018E0009091B5060E945A0865E0CE010E94450815
:1018F00087E492E00E94AA1E4AE050E066EB76E0A0
:101900008091B4069091B5060E9451080E94AD0BDB
:1019100081E08093A706DF91CF910895462F50E094
:1019200066EB76E00C94CE03462F50E06EE071E05B
:101930000C94CE03E82FF0E0EA54F94F808108952B
:101940000C94F00BEF92FF920F931F93CF93DF93C2
:101950008C01D0E0C0E0E62EF12CCE15DF0554F06E
:1019600081E08093A706DF91CF911F910F91FF90A7
:10197000EF900895F80161918F018C2F0E94450C22
:101980002196EBCF0F931F93CF930AE611E0C0E0AF
:10199000F80161918F018C2F0E94450CCF5FCA30F6
:1019A000B9F781E08093A706CF911F910F91089519
:1019B000813039F46091BC06682786E00E94F00B04
:1019C0000895823039F0833061F441E06FEF7FEFAA
:1019D00087E004C041E061E070E089E00E94140CFF
:1019E000089541E061E070E0843091F340E060EF01
:1019F0007FEF8530B1F040E060E170E0863089F043
:101A00008E3789F0873099F08830A1F08930B1F0B5
:101A100060E08A30C9F061E08B30B1F08C30B1F019
:101A2000089588E0DBCF81E08093A606089560E00A
:101A300084E0C4CF61E084E00C94F00B41E061E00D
:101A400070E084E00C94140C85E0F6CF41E061E096
:101A500070E085E0F7CF8091180190911901181678
:101A60001906BCF401979093190180931801892BF2
:101A700081F48091B4069091B506009751F04AE048
:101A800050E066EB76E00E945A0885E692E00E94FC
:101A9000AA1E0E941F0B8091A606882321F0109297
:101AA000A6060C94100508950C941F0B86EB96E087
:101AB0000895EF92FF920F931F93CF938C0186EBC3
:101AC000E82E86E0F82EC0E0F70141917F016C2FEF
:101AD00082E0F8010995CF5FCA30B1F7CF911F912D
:101AE0000F91FF90EF900895CF93DF930E94C90A62
:101AF000EC010E94A50A209741F486E792E00E943B
:101B0000AA1E80E0DF91CF910895892BB1F345E0C3
:101B100050E060EC76E0CE010E9451083091C106A1
:101B20002091C2069091C3068091C4064091C006E0
:101B3000413019F7363009F72530F9F69F3FE9F2C1
:101B40008131D8F68FE892E00E94AA1E81E0DACFB8
:101B5000E0910A07F0910B07309709F00994089576
:101B60000E942B08882351F086EC96E00E9408081A
:101B7000811104C081EB92E00C94AA1E089590910B
:101B8000C506992359F0823049F485EC8093C60646
:101B90006093C7064093C8060C94B00D08959093C7
:101BA0000B0780930A078FEB9DE00E947A0B0E943F
:101BB000C50A90930907809308070E94A50A90938D
:101BC0000707809306070895DF92EF92FF920F9325
:101BD0001F93CF93DF9386EC96E00E940E08882334
:101BE00009F459C08091C606803F21F481E00E942B
:101BF000A80D51C0813F09F456C0823F09F055C07D
:101C000083EF8093C606D4E0D093C70686E0809326
:101C1000C80685E08093C9068093CA0643E050E079
:101C200064ED72E08BEC96E00E94CE0346E050E05B
:101C30006BE072E085ED96E00E94CE03C1E0C093B8
:101C4000DB061092DC06D093DD0640E150E060E058
:101C50008EED96E00E944F0446E050E068ED72E0A1
:101C60008EED96E00E94CE0348E050E069E271E01C
:101C70008EEE96E00E94CE038091060790910707B2
:101C80009827892798279093F7068093F6060E9455
:101C9000B00DC093C506DF91CF911F910F91FF90BA
:101CA000EF90DF90089582E0A2CF803B19F1823B54
:101CB00039F1833B09F44BC0813B09F497C0803C68
:101CC00009F49AC0823C09F4B3C0833C09F4B9C05A
:101CD000843C09F4C3C0813D09F4C9C0823D09F4C4
:101CE000D6C0803DC1F68091C706813009F4DAC0C4
:101CF00083E2C2C08FED92E00E94AA1E80E177CFFE
:101D0000C091C706D091C806DC27CD27DC2780917B
:101D1000080790910907C80FD91F1091C906412FD4
:101D200050E06AEC76E0CE010E945A08DF93CF9330
:101D30001F921F938EEF92E09F938F930E948F1EAE
:101D40000F900F900F900F900F900F90A4CFC09115
:101D5000C706D091C806DC27CD27DC27809108076D
:101D600090910907C80FD91FE090C906F090CA06E4
:101D7000FE24EF24FE24FF92EF92DF93CF9386E1BF
:101D800093E09F938F930E948F1E0F900F900F9060
:101D90000F900F900F9010E000E0D12C0E151F0552
:101DA000E1F41F92DF928EE293E09F938F930E9463
:101DB0008F1E84EB8093C606D092C7060E94B00D9A
:101DC0008091080790910907B80102970E944D0879
:101DD0000F900F900F900F905ECFCE01800F911F4C
:101DE0000E944108D8260F5F1F4FD8CF86E393E0AB
:101DF0000E94AA1E81E1FBCE81EC8093C6068AE098
:101E00008093C7060E94750B98278927982790937F
:101E1000C9068093C8066AE08AEC96E00E948E0CA0
:101E20006AE084ED96E00E94940C0E94B00D33CFDE
:101E30004091C7066091C80689EC96E00E94A20C0A
:101E40002ACF6091C8068091C706DF91CF911F917C
:101E50000F91FF90EF90DF900C94A00CDF91CF9149
:101E60001F910F91FF90EF90DF900C94C20C809126
:101E7000C706813051F081E2DF91CF911F910F9120
:101E8000FF90EF90DF900C94A80D80E2F5CF87ECE7
:101E900096E0DF91CF911F910F91FF90EF90DF902F
:101EA0000C94F90782E2E8CFE6ECF6E090EA908342
:101EB000818362830C94B00DE6ECF6E021EA208386
:101EC000982789279827928381830C94B00DE0EAA4
:101ED000F2E030E020E0949189130DC0611114C04C
:101EE00087E0829FF001839FF00D1124ED55FD4F97
:101EF0008591959115C02F5F3F4F37962739310552
:101F000051F790E080E0089587E0829FF001839F81
:101F1000F00D1124EB55FD4F85919591009701F33C
:101F20000895E0EAF2E030E020E0949189130BC0DC
:101F300087E0829FF001839FF00D1124EF55FD4F44
:101F40008591959108952F5F3F4F37962739310539
:101F500061F790E080E00895CF93DF930E94D50A67
:101F6000EC01009749F00E94410880930E072196EA
:101F7000D0930D07C0930C07DF91CF910895AF92D6
:101F8000BF92CF92DF92EF92FF920F931F93CF9366
:101F9000DF939C01B62E8C010027107F832F8F705A
:101FA000D82ED22FC12C85E0A82E80910E07C816FE
:101FB000D8F5E0900C07F0900D07CA9CE00CF11CDE
:101FC0001124C7010E9441088B1511F08F30A9F42C
:101FD000C70101960E944108C82FC70102960E94BE
:101FE0004108CC2311F0C53B51F49FEF980F9E3F61
:101FF00020F4DC1739F1C53B29F1C394D6CFDC13AB
:10200000FCCFD81611F08F3FC1F7C70103960E948D
:102010004108C82FC70104960E944108C63B09F039
:10202000DC2F8E3F09F0D82EC8018D2B9D29DF9122
:10203000CF911F910F91FF90EF90DF90CF90BF90C5
:10204000AF900895D812D9CFE0CFFC01908190765F
:1020500081E0903409F080E00895482FE2E1F7E054
:1020600030E020E05EE0529FC001539F900D1124AC
:10207000DC01AD5EB84F6C9160FF03C062816417F4
:1020800049F02F5F3F4F3E962A30310561F790E0CF
:1020900080E008958D5E984F08951F93CF93DF934E
:1020A000EC010E944108182FCE0101960E944108C0
:1020B000912FDF91CF911F9108958F929F92AF92B0
:1020C000BF92EF92FF920F931F93CF93DF939C01E8
:1020D000C62FD0E08E01080F191F60E070E0CB0121
:1020E0002017310799F440E024E030E02C1B3D0B31
:1020F00042171306E4F0DF91CF911F910F91FF90EB
:10210000EF90BF90AF909F908F9008958824962E67
:10211000A72EB82E79014FEFE41AF40AC9010E94E4
:1021200041089401282BC501B9019701D9CF982FF7
:10213000872F762F66274F5FDBCF2F923F924F92EC
:102140005F926F927F928F929F92AF92BF92CF9247
:10215000DF92EF92FF920F931F93CF93DF9300D004
:1021600000D000D00F92CDB7DEB7382E4B0195EBE3
:10217000A92E97E0B92E2FE0C22ED12CFC2CCA82BA
:10218000C4010C2C02C0969587950A94E2F780FD55
:1021900025C021E0C21AD10832E0A31AB1084FEFDE
:1021A000C416D40659F790E080E027960FB6F8944D
:1021B000DEBF0FBECDBFDF91CF911F910F91FF907A
:1021C000EF90DF90CF90BF90AF909F908F907F90D7
:1021D0006F905F904F903F902F9008958091B60739
:1021E0009091B7079F838E838091B8079091B9072C
:1021F0004E815F814817590748F48E819F810E9464
:102200004D109C01832F8F7737FD05C0F50184A108
:1022100087FFBFCFC8CF321641F08E5F2E813F813E
:10222000280F311D3F832E83DFCF8E819F81009742
:1022300069F30E944108EE81FF813296FF83EE83AD
:102240008F778F01080F111D8E819F818017910755
:10225000E8F68E819F810E944108982F8F708F151C
:1022600031F12E813F812F5F3F4F929597709150B2
:102270009330D8F4C9010E944108982F9295969501
:1022800096959370282F2770920F9F5F869586955D
:1022900086958770980F2E813F812E5F3F4FA90151
:1022A000490F511D5F834E83CFCF90E0F8CFEE8171
:1022B000FF81309709F4AACFCF010E944108182F5F
:1022C000129517708CEF810F823058F51093A30789
:1022D0001092A4071092A5071092A6071092A707C4
:1022E0001092A8071092A9071092AA071092AB07A4
:1022F0001092AC071092AD071092AE071092AF0784
:10230000FFEFF093B0078091A307853009F441CF28
:10231000843009F448CF882309F43BCF83EA97E05F
:1023200044CF8E819F8101960E944108082FE82E9C
:10233000E294E694E69483E0E822E3942E813F81E0
:102340002E5F3F4F3F832E836E2DC9010E945D108B
:10235000262E7B838C839D838EEF810F823008F045
:102360003FC0802F86958695869587708983F12C4E
:10237000682F8E819F818E0D9F1D0E945D102B0105
:102380003C01133089F5602F6770C7013981830FD5
:10239000911D4E815F81840F951F0E945D101093E7
:1023A000A3072092A4075B815093A507EC81E093DB
:1023B000A607FD81F093A7074092A8075092A907AE
:1023C0006092AA077092AB076093AC077093AD0759
:1023D0008093AE079093AF072A812093B00793CFE5
:1023E000412C512C612C712C60E070E080E090E079
:1023F000D6CF0F931F93CF93DF93EC018B819C81FA
:10240000860F911D9C838B838881982F9F79988359
:1024100091FD05C082FF03C08D7982628883888127
:1024200081FF05C082FD03C08D798064888380911F
:10243000B407882369F0909112079F3F21F081E053
:102440002981291301C080E0988180FB93F998834A
:1024500088859985892BE9F4888180768032C9F452
:1024600000919F071091A007B80189810E949D10DB
:10247000FC01892B71F085858D831F830E83E0819C
:10248000F0E0EE0FFF1FEC58FE4F8081918199879D
:102490008887E885F985309741F0CE010995882332
:1024A00021F01F821E8219861886DF91CF911F911D
:1024B0000F910895CF92DF92EF92FF920F931F93A7
:1024C000CF93DF9300D000D0CDB7DEB769837A8396
:1024D0008B839C83042F609110078B819C810E94C9
:1024E000BF0F9C018827907F9A838983832F8F70E9
:1024F000922F49EA420F443050F42755330B41E004
:1025000050E001C0440F2A95EAF7842B90E029811E
:102510003A81292B382B3A8329839981A90170E0CC
:1025200060E0C52ED62EE72EFF24152F1F7020E069
:102530009923F1F061E080910F07813009F060E0AC
:1025400089810E94670FBC0191FF0AC08091B10789
:102550002A8122952170813021F021E0823009F01A
:1025600020E070FF04C06894C1F81C2D1F70962FE6
:10257000822F880F802B1295107F812B837F0F90E5
:102580000F900F900F90DF91CF911F910F91FF90BF
:10259000EF90DF90CF900895382F3170827F79F0DF
:1025A000832B2091EA07E22FF0E0EE0FFF1FE652A7
:1025B000F84F808311822F5F27702093EA079923B9
:1025C00071F08091EA07E82FF0E0EE0FFF1FE6526E
:1025D000F84F308391838F5F87708093EA07089567
:1025E000CF93DF9340919F075091A007C82FD0E071
:1025F0009A01082E02C0369527950A94E2F720FF2B
:102600002BC021E030E0082E02C0220F331F0A94B5
:10261000E2F720953095242335233093A0072093AB
:102620009F071F928F9380E495E09F938F930E9462
:102630008F1ECC0FDD1FC654D84F8981982F9F70F5
:102640000F900F900F900F9039F08295807F90E05F
:10265000DF91CF910C94CC12DF91CF910895CF925E
:10266000DF92EF92FF920F931F93CF93DF93F82E99
:10267000E090B50705EB17E0D0E0C0E0C62E660F8E
:10268000DD08CE1548F0DF91CF911F910F91FF909B
:10269000EF90DF90CF900895CC16DD0641F0F80161
:1026A00085818770F81203C08C2F0E94F01221964A
:1026B0000E5F1F4FE6CF0F931F93CF93C82F082FA6
:1026C00010E080919F079091A0070C2E02C0969574
:1026D00087950A94E2F780FD39C0000F111FF801B9
:1026E000EB54F84F8581877019F06C2F0E942F13DF
:1026F00021E030E00C2E02C0220F331F0A94E2F7D3
:1027000080919F079091A007822B932B9093A00715
:1027100080939F071F92CF938EE495E09F938F93B2
:102720000E948F1EF801E654F84F8181982F9F7008
:102730000F900F900F900F9049F08295807F8160ED
:1027400090E0CF911F910F910C94CC12CF911F91DB
:102750000F9108950F931F93CF93DF93EC016A8538
:102760007B858C859D856115710581059105E9F055
:102770008B019C014EE136952795179507954A9553
:10278000D1F70130B9F440E00E945A120E94CC12F5
:1027900080919F079091A007892B19F480E00E94F7
:1027A0005B131A861B861C861D86DF91CF911F91B5
:1027B0000F910895033061F7292F2770213041F7D9
:1027C0008B019C0194E136952795179507959A956D
:1027D000D1F70F700130E1F68F700E94F012D8CF60
:1027E0000F931F938B019C01DC01CB014EE1B69549
:1027F000A795979587954A95D1F7813089F441E05F
:10280000C9010E945A120E94CC128091A1078F3FE9
:10281000F9F08091A2078F3FD9F41092A20718C057
:10282000833099F7832F8770813009F042C0D90136
:10283000CB0134E1B695A795979587953A95D1F751
:102840008F70122F1F70813071F4812F0E945B13E3
:1028500080919F079091A007892BF1F580E01F914F
:102860000F910C945B13823081F3833021F4812F1C
:102870000E94F012EDCF843069F480919F0790910F
:10288000A007012E02C0969587950A94E2F780FD75
:10289000EECFDBCF8530E1F6812F0E945B131093E2
:1028A000A1078FEF8093A20784EA95E00E94AA1EF9
:1028B000CFCF823031F46FEF822F87700E942F13B9
:1028C000A4CF833009F0A1CF9927832F722F612FD6
:1028D000822F0E94D80C99CF1F910F9108951F93BA
:1028E000CF93DF9300D000D000D0CDB7DEB78D837B
:1028F0009E83162FAD81BE8116966D917C911797A0
:1029000011968C910E949D10FC01892BC1F0113011
:1029100001F581819281A381B48189839A83AB83FC
:10292000BC83BC01CD010E94F01389819A81AB81E7
:10293000BC81ED81FE8182879387A487B587269627
:102940000FB6F894DEBF0FBECDBFDF91CF911F91C0
:102950000895123029F485819681A781B085DDCF55
:1029600081859285A385B485D8CFCF93DF93EC0181
:102970008A8124E0829FC0011124682B6A831C8213
:102980001B826B3149F461E0CE010E946F14CE01CD
:10299000DF91CF910C94AA13673021F0673641F490
:1029A00061E001C062E0CE01DF91CF910C946F1421
:1029B000663629F0623059F3DF91CF91089563E0D4
:1029C000E3CFAF92BF92CF92DF92EF92FF920F933D
:1029D0001F93CF93DF93EC018881182F12951695E2
:1029E00013700A81EB80FC8081FBAA24A0F883FB92
:1029F000BB24B0F8C090B207D090B307113059F49F
:102A0000063021F461E0EC14FD0440F11A8261E02B
:102A1000CE010E94B514013091F0093119F1063050
:102A200059F11230A1F180E0DF91CF911F910F9108
:102A3000FF90EF90DF90CF90BF90AF900895AA20C5
:102A400039F0EC14FD0478F163E0CE010E94B51476
:102A5000123049F7EC14FD04D0F462E0CE010E947C
:102A6000B514E1CFAA20A9F0EC14FD04C8F063E08E
:102A7000CE010E94B514D5CFA110D3CF63E0EC14E2
:102A8000FD0478F2CE010E94B51481E0CDCF1A8208
:102A900005C0123041F6EC14FD04C8F762E0F2CF35
:102AA000123009F6FBCFB110CFCF1230B1F2BBCF4D
:102AB000CF93DF93EC018A8124E0829FC00111242F
:102AC000682B6A831C821B82663049F461E0CE0168
:102AD0000E946F14CE01DF91CF910C94AA1367303E
:102AE00021F0693141F461E001C062E0CE01DF9183
:102AF000CF910C946F14623069F3DF91CF910895F8
:102B0000AF92BF92CF92DF92EF92FF920F931F93FB
:102B1000CF93DF93EC018881182F129516951370CF
:102B20000A81CB80DC8081FBEE24E0F883FBFF246C
:102B3000F0F8A090B207B090B307113059F4063006
:102B400021F461E0CA14DB0448F11A8261E0CE018D
:102B50000E945815013051F0063021F5E11004C0F3
:102B600063E0CA14DB0420F580E026C0EE2081F08B
:102B700063E0CA14DB0490F4FF2021F063E0CE018F
:102B80000E945815123081F708C0093169F70EC04C
:102B9000123051F7CA14DB0438F762E0CE010E940C
:102BA0005815E2CF123001F7073079F71A8262E048
:102BB000CE010E94581581E0DF91CF911F910F91B6
:102BC000FF90EF90DF90CF90BF90AF900895FC0101
:102BD0009081929596959370913039F4928361E04B
:102BE000CF010E946F1480E008959230E1F7928344
:102BF000CF010E94AA1381E0089580930F070895E2
:102C0000809310070895CF92DF92EF92FF920F9377
:102C10001F93CF93DF930E94C90A04960E94410834
:102C2000182F8093B5070E94D90AEC010E94DD0A93
:102C30009C01D093B707C093B607C80FD91FD09394
:102C4000B907C093B8073F938F931F921F938BE5EB
:102C500095E09F938F930E948F1E0E94D10AEC01F2
:102C60008AEBE82E87E0F82E0F900F900F900F90D0
:102C70000F900F90670100E080E090E0011718F4DA
:102C8000CE010E944D10D6018C9311969C93B2E018
:102C9000CB0ED11C0F5F2296003171F70E94CD0A36
:102CA000EC010E9441088093B107CE0101960E9479
:102CB0004D109093B3078093B207CE0103960E9404
:102CC000410891E0811101C090E09093B4070E9407
:102CD000AC0FECEEF7E088E0DF011D928A95E9F792
:102CE0001092F4071092F5071092F6071092F7076A
:102CF0001092F8071092F9071092FA071092FB074A
:102D00001092FC071092FD071092FE071092FF0729
:102D10004091B50790E080E030E020E061E070E0B5
:102D2000841708F44CC03093A00720939F078FEFBF
:102D30008093A1078093A20780931207E2E1F7E056
:102D400090E080E04EE03FEF489FD001499FB00DFA
:102D50001124ED01CD5ED84F28812E7F2883328348
:102D60001382AE5EB84F11962C911197297F119660
:102D70002C9311971582148211962C911197277E0E
:102D800011962C933683108617821286118628811D
:102D90002F792883138614861586168601963E960B
:102DA0008A30910589F681E080931107DF91CF91F8
:102DB0001F910F91FF90EF90DF90CF900895D70172
:102DC000ED91FD917D01F5FF09C0FB01082E02C0C8
:102DD000EE0FFF1F0A94E2F72E2B3F2B0196A0CF98
:102DE00080930F070895809310070895809111072D
:102DF000882361F1E4EFF7E080E030E020E041E09B
:102E000050E09191992339F0BA01022E01C0660F6A
:102E10000A94EAF7862B2F5F3F4F2430310589F75C
:102E2000823031F481E09091F807911180E0880FB1
:102E30008093EC0786E0E9EFF7E0AEEEB7E00190B3
:102E40000D928A95E1F78CEE97E0089548E050E006
:102E500060E08CEE97E00E944F04F5CF809111075F
:102E6000882309F485C08091EB079091EA07981BAD
:102E7000977009F445C0E82FF0E0EE0FFF1FE6520F
:102E8000F84F9081492F42954F7021818F5F877055
:102E90008093EB07892F827050E090FF36C0882323
:102EA00029F08091F8078F5F8093F807ECEEF7E048
:102EB00090E080E0BA01082E02C0759567950A94EB
:102EC000E2F760FF03C030853F5F3087019631969F
:102ED0008430910579F7222399F08091FF0796E0DD
:102EE0008F5F863009F480E0E82FF0E0E451F84F7E
:102EF0003585332311F0915099F78093FF0725878B
:102F000080919F079091A0070895882339F08091C0
:102F1000F807882319F081508093F807ECEEF7E06A
:102F200090E080E0BA01082E02C0759567950A947A
:102F3000E2F760FF05C03085332311F03150308750
:102F4000019631968430910569F72223C9F2E9EFA1
:102F5000F7E090E080E03191321305C08451984F42
:102F6000FC011586CDCF019686309105A1F7C8CF1B
:102F700090E080E00895CF93DF93C82FD62F809103
:102F80001107882309F448C08C2F0E942D10DC0102
:102F9000DD23E9F1892B29F590E080E02EE0289FE0
:102FA000F001299FF00D1124DF01AD5EB84F3C9177
:102FB00030FD1CC0DF01AD5EB84FEE5EF84FC2833E
:102FC0001382158214828FEF8683108617821286F1
:102FD00011868181807881608183138614861586AD
:102FE0001686C09312078C91846015C001968A30B2
:102FF0009105A9F61F92CF938FE795E09F938F934A
:103000000E948F1E0F900F900F900F9005C0892B7C
:1030100019F08C918B7F8C93DF91CF910895CF9293
:10302000DF92EF92FF920F931F93CF93DF93C82FFE
:1030300080911107882309F47FC083E1E82E87E09F
:10304000F82E670110E000E0DEE0D09FF001D19F94
:10305000F00D1124ED5EF84F808180FF0AC0F6016B
:10306000918180911207981721F06C2FC6010E9460
:10307000F9110F5F1F4FFEE0CF0ED11C0A30110572
:1030800021F710E000E0DEE0D09FF001D19FF00DCD
:103090001124ED5EF84F808180FF0AC0F701918115
:1030A00080911207981304C06C2FC7010E94F91178
:1030B0000F5F1F4FFEE0EF0EF11C0A30110521F7E4
:1030C0008FEF80931207A2E1B7E030E020E08EE0BE
:1030D000829FF001839FF00D1124ED5EF84F9081E7
:1030E00090FF0AC091FD08C019964D915C911A9706
:1030F000452B11F49E7F90832F5F3F4F1E962A3001
:10310000310531F78091A1078F3FB1F06091A2079F
:1031100067FD12C06C0F6093A20763336CF08DE9FA
:1031200095E00E94AA1E8091A1070E94F0128FEFE5
:103130008093A1078093A207DF91CF911F910F91F8
:10314000FF90EF90DF90CF900895109211070895AF
:103150000E94740D81110C9403160C94A518CF9342
:10316000C82F809122088C17A1F08FEA95E0CC231C
:1031700011F08CEA95E09F938F9383EB95E09F93FA
:103180008F930E948F1EC09322080F900F900F9074
:103190000F90CF910895CF93C82F809123088C175B
:1031A000D9F08FEA95E0CC2311F08CEA95E09F935B
:1031B0008F9384EC95E09F938F930E948F1EC09312
:1031C00023080F900F900F900F90C11105C088E059
:1031D00098E0CF910C94F907CF910895823039F49B
:1031E00080E00E94CB1880E00E94AF1808958031E3
:1031F00029F0813131F40E94A81808950E94A51881
:103200000895803239F0813241F0823241F08332C8
:1032100049F0089581E00C94CB1880E0FCCF81E068
:103220000C94AF1880E0FCCFCF93DF93D62FC42F40
:10323000813031F484E199E1DF91CF910C94590D03
:10324000E0912008F0912108309751F00190F08131
:10325000E02D309729F06C2F8D2FDF91CF910994BD
:10326000D11114C081E0C11101C080E080935D01E3
:10327000E0912008F0912108309729F00280F38135
:10328000E02D309741F7DF91CF910895D13039F497
:1032900081E0C11101C080E080935C01E9CFD230B0
:1032A00039F481E0C11101C080E080935B01E0CF7F
:1032B000D33039F481E0C13009F080E080935901C6
:1032C000D7CFD430B1F48C2F0E94F0168CED95E05E
:1032D000C13011F488ED95E09F938F938AEE95E0CD
:1032E0009F938F930E948F1E0F900F900F900F90BF
:1032F000BFCFD53009F0BCCF8C2F0E94F31685EEDE
:1033000095E0C13011F48FED95E09F938F938DEF91
:1033100095E0E6CFCF93DF93C82FD62FE09100083A
:10332000F0910108309709F0099580913508909146
:103330003608009739F08C0F911DFC01C081CF3FFA
:1033400009F43FC0DD2379F11F92CF9382E196E02B
:103350009F938F930E948F1E0F900F900F900F904E
:103360008C2F8093570180915D01882321F06D2F70
:103370008C2F0E94540FE0912008F0912108309783
:1033800041F00680F781E02D309719F06D2F8C2FDA
:10339000099580912308811114C06D2F8C2FDF9126
:1033A000CF910C94BB171F92CF938EE196E09F9321
:1033B0008F930E948F1E0F900F900F900F908FEFA2
:1033C000D0CFDF91CF910895CF93DF93D82FC92F1E
:1033D0006091170870E0482F592F88E198E00E940B
:1033E000820481110DC0E091170881E08E0F809357
:1033F0001708F0E0EE0FFF1FE85EF74FD083C183A0
:10340000DF91CF910895CF93DF93D82FC92F60918B
:10341000140870E0482F592F85E198E00E9482043B
:1034200081110DC0E091140881E08E0F8093140883
:10343000F0E0EE0FFF1FEB5EF74FD083C183DF910B
:10344000CF91089590930308809302080895909374
:103450001308809312080895909311088093100820
:103460000895909336088093350808959093210825
:1034700080932008089581E080935801089583E3A4
:1034800098E0089581E398E00895CF93DF9380E07A
:103490000E94630B84E00E94630B85E00E94630B33
:1034A0000E9473080E94BD0984E199E10E947A0B91
:1034B0000E94570C0E94A8188EEE98E10E94CF0D32
:1034C0000E943208EC0148E050E068E276E00E9499
:1034D000370441E050E06FE374E0CE0108960E94AB
:1034E000370443E050E064ED72E0CE0109960E949B
:1034F000370441E050E06FE374E0CE010C960E9487
:10350000370446E050E06BE072E0CE010D960E9479
:10351000370441E050E06FE374E0CE0143960E942F
:10352000370446E050E06FE171E0CE0144960E941E
:10353000370441E050E06FE374E0CE014A960E9408
:10354000370442E050E066E271E0CE014B960E9403
:10355000370441E050E06FE374E0CE014D960E94E5
:10356000370448E050E069E271E0CE014E960E94D7
:10357000370441E050E06CE771E0CE0186960E948E
:10358000370482E391E0DF91CF910C943508CF931B
:10359000C0E080911708C81710F0CF910895EC2F64
:1035A000F0E0EE0FFF1FE85EF74F0190F081E02D95
:1035B000309719F081E398E00995CF5FEACFCF9378
:1035C000DF9300D0CDB7DEB71A821982E0910208EE
:1035D000F09103083097A9F0BE016F5F7F4FCE01D5
:1035E000029609959A818981292F282B51F01092F2
:1035F0002408909325088093260884E298E00E948E
:1036000002080F900F90DF91CF9108958F929F92B3
:10361000AF92BF92CF92DF92EF92FF920F931F93E0
:10362000CF93DF930E94D9046B017C018091040841
:1036300090910508A0910608B0910708460157012E
:10364000881A990AAA0ABB0A85E688169104A10479
:10365000B10428F084E6882E912CA12CB12CC0E076
:103660006C2F83E398E00E946904182F6C2F81E38C
:1036700098E00E946904D82F11119EC061E0811169
:103680009EC04D2F6C2F83E398E00E945204CF5FC1
:10369000CF3031F7882D0E940F180E942E17EC01B1
:1036A0000E94F6168C0180912F0890913008C8175F
:1036B000D90709F468C080915D01882319F0CE0113
:1036C0000E945C0FE0912008F0912108309739F0BA
:1036D0000480F581E02D309711F0CE010995D0934B
:1036E0003008C0932F08D0935401C0935301C1E018
:1036F00048E050E067E278E0C8010E9428048111A8
:1037000044C080912208811103C0C8010E94F907BA
:1037100048E050E0B80187E298E00E94CE0381E3E0
:1037200096E09F938F930E948F1EC7E2D8E00F9080
:103730000F9006E811E089911F928F931F930F93CA
:103740000E948F1E0F900F900F900F9088E0CF3245
:10375000D80789F78EE396E09F938F930E948F1E80
:10376000809130088F9380912F088F9382E496E0A8
:103770009F938F930E948F1E0F900F900F900F902A
:103780000F900F9004C0C0E0B3CFC111C8CFC0925A
:103790000408D0920508E0920608F0920708DF912D
:1037A000CF911F910F91FF90EF90DF90CF90BF903E
:1037B000AF909F908F900895811163CF60E08C2F20
:1037C0000E948A195ECF80915C01882351F090910C
:1037D000330880913408982B81E009F480E00C9440
:1037E0000B1D089580915C01882351F09091310860
:1037F00080913208982B81E009F480E00C940B1D35
:10380000089580915B01882351F081E00E94FD1CA6
:1038100082E090E00E94960480E00C94FD1C0895E4
:10382000CF93C0E080911408C81710F0CF9108958D
:10383000EC2FF0E0EE0FFF1FEB5EF74F0190F081F1
:10384000E02D0995CF5FEECFE0911208F0911308BB
:10385000309709F009940895E0911008F09111084B
:10386000309709F0099408950E943A080E94FF07D2
:1038700080935A010E94E40D0E942B0D0C94740851
:1038800090930108809300080895CF92DF92EF9201
:10389000FF920F931F93CF93DF93C82ED62E7A01FA
:1038A000122FD32FC0E080913D08C81730F1C0E03F
:1038B00080913C08C81760F1C0923D08D0923C0846
:1038C000E0923A08F0923B0810933808D0933908F8
:1038D00000933708C0E080913D08C81720F1C0E090
:1038E00080913C08C81770F1DF91CF911F910F9123
:1038F000FF90EF90DF90CF900895E0913A08F0911B
:103900003B08EC0FF11D80810E949805CF5FCBCF63
:10391000E0913808F0913908EC0FF11D80810E9488
:103920009805CF5FC5CFE0913A08F0913B08EC0FC6
:10393000F11DD0818D2F0E946F058D2F0E940F06E3
:10394000CF5FC9CFE0913808F0913908EC0FF11D35
:1039500080810E949805CF5FC3CFCF92DF92EF9214
:10396000FF920F931F93CF93DF93082FF92ED0E090
:10397000E12CDD24D39480913D08D81748F0DF91E5
:10398000CF911F910F91FF90EF90DF90CF9008950E
:10399000E0913A08F0913B08ED0FF11DC0808C2DAD
:1039A0000E94120685E090E00E94A504C0E01E2D52
:1039B0001C0F80913C08C81730F08C2D0E940F0618
:1039C000DF5FE12ED8CFE0913808F0913908EC0F95
:1039D000F11D80810E94CA05482F4D25809137082E
:1039E000612F680F802F9F2D0E945204CF5FDFCF81
:1039F00090933F0880933E080895E0913E08F0912F
:103A00003F08309739F062E070E0681B710990E080
:103A100080E009940895E0913E08F0913F083097C6
:103A200039F062E070E0681B710981E090E0099470
:103A30000895E0913E08F0913F08309729F063E047
:103A400070E090E080E009940895E0913E08F091E4
:103A50003F08309729F063E070E081E090E009943E
:103A600008959B01825A9E4FFC0180818F3FA1F0F7
:103A70006330710579F09091400861E0911105C0C3
:103A80002130310529F060E003C021303105D9F340
:103A90000C94B3050C94E60508951F93CF93DF9320
:103AA000D82FC62F142F8F3F31F00E946F05612F42
:103AB0008D2F0E94B305CF3F39F08C2F0E946F05E8
:103AC000612F8C2F0E94B305D0935E01C0935F01DC
:103AD0001093400881E39DE10E94F81C82E00E945F
:103AE000630B81E0DF91CF911F910C94630B41E058
:103AF00065E180E00C944D1DCF93DF93CDB7DEB729
:103B000028970FB6F894DEBF0FBECDBF0E94F00419
:103B10000E94451A0E94DE070E94B20419821A828E
:103B20001B821C8288E2882E912CA12CB12C90E360
:103B3000492E512C612C712C89819A81AB81BC81D9
:103B400083709927AA27BB270097A105B10509F023
:103B50004EC00E94C71A0E94061B0E94E31B698187
:103B60007A818B819C81A50194010E944B1E623059
:103B700071058105910531F469817A818B819C8180
:103B80000E94101C69817A818B819C81A301920122
:103B90000E944B1E633071058105910531F46981E6
:103BA0007A818B819C810E94241C69817A818B811E
:103BB0009C8124E630E040E050E00E944B1E672BE1
:103BC000682B692B11F40E942C1C0E94341C81E08C
:103BD00090E00E94960489819A81AB81BC81019614
:103BE000A11DB11D89839A83AB83BC83A5CF0197A7
:103BF000A105B10509F0B3CF0E94DF1A0E94D904D4
:103C00006B017C018091410890914208A09143088A
:103C1000B09144088C159D05AE05BF0508F09FCFF7
:103C20000E94011C88EBC80E8BE0D81EE11CF11C21
:103C3000C0924108D0924208E0924308F0924408B2
:103C40008ECF0E94771D0E94530500E02EE731E0E1
:103C500041E851E063E085E00E94451C8DEA9CE16B
:103C60000E94E4190E947C1D90E080E0089597FB7B
:103C7000072E16F4009407D077FD09D00E946D1E20
:103C800007FC05D03EF4909581959F4F089570955F
:103C900061957F4F0895A1E21A2EAA1BBB1BFD015F
:103CA0000DC0AA1FBB1FEE1FFF1FA217B307E4071B
:103CB000F50720F0A21BB30BE40BF50B661F771F73
:103CC000881F991F1A9469F7609570958095909553
:103CD0009B01AC01BD01CF010895AA1BBB1B51E1A3
:103CE00007C0AA1FBB1FA617B70710F0A61BB70B6C
:103CF000881F991F5A95A9F780959095BC01CD0111
:103D00000895DC0101C06D9341505040E0F70895E3
:103D1000FB01DC0101900D920020E1F70895B0E075
:103D2000A0E0E5E9FEE10C949821FE013596619151
:103D30007191AF0180914708909148080E94D61E6A
:103D4000E2E00C94B42160914708709148080E9409
:103D5000BF2008950F931F93CF93DF93E0914708FF
:103D6000F0914808238100E010E021FD0EC00FEF24
:103D70001FEFC801DF91CF911F910F910895099511
:103D8000892B11F00FEF1FEFCE01EC0189916091AB
:103D9000470870914808DB011896ED91FC9181115C
:103DA000EECF8AE00995892B21F3E1CFAFE0B0E0B7
:103DB000ECEDFEE10C9488217C013B018A01DC01E1
:103DC00017961C921E92169713968C9181FFBEC176
:103DD0009AE0292EFE0131964F01D70113969C914E
:103DE000F30193FD859193FF81913F01882309F4AD
:103DF00044C1853239F493FD859193FF81913F0150
:103E0000853229F4B70190E00E94BF20E6CFB12CA3
:103E1000412C512CBFE1B51538F08B3209F188F4F3
:103E2000803201F1833221F157FC3AC020ED280F96
:103E30002A3040F556FE1FC0B29C200D1124B22E30
:103E400006C08D3291F0803379F7689450F8F30111
:103E500093FD859193FF81913F018111DBCF20C0BC
:103E6000689451F8689452F8F2CF689453F8EFCF01
:103E7000689454F8ECCF429C200D1124422E689493
:103E800055F8E5CF8E3229F456FCF7C0689456F801
:103E9000DECF8C3619F4689457F8D9CF8836B9F24A
:103EA000982F9F7D95549330C0F0833681F18337EE
:103EB000A1F1833509F05BC0D801CD90DD908D0173
:103EC0006B2D70E056FC02C06FEF7FEFC6010E94C1
:103ED000A9205C01689457F80AC00C5F1F4FEFE3FC
:103EE000E983AA24A394B12C6401E89457F853FE03
:103EF00029C0342CA114B10451F5332009F46DCF3D
:103F0000B70180E290E00E94BF203A94F6CFD8013A
:103F10008C9189830E5F1F4FE4CFF801C190D1903F
:103F20008F016B2D70E056FC02C06FEF7FEFC60172
:103F30000E94B4205C01D9CFB70180E290E00E94DA
:103F4000BF204A944A141B0409F0B0F7D2CFF601FF
:103F500057FC859157FE81916F01B70190E00E9457
:103F6000BF2031103A94B1E0AB1AB108C3CF843608
:103F700019F0893609F071C0F80157FE67C06191E8
:103F80007191819191918F01E52DEF76DE2E97FF52
:103F900009C090958095709561957F4F8F4F9F4F89
:103FA0006894D7F82AE030E0A4010E94EF20C82EE0
:103FB000C818AC2C5D2CD6FE0CC0E89450F8CB147D
:103FC00040F4D4FE05C0D2FC03C05D2D5E7E552EAC
:103FD000AB2C54FE93C0FE01EC0DF11D80818033AB
:103FE00009F085C0652D697E562E752D7870372EA7
:103FF00053FC93C050FE8DC0BC2CA41410F4B40C20
:10400000BA1854FE90C0B70180E390E00E94BF2030
:1040100052FE07C088E751FC88E590E0B7010E9496
:10402000BF20CB1408F48BC0CA94D12C8FEFC81AD0
:10403000D80AC80CD91CD6018E916D01B70190E049
:104040000E94BF208C149D04B1F757CF61917191EC
:10405000072E000C880B990B96CFD52CE894D4F83A
:104060002AE0853729F1F52DF97FDF2E8037A1F081
:1040700058F48835A1F08F36D1F0F7018681978109
:104080002F96E2E10C94A4218837B9F7D4FE02C040
:104090006894D2F820E10CC06894D4F8F7CF54FEAD
:1040A00003C02F2F2660D22E20E132E002C028E08C
:1040B00030E0F801D7FE15C04191519161917191A5
:1040C0004C875D876E877F878F01A4016C857D8516
:1040D0008E859F850E94EF20C82EC818E894D7F8D7
:1040E00068CF81919191AC0170E060E0E9CF52FC22
:1040F00002C0A3947ACFA394A39477CF852D86781A
:1041000009F473CFF6CFB70180E290E00E94BF20A0
:10411000A394A414C0F3312C74CF342C3A18A414F3
:1041200008F46FCFF8CF852D867809F47ACF8BE22B
:1041300051FE80E257FC8DE2B70190E070CFB701ED
:1041400080E390E00E94BF20BA946BCF8FEF9FEF87
:1041500097CFFC010590615070400110D8F7809511
:1041600090958E0F9F1F0895FC0161507040019043
:104170000110D8F7809590958E0F9F1F08950F938B
:104180001F93CF93DF93182F092FEB018B8181FDB4
:1041900009C01FEF0FEF812F902FDF91CF911F915B
:1041A0000F91089582FF14C02E813F818C819D81E3
:1041B000281739073CF4E881F981CF0101969983EA
:1041C000888310838E819F8101969F838E83E3CFA6
:1041D000E885F985812F0995892BA1F3DACFFA01BA
:1041E000AA27283051F1203181F1E8946F936E7F36
:1041F0006E5F7F4F8F4F9F4FAF4FB1E03ED0B4E027
:104200003CD0670F781F891F9A1FA11D680F791F67
:104210008A1F911DA11D6A0F711D811D911DA11D78
:1042200020D009F468943F912AE0269F1124301988
:10423000305D3193DEF6CF010895462F4770405D23
:104240004193B3E00FD0C9F7F6CF462F4F70405DD2
:104250004A3318F0495D31FD4052419302D0A9F72D
:10426000EACFB4E0A6959795879577956795BA9527
:10427000C9F700976105710508959B01AC010A2EED
:1042800006945795479537952795BA95C9F7620FC4
:10429000731F841F951FA01D0895DC01CB01FC0135
:1042A000F999FECF06C0F2BDE1BDF89A319600B48F
:1042B0000D9241505040B8F70895F999FECF92BD44
:1042C00081BDF89A992780B50895A8E1B0E042E051
:1042D00050E00C944F21DC01CB0103C02D910E94D2
:1042E000762141505040D0F70895262FF999FECFFE
:1042F0001FBA92BD81BD20BD0FB6F894FA9AF99A03
:104300000FBE019608950E947521272F0C947621E7
:104310002F923F924F925F926F927F928F929F92D5
:10432000AF92BF92CF92DF92EF92FF920F931F93C3
:10433000CF93DF93CDB7DEB7CA1BDB0B0FB6F89474
:10434000DEBF0FBECDBF09942A88398848885F84B4
:104350006E847D848C849B84AA84B984C884DF8025
:10436000EE80FD800C811B81AA81B981CE0FD11D09
:104370000FB6F894DEBF0FBECDBFED010895F894DF
:02438000FFCF6D
:10438200000000020000000095040000000001018E
:104392000101010101FFFFFFFFFF244B4D4D44309E
:1043A200303030303000303000303030303030306B
:1043B2003000536869726F000000000000000000C6
:1043C20000000000000000000000000000000000EB
:1043D20000000000002708FF000000010101FFFFAC
:1043E2007EA30A001200000000000101010001008A
:1043F200000014002510E7158015E11400002425A3
:1044020026140E171E042530325820002564200081
:10441200726573657420746F2064667520626F6FB5
:10442200746C6F616465720075736220646576698D
:10443200636520636F6E66696775726564006461A7
:10444200746173746F7261676520696E6974696102
:104452006C697A650073746F726167652064617458
:10446200612076616C6964007265736574206461B1
:1044720074612073746F7261676520666F72206E5B
:1044820065772070726F6A65637400687863664D41
:10449200370030303030303030300073797374652B
:1044A2006D20706172616D657465722076616C75E4
:1044B200652066697865642025642C202564202D9A
:1044C2002D3E2025640A0073797374656D20706136
:1044D20072616D657465727320696E697469616C6D
:1044E200697A656400706172616D657465727320CA
:1044F200736176656400696E76616C6964206B65D0
:10450200792061737369676E732064617461006BF3
:1045120065792061737369676E732073746F72615A
:10452200676520646174612069732076616C6964D7
:10453200005B7761726E5D206661696C65642074F0
:104542006F2077726974652072617768696420648C
:10455200617461004D30310061746D656761006D99
:10456200656D6F7279207772697465207472616EFD
:1045720073616374696F6E20737461727400256471
:10458200206279746573207772697474656E206134
:10459200742025640A00636865636B2C206164647F
:1045A200722025642C206C656E2025640A00636BE2
:1045B2003A2025640A006D656D6F72792077726901
:1045C2007465207472616E73616374696F6E2064C6
:1045D2006F6E6500410042004400450046004700FE
:1045E20048004A004B004C004D004E004F00500066
:1045F200510052005400550056005700580059000F
:104602005A00457363005370616365005461620030
:1046120046310046320046330046340046350046F5
:1046220036004637004638004639004631300046EB
:10463200313100463132004C5368696674004C4394
:1046420074726C004C416C74004C475549005253D3
:104652006869667400524374726C0052416C740053
:104662005247554900486F6D6500456E6400496EBA
:10467200736572740044656C6574650050616765AA
:1046820055700050616765446E004C656674005257
:104692006967687400446F776E0048616E2F5A65CF
:1046A2006E004B6174612F486972610048656E6BE0
:1046B200616E004D7568656E002C0021003F003A66
:1046C200003B005F0026007C005E007E004000236D
:1046D200002400C2A50025005C0027002200600023
:1046E200280029007B007D003C003E004B616E618A
:1046F2000045697375004E756D4C6F636B004361C5
:1047020070734C6F636B005363726F6C6C4C6F63AE
:104712006B004E756D30004E756D31004E756D3209
:10472200004E756D33004E756D34004E756D35005B
:104732004E756D36004E756D37004E756D38004EF4
:10474200756D39004E756D3030004E756D2E004E10
:10475200756D2F004E756D2A004E756D2D004E75CC
:104762006D2B004E756D3D004E756D5F456E746527
:1047720072004E756D5F425300463133004631344C
:104782000046313500463136004631370046313871
:10479200004631390046323000463231004632326C
:1047A2000046323300463234005072745363720052
:1047B2005061757365427265616B004D656E75007F
:1047C2006C61796572206F66662025640A006C61EF
:1047D200796572206F6E2025640A006E756D4C61DA
:1047E200796572733A2564206B65794D61707069E1
:1047F2006E674461746153697A653A25640A00639D
:10480200616E6E6F7420617474616368206B657988
:1048120020256420746F20736C6F740A0063616ECC
:1048220063656C206F6E6573686F74006F6E006FE6
:104832006666006F7574707574206D7574653A20C4
:1048420025730A0073696D756C61746F72206D6FE8
:1048520064653A2025730A004A49530055530041C2
:104862006C746572004D61696E0073797374656D65
:10487200206C61796F75743A2025730A00726F7526
:1048820074696E67206368616E6E656C3A20257389
:104892000A006B6579646F776E2025640A006B6588
:1048A2007975702025640A0041313532464432431D
:1048B20000484944207265706F72743A5B005D2C47
:1048C20020006C61796572733A20253032580A00F3
:00000001FF
