:100000000C94DC040C94F9040C94F9040C94092568
:100010000C94F9040C94F9040C94F9040C94F9046C
:100020000C94F9040C94F9040C940F070C94330706
:100030000C94F9040C94F9040C94F9040C94F9044C
:100040000C94F9040C94F9040C94F9040C94F9043C
:100050000C94F9040C94F9040C94F9040C94F9042C
:100060000C94F9040C94F9040C94F9040C94F9041C
:100070000C94F9040C94F9040C94F9040C94F9040C
:100080000C94F9040C94F9040C94F9040C94F904FC
:100090000C94F9040C94F9040C94F9040C94F904EC
:1000A0000C94F9040C94F9040C94F9040001000078
:1000B000660212000200007C015B002200004A027E
:1000C0001C002100008E0109002201000A024000EC
:1000D000210100AE010900220200D70133002102F4
:1000E00000C7010900030000780104010309046648
:1000F0000110020309043401300303090400013232
:10010000320330003000300030003000300030006A
:10011000300030003000300030003000300030005F
:10012000300030003000300030003000300030004F
:100130003000000030034B00650072006D00690064
:100140007400650020004B006500790062006F00BC
:1001500061007200640020004400650076006900C0
:1001600063006500000010034B00650072006D0025
:1001700069007400650000000403090409025B00C3
:10018000030100C03209040000020300000009213D
:1001900011010001221C0007058103400002070530
:1001A00002034000080904010001030101000921C4
:1001B0001101000122400007058303080001090422
:1001C0000200010301020009211101000122330094
:1001D0000705840308000105010902A101050919A9
:1001E000012903150025019503750181029501750B
:1001F0000581030501093009311581257F750895B1
:10020000028106093895018106C005010906A10190
:1002100075019508050719E029E7150025018102F8
:1002200095017508810395057501050819012905D2
:10023000910295017503910395067508150026FF37
:10024000000507190029FF8100C006ABFF0A000264
:10025000A1017508150026FF00954009018102954E
:100260004009029102C0120100020000002055F076
:1002700077A5000101020301011F03040000000231
:1002800021030500000003230306000000042503EA
:1002900007000000052703080000000629030900E5
:1002A0000000072B030A000000082D030B000000CC
:1002B00009A0030C0000000A2F030D0000000B3101
:1002C000030E0000000C33030F0000000D35031077
:1002D0000000000E3703110000000F390312000068
:1002E00000103B0313000000113D03140000001236
:1002F0003F03150000001362031600000014D1052F
:1003000017000000154103180000001643031900F0
:1003100000001745031A0000001847031B000000E7
:100320001949031C0000001A4B031D0000001B812B
:1003300003270200001C85031E0200001D89031F05
:100340000200001E6B03200200001F6E032102004A
:100350000020710322020000217403230200002206
:10036000770324020000237A0325020000247D0382
:1003700026020000254D03290000002651032C0011
:10038000000027570328000000285D032B00000011
:100390002961032A0000002A64033A0000002B6749
:1003A000033B0000002C6A033C0000002D6D033D60
:1003B0000000002E70033E0000002F73033F00007A
:1003C0000030760340000000317903410000003224
:1003D0007C0342000000337F0343000000348303AA
:1003E0004400000035870345000000588C03E100FD
:1003F0000000579303E0000000599903E200000059
:100400005A9E03E30000009F8B03E10000009E92D0
:1004100003E0000000A09803E2000000A19D03E3B8
:10042000000000A3A203E5000000A2A903E400006D
:1004300000A4AF03E6000000A5B403E70000005BE2
:10044000B9034A0000005CBE034D0000005DC2031A
:10045000490000005EC9034C0000005FD0034B0060
:10046000000060D7034E00000061DE035000000072
:1004700062E3034F00000063D4035200000064E90C
:1004800003510000006AEE03350000006BF603889C
:100490000000006D00048A0000006C07048B00005F
:1004A00000360D0437023702370F043602360238A1
:1004B00011041E011E01391304380138013A1504D4
:1004C000330134023B1704330233023C19042D017B
:1004D00087013D1B042E0133013E1D042D022D0218
:1004E0003F1F042501340140210438023802412312
:1004F000042E022D01422504240123014327043147
:1005000001890144290423012E02452B0435012EC3
:1005100001462D041F012F02472F0420012001480E
:10052000310421012101493304310289024A360490
:10053000220122014B3804310287024C3A04340272
:1005400024014D3C0434011F014E3E0435022F01AD
:100550004F40042601250150420427012601514441
:10056000042F023002524604300231025344042F59
:10057000013001544604300131015548043601363A
:1005800001564A043701370100AEA81FD30040A12D
:10059000C8DA02813FA4A6D5808D142002AF0000E6
:1005A00000000000005E00000006000600247E241B
:1005B0007E24002E7A2F3A00661668660036494976
:1005C00036000600000000003E41000000413E00F1
:1005D000082A1C2A0808083E0808004020000000DD
:1005E00008080808000020000000300C0300007F0D
:1005F00041417F0000417F40007949494F0049490E
:10060000497F000F08087F004F494979007F494919
:10061000790001710907007F49497F004F49497FEF
:100620000000240000000040240000081422000004
:100630001414141400002214080002015906007F4B
:100640005D557D007F11117F007F49497E007F410C
:100650004141007F41413E007F494949007F0909EE
:1006600009007F414979007F08087F00417F4100F0
:10067000004040413F007F083641007F4040407FBE
:10068000017F017F7F031C607F007F41417F007FEE
:1006900009090F007F41215F007F19294F004F4951
:1006A000497901017F0101007F40407F007F4020A8
:1006B0001F7F407F407F00631C1C6303047804039A
:1006C0000061514D4300007F410000030C304000A9
:1006D00000417F00000402040000202020200004CC
:1006E000020000007454547C007F44447C007C442D
:1006F0004444007C44447F007C54545C00047F05E7
:100700000000BCA4A4FC007F04047C0000007D0069
:10071000000080FD00007F10284400007F40007C26
:10072000047C047C007C04047C007C44447C00FC4D
:1007300024243C003C2424FC00007C0404005C5481
:10074000547400047F4400007C40407C007C4020C6
:100750001C7C407C407C0044383844009CA0403CD9
:10076000004464544C000402000000087F41000073
:1007700000007F000000417F080000000000000032
:1007800000000000000000000080FFFF0780FFFF66
:100790000780FFFF0780FFFF070000070000800FB2
:1007A0000000C01F0000F03F0000F87F0000FCFCCC
:1007B00000007EF801803FE003800FC007800780C3
:1007C000078003000780010006000000040000000D
:1007D000000000000080FFFF0780FFFF0780FFFF91
:1007E0000780FFFF078087870780878707808787C5
:1007F00007808787078087870780878707808787A5
:10080000078087870780878707808787078007801B
:1008100007000000000000000000000000000000D1
:100820000080FFFF0780FFFF0780FFFF0780FFFFBB
:100830000780071E0080071E0080071E0080071E1D
:100840000080077E008007FE00800FFF01809FFF71
:100850000700FFEF0700FF8F0700FE070700F80102
:100860000600000000000000000000000080FFFF04
:100870000700FFFF0700FEFF0700F8FF0700F00377
:100880000000E0070000C00F0000801F0000007F94
:10089000000000FC000000FC0000007F0000801F42
:1008A0000000C00F0000E0070000F0030000F8FFA8
:1008B0000700FEFF0700FFFF0780FFFF07000000A3
:1008C0000000000000000000000000000000000028
:1008D0000080FFFF0780FFFF0780FFFF0780FFFF0B
:1008E000070000000000000000000000008007007A
:1008F00000800700008007000080070000800700DC
:10090000008007000080FFFF0780FFFF0780FFFFD8
:100910000780FFFF078007000080070000800700B6
:100920000080070000800700008007000000000032
:100930000080FFFF0780FFFF0780FFFF0780FFFFAA
:100940000780878707808787078087870780878753
:100950000780878707808787078087870780878743
:100960000780878707808787078007800700000048
:10097000000000000000000000EB22A5222222312E
:100980002376200000FF000044FF0000FFFF00006E
:10099000FF660000FF000044FF0000FFFF0000FFB3
:1009A000440000FF000000FF004400FF00FF00447F
:1009B00000FF00FFFFFF000011241FBECFEFDAE0B1
:1009C000DEBFCDBF16E0A0E0B1E0E4E7FEE502C087
:1009D00005900D92A433B107D9F728E0A4E3B6E05F
:1009E00001C01D92AC3DB207E1F70E94F0280C94C3
:1009F000312F0C940000EF92FF920F931F93CF932F
:100A0000DF93EC018C01060F171F8BE6E82E81E0C7
:100A1000F82EC017D10751F48AE090E0DF91CF9112
:100A20001F910F91FF90EF900C94F22B89911F92E0
:100A30008F93FF92EF920E94DE2B0F900F900F90FA
:100A40000F90E7CFEF92FF920F931F93CF93DF9317
:100A5000EC018C01060F171F81E7E82E81E0F82ECC
:100A6000C017D10751F48AE090E0DF91CF911F9138
:100A70000F91FF90EF900C94F22B89911F928F931E
:100A8000FF92EF920E94DE2B0F900F900F900F902D
:100A9000E7CFFB01DC01460F571FE417F50709F408
:100AA000089581918D93F9CFAF92BF92CF92DF924B
:100AB000EF92FF920F931F93CF93DF93DC01162FDA
:100AC000EA0190E061E070E090130BC0DF91CF91FC
:100AD0001F910F91FF90EF90DF90CF90BF90AF905C
:100AE0000895892F810F382F3695369536957D01DB
:100AF000E30EF11CF701308187705B0101C0AA0C85
:100B00008A95EAF7892F820F482F46954695469594
:100B10004C0F5D2F511DFA01408150E087706B0131
:100B200002C0CC0CDD1C8A95E2F74C215D21832F9D
:100B30008A29452B21F4EA2DE0958E2F8323F70196
:100B400080839F5FC1CFFC01DB01480F591FE41771
:100B5000F50711F481E0089591918D919817B9F3FB
:100B600080E00895FB01DC01460F571FE417F507ED
:100B700009F40895819190E08D939D93F7CF70E0F3
:100B80000C94D02B262F269526952695FC01E20F56
:100B9000F11D9081677021E030E001C0220F6A955D
:100BA000EAF7442319F0922B90830895209592231D
:100BB000FBCF262F269526952695820F911DFC01A9
:100BC000208130E0677081E090E002C0880F991FBB
:100BD0006A95E2F72823392381E0121613060CF0F8
:100BE00080E008959B01BA01FC0190E080E082174B
:100BF000930714F080E008954191519146175707EB
:100C000011F00196F4CF81E0089508959C0190E0E1
:100C100080E08217930709F40895EFE9FFE0319728
:100C2000F1F700C000000196F4CF9C0190E080E055
:100C30008217930709F4089545E04A95F1F70000FB
:100C40000196F6CF78940895F8940895A89514BE67
:100C5000E0E6F0E0808188618083108280E885BFD3
:100C600085BF1092D8000895F8940C94001C089544
:100C700080E091E09093D9088093D8080895E82FF8
:100C8000E695E695E69593E0E99FF001112435A1FC
:100C9000282F277081E090E001C0880F2A95EAF79D
:100CA0008095832385A30895E82FE695E695E6953C
:100CB00093E0E99FF001112494A1877021E030E0D6
:100CC00001C0220F8A95EAF7892F822B84A3089509
:100CD000E82FE695E695E69593E0E99FF00111246B
:100CE00034A1282F277081E090E001C0880F2A9559
:100CF000EAF78095832384A30895E82FE695E69587
:100D0000E69563E0E69FF001112444A1877021E09D
:100D100030E0B90102C0660F771F8A95E2F7CB0178
:100D2000962F9095942394A395A1892B85A308953C
:100D3000662399F0E82FE695E695E69593E0E99F1E
:100D4000F001112495A1877021E030E001C0220F4D
:100D50008A95EAF7922B95A308950C943F06E82F05
:100D6000E695E695E695EF5F93E0E99FF0011124A3
:100D700090A1877021E030E002C0220F331F8A95D6
:100D8000E2F7892F90E02823392381E01216130619
:100D90000CF080E00895E82FE695E695E69593E05F
:100DA000E99FF001112495A1877021E030E001C096
:100DB000220F8A95EAF7892F822785A308958695C1
:100DC0008695869523E0829FC0011124859608951B
:100DD0008695869586958F5F23E0829FC0011124BA
:100DE000809608958770089561E00C9498060C949D
:100DF0003F06E82FE695E695E695EF5F93E0E99FDD
:100E0000F001112490A1877021E030E001C0220F91
:100E10008A95EAF7892F822B80A3089508951F925F
:100E20001FB61F9211248F939F938091E10010921F
:100E3000E10083FF0FC01092E90091E09093EB0076
:100E40001092EC0092E29093ED0098E09093F00005
:100E50001092350682FD809135069F918F911F90EB
:100E60001FBE1F9018951F920F920FB60F9211245C
:100E7000EF92FF920F931F932F933F934F935F93A4
:100E80006F937F938F939F93AF93BF93CF93DF9392
:100E9000EF93FF931092E9008091E80083FF5AC01E
:100EA0009091F1008091F1002091F1003091F100DA
:100EB0004091F1005091F1006091F1007091F100CA
:100EC000E2EFE093E800863009F087C08CEA90E01A
:100ED000A0E0B1E0FC01C591D4912C173D0709F0C9
:100EE00034C0FC013296C591D4914C175D0769F569
:100EF000FC013496459154910696FC0184916F3F14
:100F0000710519F010F06FEF70E0F62E861708F4F7
:100F1000F82EBA018EEFE82E8091E800982F957098
:100F2000D9F382FD2CC08F2DF0E2FF1508F480E28A
:100F300023303207A9F0FB01982F9923A9F0A4913F
:100F4000A093F10091503196F8CF0796A817B907F2
:100F500009F0C0CF81E28093EB0011C0F92EDCCF05
:100F60008B01982F911122C0680F711D9F2D981B26
:100F7000E092E800F812F2CF80E2F81679F3FF91E0
:100F8000EF91DF91CF91BF91AF919F918F917F9121
:100F90006F915F914F913F912F911F910F91FF9012
:100FA000EF900F900FBE0F901F901895E801C41B93
:100FB000D50BAC2FF801B491C23048F0A250B0E08C
:100FC000C0FD05C0A695B0E0AA5CB94FBC91B09336
:100FD000F10091500F5F1F4FC5CF853059F48EEF50
:100FE0008093E8008091E80080FFFCCF2068209388
:100FF000E300C5CF8930C9F5911137C0209335067C
:101000008EEF8093E80081E08093E9008093EB000D
:1010100091EC9093EC0026E32093ED0032E03093C6
:10102000E9008093EB0030EC3093EC002093ED006E
:1010300023E02093E9008093EB009093EC0026E0FE
:101040002093ED0034E03093E9008093EB0090931F
:10105000EC002093ED0085E791E00E94F92B8EE1F2
:101060008093EA001092EA008ACF4115510539F4C5
:10107000913209F06FCF8A3009F06CCF15C0413042
:101080005105B1F4913209F065CF8930A1F7809113
:10109000E80082FFFCCF8091F100809334068091BC
:1010A00034068BEF8093E8008EEF8093E80067CFE3
:1010B00042305105E9F24ECF80E8809361001092F2
:1010C000610081E08093D70080EA8093D80082E1BC
:1010D00089BD09B400FEFDCF80E98093D80010924D
:1010E000E000109235068CE08093E2000895909124
:1010F0003506911102C080E0089593E09093E900D5
:101100009091E80095FFF7CFF8948093F10010924A
:10111000F100FB01CB01069621912093F100E81725
:10112000F907D1F78AE38093E800789481E0089585
:1011300020913506211102C080E0089523E020931C
:10114000E9002091E80025FFF7CFF894FC0108960C
:1011500021912093F100E817F907D1F78AE38093F2
:10116000E800789481E0089520913506211102C0AD
:1011700080E0089521E02093E9002091E80025FF18
:10118000F7CFF894FC01805C9F4F21912093F100F0
:10119000E817F907D1F78AE38093E800789481E0B3
:1011A000089520913506211102C080E0089522E0C3
:1011B0002093E9002091E80025FFF7CFF894FC0187
:1011C000805C9F4F2091F1002193E817F907D1F738
:1011D0008BE68093E800789481E00895909135063D
:1011E00081E0911101C080E0089586E396E00895C2
:1011F00008951092D800089580E094E00895F99938
:10120000FECF0C94CF2EF999FECF0C94E72EF999CE
:10121000FECF0C94D72EF999FECF0C94F52E382FD3
:10122000292FCB01F999FECF632F722F0C94BF2E7B
:10123000382F292FCB01F999FECF632F722F0C94F1
:10124000DD2ECF93DF93D0E0C0E060E0CE010E94BE
:1012500003092196C11584E0D807B9F7DF91CF9132
:101260000895089508955198599A5098589A10924F
:10127000B9008CE08093B80008959A0194EA9093A5
:10128000BC009091BC0097FFFCCF880F8093BB00FF
:1012900084E88093BC008091BC0087FFFCCFFB01F9
:1012A00090E080E044E88217930724F084E980937B
:1012B000BC00089551915093BB004093BC005091E5
:1012C000BC0057FFFCCF0196EECF9A0194EA9093B1
:1012D000BC009091BC0097FFFCCF880F8160809389
:1012E000BB0084E88093BC008091BC0087FFFCCFEA
:1012F000FB0190E080E0A9014150510964E874ECE1
:101300008217930724F084E98093BC000895841722
:1013100095075CF47093BC00A091BC00A7FFFCCFC4
:10132000A091BB00A1930196EBCF6093BC00F4CFDA
:1013300094EA9093BC009091BC0097FFFCCF880F7B
:101340008093BB0084E88093BC008091BC0087FF41
:10135000FCCF08958093BB0084E88093BC0080910B
:10136000BC0087FFFCCF089584E98093BC000895FA
:101370008F929F92AF92BF92CF92DF92EF92FF92A5
:101380000F931F93CF93DF935C01EB016A01790107
:101390004801CC15DD0510F5CE010E9407098C012E
:1013A000CE0102960E9407099C010A151B05A1F4B3
:1013B0002496F701D183C083F40131832083DF9128
:1013C000CF911F910F91FF90EF90DF90CF90BF9042
:1013D000AF909F908F900895892B29F4D0E0C0E0C2
:1013E00030E020E0E6CF2C5F3F4FC20FD31FD1CFBC
:1013F000EF92FF920F931F93CF93DF93D82FC92FB4
:101400007B018A010E94FC08AC01970162E070E058
:101410008D2F9C2F0E94B809DF91CF911F910F91C2
:10142000FF90EF900895CF93DF9300D000D0CDB719
:10143000DEB7AE014F5F5F4FBE016D5F7F4F0E9411
:10144000F8098B819C810F900F900F900F90DF9186
:10145000CF910895CF92DF92EF92FF920F931F9357
:10146000CF93DF9300D000D0CDB7DEB76C017B0106
:101470008A01AE014F5F5F4FBE016D5F7F4F80E716
:101480009AEA0E94F8096B817C8161157105A9F0C7
:1014900049815A81460F571F9701C6010E94B8091A
:1014A0000F900F900F900F90DF91CF911F910F91A0
:1014B000FF90EF90DF90CF900895F7011182108296
:1014C000F80111821082ECCFAF92BF92CF92DF92DF
:1014D000EF92FF920F931F93CF93DF9300D000D032
:1014E000CDB7DEB78BE891E00E94F92B90E080E069
:1014F0000E9407098E37934A09F044C0AE014F5F3E
:101500005F4FBE016D5F7F4F80E19AEA0E94F8094C
:10151000E980FA80AE014F5F5F4FBE016D5F7F4F84
:1015200080E29AEA0E94F809A980BA80AE014F5F72
:101530005F4FBE016D5F7F4F80E39AEA0E94F8091A
:10154000C980DA80AE014F5F5F4FBE016D5F7F4F94
:1015500080E49AEA0E94F80909811A8180E79AEAF0
:101560000E94130A9C0182E1A816B10459F48DE08F
:10157000C816D10439F40E291F29012B19F4232B85
:1015800009F04AC085EB91E00E94F92B0E942109E5
:101590006EE773EA90E080E00E940B0960E27AEA6D
:1015A00082E090E00E940B0962E170E084E090E04C
:1015B0000E940B0960E37AEA88E190E00E940B093F
:1015C0006DE070E08AE190E00E940B0960E77AEA42
:1015D00089E290E00E940B0970E060E08BE290E00D
:1015E0000E940B0980E29AEA0E94130A0097D9F13F
:1015F00048E050E068ED71E00F900F900F900F9071
:10160000DF91CF911F910F91FF90EF90DF90CF90DE
:10161000BF90AF900C94180980E29AEA0E94130AD6
:1016200048E050E06EE476E00E940F0948E050E0A8
:1016300068ED71E08EE496E00E94A305882309F42A
:10164000A1CF82EA91E00F900F900F900F90DF9161
:10165000CF911F910F91FF90EF90DF90CF90BF90AF
:10166000AF900C94F92B0F900F900F900F90DF918B
:10167000CF911F910F91FF90EF90DF90CF90BF908F
:10168000AF900895CF93DF9380E79AEA0E94130A00
:10169000EC01892B31F00E94FC089C012C1B3D0BB6
:1016A000E901CE01DF91CF91089580E29AEA0E948C
:1016B000130A0896089580E29AEA0E94130A409657
:1016C000089580E39AEA0C94130A8DE090E008955F
:1016D00080E79AEA0C94130ACF93DF9300D000D0EE
:1016E000CDB7DEB7AE014F5F5F4FBE016D5F7F4F7D
:1016F00081E79BEB0E942A0A8B819C810F900F90BF
:101700000F900F90DF91CF910895CF93DF9300D08A
:1017100000D0CDB7DEB7AE014F5F5F4FBE016D5F4A
:101720007F4F84E79BEB0E942A0A8B819C810F905C
:101730000F900F900F90DF91CF910895CF93DF938B
:1017400000D000D0CDB7DEB7AE014F5F5F4FBE0116
:101750006D5F7F4F88E79BEB0E942A0A8B819C81FB
:101760000F900F900F900F90DF91CF910895CF932E
:10177000DF9300D000D0CDB7DEB7AE014F5F5F4F33
:10178000BE016D5F7F4F88E79BEB0E942A0A89812B
:101790009A810F900F900F900F90DF91CF91089545
:1017A000CF93DF9300D000D0CDB7DEB7AE014F5F4F
:1017B0005F4FBE016D5F7F4F86E79BEB0E942A0A59
:1017C0008B819C810F900F900F900F90DF91CF91A4
:1017D00008958F929F92AF92BF92CF92DF92EF9235
:1017E000FF920F931F93CF93DF93D0E0C0E0EE24DE
:1017F000E394F12C87010C2E02C0000F111F0A94F4
:10180000E2F7809156069091570680239123892B09
:10181000F1F0FE01EC59F94F90808C2E8AE5A82E4C
:1018200086E0B82ED12CC12C809158069091590693
:10183000C816D906ECF00095109580915606909147
:10184000570680239123909357068093560621963E
:10185000CD30D10579F6DF91CF911F910F91FF9097
:10186000EF90DF90CF90BF90AF909F908F900895B2
:10187000D501ED91FD915D01692D882D0995BFEF91
:10188000CB1ADB0AD1CFCF93DF93D82FC92F60912A
:10189000580670915906482F592F8AE596E00E9404
:1018A000F205811110C0E0915806F0915906CF0160
:1018B00001969093590680935806EE0FFF1FE65A43
:1018C000F94FD083C183DF91CF910895E82FF0E0E5
:1018D000E25FFE4F60830895853011F4613040F07F
:1018E000E82FF0E0E25FFE4F81E09081961708F468
:1018F00080E081700895DF92EF92FF920F931F9323
:10190000CF93DF9304E616E0D0E0C0E081EEE82E4E
:1019100081E0F82EF801D1908F016D2D8C2F0E945F
:101920006C0C811119C0FE01E15CFE4F8081F80151
:10193000319780831F928F931F92DF92DF93CF9313
:10194000FF92EF920E94DE2BEDB7FEB738960FB6EE
:10195000F894FEBF0FBEEDBF2196CD30D105D1F674
:10196000DF91CF911F910F91FF90EF90DF9008953D
:10197000CF93DF93C82FD62F0E946C0C8823E1F001
:10198000EC2FF0E0EC59F94FD08321E030E002C0B9
:10199000220F331FCA95E2F78091560690915706A1
:1019A000822B932B909357068093560688EB9BE0EF
:1019B00090931C0180931B01DF91CF910895CF93E9
:1019C000C82F282F30E0F901E25FFE4F90812C599B
:1019D000394FD901EC91F0E09F01260F371F4423C6
:1019E00089F0692F70E06F5F7F4FCB01820F931FEB
:1019F0000E9417298E179F0789F0682F8C2FCF918F
:101A00000C94B80C37FD07C0892F90E028173907D0
:101A10008CF7C901EFCF90E080E0ECCFCF91089533
:101A2000CF93DF930E94610B9093630680936206CD
:101A3000892B09F440C00E945B0BEC010097B1F0C8
:101A40000E94FF08811112C04DE050E06FE371E089
:101A500080916206909163060E94180961E0CE01B0
:101A60000E9403098DE092E00E94F92B4DE050E0C6
:101A700064E676E080916206909163060E940F0909
:101A80000E947B0C209156063091570690E080E032
:101A900061E070E0AB01082E02C0440F551F0A94AC
:101AA000E2F7242B352B01968D30910599F7309371
:101AB000570620935606DF91CF910895462F50E0A8
:101AC00064E676E00C944905462F50E06EE071E044
:101AD0000C944905E82FF0E0EC59F94F8081089506
:101AE0000C94B80CEF92FF920F931F93CF93DF9358
:101AF0008C01D0E0C0E0E62EF12CCE15DF053CF0E5
:101B0000DF91CF911F910F91FF90EF900895F80111
:101B100061918F018C2F0E94B80C2196EECF0F930C
:101B20001F93CF930FE311E0C0E0F80161918F01A3
:101B30008C2F0E94B80CCF5FCD30B9F7CF911F9199
:101B40000F910895813039F460916B06682787E022
:101B50000E94B80C0895823041F0833069F441E06E
:101B60006FEF7FEF88E00C94DF0C41E061E070E004
:101B70008AE00E94DF0C089541E061E070E084306B
:101B800089F340E060EF7FEF853031F040E060E1C5
:101B900070E0863009F0089589E0E5CF80911B015F
:101BA00090911C0118161906BCF4019790931C0122
:101BB00080931B01892B81F48091620690916306CA
:101BC000009751F04DE050E064E676E00E9418097D
:101BD0008BE292E00E94F92B0C94E90B0C94E90B38
:101BE00084E696E00895CF93DF930E946C0BEC019E
:101BF0000E94420B209741F48CE392E00E94F92B63
:101C000080E0DF91CF910895892BB1F345E050E05A
:101C100061E776E0CE010E940F09309172062091B3
:101C2000730690917406809175064091710641305B
:101C300019F7363009F72330F9F69F3FE9F2813181
:101C4000D8F685E592E00E94F92B81E0DACFE091A9
:101C5000BE06F091BF06309709F0099408950E94DE
:101C6000EE08882351F088E796E00E94B4088111BD
:101C700004C087E792E00C94F92B089590917706C1
:101C8000992399F09091760691110FC090EB909363
:101C9000780692E09093790691EE90937A0680937D
:101CA0007B0660937C060C942F0E08959093BF06DC
:101CB0008093BE068EE39EE00E94430C0E94550B6B
:101CC0009093BD068093BC060E94680B9093BB0660
:101CD0008093BA060E94420B9093B9068093B8068F
:101CE0000895CF92DF92FF920F931F93CF93DF93CC
:101CF00088E796E00E94D108882309F49DC080916E
:101D00007806803B09F00CC19091790680917A06A3
:101D1000913009F0ABC0803171F48AE992E00E9401
:101D2000F92B81E0DF91CF911F910F91FF90DF9010
:101D3000CF900C94270E803209F458C0813209F0FC
:101D400083C0C0917B06D0917C06DC27CD27DC27A1
:101D50008091BA069091BB06C80FD91F00917D06ED
:101D600010917E061027012710271F930F93DF93F2
:101D7000CF9381ED92E09F938F930E94DE2B0F9083
:101D80000F900F900F900F900F90D12CC12CF12C31
:101D9000C016D10609F060C01F92FF9289EE92E052
:101DA0009F938F930E94DE2B80EB8093780681E0D7
:101DB0008093790682E280937A06F0927B061092F5
:101DC0007C060E942F0E0F900F900F900F90809125
:101DD000BA069091BB06B6010297DF91CF911F9191
:101DE0000F91FF90DF90CF900C940B09C0917B0670
:101DF000D0917C06DC27CD27DC278091BA06909114
:101E0000BB06C80FD91F10917D06412F50E06EE729
:101E100076E0CE010E941809DF93CF931F921F93A3
:101E200089EB92E09F938F930E94DE2B0F900F908F
:101E30000F900F900F900F90DF91CF911F910F9106
:101E4000FF90DF90CF9008958131B1F781EF92E05C
:101E50000E94F92B82E066CFCE018C0D9D1D0E9461
:101E6000FF08F8268FEFC81AD80A92CF9230A9F04F
:101E7000933011F7803901F748E050E06BE776E0E6
:101E80008091BC069091BD06DF91CF911F910F917B
:101E9000FF90DF90CF900C9418098038C9F481E846
:101EA00080937A068DE080937B066DE08CE796E068
:101EB0000E945E0D6DE089E896E00E94640DDF915E
:101EC000CF911F910F91FF90DF90CF900C942F0E28
:101ED000803979F0803AD9F460917C0680917B0654
:101EE000DF91CF911F910F91FF90DF90CF900C94D5
:101EF000700D40917B0660917C0681E080937606B0
:101F00008DE796E00E94720D1092760695CF803B89
:101F100009F092CF81E0809376060E948F0DF4CF76
:101F2000803F79F0803D09F087CF8091790680313C
:101F300009F05FC080917A06813009F058C08AE0CC
:101F4000F1CE80917906803109F076CF81E18093DE
:101F5000790610927A0684E080937B0686E080936F
:101F60007C06C1E0C0937D0648E050E068ED71E07A
:101F70008EE796E00E944905C09386061092870678
:101F800048E050E068E876E08091BC069091BD069C
:101F90000E940F098091B8069091B9069827892769
:101FA0009827909391068093900640E150E060E07E
:101FB00082E996E00E94BF0546E050E06FE073E0E2
:101FC00082E996E00E94490548E050E066E173E04E
:101FD00082EA96E00E94490583E08093AA0682E0A7
:101FE0008093AB060E942F0EC093770625CF8BE01F
:101FF00099CE803209F020CF8AE796E0DF91CF9129
:102000001F910F91FF90DF90CF900C949808E8E714
:10201000F6E090EE908390E99183828363830C9441
:102020002F0EE8E7F6E020EE208321E921839827B0
:1020300089279827938382830C942F0EE8E7F6E094
:1020400020EE208322E921839827892798279383EC
:1020500082830C942F0EBC0148E050E08091BC06B6
:102060009091BD060C940F09E8E7F2E030E020E023
:10207000949189130DC0611114C087E0829FF00113
:10208000839FF00D1124E558FD4F8591959115C062
:102090002F5F3F4F37962037310551F790E080E0B2
:1020A000089587E0829FF001839FF00D1124E3588B
:1020B000FD4F85919591009701F30895E8E7F2E0CF
:1020C00030E020E0949189130BC087E0829FF001FB
:1020D000839FF00D1124E758FD4F85919591089548
:1020E0002F5F3F4F37962037310561F790E080E052
:1020F0000895CF93DF930E94D00BEC01009749F035
:102100000E94FF088093C2062196D093C106C09317
:10211000C006DF91CF910895AF92BF92CF92DF9228
:10212000EF92FF920F931F93CF93DF939C01B62EF4
:102130008C010027107F832F8F70D82ED22FC12CB7
:1021400085E0A82E8091C206C816D8F5E090C0069A
:10215000F090C106CA9CE00CF11C1124C7010E943A
:10216000FF088B1511F08F30A9F4C70101960E946A
:10217000FF08C82FC70102960E94FF08CC2311F068
:10218000C53B51F49FEF980F9E3F20F4DC1739F1C7
:10219000C53B29F1C394D6CFDC13FCCFD81611F080
:1021A0008F3FC1F7C70103960E94FF08C82FC701E0
:1021B00004960E94FF08C63B09F0DC2F8E3F09F011
:1021C000D82EC8018D2B9D29DF91CF911F910F91A2
:1021D000FF90EF90DF90CF90BF90AF900895D8120E
:1021E000D9CFE0CF9C018827907F432F4F702F7766
:1021F00039EA320F343050F42755330B61E070E088
:1022000001C0660F2A95EAF7462B20E0822B942B1B
:102210000895FC019081907681E0903409F080E08F
:102220000895482FE6ECF6E030E020E05FE0529FB2
:10223000C001539F900D1124DC01A953B94F6C913B
:1022400060FF03C06281641749F02F5F3F4F3F96E4
:102250002A30310561F790E080E008958953994F65
:1022600008958F929F92AF92BF92EF92FF920F9339
:102270001F93CF93DF939C01C62FD0E08E01080FF0
:10228000191F60E070E0CB012017310799F440E09E
:1022900024E030E02C1B3D0B42171306E4F0DF91E5
:1022A000CF911F910F91FF90EF90BF90AF909F90B3
:1022B0008F9008958824962EA72EB82E79014FEF7F
:1022C000E41AF40AC9010E94FF089401282BC501F1
:1022D000B9019701D9CF982F872F762F66274F5FA7
:1022E000DBCF50E0542F44275295507F482B562B7C
:1022F000506850935E0740935D070895CF93DF9336
:1023000040915F0750916007C82FD0E09A01082ED6
:1023100002C0369527950A94E2F720FF29C021E0F4
:1023200030E0082E02C0220F331F0A94E2F72095F6
:102330003095242335233093600720935F071F9245
:102340008F938CE494E09F938F930E94DE2BCC0FAD
:10235000DD1FCA58D84F89818F700F900F900F9052
:102360000F9031F0809590919E07892380939E076E
:10237000DF91CF910895CF92DF92EF92FF920F936A
:102380001F93CF93DF93F82EE090710701E717E0DA
:10239000D0E0C0E0C62E660FDD08CE1548F0DF9114
:1023A000CF911F910F91FF90EF90DF90CF90089504
:1023B000CC16DD0641F0F80185818770F81203C064
:1023C0008C2F0E947E1121960E5F1F4FE6CF0F9338
:1023D0001F93CF93C82F082F10E080915F07909133
:1023E00060070C2E02C0969587950A94E2F780FD4F
:1023F00034C0000F111FF801EF58F84F8581877026
:1024000019F06C2F0E94BB1121E030E00C2E02C0AD
:10241000220F331F0A94E2F780915F0790916007C3
:10242000822B932B9093600780935F071F92CF932B
:102430008AE594E09F938F930E94DE2BF801EA587F
:10244000F84F81818F700F900F900F900F9029F0AF
:1024500090919E07892B80939E07CF911F910F919A
:1024600008950F931F93CF93DF93EC018A859B858B
:10247000AC85BD850097A105B10509F45AC0AC0132
:10248000BD012EE176956795579547952A95D1F729
:10249000413009F053C06091C406CD010E948C10F8
:1024A0000E94F2108C018F77A801952F9F7031F058
:1024B000909520919F07922390939F07882361F125
:1024C00061E09091C306923009F060E00E94341000
:1024D0009C01982FA9014427517031FB222720F934
:1024E00014FF20E02170452B29F08091A0078D7FFB
:1024F0008093A00721111092A107992369F0E2EAC5
:10250000F7E028EA37E08191981303C0DF011197C3
:102510001C922E173F07B9F780915F0790916007D3
:10252000892B19F480E00E94E7111A861B861C860D
:102530001D86DF91CF911F910F910895423061F771
:10254000AC01BD0184E176956795579547958A95CD
:10255000D1F74F70413001F78B2F8F700E947E11A1
:10256000DBCF0F931F93CF938B019C01DC01CB0139
:102570004EE1B695A795979587954A95D1F7813005
:1025800009F057C06091C406C9010E948C100E94D6
:10259000F2108C018F77A801252F2F7029F09091D0
:1025A0009F07922B90939F078823C1F161E0909140
:1025B000C306923009F060E00E9434109C01582F4D
:1025C000BC016627717031FB882780F914FF80E019
:1025D000817090919607672B29F04091A007426087
:1025E0004093A007882329F09D7019F481E080931F
:1025F000A107552399F08091A80796E08F5F863058
:1026000009F480E0E82FF0E0EA56F84F44854423CF
:1026100011F0915099F78093A80724878091610762
:102620008F3FC9F0809162078F3FA9F41092620733
:1026300012C0823009F04DC0C32FCF7094E136959F
:102640002795179507959A95D1F70F70013081F46A
:102650008C2F0E94E71180915F0790916007892B72
:1026600009F044C080E0CF911F910F910C94E711C5
:10267000023071F3033021F48C2F0E947E11EBCFD6
:10268000043069F480915F07909160070C2E02C0BE
:10269000969587950A94E2F780FDEECFD9CF053065
:1026A000D1F68C2F0E94E711C09361078FEF8093C2
:1026B000620780EB94E00E94F92BCDCF823009F0C5
:1026C000ADCF9927832F722F612F822F0E94A20DE9
:1026D000A5CF833009F0A2CF832F8770813071F7A7
:1026E0006FEF822F87700E94BB1198CFCF911F91FF
:1026F0000F9108952F923F924F925F926F927F9227
:102700008F929F92AF92BF92CF92DF92EF92FF9201
:102710000F931F93CF93DF9300D000D000D00F9280
:10272000CDB7DEB7382E4B0191E7A92E97E0B92E31
:102730002FE0C22ED12CFC2CCA82C4010C2C02C06A
:10274000969587950A94E2F780FD25C021E0C21A8C
:10275000D10832E0A31AB1084FEFC416D40659F7D6
:1027600090E080E027960FB6F894DEBF0FBECDBF95
:10277000DF91CF911F910F91FF90EF90DF90CF905D
:10278000BF90AF909F908F907F906F905F904F9091
:102790003F902F90089580917207909173079F83C7
:1027A0008E8380917407909175074E815F814817E1
:1027B000590778F48E819F810E94FF08182F8E811F
:1027C0009F8101960E94FF08912F212F2F7797FD5F
:1027D00005C0F50184A187FFB9CFC2CF381649F0F3
:1027E00082E0820F2E813F81280F311D3F832E838F
:1027F000D8CF8E819F81009761F30E94FF08EE8100
:10280000FF813296FF83EE838F778F01080F111DB2
:102810008E819F8180179107E0F68E819F810E94B3
:10282000FF08982F8F708F1531F12E813F812F5F18
:102830003F4F9295977091509330D8F4C9010E9400
:10284000FF08982F9295969596959370282F27704C
:10285000920F9F5F8695869586958770980F2E813B
:102860003F812E5F3F4FA901490F511D5F834E836A
:10287000CFCF90E0F8CFEE81FF81309709F4A9CF58
:10288000CF010E94FF08182F129517708CEF810F4F
:10289000823058F510936307109264071092650711
:1028A00010926607109267071092680710926907E6
:1028B00010926A0710926B0710926C0710926D07C6
:1028C00010926E0710926F07FFEFF09370078091E0
:1028D0006307853009F43ACF843009F441CF882367
:1028E00009F434CF83E697E03DCF8E819F81019636
:1028F0000E94FF08082FE82EE294E694E69483E015
:10290000E822E3942E813F812E5F3F4F3F832E8349
:102910006E2DC9010E943111262E7B838C839D83ED
:102920008EEF810F823008F03FC0802F869586950C
:10293000869587708983F12C682F8E819F818E0DFB
:102940009F1D0E9431112B013C01133089F5602F2E
:102950006770C7013981830F911D4E815F81840F9C
:10296000951F0E94311110936307209264075B81C9
:1029700050936507EC81E0936607FD81F09367074C
:10298000409268075092690760926A0770926B07DD
:1029900060936C0770936D0780936E0790936F0739
:1029A0002A812093700793CF412C512C612C712CDC
:1029B00060E070E080E090E0D6CF0F931F93CF935C
:1029C000DF93EC018B819C81860F911D9C838B830F
:1029D0008881982F9F79988391FD05C082FF03C05D
:1029E0008D7982628883888181FF05C082FD03C062
:1029F0008D79806488838091C6068F3F21F091E0B5
:102A00002981281301C090E0888190FB83F9888395
:102A100028853985232BE1F480768032C9F4009132
:102A20005F0710916007B80189810E947A13FC0149
:102A3000892B71F085858D831F830E83E081F0E003
:102A4000EE0FFF1FE45BFE4F80819181998788879D
:102A5000E885F985309741F0CE010995882321F06A
:102A60001F821E8219861886DF91CF911F910F91C8
:102A700008951F93CF93DF9300D000D000D0CDB73F
:102A8000DEB78D839E83162FAD81BE8116966D9124
:102A90007C91179711968C910E947A13FC01892BD7
:102AA000C1F0113001F581819281A381B4818983C4
:102AB0009A83AB83BC83BC01CD010E94B112898192
:102AC0009A81AB81BC81ED81FE8182879387A48747
:102AD000B58726960FB6F894DEBF0FBECDBFDF9147
:102AE000CF911F910895123029F485819681A78195
:102AF000B085DDCF81859285A385B485D8CFCF936E
:102B0000DF93EC018A8124E0829FC0011124682BAD
:102B10006A831C821B826B3169F461E0CE010E94E2
:102B2000391581E08E8741E06D818981DF91CF91F8
:102B30000C947111673041F0673661F461E0CE01A9
:102B4000DF91CF910C94391562E0CE010E943915C6
:102B500042E0EACF663629F0623059F0DF91CF913A
:102B6000089563E0CE010E94391581E08E8743E02D
:102B7000DBCFCE01DF91CF910C943112CF92DF9257
:102B8000EF92FF920F931F93CF93DF93EC01888115
:102B9000182F1295169513700A81EB80FC8081FB2B
:102BA000CC24C0F883FBDD24D0F8113061F406306A
:102BB00029F461E088ECE816F10440F11A8261E042
:102BC000CE010E947F15013081F0093119F10630E4
:102BD00061F11230B1F180E0DF91CF911F910F913F
:102BE000FF90EF90DF90CF900895CC2041F088ECDB
:102BF000E816F104A0F163E0CE010E947F151230C7
:102C000051F788ECE816F104E0F462E0CE010E948E
:102C10007F15E1CFCC20B9F088ECE816F104D8F0AC
:102C200063E0CE010E947F15D4CFC110D2CF63E004
:102C300088ECE816F10468F2CE010E947F1581E06D
:102C4000CBCF1A8206C0123031F688ECE816F104B8
:102C5000C0F762E0F1CF123009F0BDCFFACFD1104A
:102C6000CACF123091F2B7CFCF93DF93EC018A81B4
:102C700024E0829FC0011124682B6A831C821B827E
:102C8000663069F461E0CE010E94391581E08E87DB
:102C900041E06D818981DF91CF910C947111673092
:102CA00041F0693161F461E0CE01DF91CF910C9484
:102CB000391562E0CE010E94391542E0EACF623058
:102CC00019F0DF91CF910895CE01DF91CF910C944F
:102CD0003112CF92DF92EF92FF920F931F93CF9317
:102CE000DF93EC018881182F1295169513700A81D5
:102CF000CB80DC8081FBEE24E0F883FBFF24F0F83E
:102D0000113061F4063029F461E088ECC816D10472
:102D100060F11A8261E0CE010E943416013059F050
:102D2000063039F5E11005C063E088ECC816D1041F
:102D300030F580E028C0EE2089F063E088ECC8160A
:102D4000D10498F4FF2021F063E0CE010E943416F4
:102D5000123079F709C0093161F70FC0123049F715
:102D600088ECC816D10428F762E0CE010E94341620
:102D7000E0CF1230F1F6073071F71A8262E0CE012F
:102D80000E94341681E0DF91CF911F910F91FF9047
:102D9000EF90DF90CF900895CF93DF93EC0188817F
:102DA000829586958370813061F48A8361E0CE01DB
:102DB0000E94391541E06D8189810E94711180E086
:102DC00007C08230E1F78A83CE010E94311281E090
:102DD000DF91CF9108958093C30608958093C40630
:102DE0000895AF92BF92CF92DF92FF920F931F93FD
:102DF000CF93DF930E946C0B5C010E94850BEC016A
:102E00000E949E0B8C010E94B70B6C01C5010496B9
:102E10000E94FF08F82E80937107109373070093A8
:102E200072070C0D1D1D1093750700937407DF9238
:102E3000CF921F928F9387E694E09F938F930E9487
:102E4000DE2B06E717E00F900F900F900F900F907A
:102E50000F905801D12C80E090E0DF1448F4CE01AF
:102E60000E94FF08C82ECE0101960E94FF089C2DEB
:102E7000D5018D939D935D01D3942296B0E1DB1231
:102E8000EACF0E947910E6E9F7E088E0DF011D92C1
:102E90008A95E9F710929E0710929F071092A0075B
:102EA0001092A1071092A2071092A3071092A407F4
:102EB0001092A5071092A6071092A7071092A807D4
:102EC0004091710790E080E030E020E061E070E048
:102ED000841708F452C03093600720935F078FEF88
:102EE00080936107809362078093C60610925E0705
:102EF00010925D07E6ECF6E090E080E04FE03FEFF7
:102F0000489FD001499FB00D1124ED01C953D94FFD
:102F100028812E7F288332831382AA53B94F1196BA
:102F20002C911197297F11962C9311971582148259
:102F300011962C911197277E11962C93368310862B
:102F400017821286118628812F792883138614868A
:102F500015861686178601963F968A30910581F66A
:102F600081E08093C506DF91CF911F910F91FF9073
:102F7000DF90CF90BF90AF900895D801ED91FD9173
:102F80008D01F5FF09C0FB01082E02C0EE0FFF1FE7
:102F90000A94E2F72E2B3F2B01969ACF8093C3061B
:102FA00008958093C40608958091C5068823D1F0C2
:102FB00080919E0790919F07892B9091A007892B64
:102FC0009091A10791118D7F8093960786E0E2EAA8
:102FD000F7E0A8E9B7E001900D928A95E1F786E95C
:102FE00097E0089548E050E060E086E997E00E94AD
:102FF000BF05F5CF8091C506882329F080915F0732
:1030000090916007089590E080E008958091C50652
:10301000882359F080915D0790915E07009739F001
:1030200010925E0710925D07089590E080E0089589
:10303000CF93DF93C82FD62F8091C506882309F43C
:1030400052C08C2F0E941111DC01DD2309F446C00F
:10305000892B79F530E020E09FE0929FF001939F6B
:10306000F00D1124DF01A953B94F8C912F5F3F4F11
:1030700080FD24C0DF01A953B94FEA53F94FC28341
:103080001382158214828FEF868310861782128630
:1030900011868181807881608183138614861586EC
:1030A0001686929FF001939FF00D1124EA53F94F79
:1030B0001082C093C6068C91846014C02A303105FA
:1030C00061F61F92CF938BE894E09F938F930E94B9
:1030D000DE2B0F900F900F900F9005C0892B19F0E9
:1030E0008C918B7F8C93DF91CF910895CF92DF925B
:1030F000EF92FF920F931F93CF93DF93182F80913E
:10310000C506882309F49CC0C7ECD6E06E01F12CFB
:10311000E12C0FE00E9DF0010F9DF00D1124E953FD
:10312000F94F808180FF0AC0F60191818091C60627
:10313000981721F0612FC6010E94DD14FFEFEF1AEE
:10314000FF0A8FE0C80ED11CEAE0EE16F10411F779
:1031500097ECC92E96E0D92EF12CE12C0FE00E9DB4
:10316000F0010F9DF00D1124E953F94F808180FF8C
:103170000AC0F60191818091C606981304C0612FA0
:10318000C6010E94DD14FFEFEF1AFF0A8FE0C80EA0
:10319000D11CEAE0EE16F10411F78FEF8093C6061A
:1031A000E6ECF6E030E020E09FE0929FD001939FB4
:1031B000B00D1124A953B94F8C9180FF0BC081FD34
:1031C00009C041855285452B29F44785411102C02C
:1031D0008E7F8C932F5F3F4F3F962A30310529F722
:1031E0008DE5E82E87E0F82E888180FF0BC08E8564
:1031F000882341F0810F8E87833320F0CE010E9417
:1032000031121E862F96EC16FD0671F7809161072C
:103210008F3FB1F08091620787FD12C0810F8093CC
:10322000620783336CF089EA94E00E94F92B809165
:1032300061070E947E118FEF809361078093620780
:10324000DF91CF911F910F91FF90EF90DF90CF9082
:1032500008951092C50608950E94F30D81110C94F3
:10326000F1160C942919CF93DF93D82FC62FE09134
:10327000B907F091BA07309751F00190F081E02D35
:10328000309729F06C2F8D2FDF91CF910994D73093
:1032900060F4ED2FF0E0ED5CF04D0C946C2981E0D2
:1032A000C11101C080E080932701E091B907F0913E
:1032B000BA07309729F00280F381E02D309711F79B
:1032C000DF91CF91089581E0C11101C080E080932A
:1032D0002601EBCF81E0C11101C080E08093250180
:1032E000E4CF81E0C11101C080E080932401DDCFF3
:1032F00081E0C13009F080E080932301D6CF8C2F8C
:103300000E94CE178CEB94E0C23011F488EB94E06D
:103310009F938F938AEC94E09F938F930E94DE2B70
:103320000F900F900F900F90C0CF8C2F0E94D1174D
:1033300085EC94E0C13011F48FEB94E09F938F9370
:103340008DED94E0E9CF813011F40C94291982308D
:1033500049F08A3049F481E08093BB0782EF94E022
:103360000C94F92B0C942C198B3009F008951092C1
:10337000BB078BE095E0F4CFCF93DF93C82FD62F18
:10338000E091A907F091AA07309709F0099580917B
:10339000D2079091D307009739F08C0F911DFC0153
:1033A000C081CF3F09F43FC0DD2379F11F92CF9355
:1033B00085E295E09F938F930E94DE2B0F900F90F4
:1033C0000F900F908C2F80932101809126018823EC
:1033D00021F06D2F8C2F0E940710E091B907F0911A
:1033E000BA07309741F00680F781E02D309719F049
:1033F0006D2F8C2F09958091BB07811114C06D2F03
:103400008C2FDF91CF910C9418181F92CF9381E3EA
:1034100095E09F938F930E94DE2B0F900F900F905B
:103420000F908FEFD0CFDF91CF910895CF93DF939F
:10343000D82FC92F6091B00770E0482F592F81EB2A
:1034400097E00E94F20581110DC0E091B00781E084
:103450008E0F8093B007F0E0EE0FFF1FEF54F84F90
:10346000D083C183DF91CF910895CF93DF93D82F7D
:10347000C92F6091AD0770E0482F592F8EEA97E071
:103480000E94F20581110DC0E091AD0781E08E0F21
:103490008093AD07F0E0EE0FFF1FE255F84FD083A9
:1034A000C183DF91CF9108959093AC078093AB07D0
:1034B00008959093D3078093D20708959093BA0705
:1034C0008093B907089581E08093220108958CECE0
:1034D00097E0089586EC97E00895CF93DF930E94DC
:1034E00031090E94640A83E399E10E94430C0E941F
:1034F000100D0E94F508EC0148E050E066E173E031
:103500000E94490548E050E068ED71E0CE01089660
:103510000E944905CE0140960E942B100E942C1952
:1035200083EA99E1DF91CF910C94560ECF93C0E0DE
:103530008091B007C81710F0CF910895EC2FF0E0FC
:10354000EE0FFF1FEF54F84F0190F081E02D309700
:1035500019F086EC97E00995CF5FEACF0F931F93A0
:10356000CF93DF93182FC0E06C2F8CEC97E00E9474
:10357000D905082F6C2F86EC97E00E94D905D82F2B
:10358000011197C061E0811197C04D2F6C2F8CEC19
:1035900097E00E94C205CF5FC03331F7812F0E94B0
:1035A00076180E94FA17EC010E94D4178C018091C2
:1035B000C4079091C507C817D90709F468C080915E
:1035C0002601882319F0CE010E941110E091B9075D
:1035D000F091BA07309739F00480F581E02D3097EB
:1035E00011F0CE010995D093C507C093C407D093BD
:1035F0001E01C0931D01C1E048E050E06CEB77E094
:10360000C8010E94A305811144C08091270188232D
:1036100019F0C8010E94980848E050E0B8018CEB0E
:1036200097E00E9449058BE395E09F938F930E945A
:10363000DE2BCCEBD7E00F900F900BE611E08991D9
:103640001F928F931F930F930E94DE2B0F900F906A
:103650000F900F9087E0C43CD80789F788E495E085
:103660009F938F930E94DE2B8091C5078F9380914B
:10367000C4078F938CE495E09F938F930E94DE2B79
:103680000F900F900F900F900F900F9004C0C0E01C
:10369000B3CFC111C8CF0E940618009789F02091BE
:1036A0002601222369F0DF91CF911F910F910C9495
:1036B0001E1081116ACF60E08C2F0E94BC1965CF6B
:1036C000DF91CF911F910F9108958091250188235B
:1036D00061F0ECECF7E09191911105C097E0E23DCB
:1036E000F907C9F780E00C949F1C0895809125018B
:1036F000882361F0E6ECF7E09191911105C097E025
:10370000EC3CF907C9F780E00C949F1C0895809168
:103710002401882351F081E00E94911C82E090E016
:103720000E94060680E00C94911C0895CF93C0E09F
:103730008091AD07C81710F0CF910895EC2FF0E0FD
:10374000EE0FFF1FE255F84F0190F081E02D099533
:10375000CF5FEECFE091AB07F091AC07309709F067
:10376000099408950E94F8080E94710E0E94CE0DDF
:103770000C9432099093AA078093A9070895CF92D9
:10378000DF92EF92FF920F931F93CF93DF93C82E98
:10379000D62E7A01122FD32FC0E08091DA07C817F6
:1037A00030F1C0E08091D907C81760F1C092DA0704
:1037B000D092D907E092D707F092D8071093D50797
:1037C000D093D6070093D407C0E08091DA07C817DA
:1037D00020F1C0E08091D907C81770F1DF91CF9137
:1037E0001F910F91FF90EF90DF90CF900895E0919F
:1037F000D707F091D807EC0FF11D80810E947D065C
:10380000CF5FCBCFE091D507F091D607EC0FF11D3C
:1038100080810E947D06CF5FC5CFE091D707F091F0
:10382000D807EC0FF11DD0818D2F0E9454068D2FEB
:103830000E94F406CF5FC9CFE091D507F091D6077B
:10384000EC0FF11D80810E947D06CF5FC3CFCF9228
:10385000DF92EF92FF920F931F93CF93DF93082F86
:10386000F92ED0E0E12CDD24D3948091DA07D8172B
:1038700048F0DF91CF911F910F91FF90EF90DF9073
:10388000CF900895E091D707F091D807ED0FF11D83
:10389000C0808C2D0E94F70681E090E00E94150602
:1038A000C0E01E2D1C0F8091D907C81730F08C2D59
:1038B0000E94F406DF5FE12ED8CFE091D507F091AA
:1038C000D607EC0FF11D80810E94AF06482F4D25D1
:1038D0008091D407612F680F802F9F2D0E94C20511
:1038E000CF5FDFCFCF93C42F80932901609328014E
:1038F0004093DB078F3F39F00E9454066C2F809174
:1039000029010E949806809128018F3F41F00E9472
:1039100054066C2F80912801CF910C949806CF917A
:103920000895682F809129018F3F41F09091DB0726
:10393000992311F091E069270C9498060895682F57
:10394000809128018F3F41F09091DB07992311F07E
:1039500091E069270C9498060895809129018F3F82
:1039600011F00C94CB060895809128018F3F11F03F
:103970000C94CB06089541E065E180E00C94721C44
:10398000CF93DF93D82FC62F8CE30E94980980E055
:103990000E94AA098D2F806B0E94AA098C2F8F701C
:1039A0000E94AA098C2F82958F7080610E94AA09BB
:1039B000DF91CF910C94B409CF93DF930E94330928
:1039C0008CE30E949809C8E8D5E0FE018591EF01DB
:1039D0000E94AA09F5E0CE39DF07B9F70E94B409C1
:1039E0001092DC0781EA8093DD0788EC8093DE0784
:1039F00043E050E06CED77E08CE3DF91CF910C94E5
:103A00003D090F931F93CF93C0E060E08C2F0E947D
:103A1000C01C8CE30E94980980E40E94AA0900E877
:103A200010E080E00E94AA0901501109D1F70E941C
:103A3000B409CF5FC43049F7CF911F910F9108951A
:103A4000CF92DF92EF92FF920F931F93CF93DF936A
:103A50007C01D0E0C0E060E08C2F0E94C01C8CE3B1
:103A60000E94980980E40E94AA0910E000E0670122
:103A7000CC0EDD1EF801EE0FFF1FEE0FFF1FEC0D49
:103A8000FD1D84910E94AA090F5F1F4F0038110588
:103A900089F70E94B4092196C430D105E1F6DF917F
:103AA000CF911F910F91FF90EF90DF90CF900895ED
:103AB000909349088093480870934708609346089C
:103AC000509345084093440808958F929F92AF9277
:103AD000BF92CF92DF92EF92FF92CF93DF93E0EE0F
:103AE000F7E020EF37E0812C912C54018394D90129
:103AF00090E080E04D914423C9F0ED0121971882B8
:103B0000408151816281738175016401082E04C076
:103B1000CC0CDD1CEE1CFF1C0A94D2F74C295D294D
:103B20006E297F2940835183628373830196853197
:103B3000910501F734962B5E3F4F87E0E03FF80791
:103B4000B1F6DF91CF91FF90EF90DF90CF90BF90D3
:103B5000AF909F908F9008958F929F92AF92BF9257
:103B6000CF92DF92EF92FF920F931F93CF93DF9349
:103B7000942F252F641B35E1839FA0011124405110
:103B8000584F34E0839FF0011124E052F84FC12CCC
:103B9000D12C7601C394762F790FA92FB22F8D9156
:103BA00081110DC0DF91CF911F910F91FF90EF9088
:103BB000DF90CF90BF90AF909F908F900895EA01D3
:103BC000C70FD11D9881282F082E000C330B921798
:103BD0001306B1F088834601570104C0880C991C74
:103BE000AA1CBB1C7A95D2F70081118122813381F6
:103BF000082919292A293B29008311832283338329
:103C00009A2F2B2FC8CF7F928F929F92AF92BF9205
:103C1000CF92DF92EF92FF920F931F93CF93DF9398
:103C2000609146087091470880914408909145083A
:103C3000680F791F80E890E00E9417295B0180EFF0
:103C4000E82E87E0F82E90EEC92E97E0D92E712C41
:103C5000D0E0C0E048C0F60180819181A281B381AB
:103C60000C2E04C0B695A795979587950A94D2F720
:103C700080FF38C0F701EC0FFD1F108160914608EE
:103C8000709147088091440890914508680F791F0A
:103C90006C9F602D1124872D0E94C01C8CE30E9414
:103CA000980980E40E94AA09112309F458C0812FC1
:103CB000110F990B80972091460830914708829FF9
:103CC0008001839F100D929F100D1124912C812C47
:103CD0008091460890914708881699060CF442C0D6
:103CE0000E94B4092196CA15DB050CF4B4CFE5E1B6
:103CF000EE0EF11C7394F4E0CF0ED11C24E072128E
:103D0000A7CF1092E0071092E1071092E2071092FD
:103D1000E3071092E4071092E5071092E60710926D
:103D2000E7071092E8071092E9071092EA0710924D
:103D3000EB071092EC071092ED071092EE0710922D
:103D4000EF07DF91CF911F910F91FF90EF90DF90E0
:103D5000CF90BF90AF909F908F907F90089500E09C
:103D600010E0B4CFE0914808F0914908E80DF91D42
:103D7000E00FF11F84910E94AA098FEF881A980A18
:103D8000A7CF90932F0180932E01089590932D013A
:103D900080932C0160932B0140932A0108950E9487
:103DA000DC1C40912A0150E060912B0170E0809171
:103DB0002C0190912D010C94581D0F931F93CF93BC
:103DC000DF9380914A0881110BC080912E01909160
:103DD0002F010097A9F00E94201D80914A0806C07B
:103DE00090912201911105C08C3340F48F5F809334
:103DF0004A08DF91CF911F910F9108958C3319F4E8
:103E00000E94011DEACF80912C0190912D01892BF8
:103E100081F34AE555E070E060E090E080E00E94C8
:103E2000AC1DE0911F01F091200187815DE28111BD
:103E30005BE286814DE281114BE285813DE2811199
:103E40003BE284812DE281112BE283819DE281118D
:103E50009BE282818111A2C08DE21F925F931F922B
:103E60004F931F923F931F922F931F929F931F92E6
:103E70008F9381E695E09F938F938CE498E09F93D6
:103E80008F930E94252C4CE458E06FE070E090E0A6
:103E900080E00E94AC1D809121012DB73EB7205FCC
:103EA0003F4F0FB6F8943EBF0FBE2DBF8F3F09F4B2
:103EB00077C0E0911F01F0912001DF0112969F0170
:103EC000285F3F4F1D91111103C02A173B07D1F7FF
:103ED00000811F928F938EE695E09F938F93CCE4A1
:103EE000D8E0DF93CF930E94252CAE0170E060E014
:103EF00083E090E00E94AC1D1F921F9384E795E041
:103F00009F938F93DF93CF930E94252CAE0166E0A1
:103F100070E083E090E00E94AC1D1F920F938AE74F
:103F200095E09F938F93DF93CF930E94252CAE0152
:103F30006DE070E083E090E00E94AC1D2DB73EB7CD
:103F40002E5E3F4F0FB6F8943EBF0FBE2DBF80913F
:103F50001D0190911E0199279F938F9380E995E011
:103F60009F938F938CE498E09F938F930E94252CCE
:103F70004CE458E062E170E083E090E00E94AC1D08
:103F80000E94031E80914B088F5F80934B080F9017
:103F90000F900F900F900F900F902BCF8BE25DCF73
:103FA0006FE775E08CE498E00E94D72B4CE458E072
:103FB00070E060E083E090E00E94AC1D65E875E091
:103FC0008CE498E00E94D72B4CE458E066E070E067
:103FD00083E090E00E94AC1D6BE875E08CE498E013
:103FE0000E94D72B4CE458E06DE070E083E090E055
:103FF0000E94AC1DACCF0C94CE28CF93DF93D82F6A
:10400000C62F872F0E94D1288D2F0E94D1288C2F58
:10401000DF91CF910C94D128CF92DF92EF92FF9253
:104020000F931F93CF93DF9300D000D0CDB7DEB7AF
:10403000E62F582F242F30E0A72FB0E00E947229DE
:104040006B017C01CC242E2F30E0A42FB0E00E9425
:104050007229BB27A92F982F872FC82AD92AEA2A85
:10406000FB2A242F30E0A52FB0E00E947229BB2745
:10407000A92F982F872FDC01992788279701860180
:10408000082B192B2A2B3B2B09831A832B833C8368
:10409000C901B8010F900F900F900F90DF91CF9151
:1040A0001F910F91FF90EF90DF90CF900C94FD1F28
:1040B000CF93DF9300D000D0CDB7DEB7E0915A08A0
:1040C000ED3008F0E0E084E0E89FF0011124ED57C6
:1040D000F64F85919591A591B591BC01CD010F90B9
:1040E0000F900F900F90DF91CF9108952F923F92F4
:1040F0004F925F926F927F928F929F92AF92BF92F8
:10410000CF92DF92EF92FF920F931F93CF93DF93A3
:10411000CDB7DEB760970FB6F894DEBF0FBECDBF48
:104120008090550890905608A0905708B090580875
:10413000C501B40126E930E040E050E00E942B299F
:1041400069837A838B839C830E94A82A20E030E0D5
:1041500046E153E469837A838B839C8369817A8106
:104160008B819C810E94072AF62E172F8F839D83B7
:104170000E9458204B015C014FEF84169406A40660
:10418000B10431F438E8832E99249A94A92CB12CE7
:10419000340155244424442455247724BB27AB2DD3
:1041A0009A2D892D482A592A6A2A7B2A20E030E054
:1041B00040E450E4F9821A836F816B837D817C83B4
:1041C00069817A818B819C810E945A2B8B0189871E
:1041D0009F8320E030E040E85FE369831A838B83AC
:1041E0009C8369817A818B819C810E94022A87FD50
:1041F0002AC0FA2CE92CD82CCC24CC24FF24C501CD
:10420000AA27BB27C82AD92AEA2AFB2A20E030E0BD
:1042100040E050E469817A818B819C810E94022A6E
:1042200087FF78C020E030E040E85FE369817A8171
:104230008B819C810E9495298B0189879F835301E3
:104240004201260137012091320130913301032EC2
:10425000000C440B550B60E070E081E090E00E94A0
:104260004D293E832D830E94240620E030E040E863
:1042700053E409831A8389858B839F819C83698199
:104280007A818B819C810E945A2B69837A838B83EC
:104290009C8369817A818B819C810E94792AA3E029
:1042A0006A9F60011124EA2DF0E0F887EF83262C45
:1042B000312C492D50E05A874987E52CF12C198281
:1042C000682D70E0788B6F87042D10E08980282D91
:1042D00030E080913201909133012817390794F131
:1042E00060960FB6F894DEBF0FBECDBFDF91CF91C1
:1042F0001F910F91FF90EF90DF90CF90BF90AF9004
:104300009F908F907F906F905F904F903F902F90F5
:104310000C94220620E030E040E050E409831A8348
:1043200069856B837F817C8369817A818B819C81A4
:104330000E9495298B0189879F83240135014601BD
:10434000570181CF8D809E80289DC001299D900DB1
:10435000389D900D1124892F9927880F991F960158
:10436000281B390B2F3F310519F014F02FEF30E0E7
:1043700037FF02C020E030E04FEF50E0421B530B0C
:10438000AF80B8844A9D20014B9D500C5A9D500C23
:104390001124229DC001239D900D329D900D11246A
:1043A000480E591E452C5524712C612C3201552480
:1043B000442489849A84489DC001499D900D589D4C
:1043C000900D11242E9DB0012F9D700D3E9D700DFE
:1043D0001124860F971F892F9927B0E0A0E0BA2FEC
:1043E000A92F982F882784299529A629B729AF8432
:1043F000B888A49EB001A59E700DB49E700D1124C6
:10440000029FA001039F500D129F500D1124640FB5
:10441000751F672F7727AB0170E060E04C015D01ED
:10442000842A952AA62AB72A8B869C86AD86BE86C4
:1044300040915908C501B4010E940C2049814F5F89
:10444000498344CFAF92BF92CF92DF92EF92FF9217
:104450000F931F93CF93DF9300D000D000D0CDB740
:10446000DEB70E945820F62EE72ED82EC92EA09037
:104470003201B09033019501220F331F3E832D830B
:104480008091550890915608A0915708B09158080E
:104490009C01AD01569547953795279529833A8319
:1044A0004B835C838D819E819C01990F440B550B3E
:1044B00069817A818B819C810E942B2969837A830F
:1044C0008B839C8309811A81A016B10634F40D8177
:1044D0001E8129813A81021B130B0E9424061A8235
:1044E0001982809132019091330149815A81481794
:1044F000590794F026960FB6F894DEBF0FBECDBFD5
:10450000DF91CF911F910F91FF90EF90DF90CF90AF
:10451000BF90AF900C9422064091590889819A81EE
:104520008017910769F060E070E080E090E00E9401
:104530000C2029813A812F5F3F4F3A832983D1CFC5
:104540006F2D7E2D8D2D9C2DF2CFDF92EF92FF925D
:104550000F931F93CF93DF930E945820162F072F9E
:10456000F82EE92E209155083091560883E0220F4D
:10457000331F8A95E1F73170213041E0340734F080
:1045800080E092E0AC01421B530B9A014091590824
:10459000429FC001439F900D1124D92E0E942406F2
:1045A000D0E0C0E08091320190913301C817D90763
:1045B0004CF0DF91CF911F910F91FF90EF90DF9022
:1045C0000C9422064D2D612F702F8F2D9E2D0E9451
:1045D0000C202196E7CFEF92FF920F931F93CF937A
:1045E000DF930E945820162F072FF82EE92E0E94E5
:1045F0002406D0E0C0E08091320190913301C817C9
:10460000D90744F0DF91CF911F910F91FF90EF9068
:104610000C94220640915908612F702F8F2D9E2DEA
:104620000E940C202196E7CF873039F481E0611198
:1046300001C080E080935B080895883019F460938E
:104640005A080895893041F4669FB001112481E031
:10465000870F8093590808958A3011F460935408A5
:1046600008950F931F93CF93DF9300D000D000D015
:10467000CDB7DEB78091550890915608A0915708A4
:10468000B0915808BC01CD0124E130E040E050E099
:104690000E942B2969837A838B839C83672B682BE9
:1046A000692B09F048C00E9424061E821D820DEE6F
:1046B00015E180913201909133012D813E812817BF
:1046C000390764F026960FB6F894DEBF0FBECDBF53
:1046D000DF91CF911F910F910C9422062091300110
:1046E00030913101209FC001219F900D309F900D8E
:1046F0001124419690933101809330016DE00E9426
:104700000B29A4E09A9FF0011124ED57F64F8591F3
:104710009591A591B59189839A83AB83BC83409190
:104720005908BC01CD010E940C20AD81BE811196BB
:10473000BE83AD83BECF26960FB6F894DEBF0FBE04
:10474000CDBFDF91CF911F910F9108956CE088E06C
:104750000E94660C64E08AE00C94660C84E193E2AB
:104760000E94430C0C94FB1F8BE190E0909333016B
:10477000809332010895CF93DF9380915B0881117C
:104780002AC00E942406D0E0C0E0809132019091BE
:104790003301C817D907C4F00E942206809155083A
:1047A00090915608A0915708B09158080196A11D04
:1047B000B11D8093550890935608A0935708B09365
:1047C0005808DF91CF91089560E070E0CB010E941E
:1047D000FD1F2196DACFE0915408E530F8F6F0E0BD
:1047E000EE0FFF1FE758F64F0590F491E02D099565
:1047F000D5CF52985A9A089520E032E099B1892F86
:10480000847092FF09C02F3F11F482E00895832F36
:104810008A95F1F72F5FF2CF32E02223B1F34A9964
:1048200007C08F3F91F3932F9A95F1F78F5FF7CFE2
:10483000882359F3820F982F969581E0921730F3D1
:1048400080E00895EF92FF920F931F93CF93DF9331
:1048500080E022E04A990AC08F3F19F4E29AC0E052
:1048600029C0922F9A95F1F78F5FF4CF00E618E0F8
:10487000C0E0882399F387E0E82EF12CD0E00E9475
:10488000FC23823059F30E2C01C0880F0A94EAF7FA
:10489000D82B81E0E81AF10890F7CF5FF801D193A7
:1048A0008F010E94FC238230C9F2813011F0C031A7
:1048B00011F7E29A8C2FDF91CF911F910F91FF900A
:1048C000EF9008955A9A882341F080EA8A95F1F78B
:1048D0005A9888E28A95F1F708958CE38A95F1F762
:1048E0005A988CE8F7CF9F92AF92BF92CF92DF9207
:1048F000EF92FF920F931F93CF93DF93529A5A9A9E
:104900005A9898EC292F2A95F1F79A95F1F7C82F24
:10491000D0E010E000E07E0181E0E81AF108C01765
:10492000D10791F40E94F92388EC8A95F1F7E29A75
:10493000DF91CF911F910F91FF90EF90DF90CF907B
:10494000BF90AF909F90089599249394E016F1063C
:1049500009F0912C87E0A82EB12CF801E059F74F0F
:104960006F01F601808190E00A2C02C09595879531
:104970000A94E2F781700E946224F1E0AF1AB10854
:1049800080F7892D0E9462240F5F1F4FC8CF0C94BF
:10499000F923CF93792FC62F462F50E0682F80E759
:1049A00098E00E94C72BC0935F08CF910895F894B8
:1049B00080915F080E9473240E94222480935E08E5
:1049C00078940895CF93C0915E086C1708F4C62FB1
:1049D0004C2F50E060E678E00E94C72B8C2FCF91DF
:1049E000089590935D0880935C08E9E6F0E080818B
:1049F0008F7C80628083EA9A7894089510925D0893
:104A000010925C08E9E6F0E080818F7C8083EA9870
:104A100008951F920F920FB60F9211242F933F9378
:104A20004F935F936F937F938F939F93AF93BF93B6
:104A3000EF93FF930E94222480935E0810925F08F8
:104A4000E0915C08F0915D08309709F0099580913C
:104A50005F0881110E947324FF91EF91BF91AF9184
:104A60009F918F917F916F915F914F913F912F9186
:104A70000F900FBE0F901F90189580EF8093D20873
:104A800061E082ED98E00C94C9248093D20861E043
:104A900082ED98E00E94C9240E94D72464E08EEC45
:104AA00098E00E94E224813021F49091CE08903F5A
:104AB00009F080E0817080938A08089530918B0816
:104AC0003031C8F420918D0894E0299FF001112421
:104AD000E257F74F90E0B0E0A0E0962BA42B808344
:104AE0009183A283B3832F5F2F7020938D083F5F44
:104AF00030938B08089585E995E00C94F92B462FA7
:104B0000682F81EE0C945E25CF93C82F80913401DD
:104B10008C1711F181E0C13009F080E080938208A8
:104B20008EEC95E0C13011F488EC95E09F938F9363
:104B300083ED95E09F938F930E94DE2BE091800898
:104B4000F09181080F900F900F900F90309711F017
:104B50008C2F0995C0933401CF910895CF93DF93A3
:104B6000C82FD62F8EEF8C0F833020F089EF8C0F5B
:104B7000843060F44D2F6C2F82EE0E945E25C4308D
:104B800029F48D2FDF91CF910C948425DF91CF9163
:104B9000089564E08EEC98E00E94E224813071F484
:104BA0009091CE08903C51F48093830880EF8093DD
:104BB000D20861E082ED98E00C94C9240895CF9367
:104BC00080918A08882301F18FED8093D20882E3D7
:104BD00090E00E941506C4E661E082ED98E00E9434
:104BE000C9240E94D72464E08EEC98E00E94E2245D
:104BF000813021F48091CE08803F31F084EF91E044
:104C00000E941506C15041F7CF91089564E08EECE3
:104C100098E00E94E2248823C1F18091CE088F3D64
:104C200061F480918908882371F081EF8093D20824
:104C300061E082ED98E00C94C9249FE2980F9430D3
:104C400020F4809389080C943D25813CD1F482ECBA
:104C50008093D2084091840850E065E878E083EDC5
:104C600098E00E944905609184086F5FE2CF40910F
:104C7000D0086091CF080E945E2581E0809388086B
:104C8000E2CF9FE1980F923090F3089590938108BE
:104C9000809380080895CF93DF93CDB7DEB7289730
:104CA0000FB6F894DEBF0FBECDBF0E9426060E944D
:104CB0006D1A0E945C080E94C72489EC95E20E944C
:104CC000F1240E942206C12CD12C7601E8EE8E2E12
:104CD000E3E09E2EA12CB12C0E94EE08898388234C
:104CE00009F4F4C080EC8093D20861E082ED98E092
:104CF0000E94C9240E94D72480E00E94911C0E9437
:104D0000FE241F9289818F9383EE95E09F938F936A
:104D10000E94DE2B0F900F900F900F909981992396
:104D200009F4F9C0A4E0A98381E00E94911C82E00B
:104D300090E00E94060680E00E94911C84E690E0CC
:104D40000E940606B981B150B983B111EDCF84E05C
:104D50000E946A0D0E9484250E94F00D7C01F701DB
:104D600061917F0189810E94AE25F981FF5FF983FE
:104D7000FD30A9F78EEA95E20E94430C8FE795E299
:104D80000E94BA1B84E090E0A0E0B0E089839A839F
:104D9000AB83BC8350E3C52ED12CE12CF12C60EA0F
:104DA000862E6FE0962EA12CB12C78EE472E73E064
:104DB000572E612C712C89819A81AB81BC818370C3
:104DC0009927AA27BB270097A105B10509F030C193
:104DD00082ED0E9445250E94961A8FE00E94AE1A2D
:104DE0000E94651B0E94DF2569817A818B819C81ED
:104DF00028E230E040E050E00E942B29613071054C
:104E00008105910559F483ED0E94452569817A81D8
:104E10008B819C810E94961B0E94DF2569817A818B
:104E20008B819C81A70196010E942B29623071051C
:104E30008105910559F484ED0E94452569817A81A7
:104E40008B819C810E94AA1B0E94DF2569817A8147
:104E50008B819C81A50194010E942B2963307105EF
:104E60008105910559F480918A08882339F081EDF4
:104E70000E9445250E94871B0E94DF2569817A8157
:104E80008B819C81A30192010E942B296D837E83DB
:104E90008F839887672B682B692B31F480918A0860
:104EA000811102C00E94AD1C0E94B21B84EF91E0F0
:104EB0000E94150689819A81AB81BC810196A11D52
:104EC000B11D89839A83AB83BC8375CF809183089E
:104ED000811112CF0E94F808C701B601A501940103
:104EE0000E942B2969837A838B839C83672B682B91
:104EF000692B39F4C114D104E104F10411F00E94CA
:104F0000AD1C81E090E00E9406062FEFC21AD20A83
:104F1000E20AF20AE1CE81E00E94911C84EF91E066
:104F20000E94060680E00E94911C0E94F9080E94DF
:104F3000631A86E096E20E94F12480918908823DFE
:104F4000C1F40E94961A0E94761B0E946A1AAC0154
:104F50008091820808E128E1811101C020E060E031
:104F600085E898E00E94540593E09093840810929D
:104F7000890880918908833D39F460E070E0CB01B5
:104F80000E94961B1092890880918908843D39F40B
:104F900060E070E0CB010E94AA1B1092890880910A
:104FA0008908813D21F40E94871B10928908809115
:104FB00088088823C1F130918B08332391F1209127
:104FC0008C08A4E02A9FF0011124E257F74F80815A
:104FD0009181A281B38110821182128213822F5F8C
:104FE0002F7020938C08315030938B080097A105C7
:104FF000B105B9F0282FC92EDA2EEB2EFF241C2D77
:10500000BD01882799276983213E09F099C00E9434
:10501000671A41E0B981B11101C040E06C2D0E94D6
:10502000C205109288088AE090E00E94150685CF9C
:1050300081309105A105B10509F450C00297A10581
:10504000B10509F0D1CE80918A08882309F4CCCE2D
:10505000E0918C0824E0E29FF0011124E257F74F21
:105060002081318180819181A281B3810097A10546
:10507000B10509F4B9CE3093D3082093D208A09398
:10508000D40863E082ED98E00E94C9240E94D724EE
:1050900064E08EEC98E00E94E224813009F04DC07B
:1050A0008091CE08803F09F048C090918B089923E9
:1050B00009F49ACE80918C08A4E08A9FF001112413
:1050C000E257F74F10821182128213828F5F8F7026
:1050D00080938C08915090938B0886CE80918A089B
:1050E000882309F481CE91EC9093D20861E082ED9F
:1050F00098E00E94C9240E94D72464E08EEC98E0D6
:105100000E94E224A0918208AD83843089F48091CA
:10511000CE08823C69F40E946A1ABD8108E120E051
:105120004FEC58E068E1B11160E00E9454055CCE9C
:1051300080EF95E00E94F92B57CE80E196E0FACF00
:10514000223E09F06ECF8C2D0E94700D0E94EE0D54
:10515000143009F066CF81E0E981E11180E00E941E
:1051600084255FCF0F93CF93C82F00E021E631E075
:1051700047E651E0882329F008E127E531E04DE5D5
:1051800051E066E084E00E94BF1B87E29CE10E9440
:10519000161A8C2FCF910F910C94B423539A5B98CD
:1051A000089598E0880F30F05B9A0000000000003E
:1051B0005B98000088F45B9A00000000000000008B
:1051C0000000000000000000000000005B980000EC
:1051D0000000000000000000880F9A9521F7089554
:1051E0000E94BB1C0E9438060E94CF1E8DED9EE1DE
:1051F0000E94541A0E94A6230E94AE238BEB93E2D6
:105200000E94351A82EB98E20E9446260E944B26A5
:1052100090E080E00895991B79E004C0991F9617EB
:1052200008F0961B881F7A95C9F78095089597FB1B
:10523000072E16F4009407D077FD09D00E9481292B
:1052400007FC05D03EF4909581959F4F0895709589
:1052500061957F4F0895A1E21A2EAA1BBB1BFD0189
:105260000DC0AA1FBB1FEE1FFF1FA217B307E40745
:10527000F50720F0A21BB30BE40BF50B661F771F9D
:10528000881F991F1A9469F760957095809590957D
:105290009B01AC01BD01CF010895052E97FB1EF4C3
:1052A00000940E94642957FD07D00E942B2907FC17
:1052B00003D04EF40C946429509540953095219577
:1052C0003F4F4F4F5F4F0895909580957095619532
:1052D0007F4F8F4F9F4F0895EE0FFF1F0590F49162
:1052E000E02D0994A29FB001B39FC001A39F700D50
:1052F000811D1124911DB29F700D811D1124911DDE
:105300000895AA1BBB1B51E107C0AA1FBB1FA6170C
:10531000B70710F0A61BB70B881F991F5A95A9F75E
:1053200080959095BC01CD0108955058BB27AA27C0
:105330000E94AD290C94202B0E94122B38F00E9461
:10534000192B20F039F49F3F19F426F40C940F2BFD
:105350000EF4E095E7FB0C94092BE92F0E94312B0A
:1053600058F3BA17620773078407950720F079F49A
:10537000A6F50C94532B0EF4E0950B2EBA2FA02D0E
:105380000B01B90190010C01CA01A0011124FF27F2
:10539000591B99F0593F50F4503E68F11A16F040ED
:1053A000A22F232F342F4427585FF3CF46953795EC
:1053B0002795A795F0405395C9F77EF41F16BA0BB1
:1053C000620B730B840BBAF09150A1F0FF0FBB1F5F
:1053D000661F771F881FC2F70EC0BA0F621F731FA8
:1053E000841F48F4879577956795B795F7959E3F05
:1053F00008F0B0CF9395880F08F09927EE0F979596
:10540000879508950E94E52A08F481E008950E9496
:105410001B2A0C94202B0E94192B58F00E94122B4F
:1054200040F029F45F3F29F00C94092B51110C94A2
:10543000542B0C940F2B0E94312B68F39923B1F35A
:10544000552391F3951B550BBB27AA2762177307AA
:10545000840738F09F5F5F4F220F331F441FAA1F3E
:10546000A9F335D00E2E3AF0E0E832D091505040FA
:10547000E695001CCAF72BD0FE2F29D0660F771FA8
:10548000881FBB1F261737074807AB07B0E809F08E
:10549000BB0B802DBF01FF2793585F4F3AF09E3F13
:1054A000510578F00C94092B0C94542B5F3FE4F3D6
:1054B000983ED4F3869577956795B795F7959F5F56
:1054C000C9F7880F911D9695879597F90895E1E0A2
:1054D000660F771F881FBB1F621773078407BA0701
:1054E00020F0621B730B840BBA0BEE1F88F7E0955C
:1054F00008950E94392B88F09F5798F0B92F99276B
:10550000B751B0F0E1F0660F771F881F991F1AF0AE
:10551000BA95C9F714C0B13091F00E94532BB1E095
:1055200008950C94532B672F782F8827B85F39F094
:10553000B93FCCF3869577956795B395D9F73EF447
:1055400090958095709561957F4F8F4F9F4F0895EF
:10555000E89409C097FB3EF490958095709561950D
:105560007F4F8F4F9F4F9923A9F0F92F96E9BB27C3
:105570009395F695879577956795B795F111F8CF3F
:10558000FAF4BB0F11F460FF1BC06F5F7F4F8F4FAA
:105590009F4F16C0882311F096E911C0772321F0A0
:1055A0009EE8872F762F05C0662371F096E8862F38
:1055B00070E060E02AF09A95660F771F881FDAF78F
:1055C000880F9695879597F90895990F0008550FBC
:1055D000AA0BE0E8FEEF16161706E807F907C0F079
:1055E00012161306E407F50798F0621B730B840B81
:1055F000950B39F40A2661F0232B242B252B21F45B
:1056000008950A2609F4A140A6958FEF811D811DFA
:10561000089597F99F6780E870E060E008959FEF34
:1056200080EC089500240A94161617061806090639
:10563000089500240A941216130614060506089508
:10564000092E0394000C11F4882352F0BB0F40F490
:10565000BF2B11F460FF04C06F5F7F4F8F4F9F4FD0
:10566000089557FD9058440F551F59F05F3F71F052
:105670004795880F97FB991F61F09F3F79F08795B9
:105680000895121613061406551FF2CF4695F1DF42
:1056900008C0161617061806991FF1CF86957105D2
:1056A000610508940895E894BB2766277727CB0106
:1056B00097F908950E946D2B0C94202B0E94122BB9
:1056C00038F00E94192B20F0952311F00C94092B2F
:1056D0000C940F2B11240C94542B0E94312B70F33B
:1056E000959FC1F3950F50E0551F629FF001729F87
:1056F000BB27F00DB11D639FAA27F00DB11DAA1F96
:10570000649F6627B00DA11D661F829F2227B00DE2
:10571000A11D621F739FB00DA11D621F839FA00D6D
:10572000611D221F749F3327A00D611D231F849FBD
:10573000600D211D822F762F6A2F11249F57504014
:105740009AF0F1F088234AF0EE0FFF1FBB1F661F8F
:10575000771F881F91505040A9F79E3F510580F058
:105760000C94092B0C94542B5F3FE4F3983ED4F334
:10577000869577956795B795F795E7959F5FC1F7FC
:10578000FE2B880F911D9695879597F90895FB013B
:10579000DC0102C001900D9241505040D8F70895AD
:1057A000DC0101C06D9341505040E0F70895FB01CA
:1057B000DC0101900D920020E1F70895B0E0A0E037
:1057C000E4EEFBE20C940A2FFE0135966191719193
:1057D000AF018091D8089091D9080E94482CE2E04E
:1057E0000C94262F6091D8087091D9080E94312E10
:1057F00008950F931F93CF93DF93E091D808F09112
:10580000D908238100E010E021FD0EC00FEF1FEF4B
:10581000C801DF91CF911F910F9108950995892BB0
:1058200011F00FEF1FEFCE01EC0189916091D808C4
:105830007091D908DB011896ED91FC918111EECFA2
:105840008AE00995892B21F3E1CFAEE0B0E0EBE2ED
:10585000FCE20C94082F0D891E8986E08C831A8344
:1058600009838FEF9FE79E838D83AE01475E5F4F75
:105870006F89788DCE0101960E94482C2F81388542
:10588000020F131FF80110822E96E4E00C94242FCF
:10589000AFE0B0E0EEE4FCE20C94FA2E7C013B01B8
:1058A0008A01DC0117961C921E92169713968C9112
:1058B00081FFBEC19AE0292EFE0131964F01D7012A
:1058C00013969C91F30193FD859193FF81913F0184
:1058D000882309F444C1853239F493FD859193FFFF
:1058E00081913F01853229F4B70190E00E94312E69
:1058F000E6CFB12C412C512CBFE1B51538F08B32DD
:1059000009F188F4803201F1833221F157FC3AC069
:1059100020ED280F2A3040F556FE1FC0B29C200D06
:105920001124B22E06C08D3291F0803379F768943D
:1059300050F8F30193FD859193FF81913F0181110F
:10594000DBCF20C0689451F8689452F8F2CF689485
:1059500053F8EFCF689454F8ECCF429C200D1124FB
:10596000422E689455F8E5CF8E3229F456FCF7C0E4
:10597000689456F8DECF8C3619F4689457F8D9CF6E
:105980008836B9F2982F9F7D95549330C0F08336B6
:1059900081F18337A1F1833509F05BC0D801CD9047
:1059A000DD908D016B2D70E056FC02C06FEF7FEF34
:1059B000C6010E941B2E5C01689457F80AC00C5F58
:1059C0001F4FEFE3E983AA24A394B12C6401E89468
:1059D00057F853FE29C0342CA114B10451F53320DB
:1059E00009F46DCFB70180E290E00E94312E3A9425
:1059F000F6CFD8018C9189830E5F1F4FE4CFF80159
:105A0000C190D1908F016B2D70E056FC02C06FEFFA
:105A10007FEFC6010E94262E5C01D9CFB70180E23C
:105A200090E00E94312E4A944A141B0409F0B0F70A
:105A3000D2CFF60157FC859157FE81916F01B701D6
:105A400090E00E94312E31103A94B1E0AB1AB108C7
:105A5000C3CF843619F0893609F071C0F80157FEBA
:105A600067C061917191819191918F01E52DEF76E0
:105A7000DE2E97FF09C090958095709561957F4FB8
:105A80008F4F9F4F6894D7F82AE030E0A4010E941E
:105A9000612EC82EC818AC2C5D2CD6FE0CC0E89424
:105AA00050F8CB1440F4D4FE05C0D2FC03C05D2DE9
:105AB0005E7E552EAB2C54FE93C0FE01EC0DF11D05
:105AC0008081803309F085C0652D697E562E752D45
:105AD0007870372E53FC93C050FE8DC0BC2CA4149C
