:100000000C94DC040C94F9040C94F9040C94F92479
:100010000C94F9040C94F9040C94F9040C94F9046C
:100020000C94F9040C94F9040C9400070C94240724
:100030000C94F9040C94F9040C94F9040C94F9044C
:100040000C94F9040C94F9040C94F9040C94F9043C
:100050000C94F9040C94F9040C94F9040C94F9042C
:100060000C94F9040C94F9040C94F9040C94F9041C
:100070000C94F9040C94F9040C94F9040C94F9040C
:100080000C94F9040C94F9040C94F9040C94F904FC
:100090000C94F9040C94F9040C94F9040C94F904EC
:1000A0000C94F9040C94F9040C94F9040001000078
:1000B000660212000200007C015B002200004A027E
:1000C0001C002100008E0109002201000A024000EC
:1000D000210100AE010900220200D70133002102F4
:1000E00000C7010900030000780104010309046648
:1000F0000110020309043401300303090400013232
:10010000320330003000300030003000300030006A
:10011000300030003000300030003000300030005F
:10012000300030003000300030003000300030004F
:100130003000000030034B00650072006D00690064
:100140007400650020004B006500790062006F00BC
:1001500061007200640020004400650076006900C0
:1001600063006500000010034B00650072006D0025
:1001700069007400650000000403090409025B00C3
:10018000030100C03209040000020300000009213D
:1001900011010001221C0007058103400002070530
:1001A00002034000080904010001030101000921C4
:1001B0001101000122400007058303080001090422
:1001C0000200010301020009211101000122330094
:1001D0000705840308000105010902A101050919A9
:1001E000012903150025019503750181029501750B
:1001F0000581030501093009311581257F750895B1
:10020000028106093895018106C005010906A10190
:1002100075019508050719E029E7150025018102F8
:1002200095017508810395057501050819012905D2
:10023000910295017503910395067508150026FF37
:10024000000507190029FF8100C006ABFF0A000264
:10025000A1017508150026FF00954009018102954E
:100260004009029102C0120100020000002055F076
:1002700077A500010102030101410304000000020F
:100280004303050000000345030600000004470384
:100290000700000005490308000000064B030900A1
:1002A0000000074D030A000000084F030B00000088
:1002B00009C2030C0000000A51030D0000000B539B
:1002C000030E0000000C55030F0000000D57031033
:1002D0000000000E5903110000000F5B0312000024
:1002E00000105D0313000000115F031400000012F2
:1002F0006103150000001384031600000014F305C9
:1003000017000000156303180000001665031900AC
:1003100000001767031A0000001869031B000000A3
:10032000196B031C0000001A6D031D0000001BA3C5
:1003300003270200001CA7031E0200001DAB031FC1
:100340000200001E8D03200200001F900321020006
:1003500000209303220200002196032302000022C2
:10036000990324020000239C0325020000249F031C
:1003700026020000256F03290000002673032C00CD
:10038000000027790328000000287F032B000000CD
:100390002983032A0000002A86033A0000002B89E3
:1003A000033B0000002C8C033C0000002D8F033D1C
:1003B0000000002E92033E0000002F95033F000036
:1003C0000030980340000000319B034100000032E0
:1003D0009E034200000033A1034300000034A50344
:1003E0004400000035A9034500000058AE03E100B9
:1003F000000057B503E000000059BB03E200000015
:100400005AC003E30000009FAD03E10000009EB46A
:1004100003E0000000A0BA03E2000000A1BF03E374
:10042000000000A3C403E5000000A2CB03E4000029
:1004300000A4D103E6000000A5D603E70000005B9E
:10044000DB034A0000005CE0034D0000005DE403B4
:10045000490000005EEB034C0000005FF2034B001C
:10046000000060F9034E000000610004500000002D
:100470006205044F00000063F60352000000640BA5
:1004800004510000006A1004350000006B18048855
:100490000000006D22048A0000006C29048B00001B
:1004A00000362F043702370237310436023602385D
:1004B00033041E011E01393504380138013A37046E
:1004C000330134023B3904330233023C3B042D0137
:1004D00087013D3D042E0133013E3F042D022D02D4
:1004E0003F410425013401404304380238024145AC
:1004F000042E022D01424704240123014349043103
:10050000018901444B0423012E02454D0435012E7F
:1005100001464F041F012F024751042001200148CA
:10052000530421012101495504310289024A58042A
:10053000220122014B5A04310287024C5C0434022E
:1005400024014D5E0434011F014E600435022F0169
:100550004F620426012501506404270126015166DB
:10056000042F023002526804300231025366042F15
:1005700001300154680430013101556A04360136F6
:1005800001566C043701370100AEA81FD30040A10B
:10059000C8DA02813FA4A6D5808D142002AF0000E6
:1005A00000000000005E00000006000600247E241B
:1005B0007E24002E7A2F3A00661668660036494976
:1005C00036000600000000003E41000000413E00F1
:1005D000082A1C2A0808083E0808004020000000DD
:1005E00008080808000020000000300C0300007F0D
:1005F00041417F0000417F40007949494F0049490E
:10060000497F000F08087F004F494979007F494919
:10061000790001710907007F49497F004F49497FEF
:100620000000240000000040240000081422000004
:100630001414141400002214080002015906007F4B
:100640005D557D007F11117F007F49497E007F410C
:100650004141007F41413E007F494949007F0909EE
:1006600009007F414979007F08087F00417F4100F0
:10067000004040413F007F083641007F4040407FBE
:10068000017F017F7F031C607F007F41417F007FEE
:1006900009090F007F41215F007F19294F004F4951
:1006A000497901017F0101007F40407F007F4020A8
:1006B0001F7F407F407F00631C1C6303047804039A
:1006C0000061514D4300007F410000030C304000A9
:1006D00000417F00000402040000202020200004CC
:1006E000020000007454547C007F44447C007C442D
:1006F0004444007C44447F007C54545C00047F05E7
:100700000000BCA4A4FC007F04047C0000007D0069
:10071000000080FD00007F10284400007F40007C26
:10072000047C047C007C04047C007C44447C00FC4D
:1007300024243C003C2424FC00007C0404005C5481
:10074000547400047F4400007C40407C007C4020C6
:100750001C7C407C407C0044383844009CA0403CD9
:10076000004464544C000402000000087F41000073
:1007700000007F000000417F080000000000000032
:1007800000000000000000000080FFFF0780FFFF66
:100790000780FFFF0780FFFF070000070000800FB2
:1007A0000000C01F0000F03F0000F87F0000FCFCCC
:1007B00000007EF801803FE003800FC007800780C3
:1007C000078003000780010006000000040000000D
:1007D000000000000080FFFF0780FFFF0780FFFF91
:1007E0000780FFFF078087870780878707808787C5
:1007F00007808787078087870780878707808787A5
:10080000078087870780878707808787078007801B
:1008100007000000000000000000000000000000D1
:100820000080FFFF0780FFFF0780FFFF0780FFFFBB
:100830000780071E0080071E0080071E0080071E1D
:100840000080077E008007FE00800FFF01809FFF71
:100850000700FFEF0700FF8F0700FE070700F80102
:100860000600000000000000000000000080FFFF04
:100870000700FFFF0700FEFF0700F8FF0700F00377
:100880000000E0070000C00F0000801F0000007F94
:10089000000000FC000000FC0000007F0000801F42
:1008A0000000C00F0000E0070000F0030000F8FFA8
:1008B0000700FEFF0700FFFF0780FFFF07000000A3
:1008C0000000000000000000000000000000000028
:1008D0000080FFFF0780FFFF0780FFFF0780FFFF0B
:1008E000070000000000000000000000008007007A
:1008F00000800700008007000080070000800700DC
:10090000008007000080FFFF0780FFFF0780FFFFD8
:100910000780FFFF078007000080070000800700B6
:100920000080070000800700008007000000000032
:100930000080FFFF0780FFFF0780FFFF0780FFFFAA
:100940000780878707808787078087870780878753
:100950000780878707808787078087870780878743
:100960000780878707808787078007800700000048
:10097000000000000000000000DB2295221222216E
:100980002366200000FF000044FF0000FFFF00007E
:10099000FF660000FF000044FF0000FFFF0000FFB3
:1009A000440000FF000000FF004400FF00FF00447F
:1009B00000FF00FFFFFF000011241FBECFEFDAE0B1
:1009C000DEBFCDBF16E0A0E0B1E0E8E5FEE502C085
:1009D00005900D92A635B107D9F728E0A6E5B6E057
:1009E00001C01D92AE3FB207E1F70E94E0280C94CF
:1009F000232F0C940000EF92FF920F931F93CF933D
:100A0000DF93EC018C01060F171F8DE8E82E81E0C3
:100A1000F82EC017D10751F48AE090E0DF91CF9112
:100A20001F910F91FF90EF900C94E42B89911F92EE
:100A30008F93FF92EF920E94D02B0F900F900F9008
:100A40000F90E7CFEF92FF920F931F93CF93DF9317
:100A5000EC018C01060F171F83E9E82E81E0F82EC8
:100A6000C017D10751F48AE090E0DF91CF911F9138
:100A70000F91FF90EF900C94E42B89911F928F932C
:100A8000FF92EF920E94D02B0F900F900F900F903B
:100A9000E7CFFB01DC01460F571FE417F50709F408
:100AA000089581918D93F9CFAF92BF92CF92DF924B
:100AB000EF92FF920F931F93CF93DF93DC01162FDA
:100AC000EA0190E061E070E090130BC0DF91CF91FC
:100AD0001F910F91FF90EF90DF90CF90BF90AF905C
:100AE0000895892F810F382F3695369536957D01DB
:100AF000E30EF11CF701308187705B0101C0AA0C85
:100B00008A95EAF7892F820F482F46954695469594
:100B10004C0F5D2F511DFA01408150E087706B0131
:100B200002C0CC0CDD1C8A95E2F74C215D21832F9D
:100B30008A29452B21F4EA2DE0958E2F8323F70196
:100B400080839F5FC1CFFC01DB01480F591FE41771
:100B5000F50711F481E0089591918D919817B9F3FB
:100B600080E00895FB01DC01460F571FE417F507ED
:100B700009F40895819190E08D939D93F7CF70E0F3
:100B80000C94C22B262F269526952695FC01E20F64
:100B9000F11D9081677021E030E001C0220F6A955D
:100BA000EAF7442319F0922B90830895209592231D
:100BB000FBCF262F269526952695820F911DFC01A9
:100BC000208130E0677081E090E002C0880F991FBB
:100BD0006A95E2F72823392381E0121613060CF0F8
:100BE00080E008959B01BA01FC0190E080E082174B
:100BF000930714F080E008954191519146175707EB
:100C000011F00196F4CF81E008959C0190E080E01E
:100C10008217930709F40895EFE9FFE03197F1F7A0
:100C200000C000000196F4CF9C0190E080E08217A4
:100C3000930709F4089545E04A95F1F700000196FD
:100C4000F6CF78940895F89408951092D800A89556
:100C500014BEE0E6F0E08081886180831082089510
:100C6000E82FE695E695E69593E0E99FF0011124DB
:100C700035A1282F277081E090E001C0880F2A95C8
:100C8000EAF78095832385A30895E82FE695E695F6
:100C9000E69593E0E99FF001112494A1877021E08B
:100CA00030E001C0220F8A95EAF7892F822B84A3B6
:100CB0000895E82FE695E695E69593E0E99FF00123
:100CC000112434A1282F277081E090E001C0880F03
:100CD0002A95EAF78095832384A30895E82FE69563
:100CE000E695E69563E0E69FF001112444A1877044
:100CF00021E030E0B90102C0660F771F8A95E2F764
:100D0000CB01962F9095942394A395A1892B85A32D
:100D10000895662399F0E82FE695E695E69593E029
:100D2000E99FF001112495A1877021E030E001C016
:100D3000220F8A95EAF7922B95A308950C9430061A
:100D4000E82FE695E695E695EF5F93E0E99FF001E1
:100D5000112490A1877021E030E002C0220F331FE0
:100D60008A95E2F7892F90E02823392381E0121633
:100D700013060CF080E00895E82FE695E695E695D9
:100D800093E0E99FF001112495A1877021E030E004
:100D900001C0220F8A95EAF7892F822785A308953B
:100DA00086958695869523E0829FC00111248596BD
:100DB00008958695869586958F5F23E0829FC00172
:100DC0001124809608958770089561E00C94890637
:100DD0000C943006E82FE695E695E695EF5F93E0F4
:100DE000E99FF001112490A1877021E030E001C05B
:100DF000220F8A95EAF7892F822B80A30895089500
:100E00001F921FB61F9211248F939F938091E10030
:100E10001092E10083FF0FC01092E90091E09093DF
:100E2000EB001092EC0092E29093ED0098E090932A
:100E3000F0001092570682FD809157069F918F9186
:100E40001F901FBE1F9018951F920F920FB60F9202
:100E50001124EF92FF920F931F932F933F934F9381
:100E60005F936F937F938F939F93AF93BF93CF9332
:100E7000DF93EF93FF931092E9008091E80083FFE6
:100E80005AC09091F1008091F1002091F1003091D1
:100E9000F1004091F1005091F1006091F1007091EA
:100EA000F100E2EFE093E800863009F087C08CEAB9
:100EB00090E0A0E0B1E0FC01C591D4912C173D0772
:100EC00009F034C0FC013296C591D4914C175D07EE
:100ED00069F5FC013496459154910696FC01849184
:100EE0006F3F710519F010F06FEF70E0F62E861766
:100EF00008F4F82EBA018EEFE82E8091E800982FC2
:100F00009570D9F382FD2CC08F2DF0E2FF1508F407
:100F100080E223303207A9F0FB01982F9923A9F032
:100F2000A491A093F10091503196F8CF0796A8179D
:100F3000B90709F0C0CF81E28093EB0011C0F92E10
:100F4000DCCF8B01982F911122C0680F711D9F2D4E
:100F5000981BE092E800F812F2CF80E2F81679F3DD
:100F6000FF91EF91DF91CF91BF91AF919F918F91C1
:100F70007F916F915F914F913F912F911F910F91B1
:100F8000FF90EF900F900FBE0F901F901895E80103
:100F9000C41BD50BAC2FF801B491C23048F0A2505D
:100FA000B0E0C0FD05C0A695B0E0A85AB94FBC910D
:100FB000B093F10091500F5F1F4FC5CF853059F4AA
:100FC0008EEF8093E8008091E80080FFFCCF2068DE
:100FD0002093E300C5CF8930C9F5911137C0209324
:100FE00057068EEF8093E80081E08093E9008093BC
:100FF000EB0091EC9093EC0026E32093ED0032E0BF
:101000003093E9008093EB0030EC3093EC002093B8
:10101000ED0023E02093E9008093EB009093EC0037
:1010200026E02093ED0034E03093E9008093EB005C
:101030009093EC002093ED0087E991E00E94EB2B68
:101040008EE18093EA001092EA008ACF41155105A3
:1010500039F4913209F06FCF8A3009F06CCF15C0A6
:1010600041305105B1F4913209F065CF8930A1F7D3
:101070008091E80082FFFCCF8091F10080935606BA
:10108000809156068BEF8093E8008EEF8093E80006
:1010900067CF42305105E9F24ECF80E8809361007E
:1010A0001092610081E08093D70080EA8093D8009D
:1010B00082E189BD09B400FEFDCF80E98093D800AC
:1010C0001092E000109257068CE08093E2000895A1
:1010D00090915706911102C080E0089593E090939B
:1010E000E9009091E80095FFF7CFF8948093F10024
:1010F0001092F100FB01CB01069621912093F100A3
:10110000E817F907D1F78AE38093E800789481E043
:10111000089520915706211102C080E0089523E030
:101120002093E9002091E80025FFF7CFF894FC0117
:10113000089621912093F100E817F907D1F78AE387
:101140008093E800789481E008952091570621115A
:1011500002C080E0089521E02093E9002091E8009A
:1011600025FFF7CFF894FC01805C9F4F21912093DD
:10117000F100E817F907D1F78AE38093E800789443
:1011800081E0089520915706211102C080E0089562
:1011900022E02093E9002091E80025FFF7CFF894A2
:1011A000FC01805C9F4F2091F1002193E817F90723
:1011B000D1F78BE68093E800789481E008959091D0
:1011C000570681E0911101C080E0089588E596E01E
:1011D000089508951092D800089580E094E008954D
:1011E000F999FECF0C94C12EF999FECF0C94D92E0B
:1011F000F999FECF0C94C92EF999FECF0C94E72EE5
:10120000382F292FCB01F999FECF632F722F0C9421
:10121000B12E382F292FCB01F999FECF632F722FD2
:101220000C94CF2ECF93DF93D0E0C0E060E0CE01EE
:101230000E94F4082196C11584E0D807B9F7DF9120
:10124000CF910895089508955198599A5098589AB1
:101250001092B9008CE08093B80008959A0194EA46
:101260009093BC009091BC0097FFFCCF880F8093B7
:10127000BB0084E88093BC008091BC0087FFFCCF5A
:10128000FB0190E080E044E88217930724F084E9B2
:101290008093BC00089551915093BB004093BC00D3
:1012A0005091BC0057FFFCCF0196EECF9A0194EA13
:1012B0009093BC009091BC0097FFFCCF880F816099
:1012C0008093BB0084E88093BC008091BC0087FFC2
:1012D000FCCFFB0190E080E0A9014150510964E896
:1012E00074EC8217930724F084E98093BC0008957E
:1012F000841795075CF47093BC00A091BC00A7FF15
:10130000FCCFA091BB00A1930196EBCF6093BC00F2
:10131000F4CF94EA9093BC009091BC0097FFFCCF6F
:10132000880F8093BB0084E88093BC008091BC0050
:1013300087FFFCCF08958093BB0084E88093BC00B6
:101340008091BC0087FFFCCF089584E98093BC00A6
:1013500008958F929F92AF92BF92CF92DF92EF92B9
:10136000FF920F931F93CF93DF935C01EB016A0110
:1013700079014801CC15DD0510F5CE010E94F80871
:101380008C01CE0102960E94F8089C010A151B05EB
:10139000A1F42496F701D183C083F4013183208323
:1013A000DF91CF911F910F91FF90EF90DF90CF9041
:1013B000BF90AF909F908F900895892B29F4D0E033
:1013C000C0E030E020E0E6CF2C5F3F4FC20FD31FDC
:1013D000D1CFEF92FF920F931F93CF93DF93D82F2C
:1013E000C92F7B018A010E94ED08AC01970162E0E0
:1013F00070E08D2F9C2F0E94A909DF91CF911F9142
:101400000F91FF90EF900895CF93DF9300D000D01D
:10141000CDB7DEB7AE014F5F5F4FBE016D5F7F4F4F
:101420000E94E9098B819C810F900F900F900F9083
:10143000DF91CF910895CF92DF92EF92FF920F93B9
:101440001F93CF93DF9300D000D0CDB7DEB76C01F0
:101450007B018A01AE014F5F5F4FBE016D5F7F4F21
:1014600080E79AEA0E94E9096B817C816115710528
:10147000A9F049815A81460F571F9701C6010E9462
:10148000A9090F900F900F900F90DF91CF911F91AE
:101490000F91FF90EF90DF90CF900895F7011182A8
:1014A0001082F80111821082ECCFAF92BF92CF92DE
:1014B000DF92EF92FF920F931F93CF93DF9300D0B1
:1014C00000D0CDB7DEB78DEA91E00E94EB2B90E023
:1014D00080E00E94F8088E37934A09F044C0AE01BC
:1014E0004F5F5F4FBE016D5F7F4F80E19AEA0E94C0
:1014F000E909E980FA80AE014F5F5F4FBE016D5F81
:101500007F4F80E29AEA0E94E909A980BA80AE0181
:101510004F5F5F4FBE016D5F7F4F80E39AEA0E948D
:10152000E909C980DA80AE014F5F5F4FBE016D5F90
:101530007F4F80E49AEA0E94E90909811A8180E7D5
:101540009AEA0E94040A9C0182E1A816B10459F4A7
:101550008DE0C816D10439F40E291F29012B19F486
:10156000232B09F04AC087ED91E00E94EB2B0E94EB
:1015700012096EE773EA90E080E00E94FC0860E2E6
:101580007AEA82E090E00E94FC0862E170E084E088
:1015900090E00E94FC0860E37AEA88E190E00E9413
:1015A000FC086DE070E08AE190E00E94FC0860E7D2
:1015B0007AEA89E290E00E94FC0870E060E08BE249
:1015C00090E00E94FC0880E29AEA0E94040A0097D8
:1015D000D9F148E050E06AEF71E00F900F900F9062
:1015E0000F90DF91CF911F910F91FF90EF90DF90BF
:1015F000CF90BF90AF900C94090980E29AEA0E94C4
:10160000040A48E050E060E776E00E94000948E004
:1016100050E06AEF71E080E796E00E94A30588231E
:1016200009F4A1CF84EC91E00F900F900F900F90F0
:10163000DF91CF911F910F91FF90EF90DF90CF90AE
:10164000BF90AF900C94EB2B0F900F900F900F90DA
:10165000DF91CF911F910F91FF90EF90DF90CF908E
:10166000BF90AF900895CF93DF9380E79AEA0E94EE
:10167000040AEC01892B31F00E94ED089C012C1B1F
:101680003D0BE901CE01DF91CF91089580E29AEA06
:101690000E94040A0896089580E29AEA0E94040AC9
:1016A0004096089580E39AEA0C94040A8DE090E055
:1016B000089580E79AEA0C94040ACF93DF9300D050
:1016C00000D0CDB7DEB7AE014F5F5F4FBE016D5F9B
:1016D0007F4F81E79BEB0E941B0A8B819C810F90BF
:1016E0000F900F900F90DF91CF910895CF93DF93DC
:1016F00000D000D0CDB7DEB7AE014F5F5F4FBE0167
:101700006D5F7F4F84E79BEB0E941B0A8B819C815E
:101710000F900F900F900F90DF91CF910895CF937E
:10172000DF9300D000D0CDB7DEB7AE014F5F5F4F83
:10173000BE016D5F7F4F88E79BEB0E941B0A8B8188
:101740009C810F900F900F900F90DF91CF91089593
:10175000CF93DF9300D000D0CDB7DEB7AE014F5F9F
:101760005F4FBE016D5F7F4F88E79BEB0E941B0AB6
:1017700089819A810F900F900F900F90DF91CF91F8
:101780000895CF93DF9300D000D0CDB7DEB7AE0180
:101790004F5F5F4FBE016D5F7F4F86E79BEB0E94FF
:1017A0001B0A8B819C810F900F900F900F90DF91FF
:1017B000CF9108958F929F92AF92BF92CF92DF9276
:1017C000EF92FF920F931F93CF93DF93D0E0C0E08F
:1017D000EE24E394F12C87010C2E02C0000F111FA0
:1017E0000A94E2F7809178069091790680239123FC
:1017F000892BF1F0FE01EA57F94F90808C2E8CE78F
:10180000A82E86E0B82ED12CC12C80917A0690911A
:101810007B06C816D906ECF00095109580917806E5
:10182000909179068023912390937906809378068E
:101830002196CD30D10579F6DF91CF911F910F918F
:10184000FF90EF90DF90CF90BF90AF909F908F90E0
:101850000895D501ED91FD915D01692D882D0995C2
:10186000BFEFCB1ADB0AD1CFCF93DF93D82FC92F8D
:1018700060917A0670917B06482F592F8CE796E08D
:101880000E94F205811110C0E0917A06F0917B066A
:10189000CF01019690937B0680937A06EE0FFF1F8F
:1018A000E458F94FD083C183DF91CF910895E82F99
:1018B000F0E0E050FF4F60830895853011F461300F
:1018C00040F0E82FF0E0E050FF4F81E09081961764
:1018D00008F480E081700895DF92EF92FF920F93F9
:1018E0001F93CF93DF9306E816E0D0E0C0E083E0DB
:1018F000E82E82E0F82EF801D1908F016D2D8C2F0B
:101900000E945D0C811119C0FE01EF5CFE4F8081C9
:10191000F801319780831F928F931F92DF92DF939C
:10192000CF93FF92EF920E94D02BEDB7FEB738967F
:101930000FB6F894FEBF0FBEEDBF2196CD30D10596
:10194000D1F6DF91CF911F910F91FF90EF90DF9033
:101950000895CF93DF93C82FD62F0E945D0C882364
:10196000E1F0EC2FF0E0EA57F94FD08321E030E0CE
:1019700002C0220F331FCA95E2F78091780690913A
:101980007906822B932B909379068093780688EBC7
:101990009BE090930E0180930D01DF91CF9108950C
:1019A000CF93C82F282F30E0F901E050FF4F9081EE
:1019B0002A57394FD901EC91F0E09F01260F371FCC
:1019C000442389F0692F70E06F5F7F4FCB01820F56
:1019D000931F0E9409298E179F0789F0682F8C2F6B
:1019E000CF910C94A90C37FD07C0892F90E02817E0
:1019F00039078CF7C901EFCF90E080E0ECCFCF91B1
:101A00000895CF93DF930E94520B909385068093A5
:101A10008406892B09F440C00E944C0BEC0100970E
:101A2000B1F00E94F008811112C04DE050E061E376
:101A300071E080918406909185060E94090961E019
:101A4000CE010E94F4088FE292E00E94EB2B4DE061
:101A500050E066E876E080918406909185060E94C9
:101A600000090E946C0C209178063091790690E074
:101A700080E061E070E0AB01082E02C0440F551F0A
:101A80000A94E2F7242B352B01968D30910599F7B6
:101A90003093790620937806DF91CF910895462FF1
:101AA00050E066E876E00C944905462F50E060E08F
:101AB00071E00C944905E82FF0E0EA57F94F808176
:101AC00008950C94A90CEF92FF920F931F93CF935C
:101AD000DF938C01D0E0C0E0E62EF12CCE15DF05BF
:101AE0003CF0DF91CF911F910F91FF90EF900895FF
:101AF000F80161918F018C2F0E94A90C2196EECFE5
:101B00000F931F93CF9301E311E0C0E0F8016191BF
:101B10008F018C2F0E94A90CCF5FCD30B9F7CF91E8
:101B20001F910F910895813039F460918D066827D7
:101B300087E00E94A90C0895823041F0833069F457
:101B400041E06FEF7FEF88E00C94D00C41E061E062
:101B500070E08AE00E94D00C089541E061E070E0FE
:101B6000843089F340E060EF7FEF853031F040E072
:101B700060E170E0863009F0089589E0E5CF80915A
:101B80000D0190910E0118161906BCF4019790935F
:101B90000E0180930D01892B81F480918406909130
:101BA0008506009751F04DE050E066E876E00E942F
:101BB00009098DE492E00E94EB2B0C94DA0B0C9453
:101BC000DA0B86E896E00895CF93DF930E945D0BD1
:101BD000EC010E94330B209741F48EE592E00E94C5
:101BE000EB2B80E0DF91CF910895892BB1F345E095
:101BF00050E063E976E0CE010E940009309194063E
:101C000020919506909196068091970640919306B3
:101C1000413019F7363009F72330F9F69F3FE9F2E2
:101C20008131D8F687E792E00E94EB2B81E0DACF92
:101C3000E091E006F091E106309709F009940895EB
:101C40000E94DF08882351F08AE996E00E94A508E7
:101C5000811104C089E992E00C94EB2B08959091D6
:101C60009906992399F09091980691110FC090EBE5
:101C700090939A0692E090939B0691EE90939C0627
:101C800080939D0660939E060C94200E0895909379
:101C9000E1068093E0068FE29EE00E94340C0E94F1
:101CA000460B9093DF068093DE060E94590B9093BB
:101CB000DD068093DC060E94330B9093DB06809355
:101CC000DA060895CF92DF92FF920F931F93CF937E
:101CD000DF938AE996E00E94C208882309F49DC038
:101CE00080919A06803B09F00CC190919B068091EF
:101CF0009C06913009F0ABC0803171F48CEB92E01E
:101D00000E94EB2B81E0DF91CF911F910F91FF900B
:101D1000DF90CF900C94180E803209F458C08132B5
:101D200009F083C0C0919D06D0919E06DC27CD2787
:101D3000DC278091DC069091DD06C80FD91F009149
:101D40009F061091A0061027012710271F930F93BD
:101D5000DF93CF9383EF92E09F938F930E94D02BDA
:101D60000F900F900F900F900F900F90D12CC12CCF
:101D7000F12CC016D10609F060C01F92FF928BE0D3
:101D800093E09F938F930E94D02B80EB80939A06D1
:101D900081E080939B0682E280939C06F0929D06F0
:101DA00010929E060E94200E0F900F900F900F90A1
:101DB0008091DC069091DD06B6010297DF91CF910C
:101DC0001F910F91FF90DF90CF900C94FC08C09171
:101DD0009D06D0919E06DC27CD27DC278091DC066E
:101DE0009091DD06C80FD91F10919F06412F50E03A
:101DF00060EA76E0CE010E940909DF93CF931F923B
:101E00001F938BED92E09F938F930E94D02B0F90A6
:101E10000F900F900F900F900F90DF91CF911F9127
:101E20000F91FF90DF90CF9008958131B1F783E15A
:101E300093E00E94EB2B82E066CFCE018C0D9D1DBE
:101E40000E94F008F8268FEFC81AD80A92CF923075
:101E5000A9F0933011F7803901F748E050E06DE9BF
:101E600076E08091DE069091DF06DF91CF911F91A1
:101E70000F91FF90DF90CF900C9409098038C9F43E
:101E800081E880939C068DE080939D066DE08EE94D
:101E900096E00E944F0D6DE08BEA96E00E94550D92
:101EA000DF91CF911F910F91FF90DF90CF900C9415
:101EB000200E803979F0803AD9F460919E068091A5
:101EC0009D06DF91CF911F910F91FF90DF90CF90F2
:101ED0000C94610D40919D0660919E0681E0809377
:101EE00098068FE996E00E94630D1092980695CFB0
:101EF000803B09F092CF81E0809398060E94800D8C
:101F0000F4CF803F79F0803D09F087CF80919B0628
:101F1000803109F05EC080919C06813009F057C085
:101F20008AE0F1CE80919B06803109F076CF81E185
:101F300080939B0610929C06D2E0D0939D0686E08B
:101F400080939E06C1E0C0939F0648E050E06AEF90
:101F500071E080EA96E00E944905C093A8061092BD
:101F6000A90648E050E06AEA76E08091DE069091AA
:101F7000DF060E9400098091DA069091DB0698271F
:101F8000892798279093B3068093B20640E150E0EA
:101F900060E084EB96E00E94BF0546E050E061E31C
:101FA00073E084EB96E00E94490548E050E068E366
:101FB00073E084EC96E00E94490583E08093CC06B0
:101FC000D093CD060E94200EC093990626CF8BE0B9
:101FD0009ACE803209F021CF8CE996E0DF91CF9143
:101FE0001F910F91FF90DF90CF900C948908EAE940
:101FF000F6E090EE908390E99183828363830C9462
:10200000200EEAE9F6E020EE208321E921839827DB
:1020100089279827938382830C94200EEAE9F6E0BF
:1020200020EE208322E9218398278927982793830C
:1020300082830C94200EBC0148E050E08091DE06C3
:102040009091DF060C940009E8E7F2E030E020E030
:10205000949189130DC0611114C087E0829FF00133
:10206000839FF00D1124E558FD4F8591959115C082
:102070002F5F3F4F37962037310551F790E080E0D2
:10208000089587E0829FF001839FF00D1124E358AB
:10209000FD4F85919591009701F30895E8E7F2E0EF
:1020A00030E020E0949189130BC087E0829FF0011B
:1020B000839FF00D1124E758FD4F85919591089568
:1020C0002F5F3F4F37962037310561F790E080E072
:1020D0000895CF93DF930E94C10BEC01009749F064
:1020E0000E94F0088093E4062196D093E306C09303
:1020F000E206DF91CF910895AF92BF92CF92DF9227
:10210000EF92FF920F931F93CF93DF939C01B62E14
:102110008C010027107F832F8F70D82ED22FC12CD7
:1021200085E0A82E8091E406C816D8F5E090E20676
:10213000F090E306CA9CE00CF11C1124C7010E9438
:10214000F0088B1511F08F30A9F4C70101960E9499
:10215000F008C82FC70102960E94F008CC2311F0A6
:10216000C53B51F49FEF980F9E3F20F4DC1739F1E7
:10217000C53B29F1C394D6CFDC13FCCFD81611F0A0
:102180008F3FC1F7C70103960E94F008C82FC7010F
:1021900004960E94F008C63B09F0DC2F8E3F09F040
:1021A000D82EC8018D2B9D29DF91CF911F910F91C2
:1021B000FF90EF90DF90CF90BF90AF900895D8122E
:1021C000D9CFE0CF9C018827907F432F4F702F7786
:1021D00039EA320F343050F42755330B61E070E0A8
:1021E00001C0660F2A95EAF7462B20E0822B942B3C
:1021F0000895FC019081907681E0903409F080E0B0
:102200000895482FE8EEF6E030E020E05FE0529FCE
:10221000C001539F900D1124DC01A751B94F6C915F
:1022200060FF03C06281641749F02F5F3F4F3F9604
:102230002A30310561F790E080E008958751994F89
:1022400008958F929F92AF92BF92EF92FF920F9359
:102250001F93CF93DF939C01C62FD0E08E01080F10
:10226000191F60E070E0CB012017310799F440E0BE
:1022700024E030E02C1B3D0B42171306E4F0DF9105
:10228000CF911F910F91FF90EF90BF90AF909F90D3
:102290008F9008958824962EA72EB82E79014FEF9F
:1022A000E41AF40AC9010E94F0089401282BC50120
:1022B000B9019701D9CF982F872F762F66274F5FC7
:1022C000DBCF50E0542F44275295507F482B562B9C
:1022D00050685093800740937F070895CF93DF9312
:1022E0004091810750918207C82FD0E09A01082EB3
:1022F00002C0369527950A94E2F720FF29C021E015
:1023000030E0082E02C0220F331F0A94E2F7209516
:1023100030952423352330938207209381071F9221
:102320008F938EE694E09F938F930E94D02BCC0FD7
:10233000DD1FC856D84F89818F700F900F900F9076
:102340000F9031F080959091C00789238093C0074A
:10235000DF91CF910895CF92DF92EF92FF920F938A
:102360001F93CF93DF93F82EE090930703E917E0D4
:10237000D0E0C0E0C62E660FDD08CE1548F0DF9134
:10238000CF911F910F91FF90EF90DF90CF90089524
:10239000CC16DD0641F0F80185818770F81203C084
:1023A0008C2F0E946E1121960E5F1F4FE6CF0F9368
:1023B0001F93CF93C82F082F10E080918107909131
:1023C00082070C2E02C0969587950A94E2F780FD4D
:1023D00034C0000F111FF801ED56F84F858187704A
:1023E00019F06C2F0E94AB1121E030E00C2E02C0DE
:1023F000220F331F0A94E2F78091810790918207A0
:10240000822B932B90938207809381071F92CF9307
:102410008CE794E09F938F930E94D02BF801E856AD
:10242000F84F81818F700F900F900F900F9029F0CF
:102430009091C007892B8093C007CF911F910F9176
:1024400008950F931F93CF93DF93EC018A859B85AB
:10245000AC85BD850097A105B10509F45AC0AC0152
:10246000BD012EE176956795579547952A95D1F749
:10247000413009F053C06091E606CD010E947C1006
:102480000E94E2108C018F77A801952F9F7031F088
:1024900090952091C10792239093C107882361F101
:1024A00061E09091E506923009F060E00E9424100E
:1024B0009C01982FA9014427517031FB222720F954
:1024C00014FF20E02170452B29F08091C2078D7FF9
:1024D0008093C20721111092C307992369F0E4EC9D
:1024E000F7E02AEC37E08191981303C0DF011197E0
:1024F0001C922E173F07B9F78091810790918207B0
:10250000892B19F480E00E94D7111A861B861C863D
:102510001D86DF91CF911F910F910895423061F791
:10252000AC01BD0184E176956795579547958A95ED
:10253000D1F74F70413001F78B2F8F700E946E11D1
:10254000DBCF0F931F93CF938B019C01DC01CB0159
:102550004EE1B695A795979587954A95D1F7813025
:1025600009F057C06091E606C9010E947C100E94E4
:10257000E2108C018F77A801252F2F7029F0909100
:10258000C107922B9093C1078823C1F161E090911C
:10259000E506923009F060E00E9424109C01582F5B
:1025A000BC016627717031FB882780F914FF80E039
:1025B00081709091B807672B29F04091C207426063
:1025C0004093C207882329F09D7019F481E080931D
:1025D000C307552399F08091CA0796E08F5F863034
:1025E00009F480E0E82FF0E0E854F84F44854423F4
:1025F00011F0915099F78093CA072487809183073F
:102600008F3FC9F0809184078F3FA9F4109284070F
:1026100012C0823009F04DC0C32FCF7094E13695BF
:102620002795179507959A95D1F70F70013081F48A
:102630008C2F0E94D7118091810790918207892B5E
:1026400009F044C080E0CF911F910F910C94D711F5
:10265000023071F3033021F48C2F0E946E11EBCF06
:10266000043069F480918107909182070C2E02C09A
:10267000969587950A94E2F780FDEECFD9CF053085
:10268000D1F68C2F0E94D711C09383078FEF8093D0
:10269000840782ED94E00E94EB2BCDCF823009F0CD
:1026A000ADCF9927832F722F612F822F0E94930D18
:1026B000A5CF833009F0A2CF832F8770813071F7C7
:1026C0006FEF822F87700E94AB1198CFCF911F912F
:1026D0000F9108952F923F924F925F926F927F9247
:1026E0008F929F92AF92BF92CF92DF92EF92FF9222
:1026F0000F931F93CF93DF9300D000D000D00F92A1
:10270000CDB7DEB7382E4B0193E9A92E97E0B92E4D
:102710002FE0C22ED12CFC2CCA82C4010C2C02C08A
:10272000969587950A94E2F780FD25C021E0C21AAC
:10273000D10832E0A31AB1084FEFC416D40659F7F6
:1027400090E080E027960FB6F894DEBF0FBECDBFB5
:10275000DF91CF911F910F91FF90EF90DF90CF907D
:10276000BF90AF909F908F907F906F905F904F90B1
:102770003F902F90089580919407909195079F83A3
:102780008E8380919607909197074E815F814817BD
:10279000590778F48E819F810E94F008182F8E814E
:1027A0009F8101960E94F008912F212F2F7797FD8E
:1027B00005C0F50184A187FFB9CFC2CF381649F013
:1027C00082E0820F2E813F81280F311D3F832E83AF
:1027D000D8CF8E819F81009761F30E94F008EE812F
:1027E000FF813296FF83EE838F778F01080F111DD3
:1027F0008E819F8180179107E0F68E819F810E94D4
:10280000F008982F8F708F1531F12E813F812F5F47
:102810003F4F9295977091509330D8F4C9010E9420
:10282000F008982F9295969596959370282F27707B
:10283000920F9F5F8695869586958770980F2E815B
:102840003F812E5F3F4FA901490F511D5F834E838A
:10285000CFCF90E0F8CFEE81FF81309709F4A9CF78
:10286000CF010E94F008182F129517708CEF810F7E
:10287000823058F5109385071092860710928707CB
:10288000109288071092890710928A0710928B077E
:1028900010928C0710928D0710928E0710928F075E
:1028A0001092900710929107FFEFF093920780919A
:1028B0008507853009F43ACF843009F441CF882365
:1028C00009F434CF85E897E03DCF8E819F81019652
:1028D0000E94F008082FE82EE294E694E69483E044
:1028E000E822E3942E813F812E5F3F4F3F832E836A
:1028F0006E2DC9010E942111262E7B838C839D831E
:102900008EEF810F823008F03FC0802F869586952C
:10291000869587708983F12C682F8E819F818E0D1B
:102920009F1D0E9421112B013C01133089F5602F5E
:102930006770C7013981830F911D4E815F81840FBC
:10294000951F0E94211110938507209286075B81B5
:1029500050938707EC81E0938807FD81F093890706
:1029600040928A0750928B0760928C0770928D0775
:1029700060938E0770938F078093900790939107D1
:102980002A812093920793CF412C512C612C712CDA
:1029900060E070E080E090E0D6CF0F931F93CF937C
:1029A000DF93EC018B819C81860F911D9C838B832F
:1029B0008881982F9F79988391FD05C082FF03C07D
:1029C0008D7982628883888181FF05C082FD03C082
:1029D0008D79806488838091E8068F3F21F091E0B3
:1029E0002981281301C090E0888190FB83F98883B6
:1029F00028853985232BE1F480768032C9F4009153
:102A0000810710918207B80189810E946A13FC0135
:102A1000892B71F085858D831F830E83E081F0E023
:102A2000EE0FFF1FE25CFE4F8081918199878887BE
:102A3000E885F985309741F0CE010995882321F08A
:102A40001F821E8219861886DF91CF911F910F91E8
:102A500008951F93CF93DF9300D000D000D0CDB75F
:102A6000DEB78D839E83162FAD81BE8116966D9144
:102A70007C91179711968C910E946A13FC01892B07
:102A8000C1F0113001F581819281A381B4818983E4
:102A90009A83AB83BC83BC01CD010E94A1128981C2
:102AA0009A81AB81BC81ED81FE8182879387A48767
:102AB000B58726960FB6F894DEBF0FBECDBFDF9167
:102AC000CF911F910895123029F485819681A781B5
:102AD000B085DDCF81859285A385B485D8CFCF938E
:102AE000DF93EC018A8124E0829FC0011124682BCE
:102AF0006A831C821B826B3169F461E0CE010E9403
:102B0000291581E08E8741E06D818981DF91CF9128
:102B10000C946111673041F0673661F461E0CE01D9
:102B2000DF91CF910C94291562E0CE010E94291506
:102B300042E0EACF663629F0623059F0DF91CF915A
:102B4000089563E0CE010E94291581E08E8743E05D
:102B5000DBCFCE01DF91CF910C942112CF92DF9287
:102B6000EF92FF920F931F93CF93DF93EC01888135
:102B7000182F1295169513700A81EB80FC8081FB4B
:102B8000CC24C0F883FBDD24D0F8113061F406308A
:102B900029F461E088ECE816F10440F11A8261E062
:102BA000CE010E946F15013081F0093119F1063014
:102BB00061F11230B1F180E0DF91CF911F910F915F
:102BC000FF90EF90DF90CF900895CC2041F088ECFB
:102BD000E816F104A0F163E0CE010E946F151230F7
:102BE00051F788ECE816F104E0F462E0CE010E94AF
:102BF0006F15E1CFCC20B9F088ECE816F104D8F0DD
:102C000063E0CE010E946F15D4CFC110D2CF63E034
:102C100088ECE816F10468F2CE010E946F1581E09D
:102C2000CBCF1A8206C0123031F688ECE816F104D8
:102C3000C0F762E0F1CF123009F0BDCFFACFD1106A
:102C4000CACF123091F2B7CFCF93DF93EC018A81D4
:102C500024E0829FC0011124682B6A831C821B829E
:102C6000663069F461E0CE010E94291581E08E870B
:102C700041E06D818981DF91CF910C9461116730C2
:102C800041F0693161F461E0CE01DF91CF910C94A4
:102C9000291562E0CE010E94291542E0EACF623098
:102CA00019F0DF91CF910895CE01DF91CF910C946F
:102CB0002112CF92DF92EF92FF920F931F93CF9347
:102CC000DF93EC018881182F1295169513700A81F5
:102CD000CB80DC8081FBEE24E0F883FBFF24F0F85E
:102CE000113061F4063029F461E088ECC816D10493
:102CF00060F11A8261E0CE010E942416013059F081
:102D0000063039F5E11005C063E088ECC816D1043F
:102D100030F580E028C0EE2089F063E088ECC8162A
:102D2000D10498F4FF2021F063E0CE010E94241624
:102D3000123079F709C0093161F70FC0123049F735
:102D400088ECC816D10428F762E0CE010E94241650
:102D5000E0CF1230F1F6073071F71A8262E0CE014F
:102D60000E94241681E0DF91CF911F910F91FF9077
:102D7000EF90DF90CF900895CF93DF93EC0188819F
:102D8000829586958370813061F48A8361E0CE01FB
:102D90000E94291541E06D8189810E94611180E0C6
:102DA00007C08230E1F78A83CE010E94211281E0C0
:102DB000DF91CF9108958093E50608958093E6060C
:102DC0000895AF92BF92CF92DF92FF920F931F931D
:102DD000CF93DF930E945D0B5C010E94760BEC01A8
:102DE0000E948F0B8C010E94A80B6C01C5010496F8
:102DF0000E94F008F82E8093930710939507009394
:102E000094070C0D1D1D1093970700939607DF92F2
:102E1000CF921F928F9389E894E09F938F930E94A3
:102E2000D02B08E917E00F900F900F900F900F90A4
:102E30000F905801D12C80E090E0DF1448F4CE01CF
:102E40000E94F008C82ECE0101960E94F0089C2D29
:102E5000D5018D939D935D01D3942296B0E1DB1251
:102E6000EACF0E946910E8EBF7E088E0DF011D92ED
:102E70008A95E9F71092C0071092C1071092C20715
:102E80001092C3071092C4071092C5071092C6078C
:102E90001092C7071092C8071092C9071092CA076C
:102EA0004091930790E080E030E020E061E070E046
:102EB000841708F452C030938207209381078FEF64
:102EC00080938307809384078093E806109280079D
:102ED00010927F07E8EEF6E090E080E04FE03FEFF1
:102EE000489FD001499FB00D1124ED01C751D94F22
:102EF00028812E7F288332831382A851B94F1196DF
:102F00002C911197297F11962C9311971582148279
:102F100011962C911197277E11962C93368310864B
:102F200017821286118628812F79288313861486AA
:102F300015861686178601963F968A30910581F68A
:102F400081E08093E706DF91CF911F910F91FF9071
:102F5000DF90CF90BF90AF900895D801ED91FD9193
:102F60008D01F5FF09C0FB01082E02C0EE0FFF1F07
:102F70000A94E2F72E2B3F2B01969ACF8093E50619
:102F800008958093E60608958091E7068823D1F09E
:102F90008091C0079091C107892B9091C207892B1E
:102FA0009091C30791118D7F8093B80786E0E4EC80
:102FB000F7E0AAEBB7E001900D928A95E1F788EB74
:102FC00097E0089548E050E060E088EB97E00E94C9
:102FD000BF05F5CF8091E706882329F0809181070E
:102FE00090918207089590E080E008958091E7062F
:102FF000882359F080917F0790918007009739F0DE
:103000001092800710927F07089590E080E0089565
:10301000CF93DF93C82FD62F8091E706882309F43A
:1030200052C08C2F0E940111DC01DD2309F446C03F
:10303000892B79F530E020E09FE0929FF001939F8B
:10304000F00D1124DF01A751B94F8C912F5F3F4F35
:1030500080FD24C0DF01A751B94FE851F94FC28369
:103060001382158214828FEF868310861782128650
:10307000118681818078816081831386148615860C
:103080001686929FF001939FF00D1124E851F94F9D
:103090001082C093E8068C91846014C02A303105F8
:1030A00061F61F92CF938DEA94E09F938F930E94D5
:1030B000D02B0F900F900F900F9005C0892B19F017
:1030C0008C918B7F8C93DF91CF910895CF92DF927B
:1030D000EF92FF920F931F93CF93DF93182F80915E
:1030E000E706882309F49CC0C9EED6E06E01F12CF6
:1030F000E12C0FE00E9DF0010F9DF00D1124E75122
:10310000F94F808180FF0AC0F60191818091E80625
:10311000981721F0612FC6010E94CD14FFEFEF1A1E
:10312000FF0A8FE0C80ED11CEAE0EE16F10411F799
:1031300099EEC92E96E0D92EF12CE12C0FE00E9DD0
:10314000F0010F9DF00D1124E751F94F808180FFB0
:103150000AC0F60191818091E806981304C0612F9E
:10316000C6010E94CD14FFEFEF1AFF0A8FE0C80ED0
:10317000D11CEAE0EE16F10411F78FEF8093E80618
:10318000E8EEF6E030E020E09FE0929FD001939FD0
:10319000B00D1124A751B94F8C9180FF0BC081FD58
:1031A00009C041855285452B29F44785411102C04C
:1031B0008E7F8C932F5F3F4F3F962A30310529F742
:1031C0008FE7E82E87E0F82E888180FF0BC08E8580
:1031D000882341F0810F8E87833320F0CE010E9437
:1031E00021121E862F96EC16FD0671F7809183073B
:1031F0008F3FB1F08091840787FD12C0810F8093CB
:10320000840783336CF08BEC94E00E94EB2B80916D
:1032100083070E946E118FEF80938307809384074A
:10322000DF91CF911F910F91FF90EF90DF90CF90A2
:1032300008951092E70608950E94E40D81110C9400
:10324000E1160C941919CF93DF93D82FC62FE09174
:10325000DB07F091DC07309751F00190F081E02D11
:10326000309729F06C2F8D2FDF91CF910994D730B3
:1032700060F4ED2FF0E0EB5DF04D0C945E2981E001
:10328000C11101C080E080931901E091DB07F0914A
:10329000DC07309729F00280F381E02D309711F799
:1032A000DF91CF91089581E0C11101C080E080934A
:1032B0001801EBCF81E0C11101C080E080931701BC
:1032C000E4CF81E0C11101C080E080931601DDCF21
:1032D00081E0C13009F080E080931501D6CF8C2FBA
:1032E0000E94BE178EED94E0C23011F48AED94E096
:1032F0009F938F938CEE94E09F938F930E94D02B9B
:103300000F900F900F900F90C0CF8C2F0E94C1177D
:1033100087EE94E0C13011F481EE94E09F938F9397
:103320008FEF94E0E9CF813011F40C9419198230B9
:1033300049F08A3049F481E08093DD0784E195E02B
:103340000C94EB2B0C941C198B3009F008951092FF
:10335000DD078DE295E0F4CFCF93DF93C82FD62F12
:10336000E091CB07F091CC07309709F00995809157
:10337000F4079091F507009739F08C0F911DFC012F
:10338000C081CF3F09F43FC0DD2379F11F92CF9375
:1033900087E495E09F938F930E94D02B0F900F901E
:1033A0000F900F908C2F8093130180911801882328
:1033B00021F06D2F8C2F0E94F70FE091DB07F09129
:1033C000DC07309741F00680F781E02D309719F047
:1033D0006D2F8C2F09958091DD07811114C06D2F01
:1033E0008C2FDF91CF910C9408181F92CF9383E517
:1033F00095E09F938F930E94D02B0F900F900F908A
:103400000F908FEFD0CFDF91CF910895CF93DF93BF
:10341000D82FC92F6091D20770E0482F592F83ED24
:1034200097E00E94F20581110DC0E091D20781E082
:103430008E0F8093D207F0E0EE0FFF1FED52F84F92
:10344000D083C183DF91CF910895CF93DF93D82F9D
:10345000C92F6091CF0770E0482F592F80ED97E07A
:103460000E94F20581110DC0E091CF0781E08E0F1F
:103470008093CF07F0E0EE0FFF1FE053F84FD083AB
:10348000C183DF91CF9108959093CE078093CD07AC
:1034900008959093F5078093F40708959093DC07BF
:1034A0008093DB07089581E08093140108958EEEE8
:1034B00097E0089588EE97E00895CF93DF930E94F8
:1034C00022090E94550A83E299E10E94340C0E946D
:1034D000010D0E94E608EC0148E050E068E373E06B
:1034E0000E94490548E050E06AEF71E0CE0108967D
:1034F0000E944905CE0140960E941B100E941C1993
:1035000083E999E1DF91CF910C94470ECF93C0E00E
:103510008091D207C81710F0CF910895EC2FF0E0FA
:10352000EE0FFF1FED52F84F0190F081E02D309724
:1035300019F088EE97E00995CF5FEACF0F931F93BC
:10354000CF93DF93182FC0E06C2F8EEE97E00E9490
:10355000D905082F6C2F88EE97E00E94D905D82F47
:10356000011197C061E0811197C04D2F6C2F8EEE35
:1035700097E00E94C205CF5FC03331F7812F0E94D0
:1035800066180E94EA17EC010E94C4178C01809112
:10359000E6079091E707C817D90709F468C080913A
:1035A0001801882319F0CE010E940110E091DB0779
:1035B000F091DC07309739F00480F581E02D3097E9
:1035C00011F0CE010995D093E707C093E607D09399
:1035D0001001C0930F01C1E048E050E06EED77E0CC
:1035E000C8010E94A305811144C08091190188235C
:1035F00019F0C8010E94890848E050E0B8018EED3A
:1036000097E00E9449058DE595E09F938F930E9476
:10361000D02BCEEDD7E00F900F900DE811E08991FF
:103620001F928F931F930F930E94D02B0F900F9098
:103630000F900F9087E0C63ED80789F78AE695E09D
:103640009F938F930E94D02B8091E7078F93809157
:10365000E6078F938EE695E09F938F930E94D02B81
:103660000F900F900F900F900F900F9004C0C0E03C
:10367000B3CFC111C8CF0E94F617009789F02091EF
:103680001801222369F0DF91CF911F910F910C94C3
:103690000E1081116ACF60E08C2F0E94AC1965CFAB
:1036A000DF91CF911F910F91089580911701882389
:1036B00061F0EEEEF7E09191911105C097E0E43FE3
:1036C000F907C9F780E00C948F1C089580911701C9
:1036D000882361F0E8EEF7E09191911105C097E041
:1036E000EE3EF907C9F780E00C948F1C0895809195
:1036F0001601882351F081E00E94811C82E090E055
:103700000E94050680E00C94811C0895CF93C0E0D0
:103710008091CF07C81710F0CF910895EC2FF0E0FB
:10372000EE0FFF1FE053F84F0190F081E02D099557
:10373000CF5FEECFE091CD07F091CE07309709F043
:10374000099408950E94E9080E94620E0E94BF0D2C
:103750000C9423099093CC078093CB070895CF92C4
:10376000DF92EF92FF920F931F93CF93DF93C82EB8
:10377000D62E7A01122FD32FC0E08091FC07C817F4
:1037800030F1C0E08091FB07C81760F1C092FC07E0
:10379000D092FB07E092F907F092FA071093F7072F
:1037A000D093F8070093F607C0E08091FC07C81794
:1037B00020F1C0E08091FB07C81770F1DF91CF9135
:1037C0001F910F91FF90EF90DF90CF900895E091BF
:1037D000F907F091FA07EC0FF11D80810E946E0647
:1037E000CF5FCBCFE091F707F091F807EC0FF11D19
:1037F00080810E946E06CF5FC5CFE091F907F091FE
:10380000FA07EC0FF11DD0818D2F0E9445068D2FF8
:103810000E94E506CF5FC9CFE091F707F091F80766
:10382000EC0FF11D80810E946E06CF5FC3CFCF9257
:10383000DF92EF92FF920F931F93CF93DF93082FA6
:10384000F92ED0E0E12CDD24D3948091FC07D81729
:1038500048F0DF91CF911F910F91FF90EF90DF9093
:10386000CF900895E091F907F091FA07ED0FF11D5F
:10387000C0808C2D0E94E80681E090E00E94140632
:10388000C0E01E2D1C0F8091FB07C81730F08C2D57
:103890000E94E506DF5FE12ED8CFE091F707F091B7
:1038A000F807EC0FF11D80810E94A006482F4D25DE
:1038B0008091F607612F680F802F9F2D0E94C2050F
:1038C000CF5FDFCFCF93C42F80931B0160931A018A
:1038D0004093FD078F3F39F00E9445066C2F809181
:1038E0001B010E94890680911A018F3F41F00E94BE
:1038F00045066C2F80911A01CF910C948906CF91C7
:103900000895682F80911B018F3F41F09091FD0732
:10391000992311F091E069270C9489060895682F86
:1039200080911A018F3F41F09091FD07992311F08A
:1039300091E069270C948906089580911B018F3FBF
:1039400011F00C94BC06089580911A018F3F11F07C
:103950000C94BC06089541E065E180E00C94621C83
:10396000CF93DF93D82FC62F8CE30E94890980E084
:103970000E949B098D2F806B0E949B098C2F8F705A
:103980000E949B098C2F82958F7080610E949B09F9
:10399000DF91CF910C94A509CF93DF930E94240966
:1039A0008CE30E948909C8E8D5E0FE018591EF010A
:1039B0000E949B09F5E0CE39DF07B9F70E94A509FF
:1039C0001092FE0781EA8093FF0788EC809300083D
:1039D00043E050E06EEF77E08CE3DF91CF910C9401
:1039E0002E090F931F93CF93C0E060E08C2F0E94AD
:1039F000B01C8CE30E94890980E40E949B0900E8C6
:103A000010E080E00E949B0901501109D1F70E944B
:103A1000A509CF5FC43049F7CF911F910F91089549
:103A2000CF92DF92EF92FF920F931F93CF93DF938A
:103A30007C01D0E0C0E060E08C2F0E94B01C8CE3E1
:103A40000E94890980E40E949B0910E000E0670160
:103A5000CC0EDD1EF801EE0FFF1FEE0FFF1FEC0D69
:103A6000FD1D84910E949B090F5F1F4F00381105B7
:103A700089F70E94A5092196C430D105E1F6DF91AE
:103A8000CF911F910F91FF90EF90DF90CF9008950D
:103A900090936B0880936A08709369086093680834
:103AA000509367084093660808958F929F92AF9253
:103AB000BF92CF92DF92EF92FF92CF93DF93E2E03B
:103AC000F8E022E138E0812C912C54018394D90153
:103AD00090E080E04D914423C9F0ED0121971882D8
:103AE000408151816281738175016401082E04C097
:103AF000CC0CDD1CEE1CFF1C0A94D2F74C295D296E
:103B00006E297F29408351836283738301968531B7
:103B1000910501F734962B5E3F4F88E0E231F807BC
:103B2000B1F6DF91CF91FF90EF90DF90CF90BF90F3
:103B3000AF909F908F9008958F929F92AF92BF9277
:103B4000CF92DF92EF92FF920F931F93CF93DF9369
:103B5000942F252F641B35E1839FA00111244E5E15
:103B6000574F34E0839FF0011124EE5FF74FC12CD3
:103B7000D12C7601C394762F790FA92FB22F8D9176
:103B800081110DC0DF91CF911F910F91FF90EF90A8
:103B9000DF90CF90BF90AF909F908F900895EA01F3
:103BA000C70FD11D9881282F082E000C330B9217B8
:103BB0001306B1F088834601570104C0880C991C94
:103BC000AA1CBB1C7A95D2F7008111812281338116
:103BD000082919292A293B29008311832283338349
:103BE0009A2F2B2FC8CF7F928F929F92AF92BF9226
:103BF000CF92DF92EF92FF920F931F93CF93DF93B9
:103C000060916808709169088091660890916708D2
:103C1000680F791F80E890E00E9409295B0182E12A
:103C2000E82E88E0F82E92E0C92E98E0D92E712C6B
:103C3000D0E0C0E048C0F60180819181A281B381CB
:103C40000C2E04C0B695A795979587950A94D2F740
:103C500080FF38C0F701EC0FFD1F108160916808EC
:103C6000709169088091660890916708680F791FC4
:103C70006C9F602D1124872D0E94B01C8CE30E9444
:103C8000890980E40E949B09112309F458C0812FFF
:103C9000110F990B80972091680830916908829FD5
:103CA0008001839F100D929F100D1124912C812C67
:103CB0008091680890916908881699060CF442C0B2
:103CC0000E94A5092196CA15DB050CF4B4CFE5E1E5
:103CD000EE0EF11C7394F4E0CF0ED11C24E07212AE
:103CE000A7CF1092020810920308109204081092B5
:103CF0000508109206081092070810920808109202
:103D0000090810920A0810920B0810920C081092E1
:103D10000D0810920E0810920F08109210081092C1
:103D20001108DF91CF911F910F91FF90EF90DF90DD
:103D3000CF90BF90AF909F908F907F90089500E0BC
:103D400010E0B4CFE0916A08F0916B08E80DF91D1E
:103D5000E00FF11F84910E949B098FEF881A980A47
:103D6000A7CF9093210180932001089590931F0184
:103D700080931E0160931D0140931C0108950E94D1
:103D8000CC1C40911C0150E060911D0170E08091BD
:103D90001E0190911F010C94481D0F931F93CF9308
:103DA000DF9380916C0881110BC08091200190916C
:103DB00021010097A9F00E94101D80916C0806C097
:103DC00090911401911105C08C3340F48F5F809362
:103DD0006C08DF91CF911F910F9108958C3319F4E6
:103DE0000E94F11CEACF80911E0190911F01892B46
:103DF00081F34CE755E070E060E090E080E00E94E5
:103E00009C1DE0911101F091120187815DE2811109
:103E10005BE286814DE281114BE285813DE28111B9
:103E20003BE284812DE281112BE283819DE28111AD
:103E30009BE282818111A2C08DE21F925F931F924B
:103E40004F931F923F931F922F931F929F931F9206
:103E50008F9383E895E09F938F938EE698E09F93EE
:103E60008F930E94172C4EE658E06FE070E090E0D0
:103E700080E00E949C1D809113012DB73EB7205F0A
:103E80003F4F0FB6F8943EBF0FBE2DBF8F3F09F4D2
:103E900077C0E0911101F0911201DF0112969F01AC
:103EA000285F3F4F1D91111103C02A173B07D1F71F
:103EB00000811F928F9380E995E09F938F93CEE6C8
:103EC000D8E0DF93CF930E94172CAE0170E060E042
:103ED00083E090E00E949C1D1F921F9386E995E06D
:103EE0009F938F93DF93CF930E94172CAE0166E0D0
:103EF00070E083E090E00E949C1D1F920F938CE97C
:103F000095E09F938F93DF93CF930E94172CAE0180
:103F10006DE070E083E090E00E949C1D2DB73EB7FD
:103F20002E5E3F4F0FB6F8943EBF0FBE2DBF80915F
:103F30000F019091100199279F938F9382EB95E049
:103F40009F938F938EE698E09F938F930E94172CF8
:103F50004EE658E062E170E083E090E00E949C1D34
:103F60000E94F31D80916D088F5F80936D080F9004
:103F70000F900F900F900F900F902BCF8BE25DCF93
:103F800061EA75E08EE698E00E94C92B4EE658E0A3
:103F900070E060E083E090E00E949C1D67EA75E0BD
:103FA0008EE698E00E94C92B4EE658E066E070E08D
:103FB00083E090E00E949C1D6DEA75E08EE698E03B
:103FC0000E94C92B4EE658E06DE070E083E090E07F
:103FD0000E949C1DACCF0C94BE28CF93DF93D82FAA
:103FE000C62F872F0E94C1288D2F0E94C1288C2F99
:103FF000DF91CF910C94C128CF92DF92EF92FF9284
:104000000F931F93CF93DF9300D000D0CDB7DEB7CF
:10401000E62F582F242F30E0A72FB0E00E9464290C
:104020006B017C01CC242E2F30E0A42FB0E00E9445
:104030006429BB27A92F982F872FC82AD92AEA2AB3
:10404000FB2A242F30E0A52FB0E00E946429BB2773
:10405000A92F982F872FDC019927882797018601A0
:10406000082B192B2A2B3B2B09831A832B833C8388
:10407000C901B8010F900F900F900F90DF91CF9171
:104080001F910F91FF90EF90DF90CF900C94ED1F58
:10409000CF93DF9300D000D0CDB7DEB7E0917C089E
:1040A000ED3008F0E0E084E0E89FF0011124ED57E6
:1040B000F64F85919591A591B591BC01CD010F90D9
:1040C0000F900F900F90DF91CF9108952F923F9214
:1040D0004F925F926F927F928F929F92AF92BF9218
:1040E000CF92DF92EF92FF920F931F93CF93DF93C4
:1040F000CDB7DEB760970FB6F894DEBF0FBECDBF69
:104100008090770890907808A0907908B0907A080D
:10411000C501B40126E930E040E050E00E941D29CD
:1041200069837A838B839C830E949A2A20E030E003
:1041300046E153E469837A838B839C8369817A8126
:104140008B819C810E94F929F62E172F8F839D83E6
:104150000E9448204B015C014FEF84169406A40690
:10416000B10431F438E8832E99249A94A92CB12C07
:10417000340155244424442455247724BB27AB2DF3
:104180009A2D892D482A592A6A2A7B2A20E030E074
:1041900040E450E4F9821A836F816B837D817C83D4
:1041A00069817A818B819C810E944C2B8B0189874C
:1041B0009F8320E030E040E85FE369831A838B83CC
:1041C0009C8369817A818B819C810E94F42987FD7F
:1041D0002AC0FA2CE92CD82CCC24CC24FF24C501ED
:1041E000AA27BB27C82AD92AEA2AFB2A20E030E0DE
:1041F00040E050E469817A818B819C810E94F4299E
:1042000087FF78C020E030E040E85FE369817A8191
:104210008B819C810E9487298B0189879F83530111
:104220004201260137012091240130912501032EFE
:10423000000C440B550B60E070E081E090E00E94C0
:104240003F293E832D830E94230620E030E040E892
:1042500053E409831A8389858B839F819C836981B9
:104260007A818B819C810E944C2B69837A838B831A
:104270009C8369817A818B819C810E946B2AA3E057
:104280006A9F60011124EA2DF0E0F887EF83262C65
:10429000312C492D50E05A874987E52CF12C1982A1
:1042A000682D70E0788B6F87042D10E08980282DB1
:1042B00030E080912401909125012817390794F16D
:1042C00060960FB6F894DEBF0FBECDBFDF91CF91E1
:1042D0001F910F91FF90EF90DF90CF90BF90AF9024
:1042E0009F908F907F906F905F904F903F902F9016
:1042F0000C94210620E030E040E050E409831A836A
:1043000069856B837F817C8369817A818B819C81C4
:104310000E9487298B0189879F83240135014601EB
:10432000570181CF8D809E80289DC001299D900DD1
:10433000389D900D1124892F9927880F991F960178
:10434000281B390B2F3F310519F014F02FEF30E007
:1043500037FF02C020E030E04FEF50E0421B530B2C
:10436000AF80B8844A9D20014B9D500C5A9D500C43
:104370001124229DC001239D900D329D900D11248A
:10438000480E591E452C5524712C612C32015524A0
:10439000442489849A84489DC001499D900D589D6C
:1043A000900D11242E9DB0012F9D700D3E9D700D1E
:1043B0001124860F971F892F9927B0E0A0E0BA2F0C
:1043C000A92F982F882784299529A629B729AF8452
:1043D000B888A49EB001A59E700DB49E700D1124E6
:1043E000029FA001039F500D129F500D1124640FD6
:1043F000751F672F7727AB0170E060E04C015D010E
:10440000842A952AA62AB72A8B869C86AD86BE86E4
:1044100040917B08C501B4010E94FC1F49814F5F98
:10442000498344CFAF92BF92CF92DF92EF92FF9237
:104430000F931F93CF93DF9300D000D000D0CDB760
:10444000DEB70E944820F62EE72ED82EC92EA09067
:104450002401B09025019501220F331F3E832D8347
:104460008091770890917808A0917908B0917A08A6
:104470009C01AD01569547953795279529833A8339
:104480004B835C838D819E819C01990F440B550B5E
:1044900069817A818B819C810E941D2969837A833D
:1044A0008B839C8309811A81A016B10634F40D8197
:1044B0001E8129813A81021B130B0E9423061A8256
:1044C0001982809124019091250149815A814817D0
:1044D000590794F026960FB6F894DEBF0FBECDBFF5
:1044E000DF91CF911F910F91FF90EF90DF90CF90D0
:1044F000BF90AF900C94210640917B0889819A81EE
:104500008017910769F060E070E080E090E00E9421
:10451000FC1F29813A812F5F3F4F3A832983D1CFF6
:104520006F2D7E2D8D2D9C2DF2CFDF92EF92FF927D
:104530000F931F93CF93DF930E944820162F072FCE
:10454000F82EE92E209177083091780883E0220F29
:10455000331F8A95E1F73170213041E0340734F0A0
:1045600080E092E0AC01421B530B9A0140917B0822
:10457000429FC001439F900D1124D92E0E94230613
:10458000D0E0C0E08091240190912501C817D9079F
:104590004CF0DF91CF911F910F91FF90EF90DF9042
:1045A0000C9421064D2D612F702F8F2D9E2D0E9472
:1045B000FC1F2196E7CFEF92FF920F931F93CF93AB
:1045C000DF930E944820162F072FF82EE92E0E9415
:1045D0002306D0E0C0E08091240190912501C81706
:1045E000D90744F0DF91CF911F910F91FF90EF9089
:1045F0000C94210640917B08612F702F8F2D9E2DEA
:104600000E94FC1F2196E7CF873039F481E06111C9
:1046100001C080E080937D080895883019F460938C
:104620007C080895893041F4669FB001112481E02F
:10463000870F80937B0808958A3011F46093760881
:1046400008950F931F93CF93DF9300D000D000D035
:10465000CDB7DEB78091770890917808A09179085E
:10466000B0917A08BC01CD0124E130E040E050E097
:104670000E941D2969837A838B839C83672B682B17
:10468000692B09F048C00E9423061E821D820DEE90
:1046900015E180912401909125012D813E812817FB
:1046A000390764F026960FB6F894DEBF0FBECDBF73
:1046B000DF91CF911F910F910C942106209122013F
:1046C00030912301209FC001219F900D309F900DBC
:1046D0001124419690932301809322016DE00E9462
:1046E000FD28A4E09A9FF0011124ED57F64F859123
:1046F0009591A591B59189839A83AB83BC834091B1
:104700007B08BC01CD010E94FC1FAD81BE811196CA
:10471000BE83AD83BECF26960FB6F894DEBF0FBE24
:10472000CDBFDF91CF911F910F9108956CE088E08C
:104730000E94570C64E08AE00C94570C84E093E2EA
:104740000E94340C0C94EB1F8BE190E090932501B8
:10475000809324010895CF93DF9380917D08811188
:104760002AC00E942306D0E0C0E0809124019091ED
:104770002501C817D907C4F00E9421068091770847
:1047800090917808A0917908B0917A080196A11DBE
:10479000B11D8093770890937808A0937908B0931F
:1047A0007A08DF91CF91089560E070E0CB010E941C
:1047B000ED1F2196DACFE0917608E530F8F6F0E0CB
:1047C000EE0FFF1FE758F64F0590F491E02D099585
:1047D000D5CF52985A9A089520E032E099B1892FA6
:1047E000847092FF09C02F3F11F482E00895832F57
:1047F0008A95F1F72F5FF2CF32E02223B1F34A9985
:1048000007C08F3F91F3932F9A95F1F78F5FF7CF02
:10481000882359F3820F982F969581E0921730F3F1
:1048200080E00895EF92FF920F931F93CF93DF9351
:1048300080E022E04A990AC08F3F19F4E29AC0E072
:1048400029C0922F9A95F1F78F5FF4CF02E818E014
:10485000C0E0882399F387E0E82EF12CD0E00E9495
:10486000EC23823059F30E2C01C0880F0A94EAF72A
:10487000D82B81E0E81AF10890F7CF5FF801D193C7
:104880008F010E94EC238230C9F2813011F0C031D7
:1048900011F7E29A8C2FDF91CF911F910F91FF902A
:1048A000EF9008955A9A882341F080EA8A95F1F7AB
:1048B0005A9888E28A95F1F708958CE38A95F1F782
:1048C0005A988CE8F7CF9F92AF92BF92CF92DF9227
:1048D000EF92FF920F931F93CF93DF93529A5A9ABE
:1048E0005A9898EC292F2A95F1F79A95F1F7C82F45
:1048F000D0E010E000E07E0181E0E81AF108C01786
:10490000D10791F40E94E92388EC8A95F1F7E29AA5
:10491000DF91CF911F910F91FF90EF90DF90CF909B
:10492000BF90AF909F90089599249394E016F1065C
:1049300009F0912C87E0A82EB12CF801EE56F74F24
:104940006F01F601808190E00A2C02C09595879551
:104950000A94E2F781700E945224F1E0AF1AB10884
:1049600080F7892D0E9452240F5F1F4FC8CF0C94EF
:10497000E923CF93792FC62F462F50E0682F82E985
:1049800098E00E94B92BC0938108CF910895F894C4
:10499000809181080E9463240E94122480938008E1
:1049A00078940895CF93C09180086C1708F4C62FAF
:1049B0004C2F50E062E878E00E94B92B8C2FCF9109
:1049C000089590937F0880937E08E9E6F0E0808167
:1049D0008F7C80628083EA9A7894089510927F0891
:1049E00010927E08E9E6F0E080818F7C8083EA986F
:1049F00008951F920F920FB60F9211242F933F9399
:104A00004F935F936F937F938F939F93AF93BF93D6
:104A1000EF93FF930E9412248093800810928108E4
:104A2000E0917E08F0917F08309709F00995809118
:104A3000810881110E946324FF91EF91BF91AF9192
:104A40009F918F917F916F915F914F913F912F91A6
:104A50000F900FBE0F901F90189580EF8093F40871
:104A600061E084EF98E00C94B9248093F40861E04D
:104A700084EF98E00E94B9240E94C72464E080EF8C
:104A800098E00E94D224813021F49091F008903F68
:104A900009F080E081708093AC0808953091AD08F2
:104AA0003031C8F42091AF0894E0299FF00111241F
:104AB000E055F74F90E0B0E0A0E0962BA42B808368
:104AC0009183A283B3832F5F2F702093AF083F5F42
:104AD0003093AD08089587EB95E00C94EB2B462FAF
:104AE000682F80EC0C944E25CF93C82F809126011F
:104AF0008C1711F181E0C13009F080E08093A408A7
:104B000080EF95E0C13011F48AEE95E09F938F938A
:104B100085EF95E09F938F930E94D02BE091A208A0
:104B2000F091A3080F900F900F900F90309711F015
:104B30008C2F0995C0932601CF910895CF93DF93D1
:104B4000C82FD62F8EEF8C0F833020F089EF8C0F7B
:104B5000843060F44D2F6C2F81EC0E944E25C430C0
:104B600029F48D2FDF91CF910C947425DF91CF9193
:104B7000089564E080EF98E00E94D224813071F4BF
:104B80009091F008903A51F48093A50880EF8093BB
:104B9000F40861E084EF98E00C94B9240895CF9371
:104BA0008091AC08882301F18FE98093F40882E3B7
:104BB00090E00E941406C4E661E084EF98E00E9451
:104BC000B9240E94C72464E080EF98E00E94D224B8
:104BD000813021F48091F008803F31F084EF91E042
:104BE0000E941406C15041F7CF91089564E080EF10
:104BF00098E00E94D2248823C1F18091F0088F3977
:104C000061F48091AB08882371F081EF8093F40800
:104C100061E084EF98E00C94B9249FE6980F9430FB
:104C200020F48093AB080C942D258034D1F481E4DA
:104C30008093F4084091A60850E067EA78E085EF99
:104C400098E00E9449056091A6086F5FE2CF40910D
:104C5000F2086091F1080E944E2581E08093AA0835
:104C6000E2CF90E4980F923090F308959093A308C8
:104C70008093A2080895CF93DF93CDB7DEB728972E
:104C80000FB6F894DEBF0FBECDBF0E9425060E946E
:104C90005D1A0E944D080E94B72489EB95E20E949C
:104CA000E1240E942106C12CD12C7601E8EE8E2E43
:104CB000E3E09E2EA12CB12C0E94DF08898388237B
:104CC00009F4F4C080EA8093F40861E084EF98E08E
:104CD0000E94B9240E94C72480E00E94811C0E9487
:104CE000EE241F9289818F9385E096E09F938F93A6
:104CF0000E94D02B0F900F900F900F9099819923C5
:104D000009F4F9C0A4E0A98381E00E94811C82E03B
:104D100090E00E94050680E00E94811C84E690E0FD
:104D20000E940506B981B150B983B111EDCF84E07D
:104D30000E945B0D0E9474250E94E10D7C01F70129
:104D400061917F0189810E949E25F981FF5FF9832E
:104D5000FD30A9F78EE995E20E94340C8FE695E2CA
:104D60000E94AA1B84E090E0A0E0B0E089839A83CF
:104D7000AB83BC8350E3C52ED12CE12CF12C60EA2F
:104D8000862E6FE0962EA12CB12C78EE472E73E084
:104D9000572E612C712C89819A81AB81BC818370E3
:104DA0009927AA27BB270097A105B10509F030C1B3
:104DB00082E90E9435250E94861A8FE00E949E1A81
:104DC0000E94551B0E94CF2569817A818B819C812D
:104DD00028E230E040E050E00E941D29613071057A
:104DE0008105910559F483E90E94352569817A810D
:104DF0008B819C810E94861B0E94CF2569817A81CC
:104E00008B819C81A70196010E941D29623071054A
:104E10008105910559F484E90E94352569817A81DB
:104E20008B819C810E949A1B0E94CF2569817A8187
:104E30008B819C81A50194010E941D29633071051D
:104E40008105910559F48091AC08882339F081E9F6
:104E50000E9435250E94771B0E94CF2569817A81A7
:104E60008B819C81A30192010E941D296D837E8309
:104E70008F839887672B682B692B31F48091AC085E
:104E8000811102C00E949D1C0E94A21B84EF91E030
:104E90000E94140689819A81AB81BC810196A11D73
:104EA000B11D89839A83AB83BC8375CF8091A5089C
:104EB000811112CF0E94E908C701B601A501940132
:104EC0000E941D2969837A838B839C83672B682BBF
:104ED000692B39F4C114D104E104F10411F00E94EA
:104EE0009D1C81E090E00E9405062FEFC21AD20AB5
:104EF000E20AF20AE1CE81E00E94811C84EF91E097
:104F00000E94050680E00E94811C0E94EA080E941F
:104F1000531A86EF95E20E94E1248091AB08823912
:104F2000C1F40E94861A0E94661B0E945A1AAC01A4
:104F30008091A40808E128E1811101C020E060E02F
:104F400087EA98E00E94540593E09093A608109297
:104F5000AB088091AB08833939F460E070E0CB0195
:104F60000E94861B1092AB088091AB08843939F4FB
:104F700060E070E0CB010E949A1B1092AB08809118
:104F8000AB08813921F40E94771B1092AB08809105
:104F9000AA088823C1F13091AD08332391F1209103
:104FA000AE08A4E02A9FF0011124E055F74F80815C
:104FB0009181A281B38110821182128213822F5FAC
:104FC0002F702093AE0831503093AD080097A105A3
:104FD000B105B9F0282FC92EDA2EEB2EFF241C2D97
:104FE000BD01882799276983203C09F099C00E9458
:104FF000571A41E0B981B11101C040E06C2D0E9407
:10500000C2051092AA088AE090E00E94140685CF9B
:1050100081309105A105B10509F450C00297A105A1
:10502000B10509F0D1CE8091AC08882309F4CCCE2B
:10503000E091AE0824E0E29FF0011124E055F74F23
:105040002081318180819181A281B3810097A10566
:10505000B10509F4B9CE3093F5082093F408A09374
:10506000F60863E084EF98E00E94B9240E94C72408
:1050700064E080EF98E00E94D224813009F04DC0B6
:105080008091F008803F09F048C09091AD089923C5
:1050900009F49ACE8091AE08A4E08A9FF001112411
:1050A000E055F74F10821182128213828F5F8F704A
:1050B0008093AE0891509093AD0886CE8091AC0855
:1050C000882309F481CE90E49093F40861E084EFA2
:1050D00098E00E94B9240E94C72464E080EF98E021
:1050E0000E94D224A091A408AD83843089F48091D9
:1050F000F008813469F40E945A1ABD8108E120E069
:1051000041EF58E068E1B11160E00E9454055CCEC7
:1051100082E196E00E94EB2B57CE82E396E0FACF35
:10512000213C09F06ECF8C2D0E94610D0E94DF0D95
:10513000143009F066CF81E0E981E11180E00E943E
:1051400074255FCF0F93CF93C82F00E023E831E0A1
:1051500049E851E0882329F008E129E731E04FE7E9
:1051600051E066E084E00E94AF1B87E19CE10E9471
:10517000061A8C2FCF910F910C94A423539A5B980D
:10518000089598E0880F30F05B9A0000000000005E
:105190005B98000088F45B9A0000000000000000AB
:1051A0000000000000000000000000005B9800000C
:1051B0000000000000000000880F9A9521F7089574
:1051C0000E94AB1C0E94BF1E8DEC9EE10E94441AFF
:1051D0000E9496230E949E238BEA93E20E94251A46
:1051E00089E491E00E94491A82EA98E20E943626F8
:1051F0000E943B2690E080E00895991B79E004C06E
:10520000991F961708F0961B881F7A95C9F7809505
:10521000089597FB072E16F4009407D077FD09D068
:105220000E94732907FC05D03EF4909581959F4F0D
:105230000895709561957F4F0895A1E21A2EAA1BDB
:10524000BB1BFD010DC0AA1FBB1FEE1FFF1FA21736
:10525000B307E407F50720F0A21BB30BE40BF50B33
:10526000661F771F881F991F1A9469F760957095BC
:10527000809590959B01AC01BD01CF010895052E4D
:1052800097FB1EF400940E94562957FD07D00E94F8
:105290001D2907FC03D04EF40C94562950954095D7
:1052A000309521953F4F4F4F5F4F089590958095D2
:1052B000709561957F4F8F4F9F4F0895EE0FFF1FA1
:1052C0000590F491E02D0994A29FB001B39FC00115
:1052D000A39F700D811D1124911DB29F700D811D22
:1052E0001124911D0895AA1BBB1B51E107C0AA1FE1
:1052F000BB1FA617B70710F0A61BB70B881F991F77
:105300005A95A9F780959095BC01CD010895505804
:10531000BB27AA270E949F290C94122B0E94042BC2
:1053200038F00E940B2B20F039F49F3F19F426F43B
:105330000C94012B0EF4E095E7FB0C94FB2AE92F6B
:105340000E94232B58F3BA17620773078407950747
:1053500020F079F4A6F50C94452B0EF4E0950B2E75
:10536000BA2FA02D0B01B90190010C01CA01A001B7
:105370001124FF27591B99F0593F50F4503E68F112
:105380001A16F040A22F232F342F4427585FF3CF53
:10539000469537952795A795F0405395C9F77EF424
:1053A0001F16BA0B620B730B840BBAF09150A1F06D
:1053B000FF0FBB1F661F771F881FC2F70EC0BA0FF3
:1053C000621F731F841F48F4879577956795B7957B
:1053D000F7959E3F08F0B0CF9395880F08F0992776
:1053E000EE0F9795879508950E94D72A08F481E0DB
:1053F00008950E940D2A0C94122B0E940B2B58F03A
:105400000E94042B40F029F45F3F29F00C94FB2A02
:1054100051110C94462B0C94012B0E94232B68F302
:105420009923B1F3552391F3951B550BBB27AA275D
:1054300062177307840738F09F5F5F4F220F331F97
:10544000441FAA1FA9F335D00E2E3AF0E0E832D05F
:1054500091505040E695001CCAF72BD0FE2F29D062
:10546000660F771F881FBB1F261737074807AB0734
:10547000B0E809F0BB0B802DBF01FF2793585F4FA9
:105480003AF09E3F510578F00C94FB2A0C94462B81
:105490005F3FE4F3983ED4F3869577956795B7958B
:1054A000F7959F5FC9F7880F911D9695879597F996
:1054B0000895E1E0660F771F881FBB1F621773070F
:1054C0008407BA0720F0621B730B840BBA0BEE1F24
:1054D00088F7E09508950E942B2B88F09F5798F04D
:1054E000B92F9927B751B0F0E1F0660F771F881FE9
:1054F000991F1AF0BA95C9F714C0B13091F00E9403
:10550000452BB1E008950C94452B672F782F882701
:10551000B85F39F0B93FCCF3869577956795B39529
:10552000D9F73EF490958095709561957F4F8F4F98
:105530009F4F0895E89409C097FB3EF4909580959D
:10554000709561957F4F8F4F9F4F9923A9F0F92F49
:1055500096E9BB279395F695879577956795B795C7
:10556000F111F8CFFAF4BB0F11F460FF1BC06F5FAD
:105570007F4F8F4F9F4F16C0882311F096E911C0BF
:10558000772321F09EE8872F762F05C0662371F0E0
:1055900096E8862F70E060E02AF09A95660F771FF4
:1055A000881FDAF7880F9695879597F90895990FD0
:1055B0000008550FAA0BE0E8FEEF16161706E807DD
:1055C000F907C0F012161306E407F50798F0621BFE
:1055D000730B840B950B39F40A2661F0232B242BD3
:1055E000252B21F408950A2609F4A140A6958FEFF2
:1055F000811D811D089597F99F6780E870E060E044
:1056000008959FEF80EC089500240A94161617065B
:1056100018060906089500240A94121613061406A3
:1056200005060895092E0394000C11F4882352F006
:10563000BB0F40F4BF2B11F460FF04C06F5F7F4FBE
:105640008F4F9F4F089557FD9058440F551F59F0A5
:105650005F3F71F04795880F97FB991F61F09F3F5F
:1056600079F087950895121613061406551FF2CF88
:105670004695F1DF08C0161617061806991FF1CFD8
:1056800086957105610508940895E894BB276627FF
:105690007727CB0197F908950E945F2B0C94122B6A
:1056A0000E94042B38F00E940B2B20F0952311F060
:1056B0000C94FB2A0C94012B11240C94462B0E9471
:1056C000232B70F3959FC1F3950F50E0551F629FF8
:1056D000F001729FBB27F00DB11D639FAA27F00D4B
:1056E000B11DAA1F649F6627B00DA11D661F829F72
:1056F0002227B00DA11D621F739FB00DA11D621F57
:10570000839FA00D611D221F749F3327A00D611D73
:10571000231F849F600D211D822F762F6A2F112455
:105720009F5750409AF0F1F088234AF0EE0FFF1F88
:10573000BB1F661F771F881F91505040A9F79E3FDF
:10574000510580F00C94FB2A0C94462B5F3FE4F348
:10575000983ED4F3869577956795B795F795E79535
:105760009F5FC1F7FE2B880F911D9695879597F93E
:105770000895FB01DC0102C001900D9241505040A0
:10578000D8F70895DC0101C06D9341505040E0F717
:105790000895FB01DC0101900D920020E1F70895CE
:1057A000B0E0A0E0E6EDFBE20C94FC2EFE013596A5
:1057B00061917191AF018091FA089091FB080E946C
:1057C0003A2CE2E00C94182F6091FA087091FB08D3
:1057D0000E94232E08950F931F93CF93DF93E091A0
:1057E000FA08F091FB08238100E010E021FD0EC0D3
:1057F0000FEF1FEFC801DF91CF911F910F91089517
:105800000995892B11F00FEF1FEFCE01EC01899163
:105810006091FA087091FB08DB011896ED91FC91FC
:105820008111EECF8AE00995892B21F3E1CFAEE01B
:10583000B0E0EDE1FCE20C94FA2E0D891E8986E0C1
:105840008C831A8309838FEF9FE79E838D83AE013C
:10585000475E5F4F6F89788DCE0101960E943A2C8A
:105860002F813885020F131FF80110822E96E4E075
:105870000C94162FAFE0B0E0E0E4FCE20C94EC2EC8
:105880007C013B018A01DC0117961C921E9216973F
:1058900013968C9181FFBEC19AE0292EFE013196AC
:1058A0004F01D70113969C91F30193FD859193FFCE
:1058B00081913F01882309F444C1853239F493FD75
:1058C000859193FF81913F01853229F4B70190E0E2
:1058D0000E94232EE6CFB12C412C512CBFE1B515EF
:1058E00038F08B3209F188F4803201F1833221F1F2
:1058F00057FC3AC020ED280F2A3040F556FE1FC055
:10590000B29C200D1124B22E06C08D3291F080334E
:1059100079F7689450F8F30193FD859193FF819195
:105920003F018111DBCF20C0689451F8689452F890
:10593000F2CF689453F8EFCF689454F8ECCF429CC0
:10594000200D1124422E689455F8E5CF8E3229F4AB
:1059500056FCF7C0689456F8DECF8C3619F468947C
:1059600057F8D9CF8836B9F2982F9F7D9554933048
:10597000C0F0833681F18337A1F1833509F05BC034
:10598000D801CD90DD908D016B2D70E056FC02C0EA
:105990006FEF7FEFC6010E940D2E5C01689457F8EF
:1059A0000AC00C5F1F4FEFE3E983AA24A394B12C34
:1059B0006401E89457F853FE29C0342CA114B104B3
:1059C00051F5332009F46DCFB70180E290E00E94D9
:1059D000232E3A94F6CFD8018C9189830E5F1F4F06
:1059E000E4CFF801C190D1908F016B2D70E056FC8F
:1059F00002C06FEF7FEFC6010E94182E5C01D9CF65
:105A0000B70180E290E00E94232E4A944A141B04BE
:105A100009F0B0F7D2CFF60157FC859157FE81917E
:105A20006F01B70190E00E94232E31103A94B1E04B
:105A3000AB1AB108C3CF843619F0893609F071C0AA
:105A4000F80157FE67C061917191819191918F0129
:105A5000E52DEF76DE2E97FF09C090958095709525
:105A600061957F4F8F4F9F4F6894D7F82AE030E0C1
:105A7000A4010E94532EC82EC818AC2C5D2CD6FE53
:105A80000CC0E89450F8CB1440F4D4FE05C0D2FC0E
:105A900003C05D2D5E7E552EAB2C54FE93C0FE01DF
:105AA000EC0DF11D8081803309F085C0652D697E84
:105AB000562E752D7870372E53FC93C050FE8DC036
:105AC000BC2CA41410F4B40CBA1854FE90C0B70146
:105AD00080E390E00E94232E52FE07C088E751FC2D
