:100000000C94D2040C94EF040C94EF040C94370B72
:100010000C94EF040C94EF040C94EF040C94EF0494
:100020000C94EF040C94EF040C9429070C944D07E6
:100030000C94EF040C94EF040C94EF040C94EF0474
:100040000C94EF040C94EF040C94EF040C94EF0464
:100050000C94EF040C94EF040C94EF040C94EF0454
:100060000C94EF040C94EF040C94EF040C94EF0444
:100070000C94EF040C94EF040C94EF040C94EF0434
:100080000C94EF040C94EF040C94EF040C94EF0424
:100090000C94EF040C94EF040C94EF040C94EF0414
:1000A0000C94EF040C94EF040C94EF040001000096
:1000B000660212000200007C015B002200004A027E
:1000C0001C002100008E0109002201000A024000EC
:1000D000210100AE010900220200D70133002102F4
:1000E00000C7010900030000780104010309046648
:1000F0000110020309043401300303090400013232
:10010000320330003000300030003000300030006A
:10011000300030003000300030003000300030005F
:10012000300030003000300030003000300030004F
:100130003000000030034B00650072006D00690064
:100140007400650020004B006500790062006F00BC
:1001500061007200640020004400650076006900C0
:1001600063006500000010034B00650072006D0025
:1001700069007400650000000403090409025B00C3
:10018000030100C03209040000020300000009213D
:1001900011010001221C0007058103400002070530
:1001A00002034000080904010001030101000921C4
:1001B0001101000122400007058303080001090422
:1001C0000200010301020009211101000122330094
:1001D0000705840308000105010902A101050919A9
:1001E000012903150025019503750181029501750B
:1001F0000581030501093009311581257F750895B1
:10020000028106093895018106C005010906A10190
:1002100075019508050719E029E7150025018102F8
:1002200095017508810395057501050819012905D2
:10023000910295017503910395067508150026FF37
:10024000000507190029FF8100C006ABFF0A000264
:10025000A1017508150026FF00954009018102954E
:100260004009029102C0120100020000002055F076
:1002700077A5000101020301018B030400000002C5
:100280008D0305000000038F0306000000049103A6
:10029000070000000593030800000006950309000D
:1002A00000000797030A0000000899030B000000F4
:1002B000090C040C0000000A9B030D0000000B9DBC
:1002C000030E0000000C9F030F0000000DA103109F
:1002D0000000000EA303110000000FA50312000090
:1002E0000010A7031300000011A90314000000125E
:1002F000AB031500000013CE031600000014AD037D
:100300001700000015AF0318000000164B0219007B
:10031000000017B1031A00000018B3031B0000000F
:1003200019B5031C0000001AB7031D0000001BEDE7
:1003300003270200001CF1031E0200001DF5031F2D
:100340000200001ED703200200001FDA0321020072
:100350000020DD032202000021E00323020000222E
:10036000E3032402000023E6032502000024E9033E
:100370002602000025B9032900000026BD032C0039
:10038000000027C3032800000028C9032B00000039
:1003900029CD032A0000002AD0033A0000002BD305
:1003A000033B0000002CD6033C0000002DD9033D88
:1003B0000000002EDC033E0000002FDF033F0000A2
:1003C0000030E2034000000031E50341000000324C
:1003D000E8034200000033EB034300000034EF0366
:1003E0004400000035F3034500000057F803E10026
:1003F000000058FF03E0000000590504E20000007F
:100400005A0A04E30000009EF703E10000009FFE8B
:1004100003E0000000A00404E2000000A10904E3DE
:10042000000000A20E04E5000000A31504E4000093
:1004300000A41B04E6000000A52004E70000005B08
:1004400025044A0000005C2A044D0000005D2E04D3
:10045000490000005E35044C0000005F3C044B0086
:1004600000006043044E000000614A045000000098
:10047000624F044F000000634004520000006455C6
:1004800004510000006A5A04350000006B620488C1
:100490000000006D6C048A0000006C73048B000087
:1004A0000036790437023702377B043602360238C9
:1004B0007D041E011E01397F04380138013A810490
:1004C000330134023B8304330233023C85042D01A3
:1004D00087013D87042E0133013EF5012D022D02D7
:1004E0003F890425013401408B0438023802418DD4
:1004F000042E022D01428F04240123014391043173
:1005000001890144930423012E0245950435012EEF
:10051000014697041F012F0247990420012001483A
:100520009B0421012101499D04310289024AA00452
:10053000220122014BA204310287024CA40434029E
:1005400024014DA60434011F014EA80435022F01D9
:100550004FAA042601250150AC042701260151AE03
:10056000042F02300252B0043002310253AE042F85
:1005700001300154B0043001310155B20436013666
:100580000156B4043701370100AEA81FD30040A1C3
:10059000C8DA02813FA4A6D5808D142002AF0000E6
:1005A00000000000005E00000006000600247E241B
:1005B0007E24002E7A2F3A00661668660036494976
:1005C00036000600000000003E41000000413E00F1
:1005D000082A1C2A0808083E0808004020000000DD
:1005E00008080808000020000000300C0300007F0D
:1005F00041417F0000417F40007949494F0049490E
:10060000497F000F08087F004F494979007F494919
:10061000790001710907007F49497F004F49497FEF
:100620000000240000000040240000081422000004
:100630001414141400002214080002015906007F4B
:100640005D557D007F11117F007F49497E007F410C
:100650004141007F41413E007F494949007F0909EE
:1006600009007F414979007F08087F00417F4100F0
:10067000004040413F007F083641007F4040407FBE
:10068000017F017F7F031C607F007F41417F007FEE
:1006900009090F007F41215F007F19294F004F4951
:1006A000497901017F0101007F40407F007F4020A8
:1006B0001F7F407F407F00631C1C6303047804039A
:1006C0000061514D4300007F410000030C304000A9
:1006D00000417F00000402040000202020200004CC
:1006E000020000007454547C007F44447C007C442D
:1006F0004444007C44447F007C54545C00047F05E7
:100700000000BCA4A4FC007F04047C0000007D0069
:10071000000080FD00007F10284400007F40007C26
:10072000047C047C007C04047C007C44447C00FC4D
:1007300024243C003C2424FC00007C0404005C5481
:10074000547400047F4400007C40407C007C4020C6
:100750001C7C407C407C0044383844009CA0403CD9
:10076000004464544C000402000000087F41000073
:1007700000007F000000417F080000000000000032
:1007800000000000000000000080FFFF0780FFFF66
:100790000780FFFF0780FFFF070000070000800FB2
:1007A0000000C01F0000F03F0000F87F0000FCFCCC
:1007B00000007EF801803FE003800FC007800780C3
:1007C000078003000780010006000000040000000D
:1007D000000000000080FFFF0780FFFF0780FFFF91
:1007E0000780FFFF078087870780878707808787C5
:1007F00007808787078087870780878707808787A5
:10080000078087870780878707808787078007801B
:1008100007000000000000000000000000000000D1
:100820000080FFFF0780FFFF0780FFFF0780FFFFBB
:100830000780071E0080071E0080071E0080071E1D
:100840000080077E008007FE00800FFF01809FFF71
:100850000700FFEF0700FF8F0700FE070700F80102
:100860000600000000000000000000000080FFFF04
:100870000700FFFF0700FEFF0700F8FF0700F00377
:100880000000E0070000C00F0000801F0000007F94
:10089000000000FC000000FC0000007F0000801F42
:1008A0000000C00F0000E0070000F0030000F8FFA8
:1008B0000700FEFF0700FFFF0780FFFF07000000A3
:1008C0000000000000000000000000000000000028
:1008D0000080FFFF0780FFFF0780FFFF0780FFFF0B
:1008E000070000000000000000000000008007007A
:1008F00000800700008007000080070000800700DC
:10090000008007000080FFFF0780FFFF0780FFFFD8
:100910000780FFFF078007000080070000800700B6
:100920000080070000800700008007000000000032
:100930000080FFFF0780FFFF0780FFFF0780FFFFAA
:100940000780878707808787078087870780878753
:100950000780878707808787078087870780878743
:100960000780878707808787078007800700000048
:10097000000000000000000000FFFFFFFFFFFFFF7E
:10098000FFFFFFFFFFFFFFFFFFFFFFFFFF02FFFF74
:10099000FFFFFFFFFFFFFFFFFFFFFFFFFFFFFFFF67
:1009A000FFFF030011241FBECFEFDAE0DEBFCDBF93
:1009B00016E0A0E0B1E0E2E0FCE502C005900D9297
:1009C000A230B107D9F729E0A2E0B6E001C01D923C
:1009D000A13DB207E1F70E94AB270C94F82D0C94CF
:1009E0000000EF92FF920F931F93CF93DF93EC01E0
:1009F0008C01060F171F8EECE82E81E0F82EC01731
:100A0000D10751F48AE090E0DF91CF911F910F91CF
:100A1000FF90EF900C94B92A89911F928F93FF92C7
:100A2000EF920E94A52A0F900F900F900F90E7CFA2
:100A3000EF92FF920F931F93CF93DF93EC018C0102
:100A4000060F171F84EDE82E81E0F82EC017D1079E
:100A500051F48AE090E0DF91CF911F910F91FF90C8
:100A6000EF900C94B92A89911F928F93FF92EF9285
:100A70000E94A52A0F900F900F900F90E7CFFB01D7
:100A8000DC01460F571FE417F50709F4089581911B
:100A90008D93F9CFAF92BF92CF92DF92EF92FF92F8
:100AA0000F931F93CF93DF93DC01162FEA0190E0A1
:100AB00061E070E090130BC0DF91CF911F910F9117
:100AC000FF90EF90DF90CF90BF90AF900895892F67
:100AD000810F382F3695369536957D01E30EF11C42
:100AE000F701308187705B0101C0AA0C8A95EAF793
:100AF000892F820F482F4695469546954C0F5D2FBE
:100B0000511DFA01408150E087706B0102C0CC0C8E
:100B1000DD1C8A95E2F74C215D21832F8A29452B24
:100B200021F4EA2DE0958E2F8323F70180839F5FC8
:100B3000C1CFFC01DB01480F591FE417F50711F481
:100B400081E0089591918D919817B9F380E008950F
:100B5000FB01DC01460F571FE417F50709F4089560
:100B6000819190E08D939D93F7CF70E00C94972A3C
:100B7000262F269526952695FC01E20FF11D9081E2
:100B8000677021E030E001C0220F6A95EAF7442344
:100B900019F0922B9083089520959223FBCF262F56
:100BA000269526952695820F911DFC01208130E027
:100BB000677081E090E002C0880F991F6A95E2F7A4
:100BC0002823392381E0121613060CF080E00895E3
:100BD0009C0190E080E08217930709F40895EFE903
:100BE000FFE03197F1F700C000000196F4CF9C01BF
:100BF00090E080E08217930709F4089545E04A9554
:100C0000F1F700000196F6CF78940895F8940895CE
:100C10001092D8000895E82FE695E695E69593E0C2
:100C2000E99FF001112435A1282F277081E090E081
:100C300001C0880F2A95EAF78095832385A308953C
:100C4000E82FE695E695E69593E0E99FF0011124FB
:100C500094A1877021E030E001C0220F8A95EAF765
:100C6000892F822B84A30895E82FE695E695E695D3
:100C700093E0E99FF001112434A1282F277081E02F
:100C800090E001C0880F2A95EAF78095832384A31A
:100C90000895E82FE695E695E69563E0E69FF00176
:100CA000112444A1877021E030E0B90102C0660F31
:100CB000771F8A95E2F7CB01962F9095942394A302
:100CC00095A1892B85A30895662399F0E82FE695D1
:100CD000E695E69593E0E99FF001112495A18770D0
:100CE00021E030E001C0220F8A95EAF7922B95A30C
:100CF00008950C940B06E82FE695E695E695EF5FD0
:100D000093E0E99FF001112490A1877021E030E089
:100D100002C0220F331F8A95E2F7892F90E0282323
:100D2000392381E0121613060CF080E00895E82FB5
:100D3000E695E695E69593E0E99FF001112495A1EB
:100D4000877021E030E001C0220F8A95EAF7892FF1
:100D5000822785A3089586958695869523E0829FB0
:100D6000C0011124859608958695869586958F5F96
:100D700023E0829FC0011124809608958770089512
:100D800061E00C9464060C940B06E82FE695E6955A
:100D9000E695EF5F93E0E99FF001112490A1877041
:100DA00021E030E001C0220F8A95EAF7892F822BDB
:100DB00080A30895CF93C42F809301016093000115
:100DC000409302068F3F39F00E9420066C2F8091DD
:100DD00001010E946406809100018F3F41F00E9452
:100DE00020066C2F80910001CF910C946406CF9166
:100DF0000895682F809101018F3F41F09091020684
:100E0000992311F091E069270C9464060895682FE6
:100E1000809100018F3F41F090910206992311F0DB
:100E200091E069270C9464060895809101018F3F39
:100E300011F00C9497060895809100018F3F11F0F6
:100E40000C949706089541E065E180E00C94DA0681
:100E500008951F921FB61F9211248F939F93809124
:100E6000E1001092E10083FF0FC01092E90091E0D1
:100E70009093EB001092EC0092E29093ED0098E0DA
:100E80009093F0001092040682FD809104069F91D9
:100E90008F911F901FBE1F9018951F920F920FB633
:100EA0000F9211240F931F932F933F934F935F93B0
:100EB0006F937F938F939F93AF93BF93CF93DF9362
:100EC000EF93FF931092E9008091E80083FF59C0EF
:100ED0002091F1009091F1004091F1008091F1009A
:100EE000582F6091F1008091F100782F8091F100EE
:100EF000C091F10032EF3093E800963009F07AC0EB
:100F00002CEA30E0A0E0B1E0F9010591149140171E
:100F1000510789F5F901329605911491601771070F
:100F200051F5F9013496659174912A5F3F4FF901AB
:100F300024919C2F8F3F910519F010F08FEF90E0D6
:100F4000281708F4822F22E031E0DEEF9091E800CC
:100F5000E92FE570D9F392FD2EC0982F813208F069
:100F600090E243305407E1F1FB01A92FA1113CC0ED
:100F7000690F711D18C0295F3F4FA217B30709F011
:100F8000C3CF81E28093EB0016C08E2FDFCFEB2F13
:100F9000FC2FB191B093F100A150BE2FCF2FA11122
:100FA000F6CF290F311DE82FE91BD093E8008913F4
:100FB000ECCF803251F3FF91EF91DF91CF91BF9150
:100FC000AF919F918F917F916F915F914F913F91E1
:100FD0002F911F910F910F900FBE0F901F9018959A
:100FE000B22FC32FA92FDBCFB491B093F100A15042
:100FF0003196BCCF953059F48EEF8093E800809104
:10100000E80080FFFCCF40684093E300D4CF9930E4
:10101000C9F5211137C0409304068EEF8093E80094
:1010200081E08093E9008093EB0091EC9093EC00D9
:1010300026E32093ED0032E03093E9008093EB004B
:1010400030EC3093EC002093ED0023E02093E90096
:101050008093EB009093EC0026E02093ED0034E0C9
:101060003093E9008093EB009093EC002093ED0027
:1010700088ED91E00E94C02A8EE18093EA001092F0
:10108000EA0099CF6115710539F4213209F079CF61
:101090009A3009F076CF15C061307105B1F4213274
:1010A00009F06FCF9930A1F78091E80082FFFCCF63
:1010B0008091F10080930306809103068BEF80936B
:1010C000E8008EEF8093E80076CF62307105E9F298
:1010D00058CF80E8809361001092610081E0809396
:1010E000D70080EA8093D80082E189BD09B400FE70
:1010F000FDCF80E98093D8001092E00010920406A2
:101100008CE08093E200089590910406911102C052
:1011100080E0089593E09093E9009091E80095FFB6
:10112000F7CFF8948093F1001092F100FB01CB010E
:10113000069621912093F100E817F907D1F78AE389
:101140008093E800789481E00895209104062111AD
:1011500002C080E0089523E02093E9002091E80098
:1011600025FFF7CFF894FC01089621912093F10018
:10117000E817F907D1F78AE38093E800789481E0D3
:10118000089520910406211102C080E0089521E015
:101190002093E9002091E80025FFF7CFF894FC01A7
:1011A000805C9F4F21912093F100E817F907D1F758
:1011B0008AE38093E800789481E008952091040602
:1011C000211102C080E0089522E02093E9002091DF
:1011D000E80025FFF7CFF894FC01805C9F4F209139
:1011E000F1002193E817F907D1F78BE68093E80027
:1011F000789481E008959091040681E0911101C0F6
:1012000080E00895792F693108F068E1462F50E0B9
:10121000682F84E091E00C94A805089580E094E0A4
:101220000895F999FECF0C94962DF999FECF0C9460
:10123000AE2DF999FECF0C949E2DF999FECF0C940A
:10124000BC2D382F292FCB01F999FECF632F722F98
:101250000C94862D382F292FCB01F999FECF632FBF
:10126000722F0C94A42DCF93DF93D0E0C0E060E008
:10127000CE010E9415092196C11584E0D807B9F75F
:10128000DF91CF910895CF93C82F809105068823D1
:1012900059F0CA3019F48DE00E9443098091C800CA
:1012A00085FFFCCFC093CE00CF910895CF93DF93FD
:1012B00000D000D0CDB7DEB769837A838B839C835F
:1012C00060E472E48FE090E029813A814B815C8197
:1012D0000E940128215031093093CD002093CC0089
:1012E000EAECF0E08081817F8660808380818F7C62
:1012F00080838081877F8083E9ECF0E08081886053
:10130000808386E391E09093CE098093CD0981E0BC
:10131000809305068EEE91E00F900F900F900F9046
:10132000DF91CF910C94C02AE9ECF0E08081877FB7
:10133000808386E391E09093CE098093CD0910924B
:10134000050608955198599A5098589A1092B900E4
:101350008CE08093B80008959A0194EA9093BC00C1
:101360009091BC0097FFFCCF880F8093BB0084E86E
:101370008093BC008091BC0087FFFCCFFB0190E014
:1013800080E044E88217930724F084E98093BC004E
:10139000089551915093BB004093BC005091BC0004
:1013A00057FFFCCF0196EECF9A0194EA9093BC00D0
:1013B0009091BC0097FFFCCF880F81608093BB00A9
:1013C00084E88093BC008091BC0087FFFCCFFB01C8
:1013D00090E080E0A9014150510964E874EC821763
:1013E000930724F084E98093BC000895841795073F
:1013F0005CF47093BC00A091BC00A7FFFCCFA0914F
:10140000BB00A1930196EBCF6093BC00F4CF94EAAC
:101410009093BC009091BC0097FFFCCF880F809305
:10142000BB0084E88093BC008091BC0087FFFCCFA8
:1014300008958093BB0084E88093BC008091BC0039
:1014400087FFFCCF089584E98093BC0008955298EB
:101450005A9A089520E032E099B1892F847092FF62
:1014600009C02F3F11F482E00895832F8A95F1F788
:101470002F5FF2CF32E02223B1F34A9907C08F3FAA
:1014800091F3932F9A95F1F78F5FF7CF882359F354
:10149000820F982F969581E0921730F380E008959F
:1014A000EF92FF920F931F93CF93DF9380E022E0A0
:1014B0004A990AC08F3F19F4E29AC0E029C0922FDE
:1014C0009A95F1F78F5FF4CF0AE016E0C0E0882329
:1014D00099F387E0E82EF12CD0E00E942A0A8230AE
:1014E00059F30E2C01C0880F0A94EAF7D82B81E03B
:1014F000E81AF10890F7CF5FF801D1938F010E94AD
:101500002A0A8230C9F2813011F0C03111F7E29A13
:101510008C2FDF91CF911F910F91FF90EF90089545
:101520005A9A882341F080EA8A95F1F75A9888E21E
:101530008A95F1F708958CE38A95F1F75A988CE82B
:10154000F7CF9F92AF92BF92CF92DF92EF92FF922E
:101550000F931F93CF93DF93529A5A9A5A9898EC0D
:10156000292F2A95F1F79A95F1F7C82FD0E010E0CE
:1015700000E07E0181E0E81AF108C017D10791F47C
:101580000E94270A88EC8A95F1F7E29ADF91CF91C1
:101590001F910F91FF90EF90DF90CF90BF90AF9091
:1015A0009F90089599249394E016F10609F0912CE8
:1015B00087E0A82EB12CF801E65EF94F6F01F60125
:1015C000808190E00A2C02C0959587950A94E2F7F5
:1015D00081700E94900AF1E0AF1AB10880F7892D5E
:1015E0000E94900A0F5F1F4FC8CF0C94270ACF9319
:1015F000792FC62F462F50E0682F8AE196E00E948F
:101600008E2AC0930906CF910895F8948091090617
:101610000E94A10A0E94500A8093080678940895B7
:10162000CF93C09108066C1708F4C62F4C2F50E0DA
:101630006AE076E00E948E2A8C2FCF9108959093D5
:10164000070680930606E9E6F0E080818F7C8062E1
:101650008083EA9A789408951092070610920606FD
:10166000E9E6F0E080818F7C8083EA9808951F92FC
:101670000F920FB60F9211242F933F934F935F93C6
:101680006F937F938F939F93AF93BF93EF93FF934A
:101690000E94500A8093080610920906E0910606FF
:1016A000F0910706309709F009958091090681119C
:1016B0000E94A10AFF91EF91BF91AF919F918F91ED
:1016C0007F916F915F914F913F912F910F900FBE3E
:1016D0000F901F9018950C948927CF93DF93D82FE4
:1016E000C62F872F0E948C278D2F0E948C278C2F2E
:1016F000DF91CF910C948C27CF92DF92EF92FF92E3
:101700000F931F93CF93DF9300D000D0CDB7DEB7F8
:10171000E62F582F242F30E0A72FB0E00E94292871
:101720006B017C01CC242E2F30E0A42FB0E00E946E
:101730002928BB27A92F982F872FC82AD92AEA2A18
:10174000FB2A242F30E0A52FB0E00E942928BB27D8
:10175000A92F982F872FDC019927882797018601C9
:10176000082B192B2A2B3B2B09831A832B833C83B1
:10177000C901B8010F900F900F900F90DF91CF919A
:101780001F910F91FF90EF90DF90CF900C946D0B15
:101790008F929F92AF92BF92CF92DF92EF92FF9281
:1017A0000F931F93CF93DF935C01EB016A017901E3
:1017B0004801CC15DD0510F5CE010E9419098C01F8
:1017C000CE0102960E9419099C010A151B05A1F47D
:1017D0002496F701D183C083F40131832083DF9104
:1017E000CF911F910F91FF90EF90DF90CF90BF901E
:1017F000AF909F908F900895892B29F4D0E0C0E09E
:1018000030E020E0E6CF2C5F3F4FC20FD31FD1CF97
:10181000EF92FF920F931F93CF93DF93D82FC92F8F
:101820007B018A010E940E09AC01970162E070E021
:101830008D2F9C2F0E94C80BDF91CF911F910F918C
:10184000FF90EF900895CF93DF9300D000D0CDB7F5
:10185000DEB7AE014F5F5F4FBE016D5F7F4F0E94ED
:10186000080C8B819C810F900F900F900F90DF914F
:10187000CF910895CF92DF92EF92FF920F931F9333
:10188000CF93DF9300D000D0CDB7DEB76C017B01E2
:101890008A01AE014F5F5F4FBE016D5F7F4F80E7F2
:1018A0009AEA0E94080C6B817C8161157105A9F090
:1018B00049815A81460F571F9701C6010E94C80BE4
:1018C0000F900F900F900F90DF91CF911F910F917C
:1018D000FF90EF90DF90CF900895F7011182108272
:1018E000F80111821082ECCFAF92BF92CF92DF92BB
:1018F000EF92FF920F931F93CF93DF9300D000D00E
:10190000CDB7DEB787EF91E00E94C02A90E080E07B
:101910000E9419098E37934A09F044C0AE014F5F07
:101920005F4FBE016D5F7F4F80E19AEA0E94080C15
:10193000E980FA80AE014F5F5F4FBE016D5F7F4F60
:1019400080E29AEA0E94080CA980BA80AE014F5F3B
:101950005F4FBE016D5F7F4F80E39AEA0E94080CE3
:10196000C980DA80AE014F5F5F4FBE016D5F7F4F70
:1019700080E49AEA0E94080C09811A8180E79AEAB9
:101980000E94230C9C0182E1A816B10459F48DE059
:10199000C816D10439F40E291F29012B19F4232B61
:1019A00009F04AC081E292E00E94C02A0E943309F5
:1019B0006EE773EA90E080E00E941D0960E27AEA37
:1019C00082E090E00E941D0962E170E084E090E016
:1019D0000E941D0960E37AEA88E190E00E941D09F7
:1019E0006DE070E08AE190E00E941D0960E77AEA0C
:1019F00089E290E00E941D0970E060E08BE290E0D7
:101A00000E941D0980E29AEA0E94230C0097D9F1F6
:101A100048E050E064E472E00F900F900F900F9058
:101A2000DF91CF911F910F91FF90EF90DF90CF90BA
:101A3000BF90AF900C942A0980E29AEA0E94230C8E
:101A400048E050E06AE276E00E94210948E050E078
:101A500064E472E08AE296E00E949905882309F422
:101A6000A1CF8EE092E00F900F900F900F90DF913A
:101A7000CF911F910F91FF90EF90DF90CF90BF908B
:101A8000AF900C94C02A0F900F900F900F90DF91A1
:101A9000CF911F910F91FF90EF90DF90CF90BF906B
:101AA000AF900895CF93DF9380E79AEA0E94230CCA
:101AB000EC01892B31F00E940E099C012C1B3D0B7F
:101AC000E901CE01DF91CF91089580E29AEA0E9468
:101AD000230C0896089580E29AEA0E94230C40960F
:101AE000089580E39AEA0C94230C8DE090E0089529
:101AF00080E79AEA0C94230CCF93DF9300D000D0B8
:101B0000CDB7DEB7AE014F5F5F4FBE016D5F7F4F58
:101B100081E79BEB0E943A0C8B819C810F900F9088
:101B20000F900F90DF91CF910895CF93DF9300D066
:101B300000D0CDB7DEB7AE014F5F5F4FBE016D5F26
:101B40007F4F84E79BEB0E943A0C8B819C810F9026
:101B50000F900F900F90DF91CF910895CF93DF9367
:101B600000D000D0CDB7DEB7AE014F5F5F4FBE01F2
:101B70006D5F7F4F88E79BEB0E943A0C8B819C81C5
:101B80000F900F900F900F90DF91CF910895CF930A
:101B9000DF9300D000D0CDB7DEB7AE014F5F5F4F0F
:101BA000BE016D5F7F4F88E79BEB0E943A0C8981F5
:101BB0009A810F900F900F900F90DF91CF91089521
:101BC000CF93DF9300D000D0CDB7DEB7AE014F5F2B
:101BD0005F4FBE016D5F7F4F86E79BEB0E943A0C23
:101BE0008B819C810F900F900F900F90DF91CF9180
:101BF0000895EF92FF920F931F93CF93DF93182FC7
:101C0000062F86E3E82E86E0F82ED0E0C0E0809133
:101C1000340690913506C817D9073CF0DF91CF9173
:101C20001F910F91FF90EF900895D701ED91FD91D5
:101C30007D01602F812F09952196E9CF20913406EF
:101C400030913506A9014F5F5F4F509335064093A1
:101C50003406220F331FF901EA5CF94F9183808328
:101C60000895E82FF0E0EC5BFE4F60830895853027
:101C700011F4613040F0E82FF0E0EC5BFE4F81E0C2
:101C80009081961708F480E081700895DF92EF92BA
:101C9000FF920F931F93CF93DF9300E416E0D0E001
:101CA000C0E08DE4E82E82E0F82EF801D1908F019B
:101CB0006D2D8C2F0E94370E811119C0FE01E45842
:101CC000FE4F8081F801319780831F928F931F927E
:101CD000DF92DF93CF93FF92EF920E94A52AEDB798
:101CE000FEB738960FB6F894FEBF0FBEEDBF219633
:101CF000CD30D105D1F6DF91CF911F910F91FF909B
:101D0000EF90DF900895CF93DF93C82FD62F0E94D6
:101D1000370E882379F0EC2FF0E0E05CF94FD083A8
:101D20006D2F8C2F0E94F90D88EB9BE09093520150
:101D300080935101DF91CF910895CF93C82F282F21
:101D400030E0F901EC5BFE4F9081205C394FD90106
:101D5000EC91F0E09F01260F371F442389F0692F93
:101D600070E06F5F7F4FCB01820F931F0E94ED27C2
:101D70008E179F0789F0682F8C2FCF910C94830EBC
:101D800037FD07C0892F90E0281739078CF7C90164
:101D9000EFCF90E080E0ECCFCF9108950F931F93A9
:101DA000CF93DF930E94710D90933F0680933E0680
:101DB000892B99F10E946B0DEC010097B1F00E9404
:101DC0001109811112C04DE050E06CE771E0809183
:101DD0003E0690913F060E942A0961E0CE010E94D2
:101DE000150989E792E00E94C02A4DE050E060E4C6
:101DF00076E080913E0690913F060E9421090E9464
:101E0000460E00E416E0C0E0F80161918F018C2FCE
:101E10000E94F90DCF5FCD30B9F7DF91CF911F91BF
:101E20000F910895462F50E060E476E00C943F0552
:101E3000462F50E064E471E00C943F050C94830E4F
:101E4000EF92FF920F931F93CF93DF938C01D0E01B
:101E5000C0E0E62EF12CCE15DF053CF0DF91CF91EE
:101E60001F910F91FF90EF900895F80161918F01FC
:101E70008C2F0E94830E2196EECF0F931F93CF934A
:101E80000CE711E0C0E0F80161918F018C2F0E94F6
:101E9000830ECF5FCD30B9F7CF911F910F91089589
:101EA000813039F460914706682787E00E94830EED
:101EB0000895823041F0833069F441E06FEF7FEFA5
:101EC00088E00C949D0E41E061E070E08AE00E94A1
:101ED0009D0E089541E061E070E0843089F340E0B8
:101EE00060EF7FEF853031F040E060E170E08630F8
:101EF00009F0089589E0E5CF809151019091520158
:101F000018161906BCF40197909352018093510161
:101F1000892B81F480913E0690913F06009751F005
:101F20004DE050E060E476E00E942A0987E992E003
:101F30000C94C02A089580E496E00895CF93DF932F
:101F40000E947C0DEC010E94520D209741F488EA1A
:101F500092E00E94C02A80E0DF91CF910895892B02
:101F6000B1F345E050E06DE476E0CE010E94210936
:101F700030914E0620914F06909150068091510667
:101F800040914D06413019F7363009F72230F9F605
:101F90009F3FE9F28131D8F681EC92E00E94C02A9D
:101FA00081E0DACFE091D906F091DA06309709F0B6
:101FB000099408950E94FB08882351F083E996E074
:101FC0000E94C108811104C083EE92E00C94C02AE3
:101FD00008959091520691110FC090EB9093930643
:101FE00092E09093940691EE9093950680939606D6
:101FF000609397060C94DA0F08959093DA06809315
:10200000D90689EE9FE00E941E0E0E94650D9093F6
:10201000D8068093D7060E94780D9093D6068093B9
:10202000D5060E94520D9093D4068093D30608954E
:10203000CF92DF92FF920F931F93CF93DF9383E5AD
:1020400096E00E94DE08882309F49DC09091530613
:10205000903B09F010C12091540680915506213023
:1020600009F0ABC0803171F486E093E00E94C02A91
:1020700081E0DF91CF911F910F91FF90DF90CF9082
:102080000C94D20F803209F458C0813209F083C019
:10209000C0915606D0915706DC27CD27DC278091CA
:1020A000D5069091D606C80FD91F009158061091F9
:1020B00059061027012710271F930F93DF93CF9303
:1020C0008DE393E09F938F930E94A52A0F900F902A
:1020D0000F900F900F900F90D12CC12CF12CC016A7
:1020E000D10609F060C01F92FF9285E593E09F93AF
:1020F0008F930E94A52A80EB8093930681E08093C2
:10210000940682E280939506F092960610929706C6
:102110000E94DA0F0F900F900F900F908091D506CC
:102120009091D606B6010297DF91CF911F910F9142
:10213000FF90DF90CF900C941D09C0915606D0916E
:102140005706DC27CD27DC278091D5069091D6064F
:10215000C80FD91F10915806412F50E069E576E06D
:10216000CE010E942A09DF93CF931F921F9385E22D
:1021700093E09F938F930E94A52A0F900F900F904A
:102180000F900F900F90DF91CF911F910F91FF90C3
:10219000DF90CF9008958131B1F78DE593E00E94F3
:1021A000C02A82E066CFCE018C0D9D1D0E941109D0
:1021B000F8268FEFC81AD80A92CF2230A9F0233020
:1021C00011F7803901F748E050E066E576E080914C
:1021D000D7069091D806DF91CF911F910F91FF9074
:1021E000DF90CF900C942A098038E9F490939306FD
:1021F0002093940681E8809395068DE0809396065F
:102200006DE087E996E00E94120F6DE084EA96E0A7
:102210000E94180FDF91CF911F910F91FF90DF90D7
:10222000CF900C94DA0F803979F0803AD9F460912C
:10223000570680915606DF91CF911F910F91FF9025
:10224000DF90CF900C941E0F409156066091570678
:1022500081E08093520688E596E00E94200F10925C
:10226000520691CF803B09F08ECF81E080935206D9
:102270000E943D0FF4CF903F79F0903D09F083CF5D
:1022800080915406803109F05BC080915506813001
:1022900009F054C08AE0EDCE80915406803109F0F7
:1022A00072CF9093930681E18093940610929506E5
:1022B000C1E0C093960686E080939706C093980687
:1022C00048E050E064E472E089E996E00E943F054E
:1022D000C093A1061092A20648E050E063EA76E0BF
:1022E0008091D7069091D8060E9421098091D3064B
:1022F0009091D4069827892798279093AC068093CD
:10230000AB0640E150E060E08DEA96E00E94B50542
:1023100046E050E06BE773E08DEA96E00E943F05EF
:1023200048E050E062E873E08DEB96E00E943F05E4
:1023300082E08093C5068093C6066CCF8BE099CE71
:10234000803209F020CF85E596E0DF91CF911F9193
:102350000F91FF90DF90CF900C94A508E3E9F6E091
:1023600090EE908390E99183828363830C94DA0FDB
:10237000E3E9F6E020EE208321E9218398278927ED
:102380009827938382830C94DA0FE3E9F6E020EE3A
:10239000208322E9218398278927982793838283A2
:1023A0000C94DA0FBC0148E050E08091D706909180
:1023B000D8060C942109E8E7F2E030E020E094919F
:1023C00089130DC0611114C087E0829FF001839FC3
:1023D000F00D1124E558FD4F8591959115C02F5FA3
:1023E0003F4F37962037310551F790E080E0089550
:1023F00087E0829FF001839FF00D1124E358FD4F89
:1024000085919591009701F30895E8E7F2E030E0B7
:1024100020E0949189130BC087E0829FF001839F95
:10242000F00D1124E758FD4F8591959108952F5F88
:102430003F4F37962037310561F790E080E00895EF
:10244000CF93DF930E94E00DEC01009749F00E94CA
:1024500011098093DD062196D093DC06C093DB063C
:10246000DF91CF910895AF92BF92CF92DF92EF921A
:10247000FF920F931F93CF93DF939C01B62E8C0195
:102480000027107F832F8F70D82ED22FC12C85E08C
:10249000A82E8091DD06C816D8F5E090DB06F090F6
:1024A000DC06CA9CE00CF11C1124C7010E94110932
:1024B0008B1511F08F30A9F4C70101960E94110904
:1024C000C82FC70102960E941109CC2311F0C53B09
:1024D00051F49FEF980F9E3F20F4DC1739F1C53B74
:1024E00029F1C394D6CFDC13FCCFD81611F08F3F5F
:1024F000C1F7C70103960E941109C82FC7010496AE
:102500000E941109C63B09F0DC2F8E3F09F0D82E3E
:10251000C8018D2B9D29DF91CF911F910F91FF90C5
:10252000EF90DF90CF90BF90AF900895D812D9CFA1
:10253000E0CFECEFF7E030E020E090819F3F69F4DE
:10254000F901EE0FFF1FE450F84F8083220F331F75
:10255000F901E350F84F108208952F5F3F4F3296F4
:102560002430310551F70895FC019185907381E085
:10257000903209F080E008958F929F92AF92BF92BF
:10258000EF92FF920F931F93CF93DF939C01C62F7F
:10259000D0E08E01080F191F60E070E0CB0120171A
:1025A000310799F440E024E030E02C1B3D0B42174A
:1025B0001306E4F0DF91CF911F910F91FF90EF9000
:1025C000BF90AF909F908F9008958824962EA72E4D
:1025D000B82E79014FEFE41AF40AC9010E941109DB
:1025E0009401282BC501B9019701D9CF982F872FC6
:1025F000762F66274F5FDBCF50E0542F442752954C
:10260000507F482B562B50685093AB074093AA0736
:102610000895CF93DF934091040850910508C82F87
:10262000D0E09A01082E02C0369527950A94E2F769
:1026300020FF29C021E030E0082E02C0220F331F06
:102640000A94E2F72095309524233523309305082A
:10265000209304081F928F9386EB94E09F938F93AF
:102660000E94A52ACC0FDD1FC55ED74F89818F70D0
:102670000F900F900F900F9031F0809590914B0834
:10268000892380934B08DF91CF910895CF92DF92F9
:10269000EF92FF920F931F93CF93DF93F82EE0906A
:1026A000160806E118E0D0E0C0E0C62E660FDD088F
:1026B000CE1548F0DF91CF911F910F91FF90EF90D1
:1026C000DF90CF900895CC16DD0641F0F8018581AA
:1026D0008770F81203C08C2F0E94091321960E5F99
:1026E0001F4FE6CF0F931F93CF93C82F082F10E0F3
:1026F00080910408909105080C2E02C0969587954C
:102700000A94E2F780FD34C0000F111FF801EA5E61
:10271000F74F8581877019F06C2F0E94461321E0D6
:1027200030E00C2E02C0220F331F0A94E2F7809192
:10273000040890910508822B932B909305088093B1
:1027400004081F92CF9384EC94E09F938F930E9490
:10275000A52AF801E55EF74F81818F700F900F90E9
:102760000F900F9029F090914B08892B80934B0884
:10277000CF911F910F9108950F931F93CF93DF93E4
:1027800094E0899FE0011124FE01E455F84F808117
:102790009181A281B3810097A105B10509F45AC0C6
:1027A000AC01BD012EE176956795579547952A9521
:1027B000D1F7413009F053C06091DF06CD010E948E
:1027C00033128C018F77A801952F9F7031F090956F
:1027D00020914C08922390934C08882361F161E08A
:1027E0009091DE06923009F060E00E94DB119C01BE
:1027F000982FA9014427517031FB222720F914FF9B
:1028000020E02170452B29F080914D088D7F809329
:102810004D08211110924E08992369F0EFE4F8E079
:1028200025E538E08191981303C0DF0111971C92D0
:102830002E173F07B9F78091040890910508892B5E
:1028400019F480E00E947213C455D84F188219827F
:102850001A821B82DF91CF911F910F910895423010
:1028600051F7AC01BD0184E1769567955795479581
:102870008A95D1F74F704130F1F68B2F8F700E94FF
:102880000913D9CF0F931F93CF938B019C01DC01C8
:10289000CB014EE1B695A795979587954A95D1F7C7
:1028A000813009F055C06091DF06C9010E943312E2
:1028B0008C018F77A801252F2F7029F090914C085B
:1028C000922B90934C088823C1F161E09091DE0631
:1028D000923009F060E00E94DB119C01582FBC018E
:1028E0006627717031FB882780F914FF80E08170C2
:1028F00090914308672B29F040914D084260409326
:102900004D08882329F09D7019F481E080934E08CA
:10291000552399F08091550896E08F5F863009F431
:1029200080E0E82FF0E0E55CF74F4489442311F0A4
:10293000915099F780935508248B809106088F3F1A
:10294000C9F0809107088F3FA9F41092070812C0C0
:10295000823009F04DC0C32FCF7094E13695279592
:10296000179507959A95D1F70F70013081F48C2F48
:102970000E9472138091040890910508892B09F038
:1029800044C080E0CF911F910F910C9472130230DC
:1029900071F3033021F48C2F0E940913EBCF043024
:1029A00069F480910408909105080C2E02C0969558
:1029B00087950A94E2F780FDEECFD9CF0530D1F6A6
:1029C0008C2F0E947213C09306088FEF8093070824
:1029D0008CEF94E00E94C02ACDCF823009F0ADCFB9
:1029E0009927832F722F612F822F0E94500FA5CF1E
:1029F000833009F0A2CF832F8770813071F76FEF9A
:102A0000822F87700E94461398CFCF911F910F910C
:102A100008952F923F924F925F926F927F928F9282
:102A20009F92AF92BF92CF92DF92EF92FF920F935D
:102A30001F93CF93DF9300D000D000D00F92CDB77B
:102A4000DEB7382E4B0196E1A92E98E0B92E2FE083
:102A5000C22ED12CFC2CCA82C4010C2C02C096952B
:102A600087950A94E2F780FD25C021E0C21AD108BB
:102A700032E0A31AB1084FEFC416D40659F790E01C
:102A800080E027960FB6F894DEBF0FBECDBFDF9172
:102A9000CF911F910F91FF90EF90DF90CF90BF905B
:102AA000AF909F908F907F906F905F904F903F90EE
:102AB0002F90089580911708909118089F838E8316
:102AC0008091190890911A084E815F814817590723
:102AD00078F48E819F810E941109182F8E819F8129
:102AE00001960E941109912F212F2F7797FD05C084
:102AF000F50184A187FFB9CFC2CF381649F082E033
:102B0000820F2E813F81280F311D3F832E83D8CF26
:102B10008E819F81009761F30E941109EE81FF81F0
:102B20003296FF83EE838F778F01080F111D8E8100
:102B30009F8180179107E0F68E819F810E94110985
:102B4000982F8F708F1531F12E813F812F5F3F4F6E
:102B50009295977091509330D8F4C9010E94110951
:102B6000982F9295969596959370282F2770920F8F
:102B70009F5F8695869586958770980F2E813F81F9
:102B80002E5F3F4FA901490F511D5F834E83CFCF69
:102B900090E0F8CFEE81FF81309709F4A9CFCF0103
:102BA0000E941109182F129517708CEF810F823037
:102BB00058F5109308081092090810920A0810920C
:102BC0000B0810920C0810920D0810920E0810922B
:102BD0000F0810921008109211081092120810920B
:102BE000130810921408FFEFF0931508809108085D
:102BF000853009F43ACF843009F441CF882309F4B1
:102C000034CF88E098E03DCF8E819F8101960E946D
:102C10001109082FE82EE294E694E69483E0E82276
:102C2000E3942E813F812E5F3F4F3F832E836E2D95
:102C3000C9010E94BC12262E7B838C839D838EEF5C
:102C4000810F823008F03FC0802F8695869586954B
:102C500087708983F12C682F8E819F818E0D9F1D37
:102C60000E94BC122B013C01133089F5602F677064
:102C7000C7013981830F911D4E815F81840F951F9C
:102C80000E94BC1210930808209209085B8150939F
:102C90000A08EC81E0930B08FD81F0930C08409248
:102CA0000D0850920E0860920F0870921008609301
:102CB00011087093120880931308909314082A81C6
:102CC0002093150893CF412C512C612C712C60E07E
:102CD00070E080E090E0D6CF0F931F93CF93DF9307
:102CE000EC018A819B81860F911D9B838A83898554
:102CF000982F9F7C998790FD05C081FF03C08E7C33
:102D000081618987898580FF05C081FD03C08E7C34
:102D1000806289878091E1068F3F21F091E02881D0
:102D2000281301C090E0898590FB82F989872F8163
:102D30003885232BE1F480738031C9F400910408B5
:102D400010910508B80188810E940915FC01892BA2
:102D500071F085858C831E830D83E081F0E0EE0F9A
:102D6000FF1FE757FE4F8081918198878F83EF8106
:102D7000F885309741F0CE010995882321F01E8215
:102D80001D8218861F82DF91CF911F910F910895A8
:102D90001F93CF93DF9300D000D000D0CDB7DEB724
:102DA00089839A83162FA981BA8115966D917C919A
:102DB00016978C910E940915FC01892B21F1A9819C
:102DC000BA81BC91A4E0BA9FC00111249E838D8377
:102DD000113019F581819281A381B48189839A830D
:102DE000AB83BC83BC01CD010E944214AD81BE8186
:102DF000A455B84FFD0189819A81AB81BC81808344
:102E00009183A283B38326960FB6F894DEBF0FBEDC
:102E1000CDBFDF91CF911F910895123029F48581A4
:102E20009681A781B085DACF81859285A385B48507
:102E3000D5CFCF93DF93EC01898124E0829FC0013D
:102E40001124682B69831B821A826B3171F461E053
:102E5000CE010E94C81688810E94991241E06C81BF
:102E60008881DF91CF910C94FC12673041F0673676
:102E700061F461E0CE01DF91CF910C94C81662E05D
:102E8000CE010E94C81642E0EACF663629F06230D1
:102E900061F0DF91CF91089563E0CE010E94C816E2
:102EA00088810E94991243E0DACF8881DF91CF9127
:102EB0000C94BC13CF92DF92EF92FF920F931F936B
:102EC000CF93DF93EC018985182F12951370098138
:102ED000EA80FB8080FBCC24C0F882FBDD24D0F8A4
:102EE000113061F4063029F461E088ECE816F10451
:102EF00040F1198261E0CE010E941917013081F082
:102F0000093119F1063061F11230B1F180E0DF9141
:102F1000CF911F910F91FF90EF90DF90CF90089588
:102F2000CC2041F088ECE816F104A0F163E0CE017A
:102F30000E941917123051F788ECE816F104E0F4FA
:102F400062E0CE010E941917E1CFCC20B9F088ECE5
:102F5000E816F104D8F063E0CE010E941917D4CF2F
:102F6000C110D2CF63E088ECE816F10468F2CE011C
:102F70000E94191781E0CBCF198206C0123031F6BA
:102F800088ECE816F104C0F762E0F1CF123009F0E6
:102F9000BDCFFACFD110CACF123091F2B7CFCF93B5
:102FA000DF93EC01898124E0829FC0011124682B0A
:102FB00069831B821A82663071F461E0CE010E943F
:102FC000C81688810E94991241E06C818881DF9146
:102FD000CF910C94FC12673041F0693161F461E0EB
:102FE000CE01DF91CF910C94C81662E0CE010E9411
:102FF000C81642E0EACF623019F0DF91CF91089510
:103000008881DF91CF910C94BC13CF92DF92EF9225
:10301000FF920F931F93CF93DF93EC018985182FB5
:10302000129513700981CA80DB8080FBEE24E0F8E2
:1030300082FBFF24F0F8113061F4063029F461E0DE
:1030400088ECC816D10460F1198261E0CE010E94BB
:10305000CF17013059F0063039F5E11005C063E0B3
:1030600088ECC816D10430F580E028C0EE2089F045
:1030700063E088ECC816D10498F4FF2021F063E0E7
:10308000CE010E94CF17123079F709C0093161F7DC
:103090000FC0123049F788ECC816D10428F762E057
:1030A000CE010E94CF17E0CF1230F1F6073071F752
:1030B000198262E0CE010E94CF1781E0DF91CF91AB
:1030C0001F910F91FF90EF90DF90CF900895CF93D5
:1030D000DF93EC01898582958370813061F4898367
:1030E00061E0CE010E94C81641E06C8188810E9497
:1030F000FC1280E007C08230E1F7898388810E945A
:10310000BC1381E0DF91CF9108958093DE0608958E
:103110008093DF060895AF92BF92CF92DF92FF9225
:103120000F931F93CF93DF930E947C0D5C010E944D
:10313000950DEC010E94AE0D8C010E94C70D6C0133
:10314000C50104960E941109F82E80931608109369
:103150001808009317080C0D1D1D10931A080093F2
:103160001908DF92CF921F928F9381ED94E09F9385
:103170008F930E94A52A8BE1C82E88E0D82E0F904D
:103180000F900F900F900F900F90560110E080E07D
:1031900090E01F1548F4CE010E941109082FCE01BE
:1031A00001960E941109902FD5018D939D935D0189
:1031B0001F5F2296103159F70E942012EBE3F8E0CE
:1031C000DF011D921A95E9F710924B0810924C08F6
:1031D00010924D0810924E0810924F08109250080D
:1031E00010925108109252081092530810925408ED
:1031F000109255084091160890E080E030E020E001
:1032000061E070E0841708F457C0309305082093FC
:1032100004088FEF8093060880930708ECEAF7E034
:1032200090E5DF011D929A95E9F78093FC071092D3
:10323000FD078093FE071092FF078093000810920D
:10324000010880930208109203088093E10610920F
:10325000AB071092AA07E1EEF6E090E080E04AE0CA
:103260003FEF818312820196489FD001499FB00DA4
:103270001124AF51B94F2C912C7F2C9314821382BF
:103280002C91237F2C93358317821682118610860A
:103290002C912F7C2C933A968431910511F781E083
:1032A0008093E006DF91CF911F910F91FF90DF9007
:1032B000CF90BF90AF900895D601ED91FD916D0133
:1032C000F5FF09C0FB01082E02C0EE0FFF1F0A9494
:1032D000E2F72E2B3F2B019695CF8093DE060895C3
:1032E0008093DF0608958091E0068823D1F08091D5
:1032F0004B0890914C08892B90914D08892B909107
:103300004E0891118D7F8093430886E0EFE4F8E04A
:10331000A5E4B8E001900D928A95E1F783E498E086
:1033200008958BE398E008958091E006882329F0C2
:103330008091040890910508089590E080E0089538
:103340008091E006882359F08091AA079091AB07FD
:10335000009739F01092AB071092AA07089590E0F9
:1033600080E008959091E0069923A9F0843198F4C3
:10337000282F30E02F5F3F4F662371F08093E106E6
:103380008AE0829FF001839FF00D1124EF51F94FE5
:1033900080818260808308958AE0829FF001839F0C
:1033A000F00D1124EF51F94F80818D7FF3CFEF9213
:1033B000FF920F931F93CF93DF93182F8091E00616
:1033C000882309F450C082EEE82E86E0F82EC0E093
:1033D0008091E1068C1721F0612FC7010E946C16C5
:1033E000CF5F2AE0E20EF11CC43191F78091E10633
:1033F0008F3F49F02AE0829FC0011124612F8E5136
:10340000994F0E946C168FEF8093E106CCEFD7E0C6
:103410000FEF88818F3F41F09981910F998393330A
:1034200018F00E94BC130883229688E0C430D807A5
:1034300081F7809106088F3FB1F08091070887FDE2
:1034400012C0810F8093070883336CF085EF94E0FE
:103450000E94C02A809106080E9409138FEF809372
:10346000060880930708DF91CF911F910F91FF907D
:10347000EF9008951092E00608950E949E0F81112A
:103480000C948B180C943A1ACF93DF93D82FC62F35
:10349000E0917A08F0917B08309751F00190F0812B
:1034A000E02D309729F06C2F8D2FDF91CF9109946B
:1034B000D73060F4ED2FF0E0E650F24D0C94232865
:1034C00081E0C11101C080E080935D01E0917A0844
:1034D000F0917B08309729F00280F381E02D30973E
:1034E00011F7DF91CF91089581E0C11101C080E013
:1034F00080935C01EBCF81E0C11101C080E080933B
:103500005B01E4CF81E0C11101C080E080935A01EA
:10351000DDCF81E0C13009F080E080935901D6CF42
:103520008C2F0E946D1988E095E0C23011F484E080
:1035300095E09F938F9386E195E09F938F930E94F0
:10354000A52A0F900F900F900F90C0CF8C2F0E9444
:10355000701981E195E0C13011F48BE095E09F9303
:103560008F9389E295E0E9CF813011F40C943A1AF7
:10357000823049F08A3049F481E080937C088EE300
:1035800095E00C94C02A0C943D1A8B3009F00895F4
:1035900010927C0887E595E0F4CFCF93DF93C82F96
:1035A000D62FE0915608F0915708309709F0099509
:1035B000E0919908F0919A08EC0FF11DC491CF3F6A
:1035C00009F43FC0DD2379F11F92CF9381E795E0A5
:1035D0009F938F930E94A52A0F900F900F900F90AA
:1035E0008C2F8093570180915C01882321F06D2FEF
:1035F0008C2F0E94AE11E0917A08F0917B083097F1
:1036000041F00680F781E02D309719F06D2F8C2F57
:10361000099580917C08811114C06D2F8C2FDF914A
:10362000CF910C94B2191F92CF938DE795E09F93A1
:103630008F930E94A52A0F900F900F900F908FEFFD
:10364000D0CFDF91CF910895909379088093780837
:103650000895E091750821E02E0F20937508F0E0A1
:10366000EE0FFF1FEA58F74F918380830895E09192
:10367000700821E02E0F20937008F0E0EE0FFF1F7E
:10368000EF58F74F91838083089590939A08809321
:103690009908089590937B0880937A08089581E0B3
:1036A00080935801089587E898E0089583E998E0A9
:1036B00008950E94740C84E49AE10E941E0E0E94F8
:1036C000CE0E48E050E062E873E088E598E00E94A2
:1036D0003F0548E050E064E472E080E698E00E9434
:1036E0003F0588E698E00E94D21168E188E598E0FD
:1036F0000E9402090E943D1A84EB9AE10C94FD0F8E
:10370000CF93E0917808F0917908309719F083E928
:1037100098E00995C0E080917508C81710F0CF9126
:103720000895EC2FF0E0EE0FFF1FEA58F74F0190DD
:10373000F081E02D309719F083E998E00995CF5F8B
:10374000EACF0F931F93CF93DF93182F80915901E6
:10375000C0E081119CC046E050E063E978E087E872
:1037600098E00E943F05C0E06C2F8DE898E00E9431
:10377000CF05082F6C2F87E898E00E94CF05D82F3F
:103780000111B4C061E08111B4C04D2F6C2F8DE8E0
:1037900098E00E94B805CF5FCA3231F7812F0E94AE
:1037A000D7190E949419EC010E9473198C01809121
:1037B000850890918608C817D90709F485C08091BB
:1037C0005C01882319F0CE010E94B811E0917A08BB
:1037D000F0917B08309739F00480F581E02D309727
:1037E00011F0CE010995D0938608C0938508D09337
:1037F0005401C0935301C1E048E050E06DE778E028
:10380000C8010E949905811161C080915D018823E2
:1038100019F0C8010E94A50848E050E0B8018DE702
:1038200098E00E943F0587E895E09F938F930E9460
:10383000A52ACDE7D8E00F900F900EEC11E089910A
:103840001F928F931F930F930E94A52A0F900F90A2
:103850000F900F9088E0C538D80789F784E995E084
:103860009F938F930E94A52A809186088F938091C1
:1038700085088F9388E995E09F938F930E94A52AEE
:103880000F900F900F900F900F900F9021C06C2F02
:1038900083E998E00E94CF05D82F05E10C0F602F37
:1038A00083E998E00E94CF05482F6C2F87E898E0C5
:1038B0000E94B8054D2F602F87E898E00E94B80558
:1038C000CF5FC53121F74FCFC0E096CFC111ABCF4D
:1038D0000E94A019009789F020915C01222369F0D1
:1038E000DF91CF911F910F910C94C51181114DCF94
:1038F00060E08C2F0E94CD1A48CFDF91CF911F91AD
:103900000F91089580915B01882361F0E7E8F8E06A
:103910009191911105C098E0ED38F907C9F780E061
:103920000C9407070895CF93DF9300D000D0CDB754
:10393000DEB720915A01222309F120EA3FE040E05E
:1039400050E00E94012869837A838B839C83672BD4
:10395000682B692B49F481E00F900F900F900F9026
:10396000DF91CF910C94F90689819A81AB81BC815A
:103970000497A105B10511F480E0EECF0F900F90F0
:103980000F900F90DF91CF910895CF93C0E0809179
:103990007008C81710F0CF910895EC2FF0E0EE0FEB
:1039A000FF1FEF58F74F0190F081E02D0995CF5F91
:1039B000EECF0E940D090E9418100C947C0F90937A
:1039C0005708809356080895CF93DF938093A108FA
:1039D0006093A00850939F0840939E0830939D08E1
:1039E00020939C08C0E08091A108C81758F0C0E05F
:1039F0008091A008C817A8F081E080939B08DF9110
:103A0000CF910895E0919E08F0919F08EC0FF11D71
:103A1000D0818D2F0E9420068D2F0E94C006CF5F7F
:103A2000E2CFE0919C08F0919D08EC0FF11D8081A0
:103A30000E944906CF5FDCCFCF92DF92EF92FF92D8
:103A40000F931F93CF93DF93182F092F80919B081B
:103A5000D0E0F12CCC24C394811123C0DF91CF910D
:103A60001F910F91FF90EF90DF90CF900895E0911C
:103A70009E08F0919F08ED0FF11DD0808D2D0E94C2
:103A8000C30681E090E00E94F705C0E0EF2CEC0E49
:103A90008091A008C81750F08D2D0E94C006DF5FEE
:103AA000FE2C8091A108D81710F3D8CFE0919C0884
:103AB000F0919D08EC0FF11D80810E947B06482F3C
:103AC0004C256E2D812F902F0E94B805CF5FDECF41
:103AD000CF938093A4087093A3086093A208C0E0DA
:103AE0008091A408C81710F0CF910895E091A20822
:103AF000F091A308EC0FF11D80810E944906CF5F71
:103B0000EFCF0F931F93CF93DF93D82F192FC0E0E0
:103B100001E08091A408C81728F0DF91CF911F9190
:103B20000F910895E091A208F091A308EC0FF11D08
:103B300080810E947B06482F402764E16C0F8D2F07
:103B4000912F0E94B805CF5FE4CFCF93DF93D82F9A
:103B5000C62F8CE30E94070A80E00E94190A8D2F6D
:103B6000806B0E94190A8C2F8F700E94190A8C2F6B
:103B700082958F7080610E94190ADF91CF910C9419
:103B8000230ACF93DF930E94A2098CE30E94070AC5
:103B9000C8E8D5E0FE018591EF010E94190AF5E021
:103BA000CE39DF07B9F70E94230A1092A50880EAF0
:103BB0008093A60880EC8093A70843E050E065EA74
:103BC00078E08CE3DF91CF910C94AC090F931F93B5
:103BD000CF93C0E060E08C2F0E94A51D8CE30E9473
:103BE000070A80E40E94190A00E810E080E00E94C1
:103BF000190A01501109D1F70E94230ACF5FC4307E
:103C000049F7CF911F910F910895CF92DF92EF92D4
:103C1000FF920F931F93CF93DF937C01D0E0C0E01E
:103C200060E08C2F0E94A51D8CE30E94070A80E4AF
:103C30000E94190A10E000E06701CC0EDD1EF801B9
:103C4000EE0FFF1FEE0FFF1FEC0DFD1D84910E9474
:103C5000190A0F5F1F4F0038110589F70E94230AC8
:103C60002196C430D105E1F6DF91CF911F910F91DC
:103C7000FF90EF90DF90CF9008959093120980937A
:103C800011097093100960930F0950930E09409326
:103C90000D0908958F929F92AF92BF92CF92DF92BB
:103CA000EF92FF92CF93DF93E9EAF8E029EB38E057
:103CB000812C912C54018394D90190E080E04D91A6
:103CC0004423C9F0ED01219718824081518162811E
:103CD000738175016401082E04C0CC0CDD1CEE1C40
:103CE000FF1C0A94D2F74C295D296E297F29408355
:103CF00051836283738301968531910501F7349670
:103D00002B5E3F4F88E0E93BF807B1F6DF91CF919A
:103D1000FF90EF90DF90CF90BF90AF909F908F90EB
:103D200008958F929F92AF92BF92CF92DF92EF92BF
:103D3000FF920F931F93CF93DF93942F252F641B34
:103D400035E1839FA00111244754574F34E0839FEE
:103D5000F0011124E755F74FC12CD12C7601C39403
:103D6000762F790FA92FB22F8D9181110DC0DF9180
:103D7000CF911F910F91FF90EF90DF90CF90BF9068
:103D8000AF909F908F900895EA01C70FD11D988141
:103D9000282F082E000C330B92171306B1F08883DE
:103DA0004601570104C0880C991CAA1CBB1C7A95BB
:103DB000D2F70081118122813381082919292A290A
:103DC0003B2900831183228333839A2F2B2FC8CF63
:103DD0007F928F929F92AF92BF92CF92DF92EF929B
:103DE000FF920F931F93CF93DF9360910F09709110
:103DF000100980910D0990910E09680F791F80E8D4
:103E000090E00E94ED275B0189EBE82E88E0F82E18
:103E100099EAC92E98E0D92E712CD0E0C0E048C0B4
:103E2000F60180819181A281B3810C2E04C0B695E8
:103E3000A795979587950A94D2F780FF38C0F70128
:103E4000EC0FFD1F108160910F0970911009809196
:103E50000D0990910E09680F791F6C9F602D112438
:103E6000872D0E94A51D8CE30E94070A80E40E9412
:103E7000190A112309F458C0812F110F990B80974B
:103E800020910F0930911009829F8001839F100DAE
:103E9000929F100D1124912C812C80910F099091EB
:103EA0001009881699060CF442C00E94230A219634
:103EB000CA15DB050CF4B4CFE5E1EE0EF11C7394EA
:103EC000F4E0CF0ED11C24E07212A7CF1092A90803
:103ED0001092AA081092AB081092AC081092AD088C
:103EE0001092AE081092AF081092B0081092B1086C
:103EF0001092B2081092B3081092B4081092B5084C
:103F00001092B6081092B7081092B808DF91CF91BE
:103F10001F910F91FF90EF90DF90CF90BF90AF90E7
:103F20009F908F907F90089500E010E0B4CFE091D3
:103F30001109F0911209E80DF91DE00FF11F8491AC
:103F40000E94190A8FEF881A980AA7CF90936301ED
:103F50008093620108959093610180936001609362
:103F60005F0140935E0108950E94C11D40915E0172
:103F700050E060915F0170E080916001909161017B
:103F80000C943D1E0F931F93CF93DF9300D000D06E
:103F9000CDB7DEB78091130990911409A09115094E
:103FA000B09116099C01AD012F5F3F4F4F4F5F4FFE
:103FB000209313093093140940931509509316095F
:103FC000CA01B90122E330E040E050E00E9401283C
:103FD00069837A838B839C83672B682B692BC1F45D
:103FE0008091170981110BC080916201909163014A
:103FF0000097C9F00E94051E8091170906C0909194
:104000005801911105C08C3360F48F5F80931709BC
:104010000F900F900F900F90DF91CF911F910F9104
:1040200008958C3319F40E94E61DE6CF809160015B
:1040300090916101892B61F346EA55E070E060E000
:1040400090E080E00E94911EE0915501F0915601B0
:1040500087815DE281115BE286814DE281114BE255
:1040600085813DE281113BE284812DE281112BE2C9
:1040700083819DE281119BE282818111A1C08DE249
:104080001F925F931F924F931F923F931F922F9304
:104090001F929F931F928F938DEA95E09F938F932A
:1040A00089E199E09F938F930E94EC2A49E159E0BE
:1040B0006FE070E090E080E00E94911E80915701D7
:1040C0000FB6F894DEBF0FBECDBF8F3F09F47AC0A4
:1040D000E0915501F0915601DF0112969F01285F92
:1040E0003F4F1D91111103C02A173B07D1F70081E3
:1040F0001F928F938AEB95E09F938F9389E199E0CC
:104100009F938F930E94EC2A49E159E070E060E0B0
:1041100083E090E00E94911E1F921F9380EC95E037
:104120009F938F9329E139E03F932F930E94EC2ACC
:1041300049E159E066E070E083E090E00E94911E62
:104140001F920F9386EC95E09F938F9389E199E0FE
:104150009F938F930E94EC2A49E159E06DE070E053
:1041600083E090E00E94911E0FB6F894DEBF0FBE70
:10417000CDBF809153019091540199279F938F93C4
:104180008CED95E09F938F9389E199E09F938F93B6
:104190000E94EC2A49E159E062E170E083E090E09E
:1041A0000E94911E0E94E81E809118098F5F8093E3
:1041B00018090F900F900F900F900F900F9028CF2D
:1041C0008BE25ECF6BEC75E089E199E00E949E2A5C
:1041D00049E159E070E060E083E090E00E94911EC8
:1041E00061ED75E089E199E00E949E2A49E159E07C
:1041F00066E070E083E090E00E94911E67ED75E05C
:1042000089E199E00E949E2A49E159E06DE070E061
:1042100083E090E00E94911EACCFCF93DF9300D05B
:1042200000D0CDB7DEB7E0917F09ED3008F0E0E0D7
:1042300084E0E89FF0011124EC56FE4F80819181CB
:10424000A281B381BC01CD010F900F900F900F9010
:10425000DF91CF910895CF92DF92EF92FF920F936B
:104260001F93CF93DF9300D000D000D0CDB7DEB73F
:104270000E940D21F62EE72ED82EC92E80917A09A4
:1042800090917B09A0917C09B0917D099C01AD01C1
:104290005695479537952795CA01B9012AE230E02E
:1042A00040E050E00E94012869837A838B839C83DD
:1042B00049815A815E834D834631510534F08AE24B
:1042C00090E0841B950B9E838D830E94060610E070
:1042D00000E040917E098D819E8180179107D9F081
:1042E00060E070E080E090E00E947C0B0F5F1F4F69
:1042F0000531110571F726960FB6F894DEBF0FBE93
:10430000CDBFDF91CF911F910F91FF90EF90DF9084
:10431000CF900C9404066F2D7E2D8D2D9C2DE4CF17
:10432000DF92EF92FF920F931F93CF93DF930E9440
:104330000D217B018C0120917A0930917B0983E06A
:10434000220F331F8A95E1F73170213041E03407A5
:1043500034F080E092E0AC01421B530B9A01409193
:104360007E09429FC001439F900D1124D92E0E94C7
:104370000606C5E1D0E04D2DB701C8010E947C0BB7
:104380002197C9F7DF91CF911F910F91FF90EF9087
:10439000DF900C940406EF92FF920F931F93CF933C
:1043A000DF930E940D217B018C010E940606C5E16E
:1043B000D0E040917E09B701C8010E947C0B219793
:1043C000C1F7DF91CF911F910F91FF90EF900C9467
:1043D0000406873039F481E0611101C080E08093E8
:1043E00080090895883019F460937F090895893011
:1043F00041F4669FB001112481E0870F80937E090C
:1044000008958A3011F46093250908958F929F9240
:10441000AF92BF92CF92DF92EF92FF920F931F93D2
:10442000CF93DF9300D000D000D0CDB7DEB780911E
:104430007A0990917B09A0917C09B0917D09BC011A
:10444000CD0124E130E040E050E00E940128672BDC
:10445000682B692B09F076C0C0906401D09065018B
:10446000E0906601F0906701A6E2B9E0BE83AD83FB
:104470008D019DE0892E912CA12CB12CA7019601D4
:104480006DEC78E78FE093E00E94DD276B017C0103
:10449000BBE0CB0ED11CE11CF11CC701B601A5018C
:1044A00094010E94012869837A838B839C83E9812C
:1044B000FA81EE0FFF1FEE0FFF1FEC56FE4F8081BB
:1044C0009181A281B381F80181939193A193B193DA
:1044D0008F01F9E00A371F0789F6C0926401D09274
:1044E0006501E0926601F09267010E940606ED8187
:1044F000FE8181919191A191B191FE83ED83898398
:104500009A83AB83BC8340917E09BC01CD010E949C
:104510007C0B8D819E818A57994049F726960FB66C
:10452000F894DEBF0FBECDBFDF91CF911F910F91E9
:10453000FF90EF90DF90CF90BF90AF909F908F90C3
:104540000C94040626960FB6F894DEBF0FBECDBFBE
:10455000DF91CF911F910F91FF90EF90DF90CF905F
:10456000BF90AF909F908F9008952F923F924F925F
:104570005F926F927F928F929F92AF92BF92CF92F3
:10458000DF92EF92FF920F931F93CF93DF93CDB7FC
:10459000DEB7A6970FB6F894DEBF0FBECDBF8091F1
:1045A0007A0990917B09A0917C09B0917D09BC01A9
:1045B000CD0126E930E040E050E00E940128698307
:1045C0007A838B839C830E946A2920E030E046E155
:1045D00053E469837A838B839C8369817A818B819D
:1045E0009C810E94C9288B018F839D830E940D218D
:1045F0004B015C019FEF89169906A906B10431F4BD
:1046000068E8862E99249A94A92CB12C340155245B
:104610004424442455247724BB27AB2D9A2D892D7F
:10462000482A592A6A2A7B2A20E030E040E450E4F4
:1046300009831A83AF81AB83BD81BC8369817A8191
:104640008B819C810E94212A8B018F839D8320E096
:1046500030E040E85FE369831A838B839C83698140
:104660007A818B819C810E94C42887FD2AC0FA2C04
:10467000E92CD82CCC24CC24FF24C501AA27BB27A5
:10468000C82AD92AEA2AFB2A20E030E040E050E498
:1046900069817A818B819C810E94C42887FFD6C161
:1046A00020E030E040E85FE369817A818B819C8182
:1046B0000E9457288B018F839D835301420126015D
:1046C000370120E030E040E450E409831A83EF81B1
:1046D000EB83FD81FC8369817A818B819C810E94BF
:1046E000212A6F87788B898B9A8B8A2D90E0B0E096
:1046F000A0E089839A83AB83BC83BC01CD010E9477
:104700006C296B8F7C8F8D8F9E8F862D90E0B0E013
:10471000A0E089839A83AB83BC83BC01CD010E9456
:104720006C296F8F78A389A39AA3892D90E0B0E0BC
:10473000A0E089839A83AB83BC83BC01CD010E9436
:104740006C296B8B7C8B8D8B9E8B852D90E0B0E0E4
:10475000A0E089839A83AB83BC83BC01CD010E9416
:104760006C296F8B788F898F9A8F96E2292E99E02A
:10477000392E3E822D82F12CE12C882D90E0B0E084
:10478000A0E08F839887A987BA87842D90E0B0E056
:10479000A0E08B879C87AD87BE87C7010F2C000CDC
:1047A000AA0BBB0B89839A83AB83BC83BC01CD016D
:1047B0000E946C2920E030E048EA51E469837A8362
:1047C0008B839C8369817A818B819C810E94C9281B
:1047D0009B01AC0169837A838B839C8369817A8195
:1047E0008B819C810E9458289B01AC019F859983F5
:1047F000A889AA83B989BB83EA89EC8369817A8114
:104800008B819C810E9457288B018EA39DA320E061
:1048100030E0A90169831A838B839C8369817A8143
:104820008B819C810E94C42887FD28C120E030E054
:1048300040E85FE369817A818B819C810E941C2A18
:1048400018160CF420C198014EA15DA160E070E043
:1048500080E89FE30E9457283B016C012B8D3C8D23
:104860004D8D5E8D69837A828B83DC8269817A814A
:104870008B819C810E94212A4B015C012F8D38A1E4
:1048800049A15AA109831A83BEA1BB83EDA1EC8380
:1048900069817A818B819C810E94212A9B01AC01D4
:1048A00089829A82AB82BC8269817A818B819C8168
:1048B0000E94582869837A838B839C8369817A81DB
:1048C0008B819C810E943B29862E912CB12CA12C9E
:1048D0005401992488249301A601FB89F9838C89CA
:1048E0008A839D899B83AE89AC8369817A818B8120
:1048F0009C810E94212A6BA37CA32C012F89388DD7
:10490000498D5A8D09831A83BEA1BB83EDA1EC8327
:1049100069817A818B819C810E94212A9B01AC0153
:10492000FBA1F9838CA18A834B825C8269817A81A5
:104930008B819C810E94582869837A838B839C8316
:1049400069817A818B819C810E943B29962A6F81A3
:10495000788589859A850E946C299301A6016983CF
:104960007A838B839C8369817A818B819C810E946D
:10497000212A3B016C016B857C858D859E850E947B
:104980006C2998014EA15DA169837A838B839C83F6
:1049900069817A818B819C810E94212A9B01AC01D3
:1049A00069827A82CB82DC8269817A818B819C8167
:1049B0000E94582869837A838B839C8369817A81DA
:1049C0008B819C810E943B29862AAD81BE818D927C
:1049D0009D92AD92BD92BE83AD83BFEFEB1AFB0AF1
:1049E000E5E1EE16F10409F0D8CE0E940606F101C9
:1049F00081919191A191B1911F0189839A83AB8398
:104A0000BC8340917E09BC01CD010E947C0B8AE7EA
:104A100099E08215930559F7A6960FB6F894DEBF74
:104A20000FBECDBFDF91CF911F910F91FF90EF90FF
:104A3000DF90CF90BF90AF909F908F907F906F90BE
:104A40005F904F903F902F900C94040620E030E050
:104A500040E050E409831A83AF81AB83BD81BC83FE
:104A600069817A818B819C810E9457288B018F8379
:104A70009D83240135014601570123CE00E010E05B
:104A80001EA21DA2E0CE00E010E090E89EA3AFE3DE
:104A9000ADA3D9CE6CE088E00E94310E64E08AE0DC
:104AA0000E94310E89EE91E20E941E0E0C946B0B57
:104AB000CF93DF9300D000D0CDB7DEB7809121092E
:104AC00090912209A0912309B09124099C01AD0184
:104AD0002F5F3F4F4F4F5F4F2093210930932209A3
:104AE0004093230950932409CA01B90128E230E018
:104AF00040E050E00E94012869837A838B839C8385
:104B0000672B682B692B59F58091800981112EC084
:104B10000E94060645E150E05A83498360E070E058
:104B2000CB010E946D0B89819A8101979A838983B9
:104B3000892BA1F70E94040680917A0990917B0944
:104B4000A0917C09B0917D090196A11DB11D8093B2
:104B50007A0990937B09A0937C09B0937D090F900B
:104B60000F900F900F90DF91CF910895E09125095C
:104B7000E53010F7F0E0EE0FFF1FE859FE4F01900F
:104B8000F081E02D0995D8CF2091820994E0299FEA
:104B9000F0011124ED57F64F90E0B0E0A0E0962B25
:104BA000A42B80839183A283B3832F5F2F702093E4
:104BB00082090895462F9EEF980F933020F099EFC9
:104BC000980F943020F4682F81EC0C94C42508953C
:104BD000462F682F80EC0C94C42564E083EC99E0A8
:104BE0000E94100B982F882341F18091C3098034D3
:104BF00099F4913011F581E48093C7090E94561B06
:104C0000BC0143E050E088EC99E00E943F0564E07D
:104C100087EC99E00C94F70A20E4280F223068F41E
:104C2000933059F44091C5096091C4090E94C4258C
:104C300080EF8093C70961E0EBCF0895CF93DF93B6
:104C400000D000D00F92CDB7DEB70E9408060E94B8
:104C5000591B82E00E94490681E090E00E94E8052D
:104C600082E00E947B0689831F928F9381EE95E0FC
:104C70009F938F930E94A52A0F900F900F900F90F3
:104C80002981222309F463C084E0898381E00E94A2
:104C9000F90682E090E00E94E80580E00E94F906B3
:104CA00084E690E00E94E8059981915099839111E2
:104CB000EDCF0E9469080E949B0F8C01D8016D9175
:104CC0008D0189810E94DA25B981BF5FB983BD302A
:104CD000A9F788EE95E20E94DF1C8AED95E20E941A
:104CE0001E0E19821A821B821C8289819A81AB81D5
:104CF000BC8183709927AA27BB270097A105B1051E
:104D000009F093C00E94801B84E00E94A11B0E94B6
:104D1000821C69817A818B819C810E94C51C69817A
:104D20007A818B819C810E94931C0E94D91C81E016
:104D300090E00E94E80589819A81AB81BC8101964F
:104D4000A11DB11D89839A83AB83BC83CECF81E043
:104D50000E94F90684EF91E00E94E80580E00E943D
:104D6000F9068DEE95E20E941F0B0E944F1B1982DF
:104D70001A821B821C8289819A81AB81BC818370DB
:104D80009927AA27BB27892B8A2B8B2B21F40E94DA
:104D9000801B0E94821C2091810994E0299FF001D0
:104DA0001124ED57F64F80819181A281B381009744
:104DB000A105B105F1F010821182128213822F5FDA
:104DC0002F7020938109282FC92EDA2EEB2EFF2475
:104DD000BD01882799276D83203C09F093C00E946C
:104DE000531B41E0AD81A11101C040E06C2D0E9438
:104DF000B80569817A818B819C810E94C51C69817B
:104E00007A818B819C810E94931C81E090E00E94BA
:104E1000E80589819A81AB81BC810196A11DB11DF4
:104E200089839A83AB83BC83A6CF81309105A1058A
:104E3000B10509F441C00297A105B10509F069CF98
:104E4000E091810924E0E29FF0011124ED57F64F33
:104E50002081318180819181A281B3810097A10558
:104E6000B10509F456CF3093C8092093C709A09320
:104E7000C90963E087EC99E00E94F70A0E94050BDC
:104E800064E083EC99E00E94100B8130B1F58091D1
:104E9000C309803F91F58091810994E0899FF001D9
:104EA0001124ED57F64F10821182128213828F5F08
:104EB0008F70809381092DCFE0E4E093C70961E012
:104EC00087EC99E00E94F70A0E94050B64E083ECEE
:104ED00099E00E94100B843009F01BCF8091C30928
:104EE000813409F016CF0E94561B05E120E044EC06
:104EF00059E065E10E944A050CCF8EEE95E00E94D4
:104F0000C02A07CF213C09F074CF8C2D0E941E0FC0
:104F100070CF259A2D98089598E0880F30F02D9A3B
:104F20000000000000002D98000088F42D9A000079
:104F30000000000000000000000000000000000071
:104F400000002D9800000000000000000000880F05
:104F50009A9521F7089560E076E980E090E00E945C
:104F600056090E9423070E94B41F0E944A252BEC79
:104F700031E049EC51E063E082E00E94E41C68EC1F
:104F800071E081E00E94681D8CE19DE10E94241B7C
:104F900081E89DE10E94241B82EC9FE10E94371B67
:104FA00088E595E20E94371B89E799E00E94451B3E
:104FB0000E941E2690E080E00895DB018F939F936E
:104FC0000E943828BF91AF91A29F800D911DA39F91
:104FD000900DB29F900D1124089597FB072E16F4A3
:104FE000009407D077FD09D00E94432807FC05D024
:104FF0003EF4909581959F4F0895709561957F4FF0
:105000000895A1E21A2EAA1BBB1BFD010DC0AA1F09
:10501000BB1FEE1FFF1FA217B307E407F50720F021
:10502000A21BB30BE40BF50B661F771F881F991F9C
:105030001A9469F760957095809590959B01AC01E5
:10504000BD01CF010895EE0FFF1F0590F491E02DF3
:105050000994A29FB001B39FC001A39F700D811D51
:105060001124911DB29F700D811D1124911D089571
:105070000E942928A59F900DB49F900DA49F800D9C
:10508000911D11240895AA1BBB1B51E107C0AA1F43
:10509000BB1FA617B70710F0A61BB70B881F991FD9
:1050A0005A95A9F780959095BC01CD010895505867
:1050B000BB27AA270E946F280C94E2290E94D429BA
:1050C00038F00E94DB2920F039F49F3F19F426F4D0
:1050D0000C94D1290EF4E095E7FB0C94CB29E92F31
:1050E0000E94F32958F3BA176207730784079507DC
:1050F00020F079F4A6F50C94152A0EF4E0950B2E09
:10510000BA2FA02D0B01B90190010C01CA01A00119
:105110001124FF27591B99F0593F50F4503E68F174
:105120001A16F040A22F232F342F4427585FF3CFB5
:10513000469537952795A795F0405395C9F77EF486
:105140001F16BA0B620B730B840BBAF09150A1F0CF
:10515000FF0FBB1F661F771F881FC2F70EC0BA0F55
:10516000621F731F841F48F4879577956795B795DD
:10517000F7959E3F08F0B0CF9395880F08F09927D8
:10518000EE0F9795879508950E94A72908F481E06E
:1051900008950E94DD280C94E2290E94DB2958F032
:1051A0000E94D42940F029F45F3F29F00C94CB29C8
:1051B00051110C94162A0C94D1290E94F32968F3FA
:1051C0009923B1F3552391F3951B550BBB27AA27C0
:1051D00062177307840738F09F5F5F4F220F331FFA
:1051E000441FAA1FA9F335D00E2E3AF0E0E832D0C2
:1051F00091505040E695001CCAF72BD0FE2F29D0C5
:10520000660F771F881FBB1F261737074807AB0796
:10521000B0E809F0BB0B802DBF01FF2793585F4F0B
:105220003AF09E3F510578F00C94CB290C94162A45
:105230005F3FE4F3983ED4F3869577956795B795ED
:10524000F7959F5FC9F7880F911D9695879597F9F8
:105250000895E1E0660F771F881FBB1F6217730771
:105260008407BA0720F0621B730B840BBA0BEE1F86
:1052700088F7E09508950E94FB2988F09F5798F0E1
:10528000B92F9927B751B0F0E1F0660F771F881F4B
:10529000991F1AF0BA95C9F714C0B13091F00E9465
:1052A000152AB1E008950C94152A672F782F8827C6
:1052B000B85F39F0B93FCCF3869577956795B3958C
:1052C000D9F73EF490958095709561957F4F8F4FFB
:1052D0009F4F0895E89409C097FB3EF49095809500
:1052E000709561957F4F8F4F9F4F9923A9F0F92FAC
:1052F00096E9BB279395F695879577956795B7952A
:10530000F111F8CFFAF4BB0F11F460FF1BC06F5F0F
:105310007F4F8F4F9F4F16C0882311F096E911C021
:10532000772321F09EE8872F762F05C0662371F042
:1053300096E8862F70E060E02AF09A95660F771F56
:10534000881FDAF7880F9695879597F90895990F32
:105350000008550FAA0BE0E8FEEF16161706E8073F
:10536000F907C0F012161306E407F50798F0621B60
:10537000730B840B950B39F40A2661F0232B242B35
:10538000252B21F408950A2609F4A140A6958FEF54
:10539000811D811D089597F99F6780E870E060E0A6
:1053A00008959FEF80EC089500240A9416161706BE
:1053B00018060906089500240A9412161306140606
:1053C00005060895092E0394000C11F4882352F069
:1053D000BB0F40F4BF2B11F460FF04C06F5F7F4F21
:1053E0008F4F9F4F089557FD9058440F551F59F008
:1053F0005F3F71F04795880F97FB991F61F09F3FC2
:1054000079F087950895121613061406551FF2CFEA
:105410004695F1DF08C0161617061806991FF1CF3A
:1054200086957105610508940895E894BB27662761
:105430007727CB0197F908950E94A72908F48FEFE9
:1054400008950E94342A0C94E2290E94D42938F04D
:105450000E94DB2920F0952311F00C94CB290C94A9
:10546000D12911240C94162A0E94F32970F3959FD8
:10547000C1F3950F50E0551F629FF001729FBB274B
:10548000F00DB11D639FAA27F00DB11DAA1F649FE7
:105490006627B00DA11D661F829F2227B00DA11D9A
:1054A000621F739FB00DA11D621F839FA00D611D20
:1054B000221F749F3327A00D611D231F849F600D41
:1054C000211D822F762F6A2F11249F5750409AF06A
:1054D000F1F088234AF0EE0FFF1FBB1F661F771FF6
:1054E000881F91505040A9F79E3F510580F00C94C1
:1054F000CB290C94162A5F3FE4F3983ED4F38695AB
:1055000077956795B795F795E7959F5FC1F7FE2B60
:10551000880F911D9695879597F90895FB01DC01F9
:1055200002C001900D9241505040D8F70895DC011F
:1055300001C06D9341505040E0F70895FB01DC013C
:1055400001900D920020E1F70895B0E0A0E0EBEAB1
:10555000FAE20C94D12DFE01359661917191AF0163
:105560008091CD099091CE090E940F2BE2E00C941E
:10557000ED2D6091CD097091CE090E94F82C08950F
:105580000F931F93CF93DF93E091CD09F091CE0954
:10559000238100E010E021FD0EC00FEF1FEFC801D6
:1055A000DF91CF911F910F9108950995892B11F0EB
:1055B0000FEF1FEFCE01EC0189916091CD09709141
:1055C000CE09DB011896ED91FC918111EECF8AE0B6
:1055D0000995892B21F3E1CFAEE0B0E0E2EFFAE2EA
:1055E0000C94CF2D0D891E8986E08C831A83098344
:1055F0008FEF9FE79E838D83AE01475E5F4F6F897C
:10560000788DCE0101960E940F2B2F813885020FD5
:10561000131FF80110822E96E4E00C94EB2DAFE0FE
:10562000B0E0E5E1FBE20C94C12D7C013B018A0175
:10563000DC0117961C921E92169713968C9181FF8F
:10564000BEC19AE0292EFE0131964F01D701139673
:105650009C91F30193FD859193FF81913F018823F4
:1056600009F444C1853239F493FD859193FF81910A
:105670003F01853229F4B70190E00E94F82CE6CF73
:10568000B12C412C512CBFE1B51538F08B3209F10A
:1056900088F4803201F1833221F157FC3AC020EDC9
:1056A000280F2A3040F556FE1FC0B29C200D112451
:1056B000B22E06C08D3291F0803379F7689450F89D
:1056C000F30193FD859193FF81913F018111DBCF20
:1056D00020C0689451F8689452F8F2CF689453F857
:1056E000EFCF689454F8ECCF429C200D1124422E49
:1056F000689455F8E5CF8E3229F456FCF7C06894CB
:1057000056F8DECF8C3619F4689457F8D9CF88361E
:10571000B9F2982F9F7D95549330C0F0833681F174
:105720008337A1F1833509F05BC0D801CD90DD90BE
:105730008D016B2D70E056FC02C06FEF7FEFC6014C
:105740000E94E22C5C01689457F80AC00C5F1F4F5E
:10575000EFE3E983AA24A394B12C6401E89457F8F9
:1057600053FE29C0342CA114B10451F5332009F49F
:105770006DCFB70180E290E00E94F82C3A94F6CF0A
:10578000D8018C9189830E5F1F4FE4CFF801C1903F
:10579000D1908F016B2D70E056FC02C06FEF7FEF50
:1057A000C6010E94ED2C5C01D9CFB70180E290E0E8
:1057B0000E94F82C4A944A141B0409F0B0F7D2CF87
:1057C000F60157FC859157FE81916F01B70190E07A
:1057D0000E94F82C31103A94B1E0AB1AB108C3CF53
:1057E000843619F0893609F071C0F80157FE67C098
:1057F00061917191819191918F01E52DEF76DE2E6E
:1058000097FF09C090958095709561957F4F8F4F58
:105810009F4F6894D7F82AE030E0A4010E94282D19
:10582000C82EC818AC2C5D2CD6FE0CC0E89450F8DD
:10583000CB1440F4D4FE05C0D2FC03C05D2D5E7EC7
:10584000552EAB2C54FE93C0FE01EC0DF11D808152
:10585000803309F085C0652D697E562E752D7870D0
:10586000372E53FC93C050FE8DC0BC2CA41410F4F2
:10587000B40CBA1854FE90C0B70180E390E00E94C7
:10588000F82C52FE07C088E751FC88E590E0B7018C
:105890000E94F82CCB1408F48BC0CA94D12C8FEF43
:1058A000C81AD80AC80CD91CD6018E916D01B7014F
:1058B00090E00E94F82C8C149D04B1F757CF6191B1
:1058C0007191072E000C880B990B96CFD52CE8947C
:1058D000D4F82AE0853729F1F52DF97FDF2E8037BE
:1058E000A1F058F48835A1F08F36D1F0F701868108
:1058F00097812F96E2E10C94DD2D8837B9F7D4FE1D
:1059000002C06894D2F820E10CC06894D4F8F7CFB4
:1059100054FE03C02F2F2660D22E20E132E002C0B9
:1059200028E030E0F801D7FE15C041915191619116
:1059300071914C875D876E877F878F01A4016C858D
:105940007D858E859F850E94282DC82EC818E894D5
:10595000D7F868CF81919191AC0170E060E0E9CF18
:1059600052FC02C0A3947ACFA394A39477CF852D41
:10597000867809F473CFF6CFB70180E290E00E94F9
:10598000F82CA394A414C0F3312C74CF342C3A18FF
:10599000A41408F46FCFF8CF852D867809F47ACF58
:1059A0008BE251FE80E257FC8DE2B70190E070CFB0
:1059B000B70180E390E00E94F82CBA946BCF8FEF90
:1059C0009FEF97CFFC010590615070400110D8F710
:1059D000809590958E0F9F1F0895FC016150704037
:1059E00001900110D8F7809590958E0F9F1F089514
:1059F0000F931F93CF93DF93182F092FEB018B8108
:105A000081FD09C01FEF0FEF812F902FDF91CF9104
:105A10001F910F91089582FF14C02E813F818C81C8
:105A20009D81281739073CF4E881F981CF0101965F
:105A30009983888310838E819F8101969F838E83B3
:105A4000E3CFE885F985812F0995892BA1F3DACF7A
:105A5000FA01AA27283051F1203181F1E8946F939F
:105A60006E7F6E5F7F4F8F4F9F4FAF4FB1E03ED045
:105A7000B4E03CD0670F781F891F9A1FA11D680FE3
:105A8000791F8A1F911DA11D6A0F711D811D911D16
:105A9000A11D20D009F468943F912AE0269F11248B
:105AA0003019305D3193DEF6CF010895462F4770EF
:105AB000405D4193B3E00FD0C9F7F6CF462F4F704A
:105AC000405D4A3318F0495D31FD4052419302D0A8
:105AD000A9F7EACFB4E0A69597958795779567954E
