:100000000C94DC040C94F9040C94F9040C94DD2495
:100010000C94F9040C94F9040C94F9040C94F9046C
:100020000C94F9040C94F9040C9400070C94240724
:100030000C94F9040C94F9040C94F9040C94F9044C
:100040000C94F9040C94F9040C94F9040C94F9043C
:100050000C94F9040C94F9040C94F9040C94F9042C
:100060000C94F9040C94F9040C94F9040C94F9041C
:100070000C94F9040C94F9040C94F9040C94F9040C
:100080000C94F9040C94F9040C94F9040C94F904FC
:100090000C94F9040C94F9040C94F9040C94F904EC
:1000A0000C94F9040C94F9040C94F9040001000078
:1000B000660212000200007C015B002200004A027E
:1000C0001C002100008E0109002201000A024000EC
:1000D000210100AE010900220200D70133002102F4
:1000E00000C7010900030000780104010309046648
:1000F0000110020309043401300303090400013232
:10010000320330003000300030003000300030006A
:10011000300030003000300030003000300030005F
:10012000300030003000300030003000300030004F
:100130003000000030034B00650072006D00690064
:100140007400650020004B006500790062006F00BC
:1001500061007200640020004400650076006900C0
:1001600063006500000010034B00650072006D0025
:1001700069007400650000000403090409025B00C3
:10018000030100C03209040000020300000009213D
:1001900011010001221C0007058103400002070530
:1001A00002034000080904010001030101000921C4
:1001B0001101000122400007058303080001090422
:1001C0000200010301020009211101000122330094
:1001D0000705840308000105010902A101050919A9
:1001E000012903150025019503750181029501750B
:1001F0000581030501093009311581257F750895B1
:10020000028106093895018106C005010906A10190
:1002100075019508050719E029E7150025018102F8
:1002200095017508810395057501050819012905D2
:10023000910295017503910395067508150026FF37
:10024000000507190029FF8100C006ABFF0A000264
:10025000A1017508150026FF00954009018102954E
:100260004009029102C0120100020000002055F076
:1002700077A500010102030101130304000000023D
:10028000150305000000031703060000000419030E
:1002900007000000051B0308000000061D030900FD
:1002A0000000071F030A0000000821030B000000E4
:1002B0000994030C0000000A23030D0000000B2525
:1002C000030E0000000C27030F0000000D2903108F
:1002D0000000000E2B03110000000F2D0312000080
:1002E00000102F031300000011310314000000124E
:1002F0003303150000001356031600000014CC054C
:100300001700000015350318000000163703190008
:1003100000001739031A000000183B031B000000FF
:10032000193D031C0000001A3F031D0000001B754F
:1003300003270200001C79031E0200001D7D031F1D
:100340000200001E5F03200200001F620321020062
:10035000002065032202000021680323020000221E
:100360006B0324020000236E0325020000247103A6
:1003700026020000254103290000002645032C0029
:100380000000274B03280000002851032B00000029
:100390002955032A0000002A58033A0000002B5B6D
:1003A000033B0000002C5E033C0000002D61033D78
:1003B0000000002E64033E0000002F67033F000092
:1003C00000306A0340000000316D0341000000323C
:1003D00070034200000033730343000000347703CE
:1003E00044000000357B0345000000588003E10015
:1003F0000000578703E0000000598D03E200000071
:100400005A9203E30000009F7F03E10000009E86F4
:1004100003E0000000A08C03E2000000A19103E3D0
:10042000000000A39603E5000000A29D03E4000085
:1004300000A4A303E6000000A5A803E70000005BFA
:10044000AD034A0000005CB2034D0000005DB6033E
:10045000490000005EBD034C0000005FC4034B0078
:10046000000060CB034E00000061D203500000008A
:1004700062D7034F00000063C8035200000064DD30
:1004800003510000006AE203350000006BEA0388B4
:100490000000006DF4038A0000006CFB038B000079
:1004A00000360104370237023703043602360238B9
:1004B00005041E011E01390704380138013A0904F8
:1004C000330134023B0B04330233023C0D042D0193
:1004D00087013D0F042E0133013E53052D022D02ED
:1004E0003F1104250134014013043802380241153C
:1004F000042E022D01421704240123014319043163
:10050000018901441B0423012E02451D0435012EDF
:1005100001461F041F012F0247210420012001482A
:10052000230421012101492504310289024A2804BA
:10053000220122014B2A04310287024C2C0434028E
:1005400024014D2E0434011F014E300435022F01C9
:100550004F3204260125015034042701260151366B
:10056000042F023002523804300231025336042F75
:1005700001300154380430013101553A0436013656
:1005800001563C043701370100AEA81FD30040A13B
:10059000C8DA02813FA4A6D5808D142002AF0000E6
:1005A00000000000005E00000006000600247E241B
:1005B0007E24002E7A2F3A00661668660036494976
:1005C00036000600000000003E41000000413E00F1
:1005D000082A1C2A0808083E0808004020000000DD
:1005E00008080808000020000000300C0300007F0D
:1005F00041417F0000417F40007949494F0049490E
:10060000497F000F08087F004F494979007F494919
:10061000790001710907007F49497F004F49497FEF
:100620000000240000000040240000081422000004
:100630001414141400002214080002015906007F4B
:100640005D557D007F11117F007F49497E007F410C
:100650004141007F41413E007F494949007F0909EE
:1006600009007F414979007F08087F00417F4100F0
:10067000004040413F007F083641007F4040407FBE
:10068000017F017F7F031C607F007F41417F007FEE
:1006900009090F007F41215F007F19294F004F4951
:1006A000497901017F0101007F40407F007F4020A8
:1006B0001F7F407F407F00631C1C6303047804039A
:1006C0000061514D4300007F410000030C304000A9
:1006D00000417F00000402040000202020200004CC
:1006E000020000007454547C007F44447C007C442D
:1006F0004444007C44447F007C54545C00047F05E7
:100700000000BCA4A4FC007F04047C0000007D0069
:10071000000080FD00007F10284400007F40007C26
:10072000047C047C007C04047C007C44447C00FC4D
:1007300024243C003C2424FC00007C0404005C5481
:10074000547400047F4400007C40407C007C4020C6
:100750001C7C407C407C0044383844009CA0403CD9
:10076000004464544C000402000000087F41000073
:1007700000007F000000417F080000000000000032
:1007800000000000000000000080FFFF0780FFFF66
:100790000780FFFF0780FFFF070000070000800FB2
:1007A0000000C01F0000F03F0000F87F0000FCFCCC
:1007B00000007EF801803FE003800FC007800780C3
:1007C000078003000780010006000000040000000D
:1007D000000000000080FFFF0780FFFF0780FFFF91
:1007E0000780FFFF078087870780878707808787C5
:1007F00007808787078087870780878707808787A5
:10080000078087870780878707808787078007801B
:1008100007000000000000000000000000000000D1
:100820000080FFFF0780FFFF0780FFFF0780FFFFBB
:100830000780071E0080071E0080071E0080071E1D
:100840000080077E008007FE00800FFF01809FFF71
:100850000700FFEF0700FF8F0700FE070700F80102
:100860000600000000000000000000000080FFFF04
:100870000700FFFF0700FEFF0700F8FF0700F00377
:100880000000E0070000C00F0000801F0000007F94
:10089000000000FC000000FC0000007F0000801F42
:1008A0000000C00F0000E0070000F0030000F8FFA8
:1008B0000700FEFF0700FFFF0780FFFF07000000A3
:1008C0000000000000000000000000000000000028
:1008D0000080FFFF0780FFFF0780FFFF0780FFFF0B
:1008E000070000000000000000000000008007007A
:1008F00000800700008007000080070000800700DC
:10090000008007000080FFFF0780FFFF0780FFFFD8
:100910000780FFFF078007000080070000800700B6
:100920000080070000800700008007000000000032
:100930000080FFFF0780FFFF0780FFFF0780FFFFAA
:100940000780878707808787078087870780878753
:100950000780878707808787078087870780878743
:100960000780878707808787078007800700000048
:10097000000000000000000000BF227922F62105DF
:10098000234A200000FF000044FF0000FFFF00009A
:10099000FF660000FF000044FF0000FFFF0000FFB3
:1009A000440000FF000000FF004400FF00FF00447F
:1009B00000FF00FFFFFF000011241FBECFEFDAE0B1
:1009C000DEBFCDBF16E0A0E0B1E0EAE7FDE502C082
:1009D00005900D92A634B107D9F728E0A6E4B6E059
:1009E00001C01D92A03EB207E1F70E946F280C944F
:1009F000B42E0C940000EF92FF920F931F93CF93AD
:100A0000DF93EC018C01060F171F8FE5E82E81E0C4
:100A1000F82EC017D10751F48AE090E0DF91CF9112
:100A20001F910F91FF90EF900C94752B89911F925D
:100A30008F93FF92EF920E94612B0F900F900F9077
:100A40000F90E7CFEF92FF920F931F93CF93DF9317
:100A5000EC018C01060F171F85E6E82E81E0F82EC9
:100A6000C017D10751F48AE090E0DF91CF911F9138
:100A70000F91FF90EF900C94752B89911F928F939B
:100A8000FF92EF920E94612B0F900F900F900F90AA
:100A9000E7CFFB01DC01460F571FE417F50709F408
:100AA000089581918D93F9CFAF92BF92CF92DF924B
:100AB000EF92FF920F931F93CF93DF93DC01162FDA
:100AC000EA0190E061E070E090130BC0DF91CF91FC
:100AD0001F910F91FF90EF90DF90CF90BF90AF905C
:100AE0000895892F810F382F3695369536957D01DB
:100AF000E30EF11CF701308187705B0101C0AA0C85
:100B00008A95EAF7892F820F482F46954695469594
:100B10004C0F5D2F511DFA01408150E087706B0131
:100B200002C0CC0CDD1C8A95E2F74C215D21832F9D
:100B30008A29452B21F4EA2DE0958E2F8323F70196
:100B400080839F5FC1CFFC01DB01480F591FE41771
:100B5000F50711F481E0089591918D919817B9F3FB
:100B600080E00895FB01DC01460F571FE417F507ED
:100B700009F40895819190E08D939D93F7CF70E0F3
:100B80000C94532B262F269526952695FC01E20FD3
:100B9000F11D9081677021E030E001C0220F6A955D
:100BA000EAF7442319F0922B90830895209592231D
:100BB000FBCF262F269526952695820F911DFC01A9
:100BC000208130E0677081E090E002C0880F991FBB
:100BD0006A95E2F72823392381E0121613060CF0F8
:100BE00080E008959B01BA01FC0190E080E082174B
:100BF000930714F080E008954191519146175707EB
:100C000011F00196F4CF81E008959C0190E080E01E
:100C10008217930709F40895EFE9FFE03197F1F7A0
:100C200000C000000196F4CF9C0190E080E08217A4
:100C3000930709F4089545E04A95F1F700000196FD
:100C4000F6CF78940895F89408951092D800A89556
:100C500014BEE0E6F0E08081886180831082089510
:100C6000E82FE695E695E69593E0E99FF0011124DB
:100C700035A1282F277081E090E001C0880F2A95C8
:100C8000EAF78095832385A30895E82FE695E695F6
:100C9000E69593E0E99FF001112494A1877021E08B
:100CA00030E001C0220F8A95EAF7892F822B84A3B6
:100CB0000895E82FE695E695E69593E0E99FF00123
:100CC000112434A1282F277081E090E001C0880F03
:100CD0002A95EAF78095832384A30895E82FE69563
:100CE000E695E69563E0E69FF001112444A1877044
:100CF00021E030E0B90102C0660F771F8A95E2F764
:100D0000CB01962F9095942394A395A1892B85A32D
:100D10000895662399F0E82FE695E695E69593E029
:100D2000E99FF001112495A1877021E030E001C016
:100D3000220F8A95EAF7922B95A308950C9430061A
:100D4000E82FE695E695E695EF5F93E0E99FF001E1
:100D5000112490A1877021E030E002C0220F331FE0
:100D60008A95E2F7892F90E02823392381E0121633
:100D700013060CF080E00895E82FE695E695E695D9
:100D800093E0E99FF001112495A1877021E030E004
:100D900001C0220F8A95EAF7892F822785A308953B
:100DA00086958695869523E0829FC00111248596BD
:100DB00008958695869586958F5F23E0829FC00172
:100DC0001124809608958770089561E00C94890637
:100DD0000C943006E82FE695E695E695EF5F93E0F4
:100DE000E99FF001112490A1877021E030E001C05B
:100DF000220F8A95EAF7892F822B80A30895089500
:100E00001F921FB61F9211248F939F938091E10030
:100E10001092E10083FF0FC01092E90091E09093DF
:100E2000EB001092EC0092E29093ED0098E090932A
:100E3000F0001092470682FD809147069F918F91A6
:100E40001F901FBE1F9018951F920F920FB60F9202
:100E50001124EF92FF920F931F932F933F934F9381
:100E60005F936F937F938F939F93AF93BF93CF9332
:100E7000DF93EF93FF931092E9008091E80083FFE6
:100E80005AC09091F1008091F1002091F1003091D1
:100E9000F1004091F1005091F1006091F1007091EA
:100EA000F100E2EFE093E800863009F087C08CEAB9
:100EB00090E0A0E0B1E0FC01C591D4912C173D0772
:100EC00009F034C0FC013296C591D4914C175D07EE
:100ED00069F5FC013496459154910696FC01849184
:100EE0006F3F710519F010F06FEF70E0F62E861766
:100EF00008F4F82EBA018EEFE82E8091E800982FC2
:100F00009570D9F382FD2CC08F2DF0E2FF1508F407
:100F100080E223303207A9F0FB01982F9923A9F032
:100F2000A491A093F10091503196F8CF0796A8179D
:100F3000B90709F0C0CF81E28093EB0011C0F92E10
:100F4000DCCF8B01982F911122C0680F711D9F2D4E
:100F5000981BE092E800F812F2CF80E2F81679F3DD
:100F6000FF91EF91DF91CF91BF91AF919F918F91C1
:100F70007F916F915F914F913F912F911F910F91B1
:100F8000FF90EF900F900FBE0F901F901895E80103
:100F9000C41BD50BAC2FF801B491C23048F0A2505D
:100FA000B0E0C0FD05C0A695B0E0A85BB94FBC910C
:100FB000B093F10091500F5F1F4FC5CF853059F4AA
:100FC0008EEF8093E8008091E80080FFFCCF2068DE
:100FD0002093E300C5CF8930C9F5911137C0209324
:100FE00047068EEF8093E80081E08093E9008093CC
:100FF000EB0091EC9093EC0026E32093ED0032E0BF
:101000003093E9008093EB0030EC3093EC002093B8
:10101000ED0023E02093E9008093EB009093EC0037
:1010200026E02093ED0034E03093E9008093EB005C
:101030009093EC002093ED0089E691E00E947C2BD8
:101040008EE18093EA001092EA008ACF41155105A3
:1010500039F4913209F06FCF8A3009F06CCF15C0A6
:1010600041305105B1F4913209F065CF8930A1F7D3
:101070008091E80082FFFCCF8091F10080934606CA
:10108000809146068BEF8093E8008EEF8093E80016
:1010900067CF42305105E9F24ECF80E8809361007E
:1010A0001092610081E08093D70080EA8093D8009D
:1010B00082E189BD09B400FEFDCF80E98093D800AC
:1010C0001092E000109247068CE08093E2000895B1
:1010D00090914706911102C080E0089593E09093AB
:1010E000E9009091E80095FFF7CFF8948093F10024
:1010F0001092F100FB01CB01069621912093F100A3
:10110000E817F907D1F78AE38093E800789481E043
:10111000089520914706211102C080E0089523E040
:101120002093E9002091E80025FFF7CFF894FC0117
:10113000089621912093F100E817F907D1F78AE387
:101140008093E800789481E008952091470621116A
:1011500002C080E0089521E02093E9002091E8009A
:1011600025FFF7CFF894FC01805C9F4F21912093DD
:10117000F100E817F907D1F78AE38093E800789443
:1011800081E0089520914706211102C080E0089572
:1011900022E02093E9002091E80025FFF7CFF894A2
:1011A000FC01805C9F4F2091F1002193E817F90723
:1011B000D1F78BE68093E800789481E008959091D0
:1011C000470681E0911101C080E0089588E496E02F
:1011D000089508951092D800089580E094E008954D
:1011E000F999FECF0C94522EF999FECF0C946A2EE9
:1011F000F999FECF0C945A2EF999FECF0C94782EC3
:10120000382F292FCB01F999FECF632F722F0C9421
:10121000422E382F292FCB01F999FECF632F722F41
:101220000C94602ECF93DF93D0E0C0E060E0CE015D
:101230000E94F4082196C11584E0D807B9F7DF9120
:10124000CF910895089508955198599A5098589AB1
:101250001092B9008CE08093B80008959A0194EA46
:101260009093BC009091BC0097FFFCCF880F8093B7
:10127000BB0084E88093BC008091BC0087FFFCCF5A
:10128000FB0190E080E044E88217930724F084E9B2
:101290008093BC00089551915093BB004093BC00D3
:1012A0005091BC0057FFFCCF0196EECF9A0194EA13
:1012B0009093BC009091BC0097FFFCCF880F816099
:1012C0008093BB0084E88093BC008091BC0087FFC2
:1012D000FCCFFB0190E080E0A9014150510964E896
:1012E00074EC8217930724F084E98093BC0008957E
:1012F000841795075CF47093BC00A091BC00A7FF15
:10130000FCCFA091BB00A1930196EBCF6093BC00F2
:10131000F4CF94EA9093BC009091BC0097FFFCCF6F
:10132000880F8093BB0084E88093BC008091BC0050
:1013300087FFFCCF08958093BB0084E88093BC00B6
:101340008091BC0087FFFCCF089584E98093BC00A6
:1013500008958F929F92AF92BF92CF92DF92EF92B9
:10136000FF920F931F93CF93DF935C01EB016A0110
:1013700079014801CC15DD0510F5CE010E94F80871
:101380008C01CE0102960E94F8089C010A151B05EB
:10139000A1F42496F701D183C083F4013183208323
:1013A000DF91CF911F910F91FF90EF90DF90CF9041
:1013B000BF90AF909F908F900895892B29F4D0E033
:1013C000C0E030E020E0E6CF2C5F3F4FC20FD31FDC
:1013D000D1CFEF92FF920F931F93CF93DF93D82F2C
:1013E000C92F7B018A010E94ED08AC01970162E0E0
:1013F00070E08D2F9C2F0E94A909DF91CF911F9142
:101400000F91FF90EF900895CF93DF9300D000D01D
:10141000CDB7DEB7AE014F5F5F4FBE016D5F7F4F4F
:101420000E94E9098B819C810F900F900F900F9083
:10143000DF91CF910895CF92DF92EF92FF920F93B9
:101440001F93CF93DF9300D000D0CDB7DEB76C01F0
:101450007B018A01AE014F5F5F4FBE016D5F7F4F21
:1014600080E79AEA0E94E9096B817C816115710528
:10147000A9F049815A81460F571F9701C6010E9462
:10148000A9090F900F900F900F90DF91CF911F91AE
:101490000F91FF90EF90DF90CF900895F7011182A8
:1014A0001082F80111821082ECCFAF92BF92CF92DE
:1014B000DF92EF92FF920F931F93CF93DF9300D0B1
:1014C00000D0CDB7DEB78FE791E00E947C2B90E093
:1014D00080E00E94F8088E37934A09F044C0AE01BC
:1014E0004F5F5F4FBE016D5F7F4F80E19AEA0E94C0
:1014F000E909E980FA80AE014F5F5F4FBE016D5F81
:101500007F4F80E29AEA0E94E909A980BA80AE0181
:101510004F5F5F4FBE016D5F7F4F80E39AEA0E948D
:10152000E909C980DA80AE014F5F5F4FBE016D5F90
:101530007F4F80E49AEA0E94E90909811A8180E7D5
:101540009AEA0E94040A9C0182E1A816B10459F4A7
:101550008DE0C816D10439F40E291F29012B19F486
:10156000232B09F04AC089EA91E00E947C2B0E945B
:1015700012096EE773EA90E080E00E94FC0860E2E6
:101580007AEA82E090E00E94FC0862E170E084E088
:1015900090E00E94FC0860E37AEA88E190E00E9413
:1015A000FC086DE070E08AE190E00E94FC0860E7D2
:1015B0007AEA89E290E00E94FC0870E060E08BE249
:1015C00090E00E94FC0880E29AEA0E94040A0097D8
:1015D000D9F148E050E06CEC71E00F900F900F9063
:1015E0000F90DF91CF911F910F91FF90EF90DF90BF
:1015F000CF90BF90AF900C94090980E29AEA0E94C4
:10160000040A48E050E060E676E00E94000948E005
:1016100050E06CEC71E080E696E00E94A305882320
:1016200009F4A1CF86E991E00F900F900F900F90F1
:10163000DF91CF911F910F91FF90EF90DF90CF90AE
:10164000BF90AF900C947C2B0F900F900F900F9049
:10165000DF91CF911F910F91FF90EF90DF90CF908E
:10166000BF90AF900895CF93DF9380E79AEA0E94EE
:10167000040AEC01892B31F00E94ED089C012C1B1F
:101680003D0BE901CE01DF91CF91089580E29AEA06
:101690000E94040A0896089580E29AEA0E94040AC9
:1016A0004096089580E39AEA0C94040A8DE090E055
:1016B000089580E79AEA0C94040ACF93DF9300D050
:1016C00000D0CDB7DEB7AE014F5F5F4FBE016D5F9B
:1016D0007F4F81E79BEB0E941B0A8B819C810F90BF
:1016E0000F900F900F90DF91CF910895CF93DF93DC
:1016F00000D000D0CDB7DEB7AE014F5F5F4FBE0167
:101700006D5F7F4F84E79BEB0E941B0A8B819C815E
:101710000F900F900F900F90DF91CF910895CF937E
:10172000DF9300D000D0CDB7DEB7AE014F5F5F4F83
:10173000BE016D5F7F4F88E79BEB0E941B0A8B8188
:101740009C810F900F900F900F90DF91CF91089593
:10175000CF93DF9300D000D0CDB7DEB7AE014F5F9F
:101760005F4FBE016D5F7F4F88E79BEB0E941B0AB6
:1017700089819A810F900F900F900F90DF91CF91F8
:101780000895CF93DF9300D000D0CDB7DEB7AE0180
:101790004F5F5F4FBE016D5F7F4F86E79BEB0E94FF
:1017A0001B0A8B819C810F900F900F900F90DF91FF
:1017B000CF9108958F929F92AF92BF92CF92DF9276
:1017C000EF92FF920F931F93CF93DF93D0E0C0E08F
:1017D000EE24E394F12C87010C2E02C0000F111FA0
:1017E0000A94E2F78091680690916906802391231C
:1017F000892BF1F0FE01EA58F94F90808C2E8CE68F
:10180000A82E86E0B82ED12CC12C80916A0690912A
:101810006B06C816D906ECF0009510958091680605
:1018200090916906802391239093690680936806BE
:101830002196CD30D10579F6DF91CF911F910F918F
:10184000FF90EF90DF90CF90BF90AF909F908F90E0
:101850000895D501ED91FD915D01692D882D0995C2
:10186000BFEFCB1ADB0AD1CFCF93DF93D82FC92F8D
:1018700060916A0670916B06482F592F8CE696E0AE
:101880000E94F205811110C0E0916A06F0916B068A
:10189000CF01019690936B0680936A06EE0FFF1FAF
:1018A000E459F94FD083C183DF91CF910895E82F98
:1018B000F0E0E050FF4F60830895853011F461300F
:1018C00040F0E82FF0E0E050FF4F81E09081961764
:1018D00008F480E081700895DF92EF92FF920F93F9
:1018E0001F93CF93DF9306E716E0D0E0C0E085EDCD
:1018F000E82E81E0F82EF801D1908F016D2D8C2F0C
:101900000E945D0C811119C0FE01E15CFE4F8081D7
:10191000F801319780831F928F931F92DF92DF939C
:10192000CF93FF92EF920E94612BEDB7FEB73896EE
:101930000FB6F894FEBF0FBEEDBF2196CD30D10596
:10194000D1F6DF91CF911F910F91FF90EF90DF9033
:101950000895CF93DF93C82FD62F0E945D0C882364
:10196000E1F0EC2FF0E0EA58F94FD08321E030E0CD
:1019700002C0220F331FCA95E2F78091680690914A
:101980006906822B932B909369068093680688EBF7
:101990009BE090930E0180930D01DF91CF9108950C
:1019A000CF93C82F282F30E0F901E050FF4F9081EE
:1019B0002A58394FD901EC91F0E09F01260F371FCB
:1019C000442389F0692F70E06F5F7F4FCB01820F56
:1019D000931F0E949A288E179F0789F0682F8C2FDB
:1019E000CF910C94A90C37FD07C0892F90E02817E0
:1019F00039078CF7C901EFCF90E080E0ECCFCF91B1
:101A00000895CF93DF930E94520B909375068093B5
:101A10007406892B09F440C00E944C0BEC0100971E
:101A2000B1F00E94F008811112C04DE050E06FE368
:101A300071E080917406909175060E94090961E039
:101A4000CE010E94F40881E092E00E947C2B4DE0E0
:101A500050E066E776E080917406909175060E94EA
:101A600000090E946C0C209168063091690690E094
:101A700080E061E070E0AB01082E02C0440F551F0A
:101A80000A94E2F7242B352B01968D30910599F7B6
:101A90003093690620936806DF91CF910895462F11
:101AA00050E066E776E00C944905462F50E060E090
:101AB00071E00C944905E82FF0E0EA58F94F808175
:101AC00008950C94A90CEF92FF920F931F93CF935C
:101AD000DF938C01D0E0C0E0E62EF12CCE15DF05BF
:101AE0003CF0DF91CF911F910F91FF90EF900895FF
:101AF000F80161918F018C2F0E94A90C2196EECFE5
:101B00000F931F93CF930FE311E0C0E0F8016191B1
:101B10008F018C2F0E94A90CCF5FCD30B9F7CF91E8
:101B20001F910F910895813039F460917D066827E7
:101B300087E00E94A90C0895823041F0833069F457
:101B400041E06FEF7FEF88E00C94D00C41E061E062
:101B500070E08AE00E94D00C089541E061E070E0FE
:101B6000843089F340E060EF7FEF853031F040E072
:101B700060E170E0863009F0089589E0E5CF80915A
:101B80000D0190910E0118161906BCF4019790935F
:101B90000E0180930D01892B81F480917406909140
:101BA0007506009751F04DE050E066E776E00E9440
:101BB00009098FE192E00E947C2B0C94DA0B0C94C3
:101BC000DA0B86E796E00895CF93DF930E945D0BD2
:101BD000EC010E94330B209741F480E392E00E94D5
:101BE0007C2B80E0DF91CF910895892BB1F345E004
:101BF00050E063E876E0CE010E940009309184064F
:101C000020918506909186068091870640918306F3
:101C1000413019F7363009F72330F9F69F3FE9F2E2
:101C20008131D8F689E492E00E947C2B81E0DACF02
:101C3000E091D006F091D106309709F0099408950B
:101C40000E94DF08882351F08AE896E00E94A508E8
:101C5000811104C08BE692E00C947C2B0895909146
:101C60008906992399F09091880691110FC090EB05
:101C700090938A0692E090938B0691EE90938C0657
:101C800080938D0660938E060C94200E0895909399
:101C9000D1068093D0068FE29EE00E94340C0E9411
:101CA000460B9093CF068093CE060E94590B9093DB
:101CB000CD068093CC060E94330B9093CB06809385
:101CC000CA060895CF92DF92FF920F931F93CF938E
:101CD000DF938AE896E00E94C208882309F49DC039
:101CE00080918A06803B09F00CC190918B0680910F
:101CF0008C06913009F0ABC0803171F48EE892E02F
:101D00000E947C2B81E0DF91CF911F910F91FF907A
:101D1000DF90CF900C94180E803209F458C08132B5
:101D200009F083C0C0918D06D0918E06DC27CD27A7
:101D3000DC278091CC069091CD06C80FD91F009169
:101D40008F06109190061027012710271F930F93DD
:101D5000DF93CF9385EC92E09F938F930E94612B4A
:101D60000F900F900F900F900F900F90D12CC12CCF
:101D7000F12CC016D10609F060C01F92FF928DEDC4
:101D800092E09F938F930E94612B80EB80938A0651
:101D900081E080938B0682E280938C06F0928D0620
:101DA00010928E060E94200E0F900F900F900F90B1
:101DB0008091CC069091CD06B6010297DF91CF912C
:101DC0001F910F91FF90DF90CF900C94FC08C09171
:101DD0008D06D0918E06DC27CD27DC278091CC069E
:101DE0009091CD06C80FD91F10918F06412F50E05A
:101DF00060E976E0CE010E940909DF93CF931F923C
:101E00001F938DEA92E09F938F930E94612B0F9016
:101E10000F900F900F900F900F90DF91CF911F9127
:101E20000F91FF90DF90CF9008958131B1F785EE4B
:101E300092E00E947C2B82E066CFCE018C0D9D1D2E
:101E40000E94F008F8268FEFC81AD80A92CF923075
:101E5000A9F0933011F7803901F748E050E06DE8C0
:101E600076E08091CE069091CF06DF91CF911F91C1
:101E70000F91FF90DF90CF900C9409098038C9F43E
:101E800081E880938C068DE080938D066DE08EE86E
:101E900096E00E944F0D6DE08BE996E00E94550D93
:101EA000DF91CF911F910F91FF90DF90CF900C9415
:101EB000200E803979F0803AD9F460918E068091B5
:101EC0008D06DF91CF911F910F91FF90DF90CF9002
:101ED0000C94610D40918D0660918E0681E0809397
:101EE00088068FE896E00E94630D1092880695CFD1
:101EF000803B09F092CF81E0809388060E94800D9C
:101F0000F4CF803F79F0803D09F087CF80918B0638
:101F1000803109F05EC080918C06813009F057C095
:101F20008AE0F1CE80918B06803109F076CF81E195
:101F300080938B0610928C06C1E0C0938D0686E0DC
:101F400080938E06C0938F0648E050E06CEC71E001
:101F500080E996E00E944905C09398061092990680
:101F600048E050E06AE976E08091CE069091CF0695
:101F70000E9400098091CA069091CB069827892774
:101F800098279093A3068093A20640E150E060E07A
:101F900084EA96E00E94BF0546E050E063E073E00B
:101FA00084EA96E00E94490548E050E06AE073E068
:101FB00084EB96E00E94490583E08093BC0682E0B2
:101FC0008093BD060E94200EC093890626CF8BE029
:101FD0009ACE803209F021CF8CE896E0DF91CF9144
:101FE0001F910F91FF90DF90CF900C948908EAE841
:101FF000F6E090EE908390E99183828363830C9462
:10200000200EEAE8F6E020EE208321E921839827DC
:1020100089279827938382830C94200EEAE8F6E0C0
:1020200020EE208322E9218398278927982793830C
:1020300082830C94200EBC0148E050E08091CE06D3
:102040009091CF060C940009E8E7F2E030E020E040
:10205000949189130DC0611114C087E0829FF00133
:10206000839FF00D1124E558FD4F8591959115C082
:102070002F5F3F4F37962037310551F790E080E0D2
:10208000089587E0829FF001839FF00D1124E358AB
:10209000FD4F85919591009701F30895E8E7F2E0EF
:1020A00030E020E0949189130BC087E0829FF0011B
:1020B000839FF00D1124E758FD4F85919591089568
:1020C0002F5F3F4F37962037310561F790E080E072
:1020D0000895CF93DF930E94C10BEC01009749F064
:1020E0000E94F0088093D4062196D093D306C09323
:1020F000D206DF91CF910895AF92BF92CF92DF9237
:10210000EF92FF920F931F93CF93DF939C01B62E14
:102110008C010027107F832F8F70D82ED22FC12CD7
:1021200085E0A82E8091D406C816D8F5E090D20696
:10213000F090D306CA9CE00CF11C1124C7010E9448
:10214000F0088B1511F08F30A9F4C70101960E9499
:10215000F008C82FC70102960E94F008CC2311F0A6
:10216000C53B51F49FEF980F9E3F20F4DC1739F1E7
:10217000C53B29F1C394D6CFDC13FCCFD81611F0A0
:102180008F3FC1F7C70103960E94F008C82FC7010F
:1021900004960E94F008C63B09F0DC2F8E3F09F040
:1021A000D82EC8018D2B9D29DF91CF911F910F91C2
:1021B000FF90EF90DF90CF90BF90AF900895D8122E
:1021C000D9CFE0CF9C018827907F432F4F702F7786
:1021D00039EA320F343050F42755330B61E070E0A8
:1021E00001C0660F2A95EAF7462B20E0822B942B3C
:1021F0000895FC019081907681E0903409F080E0B0
:102200000895482FE8EDF6E030E020E05FE0529FCF
:10221000C001539F900D1124DC01A752B94F6C915E
:1022200060FF03C06281641749F02F5F3F4F3F9604
:102230002A30310561F790E080E008958752994F88
:1022400008958F929F92AF92BF92EF92FF920F9359
:102250001F93CF93DF939C01C62FD0E08E01080F10
:10226000191F60E070E0CB012017310799F440E0BE
:1022700024E030E02C1B3D0B42171306E4F0DF9105
:10228000CF911F910F91FF90EF90BF90AF909F90D3
:102290008F9008958824962EA72EB82E79014FEF9F
:1022A000E41AF40AC9010E94F0089401282BC50120
:1022B000B9019701D9CF982F872F762F66274F5FC7
:1022C000DBCF50E0542F44275295507F482B562B9C
:1022D00050685093700740936F070895CF93DF9332
:1022E0004091710750917207C82FD0E09A01082ED3
:1022F00002C0369527950A94E2F720FF29C021E015
:1023000030E0082E02C0220F331F0A94E2F7209516
:1023100030952423352330937207209371071F9241
:102320008F938EE394E09F938F930E94612BCC0F49
:10233000DD1FC857D84F89818F700F900F900F9075
:102340000F9031F080959091B00789238093B0076A
:10235000DF91CF910895CF92DF92EF92FF920F938A
:102360001F93CF93DF93F82EE090830703E817E0E5
:10237000D0E0C0E0C62E660FDD08CE1548F0DF9134
:10238000CF911F910F91FF90EF90DF90CF90089524
:10239000CC16DD0641F0F80185818770F81203C084
:1023A0008C2F0E946E1121960E5F1F4FE6CF0F9368
:1023B0001F93CF93C82F082F10E080917107909141
:1023C00072070C2E02C0969587950A94E2F780FD5D
:1023D00034C0000F111FF801ED57F84F8581877049
:1023E00019F06C2F0E94AB1121E030E00C2E02C0DE
:1023F000220F331F0A94E2F78091710790917207C0
:10240000822B932B90937207809371071F92CF9327
:102410008CE494E09F938F930E94612BF801E8571E
:10242000F84F81818F700F900F900F900F9029F0CF
:102430009091B007892B8093B007CF911F910F9196
:1024400008950F931F93CF93DF93EC018A859B85AB
:10245000AC85BD850097A105B10509F45AC0AC0152
:10246000BD012EE176956795579547952A95D1F749
:10247000413009F053C06091D606CD010E947C1016
:102480000E94E2108C018F77A801952F9F7031F088
:1024900090952091B10792239093B107882361F121
:1024A00061E09091D506923009F060E00E9424101E
:1024B0009C01982FA9014427517031FB222720F954
:1024C00014FF20E02170452B29F08091B2078D7F09
:1024D0008093B20721111092B307992369F0E4EBBE
:1024E000F7E02AEB37E08191981303C0DF011197E1
:1024F0001C922E173F07B9F78091710790917207D0
:10250000892B19F480E00E94D7111A861B861C863D
:102510001D86DF91CF911F910F910895423061F791
:10252000AC01BD0184E176956795579547958A95ED
:10253000D1F74F70413001F78B2F8F700E946E11D1
:10254000DBCF0F931F93CF938B019C01DC01CB0159
:102550004EE1B695A795979587954A95D1F7813025
:1025600009F057C06091D606C9010E947C100E94F4
:10257000E2108C018F77A801252F2F7029F0909100
:10258000B107922B9093B1078823C1F161E090913C
:10259000D506923009F060E00E9424109C01582F6B
:1025A000BC016627717031FB882780F914FF80E039
:1025B00081709091A807672B29F04091B207426083
:1025C0004093B207882329F09D7019F481E080932D
:1025D000B307552399F08091BA0796E08F5F863054
:1025E00009F480E0E82FF0E0E855F84F44854423F3
:1025F00011F0915099F78093BA072487809173075F
:102600008F3FC9F0809174078F3FA9F4109274072F
:1026100012C0823009F04DC0C32FCF7094E13695BF
:102620002795179507959A95D1F70F70013081F48A
:102630008C2F0E94D7118091710790917207892B7E
:1026400009F044C080E0CF911F910F910C94D711F5
:10265000023071F3033021F48C2F0E946E11EBCF06
:10266000043069F480917107909172070C2E02C0BA
:10267000969587950A94E2F780FDEECFD9CF053085
:10268000D1F68C2F0E94D711C09373078FEF8093E0
:10269000740782EA94E00E947C2BCDCF823009F04F
:1026A000ADCF9927832F722F612F822F0E94930D18
:1026B000A5CF833009F0A2CF832F8770813071F7C7
:1026C0006FEF822F87700E94AB1198CFCF911F912F
:1026D0000F9108952F923F924F925F926F927F9247
:1026E0008F929F92AF92BF92CF92DF92EF92FF9222
:1026F0000F931F93CF93DF9300D000D000D00F92A1
:10270000CDB7DEB7382E4B0193E8A92E97E0B92E4E
:102710002FE0C22ED12CFC2CCA82C4010C2C02C08A
:10272000969587950A94E2F780FD25C021E0C21AAC
:10273000D10832E0A31AB1084FEFC416D40659F7F6
:1027400090E080E027960FB6F894DEBF0FBECDBFB5
:10275000DF91CF911F910F91FF90EF90DF90CF907D
:10276000BF90AF909F908F907F906F905F904F90B1
:102770003F902F90089580918407909185079F83C3
:102780008E8380918607909187074E815F814817DD
:10279000590778F48E819F810E94F008182F8E814E
:1027A0009F8101960E94F008912F212F2F7797FD8E
:1027B00005C0F50184A187FFB9CFC2CF381649F013
:1027C00082E0820F2E813F81280F311D3F832E83AF
:1027D000D8CF8E819F81009761F30E94F008EE812F
:1027E000FF813296FF83EE838F778F01080F111DD3
:1027F0008E819F8180179107E0F68E819F810E94D4
:10280000F008982F8F708F1531F12E813F812F5F47
:102810003F4F9295977091509330D8F4C9010E9420
:10282000F008982F9295969596959370282F27707B
:10283000920F9F5F8695869586958770980F2E815B
:102840003F812E5F3F4FA901490F511D5F834E838A
:10285000CFCF90E0F8CFEE81FF81309709F4A9CF78
:10286000CF010E94F008182F129517708CEF810F7E
:10287000823058F5109375071092760710927707FB
:10288000109278071092790710927A0710927B07BE
:1028900010927C0710927D0710927E0710927F079E
:1028A0001092800710928107FFEFF09382078091CA
:1028B0007507853009F43ACF843009F441CF882375
:1028C00009F434CF85E797E03DCF8E819F81019653
:1028D0000E94F008082FE82EE294E694E69483E044
:1028E000E822E3942E813F812E5F3F4F3F832E836A
:1028F0006E2DC9010E942111262E7B838C839D831E
:102900008EEF810F823008F03FC0802F869586952C
:10291000869587708983F12C682F8E819F818E0D1B
:102920009F1D0E9421112B013C01133089F5602F5E
:102930006770C7013981830F911D4E815F81840FBC
:10294000951F0E94211110937507209276075B81D5
:1029500050937707EC81E0937807FD81F093790736
:1029600040927A0750927B0760927C0770927D07B5
:1029700060937E0770937F07809380079093810711
:102980002A812093820793CF412C512C612C712CEA
:1029900060E070E080E090E0D6CF0F931F93CF937C
:1029A000DF93EC018B819C81860F911D9C838B832F
:1029B0008881982F9F79988391FD05C082FF03C07D
:1029C0008D7982628883888181FF05C082FD03C082
:1029D0008D79806488838091D8068F3F21F091E0C3
:1029E0002981281301C090E0888190FB83F98883B6
:1029F00028853985232BE1F480768032C9F4009153
:102A0000710710917207B80189810E946A13FC0155
:102A1000892B71F085858D831F830E83E081F0E023
:102A2000EE0FFF1FE45BFE4F8081918199878887BD
:102A3000E885F985309741F0CE010995882321F08A
:102A40001F821E8219861886DF91CF911F910F91E8
:102A500008951F93CF93DF9300D000D000D0CDB75F
:102A6000DEB78D839E83162FAD81BE8116966D9144
:102A70007C91179711968C910E946A13FC01892B07
:102A8000C1F0113001F581819281A381B4818983E4
:102A90009A83AB83BC83BC01CD010E94A1128981C2
:102AA0009A81AB81BC81ED81FE8182879387A48767
:102AB000B58726960FB6F894DEBF0FBECDBFDF9167
:102AC000CF911F910895123029F485819681A781B5
:102AD000B085DDCF81859285A385B485D8CFCF938E
:102AE000DF93EC018A8124E0829FC0011124682BCE
:102AF0006A831C821B826B3169F461E0CE010E9403
:102B0000291581E08E8741E06D818981DF91CF9128
:102B10000C946111673041F0673661F461E0CE01D9
:102B2000DF91CF910C94291562E0CE010E94291506
:102B300042E0EACF663629F0623059F0DF91CF915A
:102B4000089563E0CE010E94291581E08E8743E05D
:102B5000DBCFCE01DF91CF910C942112CF92DF9287
:102B6000EF92FF920F931F93CF93DF93EC01888135
:102B7000182F1295169513700A81EB80FC8081FB4B
:102B8000CC24C0F883FBDD24D0F8113061F406308A
:102B900029F461E088ECE816F10440F11A8261E062
:102BA000CE010E946F15013081F0093119F1063014
:102BB00061F11230B1F180E0DF91CF911F910F915F
:102BC000FF90EF90DF90CF900895CC2041F088ECFB
:102BD000E816F104A0F163E0CE010E946F151230F7
:102BE00051F788ECE816F104E0F462E0CE010E94AF
:102BF0006F15E1CFCC20B9F088ECE816F104D8F0DD
:102C000063E0CE010E946F15D4CFC110D2CF63E034
:102C100088ECE816F10468F2CE010E946F1581E09D
:102C2000CBCF1A8206C0123031F688ECE816F104D8
:102C3000C0F762E0F1CF123009F0BDCFFACFD1106A
:102C4000CACF123091F2B7CFCF93DF93EC018A81D4
:102C500024E0829FC0011124682B6A831C821B829E
:102C6000663069F461E0CE010E94291581E08E870B
:102C700041E06D818981DF91CF910C9461116730C2
:102C800041F0693161F461E0CE01DF91CF910C94A4
:102C9000291562E0CE010E94291542E0EACF623098
:102CA00019F0DF91CF910895CE01DF91CF910C946F
:102CB0002112CF92DF92EF92FF920F931F93CF9347
:102CC000DF93EC018881182F1295169513700A81F5
:102CD000CB80DC8081FBEE24E0F883FBFF24F0F85E
:102CE000113061F4063029F461E088ECC816D10493
:102CF00060F11A8261E0CE010E942416013059F081
:102D0000063039F5E11005C063E088ECC816D1043F
:102D100030F580E028C0EE2089F063E088ECC8162A
:102D2000D10498F4FF2021F063E0CE010E94241624
:102D3000123079F709C0093161F70FC0123049F735
:102D400088ECC816D10428F762E0CE010E94241650
:102D5000E0CF1230F1F6073071F71A8262E0CE014F
:102D60000E94241681E0DF91CF911F910F91FF9077
:102D7000EF90DF90CF900895CF93DF93EC0188819F
:102D8000829586958370813061F48A8361E0CE01FB
:102D90000E94291541E06D8189810E94611180E0C6
:102DA00007C08230E1F78A83CE010E94211281E0C0
:102DB000DF91CF9108958093D50608958093D6062C
:102DC0000895AF92BF92CF92DF92FF920F931F931D
:102DD000CF93DF930E945D0B5C010E94760BEC01A8
:102DE0000E948F0B8C010E94A80B6C01C5010496F8
:102DF0000E94F008F82E80938307109385070093B4
:102E000084070C0D1D1D1093870700938607DF9222
:102E1000CF921F928F9389E594E09F938F930E94A6
:102E2000612B08E817E00F900F900F900F900F9014
:102E30000F905801D12C80E090E0DF1448F4CE01CF
:102E40000E94F008C82ECE0101960E94F0089C2D29
:102E5000D5018D939D935D01D3942296B0E1DB1251
:102E6000EACF0E946910E8EAF7E088E0DF011D92EE
:102E70008A95E9F71092B0071092B1071092B20745
:102E80001092B3071092B4071092B5071092B607CC
:102E90001092B7071092B8071092B9071092BA07AC
:102EA0004091830790E080E030E020E061E070E056
:102EB000841708F452C030937207209371078FEF84
:102EC00080937307809374078093D80610927007DD
:102ED00010926F07E8EDF6E090E080E04FE03FEF02
:102EE000489FD001499FB00D1124ED01C752D94F21
:102EF00028812E7F288332831382A852B94F1196DE
:102F00002C911197297F11962C9311971582148279
:102F100011962C911197277E11962C93368310864B
:102F200017821286118628812F79288313861486AA
:102F300015861686178601963F968A30910581F68A
:102F400081E08093D706DF91CF911F910F91FF9081
:102F5000DF90CF90BF90AF900895D801ED91FD9193
:102F60008D01F5FF09C0FB01082E02C0EE0FFF1F07
:102F70000A94E2F72E2B3F2B01969ACF8093D50629
:102F800008958093D60608958091D7068823D1F0BE
:102F90008091B0079091B107892B9091B207892B4E
:102FA0009091B30791118D7F8093A80786E0E4EBA1
:102FB000F7E0AAEAB7E001900D928A95E1F788EA76
:102FC00097E0089548E050E060E088EA97E00E94CA
:102FD000BF05F5CF8091D706882329F0809171072E
:102FE00090917207089590E080E008958091D7064F
:102FF000882359F080916F0790917007009739F0FE
:103000001092700710926F07089590E080E0089585
:10301000CF93DF93C82FD62F8091D706882309F44A
:1030200052C08C2F0E940111DC01DD2309F446C03F
:10303000892B79F530E020E09FE0929FF001939F8B
:10304000F00D1124DF01A752B94F8C912F5F3F4F34
:1030500080FD24C0DF01A752B94FE852F94FC28367
:103060001382158214828FEF868310861782128650
:10307000118681818078816081831386148615860C
:103080001686929FF001939FF00D1124E852F94F9C
:103090001082C093D8068C91846014C02A30310508
:1030A00061F61F92CF938DE794E09F938F930E94D8
:1030B000612B0F900F900F900F9005C0892B19F086
:1030C0008C918B7F8C93DF91CF910895CF92DF927B
:1030D000EF92FF920F931F93CF93DF93182F80915E
:1030E000D706882309F49CC0C9EDD6E06E01F12C07
:1030F000E12C0FE00E9DF0010F9DF00D1124E75221
:10310000F94F808180FF0AC0F60191818091D80635
:10311000981721F0612FC6010E94CD14FFEFEF1A1E
:10312000FF0A8FE0C80ED11CEAE0EE16F10411F799
:1031300099EDC92E96E0D92EF12CE12C0FE00E9DD1
:10314000F0010F9DF00D1124E752F94F808180FFAF
:103150000AC0F60191818091D806981304C0612FAE
:10316000C6010E94CD14FFEFEF1AFF0A8FE0C80ED0
:10317000D11CEAE0EE16F10411F78FEF8093D80628
:10318000E8EDF6E030E020E09FE0929FD001939FD1
:10319000B00D1124A752B94F8C9180FF0BC081FD57
:1031A00009C041855285452B29F44785411102C04C
:1031B0008E7F8C932F5F3F4F3F962A30310529F742
:1031C0008FE6E82E87E0F82E888180FF0BC08E8581
:1031D000882341F0810F8E87833320F0CE010E9437
:1031E00021121E862F96EC16FD0671F7809173074B
:1031F0008F3FB1F08091740787FD12C0810F8093DB
:10320000740783336CF08BE994E00E947C2B8091EF
:1032100073070E946E118FEF80937307809374077A
:10322000DF91CF911F910F91FF90EF90DF90CF90A2
:1032300008951092D70608950E94E40D81110C9410
:10324000E1160C941919CF93DF93D82FC62FE09174
:10325000CB07F091CC07309751F00190F081E02D31
:10326000309729F06C2F8D2FDF91CF910994D730B3
:1032700060F4ED2FF0E0EA54F14D0C94EF2881E07A
:10328000C11101C080E080931901E091CB07F0915A
:10329000CC07309729F00280F381E02D309711F7A9
:1032A000DF91CF91089581E0C11101C080E080934A
:1032B0001801EBCF81E0C11101C080E080931701BC
:1032C000E4CF81E0C11101C080E080931601DDCF21
:1032D00081E0C13009F080E080931501D6CF8C2FBA
:1032E0000E94BE178EEA94E0C23011F48AEA94E09C
:1032F0009F938F938CEB94E09F938F930E94612B0D
:103300000F900F900F900F90C0CF8C2F0E94C1177D
:1033100087EB94E0C13011F481EB94E09F938F939D
:103320008FEC94E0E9CF813011F40C9419198230BC
:1033300049F08A3049F481E08093CD0784EE94E02F
:103340000C947C2B0C941C198B3009F0089510926E
:10335000CD078DEF94E0F4CFCF93DF93C82FD62F16
:10336000E091BB07F091BC07309709F00995809177
:10337000DA079091DB07009739F08C0F911DFC0163
:10338000C081CF3F09F43FC0DD2379F11F92CF9375
:1033900087E195E09F938F930E94612B0F900F9090
:1033A0000F900F908C2F8093130180911801882328
:1033B00021F06D2F8C2F0E94F70FE091CB07F09139
:1033C000CC07309741F00680F781E02D309719F057
:1033D0006D2F8C2F09958091CD07811114C06D2F11
:1033E0008C2FDF91CF910C9408181F92CF9383E21A
:1033F00095E09F938F930E94612B0F900F900F90F9
:103400000F908FEFD0CFDF91CF910895CF93DF93BF
:10341000D82FC92F6091C20770E0482F592F83EC35
:1034200097E00E94F20581110DC0E091C20781E092
:103430008E0F8093C207F0E0EE0FFF1FED53F84FA1
:10344000D083C183DF91CF910895CF93DF93D82F9D
:10345000C92F6091BF0770E0482F592F80EC97E08B
:103460000E94F20581110DC0E091BF0781E08E0F2F
:103470008093BF07F0E0EE0FFF1FE054F84FD083BA
:10348000C183DF91CF9108959093BE078093BD07CC
:1034900008959093DB078093DA0708959093CC0703
:1034A0008093CB07089581E080931401089589EDFE
:1034B00097E0089588ED97E00895CF93DF930E94F9
:1034C00022090E94550A83E299E10E94340C0E946D
:1034D000010D0E94E608EC0148E050E06AE073E06C
:1034E0000E94490548E050E06CEC71E0CE0108967E
:1034F0000E944905CE0140960E941B100E941C1993
:1035000083E999E1DF91CF910C94470ECF93C0E00E
:103510008091C207C81710F0CF910895EC2FF0E00A
:10352000EE0FFF1FED53F84F0190F081E02D309723
:1035300019F088ED97E00995CF5FEACF0F931F93BD
:10354000CF93DF93182FC0E06C2F89ED97E00E9496
:10355000D905082F6C2F88ED97E00E94D905D82F48
:10356000011197C061E0811197C04D2F6C2F89ED3B
:1035700097E00E94C205CF5FC83031F7812F0E94CB
:1035800066180E94EA17EC010E94C4178C01809112
:10359000D6079091D707C817D90709F468C080915A
:1035A0001801882319F0CE010E940110E091CB0789
:1035B000F091CC07309739F00480F581E02D3097F9
:1035C00011F0CE010995D093D707C093D607D093B9
:1035D0001001C0930F01C1E048E050E06EEC77E0CD
:1035E000C8010E94A305811144C08091190188235C
:1035F00019F0C8010E94890848E050E0B8018EEC3B
:1036000097E00E9449058DE295E09F938F930E9479
:10361000612BCEECD7E00F900F900FE511E0899170
:103620001F928F931F930F930E94612B0F900F9007
:103630000F900F9087E0C63DD80789F78AE395E0A1
:103640009F938F930E94612B8091D7078F938091D6
:10365000D6078F938EE395E09F938F930E94612B03
:103660000F900F900F900F900F900F9004C0C0E03C
:10367000B3CFC111C8CF0E94F617009789F02091EF
:103680001801222369F0DF91CF911F910F910C94C3
:103690000E1081116ACF60E08C2F0E94AC1965CFAB
:1036A000DF91CF911F910F91089580911701882389
:1036B00041F081E09091D907911101C080E00C9414
:1036C000141C089580911701882341F081E09091A6
:1036D000D807911101C080E00C94141C08958091CA
:1036E0001601882351F081E00E94061C82E090E0E0
:1036F0000E94050680E00C94061C0895CF93C0E05C
:103700008091BF07C81710F0CF910895EC2FF0E01B
:10371000EE0FFF1FE054F84F0190F081E02D099566
:10372000CF5FEECFE091BD07F091BE07309709F073
:10373000099408950E94E9080E94620E0E94BF0D3C
:103740000C9423099093BC078093BB070895CF93F3
:103750008093DF077093DE076093DD074093DC07FB
:10376000C0E08091DF07C81710F0CF910895E09175
:10377000DD07F091DE07EC0FF11D80810E946E06DF
:10378000CF5FEFCF0F931F93CF93DF93D82F192FD6
:10379000C0E001E08091DF07C81728F0DF91CF91EA
:1037A0001F910F910895E091DD07F091DE07EC0F76
:1037B000F11D80810E94A006482F40276091DC0700
:1037C0006C0F8D2F912F0E94C205CF5FE3CFCF9357
:1037D000C42F80931B0160931A014093E0078F3F31
:1037E00039F00E9445066C2F80911B010E948906CA
:1037F00080911A018F3F41F00E9445066C2F809105
:103800001A01CF910C948906CF910895682F809169
:103810001B018F3F41F09091E007992311F091E057
:1038200069270C9489060895682F80911A018F3FAB
:1038300041F09091E007992311F091E069270C94F1
:103840008906089580911B018F3F11F00C94BC06EE
:10385000089580911A018F3F11F00C94BC060895D1
:1038600041E065E180E00C94E71BCF93C82F809185
:10387000E107882359F0CA3019F48DE00E94351C05
:103880008091C80085FFFCCFC093CE00CF910895F2
:10389000CF93DF9300D000D0CDB7DEB769837A83B2
:1038A0008B839C8360E472E48FE090E029813A810D
:1038B0004B815C810E94AE28215031093093CD00AC
:1038C0002093CC00EAECF0E08081817F86608083E9
:1038D00080818F7C80838081877F8083E9ECF0E02A
:1038E0008081886080838CE191E09093DD088093F3
:1038F000DC0881E08093E1078CE495E00F900F9065
:103900000F900F90DF91CF910C947C2BE9ECF0E0BD
:103910008081877F80838CE191E09093DD088093A4
:10392000DC081092E1070895CF93DF93D82FC62FBC
:103930008CE30E94890980E00E949B098D2F806B97
:103940000E949B098C2F8F700E949B098C2F82955F
:103950008F7080610E949B09DF91CF910C94A50923
:10396000CF93DF930E9424098CE30E948909C8E861
:10397000D5E0FE018591EF010E949B09F5E0CE396B
:10398000DF07B9F70E94A5091092E20780EA809349
:10399000E30780EC8093E40743E050E062EE77E0D9
:1039A0008CE3DF91CF910C942E090F931F93CF934B
:1039B000C0E060E08C2F0E94941C8CE30E94890977
:1039C00080E40E949B0900E810E080E00E949B09CF
:1039D00001501109D1F70E94A509CF5FC43049F702
:1039E000CF911F910F910895CF92DF92EF92FF92A6
:1039F0000F931F93CF93DF937C01D0E0C0E060E092
:103A00008C2F0E94941C8CE30E94890980E40E9400
:103A10009B0910E000E06701CC0EDD1EF801EE0FFF
:103A2000FF1FEE0FFF1FEC0DFD1D84910E949B09EF
:103A30000F5F1F4F0038110589F70E94A5092196D5
:103A4000C430D105E1F6DF91CF911F910F91FF9026
:103A5000EF90DF90CF90089590934F0880934E0899
:103A600070934D0860934C0850934B0840934A085C
:103A700008958F929F92AF92BF92CF92DF92EF9272
:103A8000FF92CF93DF93E6EEF7E026EF37E0812C4D
:103A9000912C54018394D90190E080E04D9144230E
:103AA000C9F0ED01219718824081518162817381B3
:103AB00075016401082E04C0CC0CDD1CEE1CFF1C3B
:103AC0000A94D2F74C295D296E297F2940835183BE
:103AD0006283738301968531910501F734962B5EDD
:103AE0003F4F87E0E63FF807B1F6DF91CF91FF90B7
:103AF000EF90DF90CF90BF90AF909F908F90089500
:103B00008F929F92AF92BF92CF92DF92EF92FF92ED
:103B10000F931F93CF93DF93942F252F641B35E1D1
:103B2000839FA00111244A50584F34E0839FF00135
:103B30001124EA51F84FC12CD12C7601C394762F71
:103B4000790FA92FB22F8D9181110DC0DF91CF91E7
:103B50001F910F91FF90EF90DF90CF90BF90AF90AB
:103B60009F908F900895EA01C70FD11D9881282F4B
:103B7000082E000C330B92171306B1F08883460110
:103B8000570104C0880C991CAA1CBB1C7A95D2F75B
:103B90000081118122813381082919292A293B2991
:103BA00000831183228333839A2F2B2FC8CF7F92D8
:103BB0008F929F92AF92BF92CF92DF92EF92FF923D
:103BC0000F931F93CF93DF9360914C0870914D0832
:103BD00080914A0890914B08680F791F80E890E027
:103BE0000E949A285B0186EFE82E87E0F82E96EE79
:103BF000C92E97E0D92E712CD0E0C0E048C0F60164
:103C000080819181A281B3810C2E04C0B695A795C5
:103C1000979587950A94D2F780FF38C0F701EC0F8B
:103C2000FD1F108160914C0870914D0880914A08E9
:103C300090914B08680F791F6C9F602D1124872D80
:103C40000E94941C8CE30E94890980E40E949B09D5
:103C5000112309F458C0812F110F990B80972091DF
:103C60004C0830914D08829F8001839F100D929FD8
:103C7000100D1124912C812C80914C0890914D08AD
:103C8000881699060CF442C00E94A5092196CA150F
:103C9000DB050CF4B4CFE5E1EE0EF11C7394F4E017
:103CA000CF0ED11C24E07212A7CF1092E60710921B
:103CB000E7071092E8071092E9071092EA071092BE
:103CC000EB071092EC071092ED071092EE0710929E
:103CD000EF071092F0071092F1071092F20710927E
:103CE000F3071092F4071092F507DF91CF911F911F
:103CF0000F91FF90EF90DF90CF90BF90AF909F908B
:103D00008F907F90089500E010E0B4CFE0914E08CE
:103D1000F0914F08E80DF91DE00FF11F84910E940A
:103D20009B098FEF881A980AA7CF90932F01809351
:103D30002E01089590932D0180932C0160932B0107
:103D400040932A0108950E94B01C40912A0150E03E
:103D500060912B0170E080912C0190912D010C94C9
:103D60002C1D0F931F93CF93DF93809150088111E7
:103D70000BC080912E0190912F010097A9F00E9415
:103D8000F41C8091500806C090911401911105C057
:103D90008C3340F48F5F80935008DF91CF911F9157
:103DA0000F9108958C3319F40E94D51CEACF8091AD
:103DB0002C0190912D01892B81F345E555E070E0B0
:103DC00060E090E080E00E94801DE0911101F091A0
:103DD000120187815DE281115BE286814DE28111F2
:103DE0004BE285813DE281113BE284812DE281112C
:103DF0002BE283819DE281119BE282818111A2C02D
:103E00008DE21F925F931F924F931F923F931F92D9
:103E10002F931F929F931F928F938CE595E09F9312
:103E20008F9382E598E09F938F930E94A82B42E5A1
:103E300058E06FE070E090E080E00E94801D80918B
:103E400013012DB73EB7205F3F4F0FB6F8943EBF2A
:103E50000FBE2DBF8F3F09F477C0E0911101F091A3
:103E60001201DF0112969F01285F3F4F1D91111132
:103E700003C02A173B07D1F700811F928F9389E671
:103E800095E09F938F93C2E5D8E0DF93CF930E9494
:103E9000A82BAE0170E060E083E090E00E94801DFE
:103EA0001F921F938FE695E09F938F93DF93CF939D
:103EB0000E94A82BAE0166E070E083E090E00E94D3
:103EC000801D1F920F9385E795E09F938F93DF935B
:103ED000CF930E94A82BAE016DE070E083E090E0EC
:103EE0000E94801D2DB73EB72E5E3F4F0FB6F8944F
:103EF0003EBF0FBE2DBF80910F01909110019927F9
:103F00009F938F938BE895E09F938F9382E598E042
:103F10009F938F930E94A82B42E558E062E170E0E6
:103F200083E090E00E94801D0E94D71D809151087F
:103F30008F5F809351080F900F900F900F900F900C
:103F40000F902BCF8BE25DCF6AE775E082E598E0BA
:103F50000E945A2B42E558E070E060E083E090E078
:103F60000E94801D60E875E082E598E00E945A2B6F
:103F700042E558E066E070E083E090E00E94801D3A
:103F800066E875E082E598E00E945A2B42E558E029
:103F90006DE070E083E090E00E94801DACCF0C9457
:103FA0004D28CF93DF93D82FC62F872F0E945028FC
:103FB0008D2F0E9450288C2FDF91CF910C94502888
:103FC000CF92DF92EF92FF920F931F93CF93DF93E5
:103FD00000D000D0CDB7DEB7E62F582F242F30E029
:103FE000A72FB0E00E94F5286B017C01CC242E2F76
:103FF00030E0A42FB0E00E94F528BB27A92F982F0E
:10400000872FC82AD92AEA2AFB2A242F30E0A52F95
:10401000B0E00E94F528BB27A92F982F872FDC013D
:104020009927882797018601082B192B2A2B3B2BD0
:1040300009831A832B833C83C901B8010F900F9029
:104040000F900F90DF91CF911F910F91FF90EF9004
:10405000DF90CF900C94D11FCF93DF9300D000D08E
:10406000CDB7DEB7E0916008ED3008F0E0E084E025
:10407000E89FF0011124ED57F64F85919591A59198
:10408000B591BC01CD010F900F900F900F90DF9173
:10409000CF9108952F923F924F925F926F927F92AD
:1040A0008F929F92AF92BF92CF92DF92EF92FF9248
:1040B0000F931F93CF93DF93CDB7DEB760970FB603
:1040C000F894DEBF0FBECDBF80905B0890905C0877
:1040D000A0905D08B0905E08C501B40126E930E00B
:1040E00040E050E00E94AE2869837A838B839C83F2
:1040F0000E942B2A20E030E046E153E469837A8372
:104100008B839C8369817A818B819C810E948A291F
:10411000F62E172F8F839D830E942C204B015C016C
:104120004FEF84169406A406B10431F438E8832EC8
:1041300099249A94A92CB12C340155244424442464
:1041400055247724BB27AB2D9A2D892D482A592A2F
:104150006A2A7B2A20E030E040E450E4F9821A83A6
:104160006F816B837D817C8369817A818B819C8166
:104170000E94DD2A8B0189879F8320E030E040E8A0
:104180005FE369831A838B839C8369817A818B8146
:104190009C810E94852987FD2AC0FA2CE92CD82C05
:1041A000CC24CC24FF24C501AA27BB27C82AD92A9E
:1041B000EA2AFB2A20E030E040E050E469817A817D
:1041C0008B819C810E94852987FF78C020E030E0A8
:1041D00040E85FE369817A818B819C810E94182984
:1041E0008B0189879F83530142012601370120916A
:1041F000320130913301032E000C440B550B60E06B
:1042000070E081E090E00E94D0283E832D830E94E0
:10421000230620E030E040E853E409831A838985CF
:104220008B839F819C8369817A818B819C810E9491
:10423000DD2A69837A838B839C8369817A818B8170
:104240009C810E94FC29A3E06A9F60011124EA2D51
:10425000F0E0F887EF83262C312C492D50E05A8767
:104260004987E52CF12C1982682D70E0788B6F87D7
:10427000042D10E08980282D30E08091320190914A
:1042800033012817390794F160960FB6F894DEBF12
:104290000FBECDBFDF91CF911F910F91FF90EF9097
:1042A000DF90CF90BF90AF909F908F907F906F9056
:1042B0005F904F903F902F900C94210620E030E0CB
:1042C00040E050E409831A8369856B837F817C8396
:1042D00069817A818B819C810E9418298B01898751
:1042E0009F83240135014601570181CF8D809E8037
:1042F000289DC001299D900D389D900D1124892F76
:104300009927880F991F9601281B390B2F3F3105DC
:1043100019F014F02FEF30E037FF02C020E030E05A
:104320004FEF50E0421B530BAF80B8844A9D2001F1
:104330004B9D500C5A9D500C1124229DC001239D71
:10434000900D329D900D1124480E591E452C552478
:10435000712C612C32015524442489849A84489D0F
:10436000C001499D900D589D900D11242E9DB001C6
:104370002F9D700D3E9D700D1124860F971F892F64
:104380009927B0E0A0E0BA2FA92F982F8827842979
:104390009529A629B729AF84B888A49EB001A59E07
:1043A000700DB49E700D1124029FA001039F500D4B
:1043B000129F500D1124640F751F672F7727AB01D3
:1043C00070E060E04C015D01842A952AA62AB72A94
:1043D0008B869C86AD86BE8640915F08C501B40180
:1043E0000E94E01F49814F5F498344CFAF92BF9243
:1043F000CF92DF92EF92FF920F931F93CF93DF93B1
:1044000000D000D000D0CDB7DEB70E942C20F62E11
:10441000E72ED82EC92EA0903201B090330195011D
:10442000220F331F3E832D8380915B0890915C089F
:10443000A0915D08B0915E089C01AD01569547952D
:104440003795279529833A834B835C838D819E81A1
:104450009C01990F440B550B69817A818B819C815A
:104460000E94AE2869837A838B839C8309811A8199
:10447000A016B10634F40D811E8129813A81021BF8
:10448000130B0E9423061A821982809132019091A7
:10449000330149815A814817590794F026960FB67F
:1044A000F894DEBF0FBECDBFDF91CF911F910F916A
:1044B000FF90EF90DF90CF90BF90AF900C942106CB
:1044C00040915F0889819A818017910769F060E0C7
:1044D00070E080E090E00E94E01F29813A812F5F28
:1044E0003F4F3A832983D1CF6F2D7E2D8D2D9C2D6B
:1044F000F2CFDF92EF92FF920F931F93CF93DF9350
:104500000E942C20162F072FF82EE92E20915B08F1
:1045100030915C0883E0220F331F8A95E1F73170F8
:10452000213041E0340734F080E092E0AC01421BDE
:10453000530B9A0140915F08429FC001439F900D29
:104540001124D92E0E942306D0E0C0E080913201D0
:1045500090913301C817D9074CF0DF91CF911F918B
:104560000F91FF90EF90DF900C9421064D2D612F5D
:10457000702F8F2D9E2D0E94E01F2196E7CFEF9286
:10458000FF920F931F93CF93DF930E942C20162F3F
:10459000072FF82EE92E0E942306D0E0C0E080917C
:1045A000320190913301C817D90744F0DF91CF91C0
:1045B0001F910F91FF90EF900C94210640915F089E
:1045C000612F702F8F2D9E2D0E94E01F2196E7CF27
:1045D000873039F481E0611101C080E08093610887
:1045E0000895883019F4609360080895893041F483
:1045F000669FB001112481E0870F80935F080895C2
:104600008A3011F460935A0808950F931F93CF9343
:10461000DF9300D000D000D0CDB7DEB780915B082B
:1046200090915C08A0915D08B0915E08BC01CD013D
:1046300024E130E040E050E00E94AE2869837A83B4
:104640008B839C83672B682B692B09F048C00E94E1
:1046500023061E821D820DEE15E18091320190919C
:1046600033012D813E812817390764F026960FB655
:10467000F894DEBF0FBECDBFDF91CF911F910F9198
:104680000C9421062091300130913101209FC0010E
:10469000219F900D309F900D1124419690933101F0
:1046A000809330016DE00E948E28A4E09A9FF00173
:1046B0001124ED57F64F85919591A591B591898378
:1046C0009A83AB83BC8340915F08BC01CD010E94FB
:1046D000E01FAD81BE811196BE83AD83BECF26960D
:1046E0000FB6F894DEBF0FBECDBFDF91CF911F9103
:1046F0000F9108956CE088E00E94570C64E08AE016
:104700000C94570C88EE92E20E94340C0C94CF1F4C
:104710008FE090E090933301809332010895CF931E
:10472000DF938091610881112AC00E942306D0E0A6
:10473000C0E08091320190913301C817D907C4F0CD
:104740000E94210680915B0890915C08A0915D0811
:10475000B0915E080196A11DB11D80935B089093F6
:104760005C08A0935D08B0935E08DF91CF91089537
:1047700060E070E0CB010E94D11F2196DACFE0917A
:104780005A08E530F8F6F0E0EE0FFF1FE758F64F55
:104790000590F491E02D0995D5CF52985A9A089535
:1047A00020E032E099B1892F847092FF09C02F3F39
:1047B00011F482E00895832F8A95F1F72F5FF2CFED
:1047C00032E02223B1F34A9907C08F3F91F3932F30
:1047D0009A95F1F78F5FF7CF882359F3820F982FBF
:1047E000969581E0921730F380E00895EF92FF9262
:1047F0000F931F93CF93DF9380E022E04A990AC082
:104800008F3F19F4E29AC0E029C0922F9A95F1F7F0
:104810008F5FF4CF06E618E0C0E0882399F387E0C5
:10482000E82EF12CD0E00E94D023823059F30E2CD8
:1048300001C0880F0A94EAF7D82B81E0E81AF10842
:1048400090F7CF5FF801D1938F010E94D02382307F
:10485000C9F2813011F0C03111F7E29A8C2FDF914B
:10486000CF911F910F91FF90EF9008955A9A88234E
:1048700041F080EA8A95F1F75A9888E28A95F1F733
:1048800008958CE38A95F1F75A988CE8F7CF9F92B8
:10489000AF92BF92CF92DF92EF92FF920F931F934E
:1048A000CF93DF93529A5A9A5A9898EC292F2A95C7
:1048B000F1F79A95F1F7C82FD0E010E000E07E0103
:1048C00081E0E81AF108C017D10791F40E94CD23C6
:1048D00088EC8A95F1F7E29ADF91CF911F910F91C1
:1048E000FF90EF90DF90CF90BF90AF909F90089592
:1048F00099249394E016F10609F0912C87E0A82EF4
:10490000B12CF801EA58F74F6F01F601808190E071
:104910000A2C02C0959587950A94E2F781700E944F
:104920003624F1E0AF1AB10880F7892D0E943624B1
:104930000F5F1F4FC8CF0C94CD23CF93792FC62F75
:10494000462F50E0682F86E798E00E944A2BC093DC
:104950006508CF910895F894809165080E944724D6
:104960000E94F6238093640878940895CF93C091B1
:1049700064086C1708F4C62F4C2F50E066E678E008
:104980000E944A2B8C2FCF910895909363088093B7
:104990006208E9E6F0E080818F7C80628083EA9A99
:1049A000789408951092630810926208E9E6F0E0A6
:1049B00080818F7C8083EA9808951F920F920FB6B2
:1049C0000F9211242F933F934F935F936F937F9395
:1049D0008F939F93AF93BF93EF93FF930E94F62320
:1049E0008093640810926508E0916208F091630872
:1049F000309709F009958091650881110E9447243C
:104A0000FF91EF91BF91AF919F918F917F916F91A6
:104A10005F914F913F912F910F900FBE0F901F907C
:104A2000189530918F083031C8F42091910894E0A6
:104A3000299FF0011124EE56F74F90E0B0E0A0E07E
:104A4000962BA42B80839183A283B3832F5F2F7037
:104A5000209391083F5F30938F08089580E995E097
:104A60000C947C2B462F682F80EC0C94112580EF42
:104A70008093D60861E086ED98E00C949D248093A5
:104A8000D60861E086ED98E00E949D240E94AB2448
:104A900064E082ED98E00E94B624813021F4909188
:104AA000D208903F09F080E0817080938E080895CD
:104AB000CF93C82F809134018C1711F181E0C13060
:104AC00009F080E08093880889EC95E0C13011F40A
:104AD00083EC95E09F938F938EEC95E09F938F935B
:104AE0000E94612BE0918608F09187080F900F904B
:104AF0000F900F90309711F08C2F0995C0933401CF
:104B0000CF910895CF93DF93C82FD62F8EEF8C0FC0
:104B1000833020F089EF8C0F843060F44D2F6C2FA0
:104B200081EC0E941125C43029F48D2FDF91CF91A3
:104B30000C945825DF91CF910895CF9380918E08E2
:104B4000882301F18FE98093D60882E390E00E94E8
:104B50001406C4E661E086ED98E00E949D240E9460
:104B6000AB2464E082ED98E00E94B624813021F409
:104B70008091D208803F31F084EF91E00E941406CA
:104B8000C15041F7CF91089564E082ED98E00E9412
:104B9000B6248823C1F18091D2088F3961F48091C5
:104BA0008D08882371F081EF8093D60861E086ED4F
:104BB00098E00C949D249FE6980F943020F4809305
:104BC0008D080C9437258034D1F481E48093D60885
:104BD00040918A0850E06BE878E087ED98E00E9409
:104BE000490560918A086F5FE2CF4091D4086091D7
:104BF000D3080E94112581E080938C08E2CF90E4D5
:104C0000980F923090F308959093870880938608C8
:104C10000895CF93DF93CDB7DEB728970FB6F894FA
:104C2000DEBF0FBECDBF0E9425068EED95E00E942F
:104C30007C2B0E945D1A82E00E946E0681E090E06B
:104C40000E94050682E00E94A00689831F928F932E
:104C500086EF95E09F938F930E94612B0F900F90AA
:104C60000F900F902981222309F4DFC084E08D8307
:104C700081E00E94061C82E090E00E94050680E030
:104C80000E94061C84E690E00E9405069D819150DA
:104C90009D839111EDCF0E949B240E942106A98142
:104CA000AA2309F455C10E944D0884E00E945B0DBF
:104CB0000E9458250E94E10D7C011982F701619143
:104CC0007F0189810E948225F981FF5FF983FD3090
:104CD000A9F782E895E20E94340C82E395E20E94F3
:104CE000A21B84E090E0A0E0B0E089839A83AB83CC
:104CF000BC8350E3C52ED12CE12CF12C60EA862E2A
:104D00006FE0962EA12CB12C78EE472E73E0572E33
:104D1000612C712C89819A81AB81BC818370992728
:104D2000AA27BB270097A105B10509F089C082E930
:104D30000E943F250E94861A8FE00E949E1A0E94C0
:104D4000551B0E949D2569817A818B819C8128E277
:104D500030E040E050E00E94AE28613071058105EE
:104D6000910559F483E90E943F2569817A818B81FD
:104D70009C810E947E1B0E949D2569817A818B8186
:104D80009C81A70196010E94AE28623071058105C1
:104D9000910559F484E90E943F2569817A818B81CC
:104DA0009C810E94921B0E949D2569817A818B8142
:104DB0009C81A50194010E94AE2863307105810594
:104DC000910559F480918E08882339F081E90E9479
:104DD0003F250E946F1B0E949D2569817A818B81EE
:104DE0009C81A30192010E94AE286D837E838F83F4
:104DF0009887672B682B692B31F480918E0881117D
:104E000002C00E94221C0E949A1B84EF91E00E9423
:104E1000140689819A81AB81BC810196A11DB11DC7
:104E200089839A83AB83BC8375CF81E00E94061C83
:104E300084EF91E00E94050680E00E94061C2BCFC3
:104E400081309105A105B10509F450C00297A10573
:104E5000B10509F078CF80918E08882309F473CFCB
:104E6000E091900824E0E29FF0011124EE56F74F04
:104E70002081318180819181A281B3810097A10538
:104E8000B10509F460CF3093D7082093D608A093DA
:104E9000D80863E086ED98E00E949D240E94AB2430
:104EA00064E082ED98E00E94B624813009F04DC0A4
:104EB0008091D208803F09F048C090918F089923D3
:104EC00009F441CF80919008A4E08A9FF001112459
:104ED000EE56F74F10821182128213828F5F8F700D
:104EE00080939008915090938F082DCF80918E08D9
:104EF000882309F428CF90E49093D60861E086EDEA
:104F000098E00E949D240E94AB2464E082ED98E02A
:104F10000E94B624A0918808AD83823089F48091E4
:104F2000D208813469F40E945A1ABD8104E020E05D
:104F300043ED58E064E0B11160E00E94540503CFF6
:104F400083E096E00E947C2BFECE83E296E0FACFCF
:104F50000E94531A84EC95E20E94C52480918D082A
:104F60008239C1F40E94861A0E94621B0E945A1A5A
:104F7000AC018091880804E024E0811101C020E0A8
:104F800060E08BE898E00E94540591E090938A08D5
:104F900010928D0880918D08833939F460E070E0BB
:104FA000CB010E947E1B10928D0880918D08843960
:104FB00039F460E070E0CB010E94921B10928D08E2
:104FC00080918D08813921F40E946F1B10928D0809
:104FD00080918C088823B9F130918F08332389F1AF
:104FE00020919008A4E02A9FF0011124EE56F74F7B
:104FF00080819181A281B3811082118212821382F9
:105000002F5F2F7020939008315030938F080097B6
:10501000A105B105B1F0282FC92EDA2EEB2EFF2401
:105020001C2DBD01882799276983203C89F40E94A3
:10503000571A41E0B981B11101C040E06C2D0E94C6
:10504000C20510928C088AE090E00E94140686CF78
:10505000213CB9F78C2D0E94610D0E94DF0D1430A8
:1050600081F781E0E981E11180E00E945825E9CFD4
:10507000CF93C82F40E06BE571E0882319F044E03E
:1050800067E571E084E00E94A71B82EC9BE10E942F
:10509000061A8C2FCF910C948823849A8C980895AB
:1050A00098E0880F30F08C9A0000000000008C9887
:1050B000000088F48C9A000000000000000000004E
:1050C000000000000000000000008C9800000000BC
:1050D000000000000000880F9A9521F708950E94B3
:1050E000301C60E076E980E090E00E94481C0E945D
:1050F000A31E81EB9EE10E94441A0E947A230E9423
:1051000082238FE893E20E94251A88E398E20E94A6
:1051100004260E94092690E080E00895991B79E01A
:1051200004C0991F961708F0961B881F7A95C9F737
:105130008095089597FB072E16F4009407D077FD0D
:1051400009D00E94042907FC05D03EF49095819572
:105150009F4F0895709561957F4F0895A1E21A2E93
:10516000AA1BBB1BFD010DC0AA1FBB1FEE1FFF1F0B
:10517000A217B307E407F50720F0A21BB30BE40B5B
:10518000F50B661F771F881F991F1A9469F76095A2
:105190007095809590959B01AC01BD01CF0108955C
:1051A000052E97FB1EF400940E94E72857FD07D0B8
:1051B0000E94AE2807FC03D04EF40C94E7285095CB
:1051C0004095309521953F4F4F4F5F4F08959095F3
:1051D0008095709561957F4F8F4F9F4F0895EE0F8B
:1051E000FF1F0590F491E02D0994A29FB001B39F99
:1051F000C001A39F700D811D1124911DB29F700DE0
:10520000811D1124911D0895AA1BBB1B51E107C0EC
:10521000AA1FBB1FA617B70710F0A61BB70B881F46
:10522000991F5A95A9F780959095BC01CD010895D5
:105230005058BB27AA270E9430290C94A32A0E9409
:10524000952A38F00E949C2A20F039F49F3F19F4E7
:1052500026F40C94922A0EF4E095E7FB0C948C2A29
:10526000E92F0E94B42A58F3BA176207730784071C
:10527000950720F079F4A6F50C94D62A0EF4E09563
:105280000B2EBA2FA02D0B01B90190010C01CA0100
:10529000A0011124FF27591B99F0593F50F4503EAB
:1052A00068F11A16F040A22F232F342F4427585F9D
:1052B000F3CF469537952795A795F0405395C9F7B5
:1052C0007EF41F16BA0B620B730B840BBAF091506D
:1052D000A1F0FF0FBB1F661F771F881FC2F70EC00C
:1052E000BA0F621F731F841F48F4879577956795DF
:1052F000B795F7959E3F08F0B0CF9395880F08F0CB
:105300009927EE0F9795879508950E94682A08F4CB
:1053100081E008950E949E290C94A32A0E949C2A51
:1053200058F00E94952A40F029F45F3F29F00C9430
:105330008C2A51110C94D72A0C94922A0E94B42AD8
:1053400068F39923B1F3552391F3951B550BBB27B4
:10535000AA2762177307840738F09F5F5F4F220FF9
:10536000331F441FAA1FA9F335D00E2E3AF0E0E8F0
:1053700032D091505040E695001CCAF72BD0FE2F3A
:1053800029D0660F771F881FBB1F261737074807CE
:10539000AB07B0E809F0BB0B802DBF01FF27935886
:1053A0005F4F3AF09E3F510578F00C948C2A0C9494
:1053B000D72A5F3FE4F3983ED4F3869577956795B7
:1053C000B795F7959F5FC9F7880F911D96958795BB
:1053D00097F90895E1E0660F771F881FBB1F6217DA
:1053E00073078407BA0720F0621B730B840BBA0B98
:1053F000EE1F88F7E09508950E94BC2A88F09F5719
:1054000098F0B92F9927B751B0F0E1F0660F771FE8
:10541000881F991F1AF0BA95C9F714C0B13091F0DE
:105420000E94D62AB1E008950C94D62A672F782FCF
:105430008827B85F39F0B93FCCF3869577956795A3
:10544000B395D9F73EF490958095709561957F4F0F
:105450008F4F9F4F0895E89409C097FB3EF49095B5
:105460008095709561957F4F8F4F9F4F9923A9F03D
:10547000F92F96E9BB279395F695879577956795CC
:10548000B795F111F8CFFAF4BB0F11F460FF1BC010
:105490006F5F7F4F8F4F9F4F16C0882311F096E9A3
:1054A00011C0772321F09EE8872F762F05C0662351
:1054B00071F096E8862F70E060E02AF09A95660F0A
:1054C000771F881FDAF7880F9695879597F90895C3
:1054D000990F0008550FAA0BE0E8FEEF1616170605
:1054E000E807F907C0F012161306E407F50798F06D
:1054F000621B730B840B950B39F40A2661F0232B86
:10550000242B252B21F408950A2609F4A140A69501
:105510008FEF811D811D089597F99F6780E870E0E6
:1055200060E008959FEF80EC089500240A94161619
:10553000170618060906089500240A941216130681
:10554000140605060895092E0394000C11F488230F
:1055500052F0BB0F40F4BF2B11F460FF04C06F5F2B
:105560007F4F8F4F9F4F089557FD9058440F551F01
:1055700059F05F3F71F04795880F97FB991F61F0D5
:105580009F3F79F087950895121613061406551F4C
:10559000F2CF4695F1DF08C0161617061806991FB8
:1055A000F1CF86957105610508940895E894BB27AD
:1055B00066277727CB0197F908950E94F02A0C946B
:1055C000A32A0E94952A38F00E949C2A20F0952355
:1055D00011F00C948C2A0C94922A11240C94D72A42
:1055E0000E94B42A70F3959FC1F3950F50E0551FA8
:1055F000629FF001729FBB27F00DB11D639FAA2728
:10560000F00DB11DAA1F649F6627B00DA11D661F76
:10561000829F2227B00DA11D621F739FB00DA11D97
:10562000621F839FA00D611D221F749F3327A00D51
:10563000611D231F849F600D211D822F762F6A2FED
:1056400011249F5750409AF0F1F088234AF0EE0F52
:10565000FF1FBB1F661F771F881F91505040A9F77F
:105660009E3F510580F00C948C2A0C94D72A5F3F02
:10567000E4F3983ED4F3869577956795B795F795BB
:10568000E7959F5FC1F7FE2B880F911D9695879533
:1056900097F90895FB01DC0102C001900D92415081
:1056A0005040D8F70895DC0101C06D93415050403F
:1056B000E0F70895FB01DC0101900D920020E1F775
:1056C0000895B0E0A0E0E7E6FBE20C948D2EFE0129
:1056D000359661917191AF018091DC089091DD0860
:1056E0000E94CB2BE2E00C94A92E6091DC08709113
:1056F000DD080E94B42D08950F931F93CF93DF937D
:10570000E091DC08F091DD08238100E010E021FD4C
:105710000EC00FEF1FEFC801DF91CF911F910F91C6
:1057200008950995892B11F00FEF1FEFCE01EC01C1
:1057300089916091DC087091DD08DB011896ED918C
:10574000FC918111EECF8AE00995892B21F3E1CFFD
:10575000AEE0B0E0EEEAFBE20C948B2E0D891E89E0
:1057600086E08C831A8309838FEF9FE79E838D8366
:10577000AE01475E5F4F6F89788DCE0101960E9422
:10578000CB2B2F813885020F131FF80110822E9624
:10579000E4E00C94A72EAFE0B0E0E1EDFBE20C9466
:1057A0007D2E7C013B018A01DC0117961C921E9222
:1057B000169713968C9181FFBEC19AE0292EFE01A7
:1057C00031964F01D70113969C91F30193FD85917A
:1057D00093FF81913F01882309F444C1853239F454
:1057E00093FD859193FF81913F01853229F4B701A3
:1057F00090E00E94B42DE6CFB12C412C512CBFE19A
:10580000B51538F08B3209F188F4803201F183321A
:1058100021F157FC3AC020ED280F2A3040F556FE02
:105820001FC0B29C200D1124B22E06C08D3291F003
:10583000803379F7689450F8F30193FD859193FFD5
:1058400081913F018111DBCF20C0689451F86894A9
:1058500052F8F2CF689453F8EFCF689454F8ECCF35
:10586000429C200D1124422E689455F8E5CF8E32CB
:1058700029F456FCF7C0689456F8DECF8C3619F43C
:10588000689457F8D9CF8836B9F2982F9F7D9554F0
:105890009330C0F0833681F18337A1F1833509F06D
:1058A0005BC0D801CD90DD908D016B2D70E056FC72
:1058B00002C06FEF7FEFC6010E949E2D5C016894CD
:1058C00057F80AC00C5F1F4FEFE3E983AA24A394A3
:1058D000B12C6401E89457F853FE29C0342CA1146C
:1058E000B10451F5332009F46DCFB70180E290E0A7
:1058F0000E94B42D3A94F6CFD8018C9189830E5F23
:105900001F4FE4CFF801C190D1908F016B2D70E053
:1059100056FC02C06FEF7FEFC6010E94A92D5C010B
:10592000D9CFB70180E290E00E94B42D4A944A1486
:105930001B0409F0B0F7D2CFF60157FC859157FE52
:1059400081916F01B70190E00E94B42D31103A941B
:10595000B1E0AB1AB108C3CF843619F0893609F02B
:1059600071C0F80157FE67C0619171918191919169
:105970008F01E52DEF76DE2E97FF09C0909580957B
:10598000709561957F4F8F4F9F4F6894D7F82AE0AD
:1059900030E0A4010E94E42DC82EC818AC2C5D2C68
:1059A000D6FE0CC0E89450F8CB1440F4D4FE05C0E9
:1059B000D2FC03C05D2D5E7E552EAB2C54FE93C0F1
:1059C000FE01EC0DF11D8081803309F085C0652D4D
:1059D000697E562E752D7870372E53FC93C050FE7D
:1059E0008DC0BC2CA41410F4B40CBA1854FE90C092
:1059F000B70180E390E00E94B42D52FE07C088E713
:105A000051FC88E590E0B7010E94B42DCB1408F456
:105A10008BC0CA94D12C8FEFC81AD80AC80CD91CD5
:105A2000D6018E916D01B70190E00E94B42D8C14C7
:105A30009D04B1F757CF61917191072E000C880B2F
:105A4000990B96CFD52CE894D4F82AE0853729F124
:105A5000F52DF97FDF2E8037A1F058F48835A1F0BD
:105A60008F36D1F0F701868197812F96E2E10C9471
:105A7000992E8837B9F7D4FE02C06894D2F820E195
:105A80000CC06894D4F8F7CF54FE03C02F2F2660C3
:105A9000D22E20E132E002C028E030E0F801D7FE4B
:105AA00015C041915191619171914C875D876E87CD
:105AB0007F878F01A4016C857D858E859F850E94DF
:105AC000E42DC82EC818E894D7F868CF8191919139
:105AD000AC0170E060E0E9CF52FC02C0A3947ACF41
